{
	"contracts/ERC1155.sol": {
		"ERC1155": {
			"abi": [
				{
					"inputs": [
						{
							"internalType": "string",
							"name": "name_",
							"type": "string"
						},
						{
							"internalType": "string",
							"name": "symbol_",
							"type": "string"
						}
					],
					"stateMutability": "nonpayable",
					"type": "constructor"
				},
				{
					"anonymous": false,
					"inputs": [
						{
							"indexed": true,
							"internalType": "address",
							"name": "account",
							"type": "address"
						},
						{
							"indexed": true,
							"internalType": "address",
							"name": "operator",
							"type": "address"
						},
						{
							"indexed": false,
							"internalType": "bool",
							"name": "approved",
							"type": "bool"
						}
					],
					"name": "ApprovalForAll",
					"type": "event"
				},
				{
					"anonymous": false,
					"inputs": [
						{
							"indexed": true,
							"internalType": "address",
							"name": "operator",
							"type": "address"
						},
						{
							"indexed": true,
							"internalType": "address",
							"name": "from",
							"type": "address"
						},
						{
							"indexed": true,
							"internalType": "address",
							"name": "to",
							"type": "address"
						},
						{
							"indexed": false,
							"internalType": "uint256[]",
							"name": "ids",
							"type": "uint256[]"
						},
						{
							"indexed": false,
							"internalType": "uint256[]",
							"name": "values",
							"type": "uint256[]"
						}
					],
					"name": "TransferBatch",
					"type": "event"
				},
				{
					"anonymous": false,
					"inputs": [
						{
							"indexed": true,
							"internalType": "address",
							"name": "operator",
							"type": "address"
						},
						{
							"indexed": true,
							"internalType": "address",
							"name": "from",
							"type": "address"
						},
						{
							"indexed": true,
							"internalType": "address",
							"name": "to",
							"type": "address"
						},
						{
							"indexed": false,
							"internalType": "uint256",
							"name": "id",
							"type": "uint256"
						},
						{
							"indexed": false,
							"internalType": "uint256",
							"name": "value",
							"type": "uint256"
						}
					],
					"name": "TransferSingle",
					"type": "event"
				},
				{
					"anonymous": false,
					"inputs": [
						{
							"indexed": false,
							"internalType": "string",
							"name": "value",
							"type": "string"
						},
						{
							"indexed": true,
							"internalType": "uint256",
							"name": "id",
							"type": "uint256"
						}
					],
					"name": "URI",
					"type": "event"
				},
				{
					"anonymous": false,
					"inputs": [
						{
							"indexed": false,
							"internalType": "string",
							"name": "value",
							"type": "string"
						}
					],
					"name": "tokenBaseURI",
					"type": "event"
				},
				{
					"inputs": [
						{
							"internalType": "address",
							"name": "account",
							"type": "address"
						},
						{
							"internalType": "uint256",
							"name": "tokenId",
							"type": "uint256"
						}
					],
					"name": "balanceOf",
					"outputs": [
						{
							"internalType": "uint256",
							"name": "",
							"type": "uint256"
						}
					],
					"stateMutability": "view",
					"type": "function"
				},
				{
					"inputs": [
						{
							"internalType": "address[]",
							"name": "accounts",
							"type": "address[]"
						},
						{
							"internalType": "uint256[]",
							"name": "ids",
							"type": "uint256[]"
						}
					],
					"name": "balanceOfBatch",
					"outputs": [
						{
							"internalType": "uint256[]",
							"name": "",
							"type": "uint256[]"
						}
					],
					"stateMutability": "view",
					"type": "function"
				},
				{
					"inputs": [
						{
							"internalType": "uint256",
							"name": "tokenId",
							"type": "uint256"
						}
					],
					"name": "getCreator",
					"outputs": [
						{
							"internalType": "address",
							"name": "",
							"type": "address"
						}
					],
					"stateMutability": "view",
					"type": "function"
				},
				{
					"inputs": [
						{
							"internalType": "address",
							"name": "account",
							"type": "address"
						},
						{
							"internalType": "address",
							"name": "operator",
							"type": "address"
						}
					],
					"name": "isApprovedForAll",
					"outputs": [
						{
							"internalType": "bool",
							"name": "",
							"type": "bool"
						}
					],
					"stateMutability": "view",
					"type": "function"
				},
				{
					"inputs": [],
					"name": "name",
					"outputs": [
						{
							"internalType": "string",
							"name": "",
							"type": "string"
						}
					],
					"stateMutability": "view",
					"type": "function"
				},
				{
					"inputs": [
						{
							"internalType": "uint256",
							"name": "tokenId",
							"type": "uint256"
						}
					],
					"name": "royaltyFee",
					"outputs": [
						{
							"internalType": "uint256",
							"name": "",
							"type": "uint256"
						}
					],
					"stateMutability": "view",
					"type": "function"
				},
				{
					"inputs": [
						{
							"internalType": "address",
							"name": "from",
							"type": "address"
						},
						{
							"internalType": "address",
							"name": "to",
							"type": "address"
						},
						{
							"internalType": "uint256[]",
							"name": "tokenIds",
							"type": "uint256[]"
						},
						{
							"internalType": "uint256[]",
							"name": "amounts",
							"type": "uint256[]"
						},
						{
							"internalType": "bytes",
							"name": "data",
							"type": "bytes"
						}
					],
					"name": "safeBatchTransferFrom",
					"outputs": [],
					"stateMutability": "nonpayable",
					"type": "function"
				},
				{
					"inputs": [
						{
							"internalType": "address",
							"name": "from",
							"type": "address"
						},
						{
							"internalType": "address",
							"name": "to",
							"type": "address"
						},
						{
							"internalType": "uint256",
							"name": "tokenId",
							"type": "uint256"
						},
						{
							"internalType": "uint256",
							"name": "amount",
							"type": "uint256"
						},
						{
							"internalType": "bytes",
							"name": "data",
							"type": "bytes"
						}
					],
					"name": "safeTransferFrom",
					"outputs": [],
					"stateMutability": "nonpayable",
					"type": "function"
				},
				{
					"inputs": [
						{
							"internalType": "address",
							"name": "operator",
							"type": "address"
						},
						{
							"internalType": "bool",
							"name": "approved",
							"type": "bool"
						}
					],
					"name": "setApprovalForAll",
					"outputs": [],
					"stateMutability": "nonpayable",
					"type": "function"
				},
				{
					"inputs": [
						{
							"internalType": "bytes4",
							"name": "interfaceId",
							"type": "bytes4"
						}
					],
					"name": "supportsInterface",
					"outputs": [
						{
							"internalType": "bool",
							"name": "",
							"type": "bool"
						}
					],
					"stateMutability": "view",
					"type": "function"
				},
				{
					"inputs": [],
					"name": "symbol",
					"outputs": [
						{
							"internalType": "string",
							"name": "",
							"type": "string"
						}
					],
					"stateMutability": "view",
					"type": "function"
				},
				{
					"inputs": [
						{
							"internalType": "uint256",
							"name": "tokenId",
							"type": "uint256"
						}
					],
					"name": "tokenURI",
					"outputs": [
						{
							"internalType": "string",
							"name": "",
							"type": "string"
						}
					],
					"stateMutability": "view",
					"type": "function"
				},
				{
					"inputs": [],
					"name": "tokenURIPrefix",
					"outputs": [
						{
							"internalType": "string",
							"name": "",
							"type": "string"
						}
					],
					"stateMutability": "view",
					"type": "function"
				},
				{
					"inputs": [],
					"name": "totalSupply",
					"outputs": [
						{
							"internalType": "uint256",
							"name": "",
							"type": "uint256"
						}
					],
					"stateMutability": "view",
					"type": "function"
				}
			],
			"devdoc": {
				"kind": "dev",
				"methods": {
					"balanceOf(address,uint256)": {
						"params": {
							"account": "The address of the token holder",
							"tokenId": "ID of the Token"
						},
						"returns": {
							"_0": "The owner's balance of the Token type requested"
						}
					},
					"balanceOfBatch(address[],uint256[])": {
						"params": {
							"accounts": "The addresses of the token holders",
							"ids": "ID of the Tokens"
						},
						"returns": {
							"_0": "The _owner's balance of the Token types requested (i.e. balance for each (owner, id) pair)"
						}
					},
					"getCreator(uint256)": {
						"params": {
							"tokenId": "ID of the Token."
						},
						"returns": {
							"_0": "creator of given ID."
						}
					},
					"isApprovedForAll(address,address)": {
						"params": {
							"account": "The owner of the Tokens",
							"operator": "Address of authorized operator"
						},
						"returns": {
							"_0": "True if the operator is approved, false if not"
						}
					},
					"royaltyFee(uint256)": {
						"params": {
							"tokenId": "ID of the Token."
						},
						"returns": {
							"_0": "royaltyFee of given ID."
						}
					},
					"safeBatchTransferFrom(address,address,uint256[],uint256[],bytes)": {
						"details": "Caller must be approved to manage the tokens being transferred out of the `_from` account (see \"Approval\" section of the standard). MUST revert if `_to` is the zero address. MUST revert if length of `_ids` is not the same as length of `_values`. MUST revert if any of the balance(s) of the holder(s) for token(s) in `_ids` is lower than the respective amount(s) in `_values` sent to the recipient. MUST revert on any other error. MUST emit `TransferSingle` or `TransferBatch` event(s) such that all the balance changes are reflected (see \"Safe Transfer Rules\" section of the standard). Balance changes and events MUST follow the ordering of the arrays (_ids[0]/_values[0] before _ids[1]/_values[1], etc). After the above conditions for the transfer(s) in the batch are met, this function MUST check if `_to` is a smart contract (e.g. code size > 0). If so, it MUST call the relevant `ERC1155TokenReceiver` hook(s) on `_to` and act appropriately (see \"Safe Transfer Rules\" section of the standard).",
						"params": {
							"amounts": "Transfer amounts per token type (order and length must match _ids array)",
							"data": "Additional data with no specified format, MUST be sent unaltered in call to the `ERC1155TokenReceiver` hook(s) on `_to`",
							"from": "Source address",
							"to": "Target address",
							"tokenIds": "IDs of each token type (order and length must match _values array)"
						}
					},
					"safeTransferFrom(address,address,uint256,uint256,bytes)": {
						"details": "Caller must be approved to manage the tokens being transferred out of the `_from` account (see \"Approval\" section of the standard). MUST revert if `_to` is the zero address. MUST revert if balance of holder for token `_id` is lower than the `_value` sent. MUST revert on any other error. MUST emit the `TransferSingle` event to reflect the balance change (see \"Safe Transfer Rules\" section of the standard). After the above conditions are met, this function MUST check if `_to` is a smart contract (e.g. code size > 0). If so, it MUST call `onERC1155Received` on `_to` and act appropriately (see \"Safe Transfer Rules\" section of the standard).",
						"params": {
							"amount": "Transfer amount",
							"data": "Additional data with no specified format, MUST be sent unaltered in call to `onERC1155Received` on `_to`",
							"from": "Source address",
							"to": "Target address",
							"tokenId": "ID of the token type"
						}
					},
					"setApprovalForAll(address,bool)": {
						"details": "MUST emit the ApprovalForAll event on success.",
						"params": {
							"approved": "True if the operator is approved, false to revoke approval",
							"operator": "Address to add to the set of authorized operators"
						}
					},
					"supportsInterface(bytes4)": {
						"details": "Returns true if this contract implements the interface defined by `interfaceId`. See the corresponding https://eips.ethereum.org/EIPS/eip-165#how-interfaces-are-identified[EIP section] to learn more about how these ids are created. This function call must use less than 30 000 gas."
					},
					"tokenURI(uint256)": {
						"details": "Returns an URI for a given token ID. Throws if the token ID does not exist. May return an empty string.",
						"params": {
							"tokenId": "uint256 ID of the token to query"
						}
					}
				},
				"version": 1
			},
			"evm": {
				"assembly": "    /* \"contracts/ERC1155.sol\":448:18073  contract ERC1155 is Context, ERC165,IERC1155{... */\n  mstore(0x40, 0x80)\n    /* \"contracts/ERC1155.sol\":1023:1056  string public tokenURIPrefix = \"\" */\n  mload(0x40)\n  dup1\n  0x20\n  add\n  0x40\n  mstore\n  dup1\n  0x00\n  dup2\n  mstore\n  pop\n  0x05\n  swap1\n  dup2\n  tag_1\n  swap2\n  swap1\n  tag_2\n  jump\t// in\ntag_1:\n  pop\n    /* \"contracts/ERC1155.sol\":1426:1662  constructor (string memory name_, string memory symbol_) {... */\n  callvalue\n  dup1\n  iszero\n  tag_3\n  jumpi\n  0x00\n  dup1\n  revert\ntag_3:\n  pop\n  mload(0x40)\n  sub(codesize, bytecodeSize)\n  dup1\n  bytecodeSize\n  dup4\n  codecopy\n  dup2\n  dup2\n  add\n  0x40\n  mstore\n  dup2\n  add\n  swap1\n  tag_4\n  swap2\n  swap1\n  tag_5\n  jump\t// in\ntag_4:\n    /* \"contracts/External/ERC165.sol\":337:377  _registerInterface(_INTERFACE_ID_ERC165) */\n  tag_9\n    /* \"contracts/External/ERC165.sol\":231:241  0x01ffc9a7 */\n  0x01ffc9a7\n    /* \"contracts/External/ERC165.sol\":356:376  _INTERFACE_ID_ERC165 */\n  0xe0\n  shl\n    /* \"contracts/External/ERC165.sol\":337:355  _registerInterface */\n  shl(0x20, tag_10)\n    /* \"contracts/External/ERC165.sol\":337:377  _registerInterface(_INTERFACE_ID_ERC165) */\n  0x20\n  shr\n  jump\t// in\ntag_9:\n    /* \"contracts/ERC1155.sol\":1502:1507  name_ */\n  dup2\n    /* \"contracts/ERC1155.sol\":1494:1499  _name */\n  0x09\n    /* \"contracts/ERC1155.sol\":1494:1507  _name = name_ */\n  swap1\n  dup2\n  tag_12\n  swap2\n  swap1\n  tag_2\n  jump\t// in\ntag_12:\n  pop\n    /* \"contracts/ERC1155.sol\":1528:1535  symbol_ */\n  dup1\n    /* \"contracts/ERC1155.sol\":1518:1525  _symbol */\n  0x0a\n    /* \"contracts/ERC1155.sol\":1518:1535  _symbol = symbol_ */\n  swap1\n  dup2\n  tag_13\n  swap2\n  swap1\n  tag_2\n  jump\t// in\ntag_13:\n  pop\n    /* \"contracts/ERC1155.sol\":1548:1589  _registerInterface(_INTERFACE_ID_ERC1155) */\n  tag_14\n    /* \"contracts/ERC1155.sol\":1327:1337  0xd9b67a26 */\n  0xd9b67a26\n    /* \"contracts/ERC1155.sol\":1567:1588  _INTERFACE_ID_ERC1155 */\n  0xe0\n  shl\n    /* \"contracts/ERC1155.sol\":1548:1566  _registerInterface */\n  shl(0x20, tag_10)\n    /* \"contracts/ERC1155.sol\":1548:1589  _registerInterface(_INTERFACE_ID_ERC1155) */\n  0x20\n  shr\n  jump\t// in\ntag_14:\n    /* \"contracts/ERC1155.sol\":1600:1654  _registerInterface(_INTERFACE_ID_ERC1155_METADATA_URI) */\n  tag_15\n    /* \"contracts/ERC1155.sol\":1407:1417  0x0e89341c */\n  0x0e89341c\n    /* \"contracts/ERC1155.sol\":1619:1653  _INTERFACE_ID_ERC1155_METADATA_URI */\n  0xe0\n  shl\n    /* \"contracts/ERC1155.sol\":1600:1618  _registerInterface */\n  shl(0x20, tag_10)\n    /* \"contracts/ERC1155.sol\":1600:1654  _registerInterface(_INTERFACE_ID_ERC1155_METADATA_URI) */\n  0x20\n  shr\n  jump\t// in\ntag_15:\n    /* \"contracts/ERC1155.sol\":1426:1662  constructor (string memory name_, string memory symbol_) {... */\n  pop\n  pop\n    /* \"contracts/ERC1155.sol\":448:18073  contract ERC1155 is Context, ERC165,IERC1155{... */\n  jump(tag_16)\n    /* \"contracts/External/ERC165.sol\":553:754  function _registerInterface(bytes4 interfaceId) internal virtual {... */\ntag_10:\n    /* \"contracts/External/ERC165.sol\":652:662  0xffffffff */\n  0xffffffff\n    /* \"contracts/External/ERC165.sol\":637:662  interfaceId != 0xffffffff */\n  0xe0\n  shl\n    /* \"contracts/External/ERC165.sol\":637:648  interfaceId */\n  dup2\n    /* \"contracts/External/ERC165.sol\":637:662  interfaceId != 0xffffffff */\n  not(0xffffffffffffffffffffffffffffffffffffffffffffffffffffffff)\n  and\n  sub\n    /* \"contracts/External/ERC165.sol\":629:695  require(interfaceId != 0xffffffff, \"ERC165: invalid interface id\") */\n  tag_18\n  jumpi\n  mload(0x40)\n  0x08c379a000000000000000000000000000000000000000000000000000000000\n  dup2\n  mstore\n  0x04\n  add\n  tag_19\n  swap1\n  tag_20\n  jump\t// in\ntag_19:\n  mload(0x40)\n  dup1\n  swap2\n  sub\n  swap1\n  revert\ntag_18:\n    /* \"contracts/External/ERC165.sol\":742:746  true */\n  0x01\n    /* \"contracts/External/ERC165.sol\":706:726  _supportedInterfaces */\n  0x00\n    /* \"contracts/External/ERC165.sol\":706:739  _supportedInterfaces[interfaceId] */\n  dup1\n    /* \"contracts/External/ERC165.sol\":727:738  interfaceId */\n  dup4\n    /* \"contracts/External/ERC165.sol\":706:739  _supportedInterfaces[interfaceId] */\n  not(0xffffffffffffffffffffffffffffffffffffffffffffffffffffffff)\n  and\n  not(0xffffffffffffffffffffffffffffffffffffffffffffffffffffffff)\n  and\n  dup2\n  mstore\n  0x20\n  add\n  swap1\n  dup2\n  mstore\n  0x20\n  add\n  0x00\n  keccak256\n  0x00\n    /* \"contracts/External/ERC165.sol\":706:746  _supportedInterfaces[interfaceId] = true */\n  0x0100\n  exp\n  dup2\n  sload\n  dup2\n  0xff\n  mul\n  not\n  and\n  swap1\n  dup4\n  iszero\n  iszero\n  mul\n  or\n  swap1\n  sstore\n  pop\n    /* \"contracts/External/ERC165.sol\":553:754  function _registerInterface(bytes4 interfaceId) internal virtual {... */\n  pop\n  jump\t// out\n    /* \"#utility.yul\":7:106   */\ntag_21:\n    /* \"#utility.yul\":59:65   */\n  0x00\n    /* \"#utility.yul\":93:98   */\n  dup2\n    /* \"#utility.yul\":87:99   */\n  mload\n    /* \"#utility.yul\":77:99   */\n  swap1\n  pop\n    /* \"#utility.yul\":7:106   */\n  swap2\n  swap1\n  pop\n  jump\t// out\n    /* \"#utility.yul\":112:292   */\ntag_22:\n    /* \"#utility.yul\":160:237   */\n  0x4e487b7100000000000000000000000000000000000000000000000000000000\n    /* \"#utility.yul\":157:158   */\n  0x00\n    /* \"#utility.yul\":150:238   */\n  mstore\n    /* \"#utility.yul\":257:261   */\n  0x41\n    /* \"#utility.yul\":254:255   */\n  0x04\n    /* \"#utility.yul\":247:262   */\n  mstore\n    /* \"#utility.yul\":281:285   */\n  0x24\n    /* \"#utility.yul\":278:279   */\n  0x00\n    /* \"#utility.yul\":271:286   */\n  revert\n    /* \"#utility.yul\":298:478   */\ntag_23:\n    /* \"#utility.yul\":346:423   */\n  0x4e487b7100000000000000000000000000000000000000000000000000000000\n    /* \"#utility.yul\":343:344   */\n  0x00\n    /* \"#utility.yul\":336:424   */\n  mstore\n    /* \"#utility.yul\":443:447   */\n  0x22\n    /* \"#utility.yul\":440:441   */\n  0x04\n    /* \"#utility.yul\":433:448   */\n  mstore\n    /* \"#utility.yul\":467:471   */\n  0x24\n    /* \"#utility.yul\":464:465   */\n  0x00\n    /* \"#utility.yul\":457:472   */\n  revert\n    /* \"#utility.yul\":484:804   */\ntag_24:\n    /* \"#utility.yul\":528:534   */\n  0x00\n    /* \"#utility.yul\":565:566   */\n  0x02\n    /* \"#utility.yul\":559:563   */\n  dup3\n    /* \"#utility.yul\":555:567   */\n  div\n    /* \"#utility.yul\":545:567   */\n  swap1\n  pop\n    /* \"#utility.yul\":612:613   */\n  0x01\n    /* \"#utility.yul\":606:610   */\n  dup3\n    /* \"#utility.yul\":602:614   */\n  and\n    /* \"#utility.yul\":633:651   */\n  dup1\n    /* \"#utility.yul\":623:704   */\n  tag_61\n  jumpi\n    /* \"#utility.yul\":689:693   */\n  0x7f\n    /* \"#utility.yul\":681:687   */\n  dup3\n    /* \"#utility.yul\":677:694   */\n  and\n    /* \"#utility.yul\":667:694   */\n  swap2\n  pop\n    /* \"#utility.yul\":623:704   */\ntag_61:\n    /* \"#utility.yul\":751:753   */\n  0x20\n    /* \"#utility.yul\":743:749   */\n  dup3\n    /* \"#utility.yul\":740:754   */\n  lt\n    /* \"#utility.yul\":720:738   */\n  dup2\n    /* \"#utility.yul\":717:755   */\n  sub\n    /* \"#utility.yul\":714:798   */\n  tag_62\n  jumpi\n    /* \"#utility.yul\":770:788   */\n  tag_63\n  tag_23\n  jump\t// in\ntag_63:\n    /* \"#utility.yul\":714:798   */\ntag_62:\n    /* \"#utility.yul\":535:804   */\n  pop\n    /* \"#utility.yul\":484:804   */\n  swap2\n  swap1\n  pop\n  jump\t// out\n    /* \"#utility.yul\":810:951   */\ntag_25:\n    /* \"#utility.yul\":859:863   */\n  0x00\n    /* \"#utility.yul\":882:885   */\n  dup2\n    /* \"#utility.yul\":874:885   */\n  swap1\n  pop\n    /* \"#utility.yul\":905:908   */\n  dup2\n    /* \"#utility.yul\":902:903   */\n  0x00\n    /* \"#utility.yul\":895:909   */\n  mstore\n    /* \"#utility.yul\":939:943   */\n  0x20\n    /* \"#utility.yul\":936:937   */\n  0x00\n    /* \"#utility.yul\":926:944   */\n  keccak256\n    /* \"#utility.yul\":918:944   */\n  swap1\n  pop\n    /* \"#utility.yul\":810:951   */\n  swap2\n  swap1\n  pop\n  jump\t// out\n    /* \"#utility.yul\":957:1050   */\ntag_26:\n    /* \"#utility.yul\":994:1000   */\n  0x00\n    /* \"#utility.yul\":1041:1043   */\n  0x20\n    /* \"#utility.yul\":1036:1038   */\n  0x1f\n    /* \"#utility.yul\":1029:1034   */\n  dup4\n    /* \"#utility.yul\":1025:1039   */\n  add\n    /* \"#utility.yul\":1021:1044   */\n  div\n    /* \"#utility.yul\":1011:1044   */\n  swap1\n  pop\n    /* \"#utility.yul\":957:1050   */\n  swap2\n  swap1\n  pop\n  jump\t// out\n    /* \"#utility.yul\":1056:1163   */\ntag_27:\n    /* \"#utility.yul\":1100:1108   */\n  0x00\n    /* \"#utility.yul\":1150:1155   */\n  dup3\n    /* \"#utility.yul\":1144:1148   */\n  dup3\n    /* \"#utility.yul\":1140:1156   */\n  shl\n    /* \"#utility.yul\":1119:1156   */\n  swap1\n  pop\n    /* \"#utility.yul\":1056:1163   */\n  swap3\n  swap2\n  pop\n  pop\n  jump\t// out\n    /* \"#utility.yul\":1169:1562   */\ntag_28:\n    /* \"#utility.yul\":1238:1244   */\n  0x00\n    /* \"#utility.yul\":1288:1289   */\n  0x08\n    /* \"#utility.yul\":1276:1286   */\n  dup4\n    /* \"#utility.yul\":1272:1290   */\n  mul\n    /* \"#utility.yul\":1311:1408   */\n  tag_68\n    /* \"#utility.yul\":1341:1407   */\n  0xffffffffffffffffffffffffffffffffffffffffffffffffffffffffffffffff\n    /* \"#utility.yul\":1330:1339   */\n  dup3\n    /* \"#utility.yul\":1311:1408   */\n  tag_27\n  jump\t// in\ntag_68:\n    /* \"#utility.yul\":1429:1468   */\n  tag_69\n    /* \"#utility.yul\":1459:1467   */\n  dup7\n    /* \"#utility.yul\":1448:1457   */\n  dup4\n    /* \"#utility.yul\":1429:1468   */\n  tag_27\n  jump\t// in\ntag_69:\n    /* \"#utility.yul\":1417:1468   */\n  swap6\n  pop\n    /* \"#utility.yul\":1501:1505   */\n  dup1\n    /* \"#utility.yul\":1497:1506   */\n  not\n    /* \"#utility.yul\":1490:1495   */\n  dup5\n    /* \"#utility.yul\":1486:1507   */\n  and\n    /* \"#utility.yul\":1477:1507   */\n  swap4\n  pop\n    /* \"#utility.yul\":1550:1554   */\n  dup1\n    /* \"#utility.yul\":1540:1548   */\n  dup7\n    /* \"#utility.yul\":1536:1555   */\n  and\n    /* \"#utility.yul\":1529:1534   */\n  dup5\n    /* \"#utility.yul\":1526:1556   */\n  or\n    /* \"#utility.yul\":1516:1556   */\n  swap3\n  pop\n    /* \"#utility.yul\":1245:1562   */\n  pop\n  pop\n    /* \"#utility.yul\":1169:1562   */\n  swap4\n  swap3\n  pop\n  pop\n  pop\n  jump\t// out\n    /* \"#utility.yul\":1568:1645   */\ntag_29:\n    /* \"#utility.yul\":1605:1612   */\n  0x00\n    /* \"#utility.yul\":1634:1639   */\n  dup2\n    /* \"#utility.yul\":1623:1639   */\n  swap1\n  pop\n    /* \"#utility.yul\":1568:1645   */\n  swap2\n  swap1\n  pop\n  jump\t// out\n    /* \"#utility.yul\":1651:1711   */\ntag_30:\n    /* \"#utility.yul\":1679:1682   */\n  0x00\n    /* \"#utility.yul\":1700:1705   */\n  dup2\n    /* \"#utility.yul\":1693:1705   */\n  swap1\n  pop\n    /* \"#utility.yul\":1651:1711   */\n  swap2\n  swap1\n  pop\n  jump\t// out\n    /* \"#utility.yul\":1717:1859   */\ntag_31:\n    /* \"#utility.yul\":1767:1776   */\n  0x00\n    /* \"#utility.yul\":1800:1853   */\n  tag_73\n    /* \"#utility.yul\":1818:1852   */\n  tag_74\n    /* \"#utility.yul\":1827:1851   */\n  tag_75\n    /* \"#utility.yul\":1845:1850   */\n  dup5\n    /* \"#utility.yul\":1827:1851   */\n  tag_29\n  jump\t// in\ntag_75:\n    /* \"#utility.yul\":1818:1852   */\n  tag_30\n  jump\t// in\ntag_74:\n    /* \"#utility.yul\":1800:1853   */\n  tag_29\n  jump\t// in\ntag_73:\n    /* \"#utility.yul\":1787:1853   */\n  swap1\n  pop\n    /* \"#utility.yul\":1717:1859   */\n  swap2\n  swap1\n  pop\n  jump\t// out\n    /* \"#utility.yul\":1865:1940   */\ntag_32:\n    /* \"#utility.yul\":1908:1911   */\n  0x00\n    /* \"#utility.yul\":1929:1934   */\n  dup2\n    /* \"#utility.yul\":1922:1934   */\n  swap1\n  pop\n    /* \"#utility.yul\":1865:1940   */\n  swap2\n  swap1\n  pop\n  jump\t// out\n    /* \"#utility.yul\":1946:2215   */\ntag_33:\n    /* \"#utility.yul\":2056:2095   */\n  tag_78\n    /* \"#utility.yul\":2087:2094   */\n  dup4\n    /* \"#utility.yul\":2056:2095   */\n  tag_31\n  jump\t// in\ntag_78:\n    /* \"#utility.yul\":2117:2208   */\n  tag_79\n    /* \"#utility.yul\":2166:2207   */\n  tag_80\n    /* \"#utility.yul\":2190:2206   */\n  dup3\n    /* \"#utility.yul\":2166:2207   */\n  tag_32\n  jump\t// in\ntag_80:\n    /* \"#utility.yul\":2158:2164   */\n  dup5\n    /* \"#utility.yul\":2151:2155   */\n  dup5\n    /* \"#utility.yul\":2145:2156   */\n  sload\n    /* \"#utility.yul\":2117:2208   */\n  tag_28\n  jump\t// in\ntag_79:\n    /* \"#utility.yul\":2111:2115   */\n  dup3\n    /* \"#utility.yul\":2104:2209   */\n  sstore\n    /* \"#utility.yul\":2022:2215   */\n  pop\n    /* \"#utility.yul\":1946:2215   */\n  pop\n  pop\n  pop\n  jump\t// out\n    /* \"#utility.yul\":2221:2294   */\ntag_34:\n    /* \"#utility.yul\":2266:2269   */\n  0x00\n    /* \"#utility.yul\":2221:2294   */\n  swap1\n  jump\t// out\n    /* \"#utility.yul\":2300:2489   */\ntag_35:\n    /* \"#utility.yul\":2377:2409   */\n  tag_83\n  tag_34\n  jump\t// in\ntag_83:\n    /* \"#utility.yul\":2418:2483   */\n  tag_84\n    /* \"#utility.yul\":2476:2482   */\n  dup2\n    /* \"#utility.yul\":2468:2474   */\n  dup5\n    /* \"#utility.yul\":2462:2466   */\n  dup5\n    /* \"#utility.yul\":2418:2483   */\n  tag_33\n  jump\t// in\ntag_84:\n    /* \"#utility.yul\":2353:2489   */\n  pop\n    /* \"#utility.yul\":2300:2489   */\n  pop\n  pop\n  jump\t// out\n    /* \"#utility.yul\":2495:2681   */\ntag_36:\n    /* \"#utility.yul\":2555:2675   */\ntag_86:\n    /* \"#utility.yul\":2572:2575   */\n  dup2\n    /* \"#utility.yul\":2565:2570   */\n  dup2\n    /* \"#utility.yul\":2562:2576   */\n  lt\n    /* \"#utility.yul\":2555:2675   */\n  iszero\n  tag_88\n  jumpi\n    /* \"#utility.yul\":2626:2665   */\n  tag_89\n    /* \"#utility.yul\":2663:2664   */\n  0x00\n    /* \"#utility.yul\":2656:2661   */\n  dup3\n    /* \"#utility.yul\":2626:2665   */\n  tag_35\n  jump\t// in\ntag_89:\n    /* \"#utility.yul\":2599:2600   */\n  0x01\n    /* \"#utility.yul\":2592:2597   */\n  dup2\n    /* \"#utility.yul\":2588:2601   */\n  add\n    /* \"#utility.yul\":2579:2601   */\n  swap1\n  pop\n    /* \"#utility.yul\":2555:2675   */\n  jump(tag_86)\ntag_88:\n    /* \"#utility.yul\":2495:2681   */\n  pop\n  pop\n  jump\t// out\n    /* \"#utility.yul\":2687:3230   */\ntag_37:\n    /* \"#utility.yul\":2788:2790   */\n  0x1f\n    /* \"#utility.yul\":2783:2786   */\n  dup3\n    /* \"#utility.yul\":2780:2791   */\n  gt\n    /* \"#utility.yul\":2777:3223   */\n  iszero\n  tag_91\n  jumpi\n    /* \"#utility.yul\":2822:2860   */\n  tag_92\n    /* \"#utility.yul\":2854:2859   */\n  dup2\n    /* \"#utility.yul\":2822:2860   */\n  tag_25\n  jump\t// in\ntag_92:\n    /* \"#utility.yul\":2906:2935   */\n  tag_93\n    /* \"#utility.yul\":2924:2934   */\n  dup5\n    /* \"#utility.yul\":2906:2935   */\n  tag_26\n  jump\t// in\ntag_93:\n    /* \"#utility.yul\":2896:2904   */\n  dup2\n    /* \"#utility.yul\":2892:2936   */\n  add\n    /* \"#utility.yul\":3089:3091   */\n  0x20\n    /* \"#utility.yul\":3077:3087   */\n  dup6\n    /* \"#utility.yul\":3074:3092   */\n  lt\n    /* \"#utility.yul\":3071:3120   */\n  iszero\n  tag_94\n  jumpi\n    /* \"#utility.yul\":3110:3118   */\n  dup2\n    /* \"#utility.yul\":3095:3118   */\n  swap1\n  pop\n    /* \"#utility.yul\":3071:3120   */\ntag_94:\n    /* \"#utility.yul\":3133:3213   */\n  tag_95\n    /* \"#utility.yul\":3189:3211   */\n  tag_96\n    /* \"#utility.yul\":3207:3210   */\n  dup6\n    /* \"#utility.yul\":3189:3211   */\n  tag_26\n  jump\t// in\ntag_96:\n    /* \"#utility.yul\":3179:3187   */\n  dup4\n    /* \"#utility.yul\":3175:3212   */\n  add\n    /* \"#utility.yul\":3162:3173   */\n  dup3\n    /* \"#utility.yul\":3133:3213   */\n  tag_36\n  jump\t// in\ntag_95:\n    /* \"#utility.yul\":2792:3223   */\n  pop\n  pop\n    /* \"#utility.yul\":2777:3223   */\ntag_91:\n    /* \"#utility.yul\":2687:3230   */\n  pop\n  pop\n  pop\n  jump\t// out\n    /* \"#utility.yul\":3236:3353   */\ntag_38:\n    /* \"#utility.yul\":3290:3298   */\n  0x00\n    /* \"#utility.yul\":3340:3345   */\n  dup3\n    /* \"#utility.yul\":3334:3338   */\n  dup3\n    /* \"#utility.yul\":3330:3346   */\n  shr\n    /* \"#utility.yul\":3309:3346   */\n  swap1\n  pop\n    /* \"#utility.yul\":3236:3353   */\n  swap3\n  swap2\n  pop\n  pop\n  jump\t// out\n    /* \"#utility.yul\":3359:3528   */\ntag_39:\n    /* \"#utility.yul\":3403:3409   */\n  0x00\n    /* \"#utility.yul\":3436:3487   */\n  tag_99\n    /* \"#utility.yul\":3484:3485   */\n  0x00\n    /* \"#utility.yul\":3480:3486   */\n  not\n    /* \"#utility.yul\":3472:3477   */\n  dup5\n    /* \"#utility.yul\":3469:3470   */\n  0x08\n    /* \"#utility.yul\":3465:3478   */\n  mul\n    /* \"#utility.yul\":3436:3487   */\n  tag_38\n  jump\t// in\ntag_99:\n    /* \"#utility.yul\":3432:3488   */\n  not\n    /* \"#utility.yul\":3517:3521   */\n  dup1\n    /* \"#utility.yul\":3511:3515   */\n  dup4\n    /* \"#utility.yul\":3507:3522   */\n  and\n    /* \"#utility.yul\":3497:3522   */\n  swap2\n  pop\n    /* \"#utility.yul\":3410:3528   */\n  pop\n    /* \"#utility.yul\":3359:3528   */\n  swap3\n  swap2\n  pop\n  pop\n  jump\t// out\n    /* \"#utility.yul\":3533:3828   */\ntag_40:\n    /* \"#utility.yul\":3609:3613   */\n  0x00\n    /* \"#utility.yul\":3755:3784   */\n  tag_101\n    /* \"#utility.yul\":3780:3783   */\n  dup4\n    /* \"#utility.yul\":3774:3778   */\n  dup4\n    /* \"#utility.yul\":3755:3784   */\n  tag_39\n  jump\t// in\ntag_101:\n    /* \"#utility.yul\":3747:3784   */\n  swap2\n  pop\n    /* \"#utility.yul\":3817:3820   */\n  dup3\n    /* \"#utility.yul\":3814:3815   */\n  0x02\n    /* \"#utility.yul\":3810:3821   */\n  mul\n    /* \"#utility.yul\":3804:3808   */\n  dup3\n    /* \"#utility.yul\":3801:3822   */\n  or\n    /* \"#utility.yul\":3793:3822   */\n  swap1\n  pop\n    /* \"#utility.yul\":3533:3828   */\n  swap3\n  swap2\n  pop\n  pop\n  jump\t// out\n    /* \"#utility.yul\":3833:5228   */\ntag_2:\n    /* \"#utility.yul\":3950:3987   */\n  tag_103\n    /* \"#utility.yul\":3983:3986   */\n  dup3\n    /* \"#utility.yul\":3950:3987   */\n  tag_21\n  jump\t// in\ntag_103:\n    /* \"#utility.yul\":4052:4070   */\n  0xffffffffffffffff\n    /* \"#utility.yul\":4044:4050   */\n  dup2\n    /* \"#utility.yul\":4041:4071   */\n  gt\n    /* \"#utility.yul\":4038:4094   */\n  iszero\n  tag_104\n  jumpi\n    /* \"#utility.yul\":4074:4092   */\n  tag_105\n  tag_22\n  jump\t// in\ntag_105:\n    /* \"#utility.yul\":4038:4094   */\ntag_104:\n    /* \"#utility.yul\":4118:4156   */\n  tag_106\n    /* \"#utility.yul\":4150:4154   */\n  dup3\n    /* \"#utility.yul\":4144:4155   */\n  sload\n    /* \"#utility.yul\":4118:4156   */\n  tag_24\n  jump\t// in\ntag_106:\n    /* \"#utility.yul\":4203:4270   */\n  tag_107\n    /* \"#utility.yul\":4263:4269   */\n  dup3\n    /* \"#utility.yul\":4255:4261   */\n  dup3\n    /* \"#utility.yul\":4249:4253   */\n  dup6\n    /* \"#utility.yul\":4203:4270   */\n  tag_37\n  jump\t// in\ntag_107:\n    /* \"#utility.yul\":4297:4298   */\n  0x00\n    /* \"#utility.yul\":4321:4325   */\n  0x20\n    /* \"#utility.yul\":4308:4325   */\n  swap1\n  pop\n    /* \"#utility.yul\":4353:4355   */\n  0x1f\n    /* \"#utility.yul\":4345:4351   */\n  dup4\n    /* \"#utility.yul\":4342:4356   */\n  gt\n    /* \"#utility.yul\":4370:4371   */\n  0x01\n    /* \"#utility.yul\":4365:4983   */\n  dup2\n  eq\n  tag_109\n  jumpi\n    /* \"#utility.yul\":5027:5028   */\n  0x00\n    /* \"#utility.yul\":5044:5050   */\n  dup5\n    /* \"#utility.yul\":5041:5118   */\n  iszero\n  tag_110\n  jumpi\n    /* \"#utility.yul\":5093:5102   */\n  dup3\n    /* \"#utility.yul\":5088:5091   */\n  dup8\n    /* \"#utility.yul\":5084:5103   */\n  add\n    /* \"#utility.yul\":5078:5104   */\n  mload\n    /* \"#utility.yul\":5069:5104   */\n  swap1\n  pop\n    /* \"#utility.yul\":5041:5118   */\ntag_110:\n    /* \"#utility.yul\":5144:5211   */\n  tag_111\n    /* \"#utility.yul\":5204:5210   */\n  dup6\n    /* \"#utility.yul\":5197:5202   */\n  dup3\n    /* \"#utility.yul\":5144:5211   */\n  tag_40\n  jump\t// in\ntag_111:\n    /* \"#utility.yul\":5138:5142   */\n  dup7\n    /* \"#utility.yul\":5131:5212   */\n  sstore\n    /* \"#utility.yul\":5000:5222   */\n  pop\n    /* \"#utility.yul\":4335:5222   */\n  jump(tag_108)\n    /* \"#utility.yul\":4365:4983   */\ntag_109:\n    /* \"#utility.yul\":4417:4421   */\n  0x1f\n    /* \"#utility.yul\":4413:4422   */\n  not\n    /* \"#utility.yul\":4405:4411   */\n  dup5\n    /* \"#utility.yul\":4401:4423   */\n  and\n    /* \"#utility.yul\":4451:4488   */\n  tag_112\n    /* \"#utility.yul\":4483:4487   */\n  dup7\n    /* \"#utility.yul\":4451:4488   */\n  tag_25\n  jump\t// in\ntag_112:\n    /* \"#utility.yul\":4510:4511   */\n  0x00\n    /* \"#utility.yul\":4524:4732   */\ntag_113:\n    /* \"#utility.yul\":4538:4545   */\n  dup3\n    /* \"#utility.yul\":4535:4536   */\n  dup2\n    /* \"#utility.yul\":4532:4546   */\n  lt\n    /* \"#utility.yul\":4524:4732   */\n  iszero\n  tag_115\n  jumpi\n    /* \"#utility.yul\":4617:4626   */\n  dup5\n    /* \"#utility.yul\":4612:4615   */\n  dup10\n    /* \"#utility.yul\":4608:4627   */\n  add\n    /* \"#utility.yul\":4602:4628   */\n  mload\n    /* \"#utility.yul\":4594:4600   */\n  dup3\n    /* \"#utility.yul\":4587:4629   */\n  sstore\n    /* \"#utility.yul\":4668:4669   */\n  0x01\n    /* \"#utility.yul\":4660:4666   */\n  dup3\n    /* \"#utility.yul\":4656:4670   */\n  add\n    /* \"#utility.yul\":4646:4670   */\n  swap2\n  pop\n    /* \"#utility.yul\":4715:4717   */\n  0x20\n    /* \"#utility.yul\":4704:4713   */\n  dup6\n    /* \"#utility.yul\":4700:4718   */\n  add\n    /* \"#utility.yul\":4687:4718   */\n  swap5\n  pop\n    /* \"#utility.yul\":4561:4565   */\n  0x20\n    /* \"#utility.yul\":4558:4559   */\n  dup2\n    /* \"#utility.yul\":4554:4566   */\n  add\n    /* \"#utility.yul\":4549:4566   */\n  swap1\n  pop\n    /* \"#utility.yul\":4524:4732   */\n  jump(tag_113)\ntag_115:\n    /* \"#utility.yul\":4760:4766   */\n  dup7\n    /* \"#utility.yul\":4751:4758   */\n  dup4\n    /* \"#utility.yul\":4748:4767   */\n  lt\n    /* \"#utility.yul\":4745:4924   */\n  iszero\n  tag_116\n  jumpi\n    /* \"#utility.yul\":4818:4827   */\n  dup5\n    /* \"#utility.yul\":4813:4816   */\n  dup10\n    /* \"#utility.yul\":4809:4828   */\n  add\n    /* \"#utility.yul\":4803:4829   */\n  mload\n    /* \"#utility.yul\":4861:4909   */\n  tag_117\n    /* \"#utility.yul\":4903:4907   */\n  0x1f\n    /* \"#utility.yul\":4895:4901   */\n  dup10\n    /* \"#utility.yul\":4891:4908   */\n  and\n    /* \"#utility.yul\":4880:4889   */\n  dup3\n    /* \"#utility.yul\":4861:4909   */\n  tag_39\n  jump\t// in\ntag_117:\n    /* \"#utility.yul\":4853:4859   */\n  dup4\n    /* \"#utility.yul\":4846:4910   */\n  sstore\n    /* \"#utility.yul\":4768:4924   */\n  pop\n    /* \"#utility.yul\":4745:4924   */\ntag_116:\n    /* \"#utility.yul\":4970:4971   */\n  0x01\n    /* \"#utility.yul\":4966:4967   */\n  0x02\n    /* \"#utility.yul\":4958:4964   */\n  dup9\n    /* \"#utility.yul\":4954:4968   */\n  mul\n    /* \"#utility.yul\":4950:4972   */\n  add\n    /* \"#utility.yul\":4944:4948   */\n  dup9\n    /* \"#utility.yul\":4937:4973   */\n  sstore\n    /* \"#utility.yul\":4372:4983   */\n  pop\n  pop\n  pop\n    /* \"#utility.yul\":4335:5222   */\ntag_108:\n  pop\n    /* \"#utility.yul\":3925:5228   */\n  pop\n  pop\n  pop\n    /* \"#utility.yul\":3833:5228   */\n  pop\n  pop\n  jump\t// out\n    /* \"#utility.yul\":5234:5309   */\ntag_41:\n    /* \"#utility.yul\":5267:5273   */\n  0x00\n    /* \"#utility.yul\":5300:5302   */\n  0x40\n    /* \"#utility.yul\":5294:5303   */\n  mload\n    /* \"#utility.yul\":5284:5303   */\n  swap1\n  pop\n    /* \"#utility.yul\":5234:5309   */\n  swap1\n  jump\t// out\n    /* \"#utility.yul\":5315:5432   */\ntag_42:\n    /* \"#utility.yul\":5424:5425   */\n  0x00\n    /* \"#utility.yul\":5421:5422   */\n  dup1\n    /* \"#utility.yul\":5414:5426   */\n  revert\n    /* \"#utility.yul\":5438:5555   */\ntag_43:\n    /* \"#utility.yul\":5547:5548   */\n  0x00\n    /* \"#utility.yul\":5544:5545   */\n  dup1\n    /* \"#utility.yul\":5537:5549   */\n  revert\n    /* \"#utility.yul\":5561:5678   */\ntag_44:\n    /* \"#utility.yul\":5670:5671   */\n  0x00\n    /* \"#utility.yul\":5667:5668   */\n  dup1\n    /* \"#utility.yul\":5660:5672   */\n  revert\n    /* \"#utility.yul\":5684:5801   */\ntag_45:\n    /* \"#utility.yul\":5793:5794   */\n  0x00\n    /* \"#utility.yul\":5790:5791   */\n  dup1\n    /* \"#utility.yul\":5783:5795   */\n  revert\n    /* \"#utility.yul\":5807:5909   */\ntag_46:\n    /* \"#utility.yul\":5848:5854   */\n  0x00\n    /* \"#utility.yul\":5899:5901   */\n  0x1f\n    /* \"#utility.yul\":5895:5902   */\n  not\n    /* \"#utility.yul\":5890:5892   */\n  0x1f\n    /* \"#utility.yul\":5883:5888   */\n  dup4\n    /* \"#utility.yul\":5879:5893   */\n  add\n    /* \"#utility.yul\":5875:5903   */\n  and\n    /* \"#utility.yul\":5865:5903   */\n  swap1\n  pop\n    /* \"#utility.yul\":5807:5909   */\n  swap2\n  swap1\n  pop\n  jump\t// out\n    /* \"#utility.yul\":5915:6196   */\ntag_47:\n    /* \"#utility.yul\":5998:6025   */\n  tag_125\n    /* \"#utility.yul\":6020:6024   */\n  dup3\n    /* \"#utility.yul\":5998:6025   */\n  tag_46\n  jump\t// in\ntag_125:\n    /* \"#utility.yul\":5990:5996   */\n  dup2\n    /* \"#utility.yul\":5986:6026   */\n  add\n    /* \"#utility.yul\":6128:6134   */\n  dup2\n    /* \"#utility.yul\":6116:6126   */\n  dup2\n    /* \"#utility.yul\":6113:6135   */\n  lt\n    /* \"#utility.yul\":6092:6110   */\n  0xffffffffffffffff\n    /* \"#utility.yul\":6080:6090   */\n  dup3\n    /* \"#utility.yul\":6077:6111   */\n  gt\n    /* \"#utility.yul\":6074:6136   */\n  or\n    /* \"#utility.yul\":6071:6159   */\n  iszero\n  tag_126\n  jumpi\n    /* \"#utility.yul\":6139:6157   */\n  tag_127\n  tag_22\n  jump\t// in\ntag_127:\n    /* \"#utility.yul\":6071:6159   */\ntag_126:\n    /* \"#utility.yul\":6179:6189   */\n  dup1\n    /* \"#utility.yul\":6175:6177   */\n  0x40\n    /* \"#utility.yul\":6168:6190   */\n  mstore\n    /* \"#utility.yul\":5958:6196   */\n  pop\n    /* \"#utility.yul\":5915:6196   */\n  pop\n  pop\n  jump\t// out\n    /* \"#utility.yul\":6202:6331   */\ntag_48:\n    /* \"#utility.yul\":6236:6242   */\n  0x00\n    /* \"#utility.yul\":6263:6283   */\n  tag_129\n  tag_41\n  jump\t// in\ntag_129:\n    /* \"#utility.yul\":6253:6283   */\n  swap1\n  pop\n    /* \"#utility.yul\":6292:6325   */\n  tag_130\n    /* \"#utility.yul\":6320:6324   */\n  dup3\n    /* \"#utility.yul\":6312:6318   */\n  dup3\n    /* \"#utility.yul\":6292:6325   */\n  tag_47\n  jump\t// in\ntag_130:\n    /* \"#utility.yul\":6202:6331   */\n  swap2\n  swap1\n  pop\n  jump\t// out\n    /* \"#utility.yul\":6337:6645   */\ntag_49:\n    /* \"#utility.yul\":6399:6403   */\n  0x00\n    /* \"#utility.yul\":6489:6507   */\n  0xffffffffffffffff\n    /* \"#utility.yul\":6481:6487   */\n  dup3\n    /* \"#utility.yul\":6478:6508   */\n  gt\n    /* \"#utility.yul\":6475:6531   */\n  iszero\n  tag_132\n  jumpi\n    /* \"#utility.yul\":6511:6529   */\n  tag_133\n  tag_22\n  jump\t// in\ntag_133:\n    /* \"#utility.yul\":6475:6531   */\ntag_132:\n    /* \"#utility.yul\":6549:6578   */\n  tag_134\n    /* \"#utility.yul\":6571:6577   */\n  dup3\n    /* \"#utility.yul\":6549:6578   */\n  tag_46\n  jump\t// in\ntag_134:\n    /* \"#utility.yul\":6541:6578   */\n  swap1\n  pop\n    /* \"#utility.yul\":6633:6637   */\n  0x20\n    /* \"#utility.yul\":6627:6631   */\n  dup2\n    /* \"#utility.yul\":6623:6638   */\n  add\n    /* \"#utility.yul\":6615:6638   */\n  swap1\n  pop\n    /* \"#utility.yul\":6337:6645   */\n  swap2\n  swap1\n  pop\n  jump\t// out\n    /* \"#utility.yul\":6651:6897   */\ntag_50:\n    /* \"#utility.yul\":6732:6733   */\n  0x00\n    /* \"#utility.yul\":6742:6855   */\ntag_136:\n    /* \"#utility.yul\":6756:6762   */\n  dup4\n    /* \"#utility.yul\":6753:6754   */\n  dup2\n    /* \"#utility.yul\":6750:6763   */\n  lt\n    /* \"#utility.yul\":6742:6855   */\n  iszero\n  tag_138\n  jumpi\n    /* \"#utility.yul\":6841:6842   */\n  dup1\n    /* \"#utility.yul\":6836:6839   */\n  dup3\n    /* \"#utility.yul\":6832:6843   */\n  add\n    /* \"#utility.yul\":6826:6844   */\n  mload\n    /* \"#utility.yul\":6822:6823   */\n  dup2\n    /* \"#utility.yul\":6817:6820   */\n  dup5\n    /* \"#utility.yul\":6813:6824   */\n  add\n    /* \"#utility.yul\":6806:6845   */\n  mstore\n    /* \"#utility.yul\":6778:6780   */\n  0x20\n    /* \"#utility.yul\":6775:6776   */\n  dup2\n    /* \"#utility.yul\":6771:6781   */\n  add\n    /* \"#utility.yul\":6766:6781   */\n  swap1\n  pop\n    /* \"#utility.yul\":6742:6855   */\n  jump(tag_136)\ntag_138:\n    /* \"#utility.yul\":6889:6890   */\n  0x00\n    /* \"#utility.yul\":6880:6886   */\n  dup5\n    /* \"#utility.yul\":6875:6878   */\n  dup5\n    /* \"#utility.yul\":6871:6887   */\n  add\n    /* \"#utility.yul\":6864:6891   */\n  mstore\n    /* \"#utility.yul\":6713:6897   */\n  pop\n    /* \"#utility.yul\":6651:6897   */\n  pop\n  pop\n  pop\n  jump\t// out\n    /* \"#utility.yul\":6903:7337   */\ntag_51:\n    /* \"#utility.yul\":6992:6997   */\n  0x00\n    /* \"#utility.yul\":7017:7083   */\n  tag_140\n    /* \"#utility.yul\":7033:7082   */\n  tag_141\n    /* \"#utility.yul\":7075:7081   */\n  dup5\n    /* \"#utility.yul\":7033:7082   */\n  tag_49\n  jump\t// in\ntag_141:\n    /* \"#utility.yul\":7017:7083   */\n  tag_48\n  jump\t// in\ntag_140:\n    /* \"#utility.yul\":7008:7083   */\n  swap1\n  pop\n    /* \"#utility.yul\":7106:7112   */\n  dup3\n    /* \"#utility.yul\":7099:7104   */\n  dup2\n    /* \"#utility.yul\":7092:7113   */\n  mstore\n    /* \"#utility.yul\":7144:7148   */\n  0x20\n    /* \"#utility.yul\":7137:7142   */\n  dup2\n    /* \"#utility.yul\":7133:7149   */\n  add\n    /* \"#utility.yul\":7182:7185   */\n  dup5\n    /* \"#utility.yul\":7173:7179   */\n  dup5\n    /* \"#utility.yul\":7168:7171   */\n  dup5\n    /* \"#utility.yul\":7164:7180   */\n  add\n    /* \"#utility.yul\":7161:7186   */\n  gt\n    /* \"#utility.yul\":7158:7270   */\n  iszero\n  tag_142\n  jumpi\n    /* \"#utility.yul\":7189:7268   */\n  tag_143\n  tag_45\n  jump\t// in\ntag_143:\n    /* \"#utility.yul\":7158:7270   */\ntag_142:\n    /* \"#utility.yul\":7279:7331   */\n  tag_144\n    /* \"#utility.yul\":7324:7330   */\n  dup5\n    /* \"#utility.yul\":7319:7322   */\n  dup3\n    /* \"#utility.yul\":7314:7317   */\n  dup6\n    /* \"#utility.yul\":7279:7331   */\n  tag_50\n  jump\t// in\ntag_144:\n    /* \"#utility.yul\":6998:7337   */\n  pop\n    /* \"#utility.yul\":6903:7337   */\n  swap4\n  swap3\n  pop\n  pop\n  pop\n  jump\t// out\n    /* \"#utility.yul\":7357:7712   */\ntag_52:\n    /* \"#utility.yul\":7424:7429   */\n  0x00\n    /* \"#utility.yul\":7473:7476   */\n  dup3\n    /* \"#utility.yul\":7466:7470   */\n  0x1f\n    /* \"#utility.yul\":7458:7464   */\n  dup4\n    /* \"#utility.yul\":7454:7471   */\n  add\n    /* \"#utility.yul\":7450:7477   */\n  slt\n    /* \"#utility.yul\":7440:7562   */\n  tag_146\n  jumpi\n    /* \"#utility.yul\":7481:7560   */\n  tag_147\n  tag_44\n  jump\t// in\ntag_147:\n    /* \"#utility.yul\":7440:7562   */\ntag_146:\n    /* \"#utility.yul\":7591:7597   */\n  dup2\n    /* \"#utility.yul\":7585:7598   */\n  mload\n    /* \"#utility.yul\":7616:7706   */\n  tag_148\n    /* \"#utility.yul\":7702:7705   */\n  dup5\n    /* \"#utility.yul\":7694:7700   */\n  dup3\n    /* \"#utility.yul\":7687:7691   */\n  0x20\n    /* \"#utility.yul\":7679:7685   */\n  dup7\n    /* \"#utility.yul\":7675:7692   */\n  add\n    /* \"#utility.yul\":7616:7706   */\n  tag_51\n  jump\t// in\ntag_148:\n    /* \"#utility.yul\":7607:7706   */\n  swap2\n  pop\n    /* \"#utility.yul\":7430:7712   */\n  pop\n    /* \"#utility.yul\":7357:7712   */\n  swap3\n  swap2\n  pop\n  pop\n  jump\t// out\n    /* \"#utility.yul\":7718:8571   */\ntag_5:\n    /* \"#utility.yul\":7817:7823   */\n  0x00\n    /* \"#utility.yul\":7825:7831   */\n  dup1\n    /* \"#utility.yul\":7874:7876   */\n  0x40\n    /* \"#utility.yul\":7862:7871   */\n  dup4\n    /* \"#utility.yul\":7853:7860   */\n  dup6\n    /* \"#utility.yul\":7849:7872   */\n  sub\n    /* \"#utility.yul\":7845:7877   */\n  slt\n    /* \"#utility.yul\":7842:7961   */\n  iszero\n  tag_150\n  jumpi\n    /* \"#utility.yul\":7880:7959   */\n  tag_151\n  tag_42\n  jump\t// in\ntag_151:\n    /* \"#utility.yul\":7842:7961   */\ntag_150:\n    /* \"#utility.yul\":8021:8022   */\n  0x00\n    /* \"#utility.yul\":8010:8019   */\n  dup4\n    /* \"#utility.yul\":8006:8023   */\n  add\n    /* \"#utility.yul\":8000:8024   */\n  mload\n    /* \"#utility.yul\":8051:8069   */\n  0xffffffffffffffff\n    /* \"#utility.yul\":8043:8049   */\n  dup2\n    /* \"#utility.yul\":8040:8070   */\n  gt\n    /* \"#utility.yul\":8037:8154   */\n  iszero\n  tag_152\n  jumpi\n    /* \"#utility.yul\":8073:8152   */\n  tag_153\n  tag_43\n  jump\t// in\ntag_153:\n    /* \"#utility.yul\":8037:8154   */\ntag_152:\n    /* \"#utility.yul\":8178:8252   */\n  tag_154\n    /* \"#utility.yul\":8244:8251   */\n  dup6\n    /* \"#utility.yul\":8235:8241   */\n  dup3\n    /* \"#utility.yul\":8224:8233   */\n  dup7\n    /* \"#utility.yul\":8220:8242   */\n  add\n    /* \"#utility.yul\":8178:8252   */\n  tag_52\n  jump\t// in\ntag_154:\n    /* \"#utility.yul\":8168:8252   */\n  swap3\n  pop\n    /* \"#utility.yul\":7971:8262   */\n  pop\n    /* \"#utility.yul\":8322:8324   */\n  0x20\n    /* \"#utility.yul\":8311:8320   */\n  dup4\n    /* \"#utility.yul\":8307:8325   */\n  add\n    /* \"#utility.yul\":8301:8326   */\n  mload\n    /* \"#utility.yul\":8353:8371   */\n  0xffffffffffffffff\n    /* \"#utility.yul\":8345:8351   */\n  dup2\n    /* \"#utility.yul\":8342:8372   */\n  gt\n    /* \"#utility.yul\":8339:8456   */\n  iszero\n  tag_155\n  jumpi\n    /* \"#utility.yul\":8375:8454   */\n  tag_156\n  tag_43\n  jump\t// in\ntag_156:\n    /* \"#utility.yul\":8339:8456   */\ntag_155:\n    /* \"#utility.yul\":8480:8554   */\n  tag_157\n    /* \"#utility.yul\":8546:8553   */\n  dup6\n    /* \"#utility.yul\":8537:8543   */\n  dup3\n    /* \"#utility.yul\":8526:8535   */\n  dup7\n    /* \"#utility.yul\":8522:8544   */\n  add\n    /* \"#utility.yul\":8480:8554   */\n  tag_52\n  jump\t// in\ntag_157:\n    /* \"#utility.yul\":8470:8554   */\n  swap2\n  pop\n    /* \"#utility.yul\":8272:8564   */\n  pop\n    /* \"#utility.yul\":7718:8571   */\n  swap3\n  pop\n  swap3\n  swap1\n  pop\n  jump\t// out\n    /* \"#utility.yul\":8577:8746   */\ntag_53:\n    /* \"#utility.yul\":8661:8672   */\n  0x00\n    /* \"#utility.yul\":8695:8701   */\n  dup3\n    /* \"#utility.yul\":8690:8693   */\n  dup3\n    /* \"#utility.yul\":8683:8702   */\n  mstore\n    /* \"#utility.yul\":8735:8739   */\n  0x20\n    /* \"#utility.yul\":8730:8733   */\n  dup3\n    /* \"#utility.yul\":8726:8740   */\n  add\n    /* \"#utility.yul\":8711:8740   */\n  swap1\n  pop\n    /* \"#utility.yul\":8577:8746   */\n  swap3\n  swap2\n  pop\n  pop\n  jump\t// out\n    /* \"#utility.yul\":8752:8930   */\ntag_54:\n    /* \"#utility.yul\":8892:8922   */\n  0x4552433136353a20696e76616c696420696e7465726661636520696400000000\n    /* \"#utility.yul\":8888:8889   */\n  0x00\n    /* \"#utility.yul\":8880:8886   */\n  dup3\n    /* \"#utility.yul\":8876:8890   */\n  add\n    /* \"#utility.yul\":8869:8923   */\n  mstore\n    /* \"#utility.yul\":8752:8930   */\n  pop\n  jump\t// out\n    /* \"#utility.yul\":8936:9302   */\ntag_55:\n    /* \"#utility.yul\":9078:9081   */\n  0x00\n    /* \"#utility.yul\":9099:9166   */\n  tag_161\n    /* \"#utility.yul\":9163:9165   */\n  0x1c\n    /* \"#utility.yul\":9158:9161   */\n  dup4\n    /* \"#utility.yul\":9099:9166   */\n  tag_53\n  jump\t// in\ntag_161:\n    /* \"#utility.yul\":9092:9166   */\n  swap2\n  pop\n    /* \"#utility.yul\":9175:9268   */\n  tag_162\n    /* \"#utility.yul\":9264:9267   */\n  dup3\n    /* \"#utility.yul\":9175:9268   */\n  tag_54\n  jump\t// in\ntag_162:\n    /* \"#utility.yul\":9293:9295   */\n  0x20\n    /* \"#utility.yul\":9288:9291   */\n  dup3\n    /* \"#utility.yul\":9284:9296   */\n  add\n    /* \"#utility.yul\":9277:9296   */\n  swap1\n  pop\n    /* \"#utility.yul\":8936:9302   */\n  swap2\n  swap1\n  pop\n  jump\t// out\n    /* \"#utility.yul\":9308:9727   */\ntag_20:\n    /* \"#utility.yul\":9474:9478   */\n  0x00\n    /* \"#utility.yul\":9512:9514   */\n  0x20\n    /* \"#utility.yul\":9501:9510   */\n  dup3\n    /* \"#utility.yul\":9497:9515   */\n  add\n    /* \"#utility.yul\":9489:9515   */\n  swap1\n  pop\n    /* \"#utility.yul\":9561:9570   */\n  dup2\n    /* \"#utility.yul\":9555:9559   */\n  dup2\n    /* \"#utility.yul\":9551:9571   */\n  sub\n    /* \"#utility.yul\":9547:9548   */\n  0x00\n    /* \"#utility.yul\":9536:9545   */\n  dup4\n    /* \"#utility.yul\":9532:9549   */\n  add\n    /* \"#utility.yul\":9525:9572   */\n  mstore\n    /* \"#utility.yul\":9589:9720   */\n  tag_164\n    /* \"#utility.yul\":9715:9719   */\n  dup2\n    /* \"#utility.yul\":9589:9720   */\n  tag_55\n  jump\t// in\ntag_164:\n    /* \"#utility.yul\":9581:9720   */\n  swap1\n  pop\n    /* \"#utility.yul\":9308:9727   */\n  swap2\n  swap1\n  pop\n  jump\t// out\n    /* \"contracts/ERC1155.sol\":448:18073  contract ERC1155 is Context, ERC165,IERC1155{... */\ntag_16:\n  dataSize(sub_0)\n  dup1\n  dataOffset(sub_0)\n  0x00\n  codecopy\n  0x00\n  return\nstop\n\nsub_0: assembly {\n        /* \"contracts/ERC1155.sol\":448:18073  contract ERC1155 is Context, ERC165,IERC1155{... */\n      mstore(0x40, 0x80)\n      callvalue\n      dup1\n      iszero\n      tag_1\n      jumpi\n      0x00\n      dup1\n      revert\n    tag_1:\n      pop\n      jumpi(tag_2, lt(calldatasize, 0x04))\n      shr(0xe0, calldataload(0x00))\n      dup1\n      0xa22cb465\n      gt\n      tag_17\n      jumpi\n      dup1\n      0xc87b56dd\n      gt\n      tag_18\n      jumpi\n      dup1\n      0xc87b56dd\n      eq\n      tag_13\n      jumpi\n      dup1\n      0xd48e638a\n      eq\n      tag_14\n      jumpi\n      dup1\n      0xe985e9c5\n      eq\n      tag_15\n      jumpi\n      dup1\n      0xf242432a\n      eq\n      tag_16\n      jumpi\n      jump(tag_2)\n    tag_18:\n      dup1\n      0xa22cb465\n      eq\n      tag_10\n      jumpi\n      dup1\n      0xc0ac9983\n      eq\n      tag_11\n      jumpi\n      dup1\n      0xc57dc235\n      eq\n      tag_12\n      jumpi\n      jump(tag_2)\n    tag_17:\n      dup1\n      0x18160ddd\n      gt\n      tag_19\n      jumpi\n      dup1\n      0x18160ddd\n      eq\n      tag_6\n      jumpi\n      dup1\n      0x2eb2c2d6\n      eq\n      tag_7\n      jumpi\n      dup1\n      0x4e1273f4\n      eq\n      tag_8\n      jumpi\n      dup1\n      0x95d89b41\n      eq\n      tag_9\n      jumpi\n      jump(tag_2)\n    tag_19:\n      dup1\n      0xfdd58e\n      eq\n      tag_3\n      jumpi\n      dup1\n      0x01ffc9a7\n      eq\n      tag_4\n      jumpi\n      dup1\n      0x06fdde03\n      eq\n      tag_5\n      jumpi\n    tag_2:\n      0x00\n      dup1\n      revert\n        /* \"contracts/ERC1155.sol\":4641:4966  function balanceOf(address account, uint256 tokenId) public view override returns (uint256) {... */\n    tag_3:\n      tag_20\n      0x04\n      dup1\n      calldatasize\n      sub\n      dup2\n      add\n      swap1\n      tag_21\n      swap2\n      swap1\n      tag_22\n      jump\t// in\n    tag_21:\n      tag_23\n      jump\t// in\n    tag_20:\n      mload(0x40)\n      tag_24\n      swap2\n      swap1\n      tag_25\n      jump\t// in\n    tag_24:\n      mload(0x40)\n      dup1\n      swap2\n      sub\n      swap1\n      return\n        /* \"contracts/External/ERC165.sol\":393:545  function supportsInterface(bytes4 interfaceId) external view virtual override returns (bool) {... */\n    tag_4:\n      tag_26\n      0x04\n      dup1\n      calldatasize\n      sub\n      dup2\n      add\n      swap1\n      tag_27\n      swap2\n      swap1\n      tag_28\n      jump\t// in\n    tag_27:\n      tag_29\n      jump\t// in\n    tag_26:\n      mload(0x40)\n      tag_30\n      swap2\n      swap1\n      tag_31\n      jump\t// in\n    tag_30:\n      mload(0x40)\n      dup1\n      swap2\n      sub\n      swap1\n      return\n        /* \"contracts/ERC1155.sol\":1670:1770  function name() public view virtual override returns (string memory) {... */\n    tag_5:\n      tag_32\n      tag_33\n      jump\t// in\n    tag_32:\n      mload(0x40)\n      tag_34\n      swap2\n      swap1\n      tag_35\n      jump\t// in\n    tag_34:\n      mload(0x40)\n      dup1\n      swap2\n      sub\n      swap1\n      return\n        /* \"contracts/ERC1155.sol\":4122:4235  function totalSupply() external view virtual returns (uint256) {... */\n    tag_6:\n      tag_36\n      tag_37\n      jump\t// in\n    tag_36:\n      mload(0x40)\n      tag_38\n      swap2\n      swap1\n      tag_25\n      jump\t// in\n    tag_38:\n      mload(0x40)\n      dup1\n      swap2\n      sub\n      swap1\n      return\n        /* \"contracts/ERC1155.sol\":10810:12090  function safeBatchTransferFrom(... */\n    tag_7:\n      tag_39\n      0x04\n      dup1\n      calldatasize\n      sub\n      dup2\n      add\n      swap1\n      tag_40\n      swap2\n      swap1\n      tag_41\n      jump\t// in\n    tag_40:\n      tag_42\n      jump\t// in\n    tag_39:\n      stop\n        /* \"contracts/ERC1155.sol\":5276:5910  function balanceOfBatch(... */\n    tag_8:\n      tag_43\n      0x04\n      dup1\n      calldatasize\n      sub\n      dup2\n      add\n      swap1\n      tag_44\n      swap2\n      swap1\n      tag_45\n      jump\t// in\n    tag_44:\n      tag_46\n      jump\t// in\n    tag_43:\n      mload(0x40)\n      tag_47\n      swap2\n      swap1\n      tag_48\n      jump\t// in\n    tag_47:\n      mload(0x40)\n      dup1\n      swap2\n      sub\n      swap1\n      return\n        /* \"contracts/ERC1155.sol\":1778:1882  function symbol() public view virtual override returns (string memory) {... */\n    tag_9:\n      tag_49\n      tag_50\n      jump\t// in\n    tag_49:\n      mload(0x40)\n      tag_51\n      swap2\n      swap1\n      tag_35\n      jump\t// in\n    tag_51:\n      mload(0x40)\n      dup1\n      swap2\n      sub\n      swap1\n      return\n        /* \"contracts/ERC1155.sol\":6272:6583  function setApprovalForAll(address operator, bool approved) public virtual override {... */\n    tag_10:\n      tag_52\n      0x04\n      dup1\n      calldatasize\n      sub\n      dup2\n      add\n      swap1\n      tag_53\n      swap2\n      swap1\n      tag_54\n      jump\t// in\n    tag_53:\n      tag_55\n      jump\t// in\n    tag_52:\n      stop\n        /* \"contracts/ERC1155.sol\":1023:1056  string public tokenURIPrefix = \"\" */\n    tag_11:\n      tag_56\n      tag_57\n      jump\t// in\n    tag_56:\n      mload(0x40)\n      tag_58\n      swap2\n      swap1\n      tag_35\n      jump\t// in\n    tag_58:\n      mload(0x40)\n      dup1\n      swap2\n      sub\n      swap1\n      return\n        /* \"contracts/ERC1155.sol\":2436:2557  function royaltyFee(uint256 tokenId) public view override returns(uint256) {... */\n    tag_12:\n      tag_59\n      0x04\n      dup1\n      calldatasize\n      sub\n      dup2\n      add\n      swap1\n      tag_60\n      swap2\n      swap1\n      tag_61\n      jump\t// in\n    tag_60:\n      tag_62\n      jump\t// in\n    tag_59:\n      mload(0x40)\n      tag_63\n      swap2\n      swap1\n      tag_25\n      jump\t// in\n    tag_63:\n      mload(0x40)\n      dup1\n      swap2\n      sub\n      swap1\n      return\n        /* \"contracts/ERC1155.sol\":3425:3981  function tokenURI(uint256 tokenId) public view virtual override returns (string memory) {... */\n    tag_13:\n      tag_64\n      0x04\n      dup1\n      calldatasize\n      sub\n      dup2\n      add\n      swap1\n      tag_65\n      swap2\n      swap1\n      tag_61\n      jump\t// in\n    tag_65:\n      tag_66\n      jump\t// in\n    tag_64:\n      mload(0x40)\n      tag_67\n      swap2\n      swap1\n      tag_35\n      jump\t// in\n    tag_67:\n      mload(0x40)\n      dup1\n      swap2\n      sub\n      swap1\n      return\n        /* \"contracts/ERC1155.sol\":2730:2856  function getCreator(uint256 tokenId) public view virtual override returns(address) {... */\n    tag_14:\n      tag_68\n      0x04\n      dup1\n      calldatasize\n      sub\n      dup2\n      add\n      swap1\n      tag_69\n      swap2\n      swap1\n      tag_61\n      jump\t// in\n    tag_69:\n      tag_70\n      jump\t// in\n    tag_68:\n      mload(0x40)\n      tag_71\n      swap2\n      swap1\n      tag_72\n      jump\t// in\n    tag_71:\n      mload(0x40)\n      dup1\n      swap2\n      sub\n      swap1\n      return\n        /* \"contracts/ERC1155.sol\":6872:7032  function isApprovedForAll(address account, address operator) public view override returns (bool) {... */\n    tag_15:\n      tag_73\n      0x04\n      dup1\n      calldatasize\n      sub\n      dup2\n      add\n      swap1\n      tag_74\n      swap2\n      swap1\n      tag_75\n      jump\t// in\n    tag_74:\n      tag_76\n      jump\t// in\n    tag_73:\n      mload(0x40)\n      tag_77\n      swap2\n      swap1\n      tag_31\n      jump\t// in\n    tag_77:\n      mload(0x40)\n      dup1\n      swap2\n      sub\n      swap1\n      return\n        /* \"contracts/ERC1155.sol\":8195:9159  function safeTransferFrom(... */\n    tag_16:\n      tag_78\n      0x04\n      dup1\n      calldatasize\n      sub\n      dup2\n      add\n      swap1\n      tag_79\n      swap2\n      swap1\n      tag_80\n      jump\t// in\n    tag_79:\n      tag_81\n      jump\t// in\n    tag_78:\n      stop\n        /* \"contracts/ERC1155.sol\":4641:4966  function balanceOf(address account, uint256 tokenId) public view override returns (uint256) {... */\n    tag_23:\n        /* \"contracts/ERC1155.sol\":4724:4731  uint256 */\n      0x00\n        /* \"contracts/ERC1155.sol\":4752:4768  _exists(tokenId) */\n      tag_83\n        /* \"contracts/ERC1155.sol\":4760:4767  tokenId */\n      dup3\n        /* \"contracts/ERC1155.sol\":4752:4759  _exists */\n      tag_84\n        /* \"contracts/ERC1155.sol\":4752:4768  _exists(tokenId) */\n      jump\t// in\n    tag_83:\n        /* \"contracts/ERC1155.sol\":4744:4825  require(_exists(tokenId), \"ERC1155Metadata: balance query for nonexistent token\") */\n      tag_85\n      jumpi\n      mload(0x40)\n      0x08c379a000000000000000000000000000000000000000000000000000000000\n      dup2\n      mstore\n      0x04\n      add\n      tag_86\n      swap1\n      tag_87\n      jump\t// in\n    tag_86:\n      mload(0x40)\n      dup1\n      swap2\n      sub\n      swap1\n      revert\n    tag_85:\n        /* \"contracts/ERC1155.sol\":4863:4864  0 */\n      0x00\n        /* \"contracts/ERC1155.sol\":4844:4865  account != address(0) */\n      0xffffffffffffffffffffffffffffffffffffffff\n      and\n        /* \"contracts/ERC1155.sol\":4844:4851  account */\n      dup4\n        /* \"contracts/ERC1155.sol\":4844:4865  account != address(0) */\n      0xffffffffffffffffffffffffffffffffffffffff\n      and\n      sub\n        /* \"contracts/ERC1155.sol\":4836:4913  require(account != address(0), \"ERC1155: balance query for the zero address\") */\n      tag_88\n      jumpi\n      mload(0x40)\n      0x08c379a000000000000000000000000000000000000000000000000000000000\n      dup2\n      mstore\n      0x04\n      add\n      tag_89\n      swap1\n      tag_90\n      jump\t// in\n    tag_89:\n      mload(0x40)\n      dup1\n      swap2\n      sub\n      swap1\n      revert\n    tag_88:\n        /* \"contracts/ERC1155.sol\":4931:4940  _balances */\n      0x03\n        /* \"contracts/ERC1155.sol\":4931:4949  _balances[tokenId] */\n      0x00\n        /* \"contracts/ERC1155.sol\":4941:4948  tokenId */\n      dup4\n        /* \"contracts/ERC1155.sol\":4931:4949  _balances[tokenId] */\n      dup2\n      mstore\n      0x20\n      add\n      swap1\n      dup2\n      mstore\n      0x20\n      add\n      0x00\n      keccak256\n        /* \"contracts/ERC1155.sol\":4931:4958  _balances[tokenId][account] */\n      0x00\n        /* \"contracts/ERC1155.sol\":4950:4957  account */\n      dup5\n        /* \"contracts/ERC1155.sol\":4931:4958  _balances[tokenId][account] */\n      0xffffffffffffffffffffffffffffffffffffffff\n      and\n      0xffffffffffffffffffffffffffffffffffffffff\n      and\n      dup2\n      mstore\n      0x20\n      add\n      swap1\n      dup2\n      mstore\n      0x20\n      add\n      0x00\n      keccak256\n      sload\n        /* \"contracts/ERC1155.sol\":4924:4958  return _balances[tokenId][account] */\n      swap1\n      pop\n        /* \"contracts/ERC1155.sol\":4641:4966  function balanceOf(address account, uint256 tokenId) public view override returns (uint256) {... */\n      swap3\n      swap2\n      pop\n      pop\n      jump\t// out\n        /* \"contracts/External/ERC165.sol\":393:545  function supportsInterface(bytes4 interfaceId) external view virtual override returns (bool) {... */\n    tag_29:\n        /* \"contracts/External/ERC165.sol\":480:484  bool */\n      0x00\n        /* \"contracts/External/ERC165.sol\":504:524  _supportedInterfaces */\n      dup1\n        /* \"contracts/External/ERC165.sol\":504:537  _supportedInterfaces[interfaceId] */\n      0x00\n        /* \"contracts/External/ERC165.sol\":525:536  interfaceId */\n      dup4\n        /* \"contracts/External/ERC165.sol\":504:537  _supportedInterfaces[interfaceId] */\n      not(0xffffffffffffffffffffffffffffffffffffffffffffffffffffffff)\n      and\n      not(0xffffffffffffffffffffffffffffffffffffffffffffffffffffffff)\n      and\n      dup2\n      mstore\n      0x20\n      add\n      swap1\n      dup2\n      mstore\n      0x20\n      add\n      0x00\n      keccak256\n      0x00\n      swap1\n      sload\n      swap1\n      0x0100\n      exp\n      swap1\n      div\n      0xff\n      and\n        /* \"contracts/External/ERC165.sol\":497:537  return _supportedInterfaces[interfaceId] */\n      swap1\n      pop\n        /* \"contracts/External/ERC165.sol\":393:545  function supportsInterface(bytes4 interfaceId) external view virtual override returns (bool) {... */\n      swap2\n      swap1\n      pop\n      jump\t// out\n        /* \"contracts/ERC1155.sol\":1670:1770  function name() public view virtual override returns (string memory) {... */\n    tag_33:\n        /* \"contracts/ERC1155.sol\":1724:1737  string memory */\n      0x60\n        /* \"contracts/ERC1155.sol\":1757:1762  _name */\n      0x09\n        /* \"contracts/ERC1155.sol\":1750:1762  return _name */\n      dup1\n      sload\n      tag_93\n      swap1\n      tag_94\n      jump\t// in\n    tag_93:\n      dup1\n      0x1f\n      add\n      0x20\n      dup1\n      swap2\n      div\n      mul\n      0x20\n      add\n      mload(0x40)\n      swap1\n      dup2\n      add\n      0x40\n      mstore\n      dup1\n      swap3\n      swap2\n      swap1\n      dup2\n      dup2\n      mstore\n      0x20\n      add\n      dup3\n      dup1\n      sload\n      tag_95\n      swap1\n      tag_94\n      jump\t// in\n    tag_95:\n      dup1\n      iszero\n      tag_96\n      jumpi\n      dup1\n      0x1f\n      lt\n      tag_97\n      jumpi\n      0x0100\n      dup1\n      dup4\n      sload\n      div\n      mul\n      dup4\n      mstore\n      swap2\n      0x20\n      add\n      swap2\n      jump(tag_96)\n    tag_97:\n      dup3\n      add\n      swap2\n      swap1\n      0x00\n      mstore\n      keccak256(0x00, 0x20)\n      swap1\n    tag_98:\n      dup2\n      sload\n      dup2\n      mstore\n      swap1\n      0x01\n      add\n      swap1\n      0x20\n      add\n      dup1\n      dup4\n      gt\n      tag_98\n      jumpi\n      dup3\n      swap1\n      sub\n      0x1f\n      and\n      dup3\n      add\n      swap2\n    tag_96:\n      pop\n      pop\n      pop\n      pop\n      pop\n      swap1\n      pop\n        /* \"contracts/ERC1155.sol\":1670:1770  function name() public view virtual override returns (string memory) {... */\n      swap1\n      jump\t// out\n        /* \"contracts/ERC1155.sol\":4122:4235  function totalSupply() external view virtual returns (uint256) {... */\n    tag_37:\n        /* \"contracts/ERC1155.sol\":4176:4183  uint256 */\n      0x00\n        /* \"contracts/ERC1155.sol\":4203:4224  _tokenOwners.length() */\n      tag_100\n        /* \"contracts/ERC1155.sol\":4203:4215  _tokenOwners */\n      0x07\n        /* \"contracts/ERC1155.sol\":4203:4222  _tokenOwners.length */\n      tag_101\n        /* \"contracts/ERC1155.sol\":4203:4224  _tokenOwners.length() */\n      jump\t// in\n    tag_100:\n        /* \"contracts/ERC1155.sol\":4196:4224  return _tokenOwners.length() */\n      swap1\n      pop\n        /* \"contracts/ERC1155.sol\":4122:4235  function totalSupply() external view virtual returns (uint256) {... */\n      swap1\n      jump\t// out\n        /* \"contracts/ERC1155.sol\":10810:12090  function safeBatchTransferFrom(... */\n    tag_42:\n        /* \"contracts/ERC1155.sol\":11085:11092  amounts */\n      dup2\n        /* \"contracts/ERC1155.sol\":11085:11099  amounts.length */\n      mload\n        /* \"contracts/ERC1155.sol\":11066:11074  tokenIds */\n      dup4\n        /* \"contracts/ERC1155.sol\":11066:11081  tokenIds.length */\n      mload\n        /* \"contracts/ERC1155.sol\":11066:11099  tokenIds.length == amounts.length */\n      eq\n        /* \"contracts/ERC1155.sol\":11058:11144  require(tokenIds.length == amounts.length, \"ERC1155: ids and amounts length mismatch\") */\n      tag_103\n      jumpi\n      mload(0x40)\n      0x08c379a000000000000000000000000000000000000000000000000000000000\n      dup2\n      mstore\n      0x04\n      add\n      tag_104\n      swap1\n      tag_105\n      jump\t// in\n    tag_104:\n      mload(0x40)\n      dup1\n      swap2\n      sub\n      swap1\n      revert\n    tag_103:\n        /* \"contracts/ERC1155.sol\":11177:11178  0 */\n      0x00\n        /* \"contracts/ERC1155.sol\":11163:11179  to != address(0) */\n      0xffffffffffffffffffffffffffffffffffffffff\n      and\n        /* \"contracts/ERC1155.sol\":11163:11165  to */\n      dup5\n        /* \"contracts/ERC1155.sol\":11163:11179  to != address(0) */\n      0xffffffffffffffffffffffffffffffffffffffff\n      and\n      sub\n        /* \"contracts/ERC1155.sol\":11155:11221  require(to != address(0), \"ERC1155: transfer to the zero address\") */\n      tag_106\n      jumpi\n      mload(0x40)\n      0x08c379a000000000000000000000000000000000000000000000000000000000\n      dup2\n      mstore\n      0x04\n      add\n      tag_107\n      swap1\n      tag_108\n      jump\t// in\n    tag_107:\n      mload(0x40)\n      dup1\n      swap2\n      sub\n      swap1\n      revert\n    tag_106:\n        /* \"contracts/ERC1155.sol\":11262:11274  _msgSender() */\n      tag_109\n        /* \"contracts/ERC1155.sol\":11262:11272  _msgSender */\n      tag_110\n        /* \"contracts/ERC1155.sol\":11262:11274  _msgSender() */\n      jump\t// in\n    tag_109:\n        /* \"contracts/ERC1155.sol\":11254:11274  from == _msgSender() */\n      0xffffffffffffffffffffffffffffffffffffffff\n      and\n        /* \"contracts/ERC1155.sol\":11254:11258  from */\n      dup6\n        /* \"contracts/ERC1155.sol\":11254:11274  from == _msgSender() */\n      0xffffffffffffffffffffffffffffffffffffffff\n      and\n      eq\n        /* \"contracts/ERC1155.sol\":11254:11314  from == _msgSender() || isApprovedForAll(from, _msgSender()) */\n      dup1\n      tag_111\n      jumpi\n      pop\n        /* \"contracts/ERC1155.sol\":11278:11314  isApprovedForAll(from, _msgSender()) */\n      tag_112\n        /* \"contracts/ERC1155.sol\":11295:11299  from */\n      dup6\n        /* \"contracts/ERC1155.sol\":11301:11313  _msgSender() */\n      tag_113\n        /* \"contracts/ERC1155.sol\":11301:11311  _msgSender */\n      tag_110\n        /* \"contracts/ERC1155.sol\":11301:11313  _msgSender() */\n      jump\t// in\n    tag_113:\n        /* \"contracts/ERC1155.sol\":11278:11294  isApprovedForAll */\n      tag_76\n        /* \"contracts/ERC1155.sol\":11278:11314  isApprovedForAll(from, _msgSender()) */\n      jump\t// in\n    tag_112:\n        /* \"contracts/ERC1155.sol\":11254:11314  from == _msgSender() || isApprovedForAll(from, _msgSender()) */\n    tag_111:\n        /* \"contracts/ERC1155.sol\":11232:11392  require(... */\n      tag_114\n      jumpi\n      mload(0x40)\n      0x08c379a000000000000000000000000000000000000000000000000000000000\n      dup2\n      mstore\n      0x04\n      add\n      tag_115\n      swap1\n      tag_116\n      jump\t// in\n    tag_115:\n      mload(0x40)\n      dup1\n      swap2\n      sub\n      swap1\n      revert\n    tag_114:\n        /* \"contracts/ERC1155.sol\":11405:11421  address operator */\n      0x00\n        /* \"contracts/ERC1155.sol\":11424:11436  _msgSender() */\n      tag_117\n        /* \"contracts/ERC1155.sol\":11424:11434  _msgSender */\n      tag_110\n        /* \"contracts/ERC1155.sol\":11424:11436  _msgSender() */\n      jump\t// in\n    tag_117:\n        /* \"contracts/ERC1155.sol\":11405:11436  address operator = _msgSender() */\n      swap1\n      pop\n        /* \"contracts/ERC1155.sol\":11449:11514  _beforeTokenTransfer(operator, from, to, tokenIds, amounts, data) */\n      tag_118\n        /* \"contracts/ERC1155.sol\":11470:11478  operator */\n      dup2\n        /* \"contracts/ERC1155.sol\":11480:11484  from */\n      dup8\n        /* \"contracts/ERC1155.sol\":11486:11488  to */\n      dup8\n        /* \"contracts/ERC1155.sol\":11490:11498  tokenIds */\n      dup8\n        /* \"contracts/ERC1155.sol\":11500:11507  amounts */\n      dup8\n        /* \"contracts/ERC1155.sol\":11509:11513  data */\n      dup8\n        /* \"contracts/ERC1155.sol\":11449:11469  _beforeTokenTransfer */\n      tag_119\n        /* \"contracts/ERC1155.sol\":11449:11514  _beforeTokenTransfer(operator, from, to, tokenIds, amounts, data) */\n      jump\t// in\n    tag_118:\n        /* \"contracts/ERC1155.sol\":11532:11541  uint256 i */\n      0x00\n        /* \"contracts/ERC1155.sol\":11527:11920  for (uint256 i = 0; i < tokenIds.length; ++i) {... */\n    tag_120:\n        /* \"contracts/ERC1155.sol\":11551:11559  tokenIds */\n      dup5\n        /* \"contracts/ERC1155.sol\":11551:11566  tokenIds.length */\n      mload\n        /* \"contracts/ERC1155.sol\":11547:11548  i */\n      dup2\n        /* \"contracts/ERC1155.sol\":11547:11566  i < tokenIds.length */\n      lt\n        /* \"contracts/ERC1155.sol\":11527:11920  for (uint256 i = 0; i < tokenIds.length; ++i) {... */\n      iszero\n      tag_121\n      jumpi\n        /* \"contracts/ERC1155.sol\":11588:11603  uint256 tokenId */\n      0x00\n        /* \"contracts/ERC1155.sol\":11606:11614  tokenIds */\n      dup6\n        /* \"contracts/ERC1155.sol\":11615:11616  i */\n      dup3\n        /* \"contracts/ERC1155.sol\":11606:11617  tokenIds[i] */\n      dup2\n      mload\n      dup2\n      lt\n      tag_123\n      jumpi\n      tag_124\n      tag_125\n      jump\t// in\n    tag_124:\n    tag_123:\n      0x20\n      mul\n      0x20\n      add\n      add\n      mload\n        /* \"contracts/ERC1155.sol\":11588:11617  uint256 tokenId = tokenIds[i] */\n      swap1\n      pop\n        /* \"contracts/ERC1155.sol\":11632:11646  uint256 amount */\n      0x00\n        /* \"contracts/ERC1155.sol\":11649:11656  amounts */\n      dup6\n        /* \"contracts/ERC1155.sol\":11657:11658  i */\n      dup4\n        /* \"contracts/ERC1155.sol\":11649:11659  amounts[i] */\n      dup2\n      mload\n      dup2\n      lt\n      tag_126\n      jumpi\n      tag_127\n      tag_125\n      jump\t// in\n    tag_127:\n    tag_126:\n      0x20\n      mul\n      0x20\n      add\n      add\n      mload\n        /* \"contracts/ERC1155.sol\":11632:11659  uint256 amount = amounts[i] */\n      swap1\n      pop\n        /* \"contracts/ERC1155.sol\":11703:11834  _balances[tokenId][from].sub(... */\n      tag_128\n        /* \"contracts/ERC1155.sol\":11750:11756  amount */\n      dup2\n        /* \"contracts/ERC1155.sol\":11703:11834  _balances[tokenId][from].sub(... */\n      mload(0x40)\n      dup1\n      0x60\n      add\n      0x40\n      mstore\n      dup1\n      0x2a\n      dup2\n      mstore\n      0x20\n      add\n      data_8ac7e9556b567c1c94bb4daaa3c3a65be5ac686579615210cb910fb8cb8d65bf\n      0x2a\n      swap2\n      codecopy\n        /* \"contracts/ERC1155.sol\":11703:11712  _balances */\n      0x03\n        /* \"contracts/ERC1155.sol\":11703:11721  _balances[tokenId] */\n      0x00\n        /* \"contracts/ERC1155.sol\":11713:11720  tokenId */\n      dup7\n        /* \"contracts/ERC1155.sol\":11703:11721  _balances[tokenId] */\n      dup2\n      mstore\n      0x20\n      add\n      swap1\n      dup2\n      mstore\n      0x20\n      add\n      0x00\n      keccak256\n        /* \"contracts/ERC1155.sol\":11703:11727  _balances[tokenId][from] */\n      0x00\n        /* \"contracts/ERC1155.sol\":11722:11726  from */\n      dup14\n        /* \"contracts/ERC1155.sol\":11703:11727  _balances[tokenId][from] */\n      0xffffffffffffffffffffffffffffffffffffffff\n      and\n      0xffffffffffffffffffffffffffffffffffffffff\n      and\n      dup2\n      mstore\n      0x20\n      add\n      swap1\n      dup2\n      mstore\n      0x20\n      add\n      0x00\n      keccak256\n      sload\n        /* \"contracts/ERC1155.sol\":11703:11731  _balances[tokenId][from].sub */\n      tag_129\n      swap1\n        /* \"contracts/ERC1155.sol\":11703:11834  _balances[tokenId][from].sub(... */\n      swap3\n      swap2\n      swap1\n      0xffffffff\n      and\n      jump\t// in\n    tag_128:\n        /* \"contracts/ERC1155.sol\":11676:11685  _balances */\n      0x03\n        /* \"contracts/ERC1155.sol\":11676:11694  _balances[tokenId] */\n      0x00\n        /* \"contracts/ERC1155.sol\":11686:11693  tokenId */\n      dup5\n        /* \"contracts/ERC1155.sol\":11676:11694  _balances[tokenId] */\n      dup2\n      mstore\n      0x20\n      add\n      swap1\n      dup2\n      mstore\n      0x20\n      add\n      0x00\n      keccak256\n        /* \"contracts/ERC1155.sol\":11676:11700  _balances[tokenId][from] */\n      0x00\n        /* \"contracts/ERC1155.sol\":11695:11699  from */\n      dup12\n        /* \"contracts/ERC1155.sol\":11676:11700  _balances[tokenId][from] */\n      0xffffffffffffffffffffffffffffffffffffffff\n      and\n      0xffffffffffffffffffffffffffffffffffffffff\n      and\n      dup2\n      mstore\n      0x20\n      add\n      swap1\n      dup2\n      mstore\n      0x20\n      add\n      0x00\n      keccak256\n        /* \"contracts/ERC1155.sol\":11676:11834  _balances[tokenId][from] = _balances[tokenId][from].sub(... */\n      dup2\n      swap1\n      sstore\n      pop\n        /* \"contracts/ERC1155.sol\":11874:11908  _balances[tokenId][to].add(amount) */\n      tag_130\n        /* \"contracts/ERC1155.sol\":11901:11907  amount */\n      dup2\n        /* \"contracts/ERC1155.sol\":11874:11883  _balances */\n      0x03\n        /* \"contracts/ERC1155.sol\":11874:11892  _balances[tokenId] */\n      0x00\n        /* \"contracts/ERC1155.sol\":11884:11891  tokenId */\n      dup6\n        /* \"contracts/ERC1155.sol\":11874:11892  _balances[tokenId] */\n      dup2\n      mstore\n      0x20\n      add\n      swap1\n      dup2\n      mstore\n      0x20\n      add\n      0x00\n      keccak256\n        /* \"contracts/ERC1155.sol\":11874:11896  _balances[tokenId][to] */\n      0x00\n        /* \"contracts/ERC1155.sol\":11893:11895  to */\n      dup12\n        /* \"contracts/ERC1155.sol\":11874:11896  _balances[tokenId][to] */\n      0xffffffffffffffffffffffffffffffffffffffff\n      and\n      0xffffffffffffffffffffffffffffffffffffffff\n      and\n      dup2\n      mstore\n      0x20\n      add\n      swap1\n      dup2\n      mstore\n      0x20\n      add\n      0x00\n      keccak256\n      sload\n        /* \"contracts/ERC1155.sol\":11874:11900  _balances[tokenId][to].add */\n      tag_131\n      swap1\n        /* \"contracts/ERC1155.sol\":11874:11908  _balances[tokenId][to].add(amount) */\n      swap2\n      swap1\n      0xffffffff\n      and\n      jump\t// in\n    tag_130:\n        /* \"contracts/ERC1155.sol\":11849:11858  _balances */\n      0x03\n        /* \"contracts/ERC1155.sol\":11849:11867  _balances[tokenId] */\n      0x00\n        /* \"contracts/ERC1155.sol\":11859:11866  tokenId */\n      dup5\n        /* \"contracts/ERC1155.sol\":11849:11867  _balances[tokenId] */\n      dup2\n      mstore\n      0x20\n      add\n      swap1\n      dup2\n      mstore\n      0x20\n      add\n      0x00\n      keccak256\n        /* \"contracts/ERC1155.sol\":11849:11871  _balances[tokenId][to] */\n      0x00\n        /* \"contracts/ERC1155.sol\":11868:11870  to */\n      dup11\n        /* \"contracts/ERC1155.sol\":11849:11871  _balances[tokenId][to] */\n      0xffffffffffffffffffffffffffffffffffffffff\n      and\n      0xffffffffffffffffffffffffffffffffffffffff\n      and\n      dup2\n      mstore\n      0x20\n      add\n      swap1\n      dup2\n      mstore\n      0x20\n      add\n      0x00\n      keccak256\n        /* \"contracts/ERC1155.sol\":11849:11908  _balances[tokenId][to] = _balances[tokenId][to].add(amount) */\n      dup2\n      swap1\n      sstore\n      pop\n        /* \"contracts/ERC1155.sol\":11573:11920  {... */\n      pop\n      pop\n        /* \"contracts/ERC1155.sol\":11568:11571  ++i */\n      dup1\n      tag_132\n      swap1\n      tag_133\n      jump\t// in\n    tag_132:\n      swap1\n      pop\n        /* \"contracts/ERC1155.sol\":11527:11920  for (uint256 i = 0; i < tokenIds.length; ++i) {... */\n      jump(tag_120)\n    tag_121:\n      pop\n        /* \"contracts/ERC1155.sol\":11967:11969  to */\n      dup5\n        /* \"contracts/ERC1155.sol\":11937:11989  TransferBatch(operator, from, to, tokenIds, amounts) */\n      0xffffffffffffffffffffffffffffffffffffffff\n      and\n        /* \"contracts/ERC1155.sol\":11961:11965  from */\n      dup7\n        /* \"contracts/ERC1155.sol\":11937:11989  TransferBatch(operator, from, to, tokenIds, amounts) */\n      0xffffffffffffffffffffffffffffffffffffffff\n      and\n        /* \"contracts/ERC1155.sol\":11951:11959  operator */\n      dup3\n        /* \"contracts/ERC1155.sol\":11937:11989  TransferBatch(operator, from, to, tokenIds, amounts) */\n      0xffffffffffffffffffffffffffffffffffffffff\n      and\n      0x4a39dc06d4c0dbc64b70af90fd698a233a518aa5d07e595d983b8c0526c8f7fb\n        /* \"contracts/ERC1155.sol\":11971:11979  tokenIds */\n      dup8\n        /* \"contracts/ERC1155.sol\":11981:11988  amounts */\n      dup8\n        /* \"contracts/ERC1155.sol\":11937:11989  TransferBatch(operator, from, to, tokenIds, amounts) */\n      mload(0x40)\n      tag_134\n      swap3\n      swap2\n      swap1\n      tag_135\n      jump\t// in\n    tag_134:\n      mload(0x40)\n      dup1\n      swap2\n      sub\n      swap1\n      log4\n        /* \"contracts/ERC1155.sol\":12002:12082  _doSafeBatchTransferAcceptanceCheck(operator, from, to, tokenIds, amounts, data) */\n      tag_136\n        /* \"contracts/ERC1155.sol\":12038:12046  operator */\n      dup2\n        /* \"contracts/ERC1155.sol\":12048:12052  from */\n      dup8\n        /* \"contracts/ERC1155.sol\":12054:12056  to */\n      dup8\n        /* \"contracts/ERC1155.sol\":12058:12066  tokenIds */\n      dup8\n        /* \"contracts/ERC1155.sol\":12068:12075  amounts */\n      dup8\n        /* \"contracts/ERC1155.sol\":12077:12081  data */\n      dup8\n        /* \"contracts/ERC1155.sol\":12002:12037  _doSafeBatchTransferAcceptanceCheck */\n      tag_137\n        /* \"contracts/ERC1155.sol\":12002:12082  _doSafeBatchTransferAcceptanceCheck(operator, from, to, tokenIds, amounts, data) */\n      jump\t// in\n    tag_136:\n        /* \"contracts/ERC1155.sol\":11047:12090  {... */\n      pop\n        /* \"contracts/ERC1155.sol\":10810:12090  function safeBatchTransferFrom(... */\n      pop\n      pop\n      pop\n      pop\n      pop\n      jump\t// out\n        /* \"contracts/ERC1155.sol\":5276:5910  function balanceOfBatch(... */\n    tag_46:\n        /* \"contracts/ERC1155.sol\":5440:5456  uint256[] memory */\n      0x60\n        /* \"contracts/ERC1155.sol\":5501:5504  ids */\n      dup2\n        /* \"contracts/ERC1155.sol\":5501:5511  ids.length */\n      mload\n        /* \"contracts/ERC1155.sol\":5482:5490  accounts */\n      dup4\n        /* \"contracts/ERC1155.sol\":5482:5497  accounts.length */\n      mload\n        /* \"contracts/ERC1155.sol\":5482:5511  accounts.length == ids.length */\n      eq\n        /* \"contracts/ERC1155.sol\":5474:5557  require(accounts.length == ids.length, \"ERC1155: accounts and ids length mismatch\") */\n      tag_139\n      jumpi\n      mload(0x40)\n      0x08c379a000000000000000000000000000000000000000000000000000000000\n      dup2\n      mstore\n      0x04\n      add\n      tag_140\n      swap1\n      tag_141\n      jump\t// in\n    tag_140:\n      mload(0x40)\n      dup1\n      swap2\n      sub\n      swap1\n      revert\n    tag_139:\n        /* \"contracts/ERC1155.sol\":5570:5600  uint256[] memory batchBalances */\n      0x00\n        /* \"contracts/ERC1155.sol\":5617:5625  accounts */\n      dup4\n        /* \"contracts/ERC1155.sol\":5617:5632  accounts.length */\n      mload\n        /* \"contracts/ERC1155.sol\":5603:5633  new uint256[](accounts.length) */\n      0xffffffffffffffff\n      dup2\n      gt\n      iszero\n      tag_142\n      jumpi\n      tag_143\n      tag_144\n      jump\t// in\n    tag_143:\n    tag_142:\n      mload(0x40)\n      swap1\n      dup1\n      dup3\n      mstore\n      dup1\n      0x20\n      mul\n      0x20\n      add\n      dup3\n      add\n      0x40\n      mstore\n      dup1\n      iszero\n      tag_145\n      jumpi\n      dup2\n      0x20\n      add\n      0x20\n      dup3\n      mul\n      dup1\n      calldatasize\n      dup4\n      calldatacopy\n      dup1\n      dup3\n      add\n      swap2\n      pop\n      pop\n      swap1\n      pop\n    tag_145:\n      pop\n        /* \"contracts/ERC1155.sol\":5570:5633  uint256[] memory batchBalances = new uint256[](accounts.length) */\n      swap1\n      pop\n        /* \"contracts/ERC1155.sol\":5651:5660  uint256 i */\n      0x00\n        /* \"contracts/ERC1155.sol\":5646:5870  for (uint256 i = 0; i < accounts.length; ++i) {... */\n    tag_146:\n        /* \"contracts/ERC1155.sol\":5670:5678  accounts */\n      dup5\n        /* \"contracts/ERC1155.sol\":5670:5685  accounts.length */\n      mload\n        /* \"contracts/ERC1155.sol\":5666:5667  i */\n      dup2\n        /* \"contracts/ERC1155.sol\":5666:5685  i < accounts.length */\n      lt\n        /* \"contracts/ERC1155.sol\":5646:5870  for (uint256 i = 0; i < accounts.length; ++i) {... */\n      iszero\n      tag_147\n      jumpi\n        /* \"contracts/ERC1155.sol\":5738:5739  0 */\n      0x00\n        /* \"contracts/ERC1155.sol\":5715:5740  accounts[i] != address(0) */\n      0xffffffffffffffffffffffffffffffffffffffff\n      and\n        /* \"contracts/ERC1155.sol\":5715:5723  accounts */\n      dup6\n        /* \"contracts/ERC1155.sol\":5724:5725  i */\n      dup3\n        /* \"contracts/ERC1155.sol\":5715:5726  accounts[i] */\n      dup2\n      mload\n      dup2\n      lt\n      tag_149\n      jumpi\n      tag_150\n      tag_125\n      jump\t// in\n    tag_150:\n    tag_149:\n      0x20\n      mul\n      0x20\n      add\n      add\n      mload\n        /* \"contracts/ERC1155.sol\":5715:5740  accounts[i] != address(0) */\n      0xffffffffffffffffffffffffffffffffffffffff\n      and\n      sub\n        /* \"contracts/ERC1155.sol\":5707:5794  require(accounts[i] != address(0), \"ERC1155: batch balance query for the zero address\") */\n      tag_151\n      jumpi\n      mload(0x40)\n      0x08c379a000000000000000000000000000000000000000000000000000000000\n      dup2\n      mstore\n      0x04\n      add\n      tag_152\n      swap1\n      tag_153\n      jump\t// in\n    tag_152:\n      mload(0x40)\n      dup1\n      swap2\n      sub\n      swap1\n      revert\n    tag_151:\n        /* \"contracts/ERC1155.sol\":5828:5837  _balances */\n      0x03\n        /* \"contracts/ERC1155.sol\":5828:5845  _balances[ids[i]] */\n      0x00\n        /* \"contracts/ERC1155.sol\":5838:5841  ids */\n      dup6\n        /* \"contracts/ERC1155.sol\":5842:5843  i */\n      dup4\n        /* \"contracts/ERC1155.sol\":5838:5844  ids[i] */\n      dup2\n      mload\n      dup2\n      lt\n      tag_154\n      jumpi\n      tag_155\n      tag_125\n      jump\t// in\n    tag_155:\n    tag_154:\n      0x20\n      mul\n      0x20\n      add\n      add\n      mload\n        /* \"contracts/ERC1155.sol\":5828:5845  _balances[ids[i]] */\n      dup2\n      mstore\n      0x20\n      add\n      swap1\n      dup2\n      mstore\n      0x20\n      add\n      0x00\n      keccak256\n        /* \"contracts/ERC1155.sol\":5828:5858  _balances[ids[i]][accounts[i]] */\n      0x00\n        /* \"contracts/ERC1155.sol\":5846:5854  accounts */\n      dup7\n        /* \"contracts/ERC1155.sol\":5855:5856  i */\n      dup4\n        /* \"contracts/ERC1155.sol\":5846:5857  accounts[i] */\n      dup2\n      mload\n      dup2\n      lt\n      tag_156\n      jumpi\n      tag_157\n      tag_125\n      jump\t// in\n    tag_157:\n    tag_156:\n      0x20\n      mul\n      0x20\n      add\n      add\n      mload\n        /* \"contracts/ERC1155.sol\":5828:5858  _balances[ids[i]][accounts[i]] */\n      0xffffffffffffffffffffffffffffffffffffffff\n      and\n      0xffffffffffffffffffffffffffffffffffffffff\n      and\n      dup2\n      mstore\n      0x20\n      add\n      swap1\n      dup2\n      mstore\n      0x20\n      add\n      0x00\n      keccak256\n      sload\n        /* \"contracts/ERC1155.sol\":5809:5822  batchBalances */\n      dup3\n        /* \"contracts/ERC1155.sol\":5823:5824  i */\n      dup3\n        /* \"contracts/ERC1155.sol\":5809:5825  batchBalances[i] */\n      dup2\n      mload\n      dup2\n      lt\n      tag_158\n      jumpi\n      tag_159\n      tag_125\n      jump\t// in\n    tag_159:\n    tag_158:\n      0x20\n      mul\n      0x20\n      add\n      add\n        /* \"contracts/ERC1155.sol\":5809:5858  batchBalances[i] = _balances[ids[i]][accounts[i]] */\n      dup2\n      dup2\n      mstore\n      pop\n      pop\n        /* \"contracts/ERC1155.sol\":5687:5690  ++i */\n      dup1\n      tag_160\n      swap1\n      tag_133\n      jump\t// in\n    tag_160:\n      swap1\n      pop\n        /* \"contracts/ERC1155.sol\":5646:5870  for (uint256 i = 0; i < accounts.length; ++i) {... */\n      jump(tag_146)\n    tag_147:\n      pop\n        /* \"contracts/ERC1155.sol\":5889:5902  batchBalances */\n      dup1\n        /* \"contracts/ERC1155.sol\":5882:5902  return batchBalances */\n      swap2\n      pop\n      pop\n        /* \"contracts/ERC1155.sol\":5276:5910  function balanceOfBatch(... */\n      swap3\n      swap2\n      pop\n      pop\n      jump\t// out\n        /* \"contracts/ERC1155.sol\":1778:1882  function symbol() public view virtual override returns (string memory) {... */\n    tag_50:\n        /* \"contracts/ERC1155.sol\":1834:1847  string memory */\n      0x60\n        /* \"contracts/ERC1155.sol\":1867:1874  _symbol */\n      0x0a\n        /* \"contracts/ERC1155.sol\":1860:1874  return _symbol */\n      dup1\n      sload\n      tag_162\n      swap1\n      tag_94\n      jump\t// in\n    tag_162:\n      dup1\n      0x1f\n      add\n      0x20\n      dup1\n      swap2\n      div\n      mul\n      0x20\n      add\n      mload(0x40)\n      swap1\n      dup2\n      add\n      0x40\n      mstore\n      dup1\n      swap3\n      swap2\n      swap1\n      dup2\n      dup2\n      mstore\n      0x20\n      add\n      dup3\n      dup1\n      sload\n      tag_163\n      swap1\n      tag_94\n      jump\t// in\n    tag_163:\n      dup1\n      iszero\n      tag_164\n      jumpi\n      dup1\n      0x1f\n      lt\n      tag_165\n      jumpi\n      0x0100\n      dup1\n      dup4\n      sload\n      div\n      mul\n      dup4\n      mstore\n      swap2\n      0x20\n      add\n      swap2\n      jump(tag_164)\n    tag_165:\n      dup3\n      add\n      swap2\n      swap1\n      0x00\n      mstore\n      keccak256(0x00, 0x20)\n      swap1\n    tag_166:\n      dup2\n      sload\n      dup2\n      mstore\n      swap1\n      0x01\n      add\n      swap1\n      0x20\n      add\n      dup1\n      dup4\n      gt\n      tag_166\n      jumpi\n      dup3\n      swap1\n      sub\n      0x1f\n      and\n      dup3\n      add\n      swap2\n    tag_164:\n      pop\n      pop\n      pop\n      pop\n      pop\n      swap1\n      pop\n        /* \"contracts/ERC1155.sol\":1778:1882  function symbol() public view virtual override returns (string memory) {... */\n      swap1\n      jump\t// out\n        /* \"contracts/ERC1155.sol\":6272:6583  function setApprovalForAll(address operator, bool approved) public virtual override {... */\n    tag_55:\n        /* \"contracts/ERC1155.sol\":6391:6399  operator */\n      dup2\n        /* \"contracts/ERC1155.sol\":6375:6399  _msgSender() != operator */\n      0xffffffffffffffffffffffffffffffffffffffff\n      and\n        /* \"contracts/ERC1155.sol\":6375:6387  _msgSender() */\n      tag_168\n        /* \"contracts/ERC1155.sol\":6375:6385  _msgSender */\n      tag_110\n        /* \"contracts/ERC1155.sol\":6375:6387  _msgSender() */\n      jump\t// in\n    tag_168:\n        /* \"contracts/ERC1155.sol\":6375:6399  _msgSender() != operator */\n      0xffffffffffffffffffffffffffffffffffffffff\n      and\n      sub\n        /* \"contracts/ERC1155.sol\":6367:6445  require(_msgSender() != operator, \"ERC1155: setting approval status for self\") */\n      tag_169\n      jumpi\n      mload(0x40)\n      0x08c379a000000000000000000000000000000000000000000000000000000000\n      dup2\n      mstore\n      0x04\n      add\n      tag_170\n      swap1\n      tag_171\n      jump\t// in\n    tag_170:\n      mload(0x40)\n      dup1\n      swap2\n      sub\n      swap1\n      revert\n    tag_169:\n        /* \"contracts/ERC1155.sol\":6503:6511  approved */\n      dup1\n        /* \"contracts/ERC1155.sol\":6458:6476  _operatorApprovals */\n      0x04\n        /* \"contracts/ERC1155.sol\":6458:6490  _operatorApprovals[_msgSender()] */\n      0x00\n        /* \"contracts/ERC1155.sol\":6477:6489  _msgSender() */\n      tag_172\n        /* \"contracts/ERC1155.sol\":6477:6487  _msgSender */\n      tag_110\n        /* \"contracts/ERC1155.sol\":6477:6489  _msgSender() */\n      jump\t// in\n    tag_172:\n        /* \"contracts/ERC1155.sol\":6458:6490  _operatorApprovals[_msgSender()] */\n      0xffffffffffffffffffffffffffffffffffffffff\n      and\n      0xffffffffffffffffffffffffffffffffffffffff\n      and\n      dup2\n      mstore\n      0x20\n      add\n      swap1\n      dup2\n      mstore\n      0x20\n      add\n      0x00\n      keccak256\n        /* \"contracts/ERC1155.sol\":6458:6500  _operatorApprovals[_msgSender()][operator] */\n      0x00\n        /* \"contracts/ERC1155.sol\":6491:6499  operator */\n      dup5\n        /* \"contracts/ERC1155.sol\":6458:6500  _operatorApprovals[_msgSender()][operator] */\n      0xffffffffffffffffffffffffffffffffffffffff\n      and\n      0xffffffffffffffffffffffffffffffffffffffff\n      and\n      dup2\n      mstore\n      0x20\n      add\n      swap1\n      dup2\n      mstore\n      0x20\n      add\n      0x00\n      keccak256\n      0x00\n        /* \"contracts/ERC1155.sol\":6458:6511  _operatorApprovals[_msgSender()][operator] = approved */\n      0x0100\n      exp\n      dup2\n      sload\n      dup2\n      0xff\n      mul\n      not\n      and\n      swap1\n      dup4\n      iszero\n      iszero\n      mul\n      or\n      swap1\n      sstore\n      pop\n        /* \"contracts/ERC1155.sol\":6556:6564  operator */\n      dup2\n        /* \"contracts/ERC1155.sol\":6527:6575  ApprovalForAll(_msgSender(), operator, approved) */\n      0xffffffffffffffffffffffffffffffffffffffff\n      and\n        /* \"contracts/ERC1155.sol\":6542:6554  _msgSender() */\n      tag_173\n        /* \"contracts/ERC1155.sol\":6542:6552  _msgSender */\n      tag_110\n        /* \"contracts/ERC1155.sol\":6542:6554  _msgSender() */\n      jump\t// in\n    tag_173:\n        /* \"contracts/ERC1155.sol\":6527:6575  ApprovalForAll(_msgSender(), operator, approved) */\n      0xffffffffffffffffffffffffffffffffffffffff\n      and\n      0x17307eab39ab6107e8899845ad3d59bd9653f200f220920489ca2b5937696c31\n        /* \"contracts/ERC1155.sol\":6566:6574  approved */\n      dup4\n        /* \"contracts/ERC1155.sol\":6527:6575  ApprovalForAll(_msgSender(), operator, approved) */\n      mload(0x40)\n      tag_174\n      swap2\n      swap1\n      tag_31\n      jump\t// in\n    tag_174:\n      mload(0x40)\n      dup1\n      swap2\n      sub\n      swap1\n      log3\n        /* \"contracts/ERC1155.sol\":6272:6583  function setApprovalForAll(address operator, bool approved) public virtual override {... */\n      pop\n      pop\n      jump\t// out\n        /* \"contracts/ERC1155.sol\":1023:1056  string public tokenURIPrefix = \"\" */\n    tag_57:\n      0x05\n      dup1\n      sload\n      tag_175\n      swap1\n      tag_94\n      jump\t// in\n    tag_175:\n      dup1\n      0x1f\n      add\n      0x20\n      dup1\n      swap2\n      div\n      mul\n      0x20\n      add\n      mload(0x40)\n      swap1\n      dup2\n      add\n      0x40\n      mstore\n      dup1\n      swap3\n      swap2\n      swap1\n      dup2\n      dup2\n      mstore\n      0x20\n      add\n      dup3\n      dup1\n      sload\n      tag_176\n      swap1\n      tag_94\n      jump\t// in\n    tag_176:\n      dup1\n      iszero\n      tag_177\n      jumpi\n      dup1\n      0x1f\n      lt\n      tag_178\n      jumpi\n      0x0100\n      dup1\n      dup4\n      sload\n      div\n      mul\n      dup4\n      mstore\n      swap2\n      0x20\n      add\n      swap2\n      jump(tag_177)\n    tag_178:\n      dup3\n      add\n      swap2\n      swap1\n      0x00\n      mstore\n      keccak256(0x00, 0x20)\n      swap1\n    tag_179:\n      dup2\n      sload\n      dup2\n      mstore\n      swap1\n      0x01\n      add\n      swap1\n      0x20\n      add\n      dup1\n      dup4\n      gt\n      tag_179\n      jumpi\n      dup3\n      swap1\n      sub\n      0x1f\n      and\n      dup3\n      add\n      swap2\n    tag_177:\n      pop\n      pop\n      pop\n      pop\n      pop\n      dup2\n      jump\t// out\n        /* \"contracts/ERC1155.sol\":2436:2557  function royaltyFee(uint256 tokenId) public view override returns(uint256) {... */\n    tag_62:\n        /* \"contracts/ERC1155.sol\":2502:2509  uint256 */\n      0x00\n        /* \"contracts/ERC1155.sol\":2529:2540  _royaltyFee */\n      0x02\n        /* \"contracts/ERC1155.sol\":2529:2549  _royaltyFee[tokenId] */\n      0x00\n        /* \"contracts/ERC1155.sol\":2541:2548  tokenId */\n      dup4\n        /* \"contracts/ERC1155.sol\":2529:2549  _royaltyFee[tokenId] */\n      dup2\n      mstore\n      0x20\n      add\n      swap1\n      dup2\n      mstore\n      0x20\n      add\n      0x00\n      keccak256\n      sload\n        /* \"contracts/ERC1155.sol\":2522:2549  return _royaltyFee[tokenId] */\n      swap1\n      pop\n        /* \"contracts/ERC1155.sol\":2436:2557  function royaltyFee(uint256 tokenId) public view override returns(uint256) {... */\n      swap2\n      swap1\n      pop\n      jump\t// out\n        /* \"contracts/ERC1155.sol\":3425:3981  function tokenURI(uint256 tokenId) public view virtual override returns (string memory) {... */\n    tag_66:\n        /* \"contracts/ERC1155.sol\":3498:3511  string memory */\n      0x60\n        /* \"contracts/ERC1155.sol\":3532:3548  _exists(tokenId) */\n      tag_182\n        /* \"contracts/ERC1155.sol\":3540:3547  tokenId */\n      dup3\n        /* \"contracts/ERC1155.sol\":3532:3539  _exists */\n      tag_84\n        /* \"contracts/ERC1155.sol\":3532:3548  _exists(tokenId) */\n      jump\t// in\n    tag_182:\n        /* \"contracts/ERC1155.sol\":3524:3601  require(_exists(tokenId), \"ERC1155Metadata: URI query for nonexistent token\") */\n      tag_183\n      jumpi\n      mload(0x40)\n      0x08c379a000000000000000000000000000000000000000000000000000000000\n      dup2\n      mstore\n      0x04\n      add\n      tag_184\n      swap1\n      tag_185\n      jump\t// in\n    tag_184:\n      mload(0x40)\n      dup1\n      swap2\n      sub\n      swap1\n      revert\n    tag_183:\n        /* \"contracts/ERC1155.sol\":3612:3635  string memory _tokenURI */\n      0x00\n        /* \"contracts/ERC1155.sol\":3638:3648  _tokenURIs */\n      0x06\n        /* \"contracts/ERC1155.sol\":3638:3657  _tokenURIs[tokenId] */\n      0x00\n        /* \"contracts/ERC1155.sol\":3649:3656  tokenId */\n      dup5\n        /* \"contracts/ERC1155.sol\":3638:3657  _tokenURIs[tokenId] */\n      dup2\n      mstore\n      0x20\n      add\n      swap1\n      dup2\n      mstore\n      0x20\n      add\n      0x00\n      keccak256\n        /* \"contracts/ERC1155.sol\":3612:3657  string memory _tokenURI = _tokenURIs[tokenId] */\n      dup1\n      sload\n      tag_186\n      swap1\n      tag_94\n      jump\t// in\n    tag_186:\n      dup1\n      0x1f\n      add\n      0x20\n      dup1\n      swap2\n      div\n      mul\n      0x20\n      add\n      mload(0x40)\n      swap1\n      dup2\n      add\n      0x40\n      mstore\n      dup1\n      swap3\n      swap2\n      swap1\n      dup2\n      dup2\n      mstore\n      0x20\n      add\n      dup3\n      dup1\n      sload\n      tag_187\n      swap1\n      tag_94\n      jump\t// in\n    tag_187:\n      dup1\n      iszero\n      tag_188\n      jumpi\n      dup1\n      0x1f\n      lt\n      tag_189\n      jumpi\n      0x0100\n      dup1\n      dup4\n      sload\n      div\n      mul\n      dup4\n      mstore\n      swap2\n      0x20\n      add\n      swap2\n      jump(tag_188)\n    tag_189:\n      dup3\n      add\n      swap2\n      swap1\n      0x00\n      mstore\n      keccak256(0x00, 0x20)\n      swap1\n    tag_190:\n      dup2\n      sload\n      dup2\n      mstore\n      swap1\n      0x01\n      add\n      swap1\n      0x20\n      add\n      dup1\n      dup4\n      gt\n      tag_190\n      jumpi\n      dup3\n      swap1\n      sub\n      0x1f\n      and\n      dup3\n      add\n      swap2\n    tag_188:\n      pop\n      pop\n      pop\n      pop\n      pop\n      swap1\n      pop\n        /* \"contracts/ERC1155.sol\":3668:3686  string memory base */\n      0x00\n        /* \"contracts/ERC1155.sol\":3689:3703  tokenURIPrefix */\n      0x05\n        /* \"contracts/ERC1155.sol\":3668:3703  string memory base = tokenURIPrefix */\n      dup1\n      sload\n      tag_191\n      swap1\n      tag_94\n      jump\t// in\n    tag_191:\n      dup1\n      0x1f\n      add\n      0x20\n      dup1\n      swap2\n      div\n      mul\n      0x20\n      add\n      mload(0x40)\n      swap1\n      dup2\n      add\n      0x40\n      mstore\n      dup1\n      swap3\n      swap2\n      swap1\n      dup2\n      dup2\n      mstore\n      0x20\n      add\n      dup3\n      dup1\n      sload\n      tag_192\n      swap1\n      tag_94\n      jump\t// in\n    tag_192:\n      dup1\n      iszero\n      tag_193\n      jumpi\n      dup1\n      0x1f\n      lt\n      tag_194\n      jumpi\n      0x0100\n      dup1\n      dup4\n      sload\n      div\n      mul\n      dup4\n      mstore\n      swap2\n      0x20\n      add\n      swap2\n      jump(tag_193)\n    tag_194:\n      dup3\n      add\n      swap2\n      swap1\n      0x00\n      mstore\n      keccak256(0x00, 0x20)\n      swap1\n    tag_195:\n      dup2\n      sload\n      dup2\n      mstore\n      swap1\n      0x01\n      add\n      swap1\n      0x20\n      add\n      dup1\n      dup4\n      gt\n      tag_195\n      jumpi\n      dup3\n      swap1\n      sub\n      0x1f\n      and\n      dup3\n      add\n      swap2\n    tag_193:\n      pop\n      pop\n      pop\n      pop\n      pop\n      swap1\n      pop\n        /* \"contracts/ERC1155.sol\":3742:3743  0 */\n      0x00\n        /* \"contracts/ERC1155.sol\":3726:3730  base */\n      dup2\n        /* \"contracts/ERC1155.sol\":3720:3738  bytes(base).length */\n      mload\n        /* \"contracts/ERC1155.sol\":3720:3743  bytes(base).length == 0 */\n      sub\n        /* \"contracts/ERC1155.sol\":3716:3788  if (bytes(base).length == 0) {... */\n      tag_196\n      jumpi\n        /* \"contracts/ERC1155.sol\":3767:3776  _tokenURI */\n      dup2\n        /* \"contracts/ERC1155.sol\":3760:3776  return _tokenURI */\n      swap3\n      pop\n      pop\n      pop\n      jump(tag_181)\n        /* \"contracts/ERC1155.sol\":3716:3788  if (bytes(base).length == 0) {... */\n    tag_196:\n        /* \"contracts/ERC1155.sol\":3828:3829  0 */\n      0x00\n        /* \"contracts/ERC1155.sol\":3808:3817  _tokenURI */\n      dup3\n        /* \"contracts/ERC1155.sol\":3802:3825  bytes(_tokenURI).length */\n      mload\n        /* \"contracts/ERC1155.sol\":3802:3829  bytes(_tokenURI).length > 0 */\n      gt\n        /* \"contracts/ERC1155.sol\":3798:3906  if (bytes(_tokenURI).length > 0) {... */\n      iszero\n      tag_197\n      jumpi\n        /* \"contracts/ERC1155.sol\":3877:3881  base */\n      dup1\n        /* \"contracts/ERC1155.sol\":3883:3892  _tokenURI */\n      dup3\n        /* \"contracts/ERC1155.sol\":3860:3893  abi.encodePacked(base, _tokenURI) */\n      add(0x20, mload(0x40))\n      tag_198\n      swap3\n      swap2\n      swap1\n      tag_199\n      jump\t// in\n    tag_198:\n      mload(0x40)\n      0x20\n      dup2\n      dup4\n      sub\n      sub\n      dup2\n      mstore\n      swap1\n      0x40\n      mstore\n        /* \"contracts/ERC1155.sol\":3846:3894  return string(abi.encodePacked(base, _tokenURI)) */\n      swap3\n      pop\n      pop\n      pop\n      jump(tag_181)\n        /* \"contracts/ERC1155.sol\":3798:3906  if (bytes(_tokenURI).length > 0) {... */\n    tag_197:\n        /* \"contracts/ERC1155.sol\":3947:3951  base */\n      dup1\n        /* \"contracts/ERC1155.sol\":3953:3971  tokenId.toString() */\n      tag_200\n        /* \"contracts/ERC1155.sol\":3953:3960  tokenId */\n      dup6\n        /* \"contracts/ERC1155.sol\":3953:3969  tokenId.toString */\n      tag_201\n        /* \"contracts/ERC1155.sol\":3953:3971  tokenId.toString() */\n      jump\t// in\n    tag_200:\n        /* \"contracts/ERC1155.sol\":3930:3972  abi.encodePacked(base, tokenId.toString()) */\n      add(0x20, mload(0x40))\n      tag_202\n      swap3\n      swap2\n      swap1\n      tag_199\n      jump\t// in\n    tag_202:\n      mload(0x40)\n      0x20\n      dup2\n      dup4\n      sub\n      sub\n      dup2\n      mstore\n      swap1\n      0x40\n      mstore\n        /* \"contracts/ERC1155.sol\":3916:3973  return string(abi.encodePacked(base, tokenId.toString())) */\n      swap3\n      pop\n      pop\n      pop\n        /* \"contracts/ERC1155.sol\":3425:3981  function tokenURI(uint256 tokenId) public view virtual override returns (string memory) {... */\n    tag_181:\n      swap2\n      swap1\n      pop\n      jump\t// out\n        /* \"contracts/ERC1155.sol\":2730:2856  function getCreator(uint256 tokenId) public view virtual override returns(address) {... */\n    tag_70:\n        /* \"contracts/ERC1155.sol\":2804:2811  address */\n      0x00\n        /* \"contracts/ERC1155.sol\":2831:2839  creators */\n      0x01\n        /* \"contracts/ERC1155.sol\":2831:2848  creators[tokenId] */\n      0x00\n        /* \"contracts/ERC1155.sol\":2840:2847  tokenId */\n      dup4\n        /* \"contracts/ERC1155.sol\":2831:2848  creators[tokenId] */\n      dup2\n      mstore\n      0x20\n      add\n      swap1\n      dup2\n      mstore\n      0x20\n      add\n      0x00\n      keccak256\n      0x00\n      swap1\n      sload\n      swap1\n      0x0100\n      exp\n      swap1\n      div\n      0xffffffffffffffffffffffffffffffffffffffff\n      and\n        /* \"contracts/ERC1155.sol\":2824:2848  return creators[tokenId] */\n      swap1\n      pop\n        /* \"contracts/ERC1155.sol\":2730:2856  function getCreator(uint256 tokenId) public view virtual override returns(address) {... */\n      swap2\n      swap1\n      pop\n      jump\t// out\n        /* \"contracts/ERC1155.sol\":6872:7032  function isApprovedForAll(address account, address operator) public view override returns (bool) {... */\n    tag_76:\n        /* \"contracts/ERC1155.sol\":6963:6967  bool */\n      0x00\n        /* \"contracts/ERC1155.sol\":6987:7005  _operatorApprovals */\n      0x04\n        /* \"contracts/ERC1155.sol\":6987:7014  _operatorApprovals[account] */\n      0x00\n        /* \"contracts/ERC1155.sol\":7006:7013  account */\n      dup5\n        /* \"contracts/ERC1155.sol\":6987:7014  _operatorApprovals[account] */\n      0xffffffffffffffffffffffffffffffffffffffff\n      and\n      0xffffffffffffffffffffffffffffffffffffffff\n      and\n      dup2\n      mstore\n      0x20\n      add\n      swap1\n      dup2\n      mstore\n      0x20\n      add\n      0x00\n      keccak256\n        /* \"contracts/ERC1155.sol\":6987:7024  _operatorApprovals[account][operator] */\n      0x00\n        /* \"contracts/ERC1155.sol\":7015:7023  operator */\n      dup4\n        /* \"contracts/ERC1155.sol\":6987:7024  _operatorApprovals[account][operator] */\n      0xffffffffffffffffffffffffffffffffffffffff\n      and\n      0xffffffffffffffffffffffffffffffffffffffff\n      and\n      dup2\n      mstore\n      0x20\n      add\n      swap1\n      dup2\n      mstore\n      0x20\n      add\n      0x00\n      keccak256\n      0x00\n      swap1\n      sload\n      swap1\n      0x0100\n      exp\n      swap1\n      div\n      0xff\n      and\n        /* \"contracts/ERC1155.sol\":6980:7024  return _operatorApprovals[account][operator] */\n      swap1\n      pop\n        /* \"contracts/ERC1155.sol\":6872:7032  function isApprovedForAll(address account, address operator) public view override returns (bool) {... */\n      swap3\n      swap2\n      pop\n      pop\n      jump\t// out\n        /* \"contracts/ERC1155.sol\":8195:9159  function safeTransferFrom(... */\n    tag_81:\n        /* \"contracts/ERC1155.sol\":8440:8441  0 */\n      0x00\n        /* \"contracts/ERC1155.sol\":8426:8442  to != address(0) */\n      0xffffffffffffffffffffffffffffffffffffffff\n      and\n        /* \"contracts/ERC1155.sol\":8426:8428  to */\n      dup5\n        /* \"contracts/ERC1155.sol\":8426:8442  to != address(0) */\n      0xffffffffffffffffffffffffffffffffffffffff\n      and\n      sub\n        /* \"contracts/ERC1155.sol\":8418:8484  require(to != address(0), \"ERC1155: transfer to the zero address\") */\n      tag_206\n      jumpi\n      mload(0x40)\n      0x08c379a000000000000000000000000000000000000000000000000000000000\n      dup2\n      mstore\n      0x04\n      add\n      tag_207\n      swap1\n      tag_108\n      jump\t// in\n    tag_207:\n      mload(0x40)\n      dup1\n      swap2\n      sub\n      swap1\n      revert\n    tag_206:\n        /* \"contracts/ERC1155.sol\":8525:8537  _msgSender() */\n      tag_208\n        /* \"contracts/ERC1155.sol\":8525:8535  _msgSender */\n      tag_110\n        /* \"contracts/ERC1155.sol\":8525:8537  _msgSender() */\n      jump\t// in\n    tag_208:\n        /* \"contracts/ERC1155.sol\":8517:8537  from == _msgSender() */\n      0xffffffffffffffffffffffffffffffffffffffff\n      and\n        /* \"contracts/ERC1155.sol\":8517:8521  from */\n      dup6\n        /* \"contracts/ERC1155.sol\":8517:8537  from == _msgSender() */\n      0xffffffffffffffffffffffffffffffffffffffff\n      and\n      eq\n        /* \"contracts/ERC1155.sol\":8517:8577  from == _msgSender() || isApprovedForAll(from, _msgSender()) */\n      dup1\n      tag_209\n      jumpi\n      pop\n        /* \"contracts/ERC1155.sol\":8541:8577  isApprovedForAll(from, _msgSender()) */\n      tag_210\n        /* \"contracts/ERC1155.sol\":8558:8562  from */\n      dup6\n        /* \"contracts/ERC1155.sol\":8564:8576  _msgSender() */\n      tag_211\n        /* \"contracts/ERC1155.sol\":8564:8574  _msgSender */\n      tag_110\n        /* \"contracts/ERC1155.sol\":8564:8576  _msgSender() */\n      jump\t// in\n    tag_211:\n        /* \"contracts/ERC1155.sol\":8541:8557  isApprovedForAll */\n      tag_76\n        /* \"contracts/ERC1155.sol\":8541:8577  isApprovedForAll(from, _msgSender()) */\n      jump\t// in\n    tag_210:\n        /* \"contracts/ERC1155.sol\":8517:8577  from == _msgSender() || isApprovedForAll(from, _msgSender()) */\n    tag_209:\n        /* \"contracts/ERC1155.sol\":8495:8646  require(... */\n      tag_212\n      jumpi\n      mload(0x40)\n      0x08c379a000000000000000000000000000000000000000000000000000000000\n      dup2\n      mstore\n      0x04\n      add\n      tag_213\n      swap1\n      tag_214\n      jump\t// in\n    tag_213:\n      mload(0x40)\n      dup1\n      swap2\n      sub\n      swap1\n      revert\n    tag_212:\n        /* \"contracts/ERC1155.sol\":8659:8675  address operator */\n      0x00\n        /* \"contracts/ERC1155.sol\":8678:8690  _msgSender() */\n      tag_215\n        /* \"contracts/ERC1155.sol\":8678:8688  _msgSender */\n      tag_110\n        /* \"contracts/ERC1155.sol\":8678:8690  _msgSender() */\n      jump\t// in\n    tag_215:\n        /* \"contracts/ERC1155.sol\":8659:8690  address operator = _msgSender() */\n      swap1\n      pop\n        /* \"contracts/ERC1155.sol\":8703:8804  _beforeTokenTransfer(operator, from, to, _asSingletonArray(tokenId), _asSingletonArray(amount), data) */\n      tag_216\n        /* \"contracts/ERC1155.sol\":8724:8732  operator */\n      dup2\n        /* \"contracts/ERC1155.sol\":8734:8738  from */\n      dup8\n        /* \"contracts/ERC1155.sol\":8740:8742  to */\n      dup8\n        /* \"contracts/ERC1155.sol\":8744:8770  _asSingletonArray(tokenId) */\n      tag_217\n        /* \"contracts/ERC1155.sol\":8762:8769  tokenId */\n      dup9\n        /* \"contracts/ERC1155.sol\":8744:8761  _asSingletonArray */\n      tag_218\n        /* \"contracts/ERC1155.sol\":8744:8770  _asSingletonArray(tokenId) */\n      jump\t// in\n    tag_217:\n        /* \"contracts/ERC1155.sol\":8772:8797  _asSingletonArray(amount) */\n      tag_219\n        /* \"contracts/ERC1155.sol\":8790:8796  amount */\n      dup9\n        /* \"contracts/ERC1155.sol\":8772:8789  _asSingletonArray */\n      tag_218\n        /* \"contracts/ERC1155.sol\":8772:8797  _asSingletonArray(amount) */\n      jump\t// in\n    tag_219:\n        /* \"contracts/ERC1155.sol\":8799:8803  data */\n      dup8\n        /* \"contracts/ERC1155.sol\":8703:8723  _beforeTokenTransfer */\n      tag_119\n        /* \"contracts/ERC1155.sol\":8703:8804  _beforeTokenTransfer(operator, from, to, _asSingletonArray(tokenId), _asSingletonArray(amount), data) */\n      jump\t// in\n    tag_216:\n        /* \"contracts/ERC1155.sol\":8844:8926  _balances[tokenId][from].sub(amount, \"ERC1155: insufficient balance for transfer\") */\n      tag_220\n        /* \"contracts/ERC1155.sol\":8873:8879  amount */\n      dup4\n        /* \"contracts/ERC1155.sol\":8844:8926  _balances[tokenId][from].sub(amount, \"ERC1155: insufficient balance for transfer\") */\n      mload(0x40)\n      dup1\n      0x60\n      add\n      0x40\n      mstore\n      dup1\n      0x2a\n      dup2\n      mstore\n      0x20\n      add\n      data_8ac7e9556b567c1c94bb4daaa3c3a65be5ac686579615210cb910fb8cb8d65bf\n      0x2a\n      swap2\n      codecopy\n        /* \"contracts/ERC1155.sol\":8844:8853  _balances */\n      0x03\n        /* \"contracts/ERC1155.sol\":8844:8862  _balances[tokenId] */\n      0x00\n        /* \"contracts/ERC1155.sol\":8854:8861  tokenId */\n      dup9\n        /* \"contracts/ERC1155.sol\":8844:8862  _balances[tokenId] */\n      dup2\n      mstore\n      0x20\n      add\n      swap1\n      dup2\n      mstore\n      0x20\n      add\n      0x00\n      keccak256\n        /* \"contracts/ERC1155.sol\":8844:8868  _balances[tokenId][from] */\n      0x00\n        /* \"contracts/ERC1155.sol\":8863:8867  from */\n      dup11\n        /* \"contracts/ERC1155.sol\":8844:8868  _balances[tokenId][from] */\n      0xffffffffffffffffffffffffffffffffffffffff\n      and\n      0xffffffffffffffffffffffffffffffffffffffff\n      and\n      dup2\n      mstore\n      0x20\n      add\n      swap1\n      dup2\n      mstore\n      0x20\n      add\n      0x00\n      keccak256\n      sload\n        /* \"contracts/ERC1155.sol\":8844:8872  _balances[tokenId][from].sub */\n      tag_129\n      swap1\n        /* \"contracts/ERC1155.sol\":8844:8926  _balances[tokenId][from].sub(amount, \"ERC1155: insufficient balance for transfer\") */\n      swap3\n      swap2\n      swap1\n      0xffffffff\n      and\n      jump\t// in\n    tag_220:\n        /* \"contracts/ERC1155.sol\":8817:8826  _balances */\n      0x03\n        /* \"contracts/ERC1155.sol\":8817:8835  _balances[tokenId] */\n      0x00\n        /* \"contracts/ERC1155.sol\":8827:8834  tokenId */\n      dup7\n        /* \"contracts/ERC1155.sol\":8817:8835  _balances[tokenId] */\n      dup2\n      mstore\n      0x20\n      add\n      swap1\n      dup2\n      mstore\n      0x20\n      add\n      0x00\n      keccak256\n        /* \"contracts/ERC1155.sol\":8817:8841  _balances[tokenId][from] */\n      0x00\n        /* \"contracts/ERC1155.sol\":8836:8840  from */\n      dup9\n        /* \"contracts/ERC1155.sol\":8817:8841  _balances[tokenId][from] */\n      0xffffffffffffffffffffffffffffffffffffffff\n      and\n      0xffffffffffffffffffffffffffffffffffffffff\n      and\n      dup2\n      mstore\n      0x20\n      add\n      swap1\n      dup2\n      mstore\n      0x20\n      add\n      0x00\n      keccak256\n        /* \"contracts/ERC1155.sol\":8817:8926  _balances[tokenId][from] = _balances[tokenId][from].sub(amount, \"ERC1155: insufficient balance for transfer\") */\n      dup2\n      swap1\n      sstore\n      pop\n        /* \"contracts/ERC1155.sol\":8962:8996  _balances[tokenId][to].add(amount) */\n      tag_221\n        /* \"contracts/ERC1155.sol\":8989:8995  amount */\n      dup4\n        /* \"contracts/ERC1155.sol\":8962:8971  _balances */\n      0x03\n        /* \"contracts/ERC1155.sol\":8962:8980  _balances[tokenId] */\n      0x00\n        /* \"contracts/ERC1155.sol\":8972:8979  tokenId */\n      dup8\n        /* \"contracts/ERC1155.sol\":8962:8980  _balances[tokenId] */\n      dup2\n      mstore\n      0x20\n      add\n      swap1\n      dup2\n      mstore\n      0x20\n      add\n      0x00\n      keccak256\n        /* \"contracts/ERC1155.sol\":8962:8984  _balances[tokenId][to] */\n      0x00\n        /* \"contracts/ERC1155.sol\":8981:8983  to */\n      dup9\n        /* \"contracts/ERC1155.sol\":8962:8984  _balances[tokenId][to] */\n      0xffffffffffffffffffffffffffffffffffffffff\n      and\n      0xffffffffffffffffffffffffffffffffffffffff\n      and\n      dup2\n      mstore\n      0x20\n      add\n      swap1\n      dup2\n      mstore\n      0x20\n      add\n      0x00\n      keccak256\n      sload\n        /* \"contracts/ERC1155.sol\":8962:8988  _balances[tokenId][to].add */\n      tag_131\n      swap1\n        /* \"contracts/ERC1155.sol\":8962:8996  _balances[tokenId][to].add(amount) */\n      swap2\n      swap1\n      0xffffffff\n      and\n      jump\t// in\n    tag_221:\n        /* \"contracts/ERC1155.sol\":8937:8946  _balances */\n      0x03\n        /* \"contracts/ERC1155.sol\":8937:8955  _balances[tokenId] */\n      0x00\n        /* \"contracts/ERC1155.sol\":8947:8954  tokenId */\n      dup7\n        /* \"contracts/ERC1155.sol\":8937:8955  _balances[tokenId] */\n      dup2\n      mstore\n      0x20\n      add\n      swap1\n      dup2\n      mstore\n      0x20\n      add\n      0x00\n      keccak256\n        /* \"contracts/ERC1155.sol\":8937:8959  _balances[tokenId][to] */\n      0x00\n        /* \"contracts/ERC1155.sol\":8956:8958  to */\n      dup8\n        /* \"contracts/ERC1155.sol\":8937:8959  _balances[tokenId][to] */\n      0xffffffffffffffffffffffffffffffffffffffff\n      and\n      0xffffffffffffffffffffffffffffffffffffffff\n      and\n      dup2\n      mstore\n      0x20\n      add\n      swap1\n      dup2\n      mstore\n      0x20\n      add\n      0x00\n      keccak256\n        /* \"contracts/ERC1155.sol\":8937:8996  _balances[tokenId][to] = _balances[tokenId][to].add(amount) */\n      dup2\n      swap1\n      sstore\n      pop\n        /* \"contracts/ERC1155.sol\":9045:9047  to */\n      dup5\n        /* \"contracts/ERC1155.sol\":9014:9065  TransferSingle(operator, from, to, tokenId, amount) */\n      0xffffffffffffffffffffffffffffffffffffffff\n      and\n        /* \"contracts/ERC1155.sol\":9039:9043  from */\n      dup7\n        /* \"contracts/ERC1155.sol\":9014:9065  TransferSingle(operator, from, to, tokenId, amount) */\n      0xffffffffffffffffffffffffffffffffffffffff\n      and\n        /* \"contracts/ERC1155.sol\":9029:9037  operator */\n      dup3\n        /* \"contracts/ERC1155.sol\":9014:9065  TransferSingle(operator, from, to, tokenId, amount) */\n      0xffffffffffffffffffffffffffffffffffffffff\n      and\n      0xc3d58168c5ae7397731d063d5bbf3d657854427343f4c083240f7aacaa2d0f62\n        /* \"contracts/ERC1155.sol\":9049:9056  tokenId */\n      dup8\n        /* \"contracts/ERC1155.sol\":9058:9064  amount */\n      dup8\n        /* \"contracts/ERC1155.sol\":9014:9065  TransferSingle(operator, from, to, tokenId, amount) */\n      mload(0x40)\n      tag_222\n      swap3\n      swap2\n      swap1\n      tag_223\n      jump\t// in\n    tag_222:\n      mload(0x40)\n      dup1\n      swap2\n      sub\n      swap1\n      log4\n        /* \"contracts/ERC1155.sol\":9078:9151  _doSafeTransferAcceptanceCheck(operator, from, to, tokenId, amount, data) */\n      tag_224\n        /* \"contracts/ERC1155.sol\":9109:9117  operator */\n      dup2\n        /* \"contracts/ERC1155.sol\":9119:9123  from */\n      dup8\n        /* \"contracts/ERC1155.sol\":9125:9127  to */\n      dup8\n        /* \"contracts/ERC1155.sol\":9129:9136  tokenId */\n      dup8\n        /* \"contracts/ERC1155.sol\":9138:9144  amount */\n      dup8\n        /* \"contracts/ERC1155.sol\":9146:9150  data */\n      dup8\n        /* \"contracts/ERC1155.sol\":9078:9108  _doSafeTransferAcceptanceCheck */\n      tag_225\n        /* \"contracts/ERC1155.sol\":9078:9151  _doSafeTransferAcceptanceCheck(operator, from, to, tokenId, amount, data) */\n      jump\t// in\n    tag_224:\n        /* \"contracts/ERC1155.sol\":8407:9159  {... */\n      pop\n        /* \"contracts/ERC1155.sol\":8195:9159  function safeTransferFrom(... */\n      pop\n      pop\n      pop\n      pop\n      pop\n      jump\t// out\n        /* \"contracts/ERC1155.sol\":3989:4116  function _exists(uint256 tokenId) internal view virtual returns (bool) {... */\n    tag_84:\n        /* \"contracts/ERC1155.sol\":4054:4058  bool */\n      0x00\n        /* \"contracts/ERC1155.sol\":4078:4108  _tokenOwners.contains(tokenId) */\n      tag_227\n        /* \"contracts/ERC1155.sol\":4100:4107  tokenId */\n      dup3\n        /* \"contracts/ERC1155.sol\":4078:4090  _tokenOwners */\n      0x07\n        /* \"contracts/ERC1155.sol\":4078:4099  _tokenOwners.contains */\n      tag_228\n      swap1\n        /* \"contracts/ERC1155.sol\":4078:4108  _tokenOwners.contains(tokenId) */\n      swap2\n      swap1\n      0xffffffff\n      and\n      jump\t// in\n    tag_227:\n        /* \"contracts/ERC1155.sol\":4071:4108  return _tokenOwners.contains(tokenId) */\n      swap1\n      pop\n        /* \"contracts/ERC1155.sol\":3989:4116  function _exists(uint256 tokenId) internal view virtual returns (bool) {... */\n      swap2\n      swap1\n      pop\n      jump\t// out\n        /* \"contracts/External/EnumerableMap.sol\":2919:3042  function length(UintToAddressMap storage map) internal view returns (uint256) {... */\n    tag_101:\n        /* \"contracts/External/EnumerableMap.sol\":2988:2995  uint256 */\n      0x00\n        /* \"contracts/External/EnumerableMap.sol\":3015:3034  _length(map._inner) */\n      tag_230\n        /* \"contracts/External/EnumerableMap.sol\":3023:3026  map */\n      dup3\n        /* \"contracts/External/EnumerableMap.sol\":3023:3033  map._inner */\n      0x00\n      add\n        /* \"contracts/External/EnumerableMap.sol\":3015:3022  _length */\n      tag_231\n        /* \"contracts/External/EnumerableMap.sol\":3015:3034  _length(map._inner) */\n      jump\t// in\n    tag_230:\n        /* \"contracts/External/EnumerableMap.sol\":3008:3034  return _length(map._inner) */\n      swap1\n      pop\n        /* \"contracts/External/EnumerableMap.sol\":2919:3042  function length(UintToAddressMap storage map) internal view returns (uint256) {... */\n      swap2\n      swap1\n      pop\n      jump\t// out\n        /* \"contracts/External/Context.sol\":145:260  function _msgSender() internal view virtual returns (address payable) {... */\n    tag_110:\n        /* \"contracts/External/Context.sol\":198:213  address payable */\n      0x00\n        /* \"contracts/External/Context.sol\":241:251  msg.sender */\n      caller\n        /* \"contracts/External/Context.sol\":226:252  return payable(msg.sender) */\n      swap1\n      pop\n        /* \"contracts/External/Context.sol\":145:260  function _msgSender() internal view virtual returns (address payable) {... */\n      swap1\n      jump\t// out\n        /* \"contracts/ERC1155.sol\":16026:16267  function _beforeTokenTransfer(... */\n    tag_119:\n      pop\n      pop\n      pop\n      pop\n      pop\n      pop\n      jump\t// out\n        /* \"contracts/External/SafeMath.sol\":754:946  function sub(uint256 a, uint256 b, string memory errorMessage) internal pure returns (uint256) {... */\n    tag_129:\n        /* \"contracts/External/SafeMath.sol\":840:847  uint256 */\n      0x00\n        /* \"contracts/External/SafeMath.sol\":873:874  a */\n      dup4\n        /* \"contracts/External/SafeMath.sol\":868:869  b */\n      dup4\n        /* \"contracts/External/SafeMath.sol\":868:874  b <= a */\n      gt\n      iszero\n        /* \"contracts/External/SafeMath.sol\":876:888  errorMessage */\n      dup3\n        /* \"contracts/External/SafeMath.sol\":860:889  require(b <= a, errorMessage) */\n      swap1\n      tag_235\n      jumpi\n      mload(0x40)\n      0x08c379a000000000000000000000000000000000000000000000000000000000\n      dup2\n      mstore\n      0x04\n      add\n      tag_236\n      swap2\n      swap1\n      tag_35\n      jump\t// in\n    tag_236:\n      mload(0x40)\n      dup1\n      swap2\n      sub\n      swap1\n      revert\n    tag_235:\n      pop\n        /* \"contracts/External/SafeMath.sol\":900:909  uint256 c */\n      0x00\n        /* \"contracts/External/SafeMath.sol\":916:917  b */\n      dup4\n        /* \"contracts/External/SafeMath.sol\":912:913  a */\n      dup6\n        /* \"contracts/External/SafeMath.sol\":912:917  a - b */\n      tag_237\n      swap2\n      swap1\n      tag_238\n      jump\t// in\n    tag_237:\n        /* \"contracts/External/SafeMath.sol\":900:917  uint256 c = a - b */\n      swap1\n      pop\n        /* \"contracts/External/SafeMath.sol\":937:938  c */\n      dup1\n        /* \"contracts/External/SafeMath.sol\":930:938  return c */\n      swap2\n      pop\n      pop\n        /* \"contracts/External/SafeMath.sol\":754:946  function sub(uint256 a, uint256 b, string memory errorMessage) internal pure returns (uint256) {... */\n      swap4\n      swap3\n      pop\n      pop\n      pop\n      jump\t// out\n        /* \"contracts/External/SafeMath.sol\":302:483  function add(uint256 a, uint256 b) internal pure returns (uint256) {... */\n    tag_131:\n        /* \"contracts/External/SafeMath.sol\":360:367  uint256 */\n      0x00\n        /* \"contracts/External/SafeMath.sol\":380:389  uint256 c */\n      dup1\n        /* \"contracts/External/SafeMath.sol\":396:397  b */\n      dup3\n        /* \"contracts/External/SafeMath.sol\":392:393  a */\n      dup5\n        /* \"contracts/External/SafeMath.sol\":392:397  a + b */\n      tag_240\n      swap2\n      swap1\n      tag_241\n      jump\t// in\n    tag_240:\n        /* \"contracts/External/SafeMath.sol\":380:397  uint256 c = a + b */\n      swap1\n      pop\n        /* \"contracts/External/SafeMath.sol\":421:422  a */\n      dup4\n        /* \"contracts/External/SafeMath.sol\":416:417  c */\n      dup2\n        /* \"contracts/External/SafeMath.sol\":416:422  c >= a */\n      lt\n      iszero\n        /* \"contracts/External/SafeMath.sol\":408:454  require(c >= a, \"SafeMath: addition overflow\") */\n      tag_242\n      jumpi\n      mload(0x40)\n      0x08c379a000000000000000000000000000000000000000000000000000000000\n      dup2\n      mstore\n      0x04\n      add\n      tag_243\n      swap1\n      tag_244\n      jump\t// in\n    tag_243:\n      mload(0x40)\n      dup1\n      swap2\n      sub\n      swap1\n      revert\n    tag_242:\n        /* \"contracts/External/SafeMath.sol\":474:475  c */\n      dup1\n        /* \"contracts/External/SafeMath.sol\":467:475  return c */\n      swap2\n      pop\n      pop\n        /* \"contracts/External/SafeMath.sol\":302:483  function add(uint256 a, uint256 b) internal pure returns (uint256) {... */\n      swap3\n      swap2\n      pop\n      pop\n      jump\t// out\n        /* \"contracts/ERC1155.sol\":17055:17864  function _doSafeBatchTransferAcceptanceCheck(... */\n    tag_137:\n        /* \"contracts/ERC1155.sol\":17314:17329  to.isContract() */\n      tag_246\n        /* \"contracts/ERC1155.sol\":17314:17316  to */\n      dup5\n        /* \"contracts/ERC1155.sol\":17314:17327  to.isContract */\n      0xffffffffffffffffffffffffffffffffffffffff\n      and\n      tag_247\n        /* \"contracts/ERC1155.sol\":17314:17329  to.isContract() */\n      jump\t// in\n    tag_246:\n        /* \"contracts/ERC1155.sol\":17310:17857  if (to.isContract()) {... */\n      iszero\n      tag_248\n      jumpi\n        /* \"contracts/ERC1155.sol\":17367:17369  to */\n      dup4\n        /* \"contracts/ERC1155.sol\":17350:17393  IERC1155Receiver(to).onERC1155BatchReceived */\n      0xffffffffffffffffffffffffffffffffffffffff\n      and\n      0xbc197c81\n        /* \"contracts/ERC1155.sol\":17394:17402  operator */\n      dup8\n        /* \"contracts/ERC1155.sol\":17404:17408  from */\n      dup8\n        /* \"contracts/ERC1155.sol\":17410:17418  tokenIds */\n      dup7\n        /* \"contracts/ERC1155.sol\":17420:17427  amounts */\n      dup7\n        /* \"contracts/ERC1155.sol\":17429:17433  data */\n      dup7\n        /* \"contracts/ERC1155.sol\":17350:17434  IERC1155Receiver(to).onERC1155BatchReceived(operator, from, tokenIds, amounts, data) */\n      mload(0x40)\n      dup7\n      0xffffffff\n      and\n      0xe0\n      shl\n      dup2\n      mstore\n      0x04\n      add\n      tag_249\n      swap6\n      swap5\n      swap4\n      swap3\n      swap2\n      swap1\n      tag_250\n      jump\t// in\n    tag_249:\n      0x20\n      mload(0x40)\n      dup1\n      dup4\n      sub\n      dup2\n      0x00\n      dup8\n      gas\n      call\n      swap3\n      pop\n      pop\n      pop\n      dup1\n      iszero\n      tag_251\n      jumpi\n      pop\n      mload(0x40)\n      returndatasize\n      not(0x1f)\n      0x1f\n      dup3\n      add\n      and\n      dup3\n      add\n      dup1\n      0x40\n      mstore\n      pop\n      dup2\n      add\n      swap1\n      tag_252\n      swap2\n      swap1\n      tag_253\n      jump\t// in\n    tag_252:\n      0x01\n    tag_251:\n        /* \"contracts/ERC1155.sol\":17346:17846  try IERC1155Receiver(to).onERC1155BatchReceived(operator, from, tokenIds, amounts, data) returns (bytes4 response) {... */\n      tag_254\n      jumpi\n      tag_258\n      tag_259\n      jump\t// in\n    tag_258:\n      dup1\n      0x08c379a0\n      sub\n      tag_257\n      jumpi\n      pop\n      tag_260\n      tag_261\n      jump\t// in\n    tag_260:\n      dup1\n      tag_262\n      jumpi\n      pop\n      jump(tag_256)\n    tag_262:\n        /* \"contracts/ERC1155.sol\":17719:17725  reason */\n      dup1\n        /* \"contracts/ERC1155.sol\":17712:17726  revert(reason) */\n      mload(0x40)\n      0x08c379a000000000000000000000000000000000000000000000000000000000\n      dup2\n      mstore\n      0x04\n      add\n      tag_263\n      swap2\n      swap1\n      tag_35\n      jump\t// in\n    tag_263:\n      mload(0x40)\n      dup1\n      swap2\n      sub\n      swap1\n      revert\n        /* \"contracts/ERC1155.sol\":17346:17846  try IERC1155Receiver(to).onERC1155BatchReceived(operator, from, tokenIds, amounts, data) returns (bytes4 response) {... */\n    tag_257:\n      pop\n    tag_256:\n        /* \"contracts/ERC1155.sol\":17768:17830  revert(\"ERC1155: transfer to non ERC1155Receiver implementer\") */\n      mload(0x40)\n      0x08c379a000000000000000000000000000000000000000000000000000000000\n      dup2\n      mstore\n      0x04\n      add\n      tag_264\n      swap1\n      tag_265\n      jump\t// in\n    tag_264:\n      mload(0x40)\n      dup1\n      swap2\n      sub\n      swap1\n      revert\n        /* \"contracts/ERC1155.sol\":17346:17846  try IERC1155Receiver(to).onERC1155BatchReceived(operator, from, tokenIds, amounts, data) returns (bytes4 response) {... */\n    tag_254:\n        /* \"contracts/ERC1155.sol\":17496:17548  IERC1155Receiver(to).onERC1155BatchReceived.selector */\n      shl(0xe0, 0xbc197c81)\n        /* \"contracts/ERC1155.sol\":17484:17548  response != IERC1155Receiver(to).onERC1155BatchReceived.selector */\n      not(0xffffffffffffffffffffffffffffffffffffffffffffffffffffffff)\n      and\n        /* \"contracts/ERC1155.sol\":17484:17492  response */\n      dup2\n        /* \"contracts/ERC1155.sol\":17484:17548  response != IERC1155Receiver(to).onERC1155BatchReceived.selector */\n      not(0xffffffffffffffffffffffffffffffffffffffffffffffffffffffff)\n      and\n      eq\n        /* \"contracts/ERC1155.sol\":17480:17643  if (response != IERC1155Receiver(to).onERC1155BatchReceived.selector) {... */\n      tag_267\n      jumpi\n        /* \"contracts/ERC1155.sol\":17573:17623  revert(\"ERC1155: ERC1155Receiver rejected tokens\") */\n      mload(0x40)\n      0x08c379a000000000000000000000000000000000000000000000000000000000\n      dup2\n      mstore\n      0x04\n      add\n      tag_268\n      swap1\n      tag_269\n      jump\t// in\n    tag_268:\n      mload(0x40)\n      dup1\n      swap2\n      sub\n      swap1\n      revert\n        /* \"contracts/ERC1155.sol\":17480:17643  if (response != IERC1155Receiver(to).onERC1155BatchReceived.selector) {... */\n    tag_267:\n        /* \"contracts/ERC1155.sol\":17435:17658  returns (bytes4 response) {... */\n      pop\n        /* \"contracts/ERC1155.sol\":17310:17857  if (to.isContract()) {... */\n    tag_248:\n        /* \"contracts/ERC1155.sol\":17055:17864  function _doSafeBatchTransferAcceptanceCheck(... */\n      pop\n      pop\n      pop\n      pop\n      pop\n      pop\n      jump\t// out\n        /* \"contracts/External/Strings.sol\":388:1111  function toString(uint256 value) internal pure returns (string memory) {... */\n    tag_201:\n        /* \"contracts/External/Strings.sol\":444:457  string memory */\n      0x60\n        /* \"contracts/External/Strings.sol\":674:675  0 */\n      0x00\n        /* \"contracts/External/Strings.sol\":665:670  value */\n      dup3\n        /* \"contracts/External/Strings.sol\":665:675  value == 0 */\n      sub\n        /* \"contracts/External/Strings.sol\":661:714  if (value == 0) {... */\n      tag_271\n      jumpi\n        /* \"contracts/External/Strings.sol\":692:702  return \"0\" */\n      mload(0x40)\n      dup1\n      0x40\n      add\n      0x40\n      mstore\n      dup1\n      0x01\n      dup2\n      mstore\n      0x20\n      add\n      0x3000000000000000000000000000000000000000000000000000000000000000\n      dup2\n      mstore\n      pop\n      swap1\n      pop\n      jump(tag_270)\n        /* \"contracts/External/Strings.sol\":661:714  if (value == 0) {... */\n    tag_271:\n        /* \"contracts/External/Strings.sol\":724:736  uint256 temp */\n      0x00\n        /* \"contracts/External/Strings.sol\":739:744  value */\n      dup3\n        /* \"contracts/External/Strings.sol\":724:744  uint256 temp = value */\n      swap1\n      pop\n        /* \"contracts/External/Strings.sol\":755:769  uint256 digits */\n      0x00\n        /* \"contracts/External/Strings.sol\":780:858  while (temp != 0) {... */\n    tag_272:\n        /* \"contracts/External/Strings.sol\":795:796  0 */\n      0x00\n        /* \"contracts/External/Strings.sol\":787:791  temp */\n      dup3\n        /* \"contracts/External/Strings.sol\":787:796  temp != 0 */\n      eq\n        /* \"contracts/External/Strings.sol\":780:858  while (temp != 0) {... */\n      tag_273\n      jumpi\n        /* \"contracts/External/Strings.sol\":813:821  digits++ */\n      dup1\n      dup1\n      tag_274\n      swap1\n      tag_133\n      jump\t// in\n    tag_274:\n      swap2\n      pop\n      pop\n        /* \"contracts/External/Strings.sol\":844:846  10 */\n      0x0a\n        /* \"contracts/External/Strings.sol\":836:846  temp /= 10 */\n      dup3\n      tag_275\n      swap2\n      swap1\n      tag_276\n      jump\t// in\n    tag_275:\n      swap2\n      pop\n        /* \"contracts/External/Strings.sol\":780:858  while (temp != 0) {... */\n      jump(tag_272)\n    tag_273:\n        /* \"contracts/External/Strings.sol\":868:887  bytes memory buffer */\n      0x00\n        /* \"contracts/External/Strings.sol\":900:906  digits */\n      dup2\n        /* \"contracts/External/Strings.sol\":890:907  new bytes(digits) */\n      0xffffffffffffffff\n      dup2\n      gt\n      iszero\n      tag_277\n      jumpi\n      tag_278\n      tag_144\n      jump\t// in\n    tag_278:\n    tag_277:\n      mload(0x40)\n      swap1\n      dup1\n      dup3\n      mstore\n      dup1\n      0x1f\n      add\n      not(0x1f)\n      and\n      0x20\n      add\n      dup3\n      add\n      0x40\n      mstore\n      dup1\n      iszero\n      tag_279\n      jumpi\n      dup2\n      0x20\n      add\n      0x01\n      dup3\n      mul\n      dup1\n      calldatasize\n      dup4\n      calldatacopy\n      dup1\n      dup3\n      add\n      swap2\n      pop\n      pop\n      swap1\n      pop\n    tag_279:\n      pop\n        /* \"contracts/External/Strings.sol\":868:907  bytes memory buffer = new bytes(digits) */\n      swap1\n      pop\n        /* \"contracts/External/Strings.sol\":918:1072  while (value != 0) {... */\n    tag_280:\n        /* \"contracts/External/Strings.sol\":934:935  0 */\n      0x00\n        /* \"contracts/External/Strings.sol\":925:930  value */\n      dup6\n        /* \"contracts/External/Strings.sol\":925:935  value != 0 */\n      eq\n        /* \"contracts/External/Strings.sol\":918:1072  while (value != 0) {... */\n      tag_281\n      jumpi\n        /* \"contracts/External/Strings.sol\":962:963  1 */\n      0x01\n        /* \"contracts/External/Strings.sol\":952:963  digits -= 1 */\n      dup3\n      tag_282\n      swap2\n      swap1\n      tag_238\n      jump\t// in\n    tag_282:\n      swap2\n      pop\n        /* \"contracts/External/Strings.sol\":1029:1031  10 */\n      0x0a\n        /* \"contracts/External/Strings.sol\":1021:1026  value */\n      dup6\n        /* \"contracts/External/Strings.sol\":1021:1031  value % 10 */\n      tag_283\n      swap2\n      swap1\n      tag_284\n      jump\t// in\n    tag_283:\n        /* \"contracts/External/Strings.sol\":1008:1010  48 */\n      0x30\n        /* \"contracts/External/Strings.sol\":1008:1032  48 + uint256(value % 10) */\n      tag_285\n      swap2\n      swap1\n      tag_241\n      jump\t// in\n    tag_285:\n        /* \"contracts/External/Strings.sol\":995:1034  bytes1(uint8(48 + uint256(value % 10))) */\n      0xf8\n      shl\n        /* \"contracts/External/Strings.sol\":978:984  buffer */\n      dup2\n        /* \"contracts/External/Strings.sol\":985:991  digits */\n      dup4\n        /* \"contracts/External/Strings.sol\":978:992  buffer[digits] */\n      dup2\n      mload\n      dup2\n      lt\n      tag_286\n      jumpi\n      tag_287\n      tag_125\n      jump\t// in\n    tag_287:\n    tag_286:\n      0x20\n      add\n      add\n        /* \"contracts/External/Strings.sol\":978:1034  buffer[digits] = bytes1(uint8(48 + uint256(value % 10))) */\n      swap1\n      not(0xffffffffffffffffffffffffffffffffffffffffffffffffffffffffffffff)\n      and\n      swap1\n      dup2\n      0x00\n      byte\n      swap1\n      mstore8\n      pop\n        /* \"contracts/External/Strings.sol\":1058:1060  10 */\n      0x0a\n        /* \"contracts/External/Strings.sol\":1049:1060  value /= 10 */\n      dup6\n      tag_288\n      swap2\n      swap1\n      tag_276\n      jump\t// in\n    tag_288:\n      swap5\n      pop\n        /* \"contracts/External/Strings.sol\":918:1072  while (value != 0) {... */\n      jump(tag_280)\n    tag_281:\n        /* \"contracts/External/Strings.sol\":1096:1102  buffer */\n      dup1\n        /* \"contracts/External/Strings.sol\":1082:1103  return string(buffer) */\n      swap4\n      pop\n      pop\n      pop\n      pop\n        /* \"contracts/External/Strings.sol\":388:1111  function toString(uint256 value) internal pure returns (string memory) {... */\n    tag_270:\n      swap2\n      swap1\n      pop\n      jump\t// out\n        /* \"contracts/ERC1155.sol\":17872:18070  function _asSingletonArray(uint256 element) private pure returns (uint256[] memory) {... */\n    tag_218:\n        /* \"contracts/ERC1155.sol\":17938:17954  uint256[] memory */\n      0x60\n        /* \"contracts/ERC1155.sol\":17967:17989  uint256[] memory array */\n      0x00\n        /* \"contracts/ERC1155.sol\":18006:18007  1 */\n      0x01\n        /* \"contracts/ERC1155.sol\":17992:18008  new uint256[](1) */\n      0xffffffffffffffff\n      dup2\n      gt\n      iszero\n      tag_290\n      jumpi\n      tag_291\n      tag_144\n      jump\t// in\n    tag_291:\n    tag_290:\n      mload(0x40)\n      swap1\n      dup1\n      dup3\n      mstore\n      dup1\n      0x20\n      mul\n      0x20\n      add\n      dup3\n      add\n      0x40\n      mstore\n      dup1\n      iszero\n      tag_292\n      jumpi\n      dup2\n      0x20\n      add\n      0x20\n      dup3\n      mul\n      dup1\n      calldatasize\n      dup4\n      calldatacopy\n      dup1\n      dup3\n      add\n      swap2\n      pop\n      pop\n      swap1\n      pop\n    tag_292:\n      pop\n        /* \"contracts/ERC1155.sol\":17967:18008  uint256[] memory array = new uint256[](1) */\n      swap1\n      pop\n        /* \"contracts/ERC1155.sol\":18030:18037  element */\n      dup3\n        /* \"contracts/ERC1155.sol\":18019:18024  array */\n      dup2\n        /* \"contracts/ERC1155.sol\":18025:18026  0 */\n      0x00\n        /* \"contracts/ERC1155.sol\":18019:18027  array[0] */\n      dup2\n      mload\n      dup2\n      lt\n      tag_293\n      jumpi\n      tag_294\n      tag_125\n      jump\t// in\n    tag_294:\n    tag_293:\n      0x20\n      mul\n      0x20\n      add\n      add\n        /* \"contracts/ERC1155.sol\":18019:18037  array[0] = element */\n      dup2\n      dup2\n      mstore\n      pop\n      pop\n        /* \"contracts/ERC1155.sol\":18057:18062  array */\n      dup1\n        /* \"contracts/ERC1155.sol\":18050:18062  return array */\n      swap2\n      pop\n      pop\n        /* \"contracts/ERC1155.sol\":17872:18070  function _asSingletonArray(uint256 element) private pure returns (uint256[] memory) {... */\n      swap2\n      swap1\n      pop\n      jump\t// out\n        /* \"contracts/ERC1155.sol\":16275:17047  function _doSafeTransferAcceptanceCheck(... */\n    tag_225:\n        /* \"contracts/ERC1155.sol\":16509:16524  to.isContract() */\n      tag_296\n        /* \"contracts/ERC1155.sol\":16509:16511  to */\n      dup5\n        /* \"contracts/ERC1155.sol\":16509:16522  to.isContract */\n      0xffffffffffffffffffffffffffffffffffffffff\n      and\n      tag_247\n        /* \"contracts/ERC1155.sol\":16509:16524  to.isContract() */\n      jump\t// in\n    tag_296:\n        /* \"contracts/ERC1155.sol\":16505:17040  if (to.isContract()) {... */\n      iszero\n      tag_297\n      jumpi\n        /* \"contracts/ERC1155.sol\":16562:16564  to */\n      dup4\n        /* \"contracts/ERC1155.sol\":16545:16583  IERC1155Receiver(to).onERC1155Received */\n      0xffffffffffffffffffffffffffffffffffffffff\n      and\n      0xf23a6e61\n        /* \"contracts/ERC1155.sol\":16584:16592  operator */\n      dup8\n        /* \"contracts/ERC1155.sol\":16594:16598  from */\n      dup8\n        /* \"contracts/ERC1155.sol\":16600:16607  tokenId */\n      dup7\n        /* \"contracts/ERC1155.sol\":16609:16615  amount */\n      dup7\n        /* \"contracts/ERC1155.sol\":16617:16621  data */\n      dup7\n        /* \"contracts/ERC1155.sol\":16545:16622  IERC1155Receiver(to).onERC1155Received(operator, from, tokenId, amount, data) */\n      mload(0x40)\n      dup7\n      0xffffffff\n      and\n      0xe0\n      shl\n      dup2\n      mstore\n      0x04\n      add\n      tag_298\n      swap6\n      swap5\n      swap4\n      swap3\n      swap2\n      swap1\n      tag_299\n      jump\t// in\n    tag_298:\n      0x20\n      mload(0x40)\n      dup1\n      dup4\n      sub\n      dup2\n      0x00\n      dup8\n      gas\n      call\n      swap3\n      pop\n      pop\n      pop\n      dup1\n      iszero\n      tag_300\n      jumpi\n      pop\n      mload(0x40)\n      returndatasize\n      not(0x1f)\n      0x1f\n      dup3\n      add\n      and\n      dup3\n      add\n      dup1\n      0x40\n      mstore\n      pop\n      dup2\n      add\n      swap1\n      tag_301\n      swap2\n      swap1\n      tag_253\n      jump\t// in\n    tag_301:\n      0x01\n    tag_300:\n        /* \"contracts/ERC1155.sol\":16541:17029  try IERC1155Receiver(to).onERC1155Received(operator, from, tokenId, amount, data) returns (bytes4 response) {... */\n      tag_302\n      jumpi\n      tag_306\n      tag_259\n      jump\t// in\n    tag_306:\n      dup1\n      0x08c379a0\n      sub\n      tag_305\n      jumpi\n      pop\n      tag_307\n      tag_261\n      jump\t// in\n    tag_307:\n      dup1\n      tag_308\n      jumpi\n      pop\n      jump(tag_304)\n    tag_308:\n        /* \"contracts/ERC1155.sol\":16902:16908  reason */\n      dup1\n        /* \"contracts/ERC1155.sol\":16895:16909  revert(reason) */\n      mload(0x40)\n      0x08c379a000000000000000000000000000000000000000000000000000000000\n      dup2\n      mstore\n      0x04\n      add\n      tag_309\n      swap2\n      swap1\n      tag_35\n      jump\t// in\n    tag_309:\n      mload(0x40)\n      dup1\n      swap2\n      sub\n      swap1\n      revert\n        /* \"contracts/ERC1155.sol\":16541:17029  try IERC1155Receiver(to).onERC1155Received(operator, from, tokenId, amount, data) returns (bytes4 response) {... */\n    tag_305:\n      pop\n    tag_304:\n        /* \"contracts/ERC1155.sol\":16951:17013  revert(\"ERC1155: transfer to non ERC1155Receiver implementer\") */\n      mload(0x40)\n      0x08c379a000000000000000000000000000000000000000000000000000000000\n      dup2\n      mstore\n      0x04\n      add\n      tag_310\n      swap1\n      tag_265\n      jump\t// in\n    tag_310:\n      mload(0x40)\n      dup1\n      swap2\n      sub\n      swap1\n      revert\n        /* \"contracts/ERC1155.sol\":16541:17029  try IERC1155Receiver(to).onERC1155Received(operator, from, tokenId, amount, data) returns (bytes4 response) {... */\n    tag_302:\n        /* \"contracts/ERC1155.sol\":16684:16731  IERC1155Receiver(to).onERC1155Received.selector */\n      shl(0xe0, 0xf23a6e61)\n        /* \"contracts/ERC1155.sol\":16672:16731  response != IERC1155Receiver(to).onERC1155Received.selector */\n      not(0xffffffffffffffffffffffffffffffffffffffffffffffffffffffff)\n      and\n        /* \"contracts/ERC1155.sol\":16672:16680  response */\n      dup2\n        /* \"contracts/ERC1155.sol\":16672:16731  response != IERC1155Receiver(to).onERC1155Received.selector */\n      not(0xffffffffffffffffffffffffffffffffffffffffffffffffffffffff)\n      and\n      eq\n        /* \"contracts/ERC1155.sol\":16668:16826  if (response != IERC1155Receiver(to).onERC1155Received.selector) {... */\n      tag_312\n      jumpi\n        /* \"contracts/ERC1155.sol\":16756:16806  revert(\"ERC1155: ERC1155Receiver rejected tokens\") */\n      mload(0x40)\n      0x08c379a000000000000000000000000000000000000000000000000000000000\n      dup2\n      mstore\n      0x04\n      add\n      tag_313\n      swap1\n      tag_269\n      jump\t// in\n    tag_313:\n      mload(0x40)\n      dup1\n      swap2\n      sub\n      swap1\n      revert\n        /* \"contracts/ERC1155.sol\":16668:16826  if (response != IERC1155Receiver(to).onERC1155Received.selector) {... */\n    tag_312:\n        /* \"contracts/ERC1155.sol\":16623:16841  returns (bytes4 response) {... */\n      pop\n        /* \"contracts/ERC1155.sol\":16505:17040  if (to.isContract()) {... */\n    tag_297:\n        /* \"contracts/ERC1155.sol\":16275:17047  function _doSafeTransferAcceptanceCheck(... */\n      pop\n      pop\n      pop\n      pop\n      pop\n      pop\n      jump\t// out\n        /* \"contracts/External/EnumerableMap.sol\":2760:2911  function contains(UintToAddressMap storage map, uint256 key) internal view returns (bool) {... */\n    tag_228:\n        /* \"contracts/External/EnumerableMap.sol\":2844:2848  bool */\n      0x00\n        /* \"contracts/External/EnumerableMap.sol\":2868:2903  _contains(map._inner, bytes32(key)) */\n      tag_315\n        /* \"contracts/External/EnumerableMap.sol\":2878:2881  map */\n      dup4\n        /* \"contracts/External/EnumerableMap.sol\":2878:2888  map._inner */\n      0x00\n      add\n        /* \"contracts/External/EnumerableMap.sol\":2898:2901  key */\n      dup4\n        /* \"contracts/External/EnumerableMap.sol\":2890:2902  bytes32(key) */\n      0x00\n      shl\n        /* \"contracts/External/EnumerableMap.sol\":2868:2877  _contains */\n      tag_316\n        /* \"contracts/External/EnumerableMap.sol\":2868:2903  _contains(map._inner, bytes32(key)) */\n      jump\t// in\n    tag_315:\n        /* \"contracts/External/EnumerableMap.sol\":2861:2903  return _contains(map._inner, bytes32(key)) */\n      swap1\n      pop\n        /* \"contracts/External/EnumerableMap.sol\":2760:2911  function contains(UintToAddressMap storage map, uint256 key) internal view returns (bool) {... */\n      swap3\n      swap2\n      pop\n      pop\n      jump\t// out\n        /* \"contracts/External/EnumerableMap.sol\":1624:1734  function _length(Map storage map) private view returns (uint256) {... */\n    tag_231:\n        /* \"contracts/External/EnumerableMap.sol\":1680:1687  uint256 */\n      0x00\n        /* \"contracts/External/EnumerableMap.sol\":1707:1710  map */\n      dup2\n        /* \"contracts/External/EnumerableMap.sol\":1707:1719  map._entries */\n      0x00\n      add\n        /* \"contracts/External/EnumerableMap.sol\":1707:1726  map._entries.length */\n      dup1\n      sload\n      swap1\n      pop\n        /* \"contracts/External/EnumerableMap.sol\":1700:1726  return map._entries.length */\n      swap1\n      pop\n        /* \"contracts/External/EnumerableMap.sol\":1624:1734  function _length(Map storage map) private view returns (uint256) {... */\n      swap2\n      swap1\n      pop\n      jump\t// out\n        /* \"contracts/External/Address.sol\":1191:1517  function isContract(address account) internal view returns (bool) {... */\n    tag_247:\n        /* \"contracts/External/Address.sol\":1251:1255  bool */\n      0x00\n        /* \"contracts/External/Address.sol\":1508:1509  0 */\n      dup1\n        /* \"contracts/External/Address.sol\":1486:1493  account */\n      dup3\n        /* \"contracts/External/Address.sol\":1486:1505  account.code.length */\n      0xffffffffffffffffffffffffffffffffffffffff\n      and\n      extcodesize\n        /* \"contracts/External/Address.sol\":1486:1509  account.code.length > 0 */\n      gt\n        /* \"contracts/External/Address.sol\":1479:1509  return account.code.length > 0 */\n      swap1\n      pop\n        /* \"contracts/External/Address.sol\":1191:1517  function isContract(address account) internal view returns (bool) {... */\n      swap2\n      swap1\n      pop\n      jump\t// out\n        /* \"contracts/External/EnumerableMap.sol\":1491:1616  function _contains(Map storage map, bytes32 key) private view returns (bool) {... */\n    tag_316:\n        /* \"contracts/External/EnumerableMap.sol\":1562:1566  bool */\n      0x00\n        /* \"contracts/External/EnumerableMap.sol\":1607:1608  0 */\n      dup1\n        /* \"contracts/External/EnumerableMap.sol\":1586:1589  map */\n      dup4\n        /* \"contracts/External/EnumerableMap.sol\":1586:1598  map._indexes */\n      0x01\n      add\n        /* \"contracts/External/EnumerableMap.sol\":1586:1603  map._indexes[key] */\n      0x00\n        /* \"contracts/External/EnumerableMap.sol\":1599:1602  key */\n      dup5\n        /* \"contracts/External/EnumerableMap.sol\":1586:1603  map._indexes[key] */\n      dup2\n      mstore\n      0x20\n      add\n      swap1\n      dup2\n      mstore\n      0x20\n      add\n      0x00\n      keccak256\n      sload\n        /* \"contracts/External/EnumerableMap.sol\":1586:1608  map._indexes[key] != 0 */\n      eq\n      iszero\n        /* \"contracts/External/EnumerableMap.sol\":1579:1608  return map._indexes[key] != 0 */\n      swap1\n      pop\n        /* \"contracts/External/EnumerableMap.sol\":1491:1616  function _contains(Map storage map, bytes32 key) private view returns (bool) {... */\n      swap3\n      swap2\n      pop\n      pop\n      jump\t// out\n        /* \"#utility.yul\":7:82   */\n    tag_320:\n        /* \"#utility.yul\":40:46   */\n      0x00\n        /* \"#utility.yul\":73:75   */\n      0x40\n        /* \"#utility.yul\":67:76   */\n      mload\n        /* \"#utility.yul\":57:76   */\n      swap1\n      pop\n        /* \"#utility.yul\":7:82   */\n      swap1\n      jump\t// out\n        /* \"#utility.yul\":88:205   */\n    tag_321:\n        /* \"#utility.yul\":197:198   */\n      0x00\n        /* \"#utility.yul\":194:195   */\n      dup1\n        /* \"#utility.yul\":187:199   */\n      revert\n        /* \"#utility.yul\":211:328   */\n    tag_322:\n        /* \"#utility.yul\":320:321   */\n      0x00\n        /* \"#utility.yul\":317:318   */\n      dup1\n        /* \"#utility.yul\":310:322   */\n      revert\n        /* \"#utility.yul\":334:460   */\n    tag_323:\n        /* \"#utility.yul\":371:378   */\n      0x00\n        /* \"#utility.yul\":411:453   */\n      0xffffffffffffffffffffffffffffffffffffffff\n        /* \"#utility.yul\":404:409   */\n      dup3\n        /* \"#utility.yul\":400:454   */\n      and\n        /* \"#utility.yul\":389:454   */\n      swap1\n      pop\n        /* \"#utility.yul\":334:460   */\n      swap2\n      swap1\n      pop\n      jump\t// out\n        /* \"#utility.yul\":466:562   */\n    tag_324:\n        /* \"#utility.yul\":503:510   */\n      0x00\n        /* \"#utility.yul\":532:556   */\n      tag_408\n        /* \"#utility.yul\":550:555   */\n      dup3\n        /* \"#utility.yul\":532:556   */\n      tag_323\n      jump\t// in\n    tag_408:\n        /* \"#utility.yul\":521:556   */\n      swap1\n      pop\n        /* \"#utility.yul\":466:562   */\n      swap2\n      swap1\n      pop\n      jump\t// out\n        /* \"#utility.yul\":568:690   */\n    tag_325:\n        /* \"#utility.yul\":641:665   */\n      tag_410\n        /* \"#utility.yul\":659:664   */\n      dup2\n        /* \"#utility.yul\":641:665   */\n      tag_324\n      jump\t// in\n    tag_410:\n        /* \"#utility.yul\":634:639   */\n      dup2\n        /* \"#utility.yul\":631:666   */\n      eq\n        /* \"#utility.yul\":621:684   */\n      tag_411\n      jumpi\n        /* \"#utility.yul\":680:681   */\n      0x00\n        /* \"#utility.yul\":677:678   */\n      dup1\n        /* \"#utility.yul\":670:682   */\n      revert\n        /* \"#utility.yul\":621:684   */\n    tag_411:\n        /* \"#utility.yul\":568:690   */\n      pop\n      jump\t// out\n        /* \"#utility.yul\":696:835   */\n    tag_326:\n        /* \"#utility.yul\":742:747   */\n      0x00\n        /* \"#utility.yul\":780:786   */\n      dup2\n        /* \"#utility.yul\":767:787   */\n      calldataload\n        /* \"#utility.yul\":758:787   */\n      swap1\n      pop\n        /* \"#utility.yul\":796:829   */\n      tag_413\n        /* \"#utility.yul\":823:828   */\n      dup2\n        /* \"#utility.yul\":796:829   */\n      tag_325\n      jump\t// in\n    tag_413:\n        /* \"#utility.yul\":696:835   */\n      swap3\n      swap2\n      pop\n      pop\n      jump\t// out\n        /* \"#utility.yul\":841:918   */\n    tag_327:\n        /* \"#utility.yul\":878:885   */\n      0x00\n        /* \"#utility.yul\":907:912   */\n      dup2\n        /* \"#utility.yul\":896:912   */\n      swap1\n      pop\n        /* \"#utility.yul\":841:918   */\n      swap2\n      swap1\n      pop\n      jump\t// out\n        /* \"#utility.yul\":924:1046   */\n    tag_328:\n        /* \"#utility.yul\":997:1021   */\n      tag_416\n        /* \"#utility.yul\":1015:1020   */\n      dup2\n        /* \"#utility.yul\":997:1021   */\n      tag_327\n      jump\t// in\n    tag_416:\n        /* \"#utility.yul\":990:995   */\n      dup2\n        /* \"#utility.yul\":987:1022   */\n      eq\n        /* \"#utility.yul\":977:1040   */\n      tag_417\n      jumpi\n        /* \"#utility.yul\":1036:1037   */\n      0x00\n        /* \"#utility.yul\":1033:1034   */\n      dup1\n        /* \"#utility.yul\":1026:1038   */\n      revert\n        /* \"#utility.yul\":977:1040   */\n    tag_417:\n        /* \"#utility.yul\":924:1046   */\n      pop\n      jump\t// out\n        /* \"#utility.yul\":1052:1191   */\n    tag_329:\n        /* \"#utility.yul\":1098:1103   */\n      0x00\n        /* \"#utility.yul\":1136:1142   */\n      dup2\n        /* \"#utility.yul\":1123:1143   */\n      calldataload\n        /* \"#utility.yul\":1114:1143   */\n      swap1\n      pop\n        /* \"#utility.yul\":1152:1185   */\n      tag_419\n        /* \"#utility.yul\":1179:1184   */\n      dup2\n        /* \"#utility.yul\":1152:1185   */\n      tag_328\n      jump\t// in\n    tag_419:\n        /* \"#utility.yul\":1052:1191   */\n      swap3\n      swap2\n      pop\n      pop\n      jump\t// out\n        /* \"#utility.yul\":1197:1671   */\n    tag_22:\n        /* \"#utility.yul\":1265:1271   */\n      0x00\n        /* \"#utility.yul\":1273:1279   */\n      dup1\n        /* \"#utility.yul\":1322:1324   */\n      0x40\n        /* \"#utility.yul\":1310:1319   */\n      dup4\n        /* \"#utility.yul\":1301:1308   */\n      dup6\n        /* \"#utility.yul\":1297:1320   */\n      sub\n        /* \"#utility.yul\":1293:1325   */\n      slt\n        /* \"#utility.yul\":1290:1409   */\n      iszero\n      tag_421\n      jumpi\n        /* \"#utility.yul\":1328:1407   */\n      tag_422\n      tag_321\n      jump\t// in\n    tag_422:\n        /* \"#utility.yul\":1290:1409   */\n    tag_421:\n        /* \"#utility.yul\":1448:1449   */\n      0x00\n        /* \"#utility.yul\":1473:1526   */\n      tag_423\n        /* \"#utility.yul\":1518:1525   */\n      dup6\n        /* \"#utility.yul\":1509:1515   */\n      dup3\n        /* \"#utility.yul\":1498:1507   */\n      dup7\n        /* \"#utility.yul\":1494:1516   */\n      add\n        /* \"#utility.yul\":1473:1526   */\n      tag_326\n      jump\t// in\n    tag_423:\n        /* \"#utility.yul\":1463:1526   */\n      swap3\n      pop\n        /* \"#utility.yul\":1419:1536   */\n      pop\n        /* \"#utility.yul\":1575:1577   */\n      0x20\n        /* \"#utility.yul\":1601:1654   */\n      tag_424\n        /* \"#utility.yul\":1646:1653   */\n      dup6\n        /* \"#utility.yul\":1637:1643   */\n      dup3\n        /* \"#utility.yul\":1626:1635   */\n      dup7\n        /* \"#utility.yul\":1622:1644   */\n      add\n        /* \"#utility.yul\":1601:1654   */\n      tag_329\n      jump\t// in\n    tag_424:\n        /* \"#utility.yul\":1591:1654   */\n      swap2\n      pop\n        /* \"#utility.yul\":1546:1664   */\n      pop\n        /* \"#utility.yul\":1197:1671   */\n      swap3\n      pop\n      swap3\n      swap1\n      pop\n      jump\t// out\n        /* \"#utility.yul\":1677:1795   */\n    tag_330:\n        /* \"#utility.yul\":1764:1788   */\n      tag_426\n        /* \"#utility.yul\":1782:1787   */\n      dup2\n        /* \"#utility.yul\":1764:1788   */\n      tag_327\n      jump\t// in\n    tag_426:\n        /* \"#utility.yul\":1759:1762   */\n      dup3\n        /* \"#utility.yul\":1752:1789   */\n      mstore\n        /* \"#utility.yul\":1677:1795   */\n      pop\n      pop\n      jump\t// out\n        /* \"#utility.yul\":1801:2023   */\n    tag_25:\n        /* \"#utility.yul\":1894:1898   */\n      0x00\n        /* \"#utility.yul\":1932:1934   */\n      0x20\n        /* \"#utility.yul\":1921:1930   */\n      dup3\n        /* \"#utility.yul\":1917:1935   */\n      add\n        /* \"#utility.yul\":1909:1935   */\n      swap1\n      pop\n        /* \"#utility.yul\":1945:2016   */\n      tag_428\n        /* \"#utility.yul\":2013:2014   */\n      0x00\n        /* \"#utility.yul\":2002:2011   */\n      dup4\n        /* \"#utility.yul\":1998:2015   */\n      add\n        /* \"#utility.yul\":1989:1995   */\n      dup5\n        /* \"#utility.yul\":1945:2016   */\n      tag_330\n      jump\t// in\n    tag_428:\n        /* \"#utility.yul\":1801:2023   */\n      swap3\n      swap2\n      pop\n      pop\n      jump\t// out\n        /* \"#utility.yul\":2029:2178   */\n    tag_331:\n        /* \"#utility.yul\":2065:2072   */\n      0x00\n        /* \"#utility.yul\":2105:2171   */\n      0xffffffff00000000000000000000000000000000000000000000000000000000\n        /* \"#utility.yul\":2098:2103   */\n      dup3\n        /* \"#utility.yul\":2094:2172   */\n      and\n        /* \"#utility.yul\":2083:2172   */\n      swap1\n      pop\n        /* \"#utility.yul\":2029:2178   */\n      swap2\n      swap1\n      pop\n      jump\t// out\n        /* \"#utility.yul\":2184:2304   */\n    tag_332:\n        /* \"#utility.yul\":2256:2279   */\n      tag_431\n        /* \"#utility.yul\":2273:2278   */\n      dup2\n        /* \"#utility.yul\":2256:2279   */\n      tag_331\n      jump\t// in\n    tag_431:\n        /* \"#utility.yul\":2249:2254   */\n      dup2\n        /* \"#utility.yul\":2246:2280   */\n      eq\n        /* \"#utility.yul\":2236:2298   */\n      tag_432\n      jumpi\n        /* \"#utility.yul\":2294:2295   */\n      0x00\n        /* \"#utility.yul\":2291:2292   */\n      dup1\n        /* \"#utility.yul\":2284:2296   */\n      revert\n        /* \"#utility.yul\":2236:2298   */\n    tag_432:\n        /* \"#utility.yul\":2184:2304   */\n      pop\n      jump\t// out\n        /* \"#utility.yul\":2310:2447   */\n    tag_333:\n        /* \"#utility.yul\":2355:2360   */\n      0x00\n        /* \"#utility.yul\":2393:2399   */\n      dup2\n        /* \"#utility.yul\":2380:2400   */\n      calldataload\n        /* \"#utility.yul\":2371:2400   */\n      swap1\n      pop\n        /* \"#utility.yul\":2409:2441   */\n      tag_434\n        /* \"#utility.yul\":2435:2440   */\n      dup2\n        /* \"#utility.yul\":2409:2441   */\n      tag_332\n      jump\t// in\n    tag_434:\n        /* \"#utility.yul\":2310:2447   */\n      swap3\n      swap2\n      pop\n      pop\n      jump\t// out\n        /* \"#utility.yul\":2453:2780   */\n    tag_28:\n        /* \"#utility.yul\":2511:2517   */\n      0x00\n        /* \"#utility.yul\":2560:2562   */\n      0x20\n        /* \"#utility.yul\":2548:2557   */\n      dup3\n        /* \"#utility.yul\":2539:2546   */\n      dup5\n        /* \"#utility.yul\":2535:2558   */\n      sub\n        /* \"#utility.yul\":2531:2563   */\n      slt\n        /* \"#utility.yul\":2528:2647   */\n      iszero\n      tag_436\n      jumpi\n        /* \"#utility.yul\":2566:2645   */\n      tag_437\n      tag_321\n      jump\t// in\n    tag_437:\n        /* \"#utility.yul\":2528:2647   */\n    tag_436:\n        /* \"#utility.yul\":2686:2687   */\n      0x00\n        /* \"#utility.yul\":2711:2763   */\n      tag_438\n        /* \"#utility.yul\":2755:2762   */\n      dup5\n        /* \"#utility.yul\":2746:2752   */\n      dup3\n        /* \"#utility.yul\":2735:2744   */\n      dup6\n        /* \"#utility.yul\":2731:2753   */\n      add\n        /* \"#utility.yul\":2711:2763   */\n      tag_333\n      jump\t// in\n    tag_438:\n        /* \"#utility.yul\":2701:2763   */\n      swap2\n      pop\n        /* \"#utility.yul\":2657:2773   */\n      pop\n        /* \"#utility.yul\":2453:2780   */\n      swap3\n      swap2\n      pop\n      pop\n      jump\t// out\n        /* \"#utility.yul\":2786:2876   */\n    tag_334:\n        /* \"#utility.yul\":2820:2827   */\n      0x00\n        /* \"#utility.yul\":2863:2868   */\n      dup2\n        /* \"#utility.yul\":2856:2869   */\n      iszero\n        /* \"#utility.yul\":2849:2870   */\n      iszero\n        /* \"#utility.yul\":2838:2870   */\n      swap1\n      pop\n        /* \"#utility.yul\":2786:2876   */\n      swap2\n      swap1\n      pop\n      jump\t// out\n        /* \"#utility.yul\":2882:2991   */\n    tag_335:\n        /* \"#utility.yul\":2963:2984   */\n      tag_441\n        /* \"#utility.yul\":2978:2983   */\n      dup2\n        /* \"#utility.yul\":2963:2984   */\n      tag_334\n      jump\t// in\n    tag_441:\n        /* \"#utility.yul\":2958:2961   */\n      dup3\n        /* \"#utility.yul\":2951:2985   */\n      mstore\n        /* \"#utility.yul\":2882:2991   */\n      pop\n      pop\n      jump\t// out\n        /* \"#utility.yul\":2997:3207   */\n    tag_31:\n        /* \"#utility.yul\":3084:3088   */\n      0x00\n        /* \"#utility.yul\":3122:3124   */\n      0x20\n        /* \"#utility.yul\":3111:3120   */\n      dup3\n        /* \"#utility.yul\":3107:3125   */\n      add\n        /* \"#utility.yul\":3099:3125   */\n      swap1\n      pop\n        /* \"#utility.yul\":3135:3200   */\n      tag_443\n        /* \"#utility.yul\":3197:3198   */\n      0x00\n        /* \"#utility.yul\":3186:3195   */\n      dup4\n        /* \"#utility.yul\":3182:3199   */\n      add\n        /* \"#utility.yul\":3173:3179   */\n      dup5\n        /* \"#utility.yul\":3135:3200   */\n      tag_335\n      jump\t// in\n    tag_443:\n        /* \"#utility.yul\":2997:3207   */\n      swap3\n      swap2\n      pop\n      pop\n      jump\t// out\n        /* \"#utility.yul\":3213:3312   */\n    tag_336:\n        /* \"#utility.yul\":3265:3271   */\n      0x00\n        /* \"#utility.yul\":3299:3304   */\n      dup2\n        /* \"#utility.yul\":3293:3305   */\n      mload\n        /* \"#utility.yul\":3283:3305   */\n      swap1\n      pop\n        /* \"#utility.yul\":3213:3312   */\n      swap2\n      swap1\n      pop\n      jump\t// out\n        /* \"#utility.yul\":3318:3487   */\n    tag_337:\n        /* \"#utility.yul\":3402:3413   */\n      0x00\n        /* \"#utility.yul\":3436:3442   */\n      dup3\n        /* \"#utility.yul\":3431:3434   */\n      dup3\n        /* \"#utility.yul\":3424:3443   */\n      mstore\n        /* \"#utility.yul\":3476:3480   */\n      0x20\n        /* \"#utility.yul\":3471:3474   */\n      dup3\n        /* \"#utility.yul\":3467:3481   */\n      add\n        /* \"#utility.yul\":3452:3481   */\n      swap1\n      pop\n        /* \"#utility.yul\":3318:3487   */\n      swap3\n      swap2\n      pop\n      pop\n      jump\t// out\n        /* \"#utility.yul\":3493:3739   */\n    tag_338:\n        /* \"#utility.yul\":3574:3575   */\n      0x00\n        /* \"#utility.yul\":3584:3697   */\n    tag_447:\n        /* \"#utility.yul\":3598:3604   */\n      dup4\n        /* \"#utility.yul\":3595:3596   */\n      dup2\n        /* \"#utility.yul\":3592:3605   */\n      lt\n        /* \"#utility.yul\":3584:3697   */\n      iszero\n      tag_449\n      jumpi\n        /* \"#utility.yul\":3683:3684   */\n      dup1\n        /* \"#utility.yul\":3678:3681   */\n      dup3\n        /* \"#utility.yul\":3674:3685   */\n      add\n        /* \"#utility.yul\":3668:3686   */\n      mload\n        /* \"#utility.yul\":3664:3665   */\n      dup2\n        /* \"#utility.yul\":3659:3662   */\n      dup5\n        /* \"#utility.yul\":3655:3666   */\n      add\n        /* \"#utility.yul\":3648:3687   */\n      mstore\n        /* \"#utility.yul\":3620:3622   */\n      0x20\n        /* \"#utility.yul\":3617:3618   */\n      dup2\n        /* \"#utility.yul\":3613:3623   */\n      add\n        /* \"#utility.yul\":3608:3623   */\n      swap1\n      pop\n        /* \"#utility.yul\":3584:3697   */\n      jump(tag_447)\n    tag_449:\n        /* \"#utility.yul\":3731:3732   */\n      0x00\n        /* \"#utility.yul\":3722:3728   */\n      dup5\n        /* \"#utility.yul\":3717:3720   */\n      dup5\n        /* \"#utility.yul\":3713:3729   */\n      add\n        /* \"#utility.yul\":3706:3733   */\n      mstore\n        /* \"#utility.yul\":3555:3739   */\n      pop\n        /* \"#utility.yul\":3493:3739   */\n      pop\n      pop\n      pop\n      jump\t// out\n        /* \"#utility.yul\":3745:3847   */\n    tag_339:\n        /* \"#utility.yul\":3786:3792   */\n      0x00\n        /* \"#utility.yul\":3837:3839   */\n      0x1f\n        /* \"#utility.yul\":3833:3840   */\n      not\n        /* \"#utility.yul\":3828:3830   */\n      0x1f\n        /* \"#utility.yul\":3821:3826   */\n      dup4\n        /* \"#utility.yul\":3817:3831   */\n      add\n        /* \"#utility.yul\":3813:3841   */\n      and\n        /* \"#utility.yul\":3803:3841   */\n      swap1\n      pop\n        /* \"#utility.yul\":3745:3847   */\n      swap2\n      swap1\n      pop\n      jump\t// out\n        /* \"#utility.yul\":3853:4230   */\n    tag_340:\n        /* \"#utility.yul\":3941:3944   */\n      0x00\n        /* \"#utility.yul\":3969:4008   */\n      tag_452\n        /* \"#utility.yul\":4002:4007   */\n      dup3\n        /* \"#utility.yul\":3969:4008   */\n      tag_336\n      jump\t// in\n    tag_452:\n        /* \"#utility.yul\":4024:4095   */\n      tag_453\n        /* \"#utility.yul\":4088:4094   */\n      dup2\n        /* \"#utility.yul\":4083:4086   */\n      dup6\n        /* \"#utility.yul\":4024:4095   */\n      tag_337\n      jump\t// in\n    tag_453:\n        /* \"#utility.yul\":4017:4095   */\n      swap4\n      pop\n        /* \"#utility.yul\":4104:4169   */\n      tag_454\n        /* \"#utility.yul\":4162:4168   */\n      dup2\n        /* \"#utility.yul\":4157:4160   */\n      dup6\n        /* \"#utility.yul\":4150:4154   */\n      0x20\n        /* \"#utility.yul\":4143:4148   */\n      dup7\n        /* \"#utility.yul\":4139:4155   */\n      add\n        /* \"#utility.yul\":4104:4169   */\n      tag_338\n      jump\t// in\n    tag_454:\n        /* \"#utility.yul\":4194:4223   */\n      tag_455\n        /* \"#utility.yul\":4216:4222   */\n      dup2\n        /* \"#utility.yul\":4194:4223   */\n      tag_339\n      jump\t// in\n    tag_455:\n        /* \"#utility.yul\":4189:4192   */\n      dup5\n        /* \"#utility.yul\":4185:4224   */\n      add\n        /* \"#utility.yul\":4178:4224   */\n      swap2\n      pop\n        /* \"#utility.yul\":3945:4230   */\n      pop\n        /* \"#utility.yul\":3853:4230   */\n      swap3\n      swap2\n      pop\n      pop\n      jump\t// out\n        /* \"#utility.yul\":4236:4549   */\n    tag_35:\n        /* \"#utility.yul\":4349:4353   */\n      0x00\n        /* \"#utility.yul\":4387:4389   */\n      0x20\n        /* \"#utility.yul\":4376:4385   */\n      dup3\n        /* \"#utility.yul\":4372:4390   */\n      add\n        /* \"#utility.yul\":4364:4390   */\n      swap1\n      pop\n        /* \"#utility.yul\":4436:4445   */\n      dup2\n        /* \"#utility.yul\":4430:4434   */\n      dup2\n        /* \"#utility.yul\":4426:4446   */\n      sub\n        /* \"#utility.yul\":4422:4423   */\n      0x00\n        /* \"#utility.yul\":4411:4420   */\n      dup4\n        /* \"#utility.yul\":4407:4424   */\n      add\n        /* \"#utility.yul\":4400:4447   */\n      mstore\n        /* \"#utility.yul\":4464:4542   */\n      tag_457\n        /* \"#utility.yul\":4537:4541   */\n      dup2\n        /* \"#utility.yul\":4528:4534   */\n      dup5\n        /* \"#utility.yul\":4464:4542   */\n      tag_340\n      jump\t// in\n    tag_457:\n        /* \"#utility.yul\":4456:4542   */\n      swap1\n      pop\n        /* \"#utility.yul\":4236:4549   */\n      swap3\n      swap2\n      pop\n      pop\n      jump\t// out\n        /* \"#utility.yul\":4555:4672   */\n    tag_341:\n        /* \"#utility.yul\":4664:4665   */\n      0x00\n        /* \"#utility.yul\":4661:4662   */\n      dup1\n        /* \"#utility.yul\":4654:4666   */\n      revert\n        /* \"#utility.yul\":4678:4858   */\n    tag_144:\n        /* \"#utility.yul\":4726:4803   */\n      0x4e487b7100000000000000000000000000000000000000000000000000000000\n        /* \"#utility.yul\":4723:4724   */\n      0x00\n        /* \"#utility.yul\":4716:4804   */\n      mstore\n        /* \"#utility.yul\":4823:4827   */\n      0x41\n        /* \"#utility.yul\":4820:4821   */\n      0x04\n        /* \"#utility.yul\":4813:4828   */\n      mstore\n        /* \"#utility.yul\":4847:4851   */\n      0x24\n        /* \"#utility.yul\":4844:4845   */\n      0x00\n        /* \"#utility.yul\":4837:4852   */\n      revert\n        /* \"#utility.yul\":4864:5145   */\n    tag_342:\n        /* \"#utility.yul\":4947:4974   */\n      tag_461\n        /* \"#utility.yul\":4969:4973   */\n      dup3\n        /* \"#utility.yul\":4947:4974   */\n      tag_339\n      jump\t// in\n    tag_461:\n        /* \"#utility.yul\":4939:4945   */\n      dup2\n        /* \"#utility.yul\":4935:4975   */\n      add\n        /* \"#utility.yul\":5077:5083   */\n      dup2\n        /* \"#utility.yul\":5065:5075   */\n      dup2\n        /* \"#utility.yul\":5062:5084   */\n      lt\n        /* \"#utility.yul\":5041:5059   */\n      0xffffffffffffffff\n        /* \"#utility.yul\":5029:5039   */\n      dup3\n        /* \"#utility.yul\":5026:5060   */\n      gt\n        /* \"#utility.yul\":5023:5085   */\n      or\n        /* \"#utility.yul\":5020:5108   */\n      iszero\n      tag_462\n      jumpi\n        /* \"#utility.yul\":5088:5106   */\n      tag_463\n      tag_144\n      jump\t// in\n    tag_463:\n        /* \"#utility.yul\":5020:5108   */\n    tag_462:\n        /* \"#utility.yul\":5128:5138   */\n      dup1\n        /* \"#utility.yul\":5124:5126   */\n      0x40\n        /* \"#utility.yul\":5117:5139   */\n      mstore\n        /* \"#utility.yul\":4907:5145   */\n      pop\n        /* \"#utility.yul\":4864:5145   */\n      pop\n      pop\n      jump\t// out\n        /* \"#utility.yul\":5151:5280   */\n    tag_343:\n        /* \"#utility.yul\":5185:5191   */\n      0x00\n        /* \"#utility.yul\":5212:5232   */\n      tag_465\n      tag_320\n      jump\t// in\n    tag_465:\n        /* \"#utility.yul\":5202:5232   */\n      swap1\n      pop\n        /* \"#utility.yul\":5241:5274   */\n      tag_466\n        /* \"#utility.yul\":5269:5273   */\n      dup3\n        /* \"#utility.yul\":5261:5267   */\n      dup3\n        /* \"#utility.yul\":5241:5274   */\n      tag_342\n      jump\t// in\n    tag_466:\n        /* \"#utility.yul\":5151:5280   */\n      swap2\n      swap1\n      pop\n      jump\t// out\n        /* \"#utility.yul\":5286:5597   */\n    tag_344:\n        /* \"#utility.yul\":5363:5367   */\n      0x00\n        /* \"#utility.yul\":5453:5471   */\n      0xffffffffffffffff\n        /* \"#utility.yul\":5445:5451   */\n      dup3\n        /* \"#utility.yul\":5442:5472   */\n      gt\n        /* \"#utility.yul\":5439:5495   */\n      iszero\n      tag_468\n      jumpi\n        /* \"#utility.yul\":5475:5493   */\n      tag_469\n      tag_144\n      jump\t// in\n    tag_469:\n        /* \"#utility.yul\":5439:5495   */\n    tag_468:\n        /* \"#utility.yul\":5525:5529   */\n      0x20\n        /* \"#utility.yul\":5517:5523   */\n      dup3\n        /* \"#utility.yul\":5513:5530   */\n      mul\n        /* \"#utility.yul\":5505:5530   */\n      swap1\n      pop\n        /* \"#utility.yul\":5585:5589   */\n      0x20\n        /* \"#utility.yul\":5579:5583   */\n      dup2\n        /* \"#utility.yul\":5575:5590   */\n      add\n        /* \"#utility.yul\":5567:5590   */\n      swap1\n      pop\n        /* \"#utility.yul\":5286:5597   */\n      swap2\n      swap1\n      pop\n      jump\t// out\n        /* \"#utility.yul\":5603:5720   */\n    tag_345:\n        /* \"#utility.yul\":5712:5713   */\n      0x00\n        /* \"#utility.yul\":5709:5710   */\n      dup1\n        /* \"#utility.yul\":5702:5714   */\n      revert\n        /* \"#utility.yul\":5743:6453   */\n    tag_346:\n        /* \"#utility.yul\":5839:5844   */\n      0x00\n        /* \"#utility.yul\":5864:5945   */\n      tag_472\n        /* \"#utility.yul\":5880:5944   */\n      tag_473\n        /* \"#utility.yul\":5937:5943   */\n      dup5\n        /* \"#utility.yul\":5880:5944   */\n      tag_344\n      jump\t// in\n    tag_473:\n        /* \"#utility.yul\":5864:5945   */\n      tag_343\n      jump\t// in\n    tag_472:\n        /* \"#utility.yul\":5855:5945   */\n      swap1\n      pop\n        /* \"#utility.yul\":5965:5970   */\n      dup1\n        /* \"#utility.yul\":5994:6000   */\n      dup4\n        /* \"#utility.yul\":5987:5992   */\n      dup3\n        /* \"#utility.yul\":5980:6001   */\n      mstore\n        /* \"#utility.yul\":6028:6032   */\n      0x20\n        /* \"#utility.yul\":6021:6026   */\n      dup3\n        /* \"#utility.yul\":6017:6033   */\n      add\n        /* \"#utility.yul\":6010:6033   */\n      swap1\n      pop\n        /* \"#utility.yul\":6081:6085   */\n      0x20\n        /* \"#utility.yul\":6073:6079   */\n      dup5\n        /* \"#utility.yul\":6069:6086   */\n      mul\n        /* \"#utility.yul\":6061:6067   */\n      dup4\n        /* \"#utility.yul\":6057:6087   */\n      add\n        /* \"#utility.yul\":6110:6113   */\n      dup6\n        /* \"#utility.yul\":6102:6108   */\n      dup2\n        /* \"#utility.yul\":6099:6114   */\n      gt\n        /* \"#utility.yul\":6096:6218   */\n      iszero\n      tag_474\n      jumpi\n        /* \"#utility.yul\":6129:6208   */\n      tag_475\n      tag_345\n      jump\t// in\n    tag_475:\n        /* \"#utility.yul\":6096:6218   */\n    tag_474:\n        /* \"#utility.yul\":6244:6250   */\n      dup4\n        /* \"#utility.yul\":6227:6447   */\n    tag_476:\n        /* \"#utility.yul\":6261:6267   */\n      dup2\n        /* \"#utility.yul\":6256:6259   */\n      dup2\n        /* \"#utility.yul\":6253:6268   */\n      lt\n        /* \"#utility.yul\":6227:6447   */\n      iszero\n      tag_478\n      jumpi\n        /* \"#utility.yul\":6336:6339   */\n      dup1\n        /* \"#utility.yul\":6365:6402   */\n      tag_479\n        /* \"#utility.yul\":6398:6401   */\n      dup9\n        /* \"#utility.yul\":6386:6396   */\n      dup3\n        /* \"#utility.yul\":6365:6402   */\n      tag_329\n      jump\t// in\n    tag_479:\n        /* \"#utility.yul\":6360:6363   */\n      dup5\n        /* \"#utility.yul\":6353:6403   */\n      mstore\n        /* \"#utility.yul\":6432:6436   */\n      0x20\n        /* \"#utility.yul\":6427:6430   */\n      dup5\n        /* \"#utility.yul\":6423:6437   */\n      add\n        /* \"#utility.yul\":6416:6437   */\n      swap4\n      pop\n        /* \"#utility.yul\":6303:6447   */\n      pop\n        /* \"#utility.yul\":6287:6291   */\n      0x20\n        /* \"#utility.yul\":6282:6285   */\n      dup2\n        /* \"#utility.yul\":6278:6292   */\n      add\n        /* \"#utility.yul\":6271:6292   */\n      swap1\n      pop\n        /* \"#utility.yul\":6227:6447   */\n      jump(tag_476)\n    tag_478:\n        /* \"#utility.yul\":6231:6252   */\n      pop\n        /* \"#utility.yul\":5845:6453   */\n      pop\n      pop\n        /* \"#utility.yul\":5743:6453   */\n      swap4\n      swap3\n      pop\n      pop\n      pop\n      jump\t// out\n        /* \"#utility.yul\":6476:6846   */\n    tag_347:\n        /* \"#utility.yul\":6547:6552   */\n      0x00\n        /* \"#utility.yul\":6596:6599   */\n      dup3\n        /* \"#utility.yul\":6589:6593   */\n      0x1f\n        /* \"#utility.yul\":6581:6587   */\n      dup4\n        /* \"#utility.yul\":6577:6594   */\n      add\n        /* \"#utility.yul\":6573:6600   */\n      slt\n        /* \"#utility.yul\":6563:6685   */\n      tag_481\n      jumpi\n        /* \"#utility.yul\":6604:6683   */\n      tag_482\n      tag_341\n      jump\t// in\n    tag_482:\n        /* \"#utility.yul\":6563:6685   */\n    tag_481:\n        /* \"#utility.yul\":6721:6727   */\n      dup2\n        /* \"#utility.yul\":6708:6728   */\n      calldataload\n        /* \"#utility.yul\":6746:6840   */\n      tag_483\n        /* \"#utility.yul\":6836:6839   */\n      dup5\n        /* \"#utility.yul\":6828:6834   */\n      dup3\n        /* \"#utility.yul\":6821:6825   */\n      0x20\n        /* \"#utility.yul\":6813:6819   */\n      dup7\n        /* \"#utility.yul\":6809:6826   */\n      add\n        /* \"#utility.yul\":6746:6840   */\n      tag_346\n      jump\t// in\n    tag_483:\n        /* \"#utility.yul\":6737:6840   */\n      swap2\n      pop\n        /* \"#utility.yul\":6553:6846   */\n      pop\n        /* \"#utility.yul\":6476:6846   */\n      swap3\n      swap2\n      pop\n      pop\n      jump\t// out\n        /* \"#utility.yul\":6852:6969   */\n    tag_348:\n        /* \"#utility.yul\":6961:6962   */\n      0x00\n        /* \"#utility.yul\":6958:6959   */\n      dup1\n        /* \"#utility.yul\":6951:6963   */\n      revert\n        /* \"#utility.yul\":6975:7282   */\n    tag_349:\n        /* \"#utility.yul\":7036:7040   */\n      0x00\n        /* \"#utility.yul\":7126:7144   */\n      0xffffffffffffffff\n        /* \"#utility.yul\":7118:7124   */\n      dup3\n        /* \"#utility.yul\":7115:7145   */\n      gt\n        /* \"#utility.yul\":7112:7168   */\n      iszero\n      tag_486\n      jumpi\n        /* \"#utility.yul\":7148:7166   */\n      tag_487\n      tag_144\n      jump\t// in\n    tag_487:\n        /* \"#utility.yul\":7112:7168   */\n    tag_486:\n        /* \"#utility.yul\":7186:7215   */\n      tag_488\n        /* \"#utility.yul\":7208:7214   */\n      dup3\n        /* \"#utility.yul\":7186:7215   */\n      tag_339\n      jump\t// in\n    tag_488:\n        /* \"#utility.yul\":7178:7215   */\n      swap1\n      pop\n        /* \"#utility.yul\":7270:7274   */\n      0x20\n        /* \"#utility.yul\":7264:7268   */\n      dup2\n        /* \"#utility.yul\":7260:7275   */\n      add\n        /* \"#utility.yul\":7252:7275   */\n      swap1\n      pop\n        /* \"#utility.yul\":6975:7282   */\n      swap2\n      swap1\n      pop\n      jump\t// out\n        /* \"#utility.yul\":7288:7434   */\n    tag_350:\n        /* \"#utility.yul\":7385:7391   */\n      dup3\n        /* \"#utility.yul\":7380:7383   */\n      dup2\n        /* \"#utility.yul\":7375:7378   */\n      dup4\n        /* \"#utility.yul\":7362:7392   */\n      calldatacopy\n        /* \"#utility.yul\":7426:7427   */\n      0x00\n        /* \"#utility.yul\":7417:7423   */\n      dup4\n        /* \"#utility.yul\":7412:7415   */\n      dup4\n        /* \"#utility.yul\":7408:7424   */\n      add\n        /* \"#utility.yul\":7401:7428   */\n      mstore\n        /* \"#utility.yul\":7288:7434   */\n      pop\n      pop\n      pop\n      jump\t// out\n        /* \"#utility.yul\":7440:7863   */\n    tag_351:\n        /* \"#utility.yul\":7517:7522   */\n      0x00\n        /* \"#utility.yul\":7542:7607   */\n      tag_491\n        /* \"#utility.yul\":7558:7606   */\n      tag_492\n        /* \"#utility.yul\":7599:7605   */\n      dup5\n        /* \"#utility.yul\":7558:7606   */\n      tag_349\n      jump\t// in\n    tag_492:\n        /* \"#utility.yul\":7542:7607   */\n      tag_343\n      jump\t// in\n    tag_491:\n        /* \"#utility.yul\":7533:7607   */\n      swap1\n      pop\n        /* \"#utility.yul\":7630:7636   */\n      dup3\n        /* \"#utility.yul\":7623:7628   */\n      dup2\n        /* \"#utility.yul\":7616:7637   */\n      mstore\n        /* \"#utility.yul\":7668:7672   */\n      0x20\n        /* \"#utility.yul\":7661:7666   */\n      dup2\n        /* \"#utility.yul\":7657:7673   */\n      add\n        /* \"#utility.yul\":7706:7709   */\n      dup5\n        /* \"#utility.yul\":7697:7703   */\n      dup5\n        /* \"#utility.yul\":7692:7695   */\n      dup5\n        /* \"#utility.yul\":7688:7704   */\n      add\n        /* \"#utility.yul\":7685:7710   */\n      gt\n        /* \"#utility.yul\":7682:7794   */\n      iszero\n      tag_493\n      jumpi\n        /* \"#utility.yul\":7713:7792   */\n      tag_494\n      tag_348\n      jump\t// in\n    tag_494:\n        /* \"#utility.yul\":7682:7794   */\n    tag_493:\n        /* \"#utility.yul\":7803:7857   */\n      tag_495\n        /* \"#utility.yul\":7850:7856   */\n      dup5\n        /* \"#utility.yul\":7845:7848   */\n      dup3\n        /* \"#utility.yul\":7840:7843   */\n      dup6\n        /* \"#utility.yul\":7803:7857   */\n      tag_350\n      jump\t// in\n    tag_495:\n        /* \"#utility.yul\":7523:7863   */\n      pop\n        /* \"#utility.yul\":7440:7863   */\n      swap4\n      swap3\n      pop\n      pop\n      pop\n      jump\t// out\n        /* \"#utility.yul\":7882:8220   */\n    tag_352:\n        /* \"#utility.yul\":7937:7942   */\n      0x00\n        /* \"#utility.yul\":7986:7989   */\n      dup3\n        /* \"#utility.yul\":7979:7983   */\n      0x1f\n        /* \"#utility.yul\":7971:7977   */\n      dup4\n        /* \"#utility.yul\":7967:7984   */\n      add\n        /* \"#utility.yul\":7963:7990   */\n      slt\n        /* \"#utility.yul\":7953:8075   */\n      tag_497\n      jumpi\n        /* \"#utility.yul\":7994:8073   */\n      tag_498\n      tag_341\n      jump\t// in\n    tag_498:\n        /* \"#utility.yul\":7953:8075   */\n    tag_497:\n        /* \"#utility.yul\":8111:8117   */\n      dup2\n        /* \"#utility.yul\":8098:8118   */\n      calldataload\n        /* \"#utility.yul\":8136:8214   */\n      tag_499\n        /* \"#utility.yul\":8210:8213   */\n      dup5\n        /* \"#utility.yul\":8202:8208   */\n      dup3\n        /* \"#utility.yul\":8195:8199   */\n      0x20\n        /* \"#utility.yul\":8187:8193   */\n      dup7\n        /* \"#utility.yul\":8183:8200   */\n      add\n        /* \"#utility.yul\":8136:8214   */\n      tag_351\n      jump\t// in\n    tag_499:\n        /* \"#utility.yul\":8127:8214   */\n      swap2\n      pop\n        /* \"#utility.yul\":7943:8220   */\n      pop\n        /* \"#utility.yul\":7882:8220   */\n      swap3\n      swap2\n      pop\n      pop\n      jump\t// out\n        /* \"#utility.yul\":8226:9735   */\n    tag_41:\n        /* \"#utility.yul\":8380:8386   */\n      0x00\n        /* \"#utility.yul\":8388:8394   */\n      dup1\n        /* \"#utility.yul\":8396:8402   */\n      0x00\n        /* \"#utility.yul\":8404:8410   */\n      dup1\n        /* \"#utility.yul\":8412:8418   */\n      0x00\n        /* \"#utility.yul\":8461:8464   */\n      0xa0\n        /* \"#utility.yul\":8449:8458   */\n      dup7\n        /* \"#utility.yul\":8440:8447   */\n      dup9\n        /* \"#utility.yul\":8436:8459   */\n      sub\n        /* \"#utility.yul\":8432:8465   */\n      slt\n        /* \"#utility.yul\":8429:8549   */\n      iszero\n      tag_501\n      jumpi\n        /* \"#utility.yul\":8468:8547   */\n      tag_502\n      tag_321\n      jump\t// in\n    tag_502:\n        /* \"#utility.yul\":8429:8549   */\n    tag_501:\n        /* \"#utility.yul\":8588:8589   */\n      0x00\n        /* \"#utility.yul\":8613:8666   */\n      tag_503\n        /* \"#utility.yul\":8658:8665   */\n      dup9\n        /* \"#utility.yul\":8649:8655   */\n      dup3\n        /* \"#utility.yul\":8638:8647   */\n      dup10\n        /* \"#utility.yul\":8634:8656   */\n      add\n        /* \"#utility.yul\":8613:8666   */\n      tag_326\n      jump\t// in\n    tag_503:\n        /* \"#utility.yul\":8603:8666   */\n      swap6\n      pop\n        /* \"#utility.yul\":8559:8676   */\n      pop\n        /* \"#utility.yul\":8715:8717   */\n      0x20\n        /* \"#utility.yul\":8741:8794   */\n      tag_504\n        /* \"#utility.yul\":8786:8793   */\n      dup9\n        /* \"#utility.yul\":8777:8783   */\n      dup3\n        /* \"#utility.yul\":8766:8775   */\n      dup10\n        /* \"#utility.yul\":8762:8784   */\n      add\n        /* \"#utility.yul\":8741:8794   */\n      tag_326\n      jump\t// in\n    tag_504:\n        /* \"#utility.yul\":8731:8794   */\n      swap5\n      pop\n        /* \"#utility.yul\":8686:8804   */\n      pop\n        /* \"#utility.yul\":8871:8873   */\n      0x40\n        /* \"#utility.yul\":8860:8869   */\n      dup7\n        /* \"#utility.yul\":8856:8874   */\n      add\n        /* \"#utility.yul\":8843:8875   */\n      calldataload\n        /* \"#utility.yul\":8902:8920   */\n      0xffffffffffffffff\n        /* \"#utility.yul\":8894:8900   */\n      dup2\n        /* \"#utility.yul\":8891:8921   */\n      gt\n        /* \"#utility.yul\":8888:9005   */\n      iszero\n      tag_505\n      jumpi\n        /* \"#utility.yul\":8924:9003   */\n      tag_506\n      tag_322\n      jump\t// in\n    tag_506:\n        /* \"#utility.yul\":8888:9005   */\n    tag_505:\n        /* \"#utility.yul\":9029:9107   */\n      tag_507\n        /* \"#utility.yul\":9099:9106   */\n      dup9\n        /* \"#utility.yul\":9090:9096   */\n      dup3\n        /* \"#utility.yul\":9079:9088   */\n      dup10\n        /* \"#utility.yul\":9075:9097   */\n      add\n        /* \"#utility.yul\":9029:9107   */\n      tag_347\n      jump\t// in\n    tag_507:\n        /* \"#utility.yul\":9019:9107   */\n      swap4\n      pop\n        /* \"#utility.yul\":8814:9117   */\n      pop\n        /* \"#utility.yul\":9184:9186   */\n      0x60\n        /* \"#utility.yul\":9173:9182   */\n      dup7\n        /* \"#utility.yul\":9169:9187   */\n      add\n        /* \"#utility.yul\":9156:9188   */\n      calldataload\n        /* \"#utility.yul\":9215:9233   */\n      0xffffffffffffffff\n        /* \"#utility.yul\":9207:9213   */\n      dup2\n        /* \"#utility.yul\":9204:9234   */\n      gt\n        /* \"#utility.yul\":9201:9318   */\n      iszero\n      tag_508\n      jumpi\n        /* \"#utility.yul\":9237:9316   */\n      tag_509\n      tag_322\n      jump\t// in\n    tag_509:\n        /* \"#utility.yul\":9201:9318   */\n    tag_508:\n        /* \"#utility.yul\":9342:9420   */\n      tag_510\n        /* \"#utility.yul\":9412:9419   */\n      dup9\n        /* \"#utility.yul\":9403:9409   */\n      dup3\n        /* \"#utility.yul\":9392:9401   */\n      dup10\n        /* \"#utility.yul\":9388:9410   */\n      add\n        /* \"#utility.yul\":9342:9420   */\n      tag_347\n      jump\t// in\n    tag_510:\n        /* \"#utility.yul\":9332:9420   */\n      swap3\n      pop\n        /* \"#utility.yul\":9127:9430   */\n      pop\n        /* \"#utility.yul\":9497:9500   */\n      0x80\n        /* \"#utility.yul\":9486:9495   */\n      dup7\n        /* \"#utility.yul\":9482:9501   */\n      add\n        /* \"#utility.yul\":9469:9502   */\n      calldataload\n        /* \"#utility.yul\":9529:9547   */\n      0xffffffffffffffff\n        /* \"#utility.yul\":9521:9527   */\n      dup2\n        /* \"#utility.yul\":9518:9548   */\n      gt\n        /* \"#utility.yul\":9515:9632   */\n      iszero\n      tag_511\n      jumpi\n        /* \"#utility.yul\":9551:9630   */\n      tag_512\n      tag_322\n      jump\t// in\n    tag_512:\n        /* \"#utility.yul\":9515:9632   */\n    tag_511:\n        /* \"#utility.yul\":9656:9718   */\n      tag_513\n        /* \"#utility.yul\":9710:9717   */\n      dup9\n        /* \"#utility.yul\":9701:9707   */\n      dup3\n        /* \"#utility.yul\":9690:9699   */\n      dup10\n        /* \"#utility.yul\":9686:9708   */\n      add\n        /* \"#utility.yul\":9656:9718   */\n      tag_352\n      jump\t// in\n    tag_513:\n        /* \"#utility.yul\":9646:9718   */\n      swap2\n      pop\n        /* \"#utility.yul\":9440:9728   */\n      pop\n        /* \"#utility.yul\":8226:9735   */\n      swap3\n      swap6\n      pop\n      swap3\n      swap6\n      swap1\n      swap4\n      pop\n      jump\t// out\n        /* \"#utility.yul\":9741:10052   */\n    tag_353:\n        /* \"#utility.yul\":9818:9822   */\n      0x00\n        /* \"#utility.yul\":9908:9926   */\n      0xffffffffffffffff\n        /* \"#utility.yul\":9900:9906   */\n      dup3\n        /* \"#utility.yul\":9897:9927   */\n      gt\n        /* \"#utility.yul\":9894:9950   */\n      iszero\n      tag_515\n      jumpi\n        /* \"#utility.yul\":9930:9948   */\n      tag_516\n      tag_144\n      jump\t// in\n    tag_516:\n        /* \"#utility.yul\":9894:9950   */\n    tag_515:\n        /* \"#utility.yul\":9980:9984   */\n      0x20\n        /* \"#utility.yul\":9972:9978   */\n      dup3\n        /* \"#utility.yul\":9968:9985   */\n      mul\n        /* \"#utility.yul\":9960:9985   */\n      swap1\n      pop\n        /* \"#utility.yul\":10040:10044   */\n      0x20\n        /* \"#utility.yul\":10034:10038   */\n      dup2\n        /* \"#utility.yul\":10030:10045   */\n      add\n        /* \"#utility.yul\":10022:10045   */\n      swap1\n      pop\n        /* \"#utility.yul\":9741:10052   */\n      swap2\n      swap1\n      pop\n      jump\t// out\n        /* \"#utility.yul\":10075:10785   */\n    tag_354:\n        /* \"#utility.yul\":10171:10176   */\n      0x00\n        /* \"#utility.yul\":10196:10277   */\n      tag_518\n        /* \"#utility.yul\":10212:10276   */\n      tag_519\n        /* \"#utility.yul\":10269:10275   */\n      dup5\n        /* \"#utility.yul\":10212:10276   */\n      tag_353\n      jump\t// in\n    tag_519:\n        /* \"#utility.yul\":10196:10277   */\n      tag_343\n      jump\t// in\n    tag_518:\n        /* \"#utility.yul\":10187:10277   */\n      swap1\n      pop\n        /* \"#utility.yul\":10297:10302   */\n      dup1\n        /* \"#utility.yul\":10326:10332   */\n      dup4\n        /* \"#utility.yul\":10319:10324   */\n      dup3\n        /* \"#utility.yul\":10312:10333   */\n      mstore\n        /* \"#utility.yul\":10360:10364   */\n      0x20\n        /* \"#utility.yul\":10353:10358   */\n      dup3\n        /* \"#utility.yul\":10349:10365   */\n      add\n        /* \"#utility.yul\":10342:10365   */\n      swap1\n      pop\n        /* \"#utility.yul\":10413:10417   */\n      0x20\n        /* \"#utility.yul\":10405:10411   */\n      dup5\n        /* \"#utility.yul\":10401:10418   */\n      mul\n        /* \"#utility.yul\":10393:10399   */\n      dup4\n        /* \"#utility.yul\":10389:10419   */\n      add\n        /* \"#utility.yul\":10442:10445   */\n      dup6\n        /* \"#utility.yul\":10434:10440   */\n      dup2\n        /* \"#utility.yul\":10431:10446   */\n      gt\n        /* \"#utility.yul\":10428:10550   */\n      iszero\n      tag_520\n      jumpi\n        /* \"#utility.yul\":10461:10540   */\n      tag_521\n      tag_345\n      jump\t// in\n    tag_521:\n        /* \"#utility.yul\":10428:10550   */\n    tag_520:\n        /* \"#utility.yul\":10576:10582   */\n      dup4\n        /* \"#utility.yul\":10559:10779   */\n    tag_522:\n        /* \"#utility.yul\":10593:10599   */\n      dup2\n        /* \"#utility.yul\":10588:10591   */\n      dup2\n        /* \"#utility.yul\":10585:10600   */\n      lt\n        /* \"#utility.yul\":10559:10779   */\n      iszero\n      tag_524\n      jumpi\n        /* \"#utility.yul\":10668:10671   */\n      dup1\n        /* \"#utility.yul\":10697:10734   */\n      tag_525\n        /* \"#utility.yul\":10730:10733   */\n      dup9\n        /* \"#utility.yul\":10718:10728   */\n      dup3\n        /* \"#utility.yul\":10697:10734   */\n      tag_326\n      jump\t// in\n    tag_525:\n        /* \"#utility.yul\":10692:10695   */\n      dup5\n        /* \"#utility.yul\":10685:10735   */\n      mstore\n        /* \"#utility.yul\":10764:10768   */\n      0x20\n        /* \"#utility.yul\":10759:10762   */\n      dup5\n        /* \"#utility.yul\":10755:10769   */\n      add\n        /* \"#utility.yul\":10748:10769   */\n      swap4\n      pop\n        /* \"#utility.yul\":10635:10779   */\n      pop\n        /* \"#utility.yul\":10619:10623   */\n      0x20\n        /* \"#utility.yul\":10614:10617   */\n      dup2\n        /* \"#utility.yul\":10610:10624   */\n      add\n        /* \"#utility.yul\":10603:10624   */\n      swap1\n      pop\n        /* \"#utility.yul\":10559:10779   */\n      jump(tag_522)\n    tag_524:\n        /* \"#utility.yul\":10563:10584   */\n      pop\n        /* \"#utility.yul\":10177:10785   */\n      pop\n      pop\n        /* \"#utility.yul\":10075:10785   */\n      swap4\n      swap3\n      pop\n      pop\n      pop\n      jump\t// out\n        /* \"#utility.yul\":10808:11178   */\n    tag_355:\n        /* \"#utility.yul\":10879:10884   */\n      0x00\n        /* \"#utility.yul\":10928:10931   */\n      dup3\n        /* \"#utility.yul\":10921:10925   */\n      0x1f\n        /* \"#utility.yul\":10913:10919   */\n      dup4\n        /* \"#utility.yul\":10909:10926   */\n      add\n        /* \"#utility.yul\":10905:10932   */\n      slt\n        /* \"#utility.yul\":10895:11017   */\n      tag_527\n      jumpi\n        /* \"#utility.yul\":10936:11015   */\n      tag_528\n      tag_341\n      jump\t// in\n    tag_528:\n        /* \"#utility.yul\":10895:11017   */\n    tag_527:\n        /* \"#utility.yul\":11053:11059   */\n      dup2\n        /* \"#utility.yul\":11040:11060   */\n      calldataload\n        /* \"#utility.yul\":11078:11172   */\n      tag_529\n        /* \"#utility.yul\":11168:11171   */\n      dup5\n        /* \"#utility.yul\":11160:11166   */\n      dup3\n        /* \"#utility.yul\":11153:11157   */\n      0x20\n        /* \"#utility.yul\":11145:11151   */\n      dup7\n        /* \"#utility.yul\":11141:11158   */\n      add\n        /* \"#utility.yul\":11078:11172   */\n      tag_354\n      jump\t// in\n    tag_529:\n        /* \"#utility.yul\":11069:11172   */\n      swap2\n      pop\n        /* \"#utility.yul\":10885:11178   */\n      pop\n        /* \"#utility.yul\":10808:11178   */\n      swap3\n      swap2\n      pop\n      pop\n      jump\t// out\n        /* \"#utility.yul\":11184:12078   */\n    tag_45:\n        /* \"#utility.yul\":11302:11308   */\n      0x00\n        /* \"#utility.yul\":11310:11316   */\n      dup1\n        /* \"#utility.yul\":11359:11361   */\n      0x40\n        /* \"#utility.yul\":11347:11356   */\n      dup4\n        /* \"#utility.yul\":11338:11345   */\n      dup6\n        /* \"#utility.yul\":11334:11357   */\n      sub\n        /* \"#utility.yul\":11330:11362   */\n      slt\n        /* \"#utility.yul\":11327:11446   */\n      iszero\n      tag_531\n      jumpi\n        /* \"#utility.yul\":11365:11444   */\n      tag_532\n      tag_321\n      jump\t// in\n    tag_532:\n        /* \"#utility.yul\":11327:11446   */\n    tag_531:\n        /* \"#utility.yul\":11513:11514   */\n      0x00\n        /* \"#utility.yul\":11502:11511   */\n      dup4\n        /* \"#utility.yul\":11498:11515   */\n      add\n        /* \"#utility.yul\":11485:11516   */\n      calldataload\n        /* \"#utility.yul\":11543:11561   */\n      0xffffffffffffffff\n        /* \"#utility.yul\":11535:11541   */\n      dup2\n        /* \"#utility.yul\":11532:11562   */\n      gt\n        /* \"#utility.yul\":11529:11646   */\n      iszero\n      tag_533\n      jumpi\n        /* \"#utility.yul\":11565:11644   */\n      tag_534\n      tag_322\n      jump\t// in\n    tag_534:\n        /* \"#utility.yul\":11529:11646   */\n    tag_533:\n        /* \"#utility.yul\":11670:11748   */\n      tag_535\n        /* \"#utility.yul\":11740:11747   */\n      dup6\n        /* \"#utility.yul\":11731:11737   */\n      dup3\n        /* \"#utility.yul\":11720:11729   */\n      dup7\n        /* \"#utility.yul\":11716:11738   */\n      add\n        /* \"#utility.yul\":11670:11748   */\n      tag_355\n      jump\t// in\n    tag_535:\n        /* \"#utility.yul\":11660:11748   */\n      swap3\n      pop\n        /* \"#utility.yul\":11456:11758   */\n      pop\n        /* \"#utility.yul\":11825:11827   */\n      0x20\n        /* \"#utility.yul\":11814:11823   */\n      dup4\n        /* \"#utility.yul\":11810:11828   */\n      add\n        /* \"#utility.yul\":11797:11829   */\n      calldataload\n        /* \"#utility.yul\":11856:11874   */\n      0xffffffffffffffff\n        /* \"#utility.yul\":11848:11854   */\n      dup2\n        /* \"#utility.yul\":11845:11875   */\n      gt\n        /* \"#utility.yul\":11842:11959   */\n      iszero\n      tag_536\n      jumpi\n        /* \"#utility.yul\":11878:11957   */\n      tag_537\n      tag_322\n      jump\t// in\n    tag_537:\n        /* \"#utility.yul\":11842:11959   */\n    tag_536:\n        /* \"#utility.yul\":11983:12061   */\n      tag_538\n        /* \"#utility.yul\":12053:12060   */\n      dup6\n        /* \"#utility.yul\":12044:12050   */\n      dup3\n        /* \"#utility.yul\":12033:12042   */\n      dup7\n        /* \"#utility.yul\":12029:12051   */\n      add\n        /* \"#utility.yul\":11983:12061   */\n      tag_347\n      jump\t// in\n    tag_538:\n        /* \"#utility.yul\":11973:12061   */\n      swap2\n      pop\n        /* \"#utility.yul\":11768:12071   */\n      pop\n        /* \"#utility.yul\":11184:12078   */\n      swap3\n      pop\n      swap3\n      swap1\n      pop\n      jump\t// out\n        /* \"#utility.yul\":12084:12198   */\n    tag_356:\n        /* \"#utility.yul\":12151:12157   */\n      0x00\n        /* \"#utility.yul\":12185:12190   */\n      dup2\n        /* \"#utility.yul\":12179:12191   */\n      mload\n        /* \"#utility.yul\":12169:12191   */\n      swap1\n      pop\n        /* \"#utility.yul\":12084:12198   */\n      swap2\n      swap1\n      pop\n      jump\t// out\n        /* \"#utility.yul\":12204:12388   */\n    tag_357:\n        /* \"#utility.yul\":12303:12314   */\n      0x00\n        /* \"#utility.yul\":12337:12343   */\n      dup3\n        /* \"#utility.yul\":12332:12335   */\n      dup3\n        /* \"#utility.yul\":12325:12344   */\n      mstore\n        /* \"#utility.yul\":12377:12381   */\n      0x20\n        /* \"#utility.yul\":12372:12375   */\n      dup3\n        /* \"#utility.yul\":12368:12382   */\n      add\n        /* \"#utility.yul\":12353:12382   */\n      swap1\n      pop\n        /* \"#utility.yul\":12204:12388   */\n      swap3\n      swap2\n      pop\n      pop\n      jump\t// out\n        /* \"#utility.yul\":12394:12526   */\n    tag_358:\n        /* \"#utility.yul\":12461:12465   */\n      0x00\n        /* \"#utility.yul\":12484:12487   */\n      dup2\n        /* \"#utility.yul\":12476:12487   */\n      swap1\n      pop\n        /* \"#utility.yul\":12514:12518   */\n      0x20\n        /* \"#utility.yul\":12509:12512   */\n      dup3\n        /* \"#utility.yul\":12505:12519   */\n      add\n        /* \"#utility.yul\":12497:12519   */\n      swap1\n      pop\n        /* \"#utility.yul\":12394:12526   */\n      swap2\n      swap1\n      pop\n      jump\t// out\n        /* \"#utility.yul\":12532:12640   */\n    tag_359:\n        /* \"#utility.yul\":12609:12633   */\n      tag_543\n        /* \"#utility.yul\":12627:12632   */\n      dup2\n        /* \"#utility.yul\":12609:12633   */\n      tag_327\n      jump\t// in\n    tag_543:\n        /* \"#utility.yul\":12604:12607   */\n      dup3\n        /* \"#utility.yul\":12597:12634   */\n      mstore\n        /* \"#utility.yul\":12532:12640   */\n      pop\n      pop\n      jump\t// out\n        /* \"#utility.yul\":12646:12825   */\n    tag_360:\n        /* \"#utility.yul\":12715:12725   */\n      0x00\n        /* \"#utility.yul\":12736:12782   */\n      tag_545\n        /* \"#utility.yul\":12778:12781   */\n      dup4\n        /* \"#utility.yul\":12770:12776   */\n      dup4\n        /* \"#utility.yul\":12736:12782   */\n      tag_359\n      jump\t// in\n    tag_545:\n        /* \"#utility.yul\":12814:12818   */\n      0x20\n        /* \"#utility.yul\":12809:12812   */\n      dup4\n        /* \"#utility.yul\":12805:12819   */\n      add\n        /* \"#utility.yul\":12791:12819   */\n      swap1\n      pop\n        /* \"#utility.yul\":12646:12825   */\n      swap3\n      swap2\n      pop\n      pop\n      jump\t// out\n        /* \"#utility.yul\":12831:12944   */\n    tag_361:\n        /* \"#utility.yul\":12901:12905   */\n      0x00\n        /* \"#utility.yul\":12933:12937   */\n      0x20\n        /* \"#utility.yul\":12928:12931   */\n      dup3\n        /* \"#utility.yul\":12924:12938   */\n      add\n        /* \"#utility.yul\":12916:12938   */\n      swap1\n      pop\n        /* \"#utility.yul\":12831:12944   */\n      swap2\n      swap1\n      pop\n      jump\t// out\n        /* \"#utility.yul\":12980:13712   */\n    tag_362:\n        /* \"#utility.yul\":13099:13102   */\n      0x00\n        /* \"#utility.yul\":13128:13182   */\n      tag_548\n        /* \"#utility.yul\":13176:13181   */\n      dup3\n        /* \"#utility.yul\":13128:13182   */\n      tag_356\n      jump\t// in\n    tag_548:\n        /* \"#utility.yul\":13198:13284   */\n      tag_549\n        /* \"#utility.yul\":13277:13283   */\n      dup2\n        /* \"#utility.yul\":13272:13275   */\n      dup6\n        /* \"#utility.yul\":13198:13284   */\n      tag_357\n      jump\t// in\n    tag_549:\n        /* \"#utility.yul\":13191:13284   */\n      swap4\n      pop\n        /* \"#utility.yul\":13308:13364   */\n      tag_550\n        /* \"#utility.yul\":13358:13363   */\n      dup4\n        /* \"#utility.yul\":13308:13364   */\n      tag_358\n      jump\t// in\n    tag_550:\n        /* \"#utility.yul\":13387:13394   */\n      dup1\n        /* \"#utility.yul\":13418:13419   */\n      0x00\n        /* \"#utility.yul\":13403:13687   */\n    tag_551:\n        /* \"#utility.yul\":13428:13434   */\n      dup4\n        /* \"#utility.yul\":13425:13426   */\n      dup2\n        /* \"#utility.yul\":13422:13435   */\n      lt\n        /* \"#utility.yul\":13403:13687   */\n      iszero\n      tag_553\n      jumpi\n        /* \"#utility.yul\":13504:13510   */\n      dup2\n        /* \"#utility.yul\":13498:13511   */\n      mload\n        /* \"#utility.yul\":13531:13594   */\n      tag_554\n        /* \"#utility.yul\":13590:13593   */\n      dup9\n        /* \"#utility.yul\":13575:13588   */\n      dup3\n        /* \"#utility.yul\":13531:13594   */\n      tag_360\n      jump\t// in\n    tag_554:\n        /* \"#utility.yul\":13524:13594   */\n      swap8\n      pop\n        /* \"#utility.yul\":13617:13677   */\n      tag_555\n        /* \"#utility.yul\":13670:13676   */\n      dup4\n        /* \"#utility.yul\":13617:13677   */\n      tag_361\n      jump\t// in\n    tag_555:\n        /* \"#utility.yul\":13607:13677   */\n      swap3\n      pop\n        /* \"#utility.yul\":13463:13687   */\n      pop\n        /* \"#utility.yul\":13450:13451   */\n      0x01\n        /* \"#utility.yul\":13447:13448   */\n      dup2\n        /* \"#utility.yul\":13443:13452   */\n      add\n        /* \"#utility.yul\":13438:13452   */\n      swap1\n      pop\n        /* \"#utility.yul\":13403:13687   */\n      jump(tag_551)\n    tag_553:\n        /* \"#utility.yul\":13407:13421   */\n      pop\n        /* \"#utility.yul\":13703:13706   */\n      dup6\n        /* \"#utility.yul\":13696:13706   */\n      swap4\n      pop\n        /* \"#utility.yul\":13104:13712   */\n      pop\n      pop\n      pop\n        /* \"#utility.yul\":12980:13712   */\n      swap3\n      swap2\n      pop\n      pop\n      jump\t// out\n        /* \"#utility.yul\":13718:14091   */\n    tag_48:\n        /* \"#utility.yul\":13861:13865   */\n      0x00\n        /* \"#utility.yul\":13899:13901   */\n      0x20\n        /* \"#utility.yul\":13888:13897   */\n      dup3\n        /* \"#utility.yul\":13884:13902   */\n      add\n        /* \"#utility.yul\":13876:13902   */\n      swap1\n      pop\n        /* \"#utility.yul\":13948:13957   */\n      dup2\n        /* \"#utility.yul\":13942:13946   */\n      dup2\n        /* \"#utility.yul\":13938:13958   */\n      sub\n        /* \"#utility.yul\":13934:13935   */\n      0x00\n        /* \"#utility.yul\":13923:13932   */\n      dup4\n        /* \"#utility.yul\":13919:13936   */\n      add\n        /* \"#utility.yul\":13912:13959   */\n      mstore\n        /* \"#utility.yul\":13976:14084   */\n      tag_557\n        /* \"#utility.yul\":14079:14083   */\n      dup2\n        /* \"#utility.yul\":14070:14076   */\n      dup5\n        /* \"#utility.yul\":13976:14084   */\n      tag_362\n      jump\t// in\n    tag_557:\n        /* \"#utility.yul\":13968:14084   */\n      swap1\n      pop\n        /* \"#utility.yul\":13718:14091   */\n      swap3\n      swap2\n      pop\n      pop\n      jump\t// out\n        /* \"#utility.yul\":14097:14213   */\n    tag_363:\n        /* \"#utility.yul\":14167:14188   */\n      tag_559\n        /* \"#utility.yul\":14182:14187   */\n      dup2\n        /* \"#utility.yul\":14167:14188   */\n      tag_334\n      jump\t// in\n    tag_559:\n        /* \"#utility.yul\":14160:14165   */\n      dup2\n        /* \"#utility.yul\":14157:14189   */\n      eq\n        /* \"#utility.yul\":14147:14207   */\n      tag_560\n      jumpi\n        /* \"#utility.yul\":14203:14204   */\n      0x00\n        /* \"#utility.yul\":14200:14201   */\n      dup1\n        /* \"#utility.yul\":14193:14205   */\n      revert\n        /* \"#utility.yul\":14147:14207   */\n    tag_560:\n        /* \"#utility.yul\":14097:14213   */\n      pop\n      jump\t// out\n        /* \"#utility.yul\":14219:14352   */\n    tag_364:\n        /* \"#utility.yul\":14262:14267   */\n      0x00\n        /* \"#utility.yul\":14300:14306   */\n      dup2\n        /* \"#utility.yul\":14287:14307   */\n      calldataload\n        /* \"#utility.yul\":14278:14307   */\n      swap1\n      pop\n        /* \"#utility.yul\":14316:14346   */\n      tag_562\n        /* \"#utility.yul\":14340:14345   */\n      dup2\n        /* \"#utility.yul\":14316:14346   */\n      tag_363\n      jump\t// in\n    tag_562:\n        /* \"#utility.yul\":14219:14352   */\n      swap3\n      swap2\n      pop\n      pop\n      jump\t// out\n        /* \"#utility.yul\":14358:14826   */\n    tag_54:\n        /* \"#utility.yul\":14423:14429   */\n      0x00\n        /* \"#utility.yul\":14431:14437   */\n      dup1\n        /* \"#utility.yul\":14480:14482   */\n      0x40\n        /* \"#utility.yul\":14468:14477   */\n      dup4\n        /* \"#utility.yul\":14459:14466   */\n      dup6\n        /* \"#utility.yul\":14455:14478   */\n      sub\n        /* \"#utility.yul\":14451:14483   */\n      slt\n        /* \"#utility.yul\":14448:14567   */\n      iszero\n      tag_564\n      jumpi\n        /* \"#utility.yul\":14486:14565   */\n      tag_565\n      tag_321\n      jump\t// in\n    tag_565:\n        /* \"#utility.yul\":14448:14567   */\n    tag_564:\n        /* \"#utility.yul\":14606:14607   */\n      0x00\n        /* \"#utility.yul\":14631:14684   */\n      tag_566\n        /* \"#utility.yul\":14676:14683   */\n      dup6\n        /* \"#utility.yul\":14667:14673   */\n      dup3\n        /* \"#utility.yul\":14656:14665   */\n      dup7\n        /* \"#utility.yul\":14652:14674   */\n      add\n        /* \"#utility.yul\":14631:14684   */\n      tag_326\n      jump\t// in\n    tag_566:\n        /* \"#utility.yul\":14621:14684   */\n      swap3\n      pop\n        /* \"#utility.yul\":14577:14694   */\n      pop\n        /* \"#utility.yul\":14733:14735   */\n      0x20\n        /* \"#utility.yul\":14759:14809   */\n      tag_567\n        /* \"#utility.yul\":14801:14808   */\n      dup6\n        /* \"#utility.yul\":14792:14798   */\n      dup3\n        /* \"#utility.yul\":14781:14790   */\n      dup7\n        /* \"#utility.yul\":14777:14799   */\n      add\n        /* \"#utility.yul\":14759:14809   */\n      tag_364\n      jump\t// in\n    tag_567:\n        /* \"#utility.yul\":14749:14809   */\n      swap2\n      pop\n        /* \"#utility.yul\":14704:14819   */\n      pop\n        /* \"#utility.yul\":14358:14826   */\n      swap3\n      pop\n      swap3\n      swap1\n      pop\n      jump\t// out\n        /* \"#utility.yul\":14832:15161   */\n    tag_61:\n        /* \"#utility.yul\":14891:14897   */\n      0x00\n        /* \"#utility.yul\":14940:14942   */\n      0x20\n        /* \"#utility.yul\":14928:14937   */\n      dup3\n        /* \"#utility.yul\":14919:14926   */\n      dup5\n        /* \"#utility.yul\":14915:14938   */\n      sub\n        /* \"#utility.yul\":14911:14943   */\n      slt\n        /* \"#utility.yul\":14908:15027   */\n      iszero\n      tag_569\n      jumpi\n        /* \"#utility.yul\":14946:15025   */\n      tag_570\n      tag_321\n      jump\t// in\n    tag_570:\n        /* \"#utility.yul\":14908:15027   */\n    tag_569:\n        /* \"#utility.yul\":15066:15067   */\n      0x00\n        /* \"#utility.yul\":15091:15144   */\n      tag_571\n        /* \"#utility.yul\":15136:15143   */\n      dup5\n        /* \"#utility.yul\":15127:15133   */\n      dup3\n        /* \"#utility.yul\":15116:15125   */\n      dup6\n        /* \"#utility.yul\":15112:15134   */\n      add\n        /* \"#utility.yul\":15091:15144   */\n      tag_329\n      jump\t// in\n    tag_571:\n        /* \"#utility.yul\":15081:15144   */\n      swap2\n      pop\n        /* \"#utility.yul\":15037:15154   */\n      pop\n        /* \"#utility.yul\":14832:15161   */\n      swap3\n      swap2\n      pop\n      pop\n      jump\t// out\n        /* \"#utility.yul\":15167:15285   */\n    tag_365:\n        /* \"#utility.yul\":15254:15278   */\n      tag_573\n        /* \"#utility.yul\":15272:15277   */\n      dup2\n        /* \"#utility.yul\":15254:15278   */\n      tag_324\n      jump\t// in\n    tag_573:\n        /* \"#utility.yul\":15249:15252   */\n      dup3\n        /* \"#utility.yul\":15242:15279   */\n      mstore\n        /* \"#utility.yul\":15167:15285   */\n      pop\n      pop\n      jump\t// out\n        /* \"#utility.yul\":15291:15513   */\n    tag_72:\n        /* \"#utility.yul\":15384:15388   */\n      0x00\n        /* \"#utility.yul\":15422:15424   */\n      0x20\n        /* \"#utility.yul\":15411:15420   */\n      dup3\n        /* \"#utility.yul\":15407:15425   */\n      add\n        /* \"#utility.yul\":15399:15425   */\n      swap1\n      pop\n        /* \"#utility.yul\":15435:15506   */\n      tag_575\n        /* \"#utility.yul\":15503:15504   */\n      0x00\n        /* \"#utility.yul\":15492:15501   */\n      dup4\n        /* \"#utility.yul\":15488:15505   */\n      add\n        /* \"#utility.yul\":15479:15485   */\n      dup5\n        /* \"#utility.yul\":15435:15506   */\n      tag_365\n      jump\t// in\n    tag_575:\n        /* \"#utility.yul\":15291:15513   */\n      swap3\n      swap2\n      pop\n      pop\n      jump\t// out\n        /* \"#utility.yul\":15519:15993   */\n    tag_75:\n        /* \"#utility.yul\":15587:15593   */\n      0x00\n        /* \"#utility.yul\":15595:15601   */\n      dup1\n        /* \"#utility.yul\":15644:15646   */\n      0x40\n        /* \"#utility.yul\":15632:15641   */\n      dup4\n        /* \"#utility.yul\":15623:15630   */\n      dup6\n        /* \"#utility.yul\":15619:15642   */\n      sub\n        /* \"#utility.yul\":15615:15647   */\n      slt\n        /* \"#utility.yul\":15612:15731   */\n      iszero\n      tag_577\n      jumpi\n        /* \"#utility.yul\":15650:15729   */\n      tag_578\n      tag_321\n      jump\t// in\n    tag_578:\n        /* \"#utility.yul\":15612:15731   */\n    tag_577:\n        /* \"#utility.yul\":15770:15771   */\n      0x00\n        /* \"#utility.yul\":15795:15848   */\n      tag_579\n        /* \"#utility.yul\":15840:15847   */\n      dup6\n        /* \"#utility.yul\":15831:15837   */\n      dup3\n        /* \"#utility.yul\":15820:15829   */\n      dup7\n        /* \"#utility.yul\":15816:15838   */\n      add\n        /* \"#utility.yul\":15795:15848   */\n      tag_326\n      jump\t// in\n    tag_579:\n        /* \"#utility.yul\":15785:15848   */\n      swap3\n      pop\n        /* \"#utility.yul\":15741:15858   */\n      pop\n        /* \"#utility.yul\":15897:15899   */\n      0x20\n        /* \"#utility.yul\":15923:15976   */\n      tag_580\n        /* \"#utility.yul\":15968:15975   */\n      dup6\n        /* \"#utility.yul\":15959:15965   */\n      dup3\n        /* \"#utility.yul\":15948:15957   */\n      dup7\n        /* \"#utility.yul\":15944:15966   */\n      add\n        /* \"#utility.yul\":15923:15976   */\n      tag_326\n      jump\t// in\n    tag_580:\n        /* \"#utility.yul\":15913:15976   */\n      swap2\n      pop\n        /* \"#utility.yul\":15868:15986   */\n      pop\n        /* \"#utility.yul\":15519:15993   */\n      swap3\n      pop\n      swap3\n      swap1\n      pop\n      jump\t// out\n        /* \"#utility.yul\":15999:17088   */\n    tag_80:\n        /* \"#utility.yul\":16103:16109   */\n      0x00\n        /* \"#utility.yul\":16111:16117   */\n      dup1\n        /* \"#utility.yul\":16119:16125   */\n      0x00\n        /* \"#utility.yul\":16127:16133   */\n      dup1\n        /* \"#utility.yul\":16135:16141   */\n      0x00\n        /* \"#utility.yul\":16184:16187   */\n      0xa0\n        /* \"#utility.yul\":16172:16181   */\n      dup7\n        /* \"#utility.yul\":16163:16170   */\n      dup9\n        /* \"#utility.yul\":16159:16182   */\n      sub\n        /* \"#utility.yul\":16155:16188   */\n      slt\n        /* \"#utility.yul\":16152:16272   */\n      iszero\n      tag_582\n      jumpi\n        /* \"#utility.yul\":16191:16270   */\n      tag_583\n      tag_321\n      jump\t// in\n    tag_583:\n        /* \"#utility.yul\":16152:16272   */\n    tag_582:\n        /* \"#utility.yul\":16311:16312   */\n      0x00\n        /* \"#utility.yul\":16336:16389   */\n      tag_584\n        /* \"#utility.yul\":16381:16388   */\n      dup9\n        /* \"#utility.yul\":16372:16378   */\n      dup3\n        /* \"#utility.yul\":16361:16370   */\n      dup10\n        /* \"#utility.yul\":16357:16379   */\n      add\n        /* \"#utility.yul\":16336:16389   */\n      tag_326\n      jump\t// in\n    tag_584:\n        /* \"#utility.yul\":16326:16389   */\n      swap6\n      pop\n        /* \"#utility.yul\":16282:16399   */\n      pop\n        /* \"#utility.yul\":16438:16440   */\n      0x20\n        /* \"#utility.yul\":16464:16517   */\n      tag_585\n        /* \"#utility.yul\":16509:16516   */\n      dup9\n        /* \"#utility.yul\":16500:16506   */\n      dup3\n        /* \"#utility.yul\":16489:16498   */\n      dup10\n        /* \"#utility.yul\":16485:16507   */\n      add\n        /* \"#utility.yul\":16464:16517   */\n      tag_326\n      jump\t// in\n    tag_585:\n        /* \"#utility.yul\":16454:16517   */\n      swap5\n      pop\n        /* \"#utility.yul\":16409:16527   */\n      pop\n        /* \"#utility.yul\":16566:16568   */\n      0x40\n        /* \"#utility.yul\":16592:16645   */\n      tag_586\n        /* \"#utility.yul\":16637:16644   */\n      dup9\n        /* \"#utility.yul\":16628:16634   */\n      dup3\n        /* \"#utility.yul\":16617:16626   */\n      dup10\n        /* \"#utility.yul\":16613:16635   */\n      add\n        /* \"#utility.yul\":16592:16645   */\n      tag_329\n      jump\t// in\n    tag_586:\n        /* \"#utility.yul\":16582:16645   */\n      swap4\n      pop\n        /* \"#utility.yul\":16537:16655   */\n      pop\n        /* \"#utility.yul\":16694:16696   */\n      0x60\n        /* \"#utility.yul\":16720:16773   */\n      tag_587\n        /* \"#utility.yul\":16765:16772   */\n      dup9\n        /* \"#utility.yul\":16756:16762   */\n      dup3\n        /* \"#utility.yul\":16745:16754   */\n      dup10\n        /* \"#utility.yul\":16741:16763   */\n      add\n        /* \"#utility.yul\":16720:16773   */\n      tag_329\n      jump\t// in\n    tag_587:\n        /* \"#utility.yul\":16710:16773   */\n      swap3\n      pop\n        /* \"#utility.yul\":16665:16783   */\n      pop\n        /* \"#utility.yul\":16850:16853   */\n      0x80\n        /* \"#utility.yul\":16839:16848   */\n      dup7\n        /* \"#utility.yul\":16835:16854   */\n      add\n        /* \"#utility.yul\":16822:16855   */\n      calldataload\n        /* \"#utility.yul\":16882:16900   */\n      0xffffffffffffffff\n        /* \"#utility.yul\":16874:16880   */\n      dup2\n        /* \"#utility.yul\":16871:16901   */\n      gt\n        /* \"#utility.yul\":16868:16985   */\n      iszero\n      tag_588\n      jumpi\n        /* \"#utility.yul\":16904:16983   */\n      tag_589\n      tag_322\n      jump\t// in\n    tag_589:\n        /* \"#utility.yul\":16868:16985   */\n    tag_588:\n        /* \"#utility.yul\":17009:17071   */\n      tag_590\n        /* \"#utility.yul\":17063:17070   */\n      dup9\n        /* \"#utility.yul\":17054:17060   */\n      dup3\n        /* \"#utility.yul\":17043:17052   */\n      dup10\n        /* \"#utility.yul\":17039:17061   */\n      add\n        /* \"#utility.yul\":17009:17071   */\n      tag_352\n      jump\t// in\n    tag_590:\n        /* \"#utility.yul\":16999:17071   */\n      swap2\n      pop\n        /* \"#utility.yul\":16793:17081   */\n      pop\n        /* \"#utility.yul\":15999:17088   */\n      swap3\n      swap6\n      pop\n      swap3\n      swap6\n      swap1\n      swap4\n      pop\n      jump\t// out\n        /* \"#utility.yul\":17094:17333   */\n    tag_366:\n        /* \"#utility.yul\":17234:17268   */\n      0x455243313135354d657461646174613a2062616c616e63652071756572792066\n        /* \"#utility.yul\":17230:17231   */\n      0x00\n        /* \"#utility.yul\":17222:17228   */\n      dup3\n        /* \"#utility.yul\":17218:17232   */\n      add\n        /* \"#utility.yul\":17211:17269   */\n      mstore\n        /* \"#utility.yul\":17303:17325   */\n      0x6f72206e6f6e6578697374656e7420746f6b656e000000000000000000000000\n        /* \"#utility.yul\":17298:17300   */\n      0x20\n        /* \"#utility.yul\":17290:17296   */\n      dup3\n        /* \"#utility.yul\":17286:17301   */\n      add\n        /* \"#utility.yul\":17279:17326   */\n      mstore\n        /* \"#utility.yul\":17094:17333   */\n      pop\n      jump\t// out\n        /* \"#utility.yul\":17339:17705   */\n    tag_367:\n        /* \"#utility.yul\":17481:17484   */\n      0x00\n        /* \"#utility.yul\":17502:17569   */\n      tag_593\n        /* \"#utility.yul\":17566:17568   */\n      0x34\n        /* \"#utility.yul\":17561:17564   */\n      dup4\n        /* \"#utility.yul\":17502:17569   */\n      tag_337\n      jump\t// in\n    tag_593:\n        /* \"#utility.yul\":17495:17569   */\n      swap2\n      pop\n        /* \"#utility.yul\":17578:17671   */\n      tag_594\n        /* \"#utility.yul\":17667:17670   */\n      dup3\n        /* \"#utility.yul\":17578:17671   */\n      tag_366\n      jump\t// in\n    tag_594:\n        /* \"#utility.yul\":17696:17698   */\n      0x40\n        /* \"#utility.yul\":17691:17694   */\n      dup3\n        /* \"#utility.yul\":17687:17699   */\n      add\n        /* \"#utility.yul\":17680:17699   */\n      swap1\n      pop\n        /* \"#utility.yul\":17339:17705   */\n      swap2\n      swap1\n      pop\n      jump\t// out\n        /* \"#utility.yul\":17711:18130   */\n    tag_87:\n        /* \"#utility.yul\":17877:17881   */\n      0x00\n        /* \"#utility.yul\":17915:17917   */\n      0x20\n        /* \"#utility.yul\":17904:17913   */\n      dup3\n        /* \"#utility.yul\":17900:17918   */\n      add\n        /* \"#utility.yul\":17892:17918   */\n      swap1\n      pop\n        /* \"#utility.yul\":17964:17973   */\n      dup2\n        /* \"#utility.yul\":17958:17962   */\n      dup2\n        /* \"#utility.yul\":17954:17974   */\n      sub\n        /* \"#utility.yul\":17950:17951   */\n      0x00\n        /* \"#utility.yul\":17939:17948   */\n      dup4\n        /* \"#utility.yul\":17935:17952   */\n      add\n        /* \"#utility.yul\":17928:17975   */\n      mstore\n        /* \"#utility.yul\":17992:18123   */\n      tag_596\n        /* \"#utility.yul\":18118:18122   */\n      dup2\n        /* \"#utility.yul\":17992:18123   */\n      tag_367\n      jump\t// in\n    tag_596:\n        /* \"#utility.yul\":17984:18123   */\n      swap1\n      pop\n        /* \"#utility.yul\":17711:18130   */\n      swap2\n      swap1\n      pop\n      jump\t// out\n        /* \"#utility.yul\":18136:18366   */\n    tag_368:\n        /* \"#utility.yul\":18276:18310   */\n      0x455243313135353a2062616c616e636520717565727920666f7220746865207a\n        /* \"#utility.yul\":18272:18273   */\n      0x00\n        /* \"#utility.yul\":18264:18270   */\n      dup3\n        /* \"#utility.yul\":18260:18274   */\n      add\n        /* \"#utility.yul\":18253:18311   */\n      mstore\n        /* \"#utility.yul\":18345:18358   */\n      0x65726f2061646472657373000000000000000000000000000000000000000000\n        /* \"#utility.yul\":18340:18342   */\n      0x20\n        /* \"#utility.yul\":18332:18338   */\n      dup3\n        /* \"#utility.yul\":18328:18343   */\n      add\n        /* \"#utility.yul\":18321:18359   */\n      mstore\n        /* \"#utility.yul\":18136:18366   */\n      pop\n      jump\t// out\n        /* \"#utility.yul\":18372:18738   */\n    tag_369:\n        /* \"#utility.yul\":18514:18517   */\n      0x00\n        /* \"#utility.yul\":18535:18602   */\n      tag_599\n        /* \"#utility.yul\":18599:18601   */\n      0x2b\n        /* \"#utility.yul\":18594:18597   */\n      dup4\n        /* \"#utility.yul\":18535:18602   */\n      tag_337\n      jump\t// in\n    tag_599:\n        /* \"#utility.yul\":18528:18602   */\n      swap2\n      pop\n        /* \"#utility.yul\":18611:18704   */\n      tag_600\n        /* \"#utility.yul\":18700:18703   */\n      dup3\n        /* \"#utility.yul\":18611:18704   */\n      tag_368\n      jump\t// in\n    tag_600:\n        /* \"#utility.yul\":18729:18731   */\n      0x40\n        /* \"#utility.yul\":18724:18727   */\n      dup3\n        /* \"#utility.yul\":18720:18732   */\n      add\n        /* \"#utility.yul\":18713:18732   */\n      swap1\n      pop\n        /* \"#utility.yul\":18372:18738   */\n      swap2\n      swap1\n      pop\n      jump\t// out\n        /* \"#utility.yul\":18744:19163   */\n    tag_90:\n        /* \"#utility.yul\":18910:18914   */\n      0x00\n        /* \"#utility.yul\":18948:18950   */\n      0x20\n        /* \"#utility.yul\":18937:18946   */\n      dup3\n        /* \"#utility.yul\":18933:18951   */\n      add\n        /* \"#utility.yul\":18925:18951   */\n      swap1\n      pop\n        /* \"#utility.yul\":18997:19006   */\n      dup2\n        /* \"#utility.yul\":18991:18995   */\n      dup2\n        /* \"#utility.yul\":18987:19007   */\n      sub\n        /* \"#utility.yul\":18983:18984   */\n      0x00\n        /* \"#utility.yul\":18972:18981   */\n      dup4\n        /* \"#utility.yul\":18968:18985   */\n      add\n        /* \"#utility.yul\":18961:19008   */\n      mstore\n        /* \"#utility.yul\":19025:19156   */\n      tag_602\n        /* \"#utility.yul\":19151:19155   */\n      dup2\n        /* \"#utility.yul\":19025:19156   */\n      tag_369\n      jump\t// in\n    tag_602:\n        /* \"#utility.yul\":19017:19156   */\n      swap1\n      pop\n        /* \"#utility.yul\":18744:19163   */\n      swap2\n      swap1\n      pop\n      jump\t// out\n        /* \"#utility.yul\":19169:19349   */\n    tag_370:\n        /* \"#utility.yul\":19217:19294   */\n      0x4e487b7100000000000000000000000000000000000000000000000000000000\n        /* \"#utility.yul\":19214:19215   */\n      0x00\n        /* \"#utility.yul\":19207:19295   */\n      mstore\n        /* \"#utility.yul\":19314:19318   */\n      0x22\n        /* \"#utility.yul\":19311:19312   */\n      0x04\n        /* \"#utility.yul\":19304:19319   */\n      mstore\n        /* \"#utility.yul\":19338:19342   */\n      0x24\n        /* \"#utility.yul\":19335:19336   */\n      0x00\n        /* \"#utility.yul\":19328:19343   */\n      revert\n        /* \"#utility.yul\":19355:19675   */\n    tag_94:\n        /* \"#utility.yul\":19399:19405   */\n      0x00\n        /* \"#utility.yul\":19436:19437   */\n      0x02\n        /* \"#utility.yul\":19430:19434   */\n      dup3\n        /* \"#utility.yul\":19426:19438   */\n      div\n        /* \"#utility.yul\":19416:19438   */\n      swap1\n      pop\n        /* \"#utility.yul\":19483:19484   */\n      0x01\n        /* \"#utility.yul\":19477:19481   */\n      dup3\n        /* \"#utility.yul\":19473:19485   */\n      and\n        /* \"#utility.yul\":19504:19522   */\n      dup1\n        /* \"#utility.yul\":19494:19575   */\n      tag_605\n      jumpi\n        /* \"#utility.yul\":19560:19564   */\n      0x7f\n        /* \"#utility.yul\":19552:19558   */\n      dup3\n        /* \"#utility.yul\":19548:19565   */\n      and\n        /* \"#utility.yul\":19538:19565   */\n      swap2\n      pop\n        /* \"#utility.yul\":19494:19575   */\n    tag_605:\n        /* \"#utility.yul\":19622:19624   */\n      0x20\n        /* \"#utility.yul\":19614:19620   */\n      dup3\n        /* \"#utility.yul\":19611:19625   */\n      lt\n        /* \"#utility.yul\":19591:19609   */\n      dup2\n        /* \"#utility.yul\":19588:19626   */\n      sub\n        /* \"#utility.yul\":19585:19669   */\n      tag_606\n      jumpi\n        /* \"#utility.yul\":19641:19659   */\n      tag_607\n      tag_370\n      jump\t// in\n    tag_607:\n        /* \"#utility.yul\":19585:19669   */\n    tag_606:\n        /* \"#utility.yul\":19406:19675   */\n      pop\n        /* \"#utility.yul\":19355:19675   */\n      swap2\n      swap1\n      pop\n      jump\t// out\n        /* \"#utility.yul\":19681:19908   */\n    tag_371:\n        /* \"#utility.yul\":19821:19855   */\n      0x455243313135353a2069647320616e6420616d6f756e7473206c656e67746820\n        /* \"#utility.yul\":19817:19818   */\n      0x00\n        /* \"#utility.yul\":19809:19815   */\n      dup3\n        /* \"#utility.yul\":19805:19819   */\n      add\n        /* \"#utility.yul\":19798:19856   */\n      mstore\n        /* \"#utility.yul\":19890:19900   */\n      0x6d69736d61746368000000000000000000000000000000000000000000000000\n        /* \"#utility.yul\":19885:19887   */\n      0x20\n        /* \"#utility.yul\":19877:19883   */\n      dup3\n        /* \"#utility.yul\":19873:19888   */\n      add\n        /* \"#utility.yul\":19866:19901   */\n      mstore\n        /* \"#utility.yul\":19681:19908   */\n      pop\n      jump\t// out\n        /* \"#utility.yul\":19914:20280   */\n    tag_372:\n        /* \"#utility.yul\":20056:20059   */\n      0x00\n        /* \"#utility.yul\":20077:20144   */\n      tag_610\n        /* \"#utility.yul\":20141:20143   */\n      0x28\n        /* \"#utility.yul\":20136:20139   */\n      dup4\n        /* \"#utility.yul\":20077:20144   */\n      tag_337\n      jump\t// in\n    tag_610:\n        /* \"#utility.yul\":20070:20144   */\n      swap2\n      pop\n        /* \"#utility.yul\":20153:20246   */\n      tag_611\n        /* \"#utility.yul\":20242:20245   */\n      dup3\n        /* \"#utility.yul\":20153:20246   */\n      tag_371\n      jump\t// in\n    tag_611:\n        /* \"#utility.yul\":20271:20273   */\n      0x40\n        /* \"#utility.yul\":20266:20269   */\n      dup3\n        /* \"#utility.yul\":20262:20274   */\n      add\n        /* \"#utility.yul\":20255:20274   */\n      swap1\n      pop\n        /* \"#utility.yul\":19914:20280   */\n      swap2\n      swap1\n      pop\n      jump\t// out\n        /* \"#utility.yul\":20286:20705   */\n    tag_105:\n        /* \"#utility.yul\":20452:20456   */\n      0x00\n        /* \"#utility.yul\":20490:20492   */\n      0x20\n        /* \"#utility.yul\":20479:20488   */\n      dup3\n        /* \"#utility.yul\":20475:20493   */\n      add\n        /* \"#utility.yul\":20467:20493   */\n      swap1\n      pop\n        /* \"#utility.yul\":20539:20548   */\n      dup2\n        /* \"#utility.yul\":20533:20537   */\n      dup2\n        /* \"#utility.yul\":20529:20549   */\n      sub\n        /* \"#utility.yul\":20525:20526   */\n      0x00\n        /* \"#utility.yul\":20514:20523   */\n      dup4\n        /* \"#utility.yul\":20510:20527   */\n      add\n        /* \"#utility.yul\":20503:20550   */\n      mstore\n        /* \"#utility.yul\":20567:20698   */\n      tag_613\n        /* \"#utility.yul\":20693:20697   */\n      dup2\n        /* \"#utility.yul\":20567:20698   */\n      tag_372\n      jump\t// in\n    tag_613:\n        /* \"#utility.yul\":20559:20698   */\n      swap1\n      pop\n        /* \"#utility.yul\":20286:20705   */\n      swap2\n      swap1\n      pop\n      jump\t// out\n        /* \"#utility.yul\":20711:20935   */\n    tag_373:\n        /* \"#utility.yul\":20851:20885   */\n      0x455243313135353a207472616e7366657220746f20746865207a65726f206164\n        /* \"#utility.yul\":20847:20848   */\n      0x00\n        /* \"#utility.yul\":20839:20845   */\n      dup3\n        /* \"#utility.yul\":20835:20849   */\n      add\n        /* \"#utility.yul\":20828:20886   */\n      mstore\n        /* \"#utility.yul\":20920:20927   */\n      0x6472657373000000000000000000000000000000000000000000000000000000\n        /* \"#utility.yul\":20915:20917   */\n      0x20\n        /* \"#utility.yul\":20907:20913   */\n      dup3\n        /* \"#utility.yul\":20903:20918   */\n      add\n        /* \"#utility.yul\":20896:20928   */\n      mstore\n        /* \"#utility.yul\":20711:20935   */\n      pop\n      jump\t// out\n        /* \"#utility.yul\":20941:21307   */\n    tag_374:\n        /* \"#utility.yul\":21083:21086   */\n      0x00\n        /* \"#utility.yul\":21104:21171   */\n      tag_616\n        /* \"#utility.yul\":21168:21170   */\n      0x25\n        /* \"#utility.yul\":21163:21166   */\n      dup4\n        /* \"#utility.yul\":21104:21171   */\n      tag_337\n      jump\t// in\n    tag_616:\n        /* \"#utility.yul\":21097:21171   */\n      swap2\n      pop\n        /* \"#utility.yul\":21180:21273   */\n      tag_617\n        /* \"#utility.yul\":21269:21272   */\n      dup3\n        /* \"#utility.yul\":21180:21273   */\n      tag_373\n      jump\t// in\n    tag_617:\n        /* \"#utility.yul\":21298:21300   */\n      0x40\n        /* \"#utility.yul\":21293:21296   */\n      dup3\n        /* \"#utility.yul\":21289:21301   */\n      add\n        /* \"#utility.yul\":21282:21301   */\n      swap1\n      pop\n        /* \"#utility.yul\":20941:21307   */\n      swap2\n      swap1\n      pop\n      jump\t// out\n        /* \"#utility.yul\":21313:21732   */\n    tag_108:\n        /* \"#utility.yul\":21479:21483   */\n      0x00\n        /* \"#utility.yul\":21517:21519   */\n      0x20\n        /* \"#utility.yul\":21506:21515   */\n      dup3\n        /* \"#utility.yul\":21502:21520   */\n      add\n        /* \"#utility.yul\":21494:21520   */\n      swap1\n      pop\n        /* \"#utility.yul\":21566:21575   */\n      dup2\n        /* \"#utility.yul\":21560:21564   */\n      dup2\n        /* \"#utility.yul\":21556:21576   */\n      sub\n        /* \"#utility.yul\":21552:21553   */\n      0x00\n        /* \"#utility.yul\":21541:21550   */\n      dup4\n        /* \"#utility.yul\":21537:21554   */\n      add\n        /* \"#utility.yul\":21530:21577   */\n      mstore\n        /* \"#utility.yul\":21594:21725   */\n      tag_619\n        /* \"#utility.yul\":21720:21724   */\n      dup2\n        /* \"#utility.yul\":21594:21725   */\n      tag_374\n      jump\t// in\n    tag_619:\n        /* \"#utility.yul\":21586:21725   */\n      swap1\n      pop\n        /* \"#utility.yul\":21313:21732   */\n      swap2\n      swap1\n      pop\n      jump\t// out\n        /* \"#utility.yul\":21738:21975   */\n    tag_375:\n        /* \"#utility.yul\":21878:21912   */\n      0x455243313135353a207472616e736665722063616c6c6572206973206e6f7420\n        /* \"#utility.yul\":21874:21875   */\n      0x00\n        /* \"#utility.yul\":21866:21872   */\n      dup3\n        /* \"#utility.yul\":21862:21876   */\n      add\n        /* \"#utility.yul\":21855:21913   */\n      mstore\n        /* \"#utility.yul\":21947:21967   */\n      0x6f776e6572206e6f7220617070726f7665640000000000000000000000000000\n        /* \"#utility.yul\":21942:21944   */\n      0x20\n        /* \"#utility.yul\":21934:21940   */\n      dup3\n        /* \"#utility.yul\":21930:21945   */\n      add\n        /* \"#utility.yul\":21923:21968   */\n      mstore\n        /* \"#utility.yul\":21738:21975   */\n      pop\n      jump\t// out\n        /* \"#utility.yul\":21981:22347   */\n    tag_376:\n        /* \"#utility.yul\":22123:22126   */\n      0x00\n        /* \"#utility.yul\":22144:22211   */\n      tag_622\n        /* \"#utility.yul\":22208:22210   */\n      0x32\n        /* \"#utility.yul\":22203:22206   */\n      dup4\n        /* \"#utility.yul\":22144:22211   */\n      tag_337\n      jump\t// in\n    tag_622:\n        /* \"#utility.yul\":22137:22211   */\n      swap2\n      pop\n        /* \"#utility.yul\":22220:22313   */\n      tag_623\n        /* \"#utility.yul\":22309:22312   */\n      dup3\n        /* \"#utility.yul\":22220:22313   */\n      tag_375\n      jump\t// in\n    tag_623:\n        /* \"#utility.yul\":22338:22340   */\n      0x40\n        /* \"#utility.yul\":22333:22336   */\n      dup3\n        /* \"#utility.yul\":22329:22341   */\n      add\n        /* \"#utility.yul\":22322:22341   */\n      swap1\n      pop\n        /* \"#utility.yul\":21981:22347   */\n      swap2\n      swap1\n      pop\n      jump\t// out\n        /* \"#utility.yul\":22353:22772   */\n    tag_116:\n        /* \"#utility.yul\":22519:22523   */\n      0x00\n        /* \"#utility.yul\":22557:22559   */\n      0x20\n        /* \"#utility.yul\":22546:22555   */\n      dup3\n        /* \"#utility.yul\":22542:22560   */\n      add\n        /* \"#utility.yul\":22534:22560   */\n      swap1\n      pop\n        /* \"#utility.yul\":22606:22615   */\n      dup2\n        /* \"#utility.yul\":22600:22604   */\n      dup2\n        /* \"#utility.yul\":22596:22616   */\n      sub\n        /* \"#utility.yul\":22592:22593   */\n      0x00\n        /* \"#utility.yul\":22581:22590   */\n      dup4\n        /* \"#utility.yul\":22577:22594   */\n      add\n        /* \"#utility.yul\":22570:22617   */\n      mstore\n        /* \"#utility.yul\":22634:22765   */\n      tag_625\n        /* \"#utility.yul\":22760:22764   */\n      dup2\n        /* \"#utility.yul\":22634:22765   */\n      tag_376\n      jump\t// in\n    tag_625:\n        /* \"#utility.yul\":22626:22765   */\n      swap1\n      pop\n        /* \"#utility.yul\":22353:22772   */\n      swap2\n      swap1\n      pop\n      jump\t// out\n        /* \"#utility.yul\":22778:22958   */\n    tag_125:\n        /* \"#utility.yul\":22826:22903   */\n      0x4e487b7100000000000000000000000000000000000000000000000000000000\n        /* \"#utility.yul\":22823:22824   */\n      0x00\n        /* \"#utility.yul\":22816:22904   */\n      mstore\n        /* \"#utility.yul\":22923:22927   */\n      0x32\n        /* \"#utility.yul\":22920:22921   */\n      0x04\n        /* \"#utility.yul\":22913:22928   */\n      mstore\n        /* \"#utility.yul\":22947:22951   */\n      0x24\n        /* \"#utility.yul\":22944:22945   */\n      0x00\n        /* \"#utility.yul\":22937:22952   */\n      revert\n        /* \"#utility.yul\":22964:23144   */\n    tag_377:\n        /* \"#utility.yul\":23012:23089   */\n      0x4e487b7100000000000000000000000000000000000000000000000000000000\n        /* \"#utility.yul\":23009:23010   */\n      0x00\n        /* \"#utility.yul\":23002:23090   */\n      mstore\n        /* \"#utility.yul\":23109:23113   */\n      0x11\n        /* \"#utility.yul\":23106:23107   */\n      0x04\n        /* \"#utility.yul\":23099:23114   */\n      mstore\n        /* \"#utility.yul\":23133:23137   */\n      0x24\n        /* \"#utility.yul\":23130:23131   */\n      0x00\n        /* \"#utility.yul\":23123:23138   */\n      revert\n        /* \"#utility.yul\":23150:23383   */\n    tag_133:\n        /* \"#utility.yul\":23189:23192   */\n      0x00\n        /* \"#utility.yul\":23212:23236   */\n      tag_629\n        /* \"#utility.yul\":23230:23235   */\n      dup3\n        /* \"#utility.yul\":23212:23236   */\n      tag_327\n      jump\t// in\n    tag_629:\n        /* \"#utility.yul\":23203:23236   */\n      swap2\n      pop\n        /* \"#utility.yul\":23258:23324   */\n      0xffffffffffffffffffffffffffffffffffffffffffffffffffffffffffffffff\n        /* \"#utility.yul\":23251:23256   */\n      dup3\n        /* \"#utility.yul\":23248:23325   */\n      sub\n        /* \"#utility.yul\":23245:23348   */\n      tag_630\n      jumpi\n        /* \"#utility.yul\":23328:23346   */\n      tag_631\n      tag_377\n      jump\t// in\n    tag_631:\n        /* \"#utility.yul\":23245:23348   */\n    tag_630:\n        /* \"#utility.yul\":23375:23376   */\n      0x01\n        /* \"#utility.yul\":23368:23373   */\n      dup3\n        /* \"#utility.yul\":23364:23377   */\n      add\n        /* \"#utility.yul\":23357:23377   */\n      swap1\n      pop\n        /* \"#utility.yul\":23150:23383   */\n      swap2\n      swap1\n      pop\n      jump\t// out\n        /* \"#utility.yul\":23389:24023   */\n    tag_135:\n        /* \"#utility.yul\":23610:23614   */\n      0x00\n        /* \"#utility.yul\":23648:23650   */\n      0x40\n        /* \"#utility.yul\":23637:23646   */\n      dup3\n        /* \"#utility.yul\":23633:23651   */\n      add\n        /* \"#utility.yul\":23625:23651   */\n      swap1\n      pop\n        /* \"#utility.yul\":23697:23706   */\n      dup2\n        /* \"#utility.yul\":23691:23695   */\n      dup2\n        /* \"#utility.yul\":23687:23707   */\n      sub\n        /* \"#utility.yul\":23683:23684   */\n      0x00\n        /* \"#utility.yul\":23672:23681   */\n      dup4\n        /* \"#utility.yul\":23668:23685   */\n      add\n        /* \"#utility.yul\":23661:23708   */\n      mstore\n        /* \"#utility.yul\":23725:23833   */\n      tag_633\n        /* \"#utility.yul\":23828:23832   */\n      dup2\n        /* \"#utility.yul\":23819:23825   */\n      dup6\n        /* \"#utility.yul\":23725:23833   */\n      tag_362\n      jump\t// in\n    tag_633:\n        /* \"#utility.yul\":23717:23833   */\n      swap1\n      pop\n        /* \"#utility.yul\":23880:23889   */\n      dup2\n        /* \"#utility.yul\":23874:23878   */\n      dup2\n        /* \"#utility.yul\":23870:23890   */\n      sub\n        /* \"#utility.yul\":23865:23867   */\n      0x20\n        /* \"#utility.yul\":23854:23863   */\n      dup4\n        /* \"#utility.yul\":23850:23868   */\n      add\n        /* \"#utility.yul\":23843:23891   */\n      mstore\n        /* \"#utility.yul\":23908:24016   */\n      tag_634\n        /* \"#utility.yul\":24011:24015   */\n      dup2\n        /* \"#utility.yul\":24002:24008   */\n      dup5\n        /* \"#utility.yul\":23908:24016   */\n      tag_362\n      jump\t// in\n    tag_634:\n        /* \"#utility.yul\":23900:24016   */\n      swap1\n      pop\n        /* \"#utility.yul\":23389:24023   */\n      swap4\n      swap3\n      pop\n      pop\n      pop\n      jump\t// out\n        /* \"#utility.yul\":24029:24257   */\n    tag_378:\n        /* \"#utility.yul\":24169:24203   */\n      0x455243313135353a206163636f756e747320616e6420696473206c656e677468\n        /* \"#utility.yul\":24165:24166   */\n      0x00\n        /* \"#utility.yul\":24157:24163   */\n      dup3\n        /* \"#utility.yul\":24153:24167   */\n      add\n        /* \"#utility.yul\":24146:24204   */\n      mstore\n        /* \"#utility.yul\":24238:24249   */\n      0x206d69736d617463680000000000000000000000000000000000000000000000\n        /* \"#utility.yul\":24233:24235   */\n      0x20\n        /* \"#utility.yul\":24225:24231   */\n      dup3\n        /* \"#utility.yul\":24221:24236   */\n      add\n        /* \"#utility.yul\":24214:24250   */\n      mstore\n        /* \"#utility.yul\":24029:24257   */\n      pop\n      jump\t// out\n        /* \"#utility.yul\":24263:24629   */\n    tag_379:\n        /* \"#utility.yul\":24405:24408   */\n      0x00\n        /* \"#utility.yul\":24426:24493   */\n      tag_637\n        /* \"#utility.yul\":24490:24492   */\n      0x29\n        /* \"#utility.yul\":24485:24488   */\n      dup4\n        /* \"#utility.yul\":24426:24493   */\n      tag_337\n      jump\t// in\n    tag_637:\n        /* \"#utility.yul\":24419:24493   */\n      swap2\n      pop\n        /* \"#utility.yul\":24502:24595   */\n      tag_638\n        /* \"#utility.yul\":24591:24594   */\n      dup3\n        /* \"#utility.yul\":24502:24595   */\n      tag_378\n      jump\t// in\n    tag_638:\n        /* \"#utility.yul\":24620:24622   */\n      0x40\n        /* \"#utility.yul\":24615:24618   */\n      dup3\n        /* \"#utility.yul\":24611:24623   */\n      add\n        /* \"#utility.yul\":24604:24623   */\n      swap1\n      pop\n        /* \"#utility.yul\":24263:24629   */\n      swap2\n      swap1\n      pop\n      jump\t// out\n        /* \"#utility.yul\":24635:25054   */\n    tag_141:\n        /* \"#utility.yul\":24801:24805   */\n      0x00\n        /* \"#utility.yul\":24839:24841   */\n      0x20\n        /* \"#utility.yul\":24828:24837   */\n      dup3\n        /* \"#utility.yul\":24824:24842   */\n      add\n        /* \"#utility.yul\":24816:24842   */\n      swap1\n      pop\n        /* \"#utility.yul\":24888:24897   */\n      dup2\n        /* \"#utility.yul\":24882:24886   */\n      dup2\n        /* \"#utility.yul\":24878:24898   */\n      sub\n        /* \"#utility.yul\":24874:24875   */\n      0x00\n        /* \"#utility.yul\":24863:24872   */\n      dup4\n        /* \"#utility.yul\":24859:24876   */\n      add\n        /* \"#utility.yul\":24852:24899   */\n      mstore\n        /* \"#utility.yul\":24916:25047   */\n      tag_640\n        /* \"#utility.yul\":25042:25046   */\n      dup2\n        /* \"#utility.yul\":24916:25047   */\n      tag_379\n      jump\t// in\n    tag_640:\n        /* \"#utility.yul\":24908:25047   */\n      swap1\n      pop\n        /* \"#utility.yul\":24635:25054   */\n      swap2\n      swap1\n      pop\n      jump\t// out\n        /* \"#utility.yul\":25060:25296   */\n    tag_380:\n        /* \"#utility.yul\":25200:25234   */\n      0x455243313135353a2062617463682062616c616e636520717565727920666f72\n        /* \"#utility.yul\":25196:25197   */\n      0x00\n        /* \"#utility.yul\":25188:25194   */\n      dup3\n        /* \"#utility.yul\":25184:25198   */\n      add\n        /* \"#utility.yul\":25177:25235   */\n      mstore\n        /* \"#utility.yul\":25269:25288   */\n      0x20746865207a65726f2061646472657373000000000000000000000000000000\n        /* \"#utility.yul\":25264:25266   */\n      0x20\n        /* \"#utility.yul\":25256:25262   */\n      dup3\n        /* \"#utility.yul\":25252:25267   */\n      add\n        /* \"#utility.yul\":25245:25289   */\n      mstore\n        /* \"#utility.yul\":25060:25296   */\n      pop\n      jump\t// out\n        /* \"#utility.yul\":25302:25668   */\n    tag_381:\n        /* \"#utility.yul\":25444:25447   */\n      0x00\n        /* \"#utility.yul\":25465:25532   */\n      tag_643\n        /* \"#utility.yul\":25529:25531   */\n      0x31\n        /* \"#utility.yul\":25524:25527   */\n      dup4\n        /* \"#utility.yul\":25465:25532   */\n      tag_337\n      jump\t// in\n    tag_643:\n        /* \"#utility.yul\":25458:25532   */\n      swap2\n      pop\n        /* \"#utility.yul\":25541:25634   */\n      tag_644\n        /* \"#utility.yul\":25630:25633   */\n      dup3\n        /* \"#utility.yul\":25541:25634   */\n      tag_380\n      jump\t// in\n    tag_644:\n        /* \"#utility.yul\":25659:25661   */\n      0x40\n        /* \"#utility.yul\":25654:25657   */\n      dup3\n        /* \"#utility.yul\":25650:25662   */\n      add\n        /* \"#utility.yul\":25643:25662   */\n      swap1\n      pop\n        /* \"#utility.yul\":25302:25668   */\n      swap2\n      swap1\n      pop\n      jump\t// out\n        /* \"#utility.yul\":25674:26093   */\n    tag_153:\n        /* \"#utility.yul\":25840:25844   */\n      0x00\n        /* \"#utility.yul\":25878:25880   */\n      0x20\n        /* \"#utility.yul\":25867:25876   */\n      dup3\n        /* \"#utility.yul\":25863:25881   */\n      add\n        /* \"#utility.yul\":25855:25881   */\n      swap1\n      pop\n        /* \"#utility.yul\":25927:25936   */\n      dup2\n        /* \"#utility.yul\":25921:25925   */\n      dup2\n        /* \"#utility.yul\":25917:25937   */\n      sub\n        /* \"#utility.yul\":25913:25914   */\n      0x00\n        /* \"#utility.yul\":25902:25911   */\n      dup4\n        /* \"#utility.yul\":25898:25915   */\n      add\n        /* \"#utility.yul\":25891:25938   */\n      mstore\n        /* \"#utility.yul\":25955:26086   */\n      tag_646\n        /* \"#utility.yul\":26081:26085   */\n      dup2\n        /* \"#utility.yul\":25955:26086   */\n      tag_381\n      jump\t// in\n    tag_646:\n        /* \"#utility.yul\":25947:26086   */\n      swap1\n      pop\n        /* \"#utility.yul\":25674:26093   */\n      swap2\n      swap1\n      pop\n      jump\t// out\n        /* \"#utility.yul\":26099:26327   */\n    tag_382:\n        /* \"#utility.yul\":26239:26273   */\n      0x455243313135353a2073657474696e6720617070726f76616c20737461747573\n        /* \"#utility.yul\":26235:26236   */\n      0x00\n        /* \"#utility.yul\":26227:26233   */\n      dup3\n        /* \"#utility.yul\":26223:26237   */\n      add\n        /* \"#utility.yul\":26216:26274   */\n      mstore\n        /* \"#utility.yul\":26308:26319   */\n      0x20666f722073656c660000000000000000000000000000000000000000000000\n        /* \"#utility.yul\":26303:26305   */\n      0x20\n        /* \"#utility.yul\":26295:26301   */\n      dup3\n        /* \"#utility.yul\":26291:26306   */\n      add\n        /* \"#utility.yul\":26284:26320   */\n      mstore\n        /* \"#utility.yul\":26099:26327   */\n      pop\n      jump\t// out\n        /* \"#utility.yul\":26333:26699   */\n    tag_383:\n        /* \"#utility.yul\":26475:26478   */\n      0x00\n        /* \"#utility.yul\":26496:26563   */\n      tag_649\n        /* \"#utility.yul\":26560:26562   */\n      0x29\n        /* \"#utility.yul\":26555:26558   */\n      dup4\n        /* \"#utility.yul\":26496:26563   */\n      tag_337\n      jump\t// in\n    tag_649:\n        /* \"#utility.yul\":26489:26563   */\n      swap2\n      pop\n        /* \"#utility.yul\":26572:26665   */\n      tag_650\n        /* \"#utility.yul\":26661:26664   */\n      dup3\n        /* \"#utility.yul\":26572:26665   */\n      tag_382\n      jump\t// in\n    tag_650:\n        /* \"#utility.yul\":26690:26692   */\n      0x40\n        /* \"#utility.yul\":26685:26688   */\n      dup3\n        /* \"#utility.yul\":26681:26693   */\n      add\n        /* \"#utility.yul\":26674:26693   */\n      swap1\n      pop\n        /* \"#utility.yul\":26333:26699   */\n      swap2\n      swap1\n      pop\n      jump\t// out\n        /* \"#utility.yul\":26705:27124   */\n    tag_171:\n        /* \"#utility.yul\":26871:26875   */\n      0x00\n        /* \"#utility.yul\":26909:26911   */\n      0x20\n        /* \"#utility.yul\":26898:26907   */\n      dup3\n        /* \"#utility.yul\":26894:26912   */\n      add\n        /* \"#utility.yul\":26886:26912   */\n      swap1\n      pop\n        /* \"#utility.yul\":26958:26967   */\n      dup2\n        /* \"#utility.yul\":26952:26956   */\n      dup2\n        /* \"#utility.yul\":26948:26968   */\n      sub\n        /* \"#utility.yul\":26944:26945   */\n      0x00\n        /* \"#utility.yul\":26933:26942   */\n      dup4\n        /* \"#utility.yul\":26929:26946   */\n      add\n        /* \"#utility.yul\":26922:26969   */\n      mstore\n        /* \"#utility.yul\":26986:27117   */\n      tag_652\n        /* \"#utility.yul\":27112:27116   */\n      dup2\n        /* \"#utility.yul\":26986:27117   */\n      tag_383\n      jump\t// in\n    tag_652:\n        /* \"#utility.yul\":26978:27117   */\n      swap1\n      pop\n        /* \"#utility.yul\":26705:27124   */\n      swap2\n      swap1\n      pop\n      jump\t// out\n        /* \"#utility.yul\":27130:27365   */\n    tag_384:\n        /* \"#utility.yul\":27270:27304   */\n      0x455243313135354d657461646174613a2055524920717565727920666f72206e\n        /* \"#utility.yul\":27266:27267   */\n      0x00\n        /* \"#utility.yul\":27258:27264   */\n      dup3\n        /* \"#utility.yul\":27254:27268   */\n      add\n        /* \"#utility.yul\":27247:27305   */\n      mstore\n        /* \"#utility.yul\":27339:27357   */\n      0x6f6e6578697374656e7420746f6b656e00000000000000000000000000000000\n        /* \"#utility.yul\":27334:27336   */\n      0x20\n        /* \"#utility.yul\":27326:27332   */\n      dup3\n        /* \"#utility.yul\":27322:27337   */\n      add\n        /* \"#utility.yul\":27315:27358   */\n      mstore\n        /* \"#utility.yul\":27130:27365   */\n      pop\n      jump\t// out\n        /* \"#utility.yul\":27371:27737   */\n    tag_385:\n        /* \"#utility.yul\":27513:27516   */\n      0x00\n        /* \"#utility.yul\":27534:27601   */\n      tag_655\n        /* \"#utility.yul\":27598:27600   */\n      0x30\n        /* \"#utility.yul\":27593:27596   */\n      dup4\n        /* \"#utility.yul\":27534:27601   */\n      tag_337\n      jump\t// in\n    tag_655:\n        /* \"#utility.yul\":27527:27601   */\n      swap2\n      pop\n        /* \"#utility.yul\":27610:27703   */\n      tag_656\n        /* \"#utility.yul\":27699:27702   */\n      dup3\n        /* \"#utility.yul\":27610:27703   */\n      tag_384\n      jump\t// in\n    tag_656:\n        /* \"#utility.yul\":27728:27730   */\n      0x40\n        /* \"#utility.yul\":27723:27726   */\n      dup3\n        /* \"#utility.yul\":27719:27731   */\n      add\n        /* \"#utility.yul\":27712:27731   */\n      swap1\n      pop\n        /* \"#utility.yul\":27371:27737   */\n      swap2\n      swap1\n      pop\n      jump\t// out\n        /* \"#utility.yul\":27743:28162   */\n    tag_185:\n        /* \"#utility.yul\":27909:27913   */\n      0x00\n        /* \"#utility.yul\":27947:27949   */\n      0x20\n        /* \"#utility.yul\":27936:27945   */\n      dup3\n        /* \"#utility.yul\":27932:27950   */\n      add\n        /* \"#utility.yul\":27924:27950   */\n      swap1\n      pop\n        /* \"#utility.yul\":27996:28005   */\n      dup2\n        /* \"#utility.yul\":27990:27994   */\n      dup2\n        /* \"#utility.yul\":27986:28006   */\n      sub\n        /* \"#utility.yul\":27982:27983   */\n      0x00\n        /* \"#utility.yul\":27971:27980   */\n      dup4\n        /* \"#utility.yul\":27967:27984   */\n      add\n        /* \"#utility.yul\":27960:28007   */\n      mstore\n        /* \"#utility.yul\":28024:28155   */\n      tag_658\n        /* \"#utility.yul\":28150:28154   */\n      dup2\n        /* \"#utility.yul\":28024:28155   */\n      tag_385\n      jump\t// in\n    tag_658:\n        /* \"#utility.yul\":28016:28155   */\n      swap1\n      pop\n        /* \"#utility.yul\":27743:28162   */\n      swap2\n      swap1\n      pop\n      jump\t// out\n        /* \"#utility.yul\":28168:28316   */\n    tag_386:\n        /* \"#utility.yul\":28270:28281   */\n      0x00\n        /* \"#utility.yul\":28307:28310   */\n      dup2\n        /* \"#utility.yul\":28292:28310   */\n      swap1\n      pop\n        /* \"#utility.yul\":28168:28316   */\n      swap3\n      swap2\n      pop\n      pop\n      jump\t// out\n        /* \"#utility.yul\":28322:28712   */\n    tag_387:\n        /* \"#utility.yul\":28428:28431   */\n      0x00\n        /* \"#utility.yul\":28456:28495   */\n      tag_661\n        /* \"#utility.yul\":28489:28494   */\n      dup3\n        /* \"#utility.yul\":28456:28495   */\n      tag_336\n      jump\t// in\n    tag_661:\n        /* \"#utility.yul\":28511:28600   */\n      tag_662\n        /* \"#utility.yul\":28593:28599   */\n      dup2\n        /* \"#utility.yul\":28588:28591   */\n      dup6\n        /* \"#utility.yul\":28511:28600   */\n      tag_386\n      jump\t// in\n    tag_662:\n        /* \"#utility.yul\":28504:28600   */\n      swap4\n      pop\n        /* \"#utility.yul\":28609:28674   */\n      tag_663\n        /* \"#utility.yul\":28667:28673   */\n      dup2\n        /* \"#utility.yul\":28662:28665   */\n      dup6\n        /* \"#utility.yul\":28655:28659   */\n      0x20\n        /* \"#utility.yul\":28648:28653   */\n      dup7\n        /* \"#utility.yul\":28644:28660   */\n      add\n        /* \"#utility.yul\":28609:28674   */\n      tag_338\n      jump\t// in\n    tag_663:\n        /* \"#utility.yul\":28699:28705   */\n      dup1\n        /* \"#utility.yul\":28694:28697   */\n      dup5\n        /* \"#utility.yul\":28690:28706   */\n      add\n        /* \"#utility.yul\":28683:28706   */\n      swap2\n      pop\n        /* \"#utility.yul\":28432:28712   */\n      pop\n        /* \"#utility.yul\":28322:28712   */\n      swap3\n      swap2\n      pop\n      pop\n      jump\t// out\n        /* \"#utility.yul\":28718:29153   */\n    tag_199:\n        /* \"#utility.yul\":28898:28901   */\n      0x00\n        /* \"#utility.yul\":28920:29015   */\n      tag_665\n        /* \"#utility.yul\":29011:29014   */\n      dup3\n        /* \"#utility.yul\":29002:29008   */\n      dup6\n        /* \"#utility.yul\":28920:29015   */\n      tag_387\n      jump\t// in\n    tag_665:\n        /* \"#utility.yul\":28913:29015   */\n      swap2\n      pop\n        /* \"#utility.yul\":29032:29127   */\n      tag_666\n        /* \"#utility.yul\":29123:29126   */\n      dup3\n        /* \"#utility.yul\":29114:29120   */\n      dup5\n        /* \"#utility.yul\":29032:29127   */\n      tag_387\n      jump\t// in\n    tag_666:\n        /* \"#utility.yul\":29025:29127   */\n      swap2\n      pop\n        /* \"#utility.yul\":29144:29147   */\n      dup2\n        /* \"#utility.yul\":29137:29147   */\n      swap1\n      pop\n        /* \"#utility.yul\":28718:29153   */\n      swap4\n      swap3\n      pop\n      pop\n      pop\n      jump\t// out\n        /* \"#utility.yul\":29159:29387   */\n    tag_388:\n        /* \"#utility.yul\":29299:29333   */\n      0x455243313135353a2063616c6c6572206973206e6f74206f776e6572206e6f72\n        /* \"#utility.yul\":29295:29296   */\n      0x00\n        /* \"#utility.yul\":29287:29293   */\n      dup3\n        /* \"#utility.yul\":29283:29297   */\n      add\n        /* \"#utility.yul\":29276:29334   */\n      mstore\n        /* \"#utility.yul\":29368:29379   */\n      0x20617070726f7665640000000000000000000000000000000000000000000000\n        /* \"#utility.yul\":29363:29365   */\n      0x20\n        /* \"#utility.yul\":29355:29361   */\n      dup3\n        /* \"#utility.yul\":29351:29366   */\n      add\n        /* \"#utility.yul\":29344:29380   */\n      mstore\n        /* \"#utility.yul\":29159:29387   */\n      pop\n      jump\t// out\n        /* \"#utility.yul\":29393:29759   */\n    tag_389:\n        /* \"#utility.yul\":29535:29538   */\n      0x00\n        /* \"#utility.yul\":29556:29623   */\n      tag_669\n        /* \"#utility.yul\":29620:29622   */\n      0x29\n        /* \"#utility.yul\":29615:29618   */\n      dup4\n        /* \"#utility.yul\":29556:29623   */\n      tag_337\n      jump\t// in\n    tag_669:\n        /* \"#utility.yul\":29549:29623   */\n      swap2\n      pop\n        /* \"#utility.yul\":29632:29725   */\n      tag_670\n        /* \"#utility.yul\":29721:29724   */\n      dup3\n        /* \"#utility.yul\":29632:29725   */\n      tag_388\n      jump\t// in\n    tag_670:\n        /* \"#utility.yul\":29750:29752   */\n      0x40\n        /* \"#utility.yul\":29745:29748   */\n      dup3\n        /* \"#utility.yul\":29741:29753   */\n      add\n        /* \"#utility.yul\":29734:29753   */\n      swap1\n      pop\n        /* \"#utility.yul\":29393:29759   */\n      swap2\n      swap1\n      pop\n      jump\t// out\n        /* \"#utility.yul\":29765:30184   */\n    tag_214:\n        /* \"#utility.yul\":29931:29935   */\n      0x00\n        /* \"#utility.yul\":29969:29971   */\n      0x20\n        /* \"#utility.yul\":29958:29967   */\n      dup3\n        /* \"#utility.yul\":29954:29972   */\n      add\n        /* \"#utility.yul\":29946:29972   */\n      swap1\n      pop\n        /* \"#utility.yul\":30018:30027   */\n      dup2\n        /* \"#utility.yul\":30012:30016   */\n      dup2\n        /* \"#utility.yul\":30008:30028   */\n      sub\n        /* \"#utility.yul\":30004:30005   */\n      0x00\n        /* \"#utility.yul\":29993:30002   */\n      dup4\n        /* \"#utility.yul\":29989:30006   */\n      add\n        /* \"#utility.yul\":29982:30029   */\n      mstore\n        /* \"#utility.yul\":30046:30177   */\n      tag_672\n        /* \"#utility.yul\":30172:30176   */\n      dup2\n        /* \"#utility.yul\":30046:30177   */\n      tag_389\n      jump\t// in\n    tag_672:\n        /* \"#utility.yul\":30038:30177   */\n      swap1\n      pop\n        /* \"#utility.yul\":29765:30184   */\n      swap2\n      swap1\n      pop\n      jump\t// out\n        /* \"#utility.yul\":30190:30522   */\n    tag_223:\n        /* \"#utility.yul\":30311:30315   */\n      0x00\n        /* \"#utility.yul\":30349:30351   */\n      0x40\n        /* \"#utility.yul\":30338:30347   */\n      dup3\n        /* \"#utility.yul\":30334:30352   */\n      add\n        /* \"#utility.yul\":30326:30352   */\n      swap1\n      pop\n        /* \"#utility.yul\":30362:30433   */\n      tag_674\n        /* \"#utility.yul\":30430:30431   */\n      0x00\n        /* \"#utility.yul\":30419:30428   */\n      dup4\n        /* \"#utility.yul\":30415:30432   */\n      add\n        /* \"#utility.yul\":30406:30412   */\n      dup6\n        /* \"#utility.yul\":30362:30433   */\n      tag_330\n      jump\t// in\n    tag_674:\n        /* \"#utility.yul\":30443:30515   */\n      tag_675\n        /* \"#utility.yul\":30511:30513   */\n      0x20\n        /* \"#utility.yul\":30500:30509   */\n      dup4\n        /* \"#utility.yul\":30496:30514   */\n      add\n        /* \"#utility.yul\":30487:30493   */\n      dup5\n        /* \"#utility.yul\":30443:30515   */\n      tag_330\n      jump\t// in\n    tag_675:\n        /* \"#utility.yul\":30190:30522   */\n      swap4\n      swap3\n      pop\n      pop\n      pop\n      jump\t// out\n        /* \"#utility.yul\":30528:30722   */\n    tag_238:\n        /* \"#utility.yul\":30568:30572   */\n      0x00\n        /* \"#utility.yul\":30588:30608   */\n      tag_677\n        /* \"#utility.yul\":30606:30607   */\n      dup3\n        /* \"#utility.yul\":30588:30608   */\n      tag_327\n      jump\t// in\n    tag_677:\n        /* \"#utility.yul\":30583:30608   */\n      swap2\n      pop\n        /* \"#utility.yul\":30622:30642   */\n      tag_678\n        /* \"#utility.yul\":30640:30641   */\n      dup4\n        /* \"#utility.yul\":30622:30642   */\n      tag_327\n      jump\t// in\n    tag_678:\n        /* \"#utility.yul\":30617:30642   */\n      swap3\n      pop\n        /* \"#utility.yul\":30666:30667   */\n      dup3\n        /* \"#utility.yul\":30663:30664   */\n      dup3\n        /* \"#utility.yul\":30659:30668   */\n      sub\n        /* \"#utility.yul\":30651:30668   */\n      swap1\n      pop\n        /* \"#utility.yul\":30690:30691   */\n      dup2\n        /* \"#utility.yul\":30684:30688   */\n      dup2\n        /* \"#utility.yul\":30681:30692   */\n      gt\n        /* \"#utility.yul\":30678:30715   */\n      iszero\n      tag_679\n      jumpi\n        /* \"#utility.yul\":30695:30713   */\n      tag_680\n      tag_377\n      jump\t// in\n    tag_680:\n        /* \"#utility.yul\":30678:30715   */\n    tag_679:\n        /* \"#utility.yul\":30528:30722   */\n      swap3\n      swap2\n      pop\n      pop\n      jump\t// out\n        /* \"#utility.yul\":30728:30919   */\n    tag_241:\n        /* \"#utility.yul\":30768:30771   */\n      0x00\n        /* \"#utility.yul\":30787:30807   */\n      tag_682\n        /* \"#utility.yul\":30805:30806   */\n      dup3\n        /* \"#utility.yul\":30787:30807   */\n      tag_327\n      jump\t// in\n    tag_682:\n        /* \"#utility.yul\":30782:30807   */\n      swap2\n      pop\n        /* \"#utility.yul\":30821:30841   */\n      tag_683\n        /* \"#utility.yul\":30839:30840   */\n      dup4\n        /* \"#utility.yul\":30821:30841   */\n      tag_327\n      jump\t// in\n    tag_683:\n        /* \"#utility.yul\":30816:30841   */\n      swap3\n      pop\n        /* \"#utility.yul\":30864:30865   */\n      dup3\n        /* \"#utility.yul\":30861:30862   */\n      dup3\n        /* \"#utility.yul\":30857:30866   */\n      add\n        /* \"#utility.yul\":30850:30866   */\n      swap1\n      pop\n        /* \"#utility.yul\":30885:30888   */\n      dup1\n        /* \"#utility.yul\":30882:30883   */\n      dup3\n        /* \"#utility.yul\":30879:30889   */\n      gt\n        /* \"#utility.yul\":30876:30912   */\n      iszero\n      tag_684\n      jumpi\n        /* \"#utility.yul\":30892:30910   */\n      tag_685\n      tag_377\n      jump\t// in\n    tag_685:\n        /* \"#utility.yul\":30876:30912   */\n    tag_684:\n        /* \"#utility.yul\":30728:30919   */\n      swap3\n      swap2\n      pop\n      pop\n      jump\t// out\n        /* \"#utility.yul\":30925:31102   */\n    tag_390:\n        /* \"#utility.yul\":31065:31094   */\n      0x536166654d6174683a206164646974696f6e206f766572666c6f770000000000\n        /* \"#utility.yul\":31061:31062   */\n      0x00\n        /* \"#utility.yul\":31053:31059   */\n      dup3\n        /* \"#utility.yul\":31049:31063   */\n      add\n        /* \"#utility.yul\":31042:31095   */\n      mstore\n        /* \"#utility.yul\":30925:31102   */\n      pop\n      jump\t// out\n        /* \"#utility.yul\":31108:31474   */\n    tag_391:\n        /* \"#utility.yul\":31250:31253   */\n      0x00\n        /* \"#utility.yul\":31271:31338   */\n      tag_688\n        /* \"#utility.yul\":31335:31337   */\n      0x1b\n        /* \"#utility.yul\":31330:31333   */\n      dup4\n        /* \"#utility.yul\":31271:31338   */\n      tag_337\n      jump\t// in\n    tag_688:\n        /* \"#utility.yul\":31264:31338   */\n      swap2\n      pop\n        /* \"#utility.yul\":31347:31440   */\n      tag_689\n        /* \"#utility.yul\":31436:31439   */\n      dup3\n        /* \"#utility.yul\":31347:31440   */\n      tag_390\n      jump\t// in\n    tag_689:\n        /* \"#utility.yul\":31465:31467   */\n      0x20\n        /* \"#utility.yul\":31460:31463   */\n      dup3\n        /* \"#utility.yul\":31456:31468   */\n      add\n        /* \"#utility.yul\":31449:31468   */\n      swap1\n      pop\n        /* \"#utility.yul\":31108:31474   */\n      swap2\n      swap1\n      pop\n      jump\t// out\n        /* \"#utility.yul\":31480:31899   */\n    tag_244:\n        /* \"#utility.yul\":31646:31650   */\n      0x00\n        /* \"#utility.yul\":31684:31686   */\n      0x20\n        /* \"#utility.yul\":31673:31682   */\n      dup3\n        /* \"#utility.yul\":31669:31687   */\n      add\n        /* \"#utility.yul\":31661:31687   */\n      swap1\n      pop\n        /* \"#utility.yul\":31733:31742   */\n      dup2\n        /* \"#utility.yul\":31727:31731   */\n      dup2\n        /* \"#utility.yul\":31723:31743   */\n      sub\n        /* \"#utility.yul\":31719:31720   */\n      0x00\n        /* \"#utility.yul\":31708:31717   */\n      dup4\n        /* \"#utility.yul\":31704:31721   */\n      add\n        /* \"#utility.yul\":31697:31744   */\n      mstore\n        /* \"#utility.yul\":31761:31892   */\n      tag_691\n        /* \"#utility.yul\":31887:31891   */\n      dup2\n        /* \"#utility.yul\":31761:31892   */\n      tag_391\n      jump\t// in\n    tag_691:\n        /* \"#utility.yul\":31753:31892   */\n      swap1\n      pop\n        /* \"#utility.yul\":31480:31899   */\n      swap2\n      swap1\n      pop\n      jump\t// out\n        /* \"#utility.yul\":31905:32003   */\n    tag_392:\n        /* \"#utility.yul\":31956:31962   */\n      0x00\n        /* \"#utility.yul\":31990:31995   */\n      dup2\n        /* \"#utility.yul\":31984:31996   */\n      mload\n        /* \"#utility.yul\":31974:31996   */\n      swap1\n      pop\n        /* \"#utility.yul\":31905:32003   */\n      swap2\n      swap1\n      pop\n      jump\t// out\n        /* \"#utility.yul\":32009:32177   */\n    tag_393:\n        /* \"#utility.yul\":32092:32103   */\n      0x00\n        /* \"#utility.yul\":32126:32132   */\n      dup3\n        /* \"#utility.yul\":32121:32124   */\n      dup3\n        /* \"#utility.yul\":32114:32133   */\n      mstore\n        /* \"#utility.yul\":32166:32170   */\n      0x20\n        /* \"#utility.yul\":32161:32164   */\n      dup3\n        /* \"#utility.yul\":32157:32171   */\n      add\n        /* \"#utility.yul\":32142:32171   */\n      swap1\n      pop\n        /* \"#utility.yul\":32009:32177   */\n      swap3\n      swap2\n      pop\n      pop\n      jump\t// out\n        /* \"#utility.yul\":32183:32556   */\n    tag_394:\n        /* \"#utility.yul\":32269:32272   */\n      0x00\n        /* \"#utility.yul\":32297:32335   */\n      tag_695\n        /* \"#utility.yul\":32329:32334   */\n      dup3\n        /* \"#utility.yul\":32297:32335   */\n      tag_392\n      jump\t// in\n    tag_695:\n        /* \"#utility.yul\":32351:32421   */\n      tag_696\n        /* \"#utility.yul\":32414:32420   */\n      dup2\n        /* \"#utility.yul\":32409:32412   */\n      dup6\n        /* \"#utility.yul\":32351:32421   */\n      tag_393\n      jump\t// in\n    tag_696:\n        /* \"#utility.yul\":32344:32421   */\n      swap4\n      pop\n        /* \"#utility.yul\":32430:32495   */\n      tag_697\n        /* \"#utility.yul\":32488:32494   */\n      dup2\n        /* \"#utility.yul\":32483:32486   */\n      dup6\n        /* \"#utility.yul\":32476:32480   */\n      0x20\n        /* \"#utility.yul\":32469:32474   */\n      dup7\n        /* \"#utility.yul\":32465:32481   */\n      add\n        /* \"#utility.yul\":32430:32495   */\n      tag_338\n      jump\t// in\n    tag_697:\n        /* \"#utility.yul\":32520:32549   */\n      tag_698\n        /* \"#utility.yul\":32542:32548   */\n      dup2\n        /* \"#utility.yul\":32520:32549   */\n      tag_339\n      jump\t// in\n    tag_698:\n        /* \"#utility.yul\":32515:32518   */\n      dup5\n        /* \"#utility.yul\":32511:32550   */\n      add\n        /* \"#utility.yul\":32504:32550   */\n      swap2\n      pop\n        /* \"#utility.yul\":32273:32556   */\n      pop\n        /* \"#utility.yul\":32183:32556   */\n      swap3\n      swap2\n      pop\n      pop\n      jump\t// out\n        /* \"#utility.yul\":32562:33615   */\n    tag_250:\n        /* \"#utility.yul\":32885:32889   */\n      0x00\n        /* \"#utility.yul\":32923:32926   */\n      0xa0\n        /* \"#utility.yul\":32912:32921   */\n      dup3\n        /* \"#utility.yul\":32908:32927   */\n      add\n        /* \"#utility.yul\":32900:32927   */\n      swap1\n      pop\n        /* \"#utility.yul\":32937:33008   */\n      tag_700\n        /* \"#utility.yul\":33005:33006   */\n      0x00\n        /* \"#utility.yul\":32994:33003   */\n      dup4\n        /* \"#utility.yul\":32990:33007   */\n      add\n        /* \"#utility.yul\":32981:32987   */\n      dup9\n        /* \"#utility.yul\":32937:33008   */\n      tag_365\n      jump\t// in\n    tag_700:\n        /* \"#utility.yul\":33018:33090   */\n      tag_701\n        /* \"#utility.yul\":33086:33088   */\n      0x20\n        /* \"#utility.yul\":33075:33084   */\n      dup4\n        /* \"#utility.yul\":33071:33089   */\n      add\n        /* \"#utility.yul\":33062:33068   */\n      dup8\n        /* \"#utility.yul\":33018:33090   */\n      tag_365\n      jump\t// in\n    tag_701:\n        /* \"#utility.yul\":33137:33146   */\n      dup2\n        /* \"#utility.yul\":33131:33135   */\n      dup2\n        /* \"#utility.yul\":33127:33147   */\n      sub\n        /* \"#utility.yul\":33122:33124   */\n      0x40\n        /* \"#utility.yul\":33111:33120   */\n      dup4\n        /* \"#utility.yul\":33107:33125   */\n      add\n        /* \"#utility.yul\":33100:33148   */\n      mstore\n        /* \"#utility.yul\":33165:33273   */\n      tag_702\n        /* \"#utility.yul\":33268:33272   */\n      dup2\n        /* \"#utility.yul\":33259:33265   */\n      dup7\n        /* \"#utility.yul\":33165:33273   */\n      tag_362\n      jump\t// in\n    tag_702:\n        /* \"#utility.yul\":33157:33273   */\n      swap1\n      pop\n        /* \"#utility.yul\":33320:33329   */\n      dup2\n        /* \"#utility.yul\":33314:33318   */\n      dup2\n        /* \"#utility.yul\":33310:33330   */\n      sub\n        /* \"#utility.yul\":33305:33307   */\n      0x60\n        /* \"#utility.yul\":33294:33303   */\n      dup4\n        /* \"#utility.yul\":33290:33308   */\n      add\n        /* \"#utility.yul\":33283:33331   */\n      mstore\n        /* \"#utility.yul\":33348:33456   */\n      tag_703\n        /* \"#utility.yul\":33451:33455   */\n      dup2\n        /* \"#utility.yul\":33442:33448   */\n      dup6\n        /* \"#utility.yul\":33348:33456   */\n      tag_362\n      jump\t// in\n    tag_703:\n        /* \"#utility.yul\":33340:33456   */\n      swap1\n      pop\n        /* \"#utility.yul\":33504:33513   */\n      dup2\n        /* \"#utility.yul\":33498:33502   */\n      dup2\n        /* \"#utility.yul\":33494:33514   */\n      sub\n        /* \"#utility.yul\":33488:33491   */\n      0x80\n        /* \"#utility.yul\":33477:33486   */\n      dup4\n        /* \"#utility.yul\":33473:33492   */\n      add\n        /* \"#utility.yul\":33466:33515   */\n      mstore\n        /* \"#utility.yul\":33532:33608   */\n      tag_704\n        /* \"#utility.yul\":33603:33607   */\n      dup2\n        /* \"#utility.yul\":33594:33600   */\n      dup5\n        /* \"#utility.yul\":33532:33608   */\n      tag_394\n      jump\t// in\n    tag_704:\n        /* \"#utility.yul\":33524:33608   */\n      swap1\n      pop\n        /* \"#utility.yul\":32562:33615   */\n      swap7\n      swap6\n      pop\n      pop\n      pop\n      pop\n      pop\n      pop\n      jump\t// out\n        /* \"#utility.yul\":33621:33762   */\n    tag_395:\n        /* \"#utility.yul\":33677:33682   */\n      0x00\n        /* \"#utility.yul\":33708:33714   */\n      dup2\n        /* \"#utility.yul\":33702:33715   */\n      mload\n        /* \"#utility.yul\":33693:33715   */\n      swap1\n      pop\n        /* \"#utility.yul\":33724:33756   */\n      tag_706\n        /* \"#utility.yul\":33750:33755   */\n      dup2\n        /* \"#utility.yul\":33724:33756   */\n      tag_332\n      jump\t// in\n    tag_706:\n        /* \"#utility.yul\":33621:33762   */\n      swap3\n      swap2\n      pop\n      pop\n      jump\t// out\n        /* \"#utility.yul\":33768:34117   */\n    tag_253:\n        /* \"#utility.yul\":33837:33843   */\n      0x00\n        /* \"#utility.yul\":33886:33888   */\n      0x20\n        /* \"#utility.yul\":33874:33883   */\n      dup3\n        /* \"#utility.yul\":33865:33872   */\n      dup5\n        /* \"#utility.yul\":33861:33884   */\n      sub\n        /* \"#utility.yul\":33857:33889   */\n      slt\n        /* \"#utility.yul\":33854:33973   */\n      iszero\n      tag_708\n      jumpi\n        /* \"#utility.yul\":33892:33971   */\n      tag_709\n      tag_321\n      jump\t// in\n    tag_709:\n        /* \"#utility.yul\":33854:33973   */\n    tag_708:\n        /* \"#utility.yul\":34012:34013   */\n      0x00\n        /* \"#utility.yul\":34037:34100   */\n      tag_710\n        /* \"#utility.yul\":34092:34099   */\n      dup5\n        /* \"#utility.yul\":34083:34089   */\n      dup3\n        /* \"#utility.yul\":34072:34081   */\n      dup6\n        /* \"#utility.yul\":34068:34090   */\n      add\n        /* \"#utility.yul\":34037:34100   */\n      tag_395\n      jump\t// in\n    tag_710:\n        /* \"#utility.yul\":34027:34100   */\n      swap2\n      pop\n        /* \"#utility.yul\":33983:34110   */\n      pop\n        /* \"#utility.yul\":33768:34117   */\n      swap3\n      swap2\n      pop\n      pop\n      jump\t// out\n        /* \"#utility.yul\":34123:34229   */\n    tag_396:\n        /* \"#utility.yul\":34167:34175   */\n      0x00\n        /* \"#utility.yul\":34216:34221   */\n      dup2\n        /* \"#utility.yul\":34211:34214   */\n      0xe0\n        /* \"#utility.yul\":34207:34222   */\n      shr\n        /* \"#utility.yul\":34186:34222   */\n      swap1\n      pop\n        /* \"#utility.yul\":34123:34229   */\n      swap2\n      swap1\n      pop\n      jump\t// out\n        /* \"#utility.yul\":34235:34418   */\n    tag_259:\n        /* \"#utility.yul\":34270:34273   */\n      0x00\n        /* \"#utility.yul\":34308:34309   */\n      0x03\n        /* \"#utility.yul\":34290:34306   */\n      returndatasize\n        /* \"#utility.yul\":34287:34310   */\n      gt\n        /* \"#utility.yul\":34284:34412   */\n      iszero\n      tag_713\n      jumpi\n        /* \"#utility.yul\":34346:34347   */\n      0x04\n        /* \"#utility.yul\":34343:34344   */\n      0x00\n        /* \"#utility.yul\":34340:34341   */\n      dup1\n        /* \"#utility.yul\":34325:34348   */\n      returndatacopy\n        /* \"#utility.yul\":34368:34402   */\n      tag_714\n        /* \"#utility.yul\":34399:34400   */\n      0x00\n        /* \"#utility.yul\":34393:34401   */\n      mload\n        /* \"#utility.yul\":34368:34402   */\n      tag_396\n      jump\t// in\n    tag_714:\n        /* \"#utility.yul\":34361:34402   */\n      swap1\n      pop\n        /* \"#utility.yul\":34284:34412   */\n    tag_713:\n        /* \"#utility.yul\":34235:34418   */\n      swap1\n      jump\t// out\n        /* \"#utility.yul\":34424:35135   */\n    tag_261:\n        /* \"#utility.yul\":34463:34466   */\n      0x00\n        /* \"#utility.yul\":34501:34505   */\n      0x44\n        /* \"#utility.yul\":34483:34499   */\n      returndatasize\n        /* \"#utility.yul\":34480:34506   */\n      lt\n        /* \"#utility.yul\":34509:34514   */\n      tag_715\n        /* \"#utility.yul\":34477:34516   */\n      jumpi\n        /* \"#utility.yul\":34538:34558   */\n      tag_717\n      tag_320\n      jump\t// in\n    tag_717:\n        /* \"#utility.yul\":34613:34614   */\n      0x04\n        /* \"#utility.yul\":34595:34611   */\n      returndatasize\n        /* \"#utility.yul\":34591:34615   */\n      sub\n        /* \"#utility.yul\":34588:34589   */\n      0x04\n        /* \"#utility.yul\":34582:34586   */\n      dup3\n        /* \"#utility.yul\":34567:34616   */\n      returndatacopy\n        /* \"#utility.yul\":34646:34650   */\n      dup1\n        /* \"#utility.yul\":34640:34651   */\n      mload\n        /* \"#utility.yul\":34745:34761   */\n      returndatasize\n        /* \"#utility.yul\":34738:34742   */\n      0x24\n        /* \"#utility.yul\":34730:34736   */\n      dup3\n        /* \"#utility.yul\":34726:34743   */\n      add\n        /* \"#utility.yul\":34723:34762   */\n      gt\n        /* \"#utility.yul\":34690:34708   */\n      0xffffffffffffffff\n        /* \"#utility.yul\":34682:34688   */\n      dup3\n        /* \"#utility.yul\":34679:34709   */\n      gt\n        /* \"#utility.yul\":34663:34776   */\n      or\n        /* \"#utility.yul\":34660:34806   */\n      iszero\n      tag_718\n      jumpi\n        /* \"#utility.yul\":34791:34796   */\n      pop\n      pop\n      jump(tag_715)\n        /* \"#utility.yul\":34660:34806   */\n    tag_718:\n        /* \"#utility.yul\":34837:34843   */\n      dup1\n        /* \"#utility.yul\":34831:34835   */\n      dup3\n        /* \"#utility.yul\":34827:34844   */\n      add\n        /* \"#utility.yul\":34873:34876   */\n      dup1\n        /* \"#utility.yul\":34867:34877   */\n      mload\n        /* \"#utility.yul\":34900:34918   */\n      0xffffffffffffffff\n        /* \"#utility.yul\":34892:34898   */\n      dup2\n        /* \"#utility.yul\":34889:34919   */\n      gt\n        /* \"#utility.yul\":34886:34929   */\n      iszero\n      tag_719\n      jumpi\n        /* \"#utility.yul\":34922:34927   */\n      pop\n      pop\n      pop\n      pop\n      jump(tag_715)\n        /* \"#utility.yul\":34886:34929   */\n    tag_719:\n        /* \"#utility.yul\":34970:34976   */\n      dup1\n        /* \"#utility.yul\":34963:34967   */\n      0x20\n        /* \"#utility.yul\":34958:34961   */\n      dup4\n        /* \"#utility.yul\":34954:34968   */\n      add\n        /* \"#utility.yul\":34950:34977   */\n      add\n        /* \"#utility.yul\":35029:35030   */\n      0x04\n        /* \"#utility.yul\":35011:35027   */\n      returndatasize\n        /* \"#utility.yul\":35007:35031   */\n      sub\n        /* \"#utility.yul\":35001:35005   */\n      dup6\n        /* \"#utility.yul\":34997:35032   */\n      add\n        /* \"#utility.yul\":34992:34995   */\n      dup2\n        /* \"#utility.yul\":34989:35033   */\n      gt\n        /* \"#utility.yul\":34986:35043   */\n      iszero\n      tag_720\n      jumpi\n        /* \"#utility.yul\":35036:35041   */\n      pop\n      pop\n      pop\n      pop\n      pop\n      jump(tag_715)\n        /* \"#utility.yul\":34986:35043   */\n    tag_720:\n        /* \"#utility.yul\":35053:35110   */\n      tag_721\n        /* \"#utility.yul\":35101:35107   */\n      dup3\n        /* \"#utility.yul\":35095:35099   */\n      0x20\n        /* \"#utility.yul\":35091:35108   */\n      add\n        /* \"#utility.yul\":35083:35089   */\n      dup6\n        /* \"#utility.yul\":35079:35109   */\n      add\n        /* \"#utility.yul\":35073:35077   */\n      dup7\n        /* \"#utility.yul\":35053:35110   */\n      tag_342\n      jump\t// in\n    tag_721:\n        /* \"#utility.yul\":35126:35129   */\n      dup3\n        /* \"#utility.yul\":35119:35129   */\n      swap6\n      pop\n        /* \"#utility.yul\":34467:35135   */\n      pop\n      pop\n      pop\n      pop\n      pop\n        /* \"#utility.yul\":34424:35135   */\n    tag_715:\n      swap1\n      jump\t// out\n        /* \"#utility.yul\":35141:35380   */\n    tag_397:\n        /* \"#utility.yul\":35281:35315   */\n      0x455243313135353a207472616e7366657220746f206e6f6e2045524331313535\n        /* \"#utility.yul\":35277:35278   */\n      0x00\n        /* \"#utility.yul\":35269:35275   */\n      dup3\n        /* \"#utility.yul\":35265:35279   */\n      add\n        /* \"#utility.yul\":35258:35316   */\n      mstore\n        /* \"#utility.yul\":35350:35372   */\n      0x526563656976657220696d706c656d656e746572000000000000000000000000\n        /* \"#utility.yul\":35345:35347   */\n      0x20\n        /* \"#utility.yul\":35337:35343   */\n      dup3\n        /* \"#utility.yul\":35333:35348   */\n      add\n        /* \"#utility.yul\":35326:35373   */\n      mstore\n        /* \"#utility.yul\":35141:35380   */\n      pop\n      jump\t// out\n        /* \"#utility.yul\":35386:35752   */\n    tag_398:\n        /* \"#utility.yul\":35528:35531   */\n      0x00\n        /* \"#utility.yul\":35549:35616   */\n      tag_724\n        /* \"#utility.yul\":35613:35615   */\n      0x34\n        /* \"#utility.yul\":35608:35611   */\n      dup4\n        /* \"#utility.yul\":35549:35616   */\n      tag_337\n      jump\t// in\n    tag_724:\n        /* \"#utility.yul\":35542:35616   */\n      swap2\n      pop\n        /* \"#utility.yul\":35625:35718   */\n      tag_725\n        /* \"#utility.yul\":35714:35717   */\n      dup3\n        /* \"#utility.yul\":35625:35718   */\n      tag_397\n      jump\t// in\n    tag_725:\n        /* \"#utility.yul\":35743:35745   */\n      0x40\n        /* \"#utility.yul\":35738:35741   */\n      dup3\n        /* \"#utility.yul\":35734:35746   */\n      add\n        /* \"#utility.yul\":35727:35746   */\n      swap1\n      pop\n        /* \"#utility.yul\":35386:35752   */\n      swap2\n      swap1\n      pop\n      jump\t// out\n        /* \"#utility.yul\":35758:36177   */\n    tag_265:\n        /* \"#utility.yul\":35924:35928   */\n      0x00\n        /* \"#utility.yul\":35962:35964   */\n      0x20\n        /* \"#utility.yul\":35951:35960   */\n      dup3\n        /* \"#utility.yul\":35947:35965   */\n      add\n        /* \"#utility.yul\":35939:35965   */\n      swap1\n      pop\n        /* \"#utility.yul\":36011:36020   */\n      dup2\n        /* \"#utility.yul\":36005:36009   */\n      dup2\n        /* \"#utility.yul\":36001:36021   */\n      sub\n        /* \"#utility.yul\":35997:35998   */\n      0x00\n        /* \"#utility.yul\":35986:35995   */\n      dup4\n        /* \"#utility.yul\":35982:35999   */\n      add\n        /* \"#utility.yul\":35975:36022   */\n      mstore\n        /* \"#utility.yul\":36039:36170   */\n      tag_727\n        /* \"#utility.yul\":36165:36169   */\n      dup2\n        /* \"#utility.yul\":36039:36170   */\n      tag_398\n      jump\t// in\n    tag_727:\n        /* \"#utility.yul\":36031:36170   */\n      swap1\n      pop\n        /* \"#utility.yul\":35758:36177   */\n      swap2\n      swap1\n      pop\n      jump\t// out\n        /* \"#utility.yul\":36183:36410   */\n    tag_399:\n        /* \"#utility.yul\":36323:36357   */\n      0x455243313135353a204552433131353552656365697665722072656a65637465\n        /* \"#utility.yul\":36319:36320   */\n      0x00\n        /* \"#utility.yul\":36311:36317   */\n      dup3\n        /* \"#utility.yul\":36307:36321   */\n      add\n        /* \"#utility.yul\":36300:36358   */\n      mstore\n        /* \"#utility.yul\":36392:36402   */\n      0x6420746f6b656e73000000000000000000000000000000000000000000000000\n        /* \"#utility.yul\":36387:36389   */\n      0x20\n        /* \"#utility.yul\":36379:36385   */\n      dup3\n        /* \"#utility.yul\":36375:36390   */\n      add\n        /* \"#utility.yul\":36368:36403   */\n      mstore\n        /* \"#utility.yul\":36183:36410   */\n      pop\n      jump\t// out\n        /* \"#utility.yul\":36416:36782   */\n    tag_400:\n        /* \"#utility.yul\":36558:36561   */\n      0x00\n        /* \"#utility.yul\":36579:36646   */\n      tag_730\n        /* \"#utility.yul\":36643:36645   */\n      0x28\n        /* \"#utility.yul\":36638:36641   */\n      dup4\n        /* \"#utility.yul\":36579:36646   */\n      tag_337\n      jump\t// in\n    tag_730:\n        /* \"#utility.yul\":36572:36646   */\n      swap2\n      pop\n        /* \"#utility.yul\":36655:36748   */\n      tag_731\n        /* \"#utility.yul\":36744:36747   */\n      dup3\n        /* \"#utility.yul\":36655:36748   */\n      tag_399\n      jump\t// in\n    tag_731:\n        /* \"#utility.yul\":36773:36775   */\n      0x40\n        /* \"#utility.yul\":36768:36771   */\n      dup3\n        /* \"#utility.yul\":36764:36776   */\n      add\n        /* \"#utility.yul\":36757:36776   */\n      swap1\n      pop\n        /* \"#utility.yul\":36416:36782   */\n      swap2\n      swap1\n      pop\n      jump\t// out\n        /* \"#utility.yul\":36788:37207   */\n    tag_269:\n        /* \"#utility.yul\":36954:36958   */\n      0x00\n        /* \"#utility.yul\":36992:36994   */\n      0x20\n        /* \"#utility.yul\":36981:36990   */\n      dup3\n        /* \"#utility.yul\":36977:36995   */\n      add\n        /* \"#utility.yul\":36969:36995   */\n      swap1\n      pop\n        /* \"#utility.yul\":37041:37050   */\n      dup2\n        /* \"#utility.yul\":37035:37039   */\n      dup2\n        /* \"#utility.yul\":37031:37051   */\n      sub\n        /* \"#utility.yul\":37027:37028   */\n      0x00\n        /* \"#utility.yul\":37016:37025   */\n      dup4\n        /* \"#utility.yul\":37012:37029   */\n      add\n        /* \"#utility.yul\":37005:37052   */\n      mstore\n        /* \"#utility.yul\":37069:37200   */\n      tag_733\n        /* \"#utility.yul\":37195:37199   */\n      dup2\n        /* \"#utility.yul\":37069:37200   */\n      tag_400\n      jump\t// in\n    tag_733:\n        /* \"#utility.yul\":37061:37200   */\n      swap1\n      pop\n        /* \"#utility.yul\":36788:37207   */\n      swap2\n      swap1\n      pop\n      jump\t// out\n        /* \"#utility.yul\":37213:37393   */\n    tag_401:\n        /* \"#utility.yul\":37261:37338   */\n      0x4e487b7100000000000000000000000000000000000000000000000000000000\n        /* \"#utility.yul\":37258:37259   */\n      0x00\n        /* \"#utility.yul\":37251:37339   */\n      mstore\n        /* \"#utility.yul\":37358:37362   */\n      0x12\n        /* \"#utility.yul\":37355:37356   */\n      0x04\n        /* \"#utility.yul\":37348:37363   */\n      mstore\n        /* \"#utility.yul\":37382:37386   */\n      0x24\n        /* \"#utility.yul\":37379:37380   */\n      0x00\n        /* \"#utility.yul\":37372:37387   */\n      revert\n        /* \"#utility.yul\":37399:37584   */\n    tag_276:\n        /* \"#utility.yul\":37439:37440   */\n      0x00\n        /* \"#utility.yul\":37456:37476   */\n      tag_736\n        /* \"#utility.yul\":37474:37475   */\n      dup3\n        /* \"#utility.yul\":37456:37476   */\n      tag_327\n      jump\t// in\n    tag_736:\n        /* \"#utility.yul\":37451:37476   */\n      swap2\n      pop\n        /* \"#utility.yul\":37490:37510   */\n      tag_737\n        /* \"#utility.yul\":37508:37509   */\n      dup4\n        /* \"#utility.yul\":37490:37510   */\n      tag_327\n      jump\t// in\n    tag_737:\n        /* \"#utility.yul\":37485:37510   */\n      swap3\n      pop\n        /* \"#utility.yul\":37529:37530   */\n      dup3\n        /* \"#utility.yul\":37519:37554   */\n      tag_738\n      jumpi\n        /* \"#utility.yul\":37534:37552   */\n      tag_739\n      tag_401\n      jump\t// in\n    tag_739:\n        /* \"#utility.yul\":37519:37554   */\n    tag_738:\n        /* \"#utility.yul\":37576:37577   */\n      dup3\n        /* \"#utility.yul\":37573:37574   */\n      dup3\n        /* \"#utility.yul\":37569:37578   */\n      div\n        /* \"#utility.yul\":37564:37578   */\n      swap1\n      pop\n        /* \"#utility.yul\":37399:37584   */\n      swap3\n      swap2\n      pop\n      pop\n      jump\t// out\n        /* \"#utility.yul\":37590:37766   */\n    tag_284:\n        /* \"#utility.yul\":37622:37623   */\n      0x00\n        /* \"#utility.yul\":37639:37659   */\n      tag_741\n        /* \"#utility.yul\":37657:37658   */\n      dup3\n        /* \"#utility.yul\":37639:37659   */\n      tag_327\n      jump\t// in\n    tag_741:\n        /* \"#utility.yul\":37634:37659   */\n      swap2\n      pop\n        /* \"#utility.yul\":37673:37693   */\n      tag_742\n        /* \"#utility.yul\":37691:37692   */\n      dup4\n        /* \"#utility.yul\":37673:37693   */\n      tag_327\n      jump\t// in\n    tag_742:\n        /* \"#utility.yul\":37668:37693   */\n      swap3\n      pop\n        /* \"#utility.yul\":37712:37713   */\n      dup3\n        /* \"#utility.yul\":37702:37737   */\n      tag_743\n      jumpi\n        /* \"#utility.yul\":37717:37735   */\n      tag_744\n      tag_401\n      jump\t// in\n    tag_744:\n        /* \"#utility.yul\":37702:37737   */\n    tag_743:\n        /* \"#utility.yul\":37758:37759   */\n      dup3\n        /* \"#utility.yul\":37755:37756   */\n      dup3\n        /* \"#utility.yul\":37751:37760   */\n      mod\n        /* \"#utility.yul\":37746:37760   */\n      swap1\n      pop\n        /* \"#utility.yul\":37590:37766   */\n      swap3\n      swap2\n      pop\n      pop\n      jump\t// out\n        /* \"#utility.yul\":37772:38523   */\n    tag_299:\n        /* \"#utility.yul\":37995:37999   */\n      0x00\n        /* \"#utility.yul\":38033:38036   */\n      0xa0\n        /* \"#utility.yul\":38022:38031   */\n      dup3\n        /* \"#utility.yul\":38018:38037   */\n      add\n        /* \"#utility.yul\":38010:38037   */\n      swap1\n      pop\n        /* \"#utility.yul\":38047:38118   */\n      tag_746\n        /* \"#utility.yul\":38115:38116   */\n      0x00\n        /* \"#utility.yul\":38104:38113   */\n      dup4\n        /* \"#utility.yul\":38100:38117   */\n      add\n        /* \"#utility.yul\":38091:38097   */\n      dup9\n        /* \"#utility.yul\":38047:38118   */\n      tag_365\n      jump\t// in\n    tag_746:\n        /* \"#utility.yul\":38128:38200   */\n      tag_747\n        /* \"#utility.yul\":38196:38198   */\n      0x20\n        /* \"#utility.yul\":38185:38194   */\n      dup4\n        /* \"#utility.yul\":38181:38199   */\n      add\n        /* \"#utility.yul\":38172:38178   */\n      dup8\n        /* \"#utility.yul\":38128:38200   */\n      tag_365\n      jump\t// in\n    tag_747:\n        /* \"#utility.yul\":38210:38282   */\n      tag_748\n        /* \"#utility.yul\":38278:38280   */\n      0x40\n        /* \"#utility.yul\":38267:38276   */\n      dup4\n        /* \"#utility.yul\":38263:38281   */\n      add\n        /* \"#utility.yul\":38254:38260   */\n      dup7\n        /* \"#utility.yul\":38210:38282   */\n      tag_330\n      jump\t// in\n    tag_748:\n        /* \"#utility.yul\":38292:38364   */\n      tag_749\n        /* \"#utility.yul\":38360:38362   */\n      0x60\n        /* \"#utility.yul\":38349:38358   */\n      dup4\n        /* \"#utility.yul\":38345:38363   */\n      add\n        /* \"#utility.yul\":38336:38342   */\n      dup6\n        /* \"#utility.yul\":38292:38364   */\n      tag_330\n      jump\t// in\n    tag_749:\n        /* \"#utility.yul\":38412:38421   */\n      dup2\n        /* \"#utility.yul\":38406:38410   */\n      dup2\n        /* \"#utility.yul\":38402:38422   */\n      sub\n        /* \"#utility.yul\":38396:38399   */\n      0x80\n        /* \"#utility.yul\":38385:38394   */\n      dup4\n        /* \"#utility.yul\":38381:38400   */\n      add\n        /* \"#utility.yul\":38374:38423   */\n      mstore\n        /* \"#utility.yul\":38440:38516   */\n      tag_750\n        /* \"#utility.yul\":38511:38515   */\n      dup2\n        /* \"#utility.yul\":38502:38508   */\n      dup5\n        /* \"#utility.yul\":38440:38516   */\n      tag_394\n      jump\t// in\n    tag_750:\n        /* \"#utility.yul\":38432:38516   */\n      swap1\n      pop\n        /* \"#utility.yul\":37772:38523   */\n      swap7\n      swap6\n      pop\n      pop\n      pop\n      pop\n      pop\n      pop\n      jump\t// out\n    stop\n    data_8ac7e9556b567c1c94bb4daaa3c3a65be5ac686579615210cb910fb8cb8d65bf 455243313135353a20696e73756666696369656e742062616c616e636520666f72207472616e73666572\n\n    auxdata: 0xa26469706673582212201b30d8156f8f5062a1139ebc7e396d5ba32d3e4e7d92653e250d50c2addc5ab964736f6c63430008110033\n}\n",
				"bytecode": {
					"linkReferences": {},
					"object": "608060405260405180602001604052806000815250600590816200002491906200041d565b503480156200003257600080fd5b50604051620037a0380380620037a0833981810160405281019062000058919062000668565b620000706301ffc9a760e01b620000cc60201b60201c565b81600990816200008191906200041d565b5080600a90816200009391906200041d565b50620000ac63d9b67a2660e01b620000cc60201b60201c565b620000c4630e89341c60e01b620000cc60201b60201c565b505062000770565b63ffffffff60e01b817bffffffffffffffffffffffffffffffffffffffffffffffffffffffff19160362000137576040517f08c379a00000000000000000000000000000000000000000000000000000000081526004016200012e906200074e565b60405180910390fd5b6001600080837bffffffffffffffffffffffffffffffffffffffffffffffffffffffff19167bffffffffffffffffffffffffffffffffffffffffffffffffffffffff1916815260200190815260200160002060006101000a81548160ff02191690831515021790555050565b600081519050919050565b7f4e487b7100000000000000000000000000000000000000000000000000000000600052604160045260246000fd5b7f4e487b7100000000000000000000000000000000000000000000000000000000600052602260045260246000fd5b600060028204905060018216806200022557607f821691505b6020821081036200023b576200023a620001dd565b5b50919050565b60008190508160005260206000209050919050565b60006020601f8301049050919050565b600082821b905092915050565b600060088302620002a57fffffffffffffffffffffffffffffffffffffffffffffffffffffffffffffffff8262000266565b620002b1868362000266565b95508019841693508086168417925050509392505050565b6000819050919050565b6000819050919050565b6000620002fe620002f8620002f284620002c9565b620002d3565b620002c9565b9050919050565b6000819050919050565b6200031a83620002dd565b62000332620003298262000305565b84845462000273565b825550505050565b600090565b620003496200033a565b620003568184846200030f565b505050565b5b818110156200037e57620003726000826200033f565b6001810190506200035c565b5050565b601f821115620003cd57620003978162000241565b620003a28462000256565b81016020851015620003b2578190505b620003ca620003c18562000256565b8301826200035b565b50505b505050565b600082821c905092915050565b6000620003f260001984600802620003d2565b1980831691505092915050565b60006200040d8383620003df565b9150826002028217905092915050565b6200042882620001a3565b67ffffffffffffffff811115620004445762000443620001ae565b5b6200045082546200020c565b6200045d82828562000382565b600060209050601f83116001811462000495576000841562000480578287015190505b6200048c8582620003ff565b865550620004fc565b601f198416620004a58662000241565b60005b82811015620004cf57848901518255600182019150602085019450602081019050620004a8565b86831015620004ef5784890151620004eb601f891682620003df565b8355505b6001600288020188555050505b505050505050565b6000604051905090565b600080fd5b600080fd5b600080fd5b600080fd5b6000601f19601f8301169050919050565b6200053e8262000522565b810181811067ffffffffffffffff8211171562000560576200055f620001ae565b5b80604052505050565b60006200057562000504565b905062000583828262000533565b919050565b600067ffffffffffffffff821115620005a657620005a5620001ae565b5b620005b18262000522565b9050602081019050919050565b60005b83811015620005de578082015181840152602081019050620005c1565b60008484015250505050565b600062000601620005fb8462000588565b62000569565b90508281526020810184848401111562000620576200061f6200051d565b5b6200062d848285620005be565b509392505050565b600082601f8301126200064d576200064c62000518565b5b81516200065f848260208601620005ea565b91505092915050565b600080604083850312156200068257620006816200050e565b5b600083015167ffffffffffffffff811115620006a357620006a262000513565b5b620006b18582860162000635565b925050602083015167ffffffffffffffff811115620006d557620006d462000513565b5b620006e38582860162000635565b9150509250929050565b600082825260208201905092915050565b7f4552433136353a20696e76616c696420696e7465726661636520696400000000600082015250565b600062000736601c83620006ed565b91506200074382620006fe565b602082019050919050565b60006020820190508181036000830152620007698162000727565b9050919050565b61302080620007806000396000f3fe608060405234801561001057600080fd5b50600436106100e95760003560e01c8063a22cb4651161008c578063c87b56dd11610066578063c87b56dd1461025e578063d48e638a1461028e578063e985e9c5146102be578063f242432a146102ee576100e9565b8063a22cb465146101f4578063c0ac998314610210578063c57dc2351461022e576100e9565b806318160ddd116100c857806318160ddd1461016c5780632eb2c2d61461018a5780634e1273f4146101a657806395d89b41146101d6576100e9565b8062fdd58e146100ee57806301ffc9a71461011e57806306fdde031461014e575b600080fd5b61010860048036038101906101039190611b4d565b61030a565b6040516101159190611b9c565b60405180910390f35b61013860048036038101906101339190611c0f565b61041c565b6040516101459190611c57565b60405180910390f35b610156610483565b6040516101639190611d02565b60405180910390f35b610174610515565b6040516101819190611b9c565b60405180910390f35b6101a4600480360381019061019f9190611f21565b610526565b005b6101c060048036038101906101bb91906120b3565b6108fa565b6040516101cd91906121e9565b60405180910390f35b6101de610ae3565b6040516101eb9190611d02565b60405180910390f35b61020e60048036038101906102099190612237565b610b75565b005b610218610cf5565b6040516102259190611d02565b60405180910390f35b61024860048036038101906102439190612277565b610d83565b6040516102559190611b9c565b60405180910390f35b61027860048036038101906102739190612277565b610da0565b6040516102859190611d02565b60405180910390f35b6102a860048036038101906102a39190612277565b610f95565b6040516102b591906122b3565b60405180910390f35b6102d860048036038101906102d391906122ce565b610fd2565b6040516102e59190611c57565b60405180910390f35b6103086004803603810190610303919061230e565b611066565b005b6000610315826113a8565b610354576040517f08c379a000000000000000000000000000000000000000000000000000000000815260040161034b90612417565b60405180910390fd5b600073ffffffffffffffffffffffffffffffffffffffff168373ffffffffffffffffffffffffffffffffffffffff16036103c3576040517f08c379a00000000000000000000000000000000000000000000000000000000081526004016103ba906124a9565b60405180910390fd5b6003600083815260200190815260200160002060008473ffffffffffffffffffffffffffffffffffffffff1673ffffffffffffffffffffffffffffffffffffffff16815260200190815260200160002054905092915050565b6000806000837bffffffffffffffffffffffffffffffffffffffffffffffffffffffff19167bffffffffffffffffffffffffffffffffffffffffffffffffffffffff1916815260200190815260200160002060009054906101000a900460ff169050919050565b606060098054610492906124f8565b80601f01602080910402602001604051908101604052809291908181526020018280546104be906124f8565b801561050b5780601f106104e05761010080835404028352916020019161050b565b820191906000526020600020905b8154815290600101906020018083116104ee57829003601f168201915b5050505050905090565b600061052160076113c5565b905090565b815183511461056a576040517f08c379a00000000000000000000000000000000000000000000000000000000081526004016105619061259b565b60405180910390fd5b600073ffffffffffffffffffffffffffffffffffffffff168473ffffffffffffffffffffffffffffffffffffffff16036105d9576040517f08c379a00000000000000000000000000000000000000000000000000000000081526004016105d09061262d565b60405180910390fd5b6105e16113da565b73ffffffffffffffffffffffffffffffffffffffff168573ffffffffffffffffffffffffffffffffffffffff1614806106275750610626856106216113da565b610fd2565b5b610666576040517f08c379a000000000000000000000000000000000000000000000000000000000815260040161065d906126bf565b60405180910390fd5b60006106706113da565b90506106808187878787876113e2565b60005b84518110156108655760008582815181106106a1576106a06126df565b5b6020026020010151905060008583815181106106c0576106bf6126df565b5b60200260200101519050610747816040518060600160405280602a8152602001612fc1602a91396003600086815260200190815260200160002060008d73ffffffffffffffffffffffffffffffffffffffff1673ffffffffffffffffffffffffffffffffffffffff168152602001908152602001600020546113ea9092919063ffffffff16565b6003600084815260200190815260200160002060008b73ffffffffffffffffffffffffffffffffffffffff1673ffffffffffffffffffffffffffffffffffffffff168152602001908152602001600020819055506107fe816003600085815260200190815260200160002060008b73ffffffffffffffffffffffffffffffffffffffff1673ffffffffffffffffffffffffffffffffffffffff1681526020019081526020016000205461144e90919063ffffffff16565b6003600084815260200190815260200160002060008a73ffffffffffffffffffffffffffffffffffffffff1673ffffffffffffffffffffffffffffffffffffffff1681526020019081526020016000208190555050508061085e9061273d565b9050610683565b508473ffffffffffffffffffffffffffffffffffffffff168673ffffffffffffffffffffffffffffffffffffffff168273ffffffffffffffffffffffffffffffffffffffff167f4a39dc06d4c0dbc64b70af90fd698a233a518aa5d07e595d983b8c0526c8f7fb87876040516108dc929190612785565b60405180910390a46108f28187878787876114ac565b505050505050565b60608151835114610940576040517f08c379a00000000000000000000000000000000000000000000000000000000081526004016109379061282e565b60405180910390fd5b6000835167ffffffffffffffff81111561095d5761095c611d29565b5b60405190808252806020026020018201604052801561098b5781602001602082028036833780820191505090505b50905060005b8451811015610ad857600073ffffffffffffffffffffffffffffffffffffffff168582815181106109c5576109c46126df565b5b602002602001015173ffffffffffffffffffffffffffffffffffffffff1603610a23576040517f08c379a0000000000000000000000000000000000000000000000000000000008152600401610a1a906128c0565b60405180910390fd5b60036000858381518110610a3a57610a396126df565b5b602002602001015181526020019081526020016000206000868381518110610a6557610a646126df565b5b602002602001015173ffffffffffffffffffffffffffffffffffffffff1673ffffffffffffffffffffffffffffffffffffffff16815260200190815260200160002054828281518110610abb57610aba6126df565b5b60200260200101818152505080610ad19061273d565b9050610991565b508091505092915050565b6060600a8054610af2906124f8565b80601f0160208091040260200160405190810160405280929190818152602001828054610b1e906124f8565b8015610b6b5780601f10610b4057610100808354040283529160200191610b6b565b820191906000526020600020905b815481529060010190602001808311610b4e57829003601f168201915b5050505050905090565b8173ffffffffffffffffffffffffffffffffffffffff16610b946113da565b73ffffffffffffffffffffffffffffffffffffffff1603610bea576040517f08c379a0000000000000000000000000000000000000000000000000000000008152600401610be190612952565b60405180910390fd5b8060046000610bf76113da565b73ffffffffffffffffffffffffffffffffffffffff1673ffffffffffffffffffffffffffffffffffffffff16815260200190815260200160002060008473ffffffffffffffffffffffffffffffffffffffff1673ffffffffffffffffffffffffffffffffffffffff16815260200190815260200160002060006101000a81548160ff0219169083151502179055508173ffffffffffffffffffffffffffffffffffffffff16610ca46113da565b73ffffffffffffffffffffffffffffffffffffffff167f17307eab39ab6107e8899845ad3d59bd9653f200f220920489ca2b5937696c3183604051610ce99190611c57565b60405180910390a35050565b60058054610d02906124f8565b80601f0160208091040260200160405190810160405280929190818152602001828054610d2e906124f8565b8015610d7b5780601f10610d5057610100808354040283529160200191610d7b565b820191906000526020600020905b815481529060010190602001808311610d5e57829003601f168201915b505050505081565b600060026000838152602001908152602001600020549050919050565b6060610dab826113a8565b610dea576040517f08c379a0000000000000000000000000000000000000000000000000000000008152600401610de1906129e4565b60405180910390fd5b6000600660008481526020019081526020016000208054610e0a906124f8565b80601f0160208091040260200160405190810160405280929190818152602001828054610e36906124f8565b8015610e835780601f10610e5857610100808354040283529160200191610e83565b820191906000526020600020905b815481529060010190602001808311610e6657829003601f168201915b50505050509050600060058054610e99906124f8565b80601f0160208091040260200160405190810160405280929190818152602001828054610ec5906124f8565b8015610f125780601f10610ee757610100808354040283529160200191610f12565b820191906000526020600020905b815481529060010190602001808311610ef557829003601f168201915b505050505090506000815103610f2c578192505050610f90565b600082511115610f61578082604051602001610f49929190612a40565b60405160208183030381529060405292505050610f90565b80610f6b85611683565b604051602001610f7c929190612a40565b604051602081830303815290604052925050505b919050565b60006001600083815260200190815260200160002060009054906101000a900473ffffffffffffffffffffffffffffffffffffffff169050919050565b6000600460008473ffffffffffffffffffffffffffffffffffffffff1673ffffffffffffffffffffffffffffffffffffffff16815260200190815260200160002060008373ffffffffffffffffffffffffffffffffffffffff1673ffffffffffffffffffffffffffffffffffffffff16815260200190815260200160002060009054906101000a900460ff16905092915050565b600073ffffffffffffffffffffffffffffffffffffffff168473ffffffffffffffffffffffffffffffffffffffff16036110d5576040517f08c379a00000000000000000000000000000000000000000000000000000000081526004016110cc9061262d565b60405180910390fd5b6110dd6113da565b73ffffffffffffffffffffffffffffffffffffffff168573ffffffffffffffffffffffffffffffffffffffff16148061112357506111228561111d6113da565b610fd2565b5b611162576040517f08c379a000000000000000000000000000000000000000000000000000000000815260040161115990612ad6565b60405180910390fd5b600061116c6113da565b905061118c81878761117d886117e3565b611186886117e3565b876113e2565b611209836040518060600160405280602a8152602001612fc1602a91396003600088815260200190815260200160002060008a73ffffffffffffffffffffffffffffffffffffffff1673ffffffffffffffffffffffffffffffffffffffff168152602001908152602001600020546113ea9092919063ffffffff16565b6003600086815260200190815260200160002060008873ffffffffffffffffffffffffffffffffffffffff1673ffffffffffffffffffffffffffffffffffffffff168152602001908152602001600020819055506112c0836003600087815260200190815260200160002060008873ffffffffffffffffffffffffffffffffffffffff1673ffffffffffffffffffffffffffffffffffffffff1681526020019081526020016000205461144e90919063ffffffff16565b6003600086815260200190815260200160002060008773ffffffffffffffffffffffffffffffffffffffff1673ffffffffffffffffffffffffffffffffffffffff168152602001908152602001600020819055508473ffffffffffffffffffffffffffffffffffffffff168673ffffffffffffffffffffffffffffffffffffffff168273ffffffffffffffffffffffffffffffffffffffff167fc3d58168c5ae7397731d063d5bbf3d657854427343f4c083240f7aacaa2d0f62878760405161138a929190612af6565b60405180910390a46113a081878787878761185d565b505050505050565b60006113be826007611a3490919063ffffffff16565b9050919050565b60006113d382600001611a4e565b9050919050565b600033905090565b505050505050565b6000838311158290611432576040517f08c379a00000000000000000000000000000000000000000000000000000000081526004016114299190611d02565b60405180910390fd5b50600083856114419190612b1f565b9050809150509392505050565b600080828461145d9190612b53565b9050838110156114a2576040517f08c379a000000000000000000000000000000000000000000000000000000000815260040161149990612bd3565b60405180910390fd5b8091505092915050565b6114cb8473ffffffffffffffffffffffffffffffffffffffff16611a5f565b1561167b578373ffffffffffffffffffffffffffffffffffffffff1663bc197c8187878686866040518663ffffffff1660e01b8152600401611511959493929190612c48565b6020604051808303816000875af192505050801561154d57506040513d601f19601f8201168201806040525081019061154a9190612cc5565b60015b6115f257611559612cff565b806308c379a0036115b5575061156d612d21565b8061157857506115b7565b806040517f08c379a00000000000000000000000000000000000000000000000000000000081526004016115ac9190611d02565b60405180910390fd5b505b6040517f08c379a00000000000000000000000000000000000000000000000000000000081526004016115e990612e23565b60405180910390fd5b63bc197c8160e01b7bffffffffffffffffffffffffffffffffffffffffffffffffffffffff1916817bffffffffffffffffffffffffffffffffffffffffffffffffffffffff191614611679576040517f08c379a000000000000000000000000000000000000000000000000000000000815260040161167090612eb5565b60405180910390fd5b505b505050505050565b6060600082036116ca576040518060400160405280600181526020017f300000000000000000000000000000000000000000000000000000000000000081525090506117de565b600082905060005b600082146116fc5780806116e59061273d565b915050600a826116f59190612f04565b91506116d2565b60008167ffffffffffffffff81111561171857611717611d29565b5b6040519080825280601f01601f19166020018201604052801561174a5781602001600182028036833780820191505090505b5090505b600085146117d7576001826117639190612b1f565b9150600a856117729190612f35565b603061177e9190612b53565b60f81b818381518110611794576117936126df565b5b60200101907effffffffffffffffffffffffffffffffffffffffffffffffffffffffffffff1916908160001a905350600a856117d09190612f04565b945061174e565b8093505050505b919050565b60606000600167ffffffffffffffff81111561180257611801611d29565b5b6040519080825280602002602001820160405280156118305781602001602082028036833780820191505090505b5090508281600081518110611848576118476126df565b5b60200260200101818152505080915050919050565b61187c8473ffffffffffffffffffffffffffffffffffffffff16611a5f565b15611a2c578373ffffffffffffffffffffffffffffffffffffffff1663f23a6e6187878686866040518663ffffffff1660e01b81526004016118c2959493929190612f66565b6020604051808303816000875af19250505080156118fe57506040513d601f19601f820116820180604052508101906118fb9190612cc5565b60015b6119a35761190a612cff565b806308c379a003611966575061191e612d21565b806119295750611968565b806040517f08c379a000000000000000000000000000000000000000000000000000000000815260040161195d9190611d02565b60405180910390fd5b505b6040517f08c379a000000000000000000000000000000000000000000000000000000000815260040161199a90612e23565b60405180910390fd5b63f23a6e6160e01b7bffffffffffffffffffffffffffffffffffffffffffffffffffffffff1916817bffffffffffffffffffffffffffffffffffffffffffffffffffffffff191614611a2a576040517f08c379a0000000000000000000000000000000000000000000000000000000008152600401611a2190612eb5565b60405180910390fd5b505b505050505050565b6000611a46836000018360001b611a82565b905092915050565b600081600001805490509050919050565b6000808273ffffffffffffffffffffffffffffffffffffffff163b119050919050565b600080836001016000848152602001908152602001600020541415905092915050565b6000604051905090565b600080fd5b600080fd5b600073ffffffffffffffffffffffffffffffffffffffff82169050919050565b6000611ae482611ab9565b9050919050565b611af481611ad9565b8114611aff57600080fd5b50565b600081359050611b1181611aeb565b92915050565b6000819050919050565b611b2a81611b17565b8114611b3557600080fd5b50565b600081359050611b4781611b21565b92915050565b60008060408385031215611b6457611b63611aaf565b5b6000611b7285828601611b02565b9250506020611b8385828601611b38565b9150509250929050565b611b9681611b17565b82525050565b6000602082019050611bb16000830184611b8d565b92915050565b60007fffffffff0000000000000000000000000000000000000000000000000000000082169050919050565b611bec81611bb7565b8114611bf757600080fd5b50565b600081359050611c0981611be3565b92915050565b600060208284031215611c2557611c24611aaf565b5b6000611c3384828501611bfa565b91505092915050565b60008115159050919050565b611c5181611c3c565b82525050565b6000602082019050611c6c6000830184611c48565b92915050565b600081519050919050565b600082825260208201905092915050565b60005b83811015611cac578082015181840152602081019050611c91565b60008484015250505050565b6000601f19601f8301169050919050565b6000611cd482611c72565b611cde8185611c7d565b9350611cee818560208601611c8e565b611cf781611cb8565b840191505092915050565b60006020820190508181036000830152611d1c8184611cc9565b905092915050565b600080fd5b7f4e487b7100000000000000000000000000000000000000000000000000000000600052604160045260246000fd5b611d6182611cb8565b810181811067ffffffffffffffff82111715611d8057611d7f611d29565b5b80604052505050565b6000611d93611aa5565b9050611d9f8282611d58565b919050565b600067ffffffffffffffff821115611dbf57611dbe611d29565b5b602082029050602081019050919050565b600080fd5b6000611de8611de384611da4565b611d89565b90508083825260208201905060208402830185811115611e0b57611e0a611dd0565b5b835b81811015611e345780611e208882611b38565b845260208401935050602081019050611e0d565b5050509392505050565b600082601f830112611e5357611e52611d24565b5b8135611e63848260208601611dd5565b91505092915050565b600080fd5b600067ffffffffffffffff821115611e8c57611e8b611d29565b5b611e9582611cb8565b9050602081019050919050565b82818337600083830152505050565b6000611ec4611ebf84611e71565b611d89565b905082815260208101848484011115611ee057611edf611e6c565b5b611eeb848285611ea2565b509392505050565b600082601f830112611f0857611f07611d24565b5b8135611f18848260208601611eb1565b91505092915050565b600080600080600060a08688031215611f3d57611f3c611aaf565b5b6000611f4b88828901611b02565b9550506020611f5c88828901611b02565b945050604086013567ffffffffffffffff811115611f7d57611f7c611ab4565b5b611f8988828901611e3e565b935050606086013567ffffffffffffffff811115611faa57611fa9611ab4565b5b611fb688828901611e3e565b925050608086013567ffffffffffffffff811115611fd757611fd6611ab4565b5b611fe388828901611ef3565b9150509295509295909350565b600067ffffffffffffffff82111561200b5761200a611d29565b5b602082029050602081019050919050565b600061202f61202a84611ff0565b611d89565b9050808382526020820190506020840283018581111561205257612051611dd0565b5b835b8181101561207b57806120678882611b02565b845260208401935050602081019050612054565b5050509392505050565b600082601f83011261209a57612099611d24565b5b81356120aa84826020860161201c565b91505092915050565b600080604083850312156120ca576120c9611aaf565b5b600083013567ffffffffffffffff8111156120e8576120e7611ab4565b5b6120f485828601612085565b925050602083013567ffffffffffffffff81111561211557612114611ab4565b5b61212185828601611e3e565b9150509250929050565b600081519050919050565b600082825260208201905092915050565b6000819050602082019050919050565b61216081611b17565b82525050565b60006121728383612157565b60208301905092915050565b6000602082019050919050565b60006121968261212b565b6121a08185612136565b93506121ab83612147565b8060005b838110156121dc5781516121c38882612166565b97506121ce8361217e565b9250506001810190506121af565b5085935050505092915050565b60006020820190508181036000830152612203818461218b565b905092915050565b61221481611c3c565b811461221f57600080fd5b50565b6000813590506122318161220b565b92915050565b6000806040838503121561224e5761224d611aaf565b5b600061225c85828601611b02565b925050602061226d85828601612222565b9150509250929050565b60006020828403121561228d5761228c611aaf565b5b600061229b84828501611b38565b91505092915050565b6122ad81611ad9565b82525050565b60006020820190506122c860008301846122a4565b92915050565b600080604083850312156122e5576122e4611aaf565b5b60006122f385828601611b02565b925050602061230485828601611b02565b9150509250929050565b600080600080600060a0868803121561232a57612329611aaf565b5b600061233888828901611b02565b955050602061234988828901611b02565b945050604061235a88828901611b38565b935050606061236b88828901611b38565b925050608086013567ffffffffffffffff81111561238c5761238b611ab4565b5b61239888828901611ef3565b9150509295509295909350565b7f455243313135354d657461646174613a2062616c616e6365207175657279206660008201527f6f72206e6f6e6578697374656e7420746f6b656e000000000000000000000000602082015250565b6000612401603483611c7d565b915061240c826123a5565b604082019050919050565b60006020820190508181036000830152612430816123f4565b9050919050565b7f455243313135353a2062616c616e636520717565727920666f7220746865207a60008201527f65726f2061646472657373000000000000000000000000000000000000000000602082015250565b6000612493602b83611c7d565b915061249e82612437565b604082019050919050565b600060208201905081810360008301526124c281612486565b9050919050565b7f4e487b7100000000000000000000000000000000000000000000000000000000600052602260045260246000fd5b6000600282049050600182168061251057607f821691505b602082108103612523576125226124c9565b5b50919050565b7f455243313135353a2069647320616e6420616d6f756e7473206c656e6774682060008201527f6d69736d61746368000000000000000000000000000000000000000000000000602082015250565b6000612585602883611c7d565b915061259082612529565b604082019050919050565b600060208201905081810360008301526125b481612578565b9050919050565b7f455243313135353a207472616e7366657220746f20746865207a65726f20616460008201527f6472657373000000000000000000000000000000000000000000000000000000602082015250565b6000612617602583611c7d565b9150612622826125bb565b604082019050919050565b600060208201905081810360008301526126468161260a565b9050919050565b7f455243313135353a207472616e736665722063616c6c6572206973206e6f742060008201527f6f776e6572206e6f7220617070726f7665640000000000000000000000000000602082015250565b60006126a9603283611c7d565b91506126b48261264d565b604082019050919050565b600060208201905081810360008301526126d88161269c565b9050919050565b7f4e487b7100000000000000000000000000000000000000000000000000000000600052603260045260246000fd5b7f4e487b7100000000000000000000000000000000000000000000000000000000600052601160045260246000fd5b600061274882611b17565b91507fffffffffffffffffffffffffffffffffffffffffffffffffffffffffffffffff820361277a5761277961270e565b5b600182019050919050565b6000604082019050818103600083015261279f818561218b565b905081810360208301526127b3818461218b565b90509392505050565b7f455243313135353a206163636f756e747320616e6420696473206c656e67746860008201527f206d69736d617463680000000000000000000000000000000000000000000000602082015250565b6000612818602983611c7d565b9150612823826127bc565b604082019050919050565b600060208201905081810360008301526128478161280b565b9050919050565b7f455243313135353a2062617463682062616c616e636520717565727920666f7260008201527f20746865207a65726f2061646472657373000000000000000000000000000000602082015250565b60006128aa603183611c7d565b91506128b58261284e565b604082019050919050565b600060208201905081810360008301526128d98161289d565b9050919050565b7f455243313135353a2073657474696e6720617070726f76616c2073746174757360008201527f20666f722073656c660000000000000000000000000000000000000000000000602082015250565b600061293c602983611c7d565b9150612947826128e0565b604082019050919050565b6000602082019050818103600083015261296b8161292f565b9050919050565b7f455243313135354d657461646174613a2055524920717565727920666f72206e60008201527f6f6e6578697374656e7420746f6b656e00000000000000000000000000000000602082015250565b60006129ce603083611c7d565b91506129d982612972565b604082019050919050565b600060208201905081810360008301526129fd816129c1565b9050919050565b600081905092915050565b6000612a1a82611c72565b612a248185612a04565b9350612a34818560208601611c8e565b80840191505092915050565b6000612a4c8285612a0f565b9150612a588284612a0f565b91508190509392505050565b7f455243313135353a2063616c6c6572206973206e6f74206f776e6572206e6f7260008201527f20617070726f7665640000000000000000000000000000000000000000000000602082015250565b6000612ac0602983611c7d565b9150612acb82612a64565b604082019050919050565b60006020820190508181036000830152612aef81612ab3565b9050919050565b6000604082019050612b0b6000830185611b8d565b612b186020830184611b8d565b9392505050565b6000612b2a82611b17565b9150612b3583611b17565b9250828203905081811115612b4d57612b4c61270e565b5b92915050565b6000612b5e82611b17565b9150612b6983611b17565b9250828201905080821115612b8157612b8061270e565b5b92915050565b7f536166654d6174683a206164646974696f6e206f766572666c6f770000000000600082015250565b6000612bbd601b83611c7d565b9150612bc882612b87565b602082019050919050565b60006020820190508181036000830152612bec81612bb0565b9050919050565b600081519050919050565b600082825260208201905092915050565b6000612c1a82612bf3565b612c248185612bfe565b9350612c34818560208601611c8e565b612c3d81611cb8565b840191505092915050565b600060a082019050612c5d60008301886122a4565b612c6a60208301876122a4565b8181036040830152612c7c818661218b565b90508181036060830152612c90818561218b565b90508181036080830152612ca48184612c0f565b90509695505050505050565b600081519050612cbf81611be3565b92915050565b600060208284031215612cdb57612cda611aaf565b5b6000612ce984828501612cb0565b91505092915050565b60008160e01c9050919050565b600060033d1115612d1e5760046000803e612d1b600051612cf2565b90505b90565b600060443d10612dae57612d33611aa5565b60043d036004823e80513d602482011167ffffffffffffffff82111715612d5b575050612dae565b808201805167ffffffffffffffff811115612d795750505050612dae565b80602083010160043d038501811115612d96575050505050612dae565b612da582602001850186611d58565b82955050505050505b90565b7f455243313135353a207472616e7366657220746f206e6f6e204552433131353560008201527f526563656976657220696d706c656d656e746572000000000000000000000000602082015250565b6000612e0d603483611c7d565b9150612e1882612db1565b604082019050919050565b60006020820190508181036000830152612e3c81612e00565b9050919050565b7f455243313135353a204552433131353552656365697665722072656a6563746560008201527f6420746f6b656e73000000000000000000000000000000000000000000000000602082015250565b6000612e9f602883611c7d565b9150612eaa82612e43565b604082019050919050565b60006020820190508181036000830152612ece81612e92565b9050919050565b7f4e487b7100000000000000000000000000000000000000000000000000000000600052601260045260246000fd5b6000612f0f82611b17565b9150612f1a83611b17565b925082612f2a57612f29612ed5565b5b828204905092915050565b6000612f4082611b17565b9150612f4b83611b17565b925082612f5b57612f5a612ed5565b5b828206905092915050565b600060a082019050612f7b60008301886122a4565b612f8860208301876122a4565b612f956040830186611b8d565b612fa26060830185611b8d565b8181036080830152612fb48184612c0f565b9050969550505050505056fe455243313135353a20696e73756666696369656e742062616c616e636520666f72207472616e73666572a26469706673582212201b30d8156f8f5062a1139ebc7e396d5ba32d3e4e7d92653e250d50c2addc5ab964736f6c63430008110033",
					"opcodes": "PUSH1 0x80 PUSH1 0x40 MSTORE PUSH1 0x40 MLOAD DUP1 PUSH1 0x20 ADD PUSH1 0x40 MSTORE DUP1 PUSH1 0x0 DUP2 MSTORE POP PUSH1 0x5 SWAP1 DUP2 PUSH3 0x24 SWAP2 SWAP1 PUSH3 0x41D JUMP JUMPDEST POP CALLVALUE DUP1 ISZERO PUSH3 0x32 JUMPI PUSH1 0x0 DUP1 REVERT JUMPDEST POP PUSH1 0x40 MLOAD PUSH3 0x37A0 CODESIZE SUB DUP1 PUSH3 0x37A0 DUP4 CODECOPY DUP2 DUP2 ADD PUSH1 0x40 MSTORE DUP2 ADD SWAP1 PUSH3 0x58 SWAP2 SWAP1 PUSH3 0x668 JUMP JUMPDEST PUSH3 0x70 PUSH4 0x1FFC9A7 PUSH1 0xE0 SHL PUSH3 0xCC PUSH1 0x20 SHL PUSH1 0x20 SHR JUMP JUMPDEST DUP2 PUSH1 0x9 SWAP1 DUP2 PUSH3 0x81 SWAP2 SWAP1 PUSH3 0x41D JUMP JUMPDEST POP DUP1 PUSH1 0xA SWAP1 DUP2 PUSH3 0x93 SWAP2 SWAP1 PUSH3 0x41D JUMP JUMPDEST POP PUSH3 0xAC PUSH4 0xD9B67A26 PUSH1 0xE0 SHL PUSH3 0xCC PUSH1 0x20 SHL PUSH1 0x20 SHR JUMP JUMPDEST PUSH3 0xC4 PUSH4 0xE89341C PUSH1 0xE0 SHL PUSH3 0xCC PUSH1 0x20 SHL PUSH1 0x20 SHR JUMP JUMPDEST POP POP PUSH3 0x770 JUMP JUMPDEST PUSH4 0xFFFFFFFF PUSH1 0xE0 SHL DUP2 PUSH28 0xFFFFFFFFFFFFFFFFFFFFFFFFFFFFFFFFFFFFFFFFFFFFFFFFFFFFFFFF NOT AND SUB PUSH3 0x137 JUMPI PUSH1 0x40 MLOAD PUSH32 0x8C379A000000000000000000000000000000000000000000000000000000000 DUP2 MSTORE PUSH1 0x4 ADD PUSH3 0x12E SWAP1 PUSH3 0x74E JUMP JUMPDEST PUSH1 0x40 MLOAD DUP1 SWAP2 SUB SWAP1 REVERT JUMPDEST PUSH1 0x1 PUSH1 0x0 DUP1 DUP4 PUSH28 0xFFFFFFFFFFFFFFFFFFFFFFFFFFFFFFFFFFFFFFFFFFFFFFFFFFFFFFFF NOT AND PUSH28 0xFFFFFFFFFFFFFFFFFFFFFFFFFFFFFFFFFFFFFFFFFFFFFFFFFFFFFFFF NOT AND DUP2 MSTORE PUSH1 0x20 ADD SWAP1 DUP2 MSTORE PUSH1 0x20 ADD PUSH1 0x0 KECCAK256 PUSH1 0x0 PUSH2 0x100 EXP DUP2 SLOAD DUP2 PUSH1 0xFF MUL NOT AND SWAP1 DUP4 ISZERO ISZERO MUL OR SWAP1 SSTORE POP POP JUMP JUMPDEST PUSH1 0x0 DUP2 MLOAD SWAP1 POP SWAP2 SWAP1 POP JUMP JUMPDEST PUSH32 0x4E487B7100000000000000000000000000000000000000000000000000000000 PUSH1 0x0 MSTORE PUSH1 0x41 PUSH1 0x4 MSTORE PUSH1 0x24 PUSH1 0x0 REVERT JUMPDEST PUSH32 0x4E487B7100000000000000000000000000000000000000000000000000000000 PUSH1 0x0 MSTORE PUSH1 0x22 PUSH1 0x4 MSTORE PUSH1 0x24 PUSH1 0x0 REVERT JUMPDEST PUSH1 0x0 PUSH1 0x2 DUP3 DIV SWAP1 POP PUSH1 0x1 DUP3 AND DUP1 PUSH3 0x225 JUMPI PUSH1 0x7F DUP3 AND SWAP2 POP JUMPDEST PUSH1 0x20 DUP3 LT DUP2 SUB PUSH3 0x23B JUMPI PUSH3 0x23A PUSH3 0x1DD JUMP JUMPDEST JUMPDEST POP SWAP2 SWAP1 POP JUMP JUMPDEST PUSH1 0x0 DUP2 SWAP1 POP DUP2 PUSH1 0x0 MSTORE PUSH1 0x20 PUSH1 0x0 KECCAK256 SWAP1 POP SWAP2 SWAP1 POP JUMP JUMPDEST PUSH1 0x0 PUSH1 0x20 PUSH1 0x1F DUP4 ADD DIV SWAP1 POP SWAP2 SWAP1 POP JUMP JUMPDEST PUSH1 0x0 DUP3 DUP3 SHL SWAP1 POP SWAP3 SWAP2 POP POP JUMP JUMPDEST PUSH1 0x0 PUSH1 0x8 DUP4 MUL PUSH3 0x2A5 PUSH32 0xFFFFFFFFFFFFFFFFFFFFFFFFFFFFFFFFFFFFFFFFFFFFFFFFFFFFFFFFFFFFFFFF DUP3 PUSH3 0x266 JUMP JUMPDEST PUSH3 0x2B1 DUP7 DUP4 PUSH3 0x266 JUMP JUMPDEST SWAP6 POP DUP1 NOT DUP5 AND SWAP4 POP DUP1 DUP7 AND DUP5 OR SWAP3 POP POP POP SWAP4 SWAP3 POP POP POP JUMP JUMPDEST PUSH1 0x0 DUP2 SWAP1 POP SWAP2 SWAP1 POP JUMP JUMPDEST PUSH1 0x0 DUP2 SWAP1 POP SWAP2 SWAP1 POP JUMP JUMPDEST PUSH1 0x0 PUSH3 0x2FE PUSH3 0x2F8 PUSH3 0x2F2 DUP5 PUSH3 0x2C9 JUMP JUMPDEST PUSH3 0x2D3 JUMP JUMPDEST PUSH3 0x2C9 JUMP JUMPDEST SWAP1 POP SWAP2 SWAP1 POP JUMP JUMPDEST PUSH1 0x0 DUP2 SWAP1 POP SWAP2 SWAP1 POP JUMP JUMPDEST PUSH3 0x31A DUP4 PUSH3 0x2DD JUMP JUMPDEST PUSH3 0x332 PUSH3 0x329 DUP3 PUSH3 0x305 JUMP JUMPDEST DUP5 DUP5 SLOAD PUSH3 0x273 JUMP JUMPDEST DUP3 SSTORE POP POP POP POP JUMP JUMPDEST PUSH1 0x0 SWAP1 JUMP JUMPDEST PUSH3 0x349 PUSH3 0x33A JUMP JUMPDEST PUSH3 0x356 DUP2 DUP5 DUP5 PUSH3 0x30F JUMP JUMPDEST POP POP POP JUMP JUMPDEST JUMPDEST DUP2 DUP2 LT ISZERO PUSH3 0x37E JUMPI PUSH3 0x372 PUSH1 0x0 DUP3 PUSH3 0x33F JUMP JUMPDEST PUSH1 0x1 DUP2 ADD SWAP1 POP PUSH3 0x35C JUMP JUMPDEST POP POP JUMP JUMPDEST PUSH1 0x1F DUP3 GT ISZERO PUSH3 0x3CD JUMPI PUSH3 0x397 DUP2 PUSH3 0x241 JUMP JUMPDEST PUSH3 0x3A2 DUP5 PUSH3 0x256 JUMP JUMPDEST DUP2 ADD PUSH1 0x20 DUP6 LT ISZERO PUSH3 0x3B2 JUMPI DUP2 SWAP1 POP JUMPDEST PUSH3 0x3CA PUSH3 0x3C1 DUP6 PUSH3 0x256 JUMP JUMPDEST DUP4 ADD DUP3 PUSH3 0x35B JUMP JUMPDEST POP POP JUMPDEST POP POP POP JUMP JUMPDEST PUSH1 0x0 DUP3 DUP3 SHR SWAP1 POP SWAP3 SWAP2 POP POP JUMP JUMPDEST PUSH1 0x0 PUSH3 0x3F2 PUSH1 0x0 NOT DUP5 PUSH1 0x8 MUL PUSH3 0x3D2 JUMP JUMPDEST NOT DUP1 DUP4 AND SWAP2 POP POP SWAP3 SWAP2 POP POP JUMP JUMPDEST PUSH1 0x0 PUSH3 0x40D DUP4 DUP4 PUSH3 0x3DF JUMP JUMPDEST SWAP2 POP DUP3 PUSH1 0x2 MUL DUP3 OR SWAP1 POP SWAP3 SWAP2 POP POP JUMP JUMPDEST PUSH3 0x428 DUP3 PUSH3 0x1A3 JUMP JUMPDEST PUSH8 0xFFFFFFFFFFFFFFFF DUP2 GT ISZERO PUSH3 0x444 JUMPI PUSH3 0x443 PUSH3 0x1AE JUMP JUMPDEST JUMPDEST PUSH3 0x450 DUP3 SLOAD PUSH3 0x20C JUMP JUMPDEST PUSH3 0x45D DUP3 DUP3 DUP6 PUSH3 0x382 JUMP JUMPDEST PUSH1 0x0 PUSH1 0x20 SWAP1 POP PUSH1 0x1F DUP4 GT PUSH1 0x1 DUP2 EQ PUSH3 0x495 JUMPI PUSH1 0x0 DUP5 ISZERO PUSH3 0x480 JUMPI DUP3 DUP8 ADD MLOAD SWAP1 POP JUMPDEST PUSH3 0x48C DUP6 DUP3 PUSH3 0x3FF JUMP JUMPDEST DUP7 SSTORE POP PUSH3 0x4FC JUMP JUMPDEST PUSH1 0x1F NOT DUP5 AND PUSH3 0x4A5 DUP7 PUSH3 0x241 JUMP JUMPDEST PUSH1 0x0 JUMPDEST DUP3 DUP2 LT ISZERO PUSH3 0x4CF JUMPI DUP5 DUP10 ADD MLOAD DUP3 SSTORE PUSH1 0x1 DUP3 ADD SWAP2 POP PUSH1 0x20 DUP6 ADD SWAP5 POP PUSH1 0x20 DUP2 ADD SWAP1 POP PUSH3 0x4A8 JUMP JUMPDEST DUP7 DUP4 LT ISZERO PUSH3 0x4EF JUMPI DUP5 DUP10 ADD MLOAD PUSH3 0x4EB PUSH1 0x1F DUP10 AND DUP3 PUSH3 0x3DF JUMP JUMPDEST DUP4 SSTORE POP JUMPDEST PUSH1 0x1 PUSH1 0x2 DUP9 MUL ADD DUP9 SSTORE POP POP POP JUMPDEST POP POP POP POP POP POP JUMP JUMPDEST PUSH1 0x0 PUSH1 0x40 MLOAD SWAP1 POP SWAP1 JUMP JUMPDEST PUSH1 0x0 DUP1 REVERT JUMPDEST PUSH1 0x0 DUP1 REVERT JUMPDEST PUSH1 0x0 DUP1 REVERT JUMPDEST PUSH1 0x0 DUP1 REVERT JUMPDEST PUSH1 0x0 PUSH1 0x1F NOT PUSH1 0x1F DUP4 ADD AND SWAP1 POP SWAP2 SWAP1 POP JUMP JUMPDEST PUSH3 0x53E DUP3 PUSH3 0x522 JUMP JUMPDEST DUP2 ADD DUP2 DUP2 LT PUSH8 0xFFFFFFFFFFFFFFFF DUP3 GT OR ISZERO PUSH3 0x560 JUMPI PUSH3 0x55F PUSH3 0x1AE JUMP JUMPDEST JUMPDEST DUP1 PUSH1 0x40 MSTORE POP POP POP JUMP JUMPDEST PUSH1 0x0 PUSH3 0x575 PUSH3 0x504 JUMP JUMPDEST SWAP1 POP PUSH3 0x583 DUP3 DUP3 PUSH3 0x533 JUMP JUMPDEST SWAP2 SWAP1 POP JUMP JUMPDEST PUSH1 0x0 PUSH8 0xFFFFFFFFFFFFFFFF DUP3 GT ISZERO PUSH3 0x5A6 JUMPI PUSH3 0x5A5 PUSH3 0x1AE JUMP JUMPDEST JUMPDEST PUSH3 0x5B1 DUP3 PUSH3 0x522 JUMP JUMPDEST SWAP1 POP PUSH1 0x20 DUP2 ADD SWAP1 POP SWAP2 SWAP1 POP JUMP JUMPDEST PUSH1 0x0 JUMPDEST DUP4 DUP2 LT ISZERO PUSH3 0x5DE JUMPI DUP1 DUP3 ADD MLOAD DUP2 DUP5 ADD MSTORE PUSH1 0x20 DUP2 ADD SWAP1 POP PUSH3 0x5C1 JUMP JUMPDEST PUSH1 0x0 DUP5 DUP5 ADD MSTORE POP POP POP POP JUMP JUMPDEST PUSH1 0x0 PUSH3 0x601 PUSH3 0x5FB DUP5 PUSH3 0x588 JUMP JUMPDEST PUSH3 0x569 JUMP JUMPDEST SWAP1 POP DUP3 DUP2 MSTORE PUSH1 0x20 DUP2 ADD DUP5 DUP5 DUP5 ADD GT ISZERO PUSH3 0x620 JUMPI PUSH3 0x61F PUSH3 0x51D JUMP JUMPDEST JUMPDEST PUSH3 0x62D DUP5 DUP3 DUP6 PUSH3 0x5BE JUMP JUMPDEST POP SWAP4 SWAP3 POP POP POP JUMP JUMPDEST PUSH1 0x0 DUP3 PUSH1 0x1F DUP4 ADD SLT PUSH3 0x64D JUMPI PUSH3 0x64C PUSH3 0x518 JUMP JUMPDEST JUMPDEST DUP2 MLOAD PUSH3 0x65F DUP5 DUP3 PUSH1 0x20 DUP7 ADD PUSH3 0x5EA JUMP JUMPDEST SWAP2 POP POP SWAP3 SWAP2 POP POP JUMP JUMPDEST PUSH1 0x0 DUP1 PUSH1 0x40 DUP4 DUP6 SUB SLT ISZERO PUSH3 0x682 JUMPI PUSH3 0x681 PUSH3 0x50E JUMP JUMPDEST JUMPDEST PUSH1 0x0 DUP4 ADD MLOAD PUSH8 0xFFFFFFFFFFFFFFFF DUP2 GT ISZERO PUSH3 0x6A3 JUMPI PUSH3 0x6A2 PUSH3 0x513 JUMP JUMPDEST JUMPDEST PUSH3 0x6B1 DUP6 DUP3 DUP7 ADD PUSH3 0x635 JUMP JUMPDEST SWAP3 POP POP PUSH1 0x20 DUP4 ADD MLOAD PUSH8 0xFFFFFFFFFFFFFFFF DUP2 GT ISZERO PUSH3 0x6D5 JUMPI PUSH3 0x6D4 PUSH3 0x513 JUMP JUMPDEST JUMPDEST PUSH3 0x6E3 DUP6 DUP3 DUP7 ADD PUSH3 0x635 JUMP JUMPDEST SWAP2 POP POP SWAP3 POP SWAP3 SWAP1 POP JUMP JUMPDEST PUSH1 0x0 DUP3 DUP3 MSTORE PUSH1 0x20 DUP3 ADD SWAP1 POP SWAP3 SWAP2 POP POP JUMP JUMPDEST PUSH32 0x4552433136353A20696E76616C696420696E7465726661636520696400000000 PUSH1 0x0 DUP3 ADD MSTORE POP JUMP JUMPDEST PUSH1 0x0 PUSH3 0x736 PUSH1 0x1C DUP4 PUSH3 0x6ED JUMP JUMPDEST SWAP2 POP PUSH3 0x743 DUP3 PUSH3 0x6FE JUMP JUMPDEST PUSH1 0x20 DUP3 ADD SWAP1 POP SWAP2 SWAP1 POP JUMP JUMPDEST PUSH1 0x0 PUSH1 0x20 DUP3 ADD SWAP1 POP DUP2 DUP2 SUB PUSH1 0x0 DUP4 ADD MSTORE PUSH3 0x769 DUP2 PUSH3 0x727 JUMP JUMPDEST SWAP1 POP SWAP2 SWAP1 POP JUMP JUMPDEST PUSH2 0x3020 DUP1 PUSH3 0x780 PUSH1 0x0 CODECOPY PUSH1 0x0 RETURN INVALID PUSH1 0x80 PUSH1 0x40 MSTORE CALLVALUE DUP1 ISZERO PUSH2 0x10 JUMPI PUSH1 0x0 DUP1 REVERT JUMPDEST POP PUSH1 0x4 CALLDATASIZE LT PUSH2 0xE9 JUMPI PUSH1 0x0 CALLDATALOAD PUSH1 0xE0 SHR DUP1 PUSH4 0xA22CB465 GT PUSH2 0x8C JUMPI DUP1 PUSH4 0xC87B56DD GT PUSH2 0x66 JUMPI DUP1 PUSH4 0xC87B56DD EQ PUSH2 0x25E JUMPI DUP1 PUSH4 0xD48E638A EQ PUSH2 0x28E JUMPI DUP1 PUSH4 0xE985E9C5 EQ PUSH2 0x2BE JUMPI DUP1 PUSH4 0xF242432A EQ PUSH2 0x2EE JUMPI PUSH2 0xE9 JUMP JUMPDEST DUP1 PUSH4 0xA22CB465 EQ PUSH2 0x1F4 JUMPI DUP1 PUSH4 0xC0AC9983 EQ PUSH2 0x210 JUMPI DUP1 PUSH4 0xC57DC235 EQ PUSH2 0x22E JUMPI PUSH2 0xE9 JUMP JUMPDEST DUP1 PUSH4 0x18160DDD GT PUSH2 0xC8 JUMPI DUP1 PUSH4 0x18160DDD EQ PUSH2 0x16C JUMPI DUP1 PUSH4 0x2EB2C2D6 EQ PUSH2 0x18A JUMPI DUP1 PUSH4 0x4E1273F4 EQ PUSH2 0x1A6 JUMPI DUP1 PUSH4 0x95D89B41 EQ PUSH2 0x1D6 JUMPI PUSH2 0xE9 JUMP JUMPDEST DUP1 PUSH3 0xFDD58E EQ PUSH2 0xEE JUMPI DUP1 PUSH4 0x1FFC9A7 EQ PUSH2 0x11E JUMPI DUP1 PUSH4 0x6FDDE03 EQ PUSH2 0x14E JUMPI JUMPDEST PUSH1 0x0 DUP1 REVERT JUMPDEST PUSH2 0x108 PUSH1 0x4 DUP1 CALLDATASIZE SUB DUP2 ADD SWAP1 PUSH2 0x103 SWAP2 SWAP1 PUSH2 0x1B4D JUMP JUMPDEST PUSH2 0x30A JUMP JUMPDEST PUSH1 0x40 MLOAD PUSH2 0x115 SWAP2 SWAP1 PUSH2 0x1B9C JUMP JUMPDEST PUSH1 0x40 MLOAD DUP1 SWAP2 SUB SWAP1 RETURN JUMPDEST PUSH2 0x138 PUSH1 0x4 DUP1 CALLDATASIZE SUB DUP2 ADD SWAP1 PUSH2 0x133 SWAP2 SWAP1 PUSH2 0x1C0F JUMP JUMPDEST PUSH2 0x41C JUMP JUMPDEST PUSH1 0x40 MLOAD PUSH2 0x145 SWAP2 SWAP1 PUSH2 0x1C57 JUMP JUMPDEST PUSH1 0x40 MLOAD DUP1 SWAP2 SUB SWAP1 RETURN JUMPDEST PUSH2 0x156 PUSH2 0x483 JUMP JUMPDEST PUSH1 0x40 MLOAD PUSH2 0x163 SWAP2 SWAP1 PUSH2 0x1D02 JUMP JUMPDEST PUSH1 0x40 MLOAD DUP1 SWAP2 SUB SWAP1 RETURN JUMPDEST PUSH2 0x174 PUSH2 0x515 JUMP JUMPDEST PUSH1 0x40 MLOAD PUSH2 0x181 SWAP2 SWAP1 PUSH2 0x1B9C JUMP JUMPDEST PUSH1 0x40 MLOAD DUP1 SWAP2 SUB SWAP1 RETURN JUMPDEST PUSH2 0x1A4 PUSH1 0x4 DUP1 CALLDATASIZE SUB DUP2 ADD SWAP1 PUSH2 0x19F SWAP2 SWAP1 PUSH2 0x1F21 JUMP JUMPDEST PUSH2 0x526 JUMP JUMPDEST STOP JUMPDEST PUSH2 0x1C0 PUSH1 0x4 DUP1 CALLDATASIZE SUB DUP2 ADD SWAP1 PUSH2 0x1BB SWAP2 SWAP1 PUSH2 0x20B3 JUMP JUMPDEST PUSH2 0x8FA JUMP JUMPDEST PUSH1 0x40 MLOAD PUSH2 0x1CD SWAP2 SWAP1 PUSH2 0x21E9 JUMP JUMPDEST PUSH1 0x40 MLOAD DUP1 SWAP2 SUB SWAP1 RETURN JUMPDEST PUSH2 0x1DE PUSH2 0xAE3 JUMP JUMPDEST PUSH1 0x40 MLOAD PUSH2 0x1EB SWAP2 SWAP1 PUSH2 0x1D02 JUMP JUMPDEST PUSH1 0x40 MLOAD DUP1 SWAP2 SUB SWAP1 RETURN JUMPDEST PUSH2 0x20E PUSH1 0x4 DUP1 CALLDATASIZE SUB DUP2 ADD SWAP1 PUSH2 0x209 SWAP2 SWAP1 PUSH2 0x2237 JUMP JUMPDEST PUSH2 0xB75 JUMP JUMPDEST STOP JUMPDEST PUSH2 0x218 PUSH2 0xCF5 JUMP JUMPDEST PUSH1 0x40 MLOAD PUSH2 0x225 SWAP2 SWAP1 PUSH2 0x1D02 JUMP JUMPDEST PUSH1 0x40 MLOAD DUP1 SWAP2 SUB SWAP1 RETURN JUMPDEST PUSH2 0x248 PUSH1 0x4 DUP1 CALLDATASIZE SUB DUP2 ADD SWAP1 PUSH2 0x243 SWAP2 SWAP1 PUSH2 0x2277 JUMP JUMPDEST PUSH2 0xD83 JUMP JUMPDEST PUSH1 0x40 MLOAD PUSH2 0x255 SWAP2 SWAP1 PUSH2 0x1B9C JUMP JUMPDEST PUSH1 0x40 MLOAD DUP1 SWAP2 SUB SWAP1 RETURN JUMPDEST PUSH2 0x278 PUSH1 0x4 DUP1 CALLDATASIZE SUB DUP2 ADD SWAP1 PUSH2 0x273 SWAP2 SWAP1 PUSH2 0x2277 JUMP JUMPDEST PUSH2 0xDA0 JUMP JUMPDEST PUSH1 0x40 MLOAD PUSH2 0x285 SWAP2 SWAP1 PUSH2 0x1D02 JUMP JUMPDEST PUSH1 0x40 MLOAD DUP1 SWAP2 SUB SWAP1 RETURN JUMPDEST PUSH2 0x2A8 PUSH1 0x4 DUP1 CALLDATASIZE SUB DUP2 ADD SWAP1 PUSH2 0x2A3 SWAP2 SWAP1 PUSH2 0x2277 JUMP JUMPDEST PUSH2 0xF95 JUMP JUMPDEST PUSH1 0x40 MLOAD PUSH2 0x2B5 SWAP2 SWAP1 PUSH2 0x22B3 JUMP JUMPDEST PUSH1 0x40 MLOAD DUP1 SWAP2 SUB SWAP1 RETURN JUMPDEST PUSH2 0x2D8 PUSH1 0x4 DUP1 CALLDATASIZE SUB DUP2 ADD SWAP1 PUSH2 0x2D3 SWAP2 SWAP1 PUSH2 0x22CE JUMP JUMPDEST PUSH2 0xFD2 JUMP JUMPDEST PUSH1 0x40 MLOAD PUSH2 0x2E5 SWAP2 SWAP1 PUSH2 0x1C57 JUMP JUMPDEST PUSH1 0x40 MLOAD DUP1 SWAP2 SUB SWAP1 RETURN JUMPDEST PUSH2 0x308 PUSH1 0x4 DUP1 CALLDATASIZE SUB DUP2 ADD SWAP1 PUSH2 0x303 SWAP2 SWAP1 PUSH2 0x230E JUMP JUMPDEST PUSH2 0x1066 JUMP JUMPDEST STOP JUMPDEST PUSH1 0x0 PUSH2 0x315 DUP3 PUSH2 0x13A8 JUMP JUMPDEST PUSH2 0x354 JUMPI PUSH1 0x40 MLOAD PUSH32 0x8C379A000000000000000000000000000000000000000000000000000000000 DUP2 MSTORE PUSH1 0x4 ADD PUSH2 0x34B SWAP1 PUSH2 0x2417 JUMP JUMPDEST PUSH1 0x40 MLOAD DUP1 SWAP2 SUB SWAP1 REVERT JUMPDEST PUSH1 0x0 PUSH20 0xFFFFFFFFFFFFFFFFFFFFFFFFFFFFFFFFFFFFFFFF AND DUP4 PUSH20 0xFFFFFFFFFFFFFFFFFFFFFFFFFFFFFFFFFFFFFFFF AND SUB PUSH2 0x3C3 JUMPI PUSH1 0x40 MLOAD PUSH32 0x8C379A000000000000000000000000000000000000000000000000000000000 DUP2 MSTORE PUSH1 0x4 ADD PUSH2 0x3BA SWAP1 PUSH2 0x24A9 JUMP JUMPDEST PUSH1 0x40 MLOAD DUP1 SWAP2 SUB SWAP1 REVERT JUMPDEST PUSH1 0x3 PUSH1 0x0 DUP4 DUP2 MSTORE PUSH1 0x20 ADD SWAP1 DUP2 MSTORE PUSH1 0x20 ADD PUSH1 0x0 KECCAK256 PUSH1 0x0 DUP5 PUSH20 0xFFFFFFFFFFFFFFFFFFFFFFFFFFFFFFFFFFFFFFFF AND PUSH20 0xFFFFFFFFFFFFFFFFFFFFFFFFFFFFFFFFFFFFFFFF AND DUP2 MSTORE PUSH1 0x20 ADD SWAP1 DUP2 MSTORE PUSH1 0x20 ADD PUSH1 0x0 KECCAK256 SLOAD SWAP1 POP SWAP3 SWAP2 POP POP JUMP JUMPDEST PUSH1 0x0 DUP1 PUSH1 0x0 DUP4 PUSH28 0xFFFFFFFFFFFFFFFFFFFFFFFFFFFFFFFFFFFFFFFFFFFFFFFFFFFFFFFF NOT AND PUSH28 0xFFFFFFFFFFFFFFFFFFFFFFFFFFFFFFFFFFFFFFFFFFFFFFFFFFFFFFFF NOT AND DUP2 MSTORE PUSH1 0x20 ADD SWAP1 DUP2 MSTORE PUSH1 0x20 ADD PUSH1 0x0 KECCAK256 PUSH1 0x0 SWAP1 SLOAD SWAP1 PUSH2 0x100 EXP SWAP1 DIV PUSH1 0xFF AND SWAP1 POP SWAP2 SWAP1 POP JUMP JUMPDEST PUSH1 0x60 PUSH1 0x9 DUP1 SLOAD PUSH2 0x492 SWAP1 PUSH2 0x24F8 JUMP JUMPDEST DUP1 PUSH1 0x1F ADD PUSH1 0x20 DUP1 SWAP2 DIV MUL PUSH1 0x20 ADD PUSH1 0x40 MLOAD SWAP1 DUP2 ADD PUSH1 0x40 MSTORE DUP1 SWAP3 SWAP2 SWAP1 DUP2 DUP2 MSTORE PUSH1 0x20 ADD DUP3 DUP1 SLOAD PUSH2 0x4BE SWAP1 PUSH2 0x24F8 JUMP JUMPDEST DUP1 ISZERO PUSH2 0x50B JUMPI DUP1 PUSH1 0x1F LT PUSH2 0x4E0 JUMPI PUSH2 0x100 DUP1 DUP4 SLOAD DIV MUL DUP4 MSTORE SWAP2 PUSH1 0x20 ADD SWAP2 PUSH2 0x50B JUMP JUMPDEST DUP3 ADD SWAP2 SWAP1 PUSH1 0x0 MSTORE PUSH1 0x20 PUSH1 0x0 KECCAK256 SWAP1 JUMPDEST DUP2 SLOAD DUP2 MSTORE SWAP1 PUSH1 0x1 ADD SWAP1 PUSH1 0x20 ADD DUP1 DUP4 GT PUSH2 0x4EE JUMPI DUP3 SWAP1 SUB PUSH1 0x1F AND DUP3 ADD SWAP2 JUMPDEST POP POP POP POP POP SWAP1 POP SWAP1 JUMP JUMPDEST PUSH1 0x0 PUSH2 0x521 PUSH1 0x7 PUSH2 0x13C5 JUMP JUMPDEST SWAP1 POP SWAP1 JUMP JUMPDEST DUP2 MLOAD DUP4 MLOAD EQ PUSH2 0x56A JUMPI PUSH1 0x40 MLOAD PUSH32 0x8C379A000000000000000000000000000000000000000000000000000000000 DUP2 MSTORE PUSH1 0x4 ADD PUSH2 0x561 SWAP1 PUSH2 0x259B JUMP JUMPDEST PUSH1 0x40 MLOAD DUP1 SWAP2 SUB SWAP1 REVERT JUMPDEST PUSH1 0x0 PUSH20 0xFFFFFFFFFFFFFFFFFFFFFFFFFFFFFFFFFFFFFFFF AND DUP5 PUSH20 0xFFFFFFFFFFFFFFFFFFFFFFFFFFFFFFFFFFFFFFFF AND SUB PUSH2 0x5D9 JUMPI PUSH1 0x40 MLOAD PUSH32 0x8C379A000000000000000000000000000000000000000000000000000000000 DUP2 MSTORE PUSH1 0x4 ADD PUSH2 0x5D0 SWAP1 PUSH2 0x262D JUMP JUMPDEST PUSH1 0x40 MLOAD DUP1 SWAP2 SUB SWAP1 REVERT JUMPDEST PUSH2 0x5E1 PUSH2 0x13DA JUMP JUMPDEST PUSH20 0xFFFFFFFFFFFFFFFFFFFFFFFFFFFFFFFFFFFFFFFF AND DUP6 PUSH20 0xFFFFFFFFFFFFFFFFFFFFFFFFFFFFFFFFFFFFFFFF AND EQ DUP1 PUSH2 0x627 JUMPI POP PUSH2 0x626 DUP6 PUSH2 0x621 PUSH2 0x13DA JUMP JUMPDEST PUSH2 0xFD2 JUMP JUMPDEST JUMPDEST PUSH2 0x666 JUMPI PUSH1 0x40 MLOAD PUSH32 0x8C379A000000000000000000000000000000000000000000000000000000000 DUP2 MSTORE PUSH1 0x4 ADD PUSH2 0x65D SWAP1 PUSH2 0x26BF JUMP JUMPDEST PUSH1 0x40 MLOAD DUP1 SWAP2 SUB SWAP1 REVERT JUMPDEST PUSH1 0x0 PUSH2 0x670 PUSH2 0x13DA JUMP JUMPDEST SWAP1 POP PUSH2 0x680 DUP2 DUP8 DUP8 DUP8 DUP8 DUP8 PUSH2 0x13E2 JUMP JUMPDEST PUSH1 0x0 JUMPDEST DUP5 MLOAD DUP2 LT ISZERO PUSH2 0x865 JUMPI PUSH1 0x0 DUP6 DUP3 DUP2 MLOAD DUP2 LT PUSH2 0x6A1 JUMPI PUSH2 0x6A0 PUSH2 0x26DF JUMP JUMPDEST JUMPDEST PUSH1 0x20 MUL PUSH1 0x20 ADD ADD MLOAD SWAP1 POP PUSH1 0x0 DUP6 DUP4 DUP2 MLOAD DUP2 LT PUSH2 0x6C0 JUMPI PUSH2 0x6BF PUSH2 0x26DF JUMP JUMPDEST JUMPDEST PUSH1 0x20 MUL PUSH1 0x20 ADD ADD MLOAD SWAP1 POP PUSH2 0x747 DUP2 PUSH1 0x40 MLOAD DUP1 PUSH1 0x60 ADD PUSH1 0x40 MSTORE DUP1 PUSH1 0x2A DUP2 MSTORE PUSH1 0x20 ADD PUSH2 0x2FC1 PUSH1 0x2A SWAP2 CODECOPY PUSH1 0x3 PUSH1 0x0 DUP7 DUP2 MSTORE PUSH1 0x20 ADD SWAP1 DUP2 MSTORE PUSH1 0x20 ADD PUSH1 0x0 KECCAK256 PUSH1 0x0 DUP14 PUSH20 0xFFFFFFFFFFFFFFFFFFFFFFFFFFFFFFFFFFFFFFFF AND PUSH20 0xFFFFFFFFFFFFFFFFFFFFFFFFFFFFFFFFFFFFFFFF AND DUP2 MSTORE PUSH1 0x20 ADD SWAP1 DUP2 MSTORE PUSH1 0x20 ADD PUSH1 0x0 KECCAK256 SLOAD PUSH2 0x13EA SWAP1 SWAP3 SWAP2 SWAP1 PUSH4 0xFFFFFFFF AND JUMP JUMPDEST PUSH1 0x3 PUSH1 0x0 DUP5 DUP2 MSTORE PUSH1 0x20 ADD SWAP1 DUP2 MSTORE PUSH1 0x20 ADD PUSH1 0x0 KECCAK256 PUSH1 0x0 DUP12 PUSH20 0xFFFFFFFFFFFFFFFFFFFFFFFFFFFFFFFFFFFFFFFF AND PUSH20 0xFFFFFFFFFFFFFFFFFFFFFFFFFFFFFFFFFFFFFFFF AND DUP2 MSTORE PUSH1 0x20 ADD SWAP1 DUP2 MSTORE PUSH1 0x20 ADD PUSH1 0x0 KECCAK256 DUP2 SWAP1 SSTORE POP PUSH2 0x7FE DUP2 PUSH1 0x3 PUSH1 0x0 DUP6 DUP2 MSTORE PUSH1 0x20 ADD SWAP1 DUP2 MSTORE PUSH1 0x20 ADD PUSH1 0x0 KECCAK256 PUSH1 0x0 DUP12 PUSH20 0xFFFFFFFFFFFFFFFFFFFFFFFFFFFFFFFFFFFFFFFF AND PUSH20 0xFFFFFFFFFFFFFFFFFFFFFFFFFFFFFFFFFFFFFFFF AND DUP2 MSTORE PUSH1 0x20 ADD SWAP1 DUP2 MSTORE PUSH1 0x20 ADD PUSH1 0x0 KECCAK256 SLOAD PUSH2 0x144E SWAP1 SWAP2 SWAP1 PUSH4 0xFFFFFFFF AND JUMP JUMPDEST PUSH1 0x3 PUSH1 0x0 DUP5 DUP2 MSTORE PUSH1 0x20 ADD SWAP1 DUP2 MSTORE PUSH1 0x20 ADD PUSH1 0x0 KECCAK256 PUSH1 0x0 DUP11 PUSH20 0xFFFFFFFFFFFFFFFFFFFFFFFFFFFFFFFFFFFFFFFF AND PUSH20 0xFFFFFFFFFFFFFFFFFFFFFFFFFFFFFFFFFFFFFFFF AND DUP2 MSTORE PUSH1 0x20 ADD SWAP1 DUP2 MSTORE PUSH1 0x20 ADD PUSH1 0x0 KECCAK256 DUP2 SWAP1 SSTORE POP POP POP DUP1 PUSH2 0x85E SWAP1 PUSH2 0x273D JUMP JUMPDEST SWAP1 POP PUSH2 0x683 JUMP JUMPDEST POP DUP5 PUSH20 0xFFFFFFFFFFFFFFFFFFFFFFFFFFFFFFFFFFFFFFFF AND DUP7 PUSH20 0xFFFFFFFFFFFFFFFFFFFFFFFFFFFFFFFFFFFFFFFF AND DUP3 PUSH20 0xFFFFFFFFFFFFFFFFFFFFFFFFFFFFFFFFFFFFFFFF AND PUSH32 0x4A39DC06D4C0DBC64B70AF90FD698A233A518AA5D07E595D983B8C0526C8F7FB DUP8 DUP8 PUSH1 0x40 MLOAD PUSH2 0x8DC SWAP3 SWAP2 SWAP1 PUSH2 0x2785 JUMP JUMPDEST PUSH1 0x40 MLOAD DUP1 SWAP2 SUB SWAP1 LOG4 PUSH2 0x8F2 DUP2 DUP8 DUP8 DUP8 DUP8 DUP8 PUSH2 0x14AC JUMP JUMPDEST POP POP POP POP POP POP JUMP JUMPDEST PUSH1 0x60 DUP2 MLOAD DUP4 MLOAD EQ PUSH2 0x940 JUMPI PUSH1 0x40 MLOAD PUSH32 0x8C379A000000000000000000000000000000000000000000000000000000000 DUP2 MSTORE PUSH1 0x4 ADD PUSH2 0x937 SWAP1 PUSH2 0x282E JUMP JUMPDEST PUSH1 0x40 MLOAD DUP1 SWAP2 SUB SWAP1 REVERT JUMPDEST PUSH1 0x0 DUP4 MLOAD PUSH8 0xFFFFFFFFFFFFFFFF DUP2 GT ISZERO PUSH2 0x95D JUMPI PUSH2 0x95C PUSH2 0x1D29 JUMP JUMPDEST JUMPDEST PUSH1 0x40 MLOAD SWAP1 DUP1 DUP3 MSTORE DUP1 PUSH1 0x20 MUL PUSH1 0x20 ADD DUP3 ADD PUSH1 0x40 MSTORE DUP1 ISZERO PUSH2 0x98B JUMPI DUP2 PUSH1 0x20 ADD PUSH1 0x20 DUP3 MUL DUP1 CALLDATASIZE DUP4 CALLDATACOPY DUP1 DUP3 ADD SWAP2 POP POP SWAP1 POP JUMPDEST POP SWAP1 POP PUSH1 0x0 JUMPDEST DUP5 MLOAD DUP2 LT ISZERO PUSH2 0xAD8 JUMPI PUSH1 0x0 PUSH20 0xFFFFFFFFFFFFFFFFFFFFFFFFFFFFFFFFFFFFFFFF AND DUP6 DUP3 DUP2 MLOAD DUP2 LT PUSH2 0x9C5 JUMPI PUSH2 0x9C4 PUSH2 0x26DF JUMP JUMPDEST JUMPDEST PUSH1 0x20 MUL PUSH1 0x20 ADD ADD MLOAD PUSH20 0xFFFFFFFFFFFFFFFFFFFFFFFFFFFFFFFFFFFFFFFF AND SUB PUSH2 0xA23 JUMPI PUSH1 0x40 MLOAD PUSH32 0x8C379A000000000000000000000000000000000000000000000000000000000 DUP2 MSTORE PUSH1 0x4 ADD PUSH2 0xA1A SWAP1 PUSH2 0x28C0 JUMP JUMPDEST PUSH1 0x40 MLOAD DUP1 SWAP2 SUB SWAP1 REVERT JUMPDEST PUSH1 0x3 PUSH1 0x0 DUP6 DUP4 DUP2 MLOAD DUP2 LT PUSH2 0xA3A JUMPI PUSH2 0xA39 PUSH2 0x26DF JUMP JUMPDEST JUMPDEST PUSH1 0x20 MUL PUSH1 0x20 ADD ADD MLOAD DUP2 MSTORE PUSH1 0x20 ADD SWAP1 DUP2 MSTORE PUSH1 0x20 ADD PUSH1 0x0 KECCAK256 PUSH1 0x0 DUP7 DUP4 DUP2 MLOAD DUP2 LT PUSH2 0xA65 JUMPI PUSH2 0xA64 PUSH2 0x26DF JUMP JUMPDEST JUMPDEST PUSH1 0x20 MUL PUSH1 0x20 ADD ADD MLOAD PUSH20 0xFFFFFFFFFFFFFFFFFFFFFFFFFFFFFFFFFFFFFFFF AND PUSH20 0xFFFFFFFFFFFFFFFFFFFFFFFFFFFFFFFFFFFFFFFF AND DUP2 MSTORE PUSH1 0x20 ADD SWAP1 DUP2 MSTORE PUSH1 0x20 ADD PUSH1 0x0 KECCAK256 SLOAD DUP3 DUP3 DUP2 MLOAD DUP2 LT PUSH2 0xABB JUMPI PUSH2 0xABA PUSH2 0x26DF JUMP JUMPDEST JUMPDEST PUSH1 0x20 MUL PUSH1 0x20 ADD ADD DUP2 DUP2 MSTORE POP POP DUP1 PUSH2 0xAD1 SWAP1 PUSH2 0x273D JUMP JUMPDEST SWAP1 POP PUSH2 0x991 JUMP JUMPDEST POP DUP1 SWAP2 POP POP SWAP3 SWAP2 POP POP JUMP JUMPDEST PUSH1 0x60 PUSH1 0xA DUP1 SLOAD PUSH2 0xAF2 SWAP1 PUSH2 0x24F8 JUMP JUMPDEST DUP1 PUSH1 0x1F ADD PUSH1 0x20 DUP1 SWAP2 DIV MUL PUSH1 0x20 ADD PUSH1 0x40 MLOAD SWAP1 DUP2 ADD PUSH1 0x40 MSTORE DUP1 SWAP3 SWAP2 SWAP1 DUP2 DUP2 MSTORE PUSH1 0x20 ADD DUP3 DUP1 SLOAD PUSH2 0xB1E SWAP1 PUSH2 0x24F8 JUMP JUMPDEST DUP1 ISZERO PUSH2 0xB6B JUMPI DUP1 PUSH1 0x1F LT PUSH2 0xB40 JUMPI PUSH2 0x100 DUP1 DUP4 SLOAD DIV MUL DUP4 MSTORE SWAP2 PUSH1 0x20 ADD SWAP2 PUSH2 0xB6B JUMP JUMPDEST DUP3 ADD SWAP2 SWAP1 PUSH1 0x0 MSTORE PUSH1 0x20 PUSH1 0x0 KECCAK256 SWAP1 JUMPDEST DUP2 SLOAD DUP2 MSTORE SWAP1 PUSH1 0x1 ADD SWAP1 PUSH1 0x20 ADD DUP1 DUP4 GT PUSH2 0xB4E JUMPI DUP3 SWAP1 SUB PUSH1 0x1F AND DUP3 ADD SWAP2 JUMPDEST POP POP POP POP POP SWAP1 POP SWAP1 JUMP JUMPDEST DUP2 PUSH20 0xFFFFFFFFFFFFFFFFFFFFFFFFFFFFFFFFFFFFFFFF AND PUSH2 0xB94 PUSH2 0x13DA JUMP JUMPDEST PUSH20 0xFFFFFFFFFFFFFFFFFFFFFFFFFFFFFFFFFFFFFFFF AND SUB PUSH2 0xBEA JUMPI PUSH1 0x40 MLOAD PUSH32 0x8C379A000000000000000000000000000000000000000000000000000000000 DUP2 MSTORE PUSH1 0x4 ADD PUSH2 0xBE1 SWAP1 PUSH2 0x2952 JUMP JUMPDEST PUSH1 0x40 MLOAD DUP1 SWAP2 SUB SWAP1 REVERT JUMPDEST DUP1 PUSH1 0x4 PUSH1 0x0 PUSH2 0xBF7 PUSH2 0x13DA JUMP JUMPDEST PUSH20 0xFFFFFFFFFFFFFFFFFFFFFFFFFFFFFFFFFFFFFFFF AND PUSH20 0xFFFFFFFFFFFFFFFFFFFFFFFFFFFFFFFFFFFFFFFF AND DUP2 MSTORE PUSH1 0x20 ADD SWAP1 DUP2 MSTORE PUSH1 0x20 ADD PUSH1 0x0 KECCAK256 PUSH1 0x0 DUP5 PUSH20 0xFFFFFFFFFFFFFFFFFFFFFFFFFFFFFFFFFFFFFFFF AND PUSH20 0xFFFFFFFFFFFFFFFFFFFFFFFFFFFFFFFFFFFFFFFF AND DUP2 MSTORE PUSH1 0x20 ADD SWAP1 DUP2 MSTORE PUSH1 0x20 ADD PUSH1 0x0 KECCAK256 PUSH1 0x0 PUSH2 0x100 EXP DUP2 SLOAD DUP2 PUSH1 0xFF MUL NOT AND SWAP1 DUP4 ISZERO ISZERO MUL OR SWAP1 SSTORE POP DUP2 PUSH20 0xFFFFFFFFFFFFFFFFFFFFFFFFFFFFFFFFFFFFFFFF AND PUSH2 0xCA4 PUSH2 0x13DA JUMP JUMPDEST PUSH20 0xFFFFFFFFFFFFFFFFFFFFFFFFFFFFFFFFFFFFFFFF AND PUSH32 0x17307EAB39AB6107E8899845AD3D59BD9653F200F220920489CA2B5937696C31 DUP4 PUSH1 0x40 MLOAD PUSH2 0xCE9 SWAP2 SWAP1 PUSH2 0x1C57 JUMP JUMPDEST PUSH1 0x40 MLOAD DUP1 SWAP2 SUB SWAP1 LOG3 POP POP JUMP JUMPDEST PUSH1 0x5 DUP1 SLOAD PUSH2 0xD02 SWAP1 PUSH2 0x24F8 JUMP JUMPDEST DUP1 PUSH1 0x1F ADD PUSH1 0x20 DUP1 SWAP2 DIV MUL PUSH1 0x20 ADD PUSH1 0x40 MLOAD SWAP1 DUP2 ADD PUSH1 0x40 MSTORE DUP1 SWAP3 SWAP2 SWAP1 DUP2 DUP2 MSTORE PUSH1 0x20 ADD DUP3 DUP1 SLOAD PUSH2 0xD2E SWAP1 PUSH2 0x24F8 JUMP JUMPDEST DUP1 ISZERO PUSH2 0xD7B JUMPI DUP1 PUSH1 0x1F LT PUSH2 0xD50 JUMPI PUSH2 0x100 DUP1 DUP4 SLOAD DIV MUL DUP4 MSTORE SWAP2 PUSH1 0x20 ADD SWAP2 PUSH2 0xD7B JUMP JUMPDEST DUP3 ADD SWAP2 SWAP1 PUSH1 0x0 MSTORE PUSH1 0x20 PUSH1 0x0 KECCAK256 SWAP1 JUMPDEST DUP2 SLOAD DUP2 MSTORE SWAP1 PUSH1 0x1 ADD SWAP1 PUSH1 0x20 ADD DUP1 DUP4 GT PUSH2 0xD5E JUMPI DUP3 SWAP1 SUB PUSH1 0x1F AND DUP3 ADD SWAP2 JUMPDEST POP POP POP POP POP DUP2 JUMP JUMPDEST PUSH1 0x0 PUSH1 0x2 PUSH1 0x0 DUP4 DUP2 MSTORE PUSH1 0x20 ADD SWAP1 DUP2 MSTORE PUSH1 0x20 ADD PUSH1 0x0 KECCAK256 SLOAD SWAP1 POP SWAP2 SWAP1 POP JUMP JUMPDEST PUSH1 0x60 PUSH2 0xDAB DUP3 PUSH2 0x13A8 JUMP JUMPDEST PUSH2 0xDEA JUMPI PUSH1 0x40 MLOAD PUSH32 0x8C379A000000000000000000000000000000000000000000000000000000000 DUP2 MSTORE PUSH1 0x4 ADD PUSH2 0xDE1 SWAP1 PUSH2 0x29E4 JUMP JUMPDEST PUSH1 0x40 MLOAD DUP1 SWAP2 SUB SWAP1 REVERT JUMPDEST PUSH1 0x0 PUSH1 0x6 PUSH1 0x0 DUP5 DUP2 MSTORE PUSH1 0x20 ADD SWAP1 DUP2 MSTORE PUSH1 0x20 ADD PUSH1 0x0 KECCAK256 DUP1 SLOAD PUSH2 0xE0A SWAP1 PUSH2 0x24F8 JUMP JUMPDEST DUP1 PUSH1 0x1F ADD PUSH1 0x20 DUP1 SWAP2 DIV MUL PUSH1 0x20 ADD PUSH1 0x40 MLOAD SWAP1 DUP2 ADD PUSH1 0x40 MSTORE DUP1 SWAP3 SWAP2 SWAP1 DUP2 DUP2 MSTORE PUSH1 0x20 ADD DUP3 DUP1 SLOAD PUSH2 0xE36 SWAP1 PUSH2 0x24F8 JUMP JUMPDEST DUP1 ISZERO PUSH2 0xE83 JUMPI DUP1 PUSH1 0x1F LT PUSH2 0xE58 JUMPI PUSH2 0x100 DUP1 DUP4 SLOAD DIV MUL DUP4 MSTORE SWAP2 PUSH1 0x20 ADD SWAP2 PUSH2 0xE83 JUMP JUMPDEST DUP3 ADD SWAP2 SWAP1 PUSH1 0x0 MSTORE PUSH1 0x20 PUSH1 0x0 KECCAK256 SWAP1 JUMPDEST DUP2 SLOAD DUP2 MSTORE SWAP1 PUSH1 0x1 ADD SWAP1 PUSH1 0x20 ADD DUP1 DUP4 GT PUSH2 0xE66 JUMPI DUP3 SWAP1 SUB PUSH1 0x1F AND DUP3 ADD SWAP2 JUMPDEST POP POP POP POP POP SWAP1 POP PUSH1 0x0 PUSH1 0x5 DUP1 SLOAD PUSH2 0xE99 SWAP1 PUSH2 0x24F8 JUMP JUMPDEST DUP1 PUSH1 0x1F ADD PUSH1 0x20 DUP1 SWAP2 DIV MUL PUSH1 0x20 ADD PUSH1 0x40 MLOAD SWAP1 DUP2 ADD PUSH1 0x40 MSTORE DUP1 SWAP3 SWAP2 SWAP1 DUP2 DUP2 MSTORE PUSH1 0x20 ADD DUP3 DUP1 SLOAD PUSH2 0xEC5 SWAP1 PUSH2 0x24F8 JUMP JUMPDEST DUP1 ISZERO PUSH2 0xF12 JUMPI DUP1 PUSH1 0x1F LT PUSH2 0xEE7 JUMPI PUSH2 0x100 DUP1 DUP4 SLOAD DIV MUL DUP4 MSTORE SWAP2 PUSH1 0x20 ADD SWAP2 PUSH2 0xF12 JUMP JUMPDEST DUP3 ADD SWAP2 SWAP1 PUSH1 0x0 MSTORE PUSH1 0x20 PUSH1 0x0 KECCAK256 SWAP1 JUMPDEST DUP2 SLOAD DUP2 MSTORE SWAP1 PUSH1 0x1 ADD SWAP1 PUSH1 0x20 ADD DUP1 DUP4 GT PUSH2 0xEF5 JUMPI DUP3 SWAP1 SUB PUSH1 0x1F AND DUP3 ADD SWAP2 JUMPDEST POP POP POP POP POP SWAP1 POP PUSH1 0x0 DUP2 MLOAD SUB PUSH2 0xF2C JUMPI DUP2 SWAP3 POP POP POP PUSH2 0xF90 JUMP JUMPDEST PUSH1 0x0 DUP3 MLOAD GT ISZERO PUSH2 0xF61 JUMPI DUP1 DUP3 PUSH1 0x40 MLOAD PUSH1 0x20 ADD PUSH2 0xF49 SWAP3 SWAP2 SWAP1 PUSH2 0x2A40 JUMP JUMPDEST PUSH1 0x40 MLOAD PUSH1 0x20 DUP2 DUP4 SUB SUB DUP2 MSTORE SWAP1 PUSH1 0x40 MSTORE SWAP3 POP POP POP PUSH2 0xF90 JUMP JUMPDEST DUP1 PUSH2 0xF6B DUP6 PUSH2 0x1683 JUMP JUMPDEST PUSH1 0x40 MLOAD PUSH1 0x20 ADD PUSH2 0xF7C SWAP3 SWAP2 SWAP1 PUSH2 0x2A40 JUMP JUMPDEST PUSH1 0x40 MLOAD PUSH1 0x20 DUP2 DUP4 SUB SUB DUP2 MSTORE SWAP1 PUSH1 0x40 MSTORE SWAP3 POP POP POP JUMPDEST SWAP2 SWAP1 POP JUMP JUMPDEST PUSH1 0x0 PUSH1 0x1 PUSH1 0x0 DUP4 DUP2 MSTORE PUSH1 0x20 ADD SWAP1 DUP2 MSTORE PUSH1 0x20 ADD PUSH1 0x0 KECCAK256 PUSH1 0x0 SWAP1 SLOAD SWAP1 PUSH2 0x100 EXP SWAP1 DIV PUSH20 0xFFFFFFFFFFFFFFFFFFFFFFFFFFFFFFFFFFFFFFFF AND SWAP1 POP SWAP2 SWAP1 POP JUMP JUMPDEST PUSH1 0x0 PUSH1 0x4 PUSH1 0x0 DUP5 PUSH20 0xFFFFFFFFFFFFFFFFFFFFFFFFFFFFFFFFFFFFFFFF AND PUSH20 0xFFFFFFFFFFFFFFFFFFFFFFFFFFFFFFFFFFFFFFFF AND DUP2 MSTORE PUSH1 0x20 ADD SWAP1 DUP2 MSTORE PUSH1 0x20 ADD PUSH1 0x0 KECCAK256 PUSH1 0x0 DUP4 PUSH20 0xFFFFFFFFFFFFFFFFFFFFFFFFFFFFFFFFFFFFFFFF AND PUSH20 0xFFFFFFFFFFFFFFFFFFFFFFFFFFFFFFFFFFFFFFFF AND DUP2 MSTORE PUSH1 0x20 ADD SWAP1 DUP2 MSTORE PUSH1 0x20 ADD PUSH1 0x0 KECCAK256 PUSH1 0x0 SWAP1 SLOAD SWAP1 PUSH2 0x100 EXP SWAP1 DIV PUSH1 0xFF AND SWAP1 POP SWAP3 SWAP2 POP POP JUMP JUMPDEST PUSH1 0x0 PUSH20 0xFFFFFFFFFFFFFFFFFFFFFFFFFFFFFFFFFFFFFFFF AND DUP5 PUSH20 0xFFFFFFFFFFFFFFFFFFFFFFFFFFFFFFFFFFFFFFFF AND SUB PUSH2 0x10D5 JUMPI PUSH1 0x40 MLOAD PUSH32 0x8C379A000000000000000000000000000000000000000000000000000000000 DUP2 MSTORE PUSH1 0x4 ADD PUSH2 0x10CC SWAP1 PUSH2 0x262D JUMP JUMPDEST PUSH1 0x40 MLOAD DUP1 SWAP2 SUB SWAP1 REVERT JUMPDEST PUSH2 0x10DD PUSH2 0x13DA JUMP JUMPDEST PUSH20 0xFFFFFFFFFFFFFFFFFFFFFFFFFFFFFFFFFFFFFFFF AND DUP6 PUSH20 0xFFFFFFFFFFFFFFFFFFFFFFFFFFFFFFFFFFFFFFFF AND EQ DUP1 PUSH2 0x1123 JUMPI POP PUSH2 0x1122 DUP6 PUSH2 0x111D PUSH2 0x13DA JUMP JUMPDEST PUSH2 0xFD2 JUMP JUMPDEST JUMPDEST PUSH2 0x1162 JUMPI PUSH1 0x40 MLOAD PUSH32 0x8C379A000000000000000000000000000000000000000000000000000000000 DUP2 MSTORE PUSH1 0x4 ADD PUSH2 0x1159 SWAP1 PUSH2 0x2AD6 JUMP JUMPDEST PUSH1 0x40 MLOAD DUP1 SWAP2 SUB SWAP1 REVERT JUMPDEST PUSH1 0x0 PUSH2 0x116C PUSH2 0x13DA JUMP JUMPDEST SWAP1 POP PUSH2 0x118C DUP2 DUP8 DUP8 PUSH2 0x117D DUP9 PUSH2 0x17E3 JUMP JUMPDEST PUSH2 0x1186 DUP9 PUSH2 0x17E3 JUMP JUMPDEST DUP8 PUSH2 0x13E2 JUMP JUMPDEST PUSH2 0x1209 DUP4 PUSH1 0x40 MLOAD DUP1 PUSH1 0x60 ADD PUSH1 0x40 MSTORE DUP1 PUSH1 0x2A DUP2 MSTORE PUSH1 0x20 ADD PUSH2 0x2FC1 PUSH1 0x2A SWAP2 CODECOPY PUSH1 0x3 PUSH1 0x0 DUP9 DUP2 MSTORE PUSH1 0x20 ADD SWAP1 DUP2 MSTORE PUSH1 0x20 ADD PUSH1 0x0 KECCAK256 PUSH1 0x0 DUP11 PUSH20 0xFFFFFFFFFFFFFFFFFFFFFFFFFFFFFFFFFFFFFFFF AND PUSH20 0xFFFFFFFFFFFFFFFFFFFFFFFFFFFFFFFFFFFFFFFF AND DUP2 MSTORE PUSH1 0x20 ADD SWAP1 DUP2 MSTORE PUSH1 0x20 ADD PUSH1 0x0 KECCAK256 SLOAD PUSH2 0x13EA SWAP1 SWAP3 SWAP2 SWAP1 PUSH4 0xFFFFFFFF AND JUMP JUMPDEST PUSH1 0x3 PUSH1 0x0 DUP7 DUP2 MSTORE PUSH1 0x20 ADD SWAP1 DUP2 MSTORE PUSH1 0x20 ADD PUSH1 0x0 KECCAK256 PUSH1 0x0 DUP9 PUSH20 0xFFFFFFFFFFFFFFFFFFFFFFFFFFFFFFFFFFFFFFFF AND PUSH20 0xFFFFFFFFFFFFFFFFFFFFFFFFFFFFFFFFFFFFFFFF AND DUP2 MSTORE PUSH1 0x20 ADD SWAP1 DUP2 MSTORE PUSH1 0x20 ADD PUSH1 0x0 KECCAK256 DUP2 SWAP1 SSTORE POP PUSH2 0x12C0 DUP4 PUSH1 0x3 PUSH1 0x0 DUP8 DUP2 MSTORE PUSH1 0x20 ADD SWAP1 DUP2 MSTORE PUSH1 0x20 ADD PUSH1 0x0 KECCAK256 PUSH1 0x0 DUP9 PUSH20 0xFFFFFFFFFFFFFFFFFFFFFFFFFFFFFFFFFFFFFFFF AND PUSH20 0xFFFFFFFFFFFFFFFFFFFFFFFFFFFFFFFFFFFFFFFF AND DUP2 MSTORE PUSH1 0x20 ADD SWAP1 DUP2 MSTORE PUSH1 0x20 ADD PUSH1 0x0 KECCAK256 SLOAD PUSH2 0x144E SWAP1 SWAP2 SWAP1 PUSH4 0xFFFFFFFF AND JUMP JUMPDEST PUSH1 0x3 PUSH1 0x0 DUP7 DUP2 MSTORE PUSH1 0x20 ADD SWAP1 DUP2 MSTORE PUSH1 0x20 ADD PUSH1 0x0 KECCAK256 PUSH1 0x0 DUP8 PUSH20 0xFFFFFFFFFFFFFFFFFFFFFFFFFFFFFFFFFFFFFFFF AND PUSH20 0xFFFFFFFFFFFFFFFFFFFFFFFFFFFFFFFFFFFFFFFF AND DUP2 MSTORE PUSH1 0x20 ADD SWAP1 DUP2 MSTORE PUSH1 0x20 ADD PUSH1 0x0 KECCAK256 DUP2 SWAP1 SSTORE POP DUP5 PUSH20 0xFFFFFFFFFFFFFFFFFFFFFFFFFFFFFFFFFFFFFFFF AND DUP7 PUSH20 0xFFFFFFFFFFFFFFFFFFFFFFFFFFFFFFFFFFFFFFFF AND DUP3 PUSH20 0xFFFFFFFFFFFFFFFFFFFFFFFFFFFFFFFFFFFFFFFF AND PUSH32 0xC3D58168C5AE7397731D063D5BBF3D657854427343F4C083240F7AACAA2D0F62 DUP8 DUP8 PUSH1 0x40 MLOAD PUSH2 0x138A SWAP3 SWAP2 SWAP1 PUSH2 0x2AF6 JUMP JUMPDEST PUSH1 0x40 MLOAD DUP1 SWAP2 SUB SWAP1 LOG4 PUSH2 0x13A0 DUP2 DUP8 DUP8 DUP8 DUP8 DUP8 PUSH2 0x185D JUMP JUMPDEST POP POP POP POP POP POP JUMP JUMPDEST PUSH1 0x0 PUSH2 0x13BE DUP3 PUSH1 0x7 PUSH2 0x1A34 SWAP1 SWAP2 SWAP1 PUSH4 0xFFFFFFFF AND JUMP JUMPDEST SWAP1 POP SWAP2 SWAP1 POP JUMP JUMPDEST PUSH1 0x0 PUSH2 0x13D3 DUP3 PUSH1 0x0 ADD PUSH2 0x1A4E JUMP JUMPDEST SWAP1 POP SWAP2 SWAP1 POP JUMP JUMPDEST PUSH1 0x0 CALLER SWAP1 POP SWAP1 JUMP JUMPDEST POP POP POP POP POP POP JUMP JUMPDEST PUSH1 0x0 DUP4 DUP4 GT ISZERO DUP3 SWAP1 PUSH2 0x1432 JUMPI PUSH1 0x40 MLOAD PUSH32 0x8C379A000000000000000000000000000000000000000000000000000000000 DUP2 MSTORE PUSH1 0x4 ADD PUSH2 0x1429 SWAP2 SWAP1 PUSH2 0x1D02 JUMP JUMPDEST PUSH1 0x40 MLOAD DUP1 SWAP2 SUB SWAP1 REVERT JUMPDEST POP PUSH1 0x0 DUP4 DUP6 PUSH2 0x1441 SWAP2 SWAP1 PUSH2 0x2B1F JUMP JUMPDEST SWAP1 POP DUP1 SWAP2 POP POP SWAP4 SWAP3 POP POP POP JUMP JUMPDEST PUSH1 0x0 DUP1 DUP3 DUP5 PUSH2 0x145D SWAP2 SWAP1 PUSH2 0x2B53 JUMP JUMPDEST SWAP1 POP DUP4 DUP2 LT ISZERO PUSH2 0x14A2 JUMPI PUSH1 0x40 MLOAD PUSH32 0x8C379A000000000000000000000000000000000000000000000000000000000 DUP2 MSTORE PUSH1 0x4 ADD PUSH2 0x1499 SWAP1 PUSH2 0x2BD3 JUMP JUMPDEST PUSH1 0x40 MLOAD DUP1 SWAP2 SUB SWAP1 REVERT JUMPDEST DUP1 SWAP2 POP POP SWAP3 SWAP2 POP POP JUMP JUMPDEST PUSH2 0x14CB DUP5 PUSH20 0xFFFFFFFFFFFFFFFFFFFFFFFFFFFFFFFFFFFFFFFF AND PUSH2 0x1A5F JUMP JUMPDEST ISZERO PUSH2 0x167B JUMPI DUP4 PUSH20 0xFFFFFFFFFFFFFFFFFFFFFFFFFFFFFFFFFFFFFFFF AND PUSH4 0xBC197C81 DUP8 DUP8 DUP7 DUP7 DUP7 PUSH1 0x40 MLOAD DUP7 PUSH4 0xFFFFFFFF AND PUSH1 0xE0 SHL DUP2 MSTORE PUSH1 0x4 ADD PUSH2 0x1511 SWAP6 SWAP5 SWAP4 SWAP3 SWAP2 SWAP1 PUSH2 0x2C48 JUMP JUMPDEST PUSH1 0x20 PUSH1 0x40 MLOAD DUP1 DUP4 SUB DUP2 PUSH1 0x0 DUP8 GAS CALL SWAP3 POP POP POP DUP1 ISZERO PUSH2 0x154D JUMPI POP PUSH1 0x40 MLOAD RETURNDATASIZE PUSH1 0x1F NOT PUSH1 0x1F DUP3 ADD AND DUP3 ADD DUP1 PUSH1 0x40 MSTORE POP DUP2 ADD SWAP1 PUSH2 0x154A SWAP2 SWAP1 PUSH2 0x2CC5 JUMP JUMPDEST PUSH1 0x1 JUMPDEST PUSH2 0x15F2 JUMPI PUSH2 0x1559 PUSH2 0x2CFF JUMP JUMPDEST DUP1 PUSH4 0x8C379A0 SUB PUSH2 0x15B5 JUMPI POP PUSH2 0x156D PUSH2 0x2D21 JUMP JUMPDEST DUP1 PUSH2 0x1578 JUMPI POP PUSH2 0x15B7 JUMP JUMPDEST DUP1 PUSH1 0x40 MLOAD PUSH32 0x8C379A000000000000000000000000000000000000000000000000000000000 DUP2 MSTORE PUSH1 0x4 ADD PUSH2 0x15AC SWAP2 SWAP1 PUSH2 0x1D02 JUMP JUMPDEST PUSH1 0x40 MLOAD DUP1 SWAP2 SUB SWAP1 REVERT JUMPDEST POP JUMPDEST PUSH1 0x40 MLOAD PUSH32 0x8C379A000000000000000000000000000000000000000000000000000000000 DUP2 MSTORE PUSH1 0x4 ADD PUSH2 0x15E9 SWAP1 PUSH2 0x2E23 JUMP JUMPDEST PUSH1 0x40 MLOAD DUP1 SWAP2 SUB SWAP1 REVERT JUMPDEST PUSH4 0xBC197C81 PUSH1 0xE0 SHL PUSH28 0xFFFFFFFFFFFFFFFFFFFFFFFFFFFFFFFFFFFFFFFFFFFFFFFFFFFFFFFF NOT AND DUP2 PUSH28 0xFFFFFFFFFFFFFFFFFFFFFFFFFFFFFFFFFFFFFFFFFFFFFFFFFFFFFFFF NOT AND EQ PUSH2 0x1679 JUMPI PUSH1 0x40 MLOAD PUSH32 0x8C379A000000000000000000000000000000000000000000000000000000000 DUP2 MSTORE PUSH1 0x4 ADD PUSH2 0x1670 SWAP1 PUSH2 0x2EB5 JUMP JUMPDEST PUSH1 0x40 MLOAD DUP1 SWAP2 SUB SWAP1 REVERT JUMPDEST POP JUMPDEST POP POP POP POP POP POP JUMP JUMPDEST PUSH1 0x60 PUSH1 0x0 DUP3 SUB PUSH2 0x16CA JUMPI PUSH1 0x40 MLOAD DUP1 PUSH1 0x40 ADD PUSH1 0x40 MSTORE DUP1 PUSH1 0x1 DUP2 MSTORE PUSH1 0x20 ADD PUSH32 0x3000000000000000000000000000000000000000000000000000000000000000 DUP2 MSTORE POP SWAP1 POP PUSH2 0x17DE JUMP JUMPDEST PUSH1 0x0 DUP3 SWAP1 POP PUSH1 0x0 JUMPDEST PUSH1 0x0 DUP3 EQ PUSH2 0x16FC JUMPI DUP1 DUP1 PUSH2 0x16E5 SWAP1 PUSH2 0x273D JUMP JUMPDEST SWAP2 POP POP PUSH1 0xA DUP3 PUSH2 0x16F5 SWAP2 SWAP1 PUSH2 0x2F04 JUMP JUMPDEST SWAP2 POP PUSH2 0x16D2 JUMP JUMPDEST PUSH1 0x0 DUP2 PUSH8 0xFFFFFFFFFFFFFFFF DUP2 GT ISZERO PUSH2 0x1718 JUMPI PUSH2 0x1717 PUSH2 0x1D29 JUMP JUMPDEST JUMPDEST PUSH1 0x40 MLOAD SWAP1 DUP1 DUP3 MSTORE DUP1 PUSH1 0x1F ADD PUSH1 0x1F NOT AND PUSH1 0x20 ADD DUP3 ADD PUSH1 0x40 MSTORE DUP1 ISZERO PUSH2 0x174A JUMPI DUP2 PUSH1 0x20 ADD PUSH1 0x1 DUP3 MUL DUP1 CALLDATASIZE DUP4 CALLDATACOPY DUP1 DUP3 ADD SWAP2 POP POP SWAP1 POP JUMPDEST POP SWAP1 POP JUMPDEST PUSH1 0x0 DUP6 EQ PUSH2 0x17D7 JUMPI PUSH1 0x1 DUP3 PUSH2 0x1763 SWAP2 SWAP1 PUSH2 0x2B1F JUMP JUMPDEST SWAP2 POP PUSH1 0xA DUP6 PUSH2 0x1772 SWAP2 SWAP1 PUSH2 0x2F35 JUMP JUMPDEST PUSH1 0x30 PUSH2 0x177E SWAP2 SWAP1 PUSH2 0x2B53 JUMP JUMPDEST PUSH1 0xF8 SHL DUP2 DUP4 DUP2 MLOAD DUP2 LT PUSH2 0x1794 JUMPI PUSH2 0x1793 PUSH2 0x26DF JUMP JUMPDEST JUMPDEST PUSH1 0x20 ADD ADD SWAP1 PUSH31 0xFFFFFFFFFFFFFFFFFFFFFFFFFFFFFFFFFFFFFFFFFFFFFFFFFFFFFFFFFFFFFF NOT AND SWAP1 DUP2 PUSH1 0x0 BYTE SWAP1 MSTORE8 POP PUSH1 0xA DUP6 PUSH2 0x17D0 SWAP2 SWAP1 PUSH2 0x2F04 JUMP JUMPDEST SWAP5 POP PUSH2 0x174E JUMP JUMPDEST DUP1 SWAP4 POP POP POP POP JUMPDEST SWAP2 SWAP1 POP JUMP JUMPDEST PUSH1 0x60 PUSH1 0x0 PUSH1 0x1 PUSH8 0xFFFFFFFFFFFFFFFF DUP2 GT ISZERO PUSH2 0x1802 JUMPI PUSH2 0x1801 PUSH2 0x1D29 JUMP JUMPDEST JUMPDEST PUSH1 0x40 MLOAD SWAP1 DUP1 DUP3 MSTORE DUP1 PUSH1 0x20 MUL PUSH1 0x20 ADD DUP3 ADD PUSH1 0x40 MSTORE DUP1 ISZERO PUSH2 0x1830 JUMPI DUP2 PUSH1 0x20 ADD PUSH1 0x20 DUP3 MUL DUP1 CALLDATASIZE DUP4 CALLDATACOPY DUP1 DUP3 ADD SWAP2 POP POP SWAP1 POP JUMPDEST POP SWAP1 POP DUP3 DUP2 PUSH1 0x0 DUP2 MLOAD DUP2 LT PUSH2 0x1848 JUMPI PUSH2 0x1847 PUSH2 0x26DF JUMP JUMPDEST JUMPDEST PUSH1 0x20 MUL PUSH1 0x20 ADD ADD DUP2 DUP2 MSTORE POP POP DUP1 SWAP2 POP POP SWAP2 SWAP1 POP JUMP JUMPDEST PUSH2 0x187C DUP5 PUSH20 0xFFFFFFFFFFFFFFFFFFFFFFFFFFFFFFFFFFFFFFFF AND PUSH2 0x1A5F JUMP JUMPDEST ISZERO PUSH2 0x1A2C JUMPI DUP4 PUSH20 0xFFFFFFFFFFFFFFFFFFFFFFFFFFFFFFFFFFFFFFFF AND PUSH4 0xF23A6E61 DUP8 DUP8 DUP7 DUP7 DUP7 PUSH1 0x40 MLOAD DUP7 PUSH4 0xFFFFFFFF AND PUSH1 0xE0 SHL DUP2 MSTORE PUSH1 0x4 ADD PUSH2 0x18C2 SWAP6 SWAP5 SWAP4 SWAP3 SWAP2 SWAP1 PUSH2 0x2F66 JUMP JUMPDEST PUSH1 0x20 PUSH1 0x40 MLOAD DUP1 DUP4 SUB DUP2 PUSH1 0x0 DUP8 GAS CALL SWAP3 POP POP POP DUP1 ISZERO PUSH2 0x18FE JUMPI POP PUSH1 0x40 MLOAD RETURNDATASIZE PUSH1 0x1F NOT PUSH1 0x1F DUP3 ADD AND DUP3 ADD DUP1 PUSH1 0x40 MSTORE POP DUP2 ADD SWAP1 PUSH2 0x18FB SWAP2 SWAP1 PUSH2 0x2CC5 JUMP JUMPDEST PUSH1 0x1 JUMPDEST PUSH2 0x19A3 JUMPI PUSH2 0x190A PUSH2 0x2CFF JUMP JUMPDEST DUP1 PUSH4 0x8C379A0 SUB PUSH2 0x1966 JUMPI POP PUSH2 0x191E PUSH2 0x2D21 JUMP JUMPDEST DUP1 PUSH2 0x1929 JUMPI POP PUSH2 0x1968 JUMP JUMPDEST DUP1 PUSH1 0x40 MLOAD PUSH32 0x8C379A000000000000000000000000000000000000000000000000000000000 DUP2 MSTORE PUSH1 0x4 ADD PUSH2 0x195D SWAP2 SWAP1 PUSH2 0x1D02 JUMP JUMPDEST PUSH1 0x40 MLOAD DUP1 SWAP2 SUB SWAP1 REVERT JUMPDEST POP JUMPDEST PUSH1 0x40 MLOAD PUSH32 0x8C379A000000000000000000000000000000000000000000000000000000000 DUP2 MSTORE PUSH1 0x4 ADD PUSH2 0x199A SWAP1 PUSH2 0x2E23 JUMP JUMPDEST PUSH1 0x40 MLOAD DUP1 SWAP2 SUB SWAP1 REVERT JUMPDEST PUSH4 0xF23A6E61 PUSH1 0xE0 SHL PUSH28 0xFFFFFFFFFFFFFFFFFFFFFFFFFFFFFFFFFFFFFFFFFFFFFFFFFFFFFFFF NOT AND DUP2 PUSH28 0xFFFFFFFFFFFFFFFFFFFFFFFFFFFFFFFFFFFFFFFFFFFFFFFFFFFFFFFF NOT AND EQ PUSH2 0x1A2A JUMPI PUSH1 0x40 MLOAD PUSH32 0x8C379A000000000000000000000000000000000000000000000000000000000 DUP2 MSTORE PUSH1 0x4 ADD PUSH2 0x1A21 SWAP1 PUSH2 0x2EB5 JUMP JUMPDEST PUSH1 0x40 MLOAD DUP1 SWAP2 SUB SWAP1 REVERT JUMPDEST POP JUMPDEST POP POP POP POP POP POP JUMP JUMPDEST PUSH1 0x0 PUSH2 0x1A46 DUP4 PUSH1 0x0 ADD DUP4 PUSH1 0x0 SHL PUSH2 0x1A82 JUMP JUMPDEST SWAP1 POP SWAP3 SWAP2 POP POP JUMP JUMPDEST PUSH1 0x0 DUP2 PUSH1 0x0 ADD DUP1 SLOAD SWAP1 POP SWAP1 POP SWAP2 SWAP1 POP JUMP JUMPDEST PUSH1 0x0 DUP1 DUP3 PUSH20 0xFFFFFFFFFFFFFFFFFFFFFFFFFFFFFFFFFFFFFFFF AND EXTCODESIZE GT SWAP1 POP SWAP2 SWAP1 POP JUMP JUMPDEST PUSH1 0x0 DUP1 DUP4 PUSH1 0x1 ADD PUSH1 0x0 DUP5 DUP2 MSTORE PUSH1 0x20 ADD SWAP1 DUP2 MSTORE PUSH1 0x20 ADD PUSH1 0x0 KECCAK256 SLOAD EQ ISZERO SWAP1 POP SWAP3 SWAP2 POP POP JUMP JUMPDEST PUSH1 0x0 PUSH1 0x40 MLOAD SWAP1 POP SWAP1 JUMP JUMPDEST PUSH1 0x0 DUP1 REVERT JUMPDEST PUSH1 0x0 DUP1 REVERT JUMPDEST PUSH1 0x0 PUSH20 0xFFFFFFFFFFFFFFFFFFFFFFFFFFFFFFFFFFFFFFFF DUP3 AND SWAP1 POP SWAP2 SWAP1 POP JUMP JUMPDEST PUSH1 0x0 PUSH2 0x1AE4 DUP3 PUSH2 0x1AB9 JUMP JUMPDEST SWAP1 POP SWAP2 SWAP1 POP JUMP JUMPDEST PUSH2 0x1AF4 DUP2 PUSH2 0x1AD9 JUMP JUMPDEST DUP2 EQ PUSH2 0x1AFF JUMPI PUSH1 0x0 DUP1 REVERT JUMPDEST POP JUMP JUMPDEST PUSH1 0x0 DUP2 CALLDATALOAD SWAP1 POP PUSH2 0x1B11 DUP2 PUSH2 0x1AEB JUMP JUMPDEST SWAP3 SWAP2 POP POP JUMP JUMPDEST PUSH1 0x0 DUP2 SWAP1 POP SWAP2 SWAP1 POP JUMP JUMPDEST PUSH2 0x1B2A DUP2 PUSH2 0x1B17 JUMP JUMPDEST DUP2 EQ PUSH2 0x1B35 JUMPI PUSH1 0x0 DUP1 REVERT JUMPDEST POP JUMP JUMPDEST PUSH1 0x0 DUP2 CALLDATALOAD SWAP1 POP PUSH2 0x1B47 DUP2 PUSH2 0x1B21 JUMP JUMPDEST SWAP3 SWAP2 POP POP JUMP JUMPDEST PUSH1 0x0 DUP1 PUSH1 0x40 DUP4 DUP6 SUB SLT ISZERO PUSH2 0x1B64 JUMPI PUSH2 0x1B63 PUSH2 0x1AAF JUMP JUMPDEST JUMPDEST PUSH1 0x0 PUSH2 0x1B72 DUP6 DUP3 DUP7 ADD PUSH2 0x1B02 JUMP JUMPDEST SWAP3 POP POP PUSH1 0x20 PUSH2 0x1B83 DUP6 DUP3 DUP7 ADD PUSH2 0x1B38 JUMP JUMPDEST SWAP2 POP POP SWAP3 POP SWAP3 SWAP1 POP JUMP JUMPDEST PUSH2 0x1B96 DUP2 PUSH2 0x1B17 JUMP JUMPDEST DUP3 MSTORE POP POP JUMP JUMPDEST PUSH1 0x0 PUSH1 0x20 DUP3 ADD SWAP1 POP PUSH2 0x1BB1 PUSH1 0x0 DUP4 ADD DUP5 PUSH2 0x1B8D JUMP JUMPDEST SWAP3 SWAP2 POP POP JUMP JUMPDEST PUSH1 0x0 PUSH32 0xFFFFFFFF00000000000000000000000000000000000000000000000000000000 DUP3 AND SWAP1 POP SWAP2 SWAP1 POP JUMP JUMPDEST PUSH2 0x1BEC DUP2 PUSH2 0x1BB7 JUMP JUMPDEST DUP2 EQ PUSH2 0x1BF7 JUMPI PUSH1 0x0 DUP1 REVERT JUMPDEST POP JUMP JUMPDEST PUSH1 0x0 DUP2 CALLDATALOAD SWAP1 POP PUSH2 0x1C09 DUP2 PUSH2 0x1BE3 JUMP JUMPDEST SWAP3 SWAP2 POP POP JUMP JUMPDEST PUSH1 0x0 PUSH1 0x20 DUP3 DUP5 SUB SLT ISZERO PUSH2 0x1C25 JUMPI PUSH2 0x1C24 PUSH2 0x1AAF JUMP JUMPDEST JUMPDEST PUSH1 0x0 PUSH2 0x1C33 DUP5 DUP3 DUP6 ADD PUSH2 0x1BFA JUMP JUMPDEST SWAP2 POP POP SWAP3 SWAP2 POP POP JUMP JUMPDEST PUSH1 0x0 DUP2 ISZERO ISZERO SWAP1 POP SWAP2 SWAP1 POP JUMP JUMPDEST PUSH2 0x1C51 DUP2 PUSH2 0x1C3C JUMP JUMPDEST DUP3 MSTORE POP POP JUMP JUMPDEST PUSH1 0x0 PUSH1 0x20 DUP3 ADD SWAP1 POP PUSH2 0x1C6C PUSH1 0x0 DUP4 ADD DUP5 PUSH2 0x1C48 JUMP JUMPDEST SWAP3 SWAP2 POP POP JUMP JUMPDEST PUSH1 0x0 DUP2 MLOAD SWAP1 POP SWAP2 SWAP1 POP JUMP JUMPDEST PUSH1 0x0 DUP3 DUP3 MSTORE PUSH1 0x20 DUP3 ADD SWAP1 POP SWAP3 SWAP2 POP POP JUMP JUMPDEST PUSH1 0x0 JUMPDEST DUP4 DUP2 LT ISZERO PUSH2 0x1CAC JUMPI DUP1 DUP3 ADD MLOAD DUP2 DUP5 ADD MSTORE PUSH1 0x20 DUP2 ADD SWAP1 POP PUSH2 0x1C91 JUMP JUMPDEST PUSH1 0x0 DUP5 DUP5 ADD MSTORE POP POP POP POP JUMP JUMPDEST PUSH1 0x0 PUSH1 0x1F NOT PUSH1 0x1F DUP4 ADD AND SWAP1 POP SWAP2 SWAP1 POP JUMP JUMPDEST PUSH1 0x0 PUSH2 0x1CD4 DUP3 PUSH2 0x1C72 JUMP JUMPDEST PUSH2 0x1CDE DUP2 DUP6 PUSH2 0x1C7D JUMP JUMPDEST SWAP4 POP PUSH2 0x1CEE DUP2 DUP6 PUSH1 0x20 DUP7 ADD PUSH2 0x1C8E JUMP JUMPDEST PUSH2 0x1CF7 DUP2 PUSH2 0x1CB8 JUMP JUMPDEST DUP5 ADD SWAP2 POP POP SWAP3 SWAP2 POP POP JUMP JUMPDEST PUSH1 0x0 PUSH1 0x20 DUP3 ADD SWAP1 POP DUP2 DUP2 SUB PUSH1 0x0 DUP4 ADD MSTORE PUSH2 0x1D1C DUP2 DUP5 PUSH2 0x1CC9 JUMP JUMPDEST SWAP1 POP SWAP3 SWAP2 POP POP JUMP JUMPDEST PUSH1 0x0 DUP1 REVERT JUMPDEST PUSH32 0x4E487B7100000000000000000000000000000000000000000000000000000000 PUSH1 0x0 MSTORE PUSH1 0x41 PUSH1 0x4 MSTORE PUSH1 0x24 PUSH1 0x0 REVERT JUMPDEST PUSH2 0x1D61 DUP3 PUSH2 0x1CB8 JUMP JUMPDEST DUP2 ADD DUP2 DUP2 LT PUSH8 0xFFFFFFFFFFFFFFFF DUP3 GT OR ISZERO PUSH2 0x1D80 JUMPI PUSH2 0x1D7F PUSH2 0x1D29 JUMP JUMPDEST JUMPDEST DUP1 PUSH1 0x40 MSTORE POP POP POP JUMP JUMPDEST PUSH1 0x0 PUSH2 0x1D93 PUSH2 0x1AA5 JUMP JUMPDEST SWAP1 POP PUSH2 0x1D9F DUP3 DUP3 PUSH2 0x1D58 JUMP JUMPDEST SWAP2 SWAP1 POP JUMP JUMPDEST PUSH1 0x0 PUSH8 0xFFFFFFFFFFFFFFFF DUP3 GT ISZERO PUSH2 0x1DBF JUMPI PUSH2 0x1DBE PUSH2 0x1D29 JUMP JUMPDEST JUMPDEST PUSH1 0x20 DUP3 MUL SWAP1 POP PUSH1 0x20 DUP2 ADD SWAP1 POP SWAP2 SWAP1 POP JUMP JUMPDEST PUSH1 0x0 DUP1 REVERT JUMPDEST PUSH1 0x0 PUSH2 0x1DE8 PUSH2 0x1DE3 DUP5 PUSH2 0x1DA4 JUMP JUMPDEST PUSH2 0x1D89 JUMP JUMPDEST SWAP1 POP DUP1 DUP4 DUP3 MSTORE PUSH1 0x20 DUP3 ADD SWAP1 POP PUSH1 0x20 DUP5 MUL DUP4 ADD DUP6 DUP2 GT ISZERO PUSH2 0x1E0B JUMPI PUSH2 0x1E0A PUSH2 0x1DD0 JUMP JUMPDEST JUMPDEST DUP4 JUMPDEST DUP2 DUP2 LT ISZERO PUSH2 0x1E34 JUMPI DUP1 PUSH2 0x1E20 DUP9 DUP3 PUSH2 0x1B38 JUMP JUMPDEST DUP5 MSTORE PUSH1 0x20 DUP5 ADD SWAP4 POP POP PUSH1 0x20 DUP2 ADD SWAP1 POP PUSH2 0x1E0D JUMP JUMPDEST POP POP POP SWAP4 SWAP3 POP POP POP JUMP JUMPDEST PUSH1 0x0 DUP3 PUSH1 0x1F DUP4 ADD SLT PUSH2 0x1E53 JUMPI PUSH2 0x1E52 PUSH2 0x1D24 JUMP JUMPDEST JUMPDEST DUP2 CALLDATALOAD PUSH2 0x1E63 DUP5 DUP3 PUSH1 0x20 DUP7 ADD PUSH2 0x1DD5 JUMP JUMPDEST SWAP2 POP POP SWAP3 SWAP2 POP POP JUMP JUMPDEST PUSH1 0x0 DUP1 REVERT JUMPDEST PUSH1 0x0 PUSH8 0xFFFFFFFFFFFFFFFF DUP3 GT ISZERO PUSH2 0x1E8C JUMPI PUSH2 0x1E8B PUSH2 0x1D29 JUMP JUMPDEST JUMPDEST PUSH2 0x1E95 DUP3 PUSH2 0x1CB8 JUMP JUMPDEST SWAP1 POP PUSH1 0x20 DUP2 ADD SWAP1 POP SWAP2 SWAP1 POP JUMP JUMPDEST DUP3 DUP2 DUP4 CALLDATACOPY PUSH1 0x0 DUP4 DUP4 ADD MSTORE POP POP POP JUMP JUMPDEST PUSH1 0x0 PUSH2 0x1EC4 PUSH2 0x1EBF DUP5 PUSH2 0x1E71 JUMP JUMPDEST PUSH2 0x1D89 JUMP JUMPDEST SWAP1 POP DUP3 DUP2 MSTORE PUSH1 0x20 DUP2 ADD DUP5 DUP5 DUP5 ADD GT ISZERO PUSH2 0x1EE0 JUMPI PUSH2 0x1EDF PUSH2 0x1E6C JUMP JUMPDEST JUMPDEST PUSH2 0x1EEB DUP5 DUP3 DUP6 PUSH2 0x1EA2 JUMP JUMPDEST POP SWAP4 SWAP3 POP POP POP JUMP JUMPDEST PUSH1 0x0 DUP3 PUSH1 0x1F DUP4 ADD SLT PUSH2 0x1F08 JUMPI PUSH2 0x1F07 PUSH2 0x1D24 JUMP JUMPDEST JUMPDEST DUP2 CALLDATALOAD PUSH2 0x1F18 DUP5 DUP3 PUSH1 0x20 DUP7 ADD PUSH2 0x1EB1 JUMP JUMPDEST SWAP2 POP POP SWAP3 SWAP2 POP POP JUMP JUMPDEST PUSH1 0x0 DUP1 PUSH1 0x0 DUP1 PUSH1 0x0 PUSH1 0xA0 DUP7 DUP9 SUB SLT ISZERO PUSH2 0x1F3D JUMPI PUSH2 0x1F3C PUSH2 0x1AAF JUMP JUMPDEST JUMPDEST PUSH1 0x0 PUSH2 0x1F4B DUP9 DUP3 DUP10 ADD PUSH2 0x1B02 JUMP JUMPDEST SWAP6 POP POP PUSH1 0x20 PUSH2 0x1F5C DUP9 DUP3 DUP10 ADD PUSH2 0x1B02 JUMP JUMPDEST SWAP5 POP POP PUSH1 0x40 DUP7 ADD CALLDATALOAD PUSH8 0xFFFFFFFFFFFFFFFF DUP2 GT ISZERO PUSH2 0x1F7D JUMPI PUSH2 0x1F7C PUSH2 0x1AB4 JUMP JUMPDEST JUMPDEST PUSH2 0x1F89 DUP9 DUP3 DUP10 ADD PUSH2 0x1E3E JUMP JUMPDEST SWAP4 POP POP PUSH1 0x60 DUP7 ADD CALLDATALOAD PUSH8 0xFFFFFFFFFFFFFFFF DUP2 GT ISZERO PUSH2 0x1FAA JUMPI PUSH2 0x1FA9 PUSH2 0x1AB4 JUMP JUMPDEST JUMPDEST PUSH2 0x1FB6 DUP9 DUP3 DUP10 ADD PUSH2 0x1E3E JUMP JUMPDEST SWAP3 POP POP PUSH1 0x80 DUP7 ADD CALLDATALOAD PUSH8 0xFFFFFFFFFFFFFFFF DUP2 GT ISZERO PUSH2 0x1FD7 JUMPI PUSH2 0x1FD6 PUSH2 0x1AB4 JUMP JUMPDEST JUMPDEST PUSH2 0x1FE3 DUP9 DUP3 DUP10 ADD PUSH2 0x1EF3 JUMP JUMPDEST SWAP2 POP POP SWAP3 SWAP6 POP SWAP3 SWAP6 SWAP1 SWAP4 POP JUMP JUMPDEST PUSH1 0x0 PUSH8 0xFFFFFFFFFFFFFFFF DUP3 GT ISZERO PUSH2 0x200B JUMPI PUSH2 0x200A PUSH2 0x1D29 JUMP JUMPDEST JUMPDEST PUSH1 0x20 DUP3 MUL SWAP1 POP PUSH1 0x20 DUP2 ADD SWAP1 POP SWAP2 SWAP1 POP JUMP JUMPDEST PUSH1 0x0 PUSH2 0x202F PUSH2 0x202A DUP5 PUSH2 0x1FF0 JUMP JUMPDEST PUSH2 0x1D89 JUMP JUMPDEST SWAP1 POP DUP1 DUP4 DUP3 MSTORE PUSH1 0x20 DUP3 ADD SWAP1 POP PUSH1 0x20 DUP5 MUL DUP4 ADD DUP6 DUP2 GT ISZERO PUSH2 0x2052 JUMPI PUSH2 0x2051 PUSH2 0x1DD0 JUMP JUMPDEST JUMPDEST DUP4 JUMPDEST DUP2 DUP2 LT ISZERO PUSH2 0x207B JUMPI DUP1 PUSH2 0x2067 DUP9 DUP3 PUSH2 0x1B02 JUMP JUMPDEST DUP5 MSTORE PUSH1 0x20 DUP5 ADD SWAP4 POP POP PUSH1 0x20 DUP2 ADD SWAP1 POP PUSH2 0x2054 JUMP JUMPDEST POP POP POP SWAP4 SWAP3 POP POP POP JUMP JUMPDEST PUSH1 0x0 DUP3 PUSH1 0x1F DUP4 ADD SLT PUSH2 0x209A JUMPI PUSH2 0x2099 PUSH2 0x1D24 JUMP JUMPDEST JUMPDEST DUP2 CALLDATALOAD PUSH2 0x20AA DUP5 DUP3 PUSH1 0x20 DUP7 ADD PUSH2 0x201C JUMP JUMPDEST SWAP2 POP POP SWAP3 SWAP2 POP POP JUMP JUMPDEST PUSH1 0x0 DUP1 PUSH1 0x40 DUP4 DUP6 SUB SLT ISZERO PUSH2 0x20CA JUMPI PUSH2 0x20C9 PUSH2 0x1AAF JUMP JUMPDEST JUMPDEST PUSH1 0x0 DUP4 ADD CALLDATALOAD PUSH8 0xFFFFFFFFFFFFFFFF DUP2 GT ISZERO PUSH2 0x20E8 JUMPI PUSH2 0x20E7 PUSH2 0x1AB4 JUMP JUMPDEST JUMPDEST PUSH2 0x20F4 DUP6 DUP3 DUP7 ADD PUSH2 0x2085 JUMP JUMPDEST SWAP3 POP POP PUSH1 0x20 DUP4 ADD CALLDATALOAD PUSH8 0xFFFFFFFFFFFFFFFF DUP2 GT ISZERO PUSH2 0x2115 JUMPI PUSH2 0x2114 PUSH2 0x1AB4 JUMP JUMPDEST JUMPDEST PUSH2 0x2121 DUP6 DUP3 DUP7 ADD PUSH2 0x1E3E JUMP JUMPDEST SWAP2 POP POP SWAP3 POP SWAP3 SWAP1 POP JUMP JUMPDEST PUSH1 0x0 DUP2 MLOAD SWAP1 POP SWAP2 SWAP1 POP JUMP JUMPDEST PUSH1 0x0 DUP3 DUP3 MSTORE PUSH1 0x20 DUP3 ADD SWAP1 POP SWAP3 SWAP2 POP POP JUMP JUMPDEST PUSH1 0x0 DUP2 SWAP1 POP PUSH1 0x20 DUP3 ADD SWAP1 POP SWAP2 SWAP1 POP JUMP JUMPDEST PUSH2 0x2160 DUP2 PUSH2 0x1B17 JUMP JUMPDEST DUP3 MSTORE POP POP JUMP JUMPDEST PUSH1 0x0 PUSH2 0x2172 DUP4 DUP4 PUSH2 0x2157 JUMP JUMPDEST PUSH1 0x20 DUP4 ADD SWAP1 POP SWAP3 SWAP2 POP POP JUMP JUMPDEST PUSH1 0x0 PUSH1 0x20 DUP3 ADD SWAP1 POP SWAP2 SWAP1 POP JUMP JUMPDEST PUSH1 0x0 PUSH2 0x2196 DUP3 PUSH2 0x212B JUMP JUMPDEST PUSH2 0x21A0 DUP2 DUP6 PUSH2 0x2136 JUMP JUMPDEST SWAP4 POP PUSH2 0x21AB DUP4 PUSH2 0x2147 JUMP JUMPDEST DUP1 PUSH1 0x0 JUMPDEST DUP4 DUP2 LT ISZERO PUSH2 0x21DC JUMPI DUP2 MLOAD PUSH2 0x21C3 DUP9 DUP3 PUSH2 0x2166 JUMP JUMPDEST SWAP8 POP PUSH2 0x21CE DUP4 PUSH2 0x217E JUMP JUMPDEST SWAP3 POP POP PUSH1 0x1 DUP2 ADD SWAP1 POP PUSH2 0x21AF JUMP JUMPDEST POP DUP6 SWAP4 POP POP POP POP SWAP3 SWAP2 POP POP JUMP JUMPDEST PUSH1 0x0 PUSH1 0x20 DUP3 ADD SWAP1 POP DUP2 DUP2 SUB PUSH1 0x0 DUP4 ADD MSTORE PUSH2 0x2203 DUP2 DUP5 PUSH2 0x218B JUMP JUMPDEST SWAP1 POP SWAP3 SWAP2 POP POP JUMP JUMPDEST PUSH2 0x2214 DUP2 PUSH2 0x1C3C JUMP JUMPDEST DUP2 EQ PUSH2 0x221F JUMPI PUSH1 0x0 DUP1 REVERT JUMPDEST POP JUMP JUMPDEST PUSH1 0x0 DUP2 CALLDATALOAD SWAP1 POP PUSH2 0x2231 DUP2 PUSH2 0x220B JUMP JUMPDEST SWAP3 SWAP2 POP POP JUMP JUMPDEST PUSH1 0x0 DUP1 PUSH1 0x40 DUP4 DUP6 SUB SLT ISZERO PUSH2 0x224E JUMPI PUSH2 0x224D PUSH2 0x1AAF JUMP JUMPDEST JUMPDEST PUSH1 0x0 PUSH2 0x225C DUP6 DUP3 DUP7 ADD PUSH2 0x1B02 JUMP JUMPDEST SWAP3 POP POP PUSH1 0x20 PUSH2 0x226D DUP6 DUP3 DUP7 ADD PUSH2 0x2222 JUMP JUMPDEST SWAP2 POP POP SWAP3 POP SWAP3 SWAP1 POP JUMP JUMPDEST PUSH1 0x0 PUSH1 0x20 DUP3 DUP5 SUB SLT ISZERO PUSH2 0x228D JUMPI PUSH2 0x228C PUSH2 0x1AAF JUMP JUMPDEST JUMPDEST PUSH1 0x0 PUSH2 0x229B DUP5 DUP3 DUP6 ADD PUSH2 0x1B38 JUMP JUMPDEST SWAP2 POP POP SWAP3 SWAP2 POP POP JUMP JUMPDEST PUSH2 0x22AD DUP2 PUSH2 0x1AD9 JUMP JUMPDEST DUP3 MSTORE POP POP JUMP JUMPDEST PUSH1 0x0 PUSH1 0x20 DUP3 ADD SWAP1 POP PUSH2 0x22C8 PUSH1 0x0 DUP4 ADD DUP5 PUSH2 0x22A4 JUMP JUMPDEST SWAP3 SWAP2 POP POP JUMP JUMPDEST PUSH1 0x0 DUP1 PUSH1 0x40 DUP4 DUP6 SUB SLT ISZERO PUSH2 0x22E5 JUMPI PUSH2 0x22E4 PUSH2 0x1AAF JUMP JUMPDEST JUMPDEST PUSH1 0x0 PUSH2 0x22F3 DUP6 DUP3 DUP7 ADD PUSH2 0x1B02 JUMP JUMPDEST SWAP3 POP POP PUSH1 0x20 PUSH2 0x2304 DUP6 DUP3 DUP7 ADD PUSH2 0x1B02 JUMP JUMPDEST SWAP2 POP POP SWAP3 POP SWAP3 SWAP1 POP JUMP JUMPDEST PUSH1 0x0 DUP1 PUSH1 0x0 DUP1 PUSH1 0x0 PUSH1 0xA0 DUP7 DUP9 SUB SLT ISZERO PUSH2 0x232A JUMPI PUSH2 0x2329 PUSH2 0x1AAF JUMP JUMPDEST JUMPDEST PUSH1 0x0 PUSH2 0x2338 DUP9 DUP3 DUP10 ADD PUSH2 0x1B02 JUMP JUMPDEST SWAP6 POP POP PUSH1 0x20 PUSH2 0x2349 DUP9 DUP3 DUP10 ADD PUSH2 0x1B02 JUMP JUMPDEST SWAP5 POP POP PUSH1 0x40 PUSH2 0x235A DUP9 DUP3 DUP10 ADD PUSH2 0x1B38 JUMP JUMPDEST SWAP4 POP POP PUSH1 0x60 PUSH2 0x236B DUP9 DUP3 DUP10 ADD PUSH2 0x1B38 JUMP JUMPDEST SWAP3 POP POP PUSH1 0x80 DUP7 ADD CALLDATALOAD PUSH8 0xFFFFFFFFFFFFFFFF DUP2 GT ISZERO PUSH2 0x238C JUMPI PUSH2 0x238B PUSH2 0x1AB4 JUMP JUMPDEST JUMPDEST PUSH2 0x2398 DUP9 DUP3 DUP10 ADD PUSH2 0x1EF3 JUMP JUMPDEST SWAP2 POP POP SWAP3 SWAP6 POP SWAP3 SWAP6 SWAP1 SWAP4 POP JUMP JUMPDEST PUSH32 0x455243313135354D657461646174613A2062616C616E63652071756572792066 PUSH1 0x0 DUP3 ADD MSTORE PUSH32 0x6F72206E6F6E6578697374656E7420746F6B656E000000000000000000000000 PUSH1 0x20 DUP3 ADD MSTORE POP JUMP JUMPDEST PUSH1 0x0 PUSH2 0x2401 PUSH1 0x34 DUP4 PUSH2 0x1C7D JUMP JUMPDEST SWAP2 POP PUSH2 0x240C DUP3 PUSH2 0x23A5 JUMP JUMPDEST PUSH1 0x40 DUP3 ADD SWAP1 POP SWAP2 SWAP1 POP JUMP JUMPDEST PUSH1 0x0 PUSH1 0x20 DUP3 ADD SWAP1 POP DUP2 DUP2 SUB PUSH1 0x0 DUP4 ADD MSTORE PUSH2 0x2430 DUP2 PUSH2 0x23F4 JUMP JUMPDEST SWAP1 POP SWAP2 SWAP1 POP JUMP JUMPDEST PUSH32 0x455243313135353A2062616C616E636520717565727920666F7220746865207A PUSH1 0x0 DUP3 ADD MSTORE PUSH32 0x65726F2061646472657373000000000000000000000000000000000000000000 PUSH1 0x20 DUP3 ADD MSTORE POP JUMP JUMPDEST PUSH1 0x0 PUSH2 0x2493 PUSH1 0x2B DUP4 PUSH2 0x1C7D JUMP JUMPDEST SWAP2 POP PUSH2 0x249E DUP3 PUSH2 0x2437 JUMP JUMPDEST PUSH1 0x40 DUP3 ADD SWAP1 POP SWAP2 SWAP1 POP JUMP JUMPDEST PUSH1 0x0 PUSH1 0x20 DUP3 ADD SWAP1 POP DUP2 DUP2 SUB PUSH1 0x0 DUP4 ADD MSTORE PUSH2 0x24C2 DUP2 PUSH2 0x2486 JUMP JUMPDEST SWAP1 POP SWAP2 SWAP1 POP JUMP JUMPDEST PUSH32 0x4E487B7100000000000000000000000000000000000000000000000000000000 PUSH1 0x0 MSTORE PUSH1 0x22 PUSH1 0x4 MSTORE PUSH1 0x24 PUSH1 0x0 REVERT JUMPDEST PUSH1 0x0 PUSH1 0x2 DUP3 DIV SWAP1 POP PUSH1 0x1 DUP3 AND DUP1 PUSH2 0x2510 JUMPI PUSH1 0x7F DUP3 AND SWAP2 POP JUMPDEST PUSH1 0x20 DUP3 LT DUP2 SUB PUSH2 0x2523 JUMPI PUSH2 0x2522 PUSH2 0x24C9 JUMP JUMPDEST JUMPDEST POP SWAP2 SWAP1 POP JUMP JUMPDEST PUSH32 0x455243313135353A2069647320616E6420616D6F756E7473206C656E67746820 PUSH1 0x0 DUP3 ADD MSTORE PUSH32 0x6D69736D61746368000000000000000000000000000000000000000000000000 PUSH1 0x20 DUP3 ADD MSTORE POP JUMP JUMPDEST PUSH1 0x0 PUSH2 0x2585 PUSH1 0x28 DUP4 PUSH2 0x1C7D JUMP JUMPDEST SWAP2 POP PUSH2 0x2590 DUP3 PUSH2 0x2529 JUMP JUMPDEST PUSH1 0x40 DUP3 ADD SWAP1 POP SWAP2 SWAP1 POP JUMP JUMPDEST PUSH1 0x0 PUSH1 0x20 DUP3 ADD SWAP1 POP DUP2 DUP2 SUB PUSH1 0x0 DUP4 ADD MSTORE PUSH2 0x25B4 DUP2 PUSH2 0x2578 JUMP JUMPDEST SWAP1 POP SWAP2 SWAP1 POP JUMP JUMPDEST PUSH32 0x455243313135353A207472616E7366657220746F20746865207A65726F206164 PUSH1 0x0 DUP3 ADD MSTORE PUSH32 0x6472657373000000000000000000000000000000000000000000000000000000 PUSH1 0x20 DUP3 ADD MSTORE POP JUMP JUMPDEST PUSH1 0x0 PUSH2 0x2617 PUSH1 0x25 DUP4 PUSH2 0x1C7D JUMP JUMPDEST SWAP2 POP PUSH2 0x2622 DUP3 PUSH2 0x25BB JUMP JUMPDEST PUSH1 0x40 DUP3 ADD SWAP1 POP SWAP2 SWAP1 POP JUMP JUMPDEST PUSH1 0x0 PUSH1 0x20 DUP3 ADD SWAP1 POP DUP2 DUP2 SUB PUSH1 0x0 DUP4 ADD MSTORE PUSH2 0x2646 DUP2 PUSH2 0x260A JUMP JUMPDEST SWAP1 POP SWAP2 SWAP1 POP JUMP JUMPDEST PUSH32 0x455243313135353A207472616E736665722063616C6C6572206973206E6F7420 PUSH1 0x0 DUP3 ADD MSTORE PUSH32 0x6F776E6572206E6F7220617070726F7665640000000000000000000000000000 PUSH1 0x20 DUP3 ADD MSTORE POP JUMP JUMPDEST PUSH1 0x0 PUSH2 0x26A9 PUSH1 0x32 DUP4 PUSH2 0x1C7D JUMP JUMPDEST SWAP2 POP PUSH2 0x26B4 DUP3 PUSH2 0x264D JUMP JUMPDEST PUSH1 0x40 DUP3 ADD SWAP1 POP SWAP2 SWAP1 POP JUMP JUMPDEST PUSH1 0x0 PUSH1 0x20 DUP3 ADD SWAP1 POP DUP2 DUP2 SUB PUSH1 0x0 DUP4 ADD MSTORE PUSH2 0x26D8 DUP2 PUSH2 0x269C JUMP JUMPDEST SWAP1 POP SWAP2 SWAP1 POP JUMP JUMPDEST PUSH32 0x4E487B7100000000000000000000000000000000000000000000000000000000 PUSH1 0x0 MSTORE PUSH1 0x32 PUSH1 0x4 MSTORE PUSH1 0x24 PUSH1 0x0 REVERT JUMPDEST PUSH32 0x4E487B7100000000000000000000000000000000000000000000000000000000 PUSH1 0x0 MSTORE PUSH1 0x11 PUSH1 0x4 MSTORE PUSH1 0x24 PUSH1 0x0 REVERT JUMPDEST PUSH1 0x0 PUSH2 0x2748 DUP3 PUSH2 0x1B17 JUMP JUMPDEST SWAP2 POP PUSH32 0xFFFFFFFFFFFFFFFFFFFFFFFFFFFFFFFFFFFFFFFFFFFFFFFFFFFFFFFFFFFFFFFF DUP3 SUB PUSH2 0x277A JUMPI PUSH2 0x2779 PUSH2 0x270E JUMP JUMPDEST JUMPDEST PUSH1 0x1 DUP3 ADD SWAP1 POP SWAP2 SWAP1 POP JUMP JUMPDEST PUSH1 0x0 PUSH1 0x40 DUP3 ADD SWAP1 POP DUP2 DUP2 SUB PUSH1 0x0 DUP4 ADD MSTORE PUSH2 0x279F DUP2 DUP6 PUSH2 0x218B JUMP JUMPDEST SWAP1 POP DUP2 DUP2 SUB PUSH1 0x20 DUP4 ADD MSTORE PUSH2 0x27B3 DUP2 DUP5 PUSH2 0x218B JUMP JUMPDEST SWAP1 POP SWAP4 SWAP3 POP POP POP JUMP JUMPDEST PUSH32 0x455243313135353A206163636F756E747320616E6420696473206C656E677468 PUSH1 0x0 DUP3 ADD MSTORE PUSH32 0x206D69736D617463680000000000000000000000000000000000000000000000 PUSH1 0x20 DUP3 ADD MSTORE POP JUMP JUMPDEST PUSH1 0x0 PUSH2 0x2818 PUSH1 0x29 DUP4 PUSH2 0x1C7D JUMP JUMPDEST SWAP2 POP PUSH2 0x2823 DUP3 PUSH2 0x27BC JUMP JUMPDEST PUSH1 0x40 DUP3 ADD SWAP1 POP SWAP2 SWAP1 POP JUMP JUMPDEST PUSH1 0x0 PUSH1 0x20 DUP3 ADD SWAP1 POP DUP2 DUP2 SUB PUSH1 0x0 DUP4 ADD MSTORE PUSH2 0x2847 DUP2 PUSH2 0x280B JUMP JUMPDEST SWAP1 POP SWAP2 SWAP1 POP JUMP JUMPDEST PUSH32 0x455243313135353A2062617463682062616C616E636520717565727920666F72 PUSH1 0x0 DUP3 ADD MSTORE PUSH32 0x20746865207A65726F2061646472657373000000000000000000000000000000 PUSH1 0x20 DUP3 ADD MSTORE POP JUMP JUMPDEST PUSH1 0x0 PUSH2 0x28AA PUSH1 0x31 DUP4 PUSH2 0x1C7D JUMP JUMPDEST SWAP2 POP PUSH2 0x28B5 DUP3 PUSH2 0x284E JUMP JUMPDEST PUSH1 0x40 DUP3 ADD SWAP1 POP SWAP2 SWAP1 POP JUMP JUMPDEST PUSH1 0x0 PUSH1 0x20 DUP3 ADD SWAP1 POP DUP2 DUP2 SUB PUSH1 0x0 DUP4 ADD MSTORE PUSH2 0x28D9 DUP2 PUSH2 0x289D JUMP JUMPDEST SWAP1 POP SWAP2 SWAP1 POP JUMP JUMPDEST PUSH32 0x455243313135353A2073657474696E6720617070726F76616C20737461747573 PUSH1 0x0 DUP3 ADD MSTORE PUSH32 0x20666F722073656C660000000000000000000000000000000000000000000000 PUSH1 0x20 DUP3 ADD MSTORE POP JUMP JUMPDEST PUSH1 0x0 PUSH2 0x293C PUSH1 0x29 DUP4 PUSH2 0x1C7D JUMP JUMPDEST SWAP2 POP PUSH2 0x2947 DUP3 PUSH2 0x28E0 JUMP JUMPDEST PUSH1 0x40 DUP3 ADD SWAP1 POP SWAP2 SWAP1 POP JUMP JUMPDEST PUSH1 0x0 PUSH1 0x20 DUP3 ADD SWAP1 POP DUP2 DUP2 SUB PUSH1 0x0 DUP4 ADD MSTORE PUSH2 0x296B DUP2 PUSH2 0x292F JUMP JUMPDEST SWAP1 POP SWAP2 SWAP1 POP JUMP JUMPDEST PUSH32 0x455243313135354D657461646174613A2055524920717565727920666F72206E PUSH1 0x0 DUP3 ADD MSTORE PUSH32 0x6F6E6578697374656E7420746F6B656E00000000000000000000000000000000 PUSH1 0x20 DUP3 ADD MSTORE POP JUMP JUMPDEST PUSH1 0x0 PUSH2 0x29CE PUSH1 0x30 DUP4 PUSH2 0x1C7D JUMP JUMPDEST SWAP2 POP PUSH2 0x29D9 DUP3 PUSH2 0x2972 JUMP JUMPDEST PUSH1 0x40 DUP3 ADD SWAP1 POP SWAP2 SWAP1 POP JUMP JUMPDEST PUSH1 0x0 PUSH1 0x20 DUP3 ADD SWAP1 POP DUP2 DUP2 SUB PUSH1 0x0 DUP4 ADD MSTORE PUSH2 0x29FD DUP2 PUSH2 0x29C1 JUMP JUMPDEST SWAP1 POP SWAP2 SWAP1 POP JUMP JUMPDEST PUSH1 0x0 DUP2 SWAP1 POP SWAP3 SWAP2 POP POP JUMP JUMPDEST PUSH1 0x0 PUSH2 0x2A1A DUP3 PUSH2 0x1C72 JUMP JUMPDEST PUSH2 0x2A24 DUP2 DUP6 PUSH2 0x2A04 JUMP JUMPDEST SWAP4 POP PUSH2 0x2A34 DUP2 DUP6 PUSH1 0x20 DUP7 ADD PUSH2 0x1C8E JUMP JUMPDEST DUP1 DUP5 ADD SWAP2 POP POP SWAP3 SWAP2 POP POP JUMP JUMPDEST PUSH1 0x0 PUSH2 0x2A4C DUP3 DUP6 PUSH2 0x2A0F JUMP JUMPDEST SWAP2 POP PUSH2 0x2A58 DUP3 DUP5 PUSH2 0x2A0F JUMP JUMPDEST SWAP2 POP DUP2 SWAP1 POP SWAP4 SWAP3 POP POP POP JUMP JUMPDEST PUSH32 0x455243313135353A2063616C6C6572206973206E6F74206F776E6572206E6F72 PUSH1 0x0 DUP3 ADD MSTORE PUSH32 0x20617070726F7665640000000000000000000000000000000000000000000000 PUSH1 0x20 DUP3 ADD MSTORE POP JUMP JUMPDEST PUSH1 0x0 PUSH2 0x2AC0 PUSH1 0x29 DUP4 PUSH2 0x1C7D JUMP JUMPDEST SWAP2 POP PUSH2 0x2ACB DUP3 PUSH2 0x2A64 JUMP JUMPDEST PUSH1 0x40 DUP3 ADD SWAP1 POP SWAP2 SWAP1 POP JUMP JUMPDEST PUSH1 0x0 PUSH1 0x20 DUP3 ADD SWAP1 POP DUP2 DUP2 SUB PUSH1 0x0 DUP4 ADD MSTORE PUSH2 0x2AEF DUP2 PUSH2 0x2AB3 JUMP JUMPDEST SWAP1 POP SWAP2 SWAP1 POP JUMP JUMPDEST PUSH1 0x0 PUSH1 0x40 DUP3 ADD SWAP1 POP PUSH2 0x2B0B PUSH1 0x0 DUP4 ADD DUP6 PUSH2 0x1B8D JUMP JUMPDEST PUSH2 0x2B18 PUSH1 0x20 DUP4 ADD DUP5 PUSH2 0x1B8D JUMP JUMPDEST SWAP4 SWAP3 POP POP POP JUMP JUMPDEST PUSH1 0x0 PUSH2 0x2B2A DUP3 PUSH2 0x1B17 JUMP JUMPDEST SWAP2 POP PUSH2 0x2B35 DUP4 PUSH2 0x1B17 JUMP JUMPDEST SWAP3 POP DUP3 DUP3 SUB SWAP1 POP DUP2 DUP2 GT ISZERO PUSH2 0x2B4D JUMPI PUSH2 0x2B4C PUSH2 0x270E JUMP JUMPDEST JUMPDEST SWAP3 SWAP2 POP POP JUMP JUMPDEST PUSH1 0x0 PUSH2 0x2B5E DUP3 PUSH2 0x1B17 JUMP JUMPDEST SWAP2 POP PUSH2 0x2B69 DUP4 PUSH2 0x1B17 JUMP JUMPDEST SWAP3 POP DUP3 DUP3 ADD SWAP1 POP DUP1 DUP3 GT ISZERO PUSH2 0x2B81 JUMPI PUSH2 0x2B80 PUSH2 0x270E JUMP JUMPDEST JUMPDEST SWAP3 SWAP2 POP POP JUMP JUMPDEST PUSH32 0x536166654D6174683A206164646974696F6E206F766572666C6F770000000000 PUSH1 0x0 DUP3 ADD MSTORE POP JUMP JUMPDEST PUSH1 0x0 PUSH2 0x2BBD PUSH1 0x1B DUP4 PUSH2 0x1C7D JUMP JUMPDEST SWAP2 POP PUSH2 0x2BC8 DUP3 PUSH2 0x2B87 JUMP JUMPDEST PUSH1 0x20 DUP3 ADD SWAP1 POP SWAP2 SWAP1 POP JUMP JUMPDEST PUSH1 0x0 PUSH1 0x20 DUP3 ADD SWAP1 POP DUP2 DUP2 SUB PUSH1 0x0 DUP4 ADD MSTORE PUSH2 0x2BEC DUP2 PUSH2 0x2BB0 JUMP JUMPDEST SWAP1 POP SWAP2 SWAP1 POP JUMP JUMPDEST PUSH1 0x0 DUP2 MLOAD SWAP1 POP SWAP2 SWAP1 POP JUMP JUMPDEST PUSH1 0x0 DUP3 DUP3 MSTORE PUSH1 0x20 DUP3 ADD SWAP1 POP SWAP3 SWAP2 POP POP JUMP JUMPDEST PUSH1 0x0 PUSH2 0x2C1A DUP3 PUSH2 0x2BF3 JUMP JUMPDEST PUSH2 0x2C24 DUP2 DUP6 PUSH2 0x2BFE JUMP JUMPDEST SWAP4 POP PUSH2 0x2C34 DUP2 DUP6 PUSH1 0x20 DUP7 ADD PUSH2 0x1C8E JUMP JUMPDEST PUSH2 0x2C3D DUP2 PUSH2 0x1CB8 JUMP JUMPDEST DUP5 ADD SWAP2 POP POP SWAP3 SWAP2 POP POP JUMP JUMPDEST PUSH1 0x0 PUSH1 0xA0 DUP3 ADD SWAP1 POP PUSH2 0x2C5D PUSH1 0x0 DUP4 ADD DUP9 PUSH2 0x22A4 JUMP JUMPDEST PUSH2 0x2C6A PUSH1 0x20 DUP4 ADD DUP8 PUSH2 0x22A4 JUMP JUMPDEST DUP2 DUP2 SUB PUSH1 0x40 DUP4 ADD MSTORE PUSH2 0x2C7C DUP2 DUP7 PUSH2 0x218B JUMP JUMPDEST SWAP1 POP DUP2 DUP2 SUB PUSH1 0x60 DUP4 ADD MSTORE PUSH2 0x2C90 DUP2 DUP6 PUSH2 0x218B JUMP JUMPDEST SWAP1 POP DUP2 DUP2 SUB PUSH1 0x80 DUP4 ADD MSTORE PUSH2 0x2CA4 DUP2 DUP5 PUSH2 0x2C0F JUMP JUMPDEST SWAP1 POP SWAP7 SWAP6 POP POP POP POP POP POP JUMP JUMPDEST PUSH1 0x0 DUP2 MLOAD SWAP1 POP PUSH2 0x2CBF DUP2 PUSH2 0x1BE3 JUMP JUMPDEST SWAP3 SWAP2 POP POP JUMP JUMPDEST PUSH1 0x0 PUSH1 0x20 DUP3 DUP5 SUB SLT ISZERO PUSH2 0x2CDB JUMPI PUSH2 0x2CDA PUSH2 0x1AAF JUMP JUMPDEST JUMPDEST PUSH1 0x0 PUSH2 0x2CE9 DUP5 DUP3 DUP6 ADD PUSH2 0x2CB0 JUMP JUMPDEST SWAP2 POP POP SWAP3 SWAP2 POP POP JUMP JUMPDEST PUSH1 0x0 DUP2 PUSH1 0xE0 SHR SWAP1 POP SWAP2 SWAP1 POP JUMP JUMPDEST PUSH1 0x0 PUSH1 0x3 RETURNDATASIZE GT ISZERO PUSH2 0x2D1E JUMPI PUSH1 0x4 PUSH1 0x0 DUP1 RETURNDATACOPY PUSH2 0x2D1B PUSH1 0x0 MLOAD PUSH2 0x2CF2 JUMP JUMPDEST SWAP1 POP JUMPDEST SWAP1 JUMP JUMPDEST PUSH1 0x0 PUSH1 0x44 RETURNDATASIZE LT PUSH2 0x2DAE JUMPI PUSH2 0x2D33 PUSH2 0x1AA5 JUMP JUMPDEST PUSH1 0x4 RETURNDATASIZE SUB PUSH1 0x4 DUP3 RETURNDATACOPY DUP1 MLOAD RETURNDATASIZE PUSH1 0x24 DUP3 ADD GT PUSH8 0xFFFFFFFFFFFFFFFF DUP3 GT OR ISZERO PUSH2 0x2D5B JUMPI POP POP PUSH2 0x2DAE JUMP JUMPDEST DUP1 DUP3 ADD DUP1 MLOAD PUSH8 0xFFFFFFFFFFFFFFFF DUP2 GT ISZERO PUSH2 0x2D79 JUMPI POP POP POP POP PUSH2 0x2DAE JUMP JUMPDEST DUP1 PUSH1 0x20 DUP4 ADD ADD PUSH1 0x4 RETURNDATASIZE SUB DUP6 ADD DUP2 GT ISZERO PUSH2 0x2D96 JUMPI POP POP POP POP POP PUSH2 0x2DAE JUMP JUMPDEST PUSH2 0x2DA5 DUP3 PUSH1 0x20 ADD DUP6 ADD DUP7 PUSH2 0x1D58 JUMP JUMPDEST DUP3 SWAP6 POP POP POP POP POP POP JUMPDEST SWAP1 JUMP JUMPDEST PUSH32 0x455243313135353A207472616E7366657220746F206E6F6E2045524331313535 PUSH1 0x0 DUP3 ADD MSTORE PUSH32 0x526563656976657220696D706C656D656E746572000000000000000000000000 PUSH1 0x20 DUP3 ADD MSTORE POP JUMP JUMPDEST PUSH1 0x0 PUSH2 0x2E0D PUSH1 0x34 DUP4 PUSH2 0x1C7D JUMP JUMPDEST SWAP2 POP PUSH2 0x2E18 DUP3 PUSH2 0x2DB1 JUMP JUMPDEST PUSH1 0x40 DUP3 ADD SWAP1 POP SWAP2 SWAP1 POP JUMP JUMPDEST PUSH1 0x0 PUSH1 0x20 DUP3 ADD SWAP1 POP DUP2 DUP2 SUB PUSH1 0x0 DUP4 ADD MSTORE PUSH2 0x2E3C DUP2 PUSH2 0x2E00 JUMP JUMPDEST SWAP1 POP SWAP2 SWAP1 POP JUMP JUMPDEST PUSH32 0x455243313135353A204552433131353552656365697665722072656A65637465 PUSH1 0x0 DUP3 ADD MSTORE PUSH32 0x6420746F6B656E73000000000000000000000000000000000000000000000000 PUSH1 0x20 DUP3 ADD MSTORE POP JUMP JUMPDEST PUSH1 0x0 PUSH2 0x2E9F PUSH1 0x28 DUP4 PUSH2 0x1C7D JUMP JUMPDEST SWAP2 POP PUSH2 0x2EAA DUP3 PUSH2 0x2E43 JUMP JUMPDEST PUSH1 0x40 DUP3 ADD SWAP1 POP SWAP2 SWAP1 POP JUMP JUMPDEST PUSH1 0x0 PUSH1 0x20 DUP3 ADD SWAP1 POP DUP2 DUP2 SUB PUSH1 0x0 DUP4 ADD MSTORE PUSH2 0x2ECE DUP2 PUSH2 0x2E92 JUMP JUMPDEST SWAP1 POP SWAP2 SWAP1 POP JUMP JUMPDEST PUSH32 0x4E487B7100000000000000000000000000000000000000000000000000000000 PUSH1 0x0 MSTORE PUSH1 0x12 PUSH1 0x4 MSTORE PUSH1 0x24 PUSH1 0x0 REVERT JUMPDEST PUSH1 0x0 PUSH2 0x2F0F DUP3 PUSH2 0x1B17 JUMP JUMPDEST SWAP2 POP PUSH2 0x2F1A DUP4 PUSH2 0x1B17 JUMP JUMPDEST SWAP3 POP DUP3 PUSH2 0x2F2A JUMPI PUSH2 0x2F29 PUSH2 0x2ED5 JUMP JUMPDEST JUMPDEST DUP3 DUP3 DIV SWAP1 POP SWAP3 SWAP2 POP POP JUMP JUMPDEST PUSH1 0x0 PUSH2 0x2F40 DUP3 PUSH2 0x1B17 JUMP JUMPDEST SWAP2 POP PUSH2 0x2F4B DUP4 PUSH2 0x1B17 JUMP JUMPDEST SWAP3 POP DUP3 PUSH2 0x2F5B JUMPI PUSH2 0x2F5A PUSH2 0x2ED5 JUMP JUMPDEST JUMPDEST DUP3 DUP3 MOD SWAP1 POP SWAP3 SWAP2 POP POP JUMP JUMPDEST PUSH1 0x0 PUSH1 0xA0 DUP3 ADD SWAP1 POP PUSH2 0x2F7B PUSH1 0x0 DUP4 ADD DUP9 PUSH2 0x22A4 JUMP JUMPDEST PUSH2 0x2F88 PUSH1 0x20 DUP4 ADD DUP8 PUSH2 0x22A4 JUMP JUMPDEST PUSH2 0x2F95 PUSH1 0x40 DUP4 ADD DUP7 PUSH2 0x1B8D JUMP JUMPDEST PUSH2 0x2FA2 PUSH1 0x60 DUP4 ADD DUP6 PUSH2 0x1B8D JUMP JUMPDEST DUP2 DUP2 SUB PUSH1 0x80 DUP4 ADD MSTORE PUSH2 0x2FB4 DUP2 DUP5 PUSH2 0x2C0F JUMP JUMPDEST SWAP1 POP SWAP7 SWAP6 POP POP POP POP POP POP JUMP INVALID GASLIMIT MSTORE NUMBER BALANCE BALANCE CALLDATALOAD CALLDATALOAD GASPRICE KECCAK256 PUSH10 0x6E73756666696369656E PUSH21 0x2062616C616E636520666F72207472616E73666572 LOG2 PUSH5 0x6970667358 0x22 SLT KECCAK256 SHL ADDRESS 0xD8 ISZERO PUSH16 0x8F5062A1139EBC7E396D5BA32D3E4E7D SWAP3 PUSH6 0x3E250D50C2AD 0xDC GAS 0xB9 PUSH5 0x736F6C6343 STOP ADDMOD GT STOP CALLER "
				},
				"gasEstimates": {
					"creation": {
						"codeDepositCost": "2464000",
						"executionCost": "infinite",
						"totalCost": "infinite"
					},
					"external": {
						"balanceOf(address,uint256)": "infinite",
						"balanceOfBatch(address[],uint256[])": "infinite",
						"getCreator(uint256)": "2909",
						"isApprovedForAll(address,address)": "infinite",
						"name()": "infinite",
						"royaltyFee(uint256)": "infinite",
						"safeBatchTransferFrom(address,address,uint256[],uint256[],bytes)": "infinite",
						"safeTransferFrom(address,address,uint256,uint256,bytes)": "infinite",
						"setApprovalForAll(address,bool)": "infinite",
						"supportsInterface(bytes4)": "2892",
						"symbol()": "infinite",
						"tokenURI(uint256)": "infinite",
						"tokenURIPrefix()": "infinite",
						"totalSupply()": "2566"
					},
					"internal": {
						"_asSingletonArray(uint256)": "infinite",
						"_beforeTokenTransfer(address,address,address,uint256[] memory,uint256[] memory,bytes memory)": "21",
						"_burn(address,uint256,uint256)": "infinite",
						"_burnBatch(address,uint256[] memory,uint256[] memory)": "infinite",
						"_doSafeBatchTransferAcceptanceCheck(address,address,address,uint256[] memory,uint256[] memory,bytes memory)": "infinite",
						"_doSafeTransferAcceptanceCheck(address,address,address,uint256,uint256,bytes memory)": "infinite",
						"_exists(uint256)": "infinite",
						"_mint(uint256,uint256,string memory,uint256)": "infinite",
						"_mintBatch(address,uint256[] memory,uint256[] memory,bytes memory)": "infinite",
						"_setTokenURI(uint256,string memory)": "infinite",
						"_setTokenURIPrefix(string memory)": "infinite"
					}
				},
				"methodIdentifiers": {
					"balanceOf(address,uint256)": "00fdd58e",
					"balanceOfBatch(address[],uint256[])": "4e1273f4",
					"getCreator(uint256)": "d48e638a",
					"isApprovedForAll(address,address)": "e985e9c5",
					"name()": "06fdde03",
					"royaltyFee(uint256)": "c57dc235",
					"safeBatchTransferFrom(address,address,uint256[],uint256[],bytes)": "2eb2c2d6",
					"safeTransferFrom(address,address,uint256,uint256,bytes)": "f242432a",
					"setApprovalForAll(address,bool)": "a22cb465",
					"supportsInterface(bytes4)": "01ffc9a7",
					"symbol()": "95d89b41",
					"tokenURI(uint256)": "c87b56dd",
					"tokenURIPrefix()": "c0ac9983",
					"totalSupply()": "18160ddd"
				}
			},
			"storageLayout": {
				"storage": [
					{
						"astId": 1573,
						"contract": "contracts/ERC1155.sol:ERC1155",
						"label": "_supportedInterfaces",
						"offset": 0,
						"slot": "0",
						"type": "t_mapping(t_bytes4,t_bool)"
					},
					{
						"astId": 33,
						"contract": "contracts/ERC1155.sol:ERC1155",
						"label": "creators",
						"offset": 0,
						"slot": "1",
						"type": "t_mapping(t_uint256,t_address)"
					},
					{
						"astId": 37,
						"contract": "contracts/ERC1155.sol:ERC1155",
						"label": "_royaltyFee",
						"offset": 0,
						"slot": "2",
						"type": "t_mapping(t_uint256,t_uint256)"
					},
					{
						"astId": 43,
						"contract": "contracts/ERC1155.sol:ERC1155",
						"label": "_balances",
						"offset": 0,
						"slot": "3",
						"type": "t_mapping(t_uint256,t_mapping(t_address,t_uint256))"
					},
					{
						"astId": 49,
						"contract": "contracts/ERC1155.sol:ERC1155",
						"label": "_operatorApprovals",
						"offset": 0,
						"slot": "4",
						"type": "t_mapping(t_address,t_mapping(t_address,t_bool))"
					},
					{
						"astId": 52,
						"contract": "contracts/ERC1155.sol:ERC1155",
						"label": "tokenURIPrefix",
						"offset": 0,
						"slot": "5",
						"type": "t_string_storage"
					},
					{
						"astId": 56,
						"contract": "contracts/ERC1155.sol:ERC1155",
						"label": "_tokenURIs",
						"offset": 0,
						"slot": "6",
						"type": "t_mapping(t_uint256,t_string_storage)"
					},
					{
						"astId": 59,
						"contract": "contracts/ERC1155.sol:ERC1155",
						"label": "_tokenOwners",
						"offset": 0,
						"slot": "7",
						"type": "t_struct(UintToAddressMap)1880_storage"
					},
					{
						"astId": 61,
						"contract": "contracts/ERC1155.sol:ERC1155",
						"label": "_name",
						"offset": 0,
						"slot": "9",
						"type": "t_string_storage"
					},
					{
						"astId": 63,
						"contract": "contracts/ERC1155.sol:ERC1155",
						"label": "_symbol",
						"offset": 0,
						"slot": "10",
						"type": "t_string_storage"
					}
				],
				"types": {
					"t_address": {
						"encoding": "inplace",
						"label": "address",
						"numberOfBytes": "20"
					},
					"t_array(t_struct(MapEntry)1621_storage)dyn_storage": {
						"base": "t_struct(MapEntry)1621_storage",
						"encoding": "dynamic_array",
						"label": "struct EnumerableMap.MapEntry[]",
						"numberOfBytes": "32"
					},
					"t_bool": {
						"encoding": "inplace",
						"label": "bool",
						"numberOfBytes": "1"
					},
					"t_bytes32": {
						"encoding": "inplace",
						"label": "bytes32",
						"numberOfBytes": "32"
					},
					"t_bytes4": {
						"encoding": "inplace",
						"label": "bytes4",
						"numberOfBytes": "4"
					},
					"t_mapping(t_address,t_bool)": {
						"encoding": "mapping",
						"key": "t_address",
						"label": "mapping(address => bool)",
						"numberOfBytes": "32",
						"value": "t_bool"
					},
					"t_mapping(t_address,t_mapping(t_address,t_bool))": {
						"encoding": "mapping",
						"key": "t_address",
						"label": "mapping(address => mapping(address => bool))",
						"numberOfBytes": "32",
						"value": "t_mapping(t_address,t_bool)"
					},
					"t_mapping(t_address,t_uint256)": {
						"encoding": "mapping",
						"key": "t_address",
						"label": "mapping(address => uint256)",
						"numberOfBytes": "32",
						"value": "t_uint256"
					},
					"t_mapping(t_bytes32,t_uint256)": {
						"encoding": "mapping",
						"key": "t_bytes32",
						"label": "mapping(bytes32 => uint256)",
						"numberOfBytes": "32",
						"value": "t_uint256"
					},
					"t_mapping(t_bytes4,t_bool)": {
						"encoding": "mapping",
						"key": "t_bytes4",
						"label": "mapping(bytes4 => bool)",
						"numberOfBytes": "32",
						"value": "t_bool"
					},
					"t_mapping(t_uint256,t_address)": {
						"encoding": "mapping",
						"key": "t_uint256",
						"label": "mapping(uint256 => address)",
						"numberOfBytes": "32",
						"value": "t_address"
					},
					"t_mapping(t_uint256,t_mapping(t_address,t_uint256))": {
						"encoding": "mapping",
						"key": "t_uint256",
						"label": "mapping(uint256 => mapping(address => uint256))",
						"numberOfBytes": "32",
						"value": "t_mapping(t_address,t_uint256)"
					},
					"t_mapping(t_uint256,t_string_storage)": {
						"encoding": "mapping",
						"key": "t_uint256",
						"label": "mapping(uint256 => string)",
						"numberOfBytes": "32",
						"value": "t_string_storage"
					},
					"t_mapping(t_uint256,t_uint256)": {
						"encoding": "mapping",
						"key": "t_uint256",
						"label": "mapping(uint256 => uint256)",
						"numberOfBytes": "32",
						"value": "t_uint256"
					},
					"t_string_storage": {
						"encoding": "bytes",
						"label": "string",
						"numberOfBytes": "32"
					},
					"t_struct(Map)1630_storage": {
						"encoding": "inplace",
						"label": "struct EnumerableMap.Map",
						"members": [
							{
								"astId": 1625,
								"contract": "contracts/ERC1155.sol:ERC1155",
								"label": "_entries",
								"offset": 0,
								"slot": "0",
								"type": "t_array(t_struct(MapEntry)1621_storage)dyn_storage"
							},
							{
								"astId": 1629,
								"contract": "contracts/ERC1155.sol:ERC1155",
								"label": "_indexes",
								"offset": 0,
								"slot": "1",
								"type": "t_mapping(t_bytes32,t_uint256)"
							}
						],
						"numberOfBytes": "64"
					},
					"t_struct(MapEntry)1621_storage": {
						"encoding": "inplace",
						"label": "struct EnumerableMap.MapEntry",
						"members": [
							{
								"astId": 1618,
								"contract": "contracts/ERC1155.sol:ERC1155",
								"label": "_key",
								"offset": 0,
								"slot": "0",
								"type": "t_bytes32"
							},
							{
								"astId": 1620,
								"contract": "contracts/ERC1155.sol:ERC1155",
								"label": "_value",
								"offset": 0,
								"slot": "1",
								"type": "t_bytes32"
							}
						],
						"numberOfBytes": "64"
					},
					"t_struct(UintToAddressMap)1880_storage": {
						"encoding": "inplace",
						"label": "struct EnumerableMap.UintToAddressMap",
						"members": [
							{
								"astId": 1879,
								"contract": "contracts/ERC1155.sol:ERC1155",
								"label": "_inner",
								"offset": 0,
								"slot": "0",
								"type": "t_struct(Map)1630_storage"
							}
						],
						"numberOfBytes": "64"
					},
					"t_uint256": {
						"encoding": "inplace",
						"label": "uint256",
						"numberOfBytes": "32"
					}
				}
			},
			"userdoc": {
				"kind": "user",
				"methods": {
					"balanceOf(address,uint256)": {
						"notice": "Get the balance of an account's Tokens."
					},
					"balanceOfBatch(address[],uint256[])": {
						"notice": "Get the balance of multiple account/token pairs"
					},
					"getCreator(uint256)": {
						"notice": "Get the creator of given tokenID."
					},
					"isApprovedForAll(address,address)": {
						"notice": "Queries the approval status of an operator for a given owner."
					},
					"royaltyFee(uint256)": {
						"notice": "Get the royalty associated with tokenID."
					},
					"safeBatchTransferFrom(address,address,uint256[],uint256[],bytes)": {
						"notice": "Transfers `_values` amount(s) of `_ids` from the `_from` address to the `_to` address specified (with safety call)."
					},
					"safeTransferFrom(address,address,uint256,uint256,bytes)": {
						"notice": "Transfers `_value` amount of an `_id` from the `_from` address to the `_to` address specified (with safety call)."
					},
					"setApprovalForAll(address,bool)": {
						"notice": "Enable or disable approval for a third party (\"operator\") to manage all of the caller's tokens."
					}
				},
				"version": 1
			}
		}
	}
}