{
	"contracts/ERC721.sol": {
		"ERC721": {
			"abi": [
				{
					"inputs": [
						{
							"internalType": "string",
							"name": "name_",
							"type": "string"
						},
						{
							"internalType": "string",
							"name": "symbol_",
							"type": "string"
						}
					],
					"stateMutability": "nonpayable",
					"type": "constructor"
				},
				{
					"anonymous": false,
					"inputs": [
						{
							"indexed": true,
							"internalType": "address",
							"name": "owner",
							"type": "address"
						},
						{
							"indexed": true,
							"internalType": "address",
							"name": "approved",
							"type": "address"
						},
						{
							"indexed": true,
							"internalType": "uint256",
							"name": "tokenId",
							"type": "uint256"
						}
					],
					"name": "Approval",
					"type": "event"
				},
				{
					"anonymous": false,
					"inputs": [
						{
							"indexed": true,
							"internalType": "address",
							"name": "owner",
							"type": "address"
						},
						{
							"indexed": true,
							"internalType": "address",
							"name": "operator",
							"type": "address"
						},
						{
							"indexed": false,
							"internalType": "bool",
							"name": "approved",
							"type": "bool"
						}
					],
					"name": "ApprovalForAll",
					"type": "event"
				},
				{
					"anonymous": false,
					"inputs": [
						{
							"indexed": true,
							"internalType": "address",
							"name": "from",
							"type": "address"
						},
						{
							"indexed": true,
							"internalType": "address",
							"name": "to",
							"type": "address"
						},
						{
							"indexed": true,
							"internalType": "uint256",
							"name": "tokenId",
							"type": "uint256"
						}
					],
					"name": "Transfer",
					"type": "event"
				},
				{
					"anonymous": false,
					"inputs": [
						{
							"indexed": false,
							"internalType": "string",
							"name": "value",
							"type": "string"
						},
						{
							"indexed": true,
							"internalType": "uint256",
							"name": "id",
							"type": "uint256"
						}
					],
					"name": "URI",
					"type": "event"
				},
				{
					"anonymous": false,
					"inputs": [
						{
							"indexed": false,
							"internalType": "string",
							"name": "value",
							"type": "string"
						}
					],
					"name": "tokenBaseURI",
					"type": "event"
				},
				{
					"inputs": [
						{
							"internalType": "address",
							"name": "to",
							"type": "address"
						},
						{
							"internalType": "uint256",
							"name": "tokenId",
							"type": "uint256"
						}
					],
					"name": "approve",
					"outputs": [],
					"stateMutability": "nonpayable",
					"type": "function"
				},
				{
					"inputs": [
						{
							"internalType": "address",
							"name": "owner",
							"type": "address"
						}
					],
					"name": "balanceOf",
					"outputs": [
						{
							"internalType": "uint256",
							"name": "",
							"type": "uint256"
						}
					],
					"stateMutability": "view",
					"type": "function"
				},
				{
					"inputs": [],
					"name": "baseURI",
					"outputs": [
						{
							"internalType": "string",
							"name": "",
							"type": "string"
						}
					],
					"stateMutability": "view",
					"type": "function"
				},
				{
					"inputs": [
						{
							"internalType": "uint256",
							"name": "tokenId",
							"type": "uint256"
						}
					],
					"name": "getApproved",
					"outputs": [
						{
							"internalType": "address",
							"name": "",
							"type": "address"
						}
					],
					"stateMutability": "view",
					"type": "function"
				},
				{
					"inputs": [
						{
							"internalType": "uint256",
							"name": "tokenId",
							"type": "uint256"
						}
					],
					"name": "getCreator",
					"outputs": [
						{
							"internalType": "address",
							"name": "",
							"type": "address"
						}
					],
					"stateMutability": "view",
					"type": "function"
				},
				{
					"inputs": [
						{
							"internalType": "address",
							"name": "owner",
							"type": "address"
						},
						{
							"internalType": "address",
							"name": "operator",
							"type": "address"
						}
					],
					"name": "isApprovedForAll",
					"outputs": [
						{
							"internalType": "bool",
							"name": "",
							"type": "bool"
						}
					],
					"stateMutability": "view",
					"type": "function"
				},
				{
					"inputs": [],
					"name": "name",
					"outputs": [
						{
							"internalType": "string",
							"name": "",
							"type": "string"
						}
					],
					"stateMutability": "view",
					"type": "function"
				},
				{
					"inputs": [
						{
							"internalType": "uint256",
							"name": "tokenId",
							"type": "uint256"
						}
					],
					"name": "ownerOf",
					"outputs": [
						{
							"internalType": "address",
							"name": "",
							"type": "address"
						}
					],
					"stateMutability": "view",
					"type": "function"
				},
				{
					"inputs": [
						{
							"internalType": "uint256",
							"name": "tokenId",
							"type": "uint256"
						}
					],
					"name": "royaltyFee",
					"outputs": [
						{
							"internalType": "uint256",
							"name": "",
							"type": "uint256"
						}
					],
					"stateMutability": "view",
					"type": "function"
				},
				{
					"inputs": [
						{
							"internalType": "address",
							"name": "from",
							"type": "address"
						},
						{
							"internalType": "address",
							"name": "to",
							"type": "address"
						},
						{
							"internalType": "uint256",
							"name": "tokenId",
							"type": "uint256"
						}
					],
					"name": "safeTransferFrom",
					"outputs": [],
					"stateMutability": "nonpayable",
					"type": "function"
				},
				{
					"inputs": [
						{
							"internalType": "address",
							"name": "from",
							"type": "address"
						},
						{
							"internalType": "address",
							"name": "to",
							"type": "address"
						},
						{
							"internalType": "uint256",
							"name": "tokenId",
							"type": "uint256"
						},
						{
							"internalType": "bytes",
							"name": "_data",
							"type": "bytes"
						}
					],
					"name": "safeTransferFrom",
					"outputs": [],
					"stateMutability": "nonpayable",
					"type": "function"
				},
				{
					"inputs": [
						{
							"internalType": "address",
							"name": "operator",
							"type": "address"
						},
						{
							"internalType": "bool",
							"name": "approved",
							"type": "bool"
						}
					],
					"name": "setApprovalForAll",
					"outputs": [],
					"stateMutability": "nonpayable",
					"type": "function"
				},
				{
					"inputs": [
						{
							"internalType": "bytes4",
							"name": "interfaceId",
							"type": "bytes4"
						}
					],
					"name": "supportsInterface",
					"outputs": [
						{
							"internalType": "bool",
							"name": "",
							"type": "bool"
						}
					],
					"stateMutability": "view",
					"type": "function"
				},
				{
					"inputs": [],
					"name": "symbol",
					"outputs": [
						{
							"internalType": "string",
							"name": "",
							"type": "string"
						}
					],
					"stateMutability": "view",
					"type": "function"
				},
				{
					"inputs": [
						{
							"internalType": "uint256",
							"name": "index",
							"type": "uint256"
						}
					],
					"name": "tokenByIndex",
					"outputs": [
						{
							"internalType": "uint256",
							"name": "",
							"type": "uint256"
						}
					],
					"stateMutability": "view",
					"type": "function"
				},
				{
					"inputs": [
						{
							"internalType": "address",
							"name": "owner",
							"type": "address"
						},
						{
							"internalType": "uint256",
							"name": "index",
							"type": "uint256"
						}
					],
					"name": "tokenOfOwnerByIndex",
					"outputs": [
						{
							"internalType": "uint256",
							"name": "",
							"type": "uint256"
						}
					],
					"stateMutability": "view",
					"type": "function"
				},
				{
					"inputs": [
						{
							"internalType": "uint256",
							"name": "tokenId",
							"type": "uint256"
						}
					],
					"name": "tokenURI",
					"outputs": [
						{
							"internalType": "string",
							"name": "",
							"type": "string"
						}
					],
					"stateMutability": "view",
					"type": "function"
				},
				{
					"inputs": [],
					"name": "totalSupply",
					"outputs": [
						{
							"internalType": "uint256",
							"name": "",
							"type": "uint256"
						}
					],
					"stateMutability": "view",
					"type": "function"
				},
				{
					"inputs": [
						{
							"internalType": "address",
							"name": "from",
							"type": "address"
						},
						{
							"internalType": "address",
							"name": "to",
							"type": "address"
						},
						{
							"internalType": "uint256",
							"name": "tokenId",
							"type": "uint256"
						}
					],
					"name": "transferFrom",
					"outputs": [],
					"stateMutability": "nonpayable",
					"type": "function"
				}
			],
			"devdoc": {
				"kind": "dev",
				"methods": {
					"balanceOf(address)": {
						"params": {
							"owner": "The address of the token holder"
						},
						"returns": {
							"_0": "The account's balance of the Token type requested"
						}
					},
					"isApprovedForAll(address,address)": {
						"params": {
							"operator": "Address of authorized operator",
							"owner": "The owner of the Tokens"
						},
						"returns": {
							"_0": "True if the operator is approved, false if not"
						}
					},
					"name()": {
						"details": "Returns the token collection name."
					},
					"ownerOf(uint256)": {
						"params": {
							"tokenId": "The tokenId of the token holder"
						},
						"returns": {
							"_0": "The current owner of the requested tokenId"
						}
					},
					"safeTransferFrom(address,address,uint256,bytes)": {
						"details": "Caller must be approved to manage the tokens being transferred out of the `_from` account (see \"Approval\" section of the standard). MUST revert if `_to` is the zero address. MUST revert if balance of holder for token `_id` is lower than the `_value` sent. MUST revert on any other error. MUST emit the `TransferSingle` event to reflect the balance change (see \"Safe Transfer Rules\" section of the standard). After the above conditions are met, this function MUST check if `_to` is a smart contract (e.g. code size > 0). If so, it MUST call `onERC721Received` on `_to` and act appropriately (see \"Safe Transfer Rules\" section of the standard).",
						"params": {
							"_data": "Additional data with no specified format, MUST be sent unaltered in call to `onERC721Received` on `_to`",
							"from": "Source address",
							"to": "Target address",
							"tokenId": "ID of the token type."
						}
					},
					"setApprovalForAll(address,bool)": {
						"details": "MUST emit the ApprovalForAll event on success.",
						"params": {
							"approved": "True if the operator is approved, false to revoke approval",
							"operator": "Address to add to the set of authorized operators"
						}
					},
					"supportsInterface(bytes4)": {
						"details": "Returns true if this contract implements the interface defined by `interfaceId`. See the corresponding https://eips.ethereum.org/EIPS/eip-165#how-interfaces-are-identified[EIP section] to learn more about how these ids are created. This function call must use less than 30 000 gas."
					},
					"symbol()": {
						"details": "Returns the token collection symbol."
					},
					"tokenByIndex(uint256)": {
						"details": "Returns a token ID at a given `index` of all the tokens stored by the contract. Use along with {totalSupply} to enumerate all tokens."
					},
					"tokenOfOwnerByIndex(address,uint256)": {
						"details": "Returns a token ID owned by `owner` at a given `index` of its token list. Use along with {balanceOf} to enumerate all of ``owner``'s tokens."
					},
					"tokenURI(uint256)": {
						"details": "Returns the Uniform Resource Identifier (URI) for `tokenId` token."
					},
					"totalSupply()": {
						"details": "Returns the total amount of tokens stored by the contract."
					}
				},
				"version": 1
			},
			"evm": {
				"assembly": "    /* \"contracts/ERC721.sol\":497:12964  contract ERC721 is Context, ERC165, IERC721, IERC721Metadata, IERC721Enumerable {... */\n  mstore(0x40, 0x80)\n    /* \"contracts/ERC721.sol\":1600:1628  string private _baseURI = \"\" */\n  mload(0x40)\n  dup1\n  0x20\n  add\n  0x40\n  mstore\n  dup1\n  0x00\n  dup2\n  mstore\n  pop\n  0x0b\n  swap1\n  dup2\n  tag_1\n  swap2\n  swap1\n  tag_2\n  jump\t// in\ntag_1:\n  pop\n    /* \"contracts/ERC721.sol\":1855:2147  constructor (string memory name_, string memory symbol_) {... */\n  callvalue\n  dup1\n  iszero\n  tag_3\n  jumpi\n  0x00\n  dup1\n  revert\ntag_3:\n  pop\n  mload(0x40)\n  sub(codesize, bytecodeSize)\n  dup1\n  bytecodeSize\n  dup4\n  codecopy\n  dup2\n  dup2\n  add\n  0x40\n  mstore\n  dup2\n  add\n  swap1\n  tag_4\n  swap2\n  swap1\n  tag_5\n  jump\t// in\ntag_4:\n    /* \"contracts/External/ERC165.sol\":337:377  _registerInterface(_INTERFACE_ID_ERC165) */\n  tag_9\n    /* \"contracts/External/ERC165.sol\":231:241  0x01ffc9a7 */\n  0x01ffc9a7\n    /* \"contracts/External/ERC165.sol\":356:376  _INTERFACE_ID_ERC165 */\n  0xe0\n  shl\n    /* \"contracts/External/ERC165.sol\":337:355  _registerInterface */\n  shl(0x20, tag_10)\n    /* \"contracts/External/ERC165.sol\":337:377  _registerInterface(_INTERFACE_ID_ERC165) */\n  0x20\n  shr\n  jump\t// in\ntag_9:\n    /* \"contracts/ERC721.sol\":1931:1936  name_ */\n  dup2\n    /* \"contracts/ERC721.sol\":1923:1928  _name */\n  0x06\n    /* \"contracts/ERC721.sol\":1923:1936  _name = name_ */\n  swap1\n  dup2\n  tag_12\n  swap2\n  swap1\n  tag_2\n  jump\t// in\ntag_12:\n  pop\n    /* \"contracts/ERC721.sol\":1957:1964  symbol_ */\n  dup1\n    /* \"contracts/ERC721.sol\":1947:1954  _symbol */\n  0x07\n    /* \"contracts/ERC721.sol\":1947:1964  _symbol = symbol_ */\n  swap1\n  dup2\n  tag_13\n  swap2\n  swap1\n  tag_2\n  jump\t// in\ntag_13:\n  pop\n    /* \"contracts/ERC721.sol\":1977:2017  _registerInterface(_INTERFACE_ID_ERC721) */\n  tag_14\n    /* \"contracts/ERC721.sol\":1684:1694  0x80ac58cd */\n  0x80ac58cd\n    /* \"contracts/ERC721.sol\":1996:2016  _INTERFACE_ID_ERC721 */\n  0xe0\n  shl\n    /* \"contracts/ERC721.sol\":1977:1995  _registerInterface */\n  shl(0x20, tag_10)\n    /* \"contracts/ERC721.sol\":1977:2017  _registerInterface(_INTERFACE_ID_ERC721) */\n  0x20\n  shr\n  jump\t// in\ntag_14:\n    /* \"contracts/ERC721.sol\":2028:2077  _registerInterface(_INTERFACE_ID_ERC721_METADATA) */\n  tag_15\n    /* \"contracts/ERC721.sol\":1759:1769  0x5b5e139f */\n  0x5b5e139f\n    /* \"contracts/ERC721.sol\":2047:2076  _INTERFACE_ID_ERC721_METADATA */\n  0xe0\n  shl\n    /* \"contracts/ERC721.sol\":2028:2046  _registerInterface */\n  shl(0x20, tag_10)\n    /* \"contracts/ERC721.sol\":2028:2077  _registerInterface(_INTERFACE_ID_ERC721_METADATA) */\n  0x20\n  shr\n  jump\t// in\ntag_15:\n    /* \"contracts/ERC721.sol\":2088:2139  _registerInterface(_INTERFACE_ID_ERC721_ENUMERABLE) */\n  tag_16\n    /* \"contracts/ERC721.sol\":1836:1846  0x780e9d63 */\n  0x780e9d63\n    /* \"contracts/ERC721.sol\":2107:2138  _INTERFACE_ID_ERC721_ENUMERABLE */\n  0xe0\n  shl\n    /* \"contracts/ERC721.sol\":2088:2106  _registerInterface */\n  shl(0x20, tag_10)\n    /* \"contracts/ERC721.sol\":2088:2139  _registerInterface(_INTERFACE_ID_ERC721_ENUMERABLE) */\n  0x20\n  shr\n  jump\t// in\ntag_16:\n    /* \"contracts/ERC721.sol\":1855:2147  constructor (string memory name_, string memory symbol_) {... */\n  pop\n  pop\n    /* \"contracts/ERC721.sol\":497:12964  contract ERC721 is Context, ERC165, IERC721, IERC721Metadata, IERC721Enumerable {... */\n  jump(tag_17)\n    /* \"contracts/External/ERC165.sol\":553:754  function _registerInterface(bytes4 interfaceId) internal virtual {... */\ntag_10:\n    /* \"contracts/External/ERC165.sol\":652:662  0xffffffff */\n  0xffffffff\n    /* \"contracts/External/ERC165.sol\":637:662  interfaceId != 0xffffffff */\n  0xe0\n  shl\n    /* \"contracts/External/ERC165.sol\":637:648  interfaceId */\n  dup2\n    /* \"contracts/External/ERC165.sol\":637:662  interfaceId != 0xffffffff */\n  not(0xffffffffffffffffffffffffffffffffffffffffffffffffffffffff)\n  and\n  sub\n    /* \"contracts/External/ERC165.sol\":629:695  require(interfaceId != 0xffffffff, \"ERC165: invalid interface id\") */\n  tag_19\n  jumpi\n  mload(0x40)\n  0x08c379a000000000000000000000000000000000000000000000000000000000\n  dup2\n  mstore\n  0x04\n  add\n  tag_20\n  swap1\n  tag_21\n  jump\t// in\ntag_20:\n  mload(0x40)\n  dup1\n  swap2\n  sub\n  swap1\n  revert\ntag_19:\n    /* \"contracts/External/ERC165.sol\":742:746  true */\n  0x01\n    /* \"contracts/External/ERC165.sol\":706:726  _supportedInterfaces */\n  0x00\n    /* \"contracts/External/ERC165.sol\":706:739  _supportedInterfaces[interfaceId] */\n  dup1\n    /* \"contracts/External/ERC165.sol\":727:738  interfaceId */\n  dup4\n    /* \"contracts/External/ERC165.sol\":706:739  _supportedInterfaces[interfaceId] */\n  not(0xffffffffffffffffffffffffffffffffffffffffffffffffffffffff)\n  and\n  not(0xffffffffffffffffffffffffffffffffffffffffffffffffffffffff)\n  and\n  dup2\n  mstore\n  0x20\n  add\n  swap1\n  dup2\n  mstore\n  0x20\n  add\n  0x00\n  keccak256\n  0x00\n    /* \"contracts/External/ERC165.sol\":706:746  _supportedInterfaces[interfaceId] = true */\n  0x0100\n  exp\n  dup2\n  sload\n  dup2\n  0xff\n  mul\n  not\n  and\n  swap1\n  dup4\n  iszero\n  iszero\n  mul\n  or\n  swap1\n  sstore\n  pop\n    /* \"contracts/External/ERC165.sol\":553:754  function _registerInterface(bytes4 interfaceId) internal virtual {... */\n  pop\n  jump\t// out\n    /* \"#utility.yul\":7:106   */\ntag_22:\n    /* \"#utility.yul\":59:65   */\n  0x00\n    /* \"#utility.yul\":93:98   */\n  dup2\n    /* \"#utility.yul\":87:99   */\n  mload\n    /* \"#utility.yul\":77:99   */\n  swap1\n  pop\n    /* \"#utility.yul\":7:106   */\n  swap2\n  swap1\n  pop\n  jump\t// out\n    /* \"#utility.yul\":112:292   */\ntag_23:\n    /* \"#utility.yul\":160:237   */\n  0x4e487b7100000000000000000000000000000000000000000000000000000000\n    /* \"#utility.yul\":157:158   */\n  0x00\n    /* \"#utility.yul\":150:238   */\n  mstore\n    /* \"#utility.yul\":257:261   */\n  0x41\n    /* \"#utility.yul\":254:255   */\n  0x04\n    /* \"#utility.yul\":247:262   */\n  mstore\n    /* \"#utility.yul\":281:285   */\n  0x24\n    /* \"#utility.yul\":278:279   */\n  0x00\n    /* \"#utility.yul\":271:286   */\n  revert\n    /* \"#utility.yul\":298:478   */\ntag_24:\n    /* \"#utility.yul\":346:423   */\n  0x4e487b7100000000000000000000000000000000000000000000000000000000\n    /* \"#utility.yul\":343:344   */\n  0x00\n    /* \"#utility.yul\":336:424   */\n  mstore\n    /* \"#utility.yul\":443:447   */\n  0x22\n    /* \"#utility.yul\":440:441   */\n  0x04\n    /* \"#utility.yul\":433:448   */\n  mstore\n    /* \"#utility.yul\":467:471   */\n  0x24\n    /* \"#utility.yul\":464:465   */\n  0x00\n    /* \"#utility.yul\":457:472   */\n  revert\n    /* \"#utility.yul\":484:804   */\ntag_25:\n    /* \"#utility.yul\":528:534   */\n  0x00\n    /* \"#utility.yul\":565:566   */\n  0x02\n    /* \"#utility.yul\":559:563   */\n  dup3\n    /* \"#utility.yul\":555:567   */\n  div\n    /* \"#utility.yul\":545:567   */\n  swap1\n  pop\n    /* \"#utility.yul\":612:613   */\n  0x01\n    /* \"#utility.yul\":606:610   */\n  dup3\n    /* \"#utility.yul\":602:614   */\n  and\n    /* \"#utility.yul\":633:651   */\n  dup1\n    /* \"#utility.yul\":623:704   */\n  tag_62\n  jumpi\n    /* \"#utility.yul\":689:693   */\n  0x7f\n    /* \"#utility.yul\":681:687   */\n  dup3\n    /* \"#utility.yul\":677:694   */\n  and\n    /* \"#utility.yul\":667:694   */\n  swap2\n  pop\n    /* \"#utility.yul\":623:704   */\ntag_62:\n    /* \"#utility.yul\":751:753   */\n  0x20\n    /* \"#utility.yul\":743:749   */\n  dup3\n    /* \"#utility.yul\":740:754   */\n  lt\n    /* \"#utility.yul\":720:738   */\n  dup2\n    /* \"#utility.yul\":717:755   */\n  sub\n    /* \"#utility.yul\":714:798   */\n  tag_63\n  jumpi\n    /* \"#utility.yul\":770:788   */\n  tag_64\n  tag_24\n  jump\t// in\ntag_64:\n    /* \"#utility.yul\":714:798   */\ntag_63:\n    /* \"#utility.yul\":535:804   */\n  pop\n    /* \"#utility.yul\":484:804   */\n  swap2\n  swap1\n  pop\n  jump\t// out\n    /* \"#utility.yul\":810:951   */\ntag_26:\n    /* \"#utility.yul\":859:863   */\n  0x00\n    /* \"#utility.yul\":882:885   */\n  dup2\n    /* \"#utility.yul\":874:885   */\n  swap1\n  pop\n    /* \"#utility.yul\":905:908   */\n  dup2\n    /* \"#utility.yul\":902:903   */\n  0x00\n    /* \"#utility.yul\":895:909   */\n  mstore\n    /* \"#utility.yul\":939:943   */\n  0x20\n    /* \"#utility.yul\":936:937   */\n  0x00\n    /* \"#utility.yul\":926:944   */\n  keccak256\n    /* \"#utility.yul\":918:944   */\n  swap1\n  pop\n    /* \"#utility.yul\":810:951   */\n  swap2\n  swap1\n  pop\n  jump\t// out\n    /* \"#utility.yul\":957:1050   */\ntag_27:\n    /* \"#utility.yul\":994:1000   */\n  0x00\n    /* \"#utility.yul\":1041:1043   */\n  0x20\n    /* \"#utility.yul\":1036:1038   */\n  0x1f\n    /* \"#utility.yul\":1029:1034   */\n  dup4\n    /* \"#utility.yul\":1025:1039   */\n  add\n    /* \"#utility.yul\":1021:1044   */\n  div\n    /* \"#utility.yul\":1011:1044   */\n  swap1\n  pop\n    /* \"#utility.yul\":957:1050   */\n  swap2\n  swap1\n  pop\n  jump\t// out\n    /* \"#utility.yul\":1056:1163   */\ntag_28:\n    /* \"#utility.yul\":1100:1108   */\n  0x00\n    /* \"#utility.yul\":1150:1155   */\n  dup3\n    /* \"#utility.yul\":1144:1148   */\n  dup3\n    /* \"#utility.yul\":1140:1156   */\n  shl\n    /* \"#utility.yul\":1119:1156   */\n  swap1\n  pop\n    /* \"#utility.yul\":1056:1163   */\n  swap3\n  swap2\n  pop\n  pop\n  jump\t// out\n    /* \"#utility.yul\":1169:1562   */\ntag_29:\n    /* \"#utility.yul\":1238:1244   */\n  0x00\n    /* \"#utility.yul\":1288:1289   */\n  0x08\n    /* \"#utility.yul\":1276:1286   */\n  dup4\n    /* \"#utility.yul\":1272:1290   */\n  mul\n    /* \"#utility.yul\":1311:1408   */\n  tag_69\n    /* \"#utility.yul\":1341:1407   */\n  0xffffffffffffffffffffffffffffffffffffffffffffffffffffffffffffffff\n    /* \"#utility.yul\":1330:1339   */\n  dup3\n    /* \"#utility.yul\":1311:1408   */\n  tag_28\n  jump\t// in\ntag_69:\n    /* \"#utility.yul\":1429:1468   */\n  tag_70\n    /* \"#utility.yul\":1459:1467   */\n  dup7\n    /* \"#utility.yul\":1448:1457   */\n  dup4\n    /* \"#utility.yul\":1429:1468   */\n  tag_28\n  jump\t// in\ntag_70:\n    /* \"#utility.yul\":1417:1468   */\n  swap6\n  pop\n    /* \"#utility.yul\":1501:1505   */\n  dup1\n    /* \"#utility.yul\":1497:1506   */\n  not\n    /* \"#utility.yul\":1490:1495   */\n  dup5\n    /* \"#utility.yul\":1486:1507   */\n  and\n    /* \"#utility.yul\":1477:1507   */\n  swap4\n  pop\n    /* \"#utility.yul\":1550:1554   */\n  dup1\n    /* \"#utility.yul\":1540:1548   */\n  dup7\n    /* \"#utility.yul\":1536:1555   */\n  and\n    /* \"#utility.yul\":1529:1534   */\n  dup5\n    /* \"#utility.yul\":1526:1556   */\n  or\n    /* \"#utility.yul\":1516:1556   */\n  swap3\n  pop\n    /* \"#utility.yul\":1245:1562   */\n  pop\n  pop\n    /* \"#utility.yul\":1169:1562   */\n  swap4\n  swap3\n  pop\n  pop\n  pop\n  jump\t// out\n    /* \"#utility.yul\":1568:1645   */\ntag_30:\n    /* \"#utility.yul\":1605:1612   */\n  0x00\n    /* \"#utility.yul\":1634:1639   */\n  dup2\n    /* \"#utility.yul\":1623:1639   */\n  swap1\n  pop\n    /* \"#utility.yul\":1568:1645   */\n  swap2\n  swap1\n  pop\n  jump\t// out\n    /* \"#utility.yul\":1651:1711   */\ntag_31:\n    /* \"#utility.yul\":1679:1682   */\n  0x00\n    /* \"#utility.yul\":1700:1705   */\n  dup2\n    /* \"#utility.yul\":1693:1705   */\n  swap1\n  pop\n    /* \"#utility.yul\":1651:1711   */\n  swap2\n  swap1\n  pop\n  jump\t// out\n    /* \"#utility.yul\":1717:1859   */\ntag_32:\n    /* \"#utility.yul\":1767:1776   */\n  0x00\n    /* \"#utility.yul\":1800:1853   */\n  tag_74\n    /* \"#utility.yul\":1818:1852   */\n  tag_75\n    /* \"#utility.yul\":1827:1851   */\n  tag_76\n    /* \"#utility.yul\":1845:1850   */\n  dup5\n    /* \"#utility.yul\":1827:1851   */\n  tag_30\n  jump\t// in\ntag_76:\n    /* \"#utility.yul\":1818:1852   */\n  tag_31\n  jump\t// in\ntag_75:\n    /* \"#utility.yul\":1800:1853   */\n  tag_30\n  jump\t// in\ntag_74:\n    /* \"#utility.yul\":1787:1853   */\n  swap1\n  pop\n    /* \"#utility.yul\":1717:1859   */\n  swap2\n  swap1\n  pop\n  jump\t// out\n    /* \"#utility.yul\":1865:1940   */\ntag_33:\n    /* \"#utility.yul\":1908:1911   */\n  0x00\n    /* \"#utility.yul\":1929:1934   */\n  dup2\n    /* \"#utility.yul\":1922:1934   */\n  swap1\n  pop\n    /* \"#utility.yul\":1865:1940   */\n  swap2\n  swap1\n  pop\n  jump\t// out\n    /* \"#utility.yul\":1946:2215   */\ntag_34:\n    /* \"#utility.yul\":2056:2095   */\n  tag_79\n    /* \"#utility.yul\":2087:2094   */\n  dup4\n    /* \"#utility.yul\":2056:2095   */\n  tag_32\n  jump\t// in\ntag_79:\n    /* \"#utility.yul\":2117:2208   */\n  tag_80\n    /* \"#utility.yul\":2166:2207   */\n  tag_81\n    /* \"#utility.yul\":2190:2206   */\n  dup3\n    /* \"#utility.yul\":2166:2207   */\n  tag_33\n  jump\t// in\ntag_81:\n    /* \"#utility.yul\":2158:2164   */\n  dup5\n    /* \"#utility.yul\":2151:2155   */\n  dup5\n    /* \"#utility.yul\":2145:2156   */\n  sload\n    /* \"#utility.yul\":2117:2208   */\n  tag_29\n  jump\t// in\ntag_80:\n    /* \"#utility.yul\":2111:2115   */\n  dup3\n    /* \"#utility.yul\":2104:2209   */\n  sstore\n    /* \"#utility.yul\":2022:2215   */\n  pop\n    /* \"#utility.yul\":1946:2215   */\n  pop\n  pop\n  pop\n  jump\t// out\n    /* \"#utility.yul\":2221:2294   */\ntag_35:\n    /* \"#utility.yul\":2266:2269   */\n  0x00\n    /* \"#utility.yul\":2221:2294   */\n  swap1\n  jump\t// out\n    /* \"#utility.yul\":2300:2489   */\ntag_36:\n    /* \"#utility.yul\":2377:2409   */\n  tag_84\n  tag_35\n  jump\t// in\ntag_84:\n    /* \"#utility.yul\":2418:2483   */\n  tag_85\n    /* \"#utility.yul\":2476:2482   */\n  dup2\n    /* \"#utility.yul\":2468:2474   */\n  dup5\n    /* \"#utility.yul\":2462:2466   */\n  dup5\n    /* \"#utility.yul\":2418:2483   */\n  tag_34\n  jump\t// in\ntag_85:\n    /* \"#utility.yul\":2353:2489   */\n  pop\n    /* \"#utility.yul\":2300:2489   */\n  pop\n  pop\n  jump\t// out\n    /* \"#utility.yul\":2495:2681   */\ntag_37:\n    /* \"#utility.yul\":2555:2675   */\ntag_87:\n    /* \"#utility.yul\":2572:2575   */\n  dup2\n    /* \"#utility.yul\":2565:2570   */\n  dup2\n    /* \"#utility.yul\":2562:2576   */\n  lt\n    /* \"#utility.yul\":2555:2675   */\n  iszero\n  tag_89\n  jumpi\n    /* \"#utility.yul\":2626:2665   */\n  tag_90\n    /* \"#utility.yul\":2663:2664   */\n  0x00\n    /* \"#utility.yul\":2656:2661   */\n  dup3\n    /* \"#utility.yul\":2626:2665   */\n  tag_36\n  jump\t// in\ntag_90:\n    /* \"#utility.yul\":2599:2600   */\n  0x01\n    /* \"#utility.yul\":2592:2597   */\n  dup2\n    /* \"#utility.yul\":2588:2601   */\n  add\n    /* \"#utility.yul\":2579:2601   */\n  swap1\n  pop\n    /* \"#utility.yul\":2555:2675   */\n  jump(tag_87)\ntag_89:\n    /* \"#utility.yul\":2495:2681   */\n  pop\n  pop\n  jump\t// out\n    /* \"#utility.yul\":2687:3230   */\ntag_38:\n    /* \"#utility.yul\":2788:2790   */\n  0x1f\n    /* \"#utility.yul\":2783:2786   */\n  dup3\n    /* \"#utility.yul\":2780:2791   */\n  gt\n    /* \"#utility.yul\":2777:3223   */\n  iszero\n  tag_92\n  jumpi\n    /* \"#utility.yul\":2822:2860   */\n  tag_93\n    /* \"#utility.yul\":2854:2859   */\n  dup2\n    /* \"#utility.yul\":2822:2860   */\n  tag_26\n  jump\t// in\ntag_93:\n    /* \"#utility.yul\":2906:2935   */\n  tag_94\n    /* \"#utility.yul\":2924:2934   */\n  dup5\n    /* \"#utility.yul\":2906:2935   */\n  tag_27\n  jump\t// in\ntag_94:\n    /* \"#utility.yul\":2896:2904   */\n  dup2\n    /* \"#utility.yul\":2892:2936   */\n  add\n    /* \"#utility.yul\":3089:3091   */\n  0x20\n    /* \"#utility.yul\":3077:3087   */\n  dup6\n    /* \"#utility.yul\":3074:3092   */\n  lt\n    /* \"#utility.yul\":3071:3120   */\n  iszero\n  tag_95\n  jumpi\n    /* \"#utility.yul\":3110:3118   */\n  dup2\n    /* \"#utility.yul\":3095:3118   */\n  swap1\n  pop\n    /* \"#utility.yul\":3071:3120   */\ntag_95:\n    /* \"#utility.yul\":3133:3213   */\n  tag_96\n    /* \"#utility.yul\":3189:3211   */\n  tag_97\n    /* \"#utility.yul\":3207:3210   */\n  dup6\n    /* \"#utility.yul\":3189:3211   */\n  tag_27\n  jump\t// in\ntag_97:\n    /* \"#utility.yul\":3179:3187   */\n  dup4\n    /* \"#utility.yul\":3175:3212   */\n  add\n    /* \"#utility.yul\":3162:3173   */\n  dup3\n    /* \"#utility.yul\":3133:3213   */\n  tag_37\n  jump\t// in\ntag_96:\n    /* \"#utility.yul\":2792:3223   */\n  pop\n  pop\n    /* \"#utility.yul\":2777:3223   */\ntag_92:\n    /* \"#utility.yul\":2687:3230   */\n  pop\n  pop\n  pop\n  jump\t// out\n    /* \"#utility.yul\":3236:3353   */\ntag_39:\n    /* \"#utility.yul\":3290:3298   */\n  0x00\n    /* \"#utility.yul\":3340:3345   */\n  dup3\n    /* \"#utility.yul\":3334:3338   */\n  dup3\n    /* \"#utility.yul\":3330:3346   */\n  shr\n    /* \"#utility.yul\":3309:3346   */\n  swap1\n  pop\n    /* \"#utility.yul\":3236:3353   */\n  swap3\n  swap2\n  pop\n  pop\n  jump\t// out\n    /* \"#utility.yul\":3359:3528   */\ntag_40:\n    /* \"#utility.yul\":3403:3409   */\n  0x00\n    /* \"#utility.yul\":3436:3487   */\n  tag_100\n    /* \"#utility.yul\":3484:3485   */\n  0x00\n    /* \"#utility.yul\":3480:3486   */\n  not\n    /* \"#utility.yul\":3472:3477   */\n  dup5\n    /* \"#utility.yul\":3469:3470   */\n  0x08\n    /* \"#utility.yul\":3465:3478   */\n  mul\n    /* \"#utility.yul\":3436:3487   */\n  tag_39\n  jump\t// in\ntag_100:\n    /* \"#utility.yul\":3432:3488   */\n  not\n    /* \"#utility.yul\":3517:3521   */\n  dup1\n    /* \"#utility.yul\":3511:3515   */\n  dup4\n    /* \"#utility.yul\":3507:3522   */\n  and\n    /* \"#utility.yul\":3497:3522   */\n  swap2\n  pop\n    /* \"#utility.yul\":3410:3528   */\n  pop\n    /* \"#utility.yul\":3359:3528   */\n  swap3\n  swap2\n  pop\n  pop\n  jump\t// out\n    /* \"#utility.yul\":3533:3828   */\ntag_41:\n    /* \"#utility.yul\":3609:3613   */\n  0x00\n    /* \"#utility.yul\":3755:3784   */\n  tag_102\n    /* \"#utility.yul\":3780:3783   */\n  dup4\n    /* \"#utility.yul\":3774:3778   */\n  dup4\n    /* \"#utility.yul\":3755:3784   */\n  tag_40\n  jump\t// in\ntag_102:\n    /* \"#utility.yul\":3747:3784   */\n  swap2\n  pop\n    /* \"#utility.yul\":3817:3820   */\n  dup3\n    /* \"#utility.yul\":3814:3815   */\n  0x02\n    /* \"#utility.yul\":3810:3821   */\n  mul\n    /* \"#utility.yul\":3804:3808   */\n  dup3\n    /* \"#utility.yul\":3801:3822   */\n  or\n    /* \"#utility.yul\":3793:3822   */\n  swap1\n  pop\n    /* \"#utility.yul\":3533:3828   */\n  swap3\n  swap2\n  pop\n  pop\n  jump\t// out\n    /* \"#utility.yul\":3833:5228   */\ntag_2:\n    /* \"#utility.yul\":3950:3987   */\n  tag_104\n    /* \"#utility.yul\":3983:3986   */\n  dup3\n    /* \"#utility.yul\":3950:3987   */\n  tag_22\n  jump\t// in\ntag_104:\n    /* \"#utility.yul\":4052:4070   */\n  0xffffffffffffffff\n    /* \"#utility.yul\":4044:4050   */\n  dup2\n    /* \"#utility.yul\":4041:4071   */\n  gt\n    /* \"#utility.yul\":4038:4094   */\n  iszero\n  tag_105\n  jumpi\n    /* \"#utility.yul\":4074:4092   */\n  tag_106\n  tag_23\n  jump\t// in\ntag_106:\n    /* \"#utility.yul\":4038:4094   */\ntag_105:\n    /* \"#utility.yul\":4118:4156   */\n  tag_107\n    /* \"#utility.yul\":4150:4154   */\n  dup3\n    /* \"#utility.yul\":4144:4155   */\n  sload\n    /* \"#utility.yul\":4118:4156   */\n  tag_25\n  jump\t// in\ntag_107:\n    /* \"#utility.yul\":4203:4270   */\n  tag_108\n    /* \"#utility.yul\":4263:4269   */\n  dup3\n    /* \"#utility.yul\":4255:4261   */\n  dup3\n    /* \"#utility.yul\":4249:4253   */\n  dup6\n    /* \"#utility.yul\":4203:4270   */\n  tag_38\n  jump\t// in\ntag_108:\n    /* \"#utility.yul\":4297:4298   */\n  0x00\n    /* \"#utility.yul\":4321:4325   */\n  0x20\n    /* \"#utility.yul\":4308:4325   */\n  swap1\n  pop\n    /* \"#utility.yul\":4353:4355   */\n  0x1f\n    /* \"#utility.yul\":4345:4351   */\n  dup4\n    /* \"#utility.yul\":4342:4356   */\n  gt\n    /* \"#utility.yul\":4370:4371   */\n  0x01\n    /* \"#utility.yul\":4365:4983   */\n  dup2\n  eq\n  tag_110\n  jumpi\n    /* \"#utility.yul\":5027:5028   */\n  0x00\n    /* \"#utility.yul\":5044:5050   */\n  dup5\n    /* \"#utility.yul\":5041:5118   */\n  iszero\n  tag_111\n  jumpi\n    /* \"#utility.yul\":5093:5102   */\n  dup3\n    /* \"#utility.yul\":5088:5091   */\n  dup8\n    /* \"#utility.yul\":5084:5103   */\n  add\n    /* \"#utility.yul\":5078:5104   */\n  mload\n    /* \"#utility.yul\":5069:5104   */\n  swap1\n  pop\n    /* \"#utility.yul\":5041:5118   */\ntag_111:\n    /* \"#utility.yul\":5144:5211   */\n  tag_112\n    /* \"#utility.yul\":5204:5210   */\n  dup6\n    /* \"#utility.yul\":5197:5202   */\n  dup3\n    /* \"#utility.yul\":5144:5211   */\n  tag_41\n  jump\t// in\ntag_112:\n    /* \"#utility.yul\":5138:5142   */\n  dup7\n    /* \"#utility.yul\":5131:5212   */\n  sstore\n    /* \"#utility.yul\":5000:5222   */\n  pop\n    /* \"#utility.yul\":4335:5222   */\n  jump(tag_109)\n    /* \"#utility.yul\":4365:4983   */\ntag_110:\n    /* \"#utility.yul\":4417:4421   */\n  0x1f\n    /* \"#utility.yul\":4413:4422   */\n  not\n    /* \"#utility.yul\":4405:4411   */\n  dup5\n    /* \"#utility.yul\":4401:4423   */\n  and\n    /* \"#utility.yul\":4451:4488   */\n  tag_113\n    /* \"#utility.yul\":4483:4487   */\n  dup7\n    /* \"#utility.yul\":4451:4488   */\n  tag_26\n  jump\t// in\ntag_113:\n    /* \"#utility.yul\":4510:4511   */\n  0x00\n    /* \"#utility.yul\":4524:4732   */\ntag_114:\n    /* \"#utility.yul\":4538:4545   */\n  dup3\n    /* \"#utility.yul\":4535:4536   */\n  dup2\n    /* \"#utility.yul\":4532:4546   */\n  lt\n    /* \"#utility.yul\":4524:4732   */\n  iszero\n  tag_116\n  jumpi\n    /* \"#utility.yul\":4617:4626   */\n  dup5\n    /* \"#utility.yul\":4612:4615   */\n  dup10\n    /* \"#utility.yul\":4608:4627   */\n  add\n    /* \"#utility.yul\":4602:4628   */\n  mload\n    /* \"#utility.yul\":4594:4600   */\n  dup3\n    /* \"#utility.yul\":4587:4629   */\n  sstore\n    /* \"#utility.yul\":4668:4669   */\n  0x01\n    /* \"#utility.yul\":4660:4666   */\n  dup3\n    /* \"#utility.yul\":4656:4670   */\n  add\n    /* \"#utility.yul\":4646:4670   */\n  swap2\n  pop\n    /* \"#utility.yul\":4715:4717   */\n  0x20\n    /* \"#utility.yul\":4704:4713   */\n  dup6\n    /* \"#utility.yul\":4700:4718   */\n  add\n    /* \"#utility.yul\":4687:4718   */\n  swap5\n  pop\n    /* \"#utility.yul\":4561:4565   */\n  0x20\n    /* \"#utility.yul\":4558:4559   */\n  dup2\n    /* \"#utility.yul\":4554:4566   */\n  add\n    /* \"#utility.yul\":4549:4566   */\n  swap1\n  pop\n    /* \"#utility.yul\":4524:4732   */\n  jump(tag_114)\ntag_116:\n    /* \"#utility.yul\":4760:4766   */\n  dup7\n    /* \"#utility.yul\":4751:4758   */\n  dup4\n    /* \"#utility.yul\":4748:4767   */\n  lt\n    /* \"#utility.yul\":4745:4924   */\n  iszero\n  tag_117\n  jumpi\n    /* \"#utility.yul\":4818:4827   */\n  dup5\n    /* \"#utility.yul\":4813:4816   */\n  dup10\n    /* \"#utility.yul\":4809:4828   */\n  add\n    /* \"#utility.yul\":4803:4829   */\n  mload\n    /* \"#utility.yul\":4861:4909   */\n  tag_118\n    /* \"#utility.yul\":4903:4907   */\n  0x1f\n    /* \"#utility.yul\":4895:4901   */\n  dup10\n    /* \"#utility.yul\":4891:4908   */\n  and\n    /* \"#utility.yul\":4880:4889   */\n  dup3\n    /* \"#utility.yul\":4861:4909   */\n  tag_40\n  jump\t// in\ntag_118:\n    /* \"#utility.yul\":4853:4859   */\n  dup4\n    /* \"#utility.yul\":4846:4910   */\n  sstore\n    /* \"#utility.yul\":4768:4924   */\n  pop\n    /* \"#utility.yul\":4745:4924   */\ntag_117:\n    /* \"#utility.yul\":4970:4971   */\n  0x01\n    /* \"#utility.yul\":4966:4967   */\n  0x02\n    /* \"#utility.yul\":4958:4964   */\n  dup9\n    /* \"#utility.yul\":4954:4968   */\n  mul\n    /* \"#utility.yul\":4950:4972   */\n  add\n    /* \"#utility.yul\":4944:4948   */\n  dup9\n    /* \"#utility.yul\":4937:4973   */\n  sstore\n    /* \"#utility.yul\":4372:4983   */\n  pop\n  pop\n  pop\n    /* \"#utility.yul\":4335:5222   */\ntag_109:\n  pop\n    /* \"#utility.yul\":3925:5228   */\n  pop\n  pop\n  pop\n    /* \"#utility.yul\":3833:5228   */\n  pop\n  pop\n  jump\t// out\n    /* \"#utility.yul\":5234:5309   */\ntag_42:\n    /* \"#utility.yul\":5267:5273   */\n  0x00\n    /* \"#utility.yul\":5300:5302   */\n  0x40\n    /* \"#utility.yul\":5294:5303   */\n  mload\n    /* \"#utility.yul\":5284:5303   */\n  swap1\n  pop\n    /* \"#utility.yul\":5234:5309   */\n  swap1\n  jump\t// out\n    /* \"#utility.yul\":5315:5432   */\ntag_43:\n    /* \"#utility.yul\":5424:5425   */\n  0x00\n    /* \"#utility.yul\":5421:5422   */\n  dup1\n    /* \"#utility.yul\":5414:5426   */\n  revert\n    /* \"#utility.yul\":5438:5555   */\ntag_44:\n    /* \"#utility.yul\":5547:5548   */\n  0x00\n    /* \"#utility.yul\":5544:5545   */\n  dup1\n    /* \"#utility.yul\":5537:5549   */\n  revert\n    /* \"#utility.yul\":5561:5678   */\ntag_45:\n    /* \"#utility.yul\":5670:5671   */\n  0x00\n    /* \"#utility.yul\":5667:5668   */\n  dup1\n    /* \"#utility.yul\":5660:5672   */\n  revert\n    /* \"#utility.yul\":5684:5801   */\ntag_46:\n    /* \"#utility.yul\":5793:5794   */\n  0x00\n    /* \"#utility.yul\":5790:5791   */\n  dup1\n    /* \"#utility.yul\":5783:5795   */\n  revert\n    /* \"#utility.yul\":5807:5909   */\ntag_47:\n    /* \"#utility.yul\":5848:5854   */\n  0x00\n    /* \"#utility.yul\":5899:5901   */\n  0x1f\n    /* \"#utility.yul\":5895:5902   */\n  not\n    /* \"#utility.yul\":5890:5892   */\n  0x1f\n    /* \"#utility.yul\":5883:5888   */\n  dup4\n    /* \"#utility.yul\":5879:5893   */\n  add\n    /* \"#utility.yul\":5875:5903   */\n  and\n    /* \"#utility.yul\":5865:5903   */\n  swap1\n  pop\n    /* \"#utility.yul\":5807:5909   */\n  swap2\n  swap1\n  pop\n  jump\t// out\n    /* \"#utility.yul\":5915:6196   */\ntag_48:\n    /* \"#utility.yul\":5998:6025   */\n  tag_126\n    /* \"#utility.yul\":6020:6024   */\n  dup3\n    /* \"#utility.yul\":5998:6025   */\n  tag_47\n  jump\t// in\ntag_126:\n    /* \"#utility.yul\":5990:5996   */\n  dup2\n    /* \"#utility.yul\":5986:6026   */\n  add\n    /* \"#utility.yul\":6128:6134   */\n  dup2\n    /* \"#utility.yul\":6116:6126   */\n  dup2\n    /* \"#utility.yul\":6113:6135   */\n  lt\n    /* \"#utility.yul\":6092:6110   */\n  0xffffffffffffffff\n    /* \"#utility.yul\":6080:6090   */\n  dup3\n    /* \"#utility.yul\":6077:6111   */\n  gt\n    /* \"#utility.yul\":6074:6136   */\n  or\n    /* \"#utility.yul\":6071:6159   */\n  iszero\n  tag_127\n  jumpi\n    /* \"#utility.yul\":6139:6157   */\n  tag_128\n  tag_23\n  jump\t// in\ntag_128:\n    /* \"#utility.yul\":6071:6159   */\ntag_127:\n    /* \"#utility.yul\":6179:6189   */\n  dup1\n    /* \"#utility.yul\":6175:6177   */\n  0x40\n    /* \"#utility.yul\":6168:6190   */\n  mstore\n    /* \"#utility.yul\":5958:6196   */\n  pop\n    /* \"#utility.yul\":5915:6196   */\n  pop\n  pop\n  jump\t// out\n    /* \"#utility.yul\":6202:6331   */\ntag_49:\n    /* \"#utility.yul\":6236:6242   */\n  0x00\n    /* \"#utility.yul\":6263:6283   */\n  tag_130\n  tag_42\n  jump\t// in\ntag_130:\n    /* \"#utility.yul\":6253:6283   */\n  swap1\n  pop\n    /* \"#utility.yul\":6292:6325   */\n  tag_131\n    /* \"#utility.yul\":6320:6324   */\n  dup3\n    /* \"#utility.yul\":6312:6318   */\n  dup3\n    /* \"#utility.yul\":6292:6325   */\n  tag_48\n  jump\t// in\ntag_131:\n    /* \"#utility.yul\":6202:6331   */\n  swap2\n  swap1\n  pop\n  jump\t// out\n    /* \"#utility.yul\":6337:6645   */\ntag_50:\n    /* \"#utility.yul\":6399:6403   */\n  0x00\n    /* \"#utility.yul\":6489:6507   */\n  0xffffffffffffffff\n    /* \"#utility.yul\":6481:6487   */\n  dup3\n    /* \"#utility.yul\":6478:6508   */\n  gt\n    /* \"#utility.yul\":6475:6531   */\n  iszero\n  tag_133\n  jumpi\n    /* \"#utility.yul\":6511:6529   */\n  tag_134\n  tag_23\n  jump\t// in\ntag_134:\n    /* \"#utility.yul\":6475:6531   */\ntag_133:\n    /* \"#utility.yul\":6549:6578   */\n  tag_135\n    /* \"#utility.yul\":6571:6577   */\n  dup3\n    /* \"#utility.yul\":6549:6578   */\n  tag_47\n  jump\t// in\ntag_135:\n    /* \"#utility.yul\":6541:6578   */\n  swap1\n  pop\n    /* \"#utility.yul\":6633:6637   */\n  0x20\n    /* \"#utility.yul\":6627:6631   */\n  dup2\n    /* \"#utility.yul\":6623:6638   */\n  add\n    /* \"#utility.yul\":6615:6638   */\n  swap1\n  pop\n    /* \"#utility.yul\":6337:6645   */\n  swap2\n  swap1\n  pop\n  jump\t// out\n    /* \"#utility.yul\":6651:6897   */\ntag_51:\n    /* \"#utility.yul\":6732:6733   */\n  0x00\n    /* \"#utility.yul\":6742:6855   */\ntag_137:\n    /* \"#utility.yul\":6756:6762   */\n  dup4\n    /* \"#utility.yul\":6753:6754   */\n  dup2\n    /* \"#utility.yul\":6750:6763   */\n  lt\n    /* \"#utility.yul\":6742:6855   */\n  iszero\n  tag_139\n  jumpi\n    /* \"#utility.yul\":6841:6842   */\n  dup1\n    /* \"#utility.yul\":6836:6839   */\n  dup3\n    /* \"#utility.yul\":6832:6843   */\n  add\n    /* \"#utility.yul\":6826:6844   */\n  mload\n    /* \"#utility.yul\":6822:6823   */\n  dup2\n    /* \"#utility.yul\":6817:6820   */\n  dup5\n    /* \"#utility.yul\":6813:6824   */\n  add\n    /* \"#utility.yul\":6806:6845   */\n  mstore\n    /* \"#utility.yul\":6778:6780   */\n  0x20\n    /* \"#utility.yul\":6775:6776   */\n  dup2\n    /* \"#utility.yul\":6771:6781   */\n  add\n    /* \"#utility.yul\":6766:6781   */\n  swap1\n  pop\n    /* \"#utility.yul\":6742:6855   */\n  jump(tag_137)\ntag_139:\n    /* \"#utility.yul\":6889:6890   */\n  0x00\n    /* \"#utility.yul\":6880:6886   */\n  dup5\n    /* \"#utility.yul\":6875:6878   */\n  dup5\n    /* \"#utility.yul\":6871:6887   */\n  add\n    /* \"#utility.yul\":6864:6891   */\n  mstore\n    /* \"#utility.yul\":6713:6897   */\n  pop\n    /* \"#utility.yul\":6651:6897   */\n  pop\n  pop\n  pop\n  jump\t// out\n    /* \"#utility.yul\":6903:7337   */\ntag_52:\n    /* \"#utility.yul\":6992:6997   */\n  0x00\n    /* \"#utility.yul\":7017:7083   */\n  tag_141\n    /* \"#utility.yul\":7033:7082   */\n  tag_142\n    /* \"#utility.yul\":7075:7081   */\n  dup5\n    /* \"#utility.yul\":7033:7082   */\n  tag_50\n  jump\t// in\ntag_142:\n    /* \"#utility.yul\":7017:7083   */\n  tag_49\n  jump\t// in\ntag_141:\n    /* \"#utility.yul\":7008:7083   */\n  swap1\n  pop\n    /* \"#utility.yul\":7106:7112   */\n  dup3\n    /* \"#utility.yul\":7099:7104   */\n  dup2\n    /* \"#utility.yul\":7092:7113   */\n  mstore\n    /* \"#utility.yul\":7144:7148   */\n  0x20\n    /* \"#utility.yul\":7137:7142   */\n  dup2\n    /* \"#utility.yul\":7133:7149   */\n  add\n    /* \"#utility.yul\":7182:7185   */\n  dup5\n    /* \"#utility.yul\":7173:7179   */\n  dup5\n    /* \"#utility.yul\":7168:7171   */\n  dup5\n    /* \"#utility.yul\":7164:7180   */\n  add\n    /* \"#utility.yul\":7161:7186   */\n  gt\n    /* \"#utility.yul\":7158:7270   */\n  iszero\n  tag_143\n  jumpi\n    /* \"#utility.yul\":7189:7268   */\n  tag_144\n  tag_46\n  jump\t// in\ntag_144:\n    /* \"#utility.yul\":7158:7270   */\ntag_143:\n    /* \"#utility.yul\":7279:7331   */\n  tag_145\n    /* \"#utility.yul\":7324:7330   */\n  dup5\n    /* \"#utility.yul\":7319:7322   */\n  dup3\n    /* \"#utility.yul\":7314:7317   */\n  dup6\n    /* \"#utility.yul\":7279:7331   */\n  tag_51\n  jump\t// in\ntag_145:\n    /* \"#utility.yul\":6998:7337   */\n  pop\n    /* \"#utility.yul\":6903:7337   */\n  swap4\n  swap3\n  pop\n  pop\n  pop\n  jump\t// out\n    /* \"#utility.yul\":7357:7712   */\ntag_53:\n    /* \"#utility.yul\":7424:7429   */\n  0x00\n    /* \"#utility.yul\":7473:7476   */\n  dup3\n    /* \"#utility.yul\":7466:7470   */\n  0x1f\n    /* \"#utility.yul\":7458:7464   */\n  dup4\n    /* \"#utility.yul\":7454:7471   */\n  add\n    /* \"#utility.yul\":7450:7477   */\n  slt\n    /* \"#utility.yul\":7440:7562   */\n  tag_147\n  jumpi\n    /* \"#utility.yul\":7481:7560   */\n  tag_148\n  tag_45\n  jump\t// in\ntag_148:\n    /* \"#utility.yul\":7440:7562   */\ntag_147:\n    /* \"#utility.yul\":7591:7597   */\n  dup2\n    /* \"#utility.yul\":7585:7598   */\n  mload\n    /* \"#utility.yul\":7616:7706   */\n  tag_149\n    /* \"#utility.yul\":7702:7705   */\n  dup5\n    /* \"#utility.yul\":7694:7700   */\n  dup3\n    /* \"#utility.yul\":7687:7691   */\n  0x20\n    /* \"#utility.yul\":7679:7685   */\n  dup7\n    /* \"#utility.yul\":7675:7692   */\n  add\n    /* \"#utility.yul\":7616:7706   */\n  tag_52\n  jump\t// in\ntag_149:\n    /* \"#utility.yul\":7607:7706   */\n  swap2\n  pop\n    /* \"#utility.yul\":7430:7712   */\n  pop\n    /* \"#utility.yul\":7357:7712   */\n  swap3\n  swap2\n  pop\n  pop\n  jump\t// out\n    /* \"#utility.yul\":7718:8571   */\ntag_5:\n    /* \"#utility.yul\":7817:7823   */\n  0x00\n    /* \"#utility.yul\":7825:7831   */\n  dup1\n    /* \"#utility.yul\":7874:7876   */\n  0x40\n    /* \"#utility.yul\":7862:7871   */\n  dup4\n    /* \"#utility.yul\":7853:7860   */\n  dup6\n    /* \"#utility.yul\":7849:7872   */\n  sub\n    /* \"#utility.yul\":7845:7877   */\n  slt\n    /* \"#utility.yul\":7842:7961   */\n  iszero\n  tag_151\n  jumpi\n    /* \"#utility.yul\":7880:7959   */\n  tag_152\n  tag_43\n  jump\t// in\ntag_152:\n    /* \"#utility.yul\":7842:7961   */\ntag_151:\n    /* \"#utility.yul\":8021:8022   */\n  0x00\n    /* \"#utility.yul\":8010:8019   */\n  dup4\n    /* \"#utility.yul\":8006:8023   */\n  add\n    /* \"#utility.yul\":8000:8024   */\n  mload\n    /* \"#utility.yul\":8051:8069   */\n  0xffffffffffffffff\n    /* \"#utility.yul\":8043:8049   */\n  dup2\n    /* \"#utility.yul\":8040:8070   */\n  gt\n    /* \"#utility.yul\":8037:8154   */\n  iszero\n  tag_153\n  jumpi\n    /* \"#utility.yul\":8073:8152   */\n  tag_154\n  tag_44\n  jump\t// in\ntag_154:\n    /* \"#utility.yul\":8037:8154   */\ntag_153:\n    /* \"#utility.yul\":8178:8252   */\n  tag_155\n    /* \"#utility.yul\":8244:8251   */\n  dup6\n    /* \"#utility.yul\":8235:8241   */\n  dup3\n    /* \"#utility.yul\":8224:8233   */\n  dup7\n    /* \"#utility.yul\":8220:8242   */\n  add\n    /* \"#utility.yul\":8178:8252   */\n  tag_53\n  jump\t// in\ntag_155:\n    /* \"#utility.yul\":8168:8252   */\n  swap3\n  pop\n    /* \"#utility.yul\":7971:8262   */\n  pop\n    /* \"#utility.yul\":8322:8324   */\n  0x20\n    /* \"#utility.yul\":8311:8320   */\n  dup4\n    /* \"#utility.yul\":8307:8325   */\n  add\n    /* \"#utility.yul\":8301:8326   */\n  mload\n    /* \"#utility.yul\":8353:8371   */\n  0xffffffffffffffff\n    /* \"#utility.yul\":8345:8351   */\n  dup2\n    /* \"#utility.yul\":8342:8372   */\n  gt\n    /* \"#utility.yul\":8339:8456   */\n  iszero\n  tag_156\n  jumpi\n    /* \"#utility.yul\":8375:8454   */\n  tag_157\n  tag_44\n  jump\t// in\ntag_157:\n    /* \"#utility.yul\":8339:8456   */\ntag_156:\n    /* \"#utility.yul\":8480:8554   */\n  tag_158\n    /* \"#utility.yul\":8546:8553   */\n  dup6\n    /* \"#utility.yul\":8537:8543   */\n  dup3\n    /* \"#utility.yul\":8526:8535   */\n  dup7\n    /* \"#utility.yul\":8522:8544   */\n  add\n    /* \"#utility.yul\":8480:8554   */\n  tag_53\n  jump\t// in\ntag_158:\n    /* \"#utility.yul\":8470:8554   */\n  swap2\n  pop\n    /* \"#utility.yul\":8272:8564   */\n  pop\n    /* \"#utility.yul\":7718:8571   */\n  swap3\n  pop\n  swap3\n  swap1\n  pop\n  jump\t// out\n    /* \"#utility.yul\":8577:8746   */\ntag_54:\n    /* \"#utility.yul\":8661:8672   */\n  0x00\n    /* \"#utility.yul\":8695:8701   */\n  dup3\n    /* \"#utility.yul\":8690:8693   */\n  dup3\n    /* \"#utility.yul\":8683:8702   */\n  mstore\n    /* \"#utility.yul\":8735:8739   */\n  0x20\n    /* \"#utility.yul\":8730:8733   */\n  dup3\n    /* \"#utility.yul\":8726:8740   */\n  add\n    /* \"#utility.yul\":8711:8740   */\n  swap1\n  pop\n    /* \"#utility.yul\":8577:8746   */\n  swap3\n  swap2\n  pop\n  pop\n  jump\t// out\n    /* \"#utility.yul\":8752:8930   */\ntag_55:\n    /* \"#utility.yul\":8892:8922   */\n  0x4552433136353a20696e76616c696420696e7465726661636520696400000000\n    /* \"#utility.yul\":8888:8889   */\n  0x00\n    /* \"#utility.yul\":8880:8886   */\n  dup3\n    /* \"#utility.yul\":8876:8890   */\n  add\n    /* \"#utility.yul\":8869:8923   */\n  mstore\n    /* \"#utility.yul\":8752:8930   */\n  pop\n  jump\t// out\n    /* \"#utility.yul\":8936:9302   */\ntag_56:\n    /* \"#utility.yul\":9078:9081   */\n  0x00\n    /* \"#utility.yul\":9099:9166   */\n  tag_162\n    /* \"#utility.yul\":9163:9165   */\n  0x1c\n    /* \"#utility.yul\":9158:9161   */\n  dup4\n    /* \"#utility.yul\":9099:9166   */\n  tag_54\n  jump\t// in\ntag_162:\n    /* \"#utility.yul\":9092:9166   */\n  swap2\n  pop\n    /* \"#utility.yul\":9175:9268   */\n  tag_163\n    /* \"#utility.yul\":9264:9267   */\n  dup3\n    /* \"#utility.yul\":9175:9268   */\n  tag_55\n  jump\t// in\ntag_163:\n    /* \"#utility.yul\":9293:9295   */\n  0x20\n    /* \"#utility.yul\":9288:9291   */\n  dup3\n    /* \"#utility.yul\":9284:9296   */\n  add\n    /* \"#utility.yul\":9277:9296   */\n  swap1\n  pop\n    /* \"#utility.yul\":8936:9302   */\n  swap2\n  swap1\n  pop\n  jump\t// out\n    /* \"#utility.yul\":9308:9727   */\ntag_21:\n    /* \"#utility.yul\":9474:9478   */\n  0x00\n    /* \"#utility.yul\":9512:9514   */\n  0x20\n    /* \"#utility.yul\":9501:9510   */\n  dup3\n    /* \"#utility.yul\":9497:9515   */\n  add\n    /* \"#utility.yul\":9489:9515   */\n  swap1\n  pop\n    /* \"#utility.yul\":9561:9570   */\n  dup2\n    /* \"#utility.yul\":9555:9559   */\n  dup2\n    /* \"#utility.yul\":9551:9571   */\n  sub\n    /* \"#utility.yul\":9547:9548   */\n  0x00\n    /* \"#utility.yul\":9536:9545   */\n  dup4\n    /* \"#utility.yul\":9532:9549   */\n  add\n    /* \"#utility.yul\":9525:9572   */\n  mstore\n    /* \"#utility.yul\":9589:9720   */\n  tag_165\n    /* \"#utility.yul\":9715:9719   */\n  dup2\n    /* \"#utility.yul\":9589:9720   */\n  tag_56\n  jump\t// in\ntag_165:\n    /* \"#utility.yul\":9581:9720   */\n  swap1\n  pop\n    /* \"#utility.yul\":9308:9727   */\n  swap2\n  swap1\n  pop\n  jump\t// out\n    /* \"contracts/ERC721.sol\":497:12964  contract ERC721 is Context, ERC165, IERC721, IERC721Metadata, IERC721Enumerable {... */\ntag_17:\n  dataSize(sub_0)\n  dup1\n  dataOffset(sub_0)\n  0x00\n  codecopy\n  0x00\n  return\nstop\n\nsub_0: assembly {\n        /* \"contracts/ERC721.sol\":497:12964  contract ERC721 is Context, ERC165, IERC721, IERC721Metadata, IERC721Enumerable {... */\n      mstore(0x40, 0x80)\n      callvalue\n      dup1\n      iszero\n      tag_1\n      jumpi\n      0x00\n      dup1\n      revert\n    tag_1:\n      pop\n      jumpi(tag_2, lt(calldatasize, 0x04))\n      shr(0xe0, calldataload(0x00))\n      dup1\n      0x6352211e\n      gt\n      tag_22\n      jumpi\n      dup1\n      0xb88d4fde\n      gt\n      tag_23\n      jumpi\n      dup1\n      0xb88d4fde\n      eq\n      tag_17\n      jumpi\n      dup1\n      0xc57dc235\n      eq\n      tag_18\n      jumpi\n      dup1\n      0xc87b56dd\n      eq\n      tag_19\n      jumpi\n      dup1\n      0xd48e638a\n      eq\n      tag_20\n      jumpi\n      dup1\n      0xe985e9c5\n      eq\n      tag_21\n      jumpi\n      jump(tag_2)\n    tag_23:\n      dup1\n      0x6352211e\n      eq\n      tag_12\n      jumpi\n      dup1\n      0x6c0360eb\n      eq\n      tag_13\n      jumpi\n      dup1\n      0x70a08231\n      eq\n      tag_14\n      jumpi\n      dup1\n      0x95d89b41\n      eq\n      tag_15\n      jumpi\n      dup1\n      0xa22cb465\n      eq\n      tag_16\n      jumpi\n      jump(tag_2)\n    tag_22:\n      dup1\n      0x18160ddd\n      gt\n      tag_24\n      jumpi\n      dup1\n      0x18160ddd\n      eq\n      tag_7\n      jumpi\n      dup1\n      0x23b872dd\n      eq\n      tag_8\n      jumpi\n      dup1\n      0x2f745c59\n      eq\n      tag_9\n      jumpi\n      dup1\n      0x42842e0e\n      eq\n      tag_10\n      jumpi\n      dup1\n      0x4f6ccce7\n      eq\n      tag_11\n      jumpi\n      jump(tag_2)\n    tag_24:\n      dup1\n      0x01ffc9a7\n      eq\n      tag_3\n      jumpi\n      dup1\n      0x06fdde03\n      eq\n      tag_4\n      jumpi\n      dup1\n      0x081812fc\n      eq\n      tag_5\n      jumpi\n      dup1\n      0x095ea7b3\n      eq\n      tag_6\n      jumpi\n    tag_2:\n      0x00\n      dup1\n      revert\n        /* \"contracts/External/ERC165.sol\":393:545  function supportsInterface(bytes4 interfaceId) external view virtual override returns (bool) {... */\n    tag_3:\n      tag_25\n      0x04\n      dup1\n      calldatasize\n      sub\n      dup2\n      add\n      swap1\n      tag_26\n      swap2\n      swap1\n      tag_27\n      jump\t// in\n    tag_26:\n      tag_28\n      jump\t// in\n    tag_25:\n      mload(0x40)\n      tag_29\n      swap2\n      swap1\n      tag_30\n      jump\t// in\n    tag_29:\n      mload(0x40)\n      dup1\n      swap2\n      sub\n      swap1\n      return\n        /* \"contracts/ERC721.sol\":3093:3195  function name() external view virtual override returns (string memory) {... */\n    tag_4:\n      tag_31\n      tag_32\n      jump\t// in\n    tag_31:\n      mload(0x40)\n      tag_33\n      swap2\n      swap1\n      tag_34\n      jump\t// in\n    tag_33:\n      mload(0x40)\n      dup1\n      swap2\n      sub\n      swap1\n      return\n        /* \"contracts/ERC721.sol\":5138:5359  function getApproved(uint256 tokenId) public view virtual override returns (address) {... */\n    tag_5:\n      tag_35\n      0x04\n      dup1\n      calldatasize\n      sub\n      dup2\n      add\n      swap1\n      tag_36\n      swap2\n      swap1\n      tag_37\n      jump\t// in\n    tag_36:\n      tag_38\n      jump\t// in\n    tag_35:\n      mload(0x40)\n      tag_39\n      swap2\n      swap1\n      tag_40\n      jump\t// in\n    tag_39:\n      mload(0x40)\n      dup1\n      swap2\n      sub\n      swap1\n      return\n        /* \"contracts/ERC721.sol\":4724:5130  function approve(address to, uint256 tokenId) external virtual override {... */\n    tag_6:\n      tag_41\n      0x04\n      dup1\n      calldatasize\n      sub\n      dup2\n      add\n      swap1\n      tag_42\n      swap2\n      swap1\n      tag_43\n      jump\t// in\n    tag_42:\n      tag_44\n      jump\t// in\n    tag_41:\n      stop\n        /* \"contracts/ERC721.sol\":4415:4534  function totalSupply() external view virtual override returns (uint256) {... */\n    tag_7:\n      tag_45\n      tag_46\n      jump\t// in\n    tag_45:\n      mload(0x40)\n      tag_47\n      swap2\n      swap1\n      tag_48\n      jump\t// in\n    tag_47:\n      mload(0x40)\n      dup1\n      swap2\n      sub\n      swap1\n      return\n        /* \"contracts/ERC721.sol\":6477:6731  function transferFrom(address from, address to, uint256 tokenId) external virtual override {... */\n    tag_8:\n      tag_49\n      0x04\n      dup1\n      calldatasize\n      sub\n      dup2\n      add\n      swap1\n      tag_50\n      swap2\n      swap1\n      tag_51\n      jump\t// in\n    tag_50:\n      tag_52\n      jump\t// in\n    tag_49:\n      stop\n        /* \"contracts/ERC721.sol\":4243:4407  function tokenOfOwnerByIndex(address owner, uint256 index) external view virtual override returns (uint256) {... */\n    tag_9:\n      tag_53\n      0x04\n      dup1\n      calldatasize\n      sub\n      dup2\n      add\n      swap1\n      tag_54\n      swap2\n      swap1\n      tag_43\n      jump\t// in\n    tag_54:\n      tag_55\n      jump\t// in\n    tag_53:\n      mload(0x40)\n      tag_56\n      swap2\n      swap1\n      tag_48\n      jump\t// in\n    tag_56:\n      mload(0x40)\n      dup1\n      swap2\n      sub\n      swap1\n      return\n        /* \"contracts/ERC721.sol\":6739:6892  function safeTransferFrom(address from, address to, uint256 tokenId) external virtual override {... */\n    tag_10:\n      tag_57\n      0x04\n      dup1\n      calldatasize\n      sub\n      dup2\n      add\n      swap1\n      tag_58\n      swap2\n      swap1\n      tag_51\n      jump\t// in\n    tag_58:\n      tag_59\n      jump\t// in\n    tag_57:\n      stop\n        /* \"contracts/ERC721.sol\":4542:4716  function tokenByIndex(uint256 index) external view virtual override returns (uint256) {... */\n    tag_11:\n      tag_60\n      0x04\n      dup1\n      calldatasize\n      sub\n      dup2\n      add\n      swap1\n      tag_61\n      swap2\n      swap1\n      tag_37\n      jump\t// in\n    tag_61:\n      tag_62\n      jump\t// in\n    tag_60:\n      mload(0x40)\n      tag_63\n      swap2\n      swap1\n      tag_48\n      jump\t// in\n    tag_63:\n      mload(0x40)\n      dup1\n      swap2\n      sub\n      swap1\n      return\n        /* \"contracts/ERC721.sol\":2908:3085  function ownerOf(uint256 tokenId) public view virtual override returns (address) {... */\n    tag_12:\n      tag_64\n      0x04\n      dup1\n      calldatasize\n      sub\n      dup2\n      add\n      swap1\n      tag_65\n      swap2\n      swap1\n      tag_37\n      jump\t// in\n    tag_65:\n      tag_66\n      jump\t// in\n    tag_64:\n      mload(0x40)\n      tag_67\n      swap2\n      swap1\n      tag_40\n      jump\t// in\n    tag_67:\n      mload(0x40)\n      dup1\n      swap2\n      sub\n      swap1\n      return\n        /* \"contracts/ERC721.sol\":3879:3976  function baseURI() public view virtual returns (string memory) {... */\n    tag_13:\n      tag_68\n      tag_69\n      jump\t// in\n    tag_68:\n      mload(0x40)\n      tag_70\n      swap2\n      swap1\n      tag_34\n      jump\t// in\n    tag_70:\n      mload(0x40)\n      dup1\n      swap2\n      sub\n      swap1\n      return\n        /* \"contracts/ERC721.sol\":2360:2583  function balanceOf(address owner) external view virtual override returns (uint256) {... */\n    tag_14:\n      tag_71\n      0x04\n      dup1\n      calldatasize\n      sub\n      dup2\n      add\n      swap1\n      tag_72\n      swap2\n      swap1\n      tag_73\n      jump\t// in\n    tag_72:\n      tag_74\n      jump\t// in\n    tag_71:\n      mload(0x40)\n      tag_75\n      swap2\n      swap1\n      tag_48\n      jump\t// in\n    tag_75:\n      mload(0x40)\n      dup1\n      swap2\n      sub\n      swap1\n      return\n        /* \"contracts/ERC721.sol\":3203:3309  function symbol() external view virtual override returns (string memory) {... */\n    tag_15:\n      tag_76\n      tag_77\n      jump\t// in\n    tag_76:\n      mload(0x40)\n      tag_78\n      swap2\n      swap1\n      tag_34\n      jump\t// in\n    tag_78:\n      mload(0x40)\n      dup1\n      swap2\n      sub\n      swap1\n      return\n        /* \"contracts/ERC721.sol\":5721:6018  function setApprovalForAll(address operator, bool approved) external virtual override {... */\n    tag_16:\n      tag_79\n      0x04\n      dup1\n      calldatasize\n      sub\n      dup2\n      add\n      swap1\n      tag_80\n      swap2\n      swap1\n      tag_81\n      jump\t// in\n    tag_80:\n      tag_82\n      jump\t// in\n    tag_79:\n      stop\n        /* \"contracts/ERC721.sol\":8012:8299  function safeTransferFrom(address from, address to, uint256 tokenId, bytes memory _data) public virtual override {... */\n    tag_17:\n      tag_83\n      0x04\n      dup1\n      calldatasize\n      sub\n      dup2\n      add\n      swap1\n      tag_84\n      swap2\n      swap1\n      tag_85\n      jump\t// in\n    tag_84:\n      tag_86\n      jump\t// in\n    tag_83:\n      stop\n        /* \"contracts/ERC721.sol\":3984:4107  function royaltyFee(uint256 tokenId) external view override returns(uint256) {... */\n    tag_18:\n      tag_87\n      0x04\n      dup1\n      calldatasize\n      sub\n      dup2\n      add\n      swap1\n      tag_88\n      swap2\n      swap1\n      tag_37\n      jump\t// in\n    tag_88:\n      tag_89\n      jump\t// in\n    tag_87:\n      mload(0x40)\n      tag_90\n      swap2\n      swap1\n      tag_48\n      jump\t// in\n    tag_90:\n      mload(0x40)\n      dup1\n      swap2\n      sub\n      swap1\n      return\n        /* \"contracts/ERC721.sol\":3317:3871  function tokenURI(uint256 tokenId) external view virtual override returns (string memory) {... */\n    tag_19:\n      tag_91\n      0x04\n      dup1\n      calldatasize\n      sub\n      dup2\n      add\n      swap1\n      tag_92\n      swap2\n      swap1\n      tag_37\n      jump\t// in\n    tag_92:\n      tag_93\n      jump\t// in\n    tag_91:\n      mload(0x40)\n      tag_94\n      swap2\n      swap1\n      tag_34\n      jump\t// in\n    tag_94:\n      mload(0x40)\n      dup1\n      swap2\n      sub\n      swap1\n      return\n        /* \"contracts/ERC721.sol\":4115:4235  function getCreator(uint256 tokenId) external view override returns(address) {... */\n    tag_20:\n      tag_95\n      0x04\n      dup1\n      calldatasize\n      sub\n      dup2\n      add\n      swap1\n      tag_96\n      swap2\n      swap1\n      tag_37\n      jump\t// in\n    tag_96:\n      tag_97\n      jump\t// in\n    tag_95:\n      mload(0x40)\n      tag_98\n      swap2\n      swap1\n      tag_40\n      jump\t// in\n    tag_98:\n      mload(0x40)\n      dup1\n      swap2\n      sub\n      swap1\n      return\n        /* \"contracts/ERC721.sol\":6305:6469  function isApprovedForAll(address owner, address operator) public view virtual override returns (bool) {... */\n    tag_21:\n      tag_99\n      0x04\n      dup1\n      calldatasize\n      sub\n      dup2\n      add\n      swap1\n      tag_100\n      swap2\n      swap1\n      tag_101\n      jump\t// in\n    tag_100:\n      tag_102\n      jump\t// in\n    tag_99:\n      mload(0x40)\n      tag_103\n      swap2\n      swap1\n      tag_30\n      jump\t// in\n    tag_103:\n      mload(0x40)\n      dup1\n      swap2\n      sub\n      swap1\n      return\n        /* \"contracts/External/ERC165.sol\":393:545  function supportsInterface(bytes4 interfaceId) external view virtual override returns (bool) {... */\n    tag_28:\n        /* \"contracts/External/ERC165.sol\":480:484  bool */\n      0x00\n        /* \"contracts/External/ERC165.sol\":504:524  _supportedInterfaces */\n      dup1\n        /* \"contracts/External/ERC165.sol\":504:537  _supportedInterfaces[interfaceId] */\n      0x00\n        /* \"contracts/External/ERC165.sol\":525:536  interfaceId */\n      dup4\n        /* \"contracts/External/ERC165.sol\":504:537  _supportedInterfaces[interfaceId] */\n      not(0xffffffffffffffffffffffffffffffffffffffffffffffffffffffff)\n      and\n      not(0xffffffffffffffffffffffffffffffffffffffffffffffffffffffff)\n      and\n      dup2\n      mstore\n      0x20\n      add\n      swap1\n      dup2\n      mstore\n      0x20\n      add\n      0x00\n      keccak256\n      0x00\n      swap1\n      sload\n      swap1\n      0x0100\n      exp\n      swap1\n      div\n      0xff\n      and\n        /* \"contracts/External/ERC165.sol\":497:537  return _supportedInterfaces[interfaceId] */\n      swap1\n      pop\n        /* \"contracts/External/ERC165.sol\":393:545  function supportsInterface(bytes4 interfaceId) external view virtual override returns (bool) {... */\n      swap2\n      swap1\n      pop\n      jump\t// out\n        /* \"contracts/ERC721.sol\":3093:3195  function name() external view virtual override returns (string memory) {... */\n    tag_32:\n        /* \"contracts/ERC721.sol\":3149:3162  string memory */\n      0x60\n        /* \"contracts/ERC721.sol\":3182:3187  _name */\n      0x06\n        /* \"contracts/ERC721.sol\":3175:3187  return _name */\n      dup1\n      sload\n      tag_106\n      swap1\n      tag_107\n      jump\t// in\n    tag_106:\n      dup1\n      0x1f\n      add\n      0x20\n      dup1\n      swap2\n      div\n      mul\n      0x20\n      add\n      mload(0x40)\n      swap1\n      dup2\n      add\n      0x40\n      mstore\n      dup1\n      swap3\n      swap2\n      swap1\n      dup2\n      dup2\n      mstore\n      0x20\n      add\n      dup3\n      dup1\n      sload\n      tag_108\n      swap1\n      tag_107\n      jump\t// in\n    tag_108:\n      dup1\n      iszero\n      tag_109\n      jumpi\n      dup1\n      0x1f\n      lt\n      tag_110\n      jumpi\n      0x0100\n      dup1\n      dup4\n      sload\n      div\n      mul\n      dup4\n      mstore\n      swap2\n      0x20\n      add\n      swap2\n      jump(tag_109)\n    tag_110:\n      dup3\n      add\n      swap2\n      swap1\n      0x00\n      mstore\n      keccak256(0x00, 0x20)\n      swap1\n    tag_111:\n      dup2\n      sload\n      dup2\n      mstore\n      swap1\n      0x01\n      add\n      swap1\n      0x20\n      add\n      dup1\n      dup4\n      gt\n      tag_111\n      jumpi\n      dup3\n      swap1\n      sub\n      0x1f\n      and\n      dup3\n      add\n      swap2\n    tag_109:\n      pop\n      pop\n      pop\n      pop\n      pop\n      swap1\n      pop\n        /* \"contracts/ERC721.sol\":3093:3195  function name() external view virtual override returns (string memory) {... */\n      swap1\n      jump\t// out\n        /* \"contracts/ERC721.sol\":5138:5359  function getApproved(uint256 tokenId) public view virtual override returns (address) {... */\n    tag_38:\n        /* \"contracts/ERC721.sol\":5214:5221  address */\n      0x00\n        /* \"contracts/ERC721.sol\":5242:5258  _exists(tokenId) */\n      tag_113\n        /* \"contracts/ERC721.sol\":5250:5257  tokenId */\n      dup3\n        /* \"contracts/ERC721.sol\":5242:5249  _exists */\n      tag_114\n        /* \"contracts/ERC721.sol\":5242:5258  _exists(tokenId) */\n      jump\t// in\n    tag_113:\n        /* \"contracts/ERC721.sol\":5234:5307  require(_exists(tokenId), \"ERC721: approved query for nonexistent token\") */\n      tag_115\n      jumpi\n      mload(0x40)\n      0x08c379a000000000000000000000000000000000000000000000000000000000\n      dup2\n      mstore\n      0x04\n      add\n      tag_116\n      swap1\n      tag_117\n      jump\t// in\n    tag_116:\n      mload(0x40)\n      dup1\n      swap2\n      sub\n      swap1\n      revert\n    tag_115:\n        /* \"contracts/ERC721.sol\":5327:5342  _tokenApprovals */\n      0x04\n        /* \"contracts/ERC721.sol\":5327:5351  _tokenApprovals[tokenId] */\n      0x00\n        /* \"contracts/ERC721.sol\":5343:5350  tokenId */\n      dup4\n        /* \"contracts/ERC721.sol\":5327:5351  _tokenApprovals[tokenId] */\n      dup2\n      mstore\n      0x20\n      add\n      swap1\n      dup2\n      mstore\n      0x20\n      add\n      0x00\n      keccak256\n      0x00\n      swap1\n      sload\n      swap1\n      0x0100\n      exp\n      swap1\n      div\n      0xffffffffffffffffffffffffffffffffffffffff\n      and\n        /* \"contracts/ERC721.sol\":5320:5351  return _tokenApprovals[tokenId] */\n      swap1\n      pop\n        /* \"contracts/ERC721.sol\":5138:5359  function getApproved(uint256 tokenId) public view virtual override returns (address) {... */\n      swap2\n      swap1\n      pop\n      jump\t// out\n        /* \"contracts/ERC721.sol\":4724:5130  function approve(address to, uint256 tokenId) external virtual override {... */\n    tag_44:\n        /* \"contracts/ERC721.sol\":4807:4820  address owner */\n      0x00\n        /* \"contracts/ERC721.sol\":4823:4846  ERC721.ownerOf(tokenId) */\n      tag_119\n        /* \"contracts/ERC721.sol\":4838:4845  tokenId */\n      dup3\n        /* \"contracts/ERC721.sol\":4823:4837  ERC721.ownerOf */\n      tag_66\n        /* \"contracts/ERC721.sol\":4823:4846  ERC721.ownerOf(tokenId) */\n      jump\t// in\n    tag_119:\n        /* \"contracts/ERC721.sol\":4807:4846  address owner = ERC721.ownerOf(tokenId) */\n      swap1\n      pop\n        /* \"contracts/ERC721.sol\":4871:4876  owner */\n      dup1\n        /* \"contracts/ERC721.sol\":4865:4876  to != owner */\n      0xffffffffffffffffffffffffffffffffffffffff\n      and\n        /* \"contracts/ERC721.sol\":4865:4867  to */\n      dup4\n        /* \"contracts/ERC721.sol\":4865:4876  to != owner */\n      0xffffffffffffffffffffffffffffffffffffffff\n      and\n      sub\n        /* \"contracts/ERC721.sol\":4857:4914  require(to != owner, \"ERC721: approval to current owner\") */\n      tag_120\n      jumpi\n      mload(0x40)\n      0x08c379a000000000000000000000000000000000000000000000000000000000\n      dup2\n      mstore\n      0x04\n      add\n      tag_121\n      swap1\n      tag_122\n      jump\t// in\n    tag_121:\n      mload(0x40)\n      dup1\n      swap2\n      sub\n      swap1\n      revert\n    tag_120:\n        /* \"contracts/ERC721.sol\":4951:4956  owner */\n      dup1\n        /* \"contracts/ERC721.sol\":4935:4956  _msgSender() == owner */\n      0xffffffffffffffffffffffffffffffffffffffff\n      and\n        /* \"contracts/ERC721.sol\":4935:4947  _msgSender() */\n      tag_123\n        /* \"contracts/ERC721.sol\":4935:4945  _msgSender */\n      tag_124\n        /* \"contracts/ERC721.sol\":4935:4947  _msgSender() */\n      jump\t// in\n    tag_123:\n        /* \"contracts/ERC721.sol\":4935:4956  _msgSender() == owner */\n      0xffffffffffffffffffffffffffffffffffffffff\n      and\n      eq\n        /* \"contracts/ERC721.sol\":4935:5004  _msgSender() == owner || ERC721.isApprovedForAll(owner, _msgSender()) */\n      dup1\n      tag_125\n      jumpi\n      pop\n        /* \"contracts/ERC721.sol\":4960:5004  ERC721.isApprovedForAll(owner, _msgSender()) */\n      tag_126\n        /* \"contracts/ERC721.sol\":4984:4989  owner */\n      dup2\n        /* \"contracts/ERC721.sol\":4991:5003  _msgSender() */\n      tag_127\n        /* \"contracts/ERC721.sol\":4991:5001  _msgSender */\n      tag_124\n        /* \"contracts/ERC721.sol\":4991:5003  _msgSender() */\n      jump\t// in\n    tag_127:\n        /* \"contracts/ERC721.sol\":4960:4983  ERC721.isApprovedForAll */\n      tag_102\n        /* \"contracts/ERC721.sol\":4960:5004  ERC721.isApprovedForAll(owner, _msgSender()) */\n      jump\t// in\n    tag_126:\n        /* \"contracts/ERC721.sol\":4935:5004  _msgSender() == owner || ERC721.isApprovedForAll(owner, _msgSender()) */\n    tag_125:\n        /* \"contracts/ERC721.sol\":4927:5088  require(_msgSender() == owner || ERC721.isApprovedForAll(owner, _msgSender()),... */\n      tag_128\n      jumpi\n      mload(0x40)\n      0x08c379a000000000000000000000000000000000000000000000000000000000\n      dup2\n      mstore\n      0x04\n      add\n      tag_129\n      swap1\n      tag_130\n      jump\t// in\n    tag_129:\n      mload(0x40)\n      dup1\n      swap2\n      sub\n      swap1\n      revert\n    tag_128:\n        /* \"contracts/ERC721.sol\":5101:5122  _approve(to, tokenId) */\n      tag_131\n        /* \"contracts/ERC721.sol\":5110:5112  to */\n      dup4\n        /* \"contracts/ERC721.sol\":5114:5121  tokenId */\n      dup4\n        /* \"contracts/ERC721.sol\":5101:5109  _approve */\n      tag_132\n        /* \"contracts/ERC721.sol\":5101:5122  _approve(to, tokenId) */\n      jump\t// in\n    tag_131:\n        /* \"contracts/ERC721.sol\":4796:5130  {... */\n      pop\n        /* \"contracts/ERC721.sol\":4724:5130  function approve(address to, uint256 tokenId) external virtual override {... */\n      pop\n      pop\n      jump\t// out\n        /* \"contracts/ERC721.sol\":4415:4534  function totalSupply() external view virtual override returns (uint256) {... */\n    tag_46:\n        /* \"contracts/ERC721.sol\":4478:4485  uint256 */\n      0x00\n        /* \"contracts/ERC721.sol\":4505:4526  _tokenOwners.length() */\n      tag_134\n        /* \"contracts/ERC721.sol\":4505:4517  _tokenOwners */\n      0x02\n        /* \"contracts/ERC721.sol\":4505:4524  _tokenOwners.length */\n      tag_135\n        /* \"contracts/ERC721.sol\":4505:4526  _tokenOwners.length() */\n      jump\t// in\n    tag_134:\n        /* \"contracts/ERC721.sol\":4498:4526  return _tokenOwners.length() */\n      swap1\n      pop\n        /* \"contracts/ERC721.sol\":4415:4534  function totalSupply() external view virtual override returns (uint256) {... */\n      swap1\n      jump\t// out\n        /* \"contracts/ERC721.sol\":6477:6731  function transferFrom(address from, address to, uint256 tokenId) external virtual override {... */\n    tag_52:\n        /* \"contracts/ERC721.sol\":6587:6628  _isApprovedOrOwner(_msgSender(), tokenId) */\n      tag_137\n        /* \"contracts/ERC721.sol\":6606:6618  _msgSender() */\n      tag_138\n        /* \"contracts/ERC721.sol\":6606:6616  _msgSender */\n      tag_124\n        /* \"contracts/ERC721.sol\":6606:6618  _msgSender() */\n      jump\t// in\n    tag_138:\n        /* \"contracts/ERC721.sol\":6620:6627  tokenId */\n      dup3\n        /* \"contracts/ERC721.sol\":6587:6605  _isApprovedOrOwner */\n      tag_139\n        /* \"contracts/ERC721.sol\":6587:6628  _isApprovedOrOwner(_msgSender(), tokenId) */\n      jump\t// in\n    tag_137:\n        /* \"contracts/ERC721.sol\":6579:6682  require(_isApprovedOrOwner(_msgSender(), tokenId), \"ERC721: transfer caller is not owner nor approved\") */\n      tag_140\n      jumpi\n      mload(0x40)\n      0x08c379a000000000000000000000000000000000000000000000000000000000\n      dup2\n      mstore\n      0x04\n      add\n      tag_141\n      swap1\n      tag_142\n      jump\t// in\n    tag_141:\n      mload(0x40)\n      dup1\n      swap2\n      sub\n      swap1\n      revert\n    tag_140:\n        /* \"contracts/ERC721.sol\":6695:6723  _transfer(from, to, tokenId) */\n      tag_143\n        /* \"contracts/ERC721.sol\":6705:6709  from */\n      dup4\n        /* \"contracts/ERC721.sol\":6711:6713  to */\n      dup4\n        /* \"contracts/ERC721.sol\":6715:6722  tokenId */\n      dup4\n        /* \"contracts/ERC721.sol\":6695:6704  _transfer */\n      tag_144\n        /* \"contracts/ERC721.sol\":6695:6723  _transfer(from, to, tokenId) */\n      jump\t// in\n    tag_143:\n        /* \"contracts/ERC721.sol\":6477:6731  function transferFrom(address from, address to, uint256 tokenId) external virtual override {... */\n      pop\n      pop\n      pop\n      jump\t// out\n        /* \"contracts/ERC721.sol\":4243:4407  function tokenOfOwnerByIndex(address owner, uint256 index) external view virtual override returns (uint256) {... */\n    tag_55:\n        /* \"contracts/ERC721.sol\":4342:4349  uint256 */\n      0x00\n        /* \"contracts/ERC721.sol\":4369:4399  _holderTokens[owner].at(index) */\n      tag_146\n        /* \"contracts/ERC721.sol\":4393:4398  index */\n      dup3\n        /* \"contracts/ERC721.sol\":4369:4382  _holderTokens */\n      0x01\n        /* \"contracts/ERC721.sol\":4369:4389  _holderTokens[owner] */\n      0x00\n        /* \"contracts/ERC721.sol\":4383:4388  owner */\n      dup7\n        /* \"contracts/ERC721.sol\":4369:4389  _holderTokens[owner] */\n      0xffffffffffffffffffffffffffffffffffffffff\n      and\n      0xffffffffffffffffffffffffffffffffffffffff\n      and\n      dup2\n      mstore\n      0x20\n      add\n      swap1\n      dup2\n      mstore\n      0x20\n      add\n      0x00\n      keccak256\n        /* \"contracts/ERC721.sol\":4369:4392  _holderTokens[owner].at */\n      tag_147\n      swap1\n        /* \"contracts/ERC721.sol\":4369:4399  _holderTokens[owner].at(index) */\n      swap2\n      swap1\n      0xffffffff\n      and\n      jump\t// in\n    tag_146:\n        /* \"contracts/ERC721.sol\":4362:4399  return _holderTokens[owner].at(index) */\n      swap1\n      pop\n        /* \"contracts/ERC721.sol\":4243:4407  function tokenOfOwnerByIndex(address owner, uint256 index) external view virtual override returns (uint256) {... */\n      swap3\n      swap2\n      pop\n      pop\n      jump\t// out\n        /* \"contracts/ERC721.sol\":6739:6892  function safeTransferFrom(address from, address to, uint256 tokenId) external virtual override {... */\n    tag_59:\n        /* \"contracts/ERC721.sol\":6845:6884  safeTransferFrom(from, to, tokenId, \"\") */\n      tag_149\n        /* \"contracts/ERC721.sol\":6862:6866  from */\n      dup4\n        /* \"contracts/ERC721.sol\":6868:6870  to */\n      dup4\n        /* \"contracts/ERC721.sol\":6872:6879  tokenId */\n      dup4\n        /* \"contracts/ERC721.sol\":6845:6884  safeTransferFrom(from, to, tokenId, \"\") */\n      mload(0x40)\n      dup1\n      0x20\n      add\n      0x40\n      mstore\n      dup1\n      0x00\n      dup2\n      mstore\n      pop\n        /* \"contracts/ERC721.sol\":6845:6861  safeTransferFrom */\n      tag_86\n        /* \"contracts/ERC721.sol\":6845:6884  safeTransferFrom(from, to, tokenId, \"\") */\n      jump\t// in\n    tag_149:\n        /* \"contracts/ERC721.sol\":6739:6892  function safeTransferFrom(address from, address to, uint256 tokenId) external virtual override {... */\n      pop\n      pop\n      pop\n      jump\t// out\n        /* \"contracts/ERC721.sol\":4542:4716  function tokenByIndex(uint256 index) external view virtual override returns (uint256) {... */\n    tag_62:\n        /* \"contracts/ERC721.sol\":4619:4626  uint256 */\n      0x00\n        /* \"contracts/ERC721.sol\":4640:4655  uint256 tokenId */\n      dup1\n        /* \"contracts/ERC721.sol\":4661:4683  _tokenOwners.at(index) */\n      tag_151\n        /* \"contracts/ERC721.sol\":4677:4682  index */\n      dup4\n        /* \"contracts/ERC721.sol\":4661:4673  _tokenOwners */\n      0x02\n        /* \"contracts/ERC721.sol\":4661:4676  _tokenOwners.at */\n      tag_152\n      swap1\n        /* \"contracts/ERC721.sol\":4661:4683  _tokenOwners.at(index) */\n      swap2\n      swap1\n      0xffffffff\n      and\n      jump\t// in\n    tag_151:\n        /* \"contracts/ERC721.sol\":4639:4683  (uint256 tokenId, ) = _tokenOwners.at(index) */\n      pop\n      swap1\n      pop\n        /* \"contracts/ERC721.sol\":4701:4708  tokenId */\n      dup1\n        /* \"contracts/ERC721.sol\":4694:4708  return tokenId */\n      swap2\n      pop\n      pop\n        /* \"contracts/ERC721.sol\":4542:4716  function tokenByIndex(uint256 index) external view virtual override returns (uint256) {... */\n      swap2\n      swap1\n      pop\n      jump\t// out\n        /* \"contracts/ERC721.sol\":2908:3085  function ownerOf(uint256 tokenId) public view virtual override returns (address) {... */\n    tag_66:\n        /* \"contracts/ERC721.sol\":2980:2987  address */\n      0x00\n        /* \"contracts/ERC721.sol\":3007:3077  _tokenOwners.get(tokenId, \"ERC721: owner query for nonexistent token\") */\n      tag_154\n        /* \"contracts/ERC721.sol\":3024:3031  tokenId */\n      dup3\n        /* \"contracts/ERC721.sol\":3007:3077  _tokenOwners.get(tokenId, \"ERC721: owner query for nonexistent token\") */\n      mload(0x40)\n      dup1\n      0x60\n      add\n      0x40\n      mstore\n      dup1\n      0x29\n      dup2\n      mstore\n      0x20\n      add\n      data_7481f3df2a424c0755a1ad2356614e9a5a358d461ea2eae1f89cb21cbad00397\n      0x29\n      swap2\n      codecopy\n        /* \"contracts/ERC721.sol\":3007:3019  _tokenOwners */\n      0x02\n        /* \"contracts/ERC721.sol\":3007:3023  _tokenOwners.get */\n      tag_155\n      swap1\n        /* \"contracts/ERC721.sol\":3007:3077  _tokenOwners.get(tokenId, \"ERC721: owner query for nonexistent token\") */\n      swap3\n      swap2\n      swap1\n      0xffffffff\n      and\n      jump\t// in\n    tag_154:\n        /* \"contracts/ERC721.sol\":3000:3077  return _tokenOwners.get(tokenId, \"ERC721: owner query for nonexistent token\") */\n      swap1\n      pop\n        /* \"contracts/ERC721.sol\":2908:3085  function ownerOf(uint256 tokenId) public view virtual override returns (address) {... */\n      swap2\n      swap1\n      pop\n      jump\t// out\n        /* \"contracts/ERC721.sol\":3879:3976  function baseURI() public view virtual returns (string memory) {... */\n    tag_69:\n        /* \"contracts/ERC721.sol\":3927:3940  string memory */\n      0x60\n        /* \"contracts/ERC721.sol\":3960:3968  _baseURI */\n      0x0b\n        /* \"contracts/ERC721.sol\":3953:3968  return _baseURI */\n      dup1\n      sload\n      tag_157\n      swap1\n      tag_107\n      jump\t// in\n    tag_157:\n      dup1\n      0x1f\n      add\n      0x20\n      dup1\n      swap2\n      div\n      mul\n      0x20\n      add\n      mload(0x40)\n      swap1\n      dup2\n      add\n      0x40\n      mstore\n      dup1\n      swap3\n      swap2\n      swap1\n      dup2\n      dup2\n      mstore\n      0x20\n      add\n      dup3\n      dup1\n      sload\n      tag_158\n      swap1\n      tag_107\n      jump\t// in\n    tag_158:\n      dup1\n      iszero\n      tag_159\n      jumpi\n      dup1\n      0x1f\n      lt\n      tag_160\n      jumpi\n      0x0100\n      dup1\n      dup4\n      sload\n      div\n      mul\n      dup4\n      mstore\n      swap2\n      0x20\n      add\n      swap2\n      jump(tag_159)\n    tag_160:\n      dup3\n      add\n      swap2\n      swap1\n      0x00\n      mstore\n      keccak256(0x00, 0x20)\n      swap1\n    tag_161:\n      dup2\n      sload\n      dup2\n      mstore\n      swap1\n      0x01\n      add\n      swap1\n      0x20\n      add\n      dup1\n      dup4\n      gt\n      tag_161\n      jumpi\n      dup3\n      swap1\n      sub\n      0x1f\n      and\n      dup3\n      add\n      swap2\n    tag_159:\n      pop\n      pop\n      pop\n      pop\n      pop\n      swap1\n      pop\n        /* \"contracts/ERC721.sol\":3879:3976  function baseURI() public view virtual returns (string memory) {... */\n      swap1\n      jump\t// out\n        /* \"contracts/ERC721.sol\":2360:2583  function balanceOf(address owner) external view virtual override returns (uint256) {... */\n    tag_74:\n        /* \"contracts/ERC721.sol\":2434:2441  uint256 */\n      0x00\n        /* \"contracts/ERC721.sol\":2479:2480  0 */\n      dup1\n        /* \"contracts/ERC721.sol\":2462:2481  owner != address(0) */\n      0xffffffffffffffffffffffffffffffffffffffff\n      and\n        /* \"contracts/ERC721.sol\":2462:2467  owner */\n      dup3\n        /* \"contracts/ERC721.sol\":2462:2481  owner != address(0) */\n      0xffffffffffffffffffffffffffffffffffffffff\n      and\n      sub\n        /* \"contracts/ERC721.sol\":2454:2528  require(owner != address(0), \"ERC721: balance query for the zero address\") */\n      tag_163\n      jumpi\n      mload(0x40)\n      0x08c379a000000000000000000000000000000000000000000000000000000000\n      dup2\n      mstore\n      0x04\n      add\n      tag_164\n      swap1\n      tag_165\n      jump\t// in\n    tag_164:\n      mload(0x40)\n      dup1\n      swap2\n      sub\n      swap1\n      revert\n    tag_163:\n        /* \"contracts/ERC721.sol\":2546:2575  _holderTokens[owner].length() */\n      tag_166\n        /* \"contracts/ERC721.sol\":2546:2559  _holderTokens */\n      0x01\n        /* \"contracts/ERC721.sol\":2546:2566  _holderTokens[owner] */\n      0x00\n        /* \"contracts/ERC721.sol\":2560:2565  owner */\n      dup5\n        /* \"contracts/ERC721.sol\":2546:2566  _holderTokens[owner] */\n      0xffffffffffffffffffffffffffffffffffffffff\n      and\n      0xffffffffffffffffffffffffffffffffffffffff\n      and\n      dup2\n      mstore\n      0x20\n      add\n      swap1\n      dup2\n      mstore\n      0x20\n      add\n      0x00\n      keccak256\n        /* \"contracts/ERC721.sol\":2546:2573  _holderTokens[owner].length */\n      tag_167\n        /* \"contracts/ERC721.sol\":2546:2575  _holderTokens[owner].length() */\n      jump\t// in\n    tag_166:\n        /* \"contracts/ERC721.sol\":2539:2575  return _holderTokens[owner].length() */\n      swap1\n      pop\n        /* \"contracts/ERC721.sol\":2360:2583  function balanceOf(address owner) external view virtual override returns (uint256) {... */\n      swap2\n      swap1\n      pop\n      jump\t// out\n        /* \"contracts/ERC721.sol\":3203:3309  function symbol() external view virtual override returns (string memory) {... */\n    tag_77:\n        /* \"contracts/ERC721.sol\":3261:3274  string memory */\n      0x60\n        /* \"contracts/ERC721.sol\":3294:3301  _symbol */\n      0x07\n        /* \"contracts/ERC721.sol\":3287:3301  return _symbol */\n      dup1\n      sload\n      tag_169\n      swap1\n      tag_107\n      jump\t// in\n    tag_169:\n      dup1\n      0x1f\n      add\n      0x20\n      dup1\n      swap2\n      div\n      mul\n      0x20\n      add\n      mload(0x40)\n      swap1\n      dup2\n      add\n      0x40\n      mstore\n      dup1\n      swap3\n      swap2\n      swap1\n      dup2\n      dup2\n      mstore\n      0x20\n      add\n      dup3\n      dup1\n      sload\n      tag_170\n      swap1\n      tag_107\n      jump\t// in\n    tag_170:\n      dup1\n      iszero\n      tag_171\n      jumpi\n      dup1\n      0x1f\n      lt\n      tag_172\n      jumpi\n      0x0100\n      dup1\n      dup4\n      sload\n      div\n      mul\n      dup4\n      mstore\n      swap2\n      0x20\n      add\n      swap2\n      jump(tag_171)\n    tag_172:\n      dup3\n      add\n      swap2\n      swap1\n      0x00\n      mstore\n      keccak256(0x00, 0x20)\n      swap1\n    tag_173:\n      dup2\n      sload\n      dup2\n      mstore\n      swap1\n      0x01\n      add\n      swap1\n      0x20\n      add\n      dup1\n      dup4\n      gt\n      tag_173\n      jumpi\n      dup3\n      swap1\n      sub\n      0x1f\n      and\n      dup3\n      add\n      swap2\n    tag_171:\n      pop\n      pop\n      pop\n      pop\n      pop\n      swap1\n      pop\n        /* \"contracts/ERC721.sol\":3203:3309  function symbol() external view virtual override returns (string memory) {... */\n      swap1\n      jump\t// out\n        /* \"contracts/ERC721.sol\":5721:6018  function setApprovalForAll(address operator, bool approved) external virtual override {... */\n    tag_82:\n        /* \"contracts/ERC721.sol\":5838:5850  _msgSender() */\n      tag_175\n        /* \"contracts/ERC721.sol\":5838:5848  _msgSender */\n      tag_124\n        /* \"contracts/ERC721.sol\":5838:5850  _msgSender() */\n      jump\t// in\n    tag_175:\n        /* \"contracts/ERC721.sol\":5826:5850  operator != _msgSender() */\n      0xffffffffffffffffffffffffffffffffffffffff\n      and\n        /* \"contracts/ERC721.sol\":5826:5834  operator */\n      dup3\n        /* \"contracts/ERC721.sol\":5826:5850  operator != _msgSender() */\n      0xffffffffffffffffffffffffffffffffffffffff\n      and\n      sub\n        /* \"contracts/ERC721.sol\":5818:5880  require(operator != _msgSender(), \"ERC721: approve to caller\") */\n      tag_176\n      jumpi\n      mload(0x40)\n      0x08c379a000000000000000000000000000000000000000000000000000000000\n      dup2\n      mstore\n      0x04\n      add\n      tag_177\n      swap1\n      tag_178\n      jump\t// in\n    tag_177:\n      mload(0x40)\n      dup1\n      swap2\n      sub\n      swap1\n      revert\n    tag_176:\n        /* \"contracts/ERC721.sol\":5938:5946  approved */\n      dup1\n        /* \"contracts/ERC721.sol\":5893:5911  _operatorApprovals */\n      0x05\n        /* \"contracts/ERC721.sol\":5893:5925  _operatorApprovals[_msgSender()] */\n      0x00\n        /* \"contracts/ERC721.sol\":5912:5924  _msgSender() */\n      tag_179\n        /* \"contracts/ERC721.sol\":5912:5922  _msgSender */\n      tag_124\n        /* \"contracts/ERC721.sol\":5912:5924  _msgSender() */\n      jump\t// in\n    tag_179:\n        /* \"contracts/ERC721.sol\":5893:5925  _operatorApprovals[_msgSender()] */\n      0xffffffffffffffffffffffffffffffffffffffff\n      and\n      0xffffffffffffffffffffffffffffffffffffffff\n      and\n      dup2\n      mstore\n      0x20\n      add\n      swap1\n      dup2\n      mstore\n      0x20\n      add\n      0x00\n      keccak256\n        /* \"contracts/ERC721.sol\":5893:5935  _operatorApprovals[_msgSender()][operator] */\n      0x00\n        /* \"contracts/ERC721.sol\":5926:5934  operator */\n      dup5\n        /* \"contracts/ERC721.sol\":5893:5935  _operatorApprovals[_msgSender()][operator] */\n      0xffffffffffffffffffffffffffffffffffffffff\n      and\n      0xffffffffffffffffffffffffffffffffffffffff\n      and\n      dup2\n      mstore\n      0x20\n      add\n      swap1\n      dup2\n      mstore\n      0x20\n      add\n      0x00\n      keccak256\n      0x00\n        /* \"contracts/ERC721.sol\":5893:5946  _operatorApprovals[_msgSender()][operator] = approved */\n      0x0100\n      exp\n      dup2\n      sload\n      dup2\n      0xff\n      mul\n      not\n      and\n      swap1\n      dup4\n      iszero\n      iszero\n      mul\n      or\n      swap1\n      sstore\n      pop\n        /* \"contracts/ERC721.sol\":5991:5999  operator */\n      dup2\n        /* \"contracts/ERC721.sol\":5962:6010  ApprovalForAll(_msgSender(), operator, approved) */\n      0xffffffffffffffffffffffffffffffffffffffff\n      and\n        /* \"contracts/ERC721.sol\":5977:5989  _msgSender() */\n      tag_180\n        /* \"contracts/ERC721.sol\":5977:5987  _msgSender */\n      tag_124\n        /* \"contracts/ERC721.sol\":5977:5989  _msgSender() */\n      jump\t// in\n    tag_180:\n        /* \"contracts/ERC721.sol\":5962:6010  ApprovalForAll(_msgSender(), operator, approved) */\n      0xffffffffffffffffffffffffffffffffffffffff\n      and\n      0x17307eab39ab6107e8899845ad3d59bd9653f200f220920489ca2b5937696c31\n        /* \"contracts/ERC721.sol\":6001:6009  approved */\n      dup4\n        /* \"contracts/ERC721.sol\":5962:6010  ApprovalForAll(_msgSender(), operator, approved) */\n      mload(0x40)\n      tag_181\n      swap2\n      swap1\n      tag_30\n      jump\t// in\n    tag_181:\n      mload(0x40)\n      dup1\n      swap2\n      sub\n      swap1\n      log3\n        /* \"contracts/ERC721.sol\":5721:6018  function setApprovalForAll(address operator, bool approved) external virtual override {... */\n      pop\n      pop\n      jump\t// out\n        /* \"contracts/ERC721.sol\":8012:8299  function safeTransferFrom(address from, address to, uint256 tokenId, bytes memory _data) public virtual override {... */\n    tag_86:\n        /* \"contracts/ERC721.sol\":8144:8185  _isApprovedOrOwner(_msgSender(), tokenId) */\n      tag_183\n        /* \"contracts/ERC721.sol\":8163:8175  _msgSender() */\n      tag_184\n        /* \"contracts/ERC721.sol\":8163:8173  _msgSender */\n      tag_124\n        /* \"contracts/ERC721.sol\":8163:8175  _msgSender() */\n      jump\t// in\n    tag_184:\n        /* \"contracts/ERC721.sol\":8177:8184  tokenId */\n      dup4\n        /* \"contracts/ERC721.sol\":8144:8162  _isApprovedOrOwner */\n      tag_139\n        /* \"contracts/ERC721.sol\":8144:8185  _isApprovedOrOwner(_msgSender(), tokenId) */\n      jump\t// in\n    tag_183:\n        /* \"contracts/ERC721.sol\":8136:8239  require(_isApprovedOrOwner(_msgSender(), tokenId), \"ERC721: transfer caller is not owner nor approved\") */\n      tag_185\n      jumpi\n      mload(0x40)\n      0x08c379a000000000000000000000000000000000000000000000000000000000\n      dup2\n      mstore\n      0x04\n      add\n      tag_186\n      swap1\n      tag_142\n      jump\t// in\n    tag_186:\n      mload(0x40)\n      dup1\n      swap2\n      sub\n      swap1\n      revert\n    tag_185:\n        /* \"contracts/ERC721.sol\":8250:8289  _safeTransfer(from, to, tokenId, _data) */\n      tag_187\n        /* \"contracts/ERC721.sol\":8264:8268  from */\n      dup5\n        /* \"contracts/ERC721.sol\":8270:8272  to */\n      dup5\n        /* \"contracts/ERC721.sol\":8274:8281  tokenId */\n      dup5\n        /* \"contracts/ERC721.sol\":8283:8288  _data */\n      dup5\n        /* \"contracts/ERC721.sol\":8250:8263  _safeTransfer */\n      tag_188\n        /* \"contracts/ERC721.sol\":8250:8289  _safeTransfer(from, to, tokenId, _data) */\n      jump\t// in\n    tag_187:\n        /* \"contracts/ERC721.sol\":8012:8299  function safeTransferFrom(address from, address to, uint256 tokenId, bytes memory _data) public virtual override {... */\n      pop\n      pop\n      pop\n      pop\n      jump\t// out\n        /* \"contracts/ERC721.sol\":3984:4107  function royaltyFee(uint256 tokenId) external view override returns(uint256) {... */\n    tag_89:\n        /* \"contracts/ERC721.sol\":4052:4059  uint256 */\n      0x00\n        /* \"contracts/ERC721.sol\":4079:4090  _royaltyFee */\n      0x09\n        /* \"contracts/ERC721.sol\":4079:4099  _royaltyFee[tokenId] */\n      0x00\n        /* \"contracts/ERC721.sol\":4091:4098  tokenId */\n      dup4\n        /* \"contracts/ERC721.sol\":4079:4099  _royaltyFee[tokenId] */\n      dup2\n      mstore\n      0x20\n      add\n      swap1\n      dup2\n      mstore\n      0x20\n      add\n      0x00\n      keccak256\n      sload\n        /* \"contracts/ERC721.sol\":4072:4099  return _royaltyFee[tokenId] */\n      swap1\n      pop\n        /* \"contracts/ERC721.sol\":3984:4107  function royaltyFee(uint256 tokenId) external view override returns(uint256) {... */\n      swap2\n      swap1\n      pop\n      jump\t// out\n        /* \"contracts/ERC721.sol\":3317:3871  function tokenURI(uint256 tokenId) external view virtual override returns (string memory) {... */\n    tag_93:\n        /* \"contracts/ERC721.sol\":3392:3405  string memory */\n      0x60\n        /* \"contracts/ERC721.sol\":3426:3442  _exists(tokenId) */\n      tag_191\n        /* \"contracts/ERC721.sol\":3434:3441  tokenId */\n      dup3\n        /* \"contracts/ERC721.sol\":3426:3433  _exists */\n      tag_114\n        /* \"contracts/ERC721.sol\":3426:3442  _exists(tokenId) */\n      jump\t// in\n    tag_191:\n        /* \"contracts/ERC721.sol\":3418:3494  require(_exists(tokenId), \"ERC721Metadata: URI query for nonexistent token\") */\n      tag_192\n      jumpi\n      mload(0x40)\n      0x08c379a000000000000000000000000000000000000000000000000000000000\n      dup2\n      mstore\n      0x04\n      add\n      tag_193\n      swap1\n      tag_194\n      jump\t// in\n    tag_193:\n      mload(0x40)\n      dup1\n      swap2\n      sub\n      swap1\n      revert\n    tag_192:\n        /* \"contracts/ERC721.sol\":3507:3530  string memory _tokenURI */\n      0x00\n        /* \"contracts/ERC721.sol\":3533:3543  _tokenURIs */\n      0x08\n        /* \"contracts/ERC721.sol\":3533:3552  _tokenURIs[tokenId] */\n      0x00\n        /* \"contracts/ERC721.sol\":3544:3551  tokenId */\n      dup5\n        /* \"contracts/ERC721.sol\":3533:3552  _tokenURIs[tokenId] */\n      dup2\n      mstore\n      0x20\n      add\n      swap1\n      dup2\n      mstore\n      0x20\n      add\n      0x00\n      keccak256\n        /* \"contracts/ERC721.sol\":3507:3552  string memory _tokenURI = _tokenURIs[tokenId] */\n      dup1\n      sload\n      tag_195\n      swap1\n      tag_107\n      jump\t// in\n    tag_195:\n      dup1\n      0x1f\n      add\n      0x20\n      dup1\n      swap2\n      div\n      mul\n      0x20\n      add\n      mload(0x40)\n      swap1\n      dup2\n      add\n      0x40\n      mstore\n      dup1\n      swap3\n      swap2\n      swap1\n      dup2\n      dup2\n      mstore\n      0x20\n      add\n      dup3\n      dup1\n      sload\n      tag_196\n      swap1\n      tag_107\n      jump\t// in\n    tag_196:\n      dup1\n      iszero\n      tag_197\n      jumpi\n      dup1\n      0x1f\n      lt\n      tag_198\n      jumpi\n      0x0100\n      dup1\n      dup4\n      sload\n      div\n      mul\n      dup4\n      mstore\n      swap2\n      0x20\n      add\n      swap2\n      jump(tag_197)\n    tag_198:\n      dup3\n      add\n      swap2\n      swap1\n      0x00\n      mstore\n      keccak256(0x00, 0x20)\n      swap1\n    tag_199:\n      dup2\n      sload\n      dup2\n      mstore\n      swap1\n      0x01\n      add\n      swap1\n      0x20\n      add\n      dup1\n      dup4\n      gt\n      tag_199\n      jumpi\n      dup3\n      swap1\n      sub\n      0x1f\n      and\n      dup3\n      add\n      swap2\n    tag_197:\n      pop\n      pop\n      pop\n      pop\n      pop\n      swap1\n      pop\n        /* \"contracts/ERC721.sol\":3563:3581  string memory base */\n      0x00\n        /* \"contracts/ERC721.sol\":3584:3593  baseURI() */\n      tag_200\n        /* \"contracts/ERC721.sol\":3584:3591  baseURI */\n      tag_69\n        /* \"contracts/ERC721.sol\":3584:3593  baseURI() */\n      jump\t// in\n    tag_200:\n        /* \"contracts/ERC721.sol\":3563:3593  string memory base = baseURI() */\n      swap1\n      pop\n        /* \"contracts/ERC721.sol\":3632:3633  0 */\n      0x00\n        /* \"contracts/ERC721.sol\":3616:3620  base */\n      dup2\n        /* \"contracts/ERC721.sol\":3610:3628  bytes(base).length */\n      mload\n        /* \"contracts/ERC721.sol\":3610:3633  bytes(base).length == 0 */\n      sub\n        /* \"contracts/ERC721.sol\":3606:3678  if (bytes(base).length == 0) {... */\n      tag_201\n      jumpi\n        /* \"contracts/ERC721.sol\":3657:3666  _tokenURI */\n      dup2\n        /* \"contracts/ERC721.sol\":3650:3666  return _tokenURI */\n      swap3\n      pop\n      pop\n      pop\n      jump(tag_190)\n        /* \"contracts/ERC721.sol\":3606:3678  if (bytes(base).length == 0) {... */\n    tag_201:\n        /* \"contracts/ERC721.sol\":3718:3719  0 */\n      0x00\n        /* \"contracts/ERC721.sol\":3698:3707  _tokenURI */\n      dup3\n        /* \"contracts/ERC721.sol\":3692:3715  bytes(_tokenURI).length */\n      mload\n        /* \"contracts/ERC721.sol\":3692:3719  bytes(_tokenURI).length > 0 */\n      gt\n        /* \"contracts/ERC721.sol\":3688:3796  if (bytes(_tokenURI).length > 0) {... */\n      iszero\n      tag_202\n      jumpi\n        /* \"contracts/ERC721.sol\":3767:3771  base */\n      dup1\n        /* \"contracts/ERC721.sol\":3773:3782  _tokenURI */\n      dup3\n        /* \"contracts/ERC721.sol\":3750:3783  abi.encodePacked(base, _tokenURI) */\n      add(0x20, mload(0x40))\n      tag_203\n      swap3\n      swap2\n      swap1\n      tag_204\n      jump\t// in\n    tag_203:\n      mload(0x40)\n      0x20\n      dup2\n      dup4\n      sub\n      sub\n      dup2\n      mstore\n      swap1\n      0x40\n      mstore\n        /* \"contracts/ERC721.sol\":3736:3784  return string(abi.encodePacked(base, _tokenURI)) */\n      swap3\n      pop\n      pop\n      pop\n      jump(tag_190)\n        /* \"contracts/ERC721.sol\":3688:3796  if (bytes(_tokenURI).length > 0) {... */\n    tag_202:\n        /* \"contracts/ERC721.sol\":3837:3841  base */\n      dup1\n        /* \"contracts/ERC721.sol\":3843:3861  tokenId.toString() */\n      tag_205\n        /* \"contracts/ERC721.sol\":3843:3850  tokenId */\n      dup6\n        /* \"contracts/ERC721.sol\":3843:3859  tokenId.toString */\n      tag_206\n        /* \"contracts/ERC721.sol\":3843:3861  tokenId.toString() */\n      jump\t// in\n    tag_205:\n        /* \"contracts/ERC721.sol\":3820:3862  abi.encodePacked(base, tokenId.toString()) */\n      add(0x20, mload(0x40))\n      tag_207\n      swap3\n      swap2\n      swap1\n      tag_204\n      jump\t// in\n    tag_207:\n      mload(0x40)\n      0x20\n      dup2\n      dup4\n      sub\n      sub\n      dup2\n      mstore\n      swap1\n      0x40\n      mstore\n        /* \"contracts/ERC721.sol\":3806:3863  return string(abi.encodePacked(base, tokenId.toString())) */\n      swap3\n      pop\n      pop\n      pop\n        /* \"contracts/ERC721.sol\":3317:3871  function tokenURI(uint256 tokenId) external view virtual override returns (string memory) {... */\n    tag_190:\n      swap2\n      swap1\n      pop\n      jump\t// out\n        /* \"contracts/ERC721.sol\":4115:4235  function getCreator(uint256 tokenId) external view override returns(address) {... */\n    tag_97:\n        /* \"contracts/ERC721.sol\":4183:4190  address */\n      0x00\n        /* \"contracts/ERC721.sol\":4210:4218  _creator */\n      0x0a\n        /* \"contracts/ERC721.sol\":4210:4227  _creator[tokenId] */\n      0x00\n        /* \"contracts/ERC721.sol\":4219:4226  tokenId */\n      dup4\n        /* \"contracts/ERC721.sol\":4210:4227  _creator[tokenId] */\n      dup2\n      mstore\n      0x20\n      add\n      swap1\n      dup2\n      mstore\n      0x20\n      add\n      0x00\n      keccak256\n      0x00\n      swap1\n      sload\n      swap1\n      0x0100\n      exp\n      swap1\n      div\n      0xffffffffffffffffffffffffffffffffffffffff\n      and\n        /* \"contracts/ERC721.sol\":4203:4227  return _creator[tokenId] */\n      swap1\n      pop\n        /* \"contracts/ERC721.sol\":4115:4235  function getCreator(uint256 tokenId) external view override returns(address) {... */\n      swap2\n      swap1\n      pop\n      jump\t// out\n        /* \"contracts/ERC721.sol\":6305:6469  function isApprovedForAll(address owner, address operator) public view virtual override returns (bool) {... */\n    tag_102:\n        /* \"contracts/ERC721.sol\":6402:6406  bool */\n      0x00\n        /* \"contracts/ERC721.sol\":6426:6444  _operatorApprovals */\n      0x05\n        /* \"contracts/ERC721.sol\":6426:6451  _operatorApprovals[owner] */\n      0x00\n        /* \"contracts/ERC721.sol\":6445:6450  owner */\n      dup5\n        /* \"contracts/ERC721.sol\":6426:6451  _operatorApprovals[owner] */\n      0xffffffffffffffffffffffffffffffffffffffff\n      and\n      0xffffffffffffffffffffffffffffffffffffffff\n      and\n      dup2\n      mstore\n      0x20\n      add\n      swap1\n      dup2\n      mstore\n      0x20\n      add\n      0x00\n      keccak256\n        /* \"contracts/ERC721.sol\":6426:6461  _operatorApprovals[owner][operator] */\n      0x00\n        /* \"contracts/ERC721.sol\":6452:6460  operator */\n      dup4\n        /* \"contracts/ERC721.sol\":6426:6461  _operatorApprovals[owner][operator] */\n      0xffffffffffffffffffffffffffffffffffffffff\n      and\n      0xffffffffffffffffffffffffffffffffffffffff\n      and\n      dup2\n      mstore\n      0x20\n      add\n      swap1\n      dup2\n      mstore\n      0x20\n      add\n      0x00\n      keccak256\n      0x00\n      swap1\n      sload\n      swap1\n      0x0100\n      exp\n      swap1\n      div\n      0xff\n      and\n        /* \"contracts/ERC721.sol\":6419:6461  return _operatorApprovals[owner][operator] */\n      swap1\n      pop\n        /* \"contracts/ERC721.sol\":6305:6469  function isApprovedForAll(address owner, address operator) public view virtual override returns (bool) {... */\n      swap3\n      swap2\n      pop\n      pop\n      jump\t// out\n        /* \"contracts/ERC721.sol\":8587:8714  function _exists(uint256 tokenId) internal view virtual returns (bool) {... */\n    tag_114:\n        /* \"contracts/ERC721.sol\":8652:8656  bool */\n      0x00\n        /* \"contracts/ERC721.sol\":8676:8706  _tokenOwners.contains(tokenId) */\n      tag_211\n        /* \"contracts/ERC721.sol\":8698:8705  tokenId */\n      dup3\n        /* \"contracts/ERC721.sol\":8676:8688  _tokenOwners */\n      0x02\n        /* \"contracts/ERC721.sol\":8676:8697  _tokenOwners.contains */\n      tag_212\n      swap1\n        /* \"contracts/ERC721.sol\":8676:8706  _tokenOwners.contains(tokenId) */\n      swap2\n      swap1\n      0xffffffff\n      and\n      jump\t// in\n    tag_211:\n        /* \"contracts/ERC721.sol\":8669:8706  return _tokenOwners.contains(tokenId) */\n      swap1\n      pop\n        /* \"contracts/ERC721.sol\":8587:8714  function _exists(uint256 tokenId) internal view virtual returns (bool) {... */\n      swap2\n      swap1\n      pop\n      jump\t// out\n        /* \"contracts/External/Context.sol\":145:260  function _msgSender() internal view virtual returns (address payable) {... */\n    tag_124:\n        /* \"contracts/External/Context.sol\":198:213  address payable */\n      0x00\n        /* \"contracts/External/Context.sol\":241:251  msg.sender */\n      caller\n        /* \"contracts/External/Context.sol\":226:252  return payable(msg.sender) */\n      swap1\n      pop\n        /* \"contracts/External/Context.sol\":145:260  function _msgSender() internal view virtual returns (address payable) {... */\n      swap1\n      jump\t// out\n        /* \"contracts/ERC721.sol\":12668:12860  function _approve(address to, uint256 tokenId) internal virtual {... */\n    tag_132:\n        /* \"contracts/ERC721.sol\":12770:12772  to */\n      dup2\n        /* \"contracts/ERC721.sol\":12743:12758  _tokenApprovals */\n      0x04\n        /* \"contracts/ERC721.sol\":12743:12767  _tokenApprovals[tokenId] */\n      0x00\n        /* \"contracts/ERC721.sol\":12759:12766  tokenId */\n      dup4\n        /* \"contracts/ERC721.sol\":12743:12767  _tokenApprovals[tokenId] */\n      dup2\n      mstore\n      0x20\n      add\n      swap1\n      dup2\n      mstore\n      0x20\n      add\n      0x00\n      keccak256\n      0x00\n        /* \"contracts/ERC721.sol\":12743:12772  _tokenApprovals[tokenId] = to */\n      0x0100\n      exp\n      dup2\n      sload\n      dup2\n      0xffffffffffffffffffffffffffffffffffffffff\n      mul\n      not\n      and\n      swap1\n      dup4\n      0xffffffffffffffffffffffffffffffffffffffff\n      and\n      mul\n      or\n      swap1\n      sstore\n      pop\n        /* \"contracts/ERC721.sol\":12826:12833  tokenId */\n      dup1\n        /* \"contracts/ERC721.sol\":12822:12824  to */\n      dup3\n        /* \"contracts/ERC721.sol\":12788:12834  Approval(ERC721.ownerOf(tokenId), to, tokenId) */\n      0xffffffffffffffffffffffffffffffffffffffff\n      and\n        /* \"contracts/ERC721.sol\":12797:12820  ERC721.ownerOf(tokenId) */\n      tag_215\n        /* \"contracts/ERC721.sol\":12812:12819  tokenId */\n      dup4\n        /* \"contracts/ERC721.sol\":12797:12811  ERC721.ownerOf */\n      tag_66\n        /* \"contracts/ERC721.sol\":12797:12820  ERC721.ownerOf(tokenId) */\n      jump\t// in\n    tag_215:\n        /* \"contracts/ERC721.sol\":12788:12834  Approval(ERC721.ownerOf(tokenId), to, tokenId) */\n      0xffffffffffffffffffffffffffffffffffffffff\n      and\n      0x8c5be1e5ebec7d5bd14f71427d1e84f3dd0314c0f7b2291e5b200ac8c7c3b925\n      mload(0x40)\n      mload(0x40)\n      dup1\n      swap2\n      sub\n      swap1\n      log4\n        /* \"contracts/ERC721.sol\":12668:12860  function _approve(address to, uint256 tokenId) internal virtual {... */\n      pop\n      pop\n      jump\t// out\n        /* \"contracts/External/EnumerableMap.sol\":2919:3042  function length(UintToAddressMap storage map) internal view returns (uint256) {... */\n    tag_135:\n        /* \"contracts/External/EnumerableMap.sol\":2988:2995  uint256 */\n      0x00\n        /* \"contracts/External/EnumerableMap.sol\":3015:3034  _length(map._inner) */\n      tag_217\n        /* \"contracts/External/EnumerableMap.sol\":3023:3026  map */\n      dup3\n        /* \"contracts/External/EnumerableMap.sol\":3023:3033  map._inner */\n      0x00\n      add\n        /* \"contracts/External/EnumerableMap.sol\":3015:3022  _length */\n      tag_218\n        /* \"contracts/External/EnumerableMap.sol\":3015:3034  _length(map._inner) */\n      jump\t// in\n    tag_217:\n        /* \"contracts/External/EnumerableMap.sol\":3008:3034  return _length(map._inner) */\n      swap1\n      pop\n        /* \"contracts/External/EnumerableMap.sol\":2919:3042  function length(UintToAddressMap storage map) internal view returns (uint256) {... */\n      swap2\n      swap1\n      pop\n      jump\t// out\n        /* \"contracts/ERC721.sol\":8722:9077  function _isApprovedOrOwner(address spender, uint256 tokenId) internal view virtual returns (bool) {... */\n    tag_139:\n        /* \"contracts/ERC721.sol\":8815:8819  bool */\n      0x00\n        /* \"contracts/ERC721.sol\":8840:8856  _exists(tokenId) */\n      tag_220\n        /* \"contracts/ERC721.sol\":8848:8855  tokenId */\n      dup3\n        /* \"contracts/ERC721.sol\":8840:8847  _exists */\n      tag_114\n        /* \"contracts/ERC721.sol\":8840:8856  _exists(tokenId) */\n      jump\t// in\n    tag_220:\n        /* \"contracts/ERC721.sol\":8832:8905  require(_exists(tokenId), \"ERC721: operator query for nonexistent token\") */\n      tag_221\n      jumpi\n      mload(0x40)\n      0x08c379a000000000000000000000000000000000000000000000000000000000\n      dup2\n      mstore\n      0x04\n      add\n      tag_222\n      swap1\n      tag_223\n      jump\t// in\n    tag_222:\n      mload(0x40)\n      dup1\n      swap2\n      sub\n      swap1\n      revert\n    tag_221:\n        /* \"contracts/ERC721.sol\":8916:8929  address owner */\n      0x00\n        /* \"contracts/ERC721.sol\":8932:8955  ERC721.ownerOf(tokenId) */\n      tag_224\n        /* \"contracts/ERC721.sol\":8947:8954  tokenId */\n      dup4\n        /* \"contracts/ERC721.sol\":8932:8946  ERC721.ownerOf */\n      tag_66\n        /* \"contracts/ERC721.sol\":8932:8955  ERC721.ownerOf(tokenId) */\n      jump\t// in\n    tag_224:\n        /* \"contracts/ERC721.sol\":8916:8955  address owner = ERC721.ownerOf(tokenId) */\n      swap1\n      pop\n        /* \"contracts/ERC721.sol\":8985:8990  owner */\n      dup1\n        /* \"contracts/ERC721.sol\":8974:8990  spender == owner */\n      0xffffffffffffffffffffffffffffffffffffffff\n      and\n        /* \"contracts/ERC721.sol\":8974:8981  spender */\n      dup5\n        /* \"contracts/ERC721.sol\":8974:8990  spender == owner */\n      0xffffffffffffffffffffffffffffffffffffffff\n      and\n      eq\n        /* \"contracts/ERC721.sol\":8974:9025  spender == owner || getApproved(tokenId) == spender */\n      dup1\n      tag_225\n      jumpi\n      pop\n        /* \"contracts/ERC721.sol\":9018:9025  spender */\n      dup4\n        /* \"contracts/ERC721.sol\":8994:9025  getApproved(tokenId) == spender */\n      0xffffffffffffffffffffffffffffffffffffffff\n      and\n        /* \"contracts/ERC721.sol\":8994:9014  getApproved(tokenId) */\n      tag_226\n        /* \"contracts/ERC721.sol\":9006:9013  tokenId */\n      dup5\n        /* \"contracts/ERC721.sol\":8994:9005  getApproved */\n      tag_38\n        /* \"contracts/ERC721.sol\":8994:9014  getApproved(tokenId) */\n      jump\t// in\n    tag_226:\n        /* \"contracts/ERC721.sol\":8994:9025  getApproved(tokenId) == spender */\n      0xffffffffffffffffffffffffffffffffffffffff\n      and\n      eq\n        /* \"contracts/ERC721.sol\":8974:9025  spender == owner || getApproved(tokenId) == spender */\n    tag_225:\n        /* \"contracts/ERC721.sol\":8974:9068  spender == owner || getApproved(tokenId) == spender || ERC721.isApprovedForAll(owner, spender) */\n      dup1\n      tag_227\n      jumpi\n      pop\n        /* \"contracts/ERC721.sol\":9029:9068  ERC721.isApprovedForAll(owner, spender) */\n      tag_228\n        /* \"contracts/ERC721.sol\":9053:9058  owner */\n      dup2\n        /* \"contracts/ERC721.sol\":9060:9067  spender */\n      dup6\n        /* \"contracts/ERC721.sol\":9029:9052  ERC721.isApprovedForAll */\n      tag_102\n        /* \"contracts/ERC721.sol\":9029:9068  ERC721.isApprovedForAll(owner, spender) */\n      jump\t// in\n    tag_228:\n        /* \"contracts/ERC721.sol\":8974:9068  spender == owner || getApproved(tokenId) == spender || ERC721.isApprovedForAll(owner, spender) */\n    tag_227:\n        /* \"contracts/ERC721.sol\":8966:9069  return (spender == owner || getApproved(tokenId) == spender || ERC721.isApprovedForAll(owner, spender)) */\n      swap2\n      pop\n      pop\n        /* \"contracts/ERC721.sol\":8722:9077  function _isApprovedOrOwner(address spender, uint256 tokenId) internal view virtual returns (bool) {... */\n      swap3\n      swap2\n      pop\n      pop\n      jump\t// out\n        /* \"contracts/ERC721.sol\":10844:11391  function _transfer(address from, address to, uint256 tokenId) internal virtual {... */\n    tag_144:\n        /* \"contracts/ERC721.sol\":10969:10973  from */\n      dup3\n        /* \"contracts/ERC721.sol\":10942:10973  ERC721.ownerOf(tokenId) == from */\n      0xffffffffffffffffffffffffffffffffffffffff\n      and\n        /* \"contracts/ERC721.sol\":10942:10965  ERC721.ownerOf(tokenId) */\n      tag_230\n        /* \"contracts/ERC721.sol\":10957:10964  tokenId */\n      dup3\n        /* \"contracts/ERC721.sol\":10942:10956  ERC721.ownerOf */\n      tag_66\n        /* \"contracts/ERC721.sol\":10942:10965  ERC721.ownerOf(tokenId) */\n      jump\t// in\n    tag_230:\n        /* \"contracts/ERC721.sol\":10942:10973  ERC721.ownerOf(tokenId) == from */\n      0xffffffffffffffffffffffffffffffffffffffff\n      and\n      eq\n        /* \"contracts/ERC721.sol\":10934:11019  require(ERC721.ownerOf(tokenId) == from, \"ERC721: transfer of token that is not own\") */\n      tag_231\n      jumpi\n      mload(0x40)\n      0x08c379a000000000000000000000000000000000000000000000000000000000\n      dup2\n      mstore\n      0x04\n      add\n      tag_232\n      swap1\n      tag_233\n      jump\t// in\n    tag_232:\n      mload(0x40)\n      dup1\n      swap2\n      sub\n      swap1\n      revert\n    tag_231:\n        /* \"contracts/ERC721.sol\":11070:11071  0 */\n      0x00\n        /* \"contracts/ERC721.sol\":11056:11072  to != address(0) */\n      0xffffffffffffffffffffffffffffffffffffffff\n      and\n        /* \"contracts/ERC721.sol\":11056:11058  to */\n      dup3\n        /* \"contracts/ERC721.sol\":11056:11072  to != address(0) */\n      0xffffffffffffffffffffffffffffffffffffffff\n      and\n      sub\n        /* \"contracts/ERC721.sol\":11048:11113  require(to != address(0), \"ERC721: transfer to the zero address\") */\n      tag_234\n      jumpi\n      mload(0x40)\n      0x08c379a000000000000000000000000000000000000000000000000000000000\n      dup2\n      mstore\n      0x04\n      add\n      tag_235\n      swap1\n      tag_236\n      jump\t// in\n    tag_235:\n      mload(0x40)\n      dup1\n      swap2\n      sub\n      swap1\n      revert\n    tag_234:\n        /* \"contracts/ERC721.sol\":11126:11165  _beforeTokenTransfer(from, to, tokenId) */\n      tag_237\n        /* \"contracts/ERC721.sol\":11147:11151  from */\n      dup4\n        /* \"contracts/ERC721.sol\":11153:11155  to */\n      dup4\n        /* \"contracts/ERC721.sol\":11157:11164  tokenId */\n      dup4\n        /* \"contracts/ERC721.sol\":11126:11146  _beforeTokenTransfer */\n      tag_238\n        /* \"contracts/ERC721.sol\":11126:11165  _beforeTokenTransfer(from, to, tokenId) */\n      jump\t// in\n    tag_237:\n        /* \"contracts/ERC721.sol\":11178:11207  _approve(address(0), tokenId) */\n      tag_239\n        /* \"contracts/ERC721.sol\":11195:11196  0 */\n      0x00\n        /* \"contracts/ERC721.sol\":11199:11206  tokenId */\n      dup3\n        /* \"contracts/ERC721.sol\":11178:11186  _approve */\n      tag_132\n        /* \"contracts/ERC721.sol\":11178:11207  _approve(address(0), tokenId) */\n      jump\t// in\n    tag_239:\n        /* \"contracts/ERC721.sol\":11220:11255  _holderTokens[from].remove(tokenId) */\n      tag_240\n        /* \"contracts/ERC721.sol\":11247:11254  tokenId */\n      dup2\n        /* \"contracts/ERC721.sol\":11220:11233  _holderTokens */\n      0x01\n        /* \"contracts/ERC721.sol\":11220:11239  _holderTokens[from] */\n      0x00\n        /* \"contracts/ERC721.sol\":11234:11238  from */\n      dup7\n        /* \"contracts/ERC721.sol\":11220:11239  _holderTokens[from] */\n      0xffffffffffffffffffffffffffffffffffffffff\n      and\n      0xffffffffffffffffffffffffffffffffffffffff\n      and\n      dup2\n      mstore\n      0x20\n      add\n      swap1\n      dup2\n      mstore\n      0x20\n      add\n      0x00\n      keccak256\n        /* \"contracts/ERC721.sol\":11220:11246  _holderTokens[from].remove */\n      tag_241\n      swap1\n        /* \"contracts/ERC721.sol\":11220:11255  _holderTokens[from].remove(tokenId) */\n      swap2\n      swap1\n      0xffffffff\n      and\n      jump\t// in\n    tag_240:\n        /* \"contracts/ERC721.sol\":11266:11296  _holderTokens[to].add(tokenId) */\n      tag_242\n        /* \"contracts/ERC721.sol\":11288:11295  tokenId */\n      dup2\n        /* \"contracts/ERC721.sol\":11266:11279  _holderTokens */\n      0x01\n        /* \"contracts/ERC721.sol\":11266:11283  _holderTokens[to] */\n      0x00\n        /* \"contracts/ERC721.sol\":11280:11282  to */\n      dup6\n        /* \"contracts/ERC721.sol\":11266:11283  _holderTokens[to] */\n      0xffffffffffffffffffffffffffffffffffffffff\n      and\n      0xffffffffffffffffffffffffffffffffffffffff\n      and\n      dup2\n      mstore\n      0x20\n      add\n      swap1\n      dup2\n      mstore\n      0x20\n      add\n      0x00\n      keccak256\n        /* \"contracts/ERC721.sol\":11266:11287  _holderTokens[to].add */\n      tag_243\n      swap1\n        /* \"contracts/ERC721.sol\":11266:11296  _holderTokens[to].add(tokenId) */\n      swap2\n      swap1\n      0xffffffff\n      and\n      jump\t// in\n    tag_242:\n        /* \"contracts/ERC721.sol\":11309:11338  _tokenOwners.set(tokenId, to) */\n      tag_244\n        /* \"contracts/ERC721.sol\":11326:11333  tokenId */\n      dup2\n        /* \"contracts/ERC721.sol\":11335:11337  to */\n      dup4\n        /* \"contracts/ERC721.sol\":11309:11321  _tokenOwners */\n      0x02\n        /* \"contracts/ERC721.sol\":11309:11325  _tokenOwners.set */\n      tag_245\n      swap1\n        /* \"contracts/ERC721.sol\":11309:11338  _tokenOwners.set(tokenId, to) */\n      swap3\n      swap2\n      swap1\n      0xffffffff\n      and\n      jump\t// in\n    tag_244:\n      pop\n        /* \"contracts/ERC721.sol\":11375:11382  tokenId */\n      dup1\n        /* \"contracts/ERC721.sol\":11371:11373  to */\n      dup3\n        /* \"contracts/ERC721.sol\":11356:11383  Transfer(from, to, tokenId) */\n      0xffffffffffffffffffffffffffffffffffffffff\n      and\n        /* \"contracts/ERC721.sol\":11365:11369  from */\n      dup5\n        /* \"contracts/ERC721.sol\":11356:11383  Transfer(from, to, tokenId) */\n      0xffffffffffffffffffffffffffffffffffffffff\n      and\n      0xddf252ad1be2c89b69c2b068fc378daa952ba7f163c4a11628f55a4df523b3ef\n      mload(0x40)\n      mload(0x40)\n      dup1\n      swap2\n      sub\n      swap1\n      log4\n        /* \"contracts/ERC721.sol\":10844:11391  function _transfer(address from, address to, uint256 tokenId) internal virtual {... */\n      pop\n      pop\n      pop\n      jump\t// out\n        /* \"contracts/External/EnumerableSet.sol\":2856:2993  function at(UintSet storage set, uint256 index) internal view returns (uint256) {... */\n    tag_147:\n        /* \"contracts/External/EnumerableSet.sol\":2927:2934  uint256 */\n      0x00\n        /* \"contracts/External/EnumerableSet.sol\":2962:2984  _at(set._inner, index) */\n      tag_247\n        /* \"contracts/External/EnumerableSet.sol\":2966:2969  set */\n      dup4\n        /* \"contracts/External/EnumerableSet.sol\":2966:2976  set._inner */\n      0x00\n      add\n        /* \"contracts/External/EnumerableSet.sol\":2978:2983  index */\n      dup4\n        /* \"contracts/External/EnumerableSet.sol\":2962:2965  _at */\n      tag_248\n        /* \"contracts/External/EnumerableSet.sol\":2962:2984  _at(set._inner, index) */\n      jump\t// in\n    tag_247:\n        /* \"contracts/External/EnumerableSet.sol\":2954:2985  uint256(_at(set._inner, index)) */\n      0x00\n      shr\n        /* \"contracts/External/EnumerableSet.sol\":2947:2985  return uint256(_at(set._inner, index)) */\n      swap1\n      pop\n        /* \"contracts/External/EnumerableSet.sol\":2856:2993  function at(UintSet storage set, uint256 index) internal view returns (uint256) {... */\n      swap3\n      swap2\n      pop\n      pop\n      jump\t// out\n        /* \"contracts/External/EnumerableMap.sol\":3050:3286  function at(UintToAddressMap storage map, uint256 index) internal view returns (uint256, address) {... */\n    tag_152:\n        /* \"contracts/External/EnumerableMap.sol\":3130:3137  uint256 */\n      0x00\n        /* \"contracts/External/EnumerableMap.sol\":3139:3146  address */\n      dup1\n        /* \"contracts/External/EnumerableMap.sol\":3160:3171  bytes32 key */\n      0x00\n        /* \"contracts/External/EnumerableMap.sol\":3173:3186  bytes32 value */\n      dup1\n        /* \"contracts/External/EnumerableMap.sol\":3190:3212  _at(map._inner, index) */\n      tag_250\n        /* \"contracts/External/EnumerableMap.sol\":3194:3197  map */\n      dup7\n        /* \"contracts/External/EnumerableMap.sol\":3194:3204  map._inner */\n      0x00\n      add\n        /* \"contracts/External/EnumerableMap.sol\":3206:3211  index */\n      dup7\n        /* \"contracts/External/EnumerableMap.sol\":3190:3193  _at */\n      tag_251\n        /* \"contracts/External/EnumerableMap.sol\":3190:3212  _at(map._inner, index) */\n      jump\t// in\n    tag_250:\n        /* \"contracts/External/EnumerableMap.sol\":3159:3212  (bytes32 key, bytes32 value) = _at(map._inner, index) */\n      swap2\n      pop\n      swap2\n      pop\n        /* \"contracts/External/EnumerableMap.sol\":3239:3242  key */\n      dup2\n        /* \"contracts/External/EnumerableMap.sol\":3231:3243  uint256(key) */\n      0x00\n      shr\n        /* \"contracts/External/EnumerableMap.sol\":3269:3274  value */\n      dup2\n        /* \"contracts/External/EnumerableMap.sol\":3261:3275  uint256(value) */\n      0x00\n      shr\n        /* \"contracts/External/EnumerableMap.sol\":3223:3278  return (uint256(key), address(uint160(uint256(value)))) */\n      swap4\n      pop\n      swap4\n      pop\n      pop\n      pop\n        /* \"contracts/External/EnumerableMap.sol\":3050:3286  function at(UintToAddressMap storage map, uint256 index) internal view returns (uint256, address) {... */\n      swap3\n      pop\n      swap3\n      swap1\n      pop\n      jump\t// out\n        /* \"contracts/External/EnumerableMap.sol\":3294:3507  function get(UintToAddressMap storage map, uint256 key, string memory errorMessage) internal view returns (address) {... */\n    tag_155:\n        /* \"contracts/External/EnumerableMap.sol\":3401:3408  address */\n      0x00\n        /* \"contracts/External/EnumerableMap.sol\":3452:3496  _get(map._inner, bytes32(key), errorMessage) */\n      tag_253\n        /* \"contracts/External/EnumerableMap.sol\":3457:3460  map */\n      dup5\n        /* \"contracts/External/EnumerableMap.sol\":3457:3467  map._inner */\n      0x00\n      add\n        /* \"contracts/External/EnumerableMap.sol\":3477:3480  key */\n      dup5\n        /* \"contracts/External/EnumerableMap.sol\":3469:3481  bytes32(key) */\n      0x00\n      shl\n        /* \"contracts/External/EnumerableMap.sol\":3483:3495  errorMessage */\n      dup5\n        /* \"contracts/External/EnumerableMap.sol\":3452:3456  _get */\n      tag_254\n        /* \"contracts/External/EnumerableMap.sol\":3452:3496  _get(map._inner, bytes32(key), errorMessage) */\n      jump\t// in\n    tag_253:\n        /* \"contracts/External/EnumerableMap.sol\":3444:3497  uint256(_get(map._inner, bytes32(key), errorMessage)) */\n      0x00\n      shr\n        /* \"contracts/External/EnumerableMap.sol\":3421:3499  return address(uint160(uint256(_get(map._inner, bytes32(key), errorMessage)))) */\n      swap1\n      pop\n        /* \"contracts/External/EnumerableMap.sol\":3294:3507  function get(UintToAddressMap storage map, uint256 key, string memory errorMessage) internal view returns (address) {... */\n      swap4\n      swap3\n      pop\n      pop\n      pop\n      jump\t// out\n        /* \"contracts/External/EnumerableSet.sol\":2734:2848  function length(UintSet storage set) internal view returns (uint256) {... */\n    tag_167:\n        /* \"contracts/External/EnumerableSet.sol\":2794:2801  uint256 */\n      0x00\n        /* \"contracts/External/EnumerableSet.sol\":2821:2840  _length(set._inner) */\n      tag_256\n        /* \"contracts/External/EnumerableSet.sol\":2829:2832  set */\n      dup3\n        /* \"contracts/External/EnumerableSet.sol\":2829:2839  set._inner */\n      0x00\n      add\n        /* \"contracts/External/EnumerableSet.sol\":2821:2828  _length */\n      tag_257\n        /* \"contracts/External/EnumerableSet.sol\":2821:2840  _length(set._inner) */\n      jump\t// in\n    tag_256:\n        /* \"contracts/External/EnumerableSet.sol\":2814:2840  return _length(set._inner) */\n      swap1\n      pop\n        /* \"contracts/External/EnumerableSet.sol\":2734:2848  function length(UintSet storage set) internal view returns (uint256) {... */\n      swap2\n      swap1\n      pop\n      jump\t// out\n        /* \"contracts/ERC721.sol\":8307:8579  function _safeTransfer(address from, address to, uint256 tokenId, bytes memory _data) internal virtual {... */\n    tag_188:\n        /* \"contracts/ERC721.sol\":8421:8449  _transfer(from, to, tokenId) */\n      tag_259\n        /* \"contracts/ERC721.sol\":8431:8435  from */\n      dup5\n        /* \"contracts/ERC721.sol\":8437:8439  to */\n      dup5\n        /* \"contracts/ERC721.sol\":8441:8448  tokenId */\n      dup5\n        /* \"contracts/ERC721.sol\":8421:8430  _transfer */\n      tag_144\n        /* \"contracts/ERC721.sol\":8421:8449  _transfer(from, to, tokenId) */\n      jump\t// in\n    tag_259:\n        /* \"contracts/ERC721.sol\":8468:8516  _checkOnERC721Received(from, to, tokenId, _data) */\n      tag_260\n        /* \"contracts/ERC721.sol\":8491:8495  from */\n      dup5\n        /* \"contracts/ERC721.sol\":8497:8499  to */\n      dup5\n        /* \"contracts/ERC721.sol\":8501:8508  tokenId */\n      dup5\n        /* \"contracts/ERC721.sol\":8510:8515  _data */\n      dup5\n        /* \"contracts/ERC721.sol\":8468:8490  _checkOnERC721Received */\n      tag_261\n        /* \"contracts/ERC721.sol\":8468:8516  _checkOnERC721Received(from, to, tokenId, _data) */\n      jump\t// in\n    tag_260:\n        /* \"contracts/ERC721.sol\":8460:8571  require(_checkOnERC721Received(from, to, tokenId, _data), \"ERC721: transfer to non ERC721Receiver implementer\") */\n      tag_262\n      jumpi\n      mload(0x40)\n      0x08c379a000000000000000000000000000000000000000000000000000000000\n      dup2\n      mstore\n      0x04\n      add\n      tag_263\n      swap1\n      tag_264\n      jump\t// in\n    tag_263:\n      mload(0x40)\n      dup1\n      swap2\n      sub\n      swap1\n      revert\n    tag_262:\n        /* \"contracts/ERC721.sol\":8307:8579  function _safeTransfer(address from, address to, uint256 tokenId, bytes memory _data) internal virtual {... */\n      pop\n      pop\n      pop\n      pop\n      jump\t// out\n        /* \"contracts/External/Strings.sol\":388:1111  function toString(uint256 value) internal pure returns (string memory) {... */\n    tag_206:\n        /* \"contracts/External/Strings.sol\":444:457  string memory */\n      0x60\n        /* \"contracts/External/Strings.sol\":674:675  0 */\n      0x00\n        /* \"contracts/External/Strings.sol\":665:670  value */\n      dup3\n        /* \"contracts/External/Strings.sol\":665:675  value == 0 */\n      sub\n        /* \"contracts/External/Strings.sol\":661:714  if (value == 0) {... */\n      tag_266\n      jumpi\n        /* \"contracts/External/Strings.sol\":692:702  return \"0\" */\n      mload(0x40)\n      dup1\n      0x40\n      add\n      0x40\n      mstore\n      dup1\n      0x01\n      dup2\n      mstore\n      0x20\n      add\n      0x3000000000000000000000000000000000000000000000000000000000000000\n      dup2\n      mstore\n      pop\n      swap1\n      pop\n      jump(tag_265)\n        /* \"contracts/External/Strings.sol\":661:714  if (value == 0) {... */\n    tag_266:\n        /* \"contracts/External/Strings.sol\":724:736  uint256 temp */\n      0x00\n        /* \"contracts/External/Strings.sol\":739:744  value */\n      dup3\n        /* \"contracts/External/Strings.sol\":724:744  uint256 temp = value */\n      swap1\n      pop\n        /* \"contracts/External/Strings.sol\":755:769  uint256 digits */\n      0x00\n        /* \"contracts/External/Strings.sol\":780:858  while (temp != 0) {... */\n    tag_267:\n        /* \"contracts/External/Strings.sol\":795:796  0 */\n      0x00\n        /* \"contracts/External/Strings.sol\":787:791  temp */\n      dup3\n        /* \"contracts/External/Strings.sol\":787:796  temp != 0 */\n      eq\n        /* \"contracts/External/Strings.sol\":780:858  while (temp != 0) {... */\n      tag_268\n      jumpi\n        /* \"contracts/External/Strings.sol\":813:821  digits++ */\n      dup1\n      dup1\n      tag_269\n      swap1\n      tag_270\n      jump\t// in\n    tag_269:\n      swap2\n      pop\n      pop\n        /* \"contracts/External/Strings.sol\":844:846  10 */\n      0x0a\n        /* \"contracts/External/Strings.sol\":836:846  temp /= 10 */\n      dup3\n      tag_271\n      swap2\n      swap1\n      tag_272\n      jump\t// in\n    tag_271:\n      swap2\n      pop\n        /* \"contracts/External/Strings.sol\":780:858  while (temp != 0) {... */\n      jump(tag_267)\n    tag_268:\n        /* \"contracts/External/Strings.sol\":868:887  bytes memory buffer */\n      0x00\n        /* \"contracts/External/Strings.sol\":900:906  digits */\n      dup2\n        /* \"contracts/External/Strings.sol\":890:907  new bytes(digits) */\n      0xffffffffffffffff\n      dup2\n      gt\n      iszero\n      tag_273\n      jumpi\n      tag_274\n      tag_275\n      jump\t// in\n    tag_274:\n    tag_273:\n      mload(0x40)\n      swap1\n      dup1\n      dup3\n      mstore\n      dup1\n      0x1f\n      add\n      not(0x1f)\n      and\n      0x20\n      add\n      dup3\n      add\n      0x40\n      mstore\n      dup1\n      iszero\n      tag_276\n      jumpi\n      dup2\n      0x20\n      add\n      0x01\n      dup3\n      mul\n      dup1\n      calldatasize\n      dup4\n      calldatacopy\n      dup1\n      dup3\n      add\n      swap2\n      pop\n      pop\n      swap1\n      pop\n    tag_276:\n      pop\n        /* \"contracts/External/Strings.sol\":868:907  bytes memory buffer = new bytes(digits) */\n      swap1\n      pop\n        /* \"contracts/External/Strings.sol\":918:1072  while (value != 0) {... */\n    tag_277:\n        /* \"contracts/External/Strings.sol\":934:935  0 */\n      0x00\n        /* \"contracts/External/Strings.sol\":925:930  value */\n      dup6\n        /* \"contracts/External/Strings.sol\":925:935  value != 0 */\n      eq\n        /* \"contracts/External/Strings.sol\":918:1072  while (value != 0) {... */\n      tag_278\n      jumpi\n        /* \"contracts/External/Strings.sol\":962:963  1 */\n      0x01\n        /* \"contracts/External/Strings.sol\":952:963  digits -= 1 */\n      dup3\n      tag_279\n      swap2\n      swap1\n      tag_280\n      jump\t// in\n    tag_279:\n      swap2\n      pop\n        /* \"contracts/External/Strings.sol\":1029:1031  10 */\n      0x0a\n        /* \"contracts/External/Strings.sol\":1021:1026  value */\n      dup6\n        /* \"contracts/External/Strings.sol\":1021:1031  value % 10 */\n      tag_281\n      swap2\n      swap1\n      tag_282\n      jump\t// in\n    tag_281:\n        /* \"contracts/External/Strings.sol\":1008:1010  48 */\n      0x30\n        /* \"contracts/External/Strings.sol\":1008:1032  48 + uint256(value % 10) */\n      tag_283\n      swap2\n      swap1\n      tag_284\n      jump\t// in\n    tag_283:\n        /* \"contracts/External/Strings.sol\":995:1034  bytes1(uint8(48 + uint256(value % 10))) */\n      0xf8\n      shl\n        /* \"contracts/External/Strings.sol\":978:984  buffer */\n      dup2\n        /* \"contracts/External/Strings.sol\":985:991  digits */\n      dup4\n        /* \"contracts/External/Strings.sol\":978:992  buffer[digits] */\n      dup2\n      mload\n      dup2\n      lt\n      tag_285\n      jumpi\n      tag_286\n      tag_287\n      jump\t// in\n    tag_286:\n    tag_285:\n      0x20\n      add\n      add\n        /* \"contracts/External/Strings.sol\":978:1034  buffer[digits] = bytes1(uint8(48 + uint256(value % 10))) */\n      swap1\n      not(0xffffffffffffffffffffffffffffffffffffffffffffffffffffffffffffff)\n      and\n      swap1\n      dup2\n      0x00\n      byte\n      swap1\n      mstore8\n      pop\n        /* \"contracts/External/Strings.sol\":1058:1060  10 */\n      0x0a\n        /* \"contracts/External/Strings.sol\":1049:1060  value /= 10 */\n      dup6\n      tag_288\n      swap2\n      swap1\n      tag_272\n      jump\t// in\n    tag_288:\n      swap5\n      pop\n        /* \"contracts/External/Strings.sol\":918:1072  while (value != 0) {... */\n      jump(tag_277)\n    tag_278:\n        /* \"contracts/External/Strings.sol\":1096:1102  buffer */\n      dup1\n        /* \"contracts/External/Strings.sol\":1082:1103  return string(buffer) */\n      swap4\n      pop\n      pop\n      pop\n      pop\n        /* \"contracts/External/Strings.sol\":388:1111  function toString(uint256 value) internal pure returns (string memory) {... */\n    tag_265:\n      swap2\n      swap1\n      pop\n      jump\t// out\n        /* \"contracts/External/EnumerableMap.sol\":2760:2911  function contains(UintToAddressMap storage map, uint256 key) internal view returns (bool) {... */\n    tag_212:\n        /* \"contracts/External/EnumerableMap.sol\":2844:2848  bool */\n      0x00\n        /* \"contracts/External/EnumerableMap.sol\":2868:2903  _contains(map._inner, bytes32(key)) */\n      tag_290\n        /* \"contracts/External/EnumerableMap.sol\":2878:2881  map */\n      dup4\n        /* \"contracts/External/EnumerableMap.sol\":2878:2888  map._inner */\n      0x00\n      add\n        /* \"contracts/External/EnumerableMap.sol\":2898:2901  key */\n      dup4\n        /* \"contracts/External/EnumerableMap.sol\":2890:2902  bytes32(key) */\n      0x00\n      shl\n        /* \"contracts/External/EnumerableMap.sol\":2868:2877  _contains */\n      tag_291\n        /* \"contracts/External/EnumerableMap.sol\":2868:2903  _contains(map._inner, bytes32(key)) */\n      jump\t// in\n    tag_290:\n        /* \"contracts/External/EnumerableMap.sol\":2861:2903  return _contains(map._inner, bytes32(key)) */\n      swap1\n      pop\n        /* \"contracts/External/EnumerableMap.sol\":2760:2911  function contains(UintToAddressMap storage map, uint256 key) internal view returns (bool) {... */\n      swap3\n      swap2\n      pop\n      pop\n      jump\t// out\n        /* \"contracts/External/EnumerableMap.sol\":1624:1734  function _length(Map storage map) private view returns (uint256) {... */\n    tag_218:\n        /* \"contracts/External/EnumerableMap.sol\":1680:1687  uint256 */\n      0x00\n        /* \"contracts/External/EnumerableMap.sol\":1707:1710  map */\n      dup2\n        /* \"contracts/External/EnumerableMap.sol\":1707:1719  map._entries */\n      0x00\n      add\n        /* \"contracts/External/EnumerableMap.sol\":1707:1726  map._entries.length */\n      dup1\n      sload\n      swap1\n      pop\n        /* \"contracts/External/EnumerableMap.sol\":1700:1726  return map._entries.length */\n      swap1\n      pop\n        /* \"contracts/External/EnumerableMap.sol\":1624:1734  function _length(Map storage map) private view returns (uint256) {... */\n      swap2\n      swap1\n      pop\n      jump\t// out\n        /* \"contracts/ERC721.sol\":12868:12961  function _beforeTokenTransfer(address from, address to, uint256 tokenId) internal virtual { } */\n    tag_238:\n      pop\n      pop\n      pop\n      jump\t// out\n        /* \"contracts/External/EnumerableSet.sol\":2479:2594  function remove(UintSet storage set, uint256 value) internal {... */\n    tag_241:\n        /* \"contracts/External/EnumerableSet.sol\":2551:2586  _remove(set._inner, bytes32(value)) */\n      tag_295\n        /* \"contracts/External/EnumerableSet.sol\":2559:2562  set */\n      dup3\n        /* \"contracts/External/EnumerableSet.sol\":2559:2569  set._inner */\n      0x00\n      add\n        /* \"contracts/External/EnumerableSet.sol\":2579:2584  value */\n      dup3\n        /* \"contracts/External/EnumerableSet.sol\":2571:2585  bytes32(value) */\n      0x00\n      shl\n        /* \"contracts/External/EnumerableSet.sol\":2551:2558  _remove */\n      tag_296\n        /* \"contracts/External/EnumerableSet.sol\":2551:2586  _remove(set._inner, bytes32(value)) */\n      jump\t// in\n    tag_295:\n      pop\n        /* \"contracts/External/EnumerableSet.sol\":2479:2594  function remove(UintSet storage set, uint256 value) internal {... */\n      pop\n      pop\n      jump\t// out\n        /* \"contracts/External/EnumerableSet.sol\":2362:2471  function add(UintSet storage set, uint256 value) internal {... */\n    tag_243:\n        /* \"contracts/External/EnumerableSet.sol\":2431:2463  _add(set._inner, bytes32(value)) */\n      tag_298\n        /* \"contracts/External/EnumerableSet.sol\":2436:2439  set */\n      dup3\n        /* \"contracts/External/EnumerableSet.sol\":2436:2446  set._inner */\n      0x00\n      add\n        /* \"contracts/External/EnumerableSet.sol\":2456:2461  value */\n      dup3\n        /* \"contracts/External/EnumerableSet.sol\":2448:2462  bytes32(value) */\n      0x00\n      shl\n        /* \"contracts/External/EnumerableSet.sol\":2431:2435  _add */\n      tag_299\n        /* \"contracts/External/EnumerableSet.sol\":2431:2463  _add(set._inner, bytes32(value)) */\n      jump\t// in\n    tag_298:\n      pop\n        /* \"contracts/External/EnumerableSet.sol\":2362:2471  function add(UintSet storage set, uint256 value) internal {... */\n      pop\n      pop\n      jump\t// out\n        /* \"contracts/External/EnumerableMap.sol\":2417:2602  function set(UintToAddressMap storage map, uint256 key, address value) internal returns (bool) {... */\n    tag_245:\n        /* \"contracts/External/EnumerableMap.sol\":2506:2510  bool */\n      0x00\n        /* \"contracts/External/EnumerableMap.sol\":2530:2594  _set(map._inner, bytes32(key), bytes32(uint256(uint160(value)))) */\n      tag_301\n        /* \"contracts/External/EnumerableMap.sol\":2535:2538  map */\n      dup5\n        /* \"contracts/External/EnumerableMap.sol\":2535:2545  map._inner */\n      0x00\n      add\n        /* \"contracts/External/EnumerableMap.sol\":2555:2558  key */\n      dup5\n        /* \"contracts/External/EnumerableMap.sol\":2547:2559  bytes32(key) */\n      0x00\n      shl\n        /* \"contracts/External/EnumerableMap.sol\":2585:2590  value */\n      dup5\n        /* \"contracts/External/EnumerableMap.sol\":2569:2592  uint256(uint160(value)) */\n      0xffffffffffffffffffffffffffffffffffffffff\n      and\n        /* \"contracts/External/EnumerableMap.sol\":2561:2593  bytes32(uint256(uint160(value))) */\n      0x00\n      shl\n        /* \"contracts/External/EnumerableMap.sol\":2530:2534  _set */\n      tag_302\n        /* \"contracts/External/EnumerableMap.sol\":2530:2594  _set(map._inner, bytes32(key), bytes32(uint256(uint160(value)))) */\n      jump\t// in\n    tag_301:\n        /* \"contracts/External/EnumerableMap.sol\":2523:2594  return _set(map._inner, bytes32(key), bytes32(uint256(uint160(value)))) */\n      swap1\n      pop\n        /* \"contracts/External/EnumerableMap.sol\":2417:2602  function set(UintToAddressMap storage map, uint256 key, address value) internal returns (bool) {... */\n      swap4\n      swap3\n      pop\n      pop\n      pop\n      jump\t// out\n        /* \"contracts/External/EnumerableSet.sol\":1476:1680  function _at(Set storage set, uint256 index) private view returns (bytes32) {... */\n    tag_248:\n        /* \"contracts/External/EnumerableSet.sol\":1543:1550  bytes32 */\n      0x00\n        /* \"contracts/External/EnumerableSet.sol\":1592:1597  index */\n      dup2\n        /* \"contracts/External/EnumerableSet.sol\":1571:1574  set */\n      dup4\n        /* \"contracts/External/EnumerableSet.sol\":1571:1582  set._values */\n      0x00\n      add\n        /* \"contracts/External/EnumerableSet.sol\":1571:1589  set._values.length */\n      dup1\n      sload\n      swap1\n      pop\n        /* \"contracts/External/EnumerableSet.sol\":1571:1597  set._values.length > index */\n      gt\n        /* \"contracts/External/EnumerableSet.sol\":1563:1636  require(set._values.length > index, \"EnumerableSet: index out of bounds\") */\n      tag_304\n      jumpi\n      mload(0x40)\n      0x08c379a000000000000000000000000000000000000000000000000000000000\n      dup2\n      mstore\n      0x04\n      add\n      tag_305\n      swap1\n      tag_306\n      jump\t// in\n    tag_305:\n      mload(0x40)\n      dup1\n      swap2\n      sub\n      swap1\n      revert\n    tag_304:\n        /* \"contracts/External/EnumerableSet.sol\":1654:1657  set */\n      dup3\n        /* \"contracts/External/EnumerableSet.sol\":1654:1665  set._values */\n      0x00\n      add\n        /* \"contracts/External/EnumerableSet.sol\":1666:1671  index */\n      dup3\n        /* \"contracts/External/EnumerableSet.sol\":1654:1672  set._values[index] */\n      dup2\n      sload\n      dup2\n      lt\n      tag_307\n      jumpi\n      tag_308\n      tag_287\n      jump\t// in\n    tag_308:\n    tag_307:\n      swap1\n      0x00\n      mstore\n      keccak256(0x00, 0x20)\n      add\n      sload\n        /* \"contracts/External/EnumerableSet.sol\":1647:1672  return set._values[index] */\n      swap1\n      pop\n        /* \"contracts/External/EnumerableSet.sol\":1476:1680  function _at(Set storage set, uint256 index) private view returns (bytes32) {... */\n      swap3\n      swap2\n      pop\n      pop\n      jump\t// out\n        /* \"contracts/External/EnumerableMap.sol\":1742:2021  function _at(Map storage map, uint256 index) private view returns (bytes32, bytes32) {... */\n    tag_251:\n        /* \"contracts/External/EnumerableMap.sol\":1809:1816  bytes32 */\n      0x00\n        /* \"contracts/External/EnumerableMap.sol\":1818:1825  bytes32 */\n      dup1\n        /* \"contracts/External/EnumerableMap.sol\":1868:1873  index */\n      dup3\n        /* \"contracts/External/EnumerableMap.sol\":1846:1849  map */\n      dup5\n        /* \"contracts/External/EnumerableMap.sol\":1846:1858  map._entries */\n      0x00\n      add\n        /* \"contracts/External/EnumerableMap.sol\":1846:1865  map._entries.length */\n      dup1\n      sload\n      swap1\n      pop\n        /* \"contracts/External/EnumerableMap.sol\":1846:1873  map._entries.length > index */\n      gt\n        /* \"contracts/External/EnumerableMap.sol\":1838:1912  require(map._entries.length > index, \"EnumerableMap: index out of bounds\") */\n      tag_311\n      jumpi\n      mload(0x40)\n      0x08c379a000000000000000000000000000000000000000000000000000000000\n      dup2\n      mstore\n      0x04\n      add\n      tag_312\n      swap1\n      tag_313\n      jump\t// in\n    tag_312:\n      mload(0x40)\n      dup1\n      swap2\n      sub\n      swap1\n      revert\n    tag_311:\n        /* \"contracts/External/EnumerableMap.sol\":1925:1947  MapEntry storage entry */\n      0x00\n        /* \"contracts/External/EnumerableMap.sol\":1950:1953  map */\n      dup5\n        /* \"contracts/External/EnumerableMap.sol\":1950:1962  map._entries */\n      0x00\n      add\n        /* \"contracts/External/EnumerableMap.sol\":1963:1968  index */\n      dup5\n        /* \"contracts/External/EnumerableMap.sol\":1950:1969  map._entries[index] */\n      dup2\n      sload\n      dup2\n      lt\n      tag_314\n      jumpi\n      tag_315\n      tag_287\n      jump\t// in\n    tag_315:\n    tag_314:\n      swap1\n      0x00\n      mstore\n      keccak256(0x00, 0x20)\n      swap1\n      0x02\n      mul\n      add\n        /* \"contracts/External/EnumerableMap.sol\":1925:1969  MapEntry storage entry = map._entries[index] */\n      swap1\n      pop\n        /* \"contracts/External/EnumerableMap.sol\":1988:1993  entry */\n      dup1\n        /* \"contracts/External/EnumerableMap.sol\":1988:1998  entry._key */\n      0x00\n      add\n      sload\n        /* \"contracts/External/EnumerableMap.sol\":2000:2005  entry */\n      dup2\n        /* \"contracts/External/EnumerableMap.sol\":2000:2012  entry._value */\n      0x01\n      add\n      sload\n        /* \"contracts/External/EnumerableMap.sol\":1980:2013  return (entry._key, entry._value) */\n      swap3\n      pop\n      swap3\n      pop\n      pop\n        /* \"contracts/External/EnumerableMap.sol\":1742:2021  function _at(Map storage map, uint256 index) private view returns (bytes32, bytes32) {... */\n      swap3\n      pop\n      swap3\n      swap1\n      pop\n      jump\t// out\n        /* \"contracts/External/EnumerableMap.sol\":2029:2348  function _get(Map storage map, bytes32 key, string memory errorMessage) private view returns (bytes32) {... */\n    tag_254:\n        /* \"contracts/External/EnumerableMap.sol\":2123:2130  bytes32 */\n      0x00\n        /* \"contracts/External/EnumerableMap.sol\":2143:2159  uint256 keyIndex */\n      dup1\n        /* \"contracts/External/EnumerableMap.sol\":2162:2165  map */\n      dup5\n        /* \"contracts/External/EnumerableMap.sol\":2162:2174  map._indexes */\n      0x01\n      add\n        /* \"contracts/External/EnumerableMap.sol\":2162:2179  map._indexes[key] */\n      0x00\n        /* \"contracts/External/EnumerableMap.sol\":2175:2178  key */\n      dup6\n        /* \"contracts/External/EnumerableMap.sol\":2162:2179  map._indexes[key] */\n      dup2\n      mstore\n      0x20\n      add\n      swap1\n      dup2\n      mstore\n      0x20\n      add\n      0x00\n      keccak256\n      sload\n        /* \"contracts/External/EnumerableMap.sol\":2143:2179  uint256 keyIndex = map._indexes[key] */\n      swap1\n      pop\n        /* \"contracts/External/EnumerableMap.sol\":2210:2211  0 */\n      0x00\n        /* \"contracts/External/EnumerableMap.sol\":2198:2206  keyIndex */\n      dup2\n        /* \"contracts/External/EnumerableMap.sol\":2198:2211  keyIndex != 0 */\n      eq\n      iszero\n        /* \"contracts/External/EnumerableMap.sol\":2213:2225  errorMessage */\n      dup4\n        /* \"contracts/External/EnumerableMap.sol\":2190:2226  require(keyIndex != 0, errorMessage) */\n      swap1\n      tag_318\n      jumpi\n      mload(0x40)\n      0x08c379a000000000000000000000000000000000000000000000000000000000\n      dup2\n      mstore\n      0x04\n      add\n      tag_319\n      swap2\n      swap1\n      tag_34\n      jump\t// in\n    tag_319:\n      mload(0x40)\n      dup1\n      swap2\n      sub\n      swap1\n      revert\n    tag_318:\n      pop\n        /* \"contracts/External/EnumerableMap.sol\":2280:2283  map */\n      dup5\n        /* \"contracts/External/EnumerableMap.sol\":2280:2292  map._entries */\n      0x00\n      add\n        /* \"contracts/External/EnumerableMap.sol\":2304:2305  1 */\n      0x01\n        /* \"contracts/External/EnumerableMap.sol\":2293:2301  keyIndex */\n      dup3\n        /* \"contracts/External/EnumerableMap.sol\":2293:2305  keyIndex - 1 */\n      tag_320\n      swap2\n      swap1\n      tag_280\n      jump\t// in\n    tag_320:\n        /* \"contracts/External/EnumerableMap.sol\":2280:2306  map._entries[keyIndex - 1] */\n      dup2\n      sload\n      dup2\n      lt\n      tag_321\n      jumpi\n      tag_322\n      tag_287\n      jump\t// in\n    tag_322:\n    tag_321:\n      swap1\n      0x00\n      mstore\n      keccak256(0x00, 0x20)\n      swap1\n      0x02\n      mul\n      add\n        /* \"contracts/External/EnumerableMap.sol\":2280:2313  map._entries[keyIndex - 1]._value */\n      0x01\n      add\n      sload\n        /* \"contracts/External/EnumerableMap.sol\":2273:2313  return map._entries[keyIndex - 1]._value */\n      swap2\n      pop\n      pop\n        /* \"contracts/External/EnumerableMap.sol\":2029:2348  function _get(Map storage map, bytes32 key, string memory errorMessage) private view returns (bytes32) {... */\n      swap4\n      swap3\n      pop\n      pop\n      pop\n      jump\t// out\n        /* \"contracts/External/EnumerableSet.sol\":1359:1468  function _length(Set storage set) private view returns (uint256) {... */\n    tag_257:\n        /* \"contracts/External/EnumerableSet.sol\":1415:1422  uint256 */\n      0x00\n        /* \"contracts/External/EnumerableSet.sol\":1442:1445  set */\n      dup2\n        /* \"contracts/External/EnumerableSet.sol\":1442:1453  set._values */\n      0x00\n      add\n        /* \"contracts/External/EnumerableSet.sol\":1442:1460  set._values.length */\n      dup1\n      sload\n      swap1\n      pop\n        /* \"contracts/External/EnumerableSet.sol\":1435:1460  return set._values.length */\n      swap1\n      pop\n        /* \"contracts/External/EnumerableSet.sol\":1359:1468  function _length(Set storage set) private view returns (uint256) {... */\n      swap2\n      swap1\n      pop\n      jump\t// out\n        /* \"contracts/ERC721.sol\":12056:12660  function _checkOnERC721Received(address from, address to, uint256 tokenId, bytes memory _data)... */\n    tag_261:\n        /* \"contracts/ERC721.sol\":12177:12181  bool */\n      0x00\n        /* \"contracts/ERC721.sol\":12204:12219  to.isContract() */\n      tag_326\n        /* \"contracts/ERC721.sol\":12204:12206  to */\n      dup5\n        /* \"contracts/ERC721.sol\":12204:12217  to.isContract */\n      0xffffffffffffffffffffffffffffffffffffffff\n      and\n      tag_327\n        /* \"contracts/ERC721.sol\":12204:12219  to.isContract() */\n      jump\t// in\n    tag_326:\n        /* \"contracts/ERC721.sol\":12199:12259  if (!to.isContract()) {... */\n      tag_328\n      jumpi\n        /* \"contracts/ERC721.sol\":12243:12247  true */\n      0x01\n        /* \"contracts/ERC721.sol\":12236:12247  return true */\n      swap1\n      pop\n      jump(tag_325)\n        /* \"contracts/ERC721.sol\":12199:12259  if (!to.isContract()) {... */\n    tag_328:\n        /* \"contracts/ERC721.sol\":12269:12292  bytes memory returndata */\n      0x00\n        /* \"contracts/ERC721.sol\":12295:12547  to.functionCall(abi.encodeWithSelector(... */\n      tag_329\n        /* \"contracts/ERC721.sol\":12348:12393  IERC721Receiver(to).onERC721Received.selector */\n      shl(0xe0, 0x150b7a02)\n        /* \"contracts/ERC721.sol\":12408:12420  _msgSender() */\n      tag_330\n        /* \"contracts/ERC721.sol\":12408:12418  _msgSender */\n      tag_124\n        /* \"contracts/ERC721.sol\":12408:12420  _msgSender() */\n      jump\t// in\n    tag_330:\n        /* \"contracts/ERC721.sol\":12435:12439  from */\n      dup9\n        /* \"contracts/ERC721.sol\":12454:12461  tokenId */\n      dup8\n        /* \"contracts/ERC721.sol\":12476:12481  _data */\n      dup8\n        /* \"contracts/ERC721.sol\":12311:12492  abi.encodeWithSelector(... */\n      add(0x24, mload(0x40))\n      tag_331\n      swap5\n      swap4\n      swap3\n      swap2\n      swap1\n      tag_332\n      jump\t// in\n    tag_331:\n      mload(0x40)\n      0x20\n      dup2\n      dup4\n      sub\n      sub\n      dup2\n      mstore\n      swap1\n      0x40\n      mstore\n      swap1\n      not(0xffffffffffffffffffffffffffffffffffffffffffffffffffffffff)\n      and\n      0x20\n      dup3\n      add\n      dup1\n      mload\n      0xffffffffffffffffffffffffffffffffffffffffffffffffffffffff\n      dup4\n      dup2\n      dup4\n      and\n      or\n      dup4\n      mstore\n      pop\n      pop\n      pop\n      pop\n        /* \"contracts/ERC721.sol\":12295:12547  to.functionCall(abi.encodeWithSelector(... */\n      mload(0x40)\n      dup1\n      0x60\n      add\n      0x40\n      mstore\n      dup1\n      0x32\n      dup2\n      mstore\n      0x20\n      add\n      data_1e766a06da43a53d0f4c380e06e5a342e14d5af1bf8501996c844905530ca84e\n      0x32\n      swap2\n      codecopy\n        /* \"contracts/ERC721.sol\":12295:12297  to */\n      dup8\n        /* \"contracts/ERC721.sol\":12295:12310  to.functionCall */\n      0xffffffffffffffffffffffffffffffffffffffff\n      and\n      tag_333\n      swap1\n        /* \"contracts/ERC721.sol\":12295:12547  to.functionCall(abi.encodeWithSelector(... */\n      swap3\n      swap2\n      swap1\n      0xffffffff\n      and\n      jump\t// in\n    tag_329:\n        /* \"contracts/ERC721.sol\":12269:12547  bytes memory returndata = to.functionCall(abi.encodeWithSelector(... */\n      swap1\n      pop\n        /* \"contracts/ERC721.sol\":12558:12571  bytes4 retval */\n      0x00\n        /* \"contracts/ERC721.sol\":12585:12595  returndata */\n      dup2\n        /* \"contracts/ERC721.sol\":12574:12606  abi.decode(returndata, (bytes4)) */\n      dup1\n      0x20\n      add\n      swap1\n      mload\n      dup2\n      add\n      swap1\n      tag_334\n      swap2\n      swap1\n      tag_335\n      jump\t// in\n    tag_334:\n        /* \"contracts/ERC721.sol\":12558:12606  bytes4 retval = abi.decode(returndata, (bytes4)) */\n      swap1\n      pop\n        /* \"contracts/ERC721.sol\":812:822  0x150b7a02 */\n      0x150b7a02\n        /* \"contracts/ERC721.sol\":12635:12651  _ERC721_RECEIVED */\n      0xe0\n      shl\n        /* \"contracts/ERC721.sol\":12625:12651  retval == _ERC721_RECEIVED */\n      not(0xffffffffffffffffffffffffffffffffffffffffffffffffffffffff)\n      and\n        /* \"contracts/ERC721.sol\":12625:12631  retval */\n      dup2\n        /* \"contracts/ERC721.sol\":12625:12651  retval == _ERC721_RECEIVED */\n      not(0xffffffffffffffffffffffffffffffffffffffffffffffffffffffff)\n      and\n      eq\n        /* \"contracts/ERC721.sol\":12617:12652  return (retval == _ERC721_RECEIVED) */\n      swap3\n      pop\n      pop\n      pop\n        /* \"contracts/ERC721.sol\":12056:12660  function _checkOnERC721Received(address from, address to, uint256 tokenId, bytes memory _data)... */\n    tag_325:\n      swap5\n      swap4\n      pop\n      pop\n      pop\n      pop\n      jump\t// out\n        /* \"contracts/External/EnumerableMap.sol\":1491:1616  function _contains(Map storage map, bytes32 key) private view returns (bool) {... */\n    tag_291:\n        /* \"contracts/External/EnumerableMap.sol\":1562:1566  bool */\n      0x00\n        /* \"contracts/External/EnumerableMap.sol\":1607:1608  0 */\n      dup1\n        /* \"contracts/External/EnumerableMap.sol\":1586:1589  map */\n      dup4\n        /* \"contracts/External/EnumerableMap.sol\":1586:1598  map._indexes */\n      0x01\n      add\n        /* \"contracts/External/EnumerableMap.sol\":1586:1603  map._indexes[key] */\n      0x00\n        /* \"contracts/External/EnumerableMap.sol\":1599:1602  key */\n      dup5\n        /* \"contracts/External/EnumerableMap.sol\":1586:1603  map._indexes[key] */\n      dup2\n      mstore\n      0x20\n      add\n      swap1\n      dup2\n      mstore\n      0x20\n      add\n      0x00\n      keccak256\n      sload\n        /* \"contracts/External/EnumerableMap.sol\":1586:1608  map._indexes[key] != 0 */\n      eq\n      iszero\n        /* \"contracts/External/EnumerableMap.sol\":1579:1608  return map._indexes[key] != 0 */\n      swap1\n      pop\n        /* \"contracts/External/EnumerableMap.sol\":1491:1616  function _contains(Map storage map, bytes32 key) private view returns (bool) {... */\n      swap3\n      swap2\n      pop\n      pop\n      jump\t// out\n        /* \"contracts/External/EnumerableSet.sol\":543:1214  function _remove(Set storage set, bytes32 value) private returns (bool) {... */\n    tag_296:\n        /* \"contracts/External/EnumerableSet.sol\":609:613  bool */\n      0x00\n        /* \"contracts/External/EnumerableSet.sol\":626:644  uint256 valueIndex */\n      dup1\n        /* \"contracts/External/EnumerableSet.sol\":647:650  set */\n      dup4\n        /* \"contracts/External/EnumerableSet.sol\":647:659  set._indexes */\n      0x01\n      add\n        /* \"contracts/External/EnumerableSet.sol\":647:666  set._indexes[value] */\n      0x00\n        /* \"contracts/External/EnumerableSet.sol\":660:665  value */\n      dup5\n        /* \"contracts/External/EnumerableSet.sol\":647:666  set._indexes[value] */\n      dup2\n      mstore\n      0x20\n      add\n      swap1\n      dup2\n      mstore\n      0x20\n      add\n      0x00\n      keccak256\n      sload\n        /* \"contracts/External/EnumerableSet.sol\":626:666  uint256 valueIndex = set._indexes[value] */\n      swap1\n      pop\n        /* \"contracts/External/EnumerableSet.sol\":697:698  0 */\n      0x00\n        /* \"contracts/External/EnumerableSet.sol\":683:693  valueIndex */\n      dup2\n        /* \"contracts/External/EnumerableSet.sol\":683:698  valueIndex != 0 */\n      eq\n        /* \"contracts/External/EnumerableSet.sol\":679:1207  if (valueIndex != 0) { // Equivalent to contains(set, value)... */\n      tag_338\n      jumpi\n        /* \"contracts/External/EnumerableSet.sol\":753:774  uint256 toDeleteIndex */\n      0x00\n        /* \"contracts/External/EnumerableSet.sol\":790:791  1 */\n      0x01\n        /* \"contracts/External/EnumerableSet.sol\":777:787  valueIndex */\n      dup3\n        /* \"contracts/External/EnumerableSet.sol\":777:791  valueIndex - 1 */\n      tag_339\n      swap2\n      swap1\n      tag_280\n      jump\t// in\n    tag_339:\n        /* \"contracts/External/EnumerableSet.sol\":753:791  uint256 toDeleteIndex = valueIndex - 1 */\n      swap1\n      pop\n        /* \"contracts/External/EnumerableSet.sol\":806:823  uint256 lastIndex */\n      0x00\n        /* \"contracts/External/EnumerableSet.sol\":847:848  1 */\n      0x01\n        /* \"contracts/External/EnumerableSet.sol\":826:829  set */\n      dup7\n        /* \"contracts/External/EnumerableSet.sol\":826:837  set._values */\n      0x00\n      add\n        /* \"contracts/External/EnumerableSet.sol\":826:844  set._values.length */\n      dup1\n      sload\n      swap1\n      pop\n        /* \"contracts/External/EnumerableSet.sol\":826:848  set._values.length - 1 */\n      tag_340\n      swap2\n      swap1\n      tag_280\n      jump\t// in\n    tag_340:\n        /* \"contracts/External/EnumerableSet.sol\":806:848  uint256 lastIndex = set._values.length - 1 */\n      swap1\n      pop\n        /* \"contracts/External/EnumerableSet.sol\":863:880  bytes32 lastvalue */\n      0x00\n        /* \"contracts/External/EnumerableSet.sol\":883:886  set */\n      dup7\n        /* \"contracts/External/EnumerableSet.sol\":883:894  set._values */\n      0x00\n      add\n        /* \"contracts/External/EnumerableSet.sol\":895:904  lastIndex */\n      dup3\n        /* \"contracts/External/EnumerableSet.sol\":883:905  set._values[lastIndex] */\n      dup2\n      sload\n      dup2\n      lt\n      tag_341\n      jumpi\n      tag_342\n      tag_287\n      jump\t// in\n    tag_342:\n    tag_341:\n      swap1\n      0x00\n      mstore\n      keccak256(0x00, 0x20)\n      add\n      sload\n        /* \"contracts/External/EnumerableSet.sol\":863:905  bytes32 lastvalue = set._values[lastIndex] */\n      swap1\n      pop\n        /* \"contracts/External/EnumerableSet.sol\":951:960  lastvalue */\n      dup1\n        /* \"contracts/External/EnumerableSet.sol\":922:925  set */\n      dup8\n        /* \"contracts/External/EnumerableSet.sol\":922:933  set._values */\n      0x00\n      add\n        /* \"contracts/External/EnumerableSet.sol\":934:947  toDeleteIndex */\n      dup5\n        /* \"contracts/External/EnumerableSet.sol\":922:948  set._values[toDeleteIndex] */\n      dup2\n      sload\n      dup2\n      lt\n      tag_344\n      jumpi\n      tag_345\n      tag_287\n      jump\t// in\n    tag_345:\n    tag_344:\n      swap1\n      0x00\n      mstore\n      keccak256(0x00, 0x20)\n      add\n        /* \"contracts/External/EnumerableSet.sol\":922:960  set._values[toDeleteIndex] = lastvalue */\n      dup2\n      swap1\n      sstore\n      pop\n        /* \"contracts/External/EnumerableSet.sol\":1017:1018  1 */\n      0x01\n        /* \"contracts/External/EnumerableSet.sol\":1001:1014  toDeleteIndex */\n      dup4\n        /* \"contracts/External/EnumerableSet.sol\":1001:1018  toDeleteIndex + 1 */\n      tag_347\n      swap2\n      swap1\n      tag_284\n      jump\t// in\n    tag_347:\n        /* \"contracts/External/EnumerableSet.sol\":975:978  set */\n      dup8\n        /* \"contracts/External/EnumerableSet.sol\":975:987  set._indexes */\n      0x01\n      add\n        /* \"contracts/External/EnumerableSet.sol\":975:998  set._indexes[lastvalue] */\n      0x00\n        /* \"contracts/External/EnumerableSet.sol\":988:997  lastvalue */\n      dup4\n        /* \"contracts/External/EnumerableSet.sol\":975:998  set._indexes[lastvalue] */\n      dup2\n      mstore\n      0x20\n      add\n      swap1\n      dup2\n      mstore\n      0x20\n      add\n      0x00\n      keccak256\n        /* \"contracts/External/EnumerableSet.sol\":975:1018  set._indexes[lastvalue] = toDeleteIndex + 1 */\n      dup2\n      swap1\n      sstore\n      pop\n        /* \"contracts/External/EnumerableSet.sol\":1062:1065  set */\n      dup7\n        /* \"contracts/External/EnumerableSet.sol\":1062:1073  set._values */\n      0x00\n      add\n        /* \"contracts/External/EnumerableSet.sol\":1062:1079  set._values.pop() */\n      dup1\n      sload\n      dup1\n      tag_348\n      jumpi\n      tag_349\n      tag_350\n      jump\t// in\n    tag_349:\n    tag_348:\n      0x01\n      swap1\n      sub\n      dup2\n      dup2\n      swap1\n      0x00\n      mstore\n      keccak256(0x00, 0x20)\n      add\n      0x00\n      swap1\n      sstore\n      swap1\n      sstore\n        /* \"contracts/External/EnumerableSet.sol\":1103:1106  set */\n      dup7\n        /* \"contracts/External/EnumerableSet.sol\":1103:1115  set._indexes */\n      0x01\n      add\n        /* \"contracts/External/EnumerableSet.sol\":1103:1122  set._indexes[value] */\n      0x00\n        /* \"contracts/External/EnumerableSet.sol\":1116:1121  value */\n      dup8\n        /* \"contracts/External/EnumerableSet.sol\":1103:1122  set._indexes[value] */\n      dup2\n      mstore\n      0x20\n      add\n      swap1\n      dup2\n      mstore\n      0x20\n      add\n      0x00\n      keccak256\n        /* \"contracts/External/EnumerableSet.sol\":1096:1122  delete set._indexes[value] */\n      0x00\n      swap1\n      sstore\n        /* \"contracts/External/EnumerableSet.sol\":1146:1150  true */\n      0x01\n        /* \"contracts/External/EnumerableSet.sol\":1139:1150  return true */\n      swap5\n      pop\n      pop\n      pop\n      pop\n      pop\n      jump(tag_337)\n        /* \"contracts/External/EnumerableSet.sol\":679:1207  if (valueIndex != 0) { // Equivalent to contains(set, value)... */\n    tag_338:\n        /* \"contracts/External/EnumerableSet.sol\":1190:1195  false */\n      0x00\n        /* \"contracts/External/EnumerableSet.sol\":1183:1195  return false */\n      swap2\n      pop\n      pop\n        /* \"contracts/External/EnumerableSet.sol\":543:1214  function _remove(Set storage set, bytes32 value) private returns (bool) {... */\n    tag_337:\n      swap3\n      swap2\n      pop\n      pop\n      jump\t// out\n        /* \"contracts/External/EnumerableSet.sol\":244:535  function _add(Set storage set, bytes32 value) private returns (bool) {... */\n    tag_299:\n        /* \"contracts/External/EnumerableSet.sol\":307:311  bool */\n      0x00\n        /* \"contracts/External/EnumerableSet.sol\":329:350  _contains(set, value) */\n      tag_354\n        /* \"contracts/External/EnumerableSet.sol\":339:342  set */\n      dup4\n        /* \"contracts/External/EnumerableSet.sol\":344:349  value */\n      dup4\n        /* \"contracts/External/EnumerableSet.sol\":329:338  _contains */\n      tag_355\n        /* \"contracts/External/EnumerableSet.sol\":329:350  _contains(set, value) */\n      jump\t// in\n    tag_354:\n        /* \"contracts/External/EnumerableSet.sol\":324:528  if (!_contains(set, value)) {... */\n      tag_356\n      jumpi\n        /* \"contracts/External/EnumerableSet.sol\":367:370  set */\n      dup3\n        /* \"contracts/External/EnumerableSet.sol\":367:378  set._values */\n      0x00\n      add\n        /* \"contracts/External/EnumerableSet.sol\":384:389  value */\n      dup3\n        /* \"contracts/External/EnumerableSet.sol\":367:390  set._values.push(value) */\n      swap1\n      dup1\n      0x01\n      dup2\n      sload\n      add\n      dup1\n      dup3\n      sstore\n      dup1\n      swap2\n      pop\n      pop\n      0x01\n      swap1\n      sub\n      swap1\n      0x00\n      mstore\n      keccak256(0x00, 0x20)\n      add\n      0x00\n      swap1\n      swap2\n      swap1\n      swap2\n      swap1\n      swap2\n      pop\n      sstore\n        /* \"contracts/External/EnumerableSet.sol\":427:430  set */\n      dup3\n        /* \"contracts/External/EnumerableSet.sol\":427:438  set._values */\n      0x00\n      add\n        /* \"contracts/External/EnumerableSet.sol\":427:445  set._values.length */\n      dup1\n      sload\n      swap1\n      pop\n        /* \"contracts/External/EnumerableSet.sol\":405:408  set */\n      dup4\n        /* \"contracts/External/EnumerableSet.sol\":405:417  set._indexes */\n      0x01\n      add\n        /* \"contracts/External/EnumerableSet.sol\":405:424  set._indexes[value] */\n      0x00\n        /* \"contracts/External/EnumerableSet.sol\":418:423  value */\n      dup5\n        /* \"contracts/External/EnumerableSet.sol\":405:424  set._indexes[value] */\n      dup2\n      mstore\n      0x20\n      add\n      swap1\n      dup2\n      mstore\n      0x20\n      add\n      0x00\n      keccak256\n        /* \"contracts/External/EnumerableSet.sol\":405:445  set._indexes[value] = set._values.length */\n      dup2\n      swap1\n      sstore\n      pop\n        /* \"contracts/External/EnumerableSet.sol\":467:471  true */\n      0x01\n        /* \"contracts/External/EnumerableSet.sol\":460:471  return true */\n      swap1\n      pop\n      jump(tag_353)\n        /* \"contracts/External/EnumerableSet.sol\":324:528  if (!_contains(set, value)) {... */\n    tag_356:\n        /* \"contracts/External/EnumerableSet.sol\":511:516  false */\n      0x00\n        /* \"contracts/External/EnumerableSet.sol\":504:516  return false */\n      swap1\n      pop\n        /* \"contracts/External/EnumerableSet.sol\":244:535  function _add(Set storage set, bytes32 value) private returns (bool) {... */\n    tag_353:\n      swap3\n      swap2\n      pop\n      pop\n      jump\t// out\n        /* \"contracts/External/EnumerableMap.sol\":330:800  function _set(Map storage map, bytes32 key, bytes32 value) private returns (bool) {... */\n    tag_302:\n        /* \"contracts/External/EnumerableMap.sol\":406:410  bool */\n      0x00\n        /* \"contracts/External/EnumerableMap.sol\":423:439  uint256 keyIndex */\n      dup1\n        /* \"contracts/External/EnumerableMap.sol\":442:445  map */\n      dup5\n        /* \"contracts/External/EnumerableMap.sol\":442:454  map._indexes */\n      0x01\n      add\n        /* \"contracts/External/EnumerableMap.sol\":442:459  map._indexes[key] */\n      0x00\n        /* \"contracts/External/EnumerableMap.sol\":455:458  key */\n      dup6\n        /* \"contracts/External/EnumerableMap.sol\":442:459  map._indexes[key] */\n      dup2\n      mstore\n      0x20\n      add\n      swap1\n      dup2\n      mstore\n      0x20\n      add\n      0x00\n      keccak256\n      sload\n        /* \"contracts/External/EnumerableMap.sol\":423:459  uint256 keyIndex = map._indexes[key] */\n      swap1\n      pop\n        /* \"contracts/External/EnumerableMap.sol\":488:489  0 */\n      0x00\n        /* \"contracts/External/EnumerableMap.sol\":476:484  keyIndex */\n      dup2\n        /* \"contracts/External/EnumerableMap.sol\":476:489  keyIndex == 0 */\n      sub\n        /* \"contracts/External/EnumerableMap.sol\":472:793  if (keyIndex == 0) { // Equivalent to !contains(map, key)... */\n      tag_360\n      jumpi\n        /* \"contracts/External/EnumerableMap.sol\":543:546  map */\n      dup5\n        /* \"contracts/External/EnumerableMap.sol\":543:555  map._entries */\n      0x00\n      add\n        /* \"contracts/External/EnumerableMap.sol\":561:599  MapEntry({ _key: key, _value: value }) */\n      mload(0x40)\n      dup1\n      0x40\n      add\n      0x40\n      mstore\n      dup1\n        /* \"contracts/External/EnumerableMap.sol\":578:581  key */\n      dup7\n        /* \"contracts/External/EnumerableMap.sol\":561:599  MapEntry({ _key: key, _value: value }) */\n      dup2\n      mstore\n      0x20\n      add\n        /* \"contracts/External/EnumerableMap.sol\":591:596  value */\n      dup6\n        /* \"contracts/External/EnumerableMap.sol\":561:599  MapEntry({ _key: key, _value: value }) */\n      dup2\n      mstore\n      pop\n        /* \"contracts/External/EnumerableMap.sol\":543:600  map._entries.push(MapEntry({ _key: key, _value: value })) */\n      swap1\n      dup1\n      0x01\n      dup2\n      sload\n      add\n      dup1\n      dup3\n      sstore\n      dup1\n      swap2\n      pop\n      pop\n      0x01\n      swap1\n      sub\n      swap1\n      0x00\n      mstore\n      keccak256(0x00, 0x20)\n      swap1\n      0x02\n      mul\n      add\n      0x00\n      swap1\n      swap2\n      swap1\n      swap2\n      swap1\n      swap2\n      pop\n      0x00\n      dup3\n      add\n      mload\n      dup2\n      0x00\n      add\n      sstore\n      0x20\n      dup3\n      add\n      mload\n      dup2\n      0x01\n      add\n      sstore\n      pop\n      pop\n        /* \"contracts/External/EnumerableMap.sol\":635:638  map */\n      dup5\n        /* \"contracts/External/EnumerableMap.sol\":635:647  map._entries */\n      0x00\n      add\n        /* \"contracts/External/EnumerableMap.sol\":635:654  map._entries.length */\n      dup1\n      sload\n      swap1\n      pop\n        /* \"contracts/External/EnumerableMap.sol\":615:618  map */\n      dup6\n        /* \"contracts/External/EnumerableMap.sol\":615:627  map._indexes */\n      0x01\n      add\n        /* \"contracts/External/EnumerableMap.sol\":615:632  map._indexes[key] */\n      0x00\n        /* \"contracts/External/EnumerableMap.sol\":628:631  key */\n      dup7\n        /* \"contracts/External/EnumerableMap.sol\":615:632  map._indexes[key] */\n      dup2\n      mstore\n      0x20\n      add\n      swap1\n      dup2\n      mstore\n      0x20\n      add\n      0x00\n      keccak256\n        /* \"contracts/External/EnumerableMap.sol\":615:654  map._indexes[key] = map._entries.length */\n      dup2\n      swap1\n      sstore\n      pop\n        /* \"contracts/External/EnumerableMap.sol\":676:680  true */\n      0x01\n        /* \"contracts/External/EnumerableMap.sol\":669:680  return true */\n      swap2\n      pop\n      pop\n      jump(tag_359)\n        /* \"contracts/External/EnumerableMap.sol\":472:793  if (keyIndex == 0) { // Equivalent to !contains(map, key)... */\n    tag_360:\n        /* \"contracts/External/EnumerableMap.sol\":749:754  value */\n      dup3\n        /* \"contracts/External/EnumerableMap.sol\":713:716  map */\n      dup6\n        /* \"contracts/External/EnumerableMap.sol\":713:725  map._entries */\n      0x00\n      add\n        /* \"contracts/External/EnumerableMap.sol\":737:738  1 */\n      0x01\n        /* \"contracts/External/EnumerableMap.sol\":726:734  keyIndex */\n      dup4\n        /* \"contracts/External/EnumerableMap.sol\":726:738  keyIndex - 1 */\n      tag_363\n      swap2\n      swap1\n      tag_280\n      jump\t// in\n    tag_363:\n        /* \"contracts/External/EnumerableMap.sol\":713:739  map._entries[keyIndex - 1] */\n      dup2\n      sload\n      dup2\n      lt\n      tag_364\n      jumpi\n      tag_365\n      tag_287\n      jump\t// in\n    tag_365:\n    tag_364:\n      swap1\n      0x00\n      mstore\n      keccak256(0x00, 0x20)\n      swap1\n      0x02\n      mul\n      add\n        /* \"contracts/External/EnumerableMap.sol\":713:746  map._entries[keyIndex - 1]._value */\n      0x01\n      add\n        /* \"contracts/External/EnumerableMap.sol\":713:754  map._entries[keyIndex - 1]._value = value */\n      dup2\n      swap1\n      sstore\n      pop\n        /* \"contracts/External/EnumerableMap.sol\":776:781  false */\n      0x00\n        /* \"contracts/External/EnumerableMap.sol\":769:781  return false */\n      swap2\n      pop\n      pop\n        /* \"contracts/External/EnumerableMap.sol\":330:800  function _set(Map storage map, bytes32 key, bytes32 value) private returns (bool) {... */\n    tag_359:\n      swap4\n      swap3\n      pop\n      pop\n      pop\n      jump\t// out\n        /* \"contracts/External/Address.sol\":1191:1517  function isContract(address account) internal view returns (bool) {... */\n    tag_327:\n        /* \"contracts/External/Address.sol\":1251:1255  bool */\n      0x00\n        /* \"contracts/External/Address.sol\":1508:1509  0 */\n      dup1\n        /* \"contracts/External/Address.sol\":1486:1493  account */\n      dup3\n        /* \"contracts/External/Address.sol\":1486:1505  account.code.length */\n      0xffffffffffffffffffffffffffffffffffffffff\n      and\n      extcodesize\n        /* \"contracts/External/Address.sol\":1486:1509  account.code.length > 0 */\n      gt\n        /* \"contracts/External/Address.sol\":1479:1509  return account.code.length > 0 */\n      swap1\n      pop\n        /* \"contracts/External/Address.sol\":1191:1517  function isContract(address account) internal view returns (bool) {... */\n      swap2\n      swap1\n      pop\n      jump\t// out\n        /* \"contracts/External/Address.sol\":3948:4177  function functionCall(... */\n    tag_333:\n        /* \"contracts/External/Address.sol\":4085:4097  bytes memory */\n      0x60\n        /* \"contracts/External/Address.sol\":4117:4169  functionCallWithValue(target, data, 0, errorMessage) */\n      tag_369\n        /* \"contracts/External/Address.sol\":4139:4145  target */\n      dup5\n        /* \"contracts/External/Address.sol\":4147:4151  data */\n      dup5\n        /* \"contracts/External/Address.sol\":4153:4154  0 */\n      0x00\n        /* \"contracts/External/Address.sol\":4156:4168  errorMessage */\n      dup6\n        /* \"contracts/External/Address.sol\":4117:4138  functionCallWithValue */\n      tag_370\n        /* \"contracts/External/Address.sol\":4117:4169  functionCallWithValue(target, data, 0, errorMessage) */\n      jump\t// in\n    tag_369:\n        /* \"contracts/External/Address.sol\":4110:4169  return functionCallWithValue(target, data, 0, errorMessage) */\n      swap1\n      pop\n        /* \"contracts/External/Address.sol\":3948:4177  function functionCall(... */\n      swap4\n      swap3\n      pop\n      pop\n      pop\n      jump\t// out\n        /* \"contracts/External/EnumerableSet.sol\":1222:1351  function _contains(Set storage set, bytes32 value) private view returns (bool) {... */\n    tag_355:\n        /* \"contracts/External/EnumerableSet.sol\":1295:1299  bool */\n      0x00\n        /* \"contracts/External/EnumerableSet.sol\":1342:1343  0 */\n      dup1\n        /* \"contracts/External/EnumerableSet.sol\":1319:1322  set */\n      dup4\n        /* \"contracts/External/EnumerableSet.sol\":1319:1331  set._indexes */\n      0x01\n      add\n        /* \"contracts/External/EnumerableSet.sol\":1319:1338  set._indexes[value] */\n      0x00\n        /* \"contracts/External/EnumerableSet.sol\":1332:1337  value */\n      dup5\n        /* \"contracts/External/EnumerableSet.sol\":1319:1338  set._indexes[value] */\n      dup2\n      mstore\n      0x20\n      add\n      swap1\n      dup2\n      mstore\n      0x20\n      add\n      0x00\n      keccak256\n      sload\n        /* \"contracts/External/EnumerableSet.sol\":1319:1343  set._indexes[value] != 0 */\n      eq\n      iszero\n        /* \"contracts/External/EnumerableSet.sol\":1312:1343  return set._indexes[value] != 0 */\n      swap1\n      pop\n        /* \"contracts/External/EnumerableSet.sol\":1222:1351  function _contains(Set storage set, bytes32 value) private view returns (bool) {... */\n      swap3\n      swap2\n      pop\n      pop\n      jump\t// out\n        /* \"contracts/External/Address.sol\":5068:5523  function functionCallWithValue(... */\n    tag_370:\n        /* \"contracts/External/Address.sol\":5238:5250  bytes memory */\n      0x60\n        /* \"contracts/External/Address.sol\":5296:5301  value */\n      dup3\n        /* \"contracts/External/Address.sol\":5271:5292  address(this).balance */\n      selfbalance\n        /* \"contracts/External/Address.sol\":5271:5301  address(this).balance >= value */\n      lt\n      iszero\n        /* \"contracts/External/Address.sol\":5263:5344  require(address(this).balance >= value, \"Address: insufficient balance for call\") */\n      tag_373\n      jumpi\n      mload(0x40)\n      0x08c379a000000000000000000000000000000000000000000000000000000000\n      dup2\n      mstore\n      0x04\n      add\n      tag_374\n      swap1\n      tag_375\n      jump\t// in\n    tag_374:\n      mload(0x40)\n      dup1\n      swap2\n      sub\n      swap1\n      revert\n    tag_373:\n        /* \"contracts/External/Address.sol\":5356:5368  bool success */\n      0x00\n        /* \"contracts/External/Address.sol\":5370:5393  bytes memory returndata */\n      dup1\n        /* \"contracts/External/Address.sol\":5397:5403  target */\n      dup7\n        /* \"contracts/External/Address.sol\":5397:5408  target.call */\n      0xffffffffffffffffffffffffffffffffffffffff\n      and\n        /* \"contracts/External/Address.sol\":5416:5421  value */\n      dup6\n        /* \"contracts/External/Address.sol\":5423:5427  data */\n      dup8\n        /* \"contracts/External/Address.sol\":5397:5428  target.call{value: value}(data) */\n      mload(0x40)\n      tag_376\n      swap2\n      swap1\n      tag_377\n      jump\t// in\n    tag_376:\n      0x00\n      mload(0x40)\n      dup1\n      dup4\n      sub\n      dup2\n      dup6\n      dup8\n      gas\n      call\n      swap3\n      pop\n      pop\n      pop\n      returndatasize\n      dup1\n      0x00\n      dup2\n      eq\n      tag_380\n      jumpi\n      mload(0x40)\n      swap2\n      pop\n      and(add(returndatasize, 0x3f), not(0x1f))\n      dup3\n      add\n      0x40\n      mstore\n      returndatasize\n      dup3\n      mstore\n      returndatasize\n      0x00\n      0x20\n      dup5\n      add\n      returndatacopy\n      jump(tag_379)\n    tag_380:\n      0x60\n      swap2\n      pop\n    tag_379:\n      pop\n        /* \"contracts/External/Address.sol\":5355:5428  (bool success, bytes memory returndata) = target.call{value: value}(data) */\n      swap2\n      pop\n      swap2\n      pop\n        /* \"contracts/External/Address.sol\":5446:5515  verifyCallResultFromTarget(target, success, returndata, errorMessage) */\n      tag_381\n        /* \"contracts/External/Address.sol\":5473:5479  target */\n      dup8\n        /* \"contracts/External/Address.sol\":5481:5488  success */\n      dup4\n        /* \"contracts/External/Address.sol\":5490:5500  returndata */\n      dup4\n        /* \"contracts/External/Address.sol\":5502:5514  errorMessage */\n      dup8\n        /* \"contracts/External/Address.sol\":5446:5472  verifyCallResultFromTarget */\n      tag_382\n        /* \"contracts/External/Address.sol\":5446:5515  verifyCallResultFromTarget(target, success, returndata, errorMessage) */\n      jump\t// in\n    tag_381:\n        /* \"contracts/External/Address.sol\":5439:5515  return verifyCallResultFromTarget(target, success, returndata, errorMessage) */\n      swap3\n      pop\n      pop\n      pop\n        /* \"contracts/External/Address.sol\":5068:5523  function functionCallWithValue(... */\n      swap5\n      swap4\n      pop\n      pop\n      pop\n      pop\n      jump\t// out\n        /* \"contracts/External/Address.sol\":7641:8285  function verifyCallResultFromTarget(... */\n    tag_382:\n        /* \"contracts/External/Address.sol\":7826:7838  bytes memory */\n      0x60\n        /* \"contracts/External/Address.sol\":7855:7862  success */\n      dup4\n        /* \"contracts/External/Address.sol\":7851:8278  if (success) {... */\n      iszero\n      tag_384\n      jumpi\n        /* \"contracts/External/Address.sol\":7904:7905  0 */\n      0x00\n        /* \"contracts/External/Address.sol\":7883:7893  returndata */\n      dup4\n        /* \"contracts/External/Address.sol\":7883:7900  returndata.length */\n      mload\n        /* \"contracts/External/Address.sol\":7883:7905  returndata.length == 0 */\n      sub\n        /* \"contracts/External/Address.sol\":7879:8169  if (returndata.length == 0) {... */\n      tag_385\n      jumpi\n        /* \"contracts/External/Address.sol\":8101:8119  isContract(target) */\n      tag_386\n        /* \"contracts/External/Address.sol\":8112:8118  target */\n      dup6\n        /* \"contracts/External/Address.sol\":8101:8111  isContract */\n      tag_327\n        /* \"contracts/External/Address.sol\":8101:8119  isContract(target) */\n      jump\t// in\n    tag_386:\n        /* \"contracts/External/Address.sol\":8093:8153  require(isContract(target), \"Address: call to non-contract\") */\n      tag_387\n      jumpi\n      mload(0x40)\n      0x08c379a000000000000000000000000000000000000000000000000000000000\n      dup2\n      mstore\n      0x04\n      add\n      tag_388\n      swap1\n      tag_389\n      jump\t// in\n    tag_388:\n      mload(0x40)\n      dup1\n      swap2\n      sub\n      swap1\n      revert\n    tag_387:\n        /* \"contracts/External/Address.sol\":7879:8169  if (returndata.length == 0) {... */\n    tag_385:\n        /* \"contracts/External/Address.sol\":8190:8200  returndata */\n      dup3\n        /* \"contracts/External/Address.sol\":8183:8200  return returndata */\n      swap1\n      pop\n      jump(tag_383)\n        /* \"contracts/External/Address.sol\":7851:8278  if (success) {... */\n    tag_384:\n        /* \"contracts/External/Address.sol\":8233:8266  _revert(returndata, errorMessage) */\n      tag_391\n        /* \"contracts/External/Address.sol\":8241:8251  returndata */\n      dup4\n        /* \"contracts/External/Address.sol\":8253:8265  errorMessage */\n      dup4\n        /* \"contracts/External/Address.sol\":8233:8240  _revert */\n      tag_392\n        /* \"contracts/External/Address.sol\":8233:8266  _revert(returndata, errorMessage) */\n      jump\t// in\n    tag_391:\n        /* \"contracts/External/Address.sol\":7641:8285  function verifyCallResultFromTarget(... */\n    tag_383:\n      swap5\n      swap4\n      pop\n      pop\n      pop\n      pop\n      jump\t// out\n        /* \"contracts/External/Address.sol\":8827:9379  function _revert(bytes memory returndata, string memory errorMessage) private pure {... */\n    tag_392:\n        /* \"contracts/External/Address.sol\":9008:9009  0 */\n      0x00\n        /* \"contracts/External/Address.sol\":8988:8998  returndata */\n      dup3\n        /* \"contracts/External/Address.sol\":8988:9005  returndata.length */\n      mload\n        /* \"contracts/External/Address.sol\":8988:9009  returndata.length > 0 */\n      gt\n        /* \"contracts/External/Address.sol\":8984:9372  if (returndata.length > 0) {... */\n      iszero\n      tag_394\n      jumpi\n        /* \"contracts/External/Address.sol\":9220:9230  returndata */\n      dup2\n        /* \"contracts/External/Address.sol\":9214:9231  mload(returndata) */\n      mload\n        /* \"contracts/External/Address.sol\":9277:9292  returndata_size */\n      dup1\n        /* \"contracts/External/Address.sol\":9264:9274  returndata */\n      dup4\n        /* \"contracts/External/Address.sol\":9260:9262  32 */\n      0x20\n        /* \"contracts/External/Address.sol\":9256:9275  add(32, returndata) */\n      add\n        /* \"contracts/External/Address.sol\":9249:9293  revert(add(32, returndata), returndata_size) */\n      revert\n        /* \"contracts/External/Address.sol\":8984:9372  if (returndata.length > 0) {... */\n    tag_394:\n        /* \"contracts/External/Address.sol\":9347:9359  errorMessage */\n      dup1\n        /* \"contracts/External/Address.sol\":9340:9360  revert(errorMessage) */\n      mload(0x40)\n      0x08c379a000000000000000000000000000000000000000000000000000000000\n      dup2\n      mstore\n      0x04\n      add\n      tag_396\n      swap2\n      swap1\n      tag_34\n      jump\t// in\n    tag_396:\n      mload(0x40)\n      dup1\n      swap2\n      sub\n      swap1\n      revert\n        /* \"#utility.yul\":7:82   */\n    tag_397:\n        /* \"#utility.yul\":40:46   */\n      0x00\n        /* \"#utility.yul\":73:75   */\n      0x40\n        /* \"#utility.yul\":67:76   */\n      mload\n        /* \"#utility.yul\":57:76   */\n      swap1\n      pop\n        /* \"#utility.yul\":7:82   */\n      swap1\n      jump\t// out\n        /* \"#utility.yul\":88:205   */\n    tag_398:\n        /* \"#utility.yul\":197:198   */\n      0x00\n        /* \"#utility.yul\":194:195   */\n      dup1\n        /* \"#utility.yul\":187:199   */\n      revert\n        /* \"#utility.yul\":211:328   */\n    tag_399:\n        /* \"#utility.yul\":320:321   */\n      0x00\n        /* \"#utility.yul\":317:318   */\n      dup1\n        /* \"#utility.yul\":310:322   */\n      revert\n        /* \"#utility.yul\":334:483   */\n    tag_400:\n        /* \"#utility.yul\":370:377   */\n      0x00\n        /* \"#utility.yul\":410:476   */\n      0xffffffff00000000000000000000000000000000000000000000000000000000\n        /* \"#utility.yul\":403:408   */\n      dup3\n        /* \"#utility.yul\":399:477   */\n      and\n        /* \"#utility.yul\":388:477   */\n      swap1\n      pop\n        /* \"#utility.yul\":334:483   */\n      swap2\n      swap1\n      pop\n      jump\t// out\n        /* \"#utility.yul\":489:609   */\n    tag_401:\n        /* \"#utility.yul\":561:584   */\n      tag_478\n        /* \"#utility.yul\":578:583   */\n      dup2\n        /* \"#utility.yul\":561:584   */\n      tag_400\n      jump\t// in\n    tag_478:\n        /* \"#utility.yul\":554:559   */\n      dup2\n        /* \"#utility.yul\":551:585   */\n      eq\n        /* \"#utility.yul\":541:603   */\n      tag_479\n      jumpi\n        /* \"#utility.yul\":599:600   */\n      0x00\n        /* \"#utility.yul\":596:597   */\n      dup1\n        /* \"#utility.yul\":589:601   */\n      revert\n        /* \"#utility.yul\":541:603   */\n    tag_479:\n        /* \"#utility.yul\":489:609   */\n      pop\n      jump\t// out\n        /* \"#utility.yul\":615:752   */\n    tag_402:\n        /* \"#utility.yul\":660:665   */\n      0x00\n        /* \"#utility.yul\":698:704   */\n      dup2\n        /* \"#utility.yul\":685:705   */\n      calldataload\n        /* \"#utility.yul\":676:705   */\n      swap1\n      pop\n        /* \"#utility.yul\":714:746   */\n      tag_481\n        /* \"#utility.yul\":740:745   */\n      dup2\n        /* \"#utility.yul\":714:746   */\n      tag_401\n      jump\t// in\n    tag_481:\n        /* \"#utility.yul\":615:752   */\n      swap3\n      swap2\n      pop\n      pop\n      jump\t// out\n        /* \"#utility.yul\":758:1085   */\n    tag_27:\n        /* \"#utility.yul\":816:822   */\n      0x00\n        /* \"#utility.yul\":865:867   */\n      0x20\n        /* \"#utility.yul\":853:862   */\n      dup3\n        /* \"#utility.yul\":844:851   */\n      dup5\n        /* \"#utility.yul\":840:863   */\n      sub\n        /* \"#utility.yul\":836:868   */\n      slt\n        /* \"#utility.yul\":833:952   */\n      iszero\n      tag_483\n      jumpi\n        /* \"#utility.yul\":871:950   */\n      tag_484\n      tag_398\n      jump\t// in\n    tag_484:\n        /* \"#utility.yul\":833:952   */\n    tag_483:\n        /* \"#utility.yul\":991:992   */\n      0x00\n        /* \"#utility.yul\":1016:1068   */\n      tag_485\n        /* \"#utility.yul\":1060:1067   */\n      dup5\n        /* \"#utility.yul\":1051:1057   */\n      dup3\n        /* \"#utility.yul\":1040:1049   */\n      dup6\n        /* \"#utility.yul\":1036:1058   */\n      add\n        /* \"#utility.yul\":1016:1068   */\n      tag_402\n      jump\t// in\n    tag_485:\n        /* \"#utility.yul\":1006:1068   */\n      swap2\n      pop\n        /* \"#utility.yul\":962:1078   */\n      pop\n        /* \"#utility.yul\":758:1085   */\n      swap3\n      swap2\n      pop\n      pop\n      jump\t// out\n        /* \"#utility.yul\":1091:1181   */\n    tag_403:\n        /* \"#utility.yul\":1125:1132   */\n      0x00\n        /* \"#utility.yul\":1168:1173   */\n      dup2\n        /* \"#utility.yul\":1161:1174   */\n      iszero\n        /* \"#utility.yul\":1154:1175   */\n      iszero\n        /* \"#utility.yul\":1143:1175   */\n      swap1\n      pop\n        /* \"#utility.yul\":1091:1181   */\n      swap2\n      swap1\n      pop\n      jump\t// out\n        /* \"#utility.yul\":1187:1296   */\n    tag_404:\n        /* \"#utility.yul\":1268:1289   */\n      tag_488\n        /* \"#utility.yul\":1283:1288   */\n      dup2\n        /* \"#utility.yul\":1268:1289   */\n      tag_403\n      jump\t// in\n    tag_488:\n        /* \"#utility.yul\":1263:1266   */\n      dup3\n        /* \"#utility.yul\":1256:1290   */\n      mstore\n        /* \"#utility.yul\":1187:1296   */\n      pop\n      pop\n      jump\t// out\n        /* \"#utility.yul\":1302:1512   */\n    tag_30:\n        /* \"#utility.yul\":1389:1393   */\n      0x00\n        /* \"#utility.yul\":1427:1429   */\n      0x20\n        /* \"#utility.yul\":1416:1425   */\n      dup3\n        /* \"#utility.yul\":1412:1430   */\n      add\n        /* \"#utility.yul\":1404:1430   */\n      swap1\n      pop\n        /* \"#utility.yul\":1440:1505   */\n      tag_490\n        /* \"#utility.yul\":1502:1503   */\n      0x00\n        /* \"#utility.yul\":1491:1500   */\n      dup4\n        /* \"#utility.yul\":1487:1504   */\n      add\n        /* \"#utility.yul\":1478:1484   */\n      dup5\n        /* \"#utility.yul\":1440:1505   */\n      tag_404\n      jump\t// in\n    tag_490:\n        /* \"#utility.yul\":1302:1512   */\n      swap3\n      swap2\n      pop\n      pop\n      jump\t// out\n        /* \"#utility.yul\":1518:1617   */\n    tag_405:\n        /* \"#utility.yul\":1570:1576   */\n      0x00\n        /* \"#utility.yul\":1604:1609   */\n      dup2\n        /* \"#utility.yul\":1598:1610   */\n      mload\n        /* \"#utility.yul\":1588:1610   */\n      swap1\n      pop\n        /* \"#utility.yul\":1518:1617   */\n      swap2\n      swap1\n      pop\n      jump\t// out\n        /* \"#utility.yul\":1623:1792   */\n    tag_406:\n        /* \"#utility.yul\":1707:1718   */\n      0x00\n        /* \"#utility.yul\":1741:1747   */\n      dup3\n        /* \"#utility.yul\":1736:1739   */\n      dup3\n        /* \"#utility.yul\":1729:1748   */\n      mstore\n        /* \"#utility.yul\":1781:1785   */\n      0x20\n        /* \"#utility.yul\":1776:1779   */\n      dup3\n        /* \"#utility.yul\":1772:1786   */\n      add\n        /* \"#utility.yul\":1757:1786   */\n      swap1\n      pop\n        /* \"#utility.yul\":1623:1792   */\n      swap3\n      swap2\n      pop\n      pop\n      jump\t// out\n        /* \"#utility.yul\":1798:2044   */\n    tag_407:\n        /* \"#utility.yul\":1879:1880   */\n      0x00\n        /* \"#utility.yul\":1889:2002   */\n    tag_494:\n        /* \"#utility.yul\":1903:1909   */\n      dup4\n        /* \"#utility.yul\":1900:1901   */\n      dup2\n        /* \"#utility.yul\":1897:1910   */\n      lt\n        /* \"#utility.yul\":1889:2002   */\n      iszero\n      tag_496\n      jumpi\n        /* \"#utility.yul\":1988:1989   */\n      dup1\n        /* \"#utility.yul\":1983:1986   */\n      dup3\n        /* \"#utility.yul\":1979:1990   */\n      add\n        /* \"#utility.yul\":1973:1991   */\n      mload\n        /* \"#utility.yul\":1969:1970   */\n      dup2\n        /* \"#utility.yul\":1964:1967   */\n      dup5\n        /* \"#utility.yul\":1960:1971   */\n      add\n        /* \"#utility.yul\":1953:1992   */\n      mstore\n        /* \"#utility.yul\":1925:1927   */\n      0x20\n        /* \"#utility.yul\":1922:1923   */\n      dup2\n        /* \"#utility.yul\":1918:1928   */\n      add\n        /* \"#utility.yul\":1913:1928   */\n      swap1\n      pop\n        /* \"#utility.yul\":1889:2002   */\n      jump(tag_494)\n    tag_496:\n        /* \"#utility.yul\":2036:2037   */\n      0x00\n        /* \"#utility.yul\":2027:2033   */\n      dup5\n        /* \"#utility.yul\":2022:2025   */\n      dup5\n        /* \"#utility.yul\":2018:2034   */\n      add\n        /* \"#utility.yul\":2011:2038   */\n      mstore\n        /* \"#utility.yul\":1860:2044   */\n      pop\n        /* \"#utility.yul\":1798:2044   */\n      pop\n      pop\n      pop\n      jump\t// out\n        /* \"#utility.yul\":2050:2152   */\n    tag_408:\n        /* \"#utility.yul\":2091:2097   */\n      0x00\n        /* \"#utility.yul\":2142:2144   */\n      0x1f\n        /* \"#utility.yul\":2138:2145   */\n      not\n        /* \"#utility.yul\":2133:2135   */\n      0x1f\n        /* \"#utility.yul\":2126:2131   */\n      dup4\n        /* \"#utility.yul\":2122:2136   */\n      add\n        /* \"#utility.yul\":2118:2146   */\n      and\n        /* \"#utility.yul\":2108:2146   */\n      swap1\n      pop\n        /* \"#utility.yul\":2050:2152   */\n      swap2\n      swap1\n      pop\n      jump\t// out\n        /* \"#utility.yul\":2158:2535   */\n    tag_409:\n        /* \"#utility.yul\":2246:2249   */\n      0x00\n        /* \"#utility.yul\":2274:2313   */\n      tag_499\n        /* \"#utility.yul\":2307:2312   */\n      dup3\n        /* \"#utility.yul\":2274:2313   */\n      tag_405\n      jump\t// in\n    tag_499:\n        /* \"#utility.yul\":2329:2400   */\n      tag_500\n        /* \"#utility.yul\":2393:2399   */\n      dup2\n        /* \"#utility.yul\":2388:2391   */\n      dup6\n        /* \"#utility.yul\":2329:2400   */\n      tag_406\n      jump\t// in\n    tag_500:\n        /* \"#utility.yul\":2322:2400   */\n      swap4\n      pop\n        /* \"#utility.yul\":2409:2474   */\n      tag_501\n        /* \"#utility.yul\":2467:2473   */\n      dup2\n        /* \"#utility.yul\":2462:2465   */\n      dup6\n        /* \"#utility.yul\":2455:2459   */\n      0x20\n        /* \"#utility.yul\":2448:2453   */\n      dup7\n        /* \"#utility.yul\":2444:2460   */\n      add\n        /* \"#utility.yul\":2409:2474   */\n      tag_407\n      jump\t// in\n    tag_501:\n        /* \"#utility.yul\":2499:2528   */\n      tag_502\n        /* \"#utility.yul\":2521:2527   */\n      dup2\n        /* \"#utility.yul\":2499:2528   */\n      tag_408\n      jump\t// in\n    tag_502:\n        /* \"#utility.yul\":2494:2497   */\n      dup5\n        /* \"#utility.yul\":2490:2529   */\n      add\n        /* \"#utility.yul\":2483:2529   */\n      swap2\n      pop\n        /* \"#utility.yul\":2250:2535   */\n      pop\n        /* \"#utility.yul\":2158:2535   */\n      swap3\n      swap2\n      pop\n      pop\n      jump\t// out\n        /* \"#utility.yul\":2541:2854   */\n    tag_34:\n        /* \"#utility.yul\":2654:2658   */\n      0x00\n        /* \"#utility.yul\":2692:2694   */\n      0x20\n        /* \"#utility.yul\":2681:2690   */\n      dup3\n        /* \"#utility.yul\":2677:2695   */\n      add\n        /* \"#utility.yul\":2669:2695   */\n      swap1\n      pop\n        /* \"#utility.yul\":2741:2750   */\n      dup2\n        /* \"#utility.yul\":2735:2739   */\n      dup2\n        /* \"#utility.yul\":2731:2751   */\n      sub\n        /* \"#utility.yul\":2727:2728   */\n      0x00\n        /* \"#utility.yul\":2716:2725   */\n      dup4\n        /* \"#utility.yul\":2712:2729   */\n      add\n        /* \"#utility.yul\":2705:2752   */\n      mstore\n        /* \"#utility.yul\":2769:2847   */\n      tag_504\n        /* \"#utility.yul\":2842:2846   */\n      dup2\n        /* \"#utility.yul\":2833:2839   */\n      dup5\n        /* \"#utility.yul\":2769:2847   */\n      tag_409\n      jump\t// in\n    tag_504:\n        /* \"#utility.yul\":2761:2847   */\n      swap1\n      pop\n        /* \"#utility.yul\":2541:2854   */\n      swap3\n      swap2\n      pop\n      pop\n      jump\t// out\n        /* \"#utility.yul\":2860:2937   */\n    tag_410:\n        /* \"#utility.yul\":2897:2904   */\n      0x00\n        /* \"#utility.yul\":2926:2931   */\n      dup2\n        /* \"#utility.yul\":2915:2931   */\n      swap1\n      pop\n        /* \"#utility.yul\":2860:2937   */\n      swap2\n      swap1\n      pop\n      jump\t// out\n        /* \"#utility.yul\":2943:3065   */\n    tag_411:\n        /* \"#utility.yul\":3016:3040   */\n      tag_507\n        /* \"#utility.yul\":3034:3039   */\n      dup2\n        /* \"#utility.yul\":3016:3040   */\n      tag_410\n      jump\t// in\n    tag_507:\n        /* \"#utility.yul\":3009:3014   */\n      dup2\n        /* \"#utility.yul\":3006:3041   */\n      eq\n        /* \"#utility.yul\":2996:3059   */\n      tag_508\n      jumpi\n        /* \"#utility.yul\":3055:3056   */\n      0x00\n        /* \"#utility.yul\":3052:3053   */\n      dup1\n        /* \"#utility.yul\":3045:3057   */\n      revert\n        /* \"#utility.yul\":2996:3059   */\n    tag_508:\n        /* \"#utility.yul\":2943:3065   */\n      pop\n      jump\t// out\n        /* \"#utility.yul\":3071:3210   */\n    tag_412:\n        /* \"#utility.yul\":3117:3122   */\n      0x00\n        /* \"#utility.yul\":3155:3161   */\n      dup2\n        /* \"#utility.yul\":3142:3162   */\n      calldataload\n        /* \"#utility.yul\":3133:3162   */\n      swap1\n      pop\n        /* \"#utility.yul\":3171:3204   */\n      tag_510\n        /* \"#utility.yul\":3198:3203   */\n      dup2\n        /* \"#utility.yul\":3171:3204   */\n      tag_411\n      jump\t// in\n    tag_510:\n        /* \"#utility.yul\":3071:3210   */\n      swap3\n      swap2\n      pop\n      pop\n      jump\t// out\n        /* \"#utility.yul\":3216:3545   */\n    tag_37:\n        /* \"#utility.yul\":3275:3281   */\n      0x00\n        /* \"#utility.yul\":3324:3326   */\n      0x20\n        /* \"#utility.yul\":3312:3321   */\n      dup3\n        /* \"#utility.yul\":3303:3310   */\n      dup5\n        /* \"#utility.yul\":3299:3322   */\n      sub\n        /* \"#utility.yul\":3295:3327   */\n      slt\n        /* \"#utility.yul\":3292:3411   */\n      iszero\n      tag_512\n      jumpi\n        /* \"#utility.yul\":3330:3409   */\n      tag_513\n      tag_398\n      jump\t// in\n    tag_513:\n        /* \"#utility.yul\":3292:3411   */\n    tag_512:\n        /* \"#utility.yul\":3450:3451   */\n      0x00\n        /* \"#utility.yul\":3475:3528   */\n      tag_514\n        /* \"#utility.yul\":3520:3527   */\n      dup5\n        /* \"#utility.yul\":3511:3517   */\n      dup3\n        /* \"#utility.yul\":3500:3509   */\n      dup6\n        /* \"#utility.yul\":3496:3518   */\n      add\n        /* \"#utility.yul\":3475:3528   */\n      tag_412\n      jump\t// in\n    tag_514:\n        /* \"#utility.yul\":3465:3528   */\n      swap2\n      pop\n        /* \"#utility.yul\":3421:3538   */\n      pop\n        /* \"#utility.yul\":3216:3545   */\n      swap3\n      swap2\n      pop\n      pop\n      jump\t// out\n        /* \"#utility.yul\":3551:3677   */\n    tag_413:\n        /* \"#utility.yul\":3588:3595   */\n      0x00\n        /* \"#utility.yul\":3628:3670   */\n      0xffffffffffffffffffffffffffffffffffffffff\n        /* \"#utility.yul\":3621:3626   */\n      dup3\n        /* \"#utility.yul\":3617:3671   */\n      and\n        /* \"#utility.yul\":3606:3671   */\n      swap1\n      pop\n        /* \"#utility.yul\":3551:3677   */\n      swap2\n      swap1\n      pop\n      jump\t// out\n        /* \"#utility.yul\":3683:3779   */\n    tag_414:\n        /* \"#utility.yul\":3720:3727   */\n      0x00\n        /* \"#utility.yul\":3749:3773   */\n      tag_517\n        /* \"#utility.yul\":3767:3772   */\n      dup3\n        /* \"#utility.yul\":3749:3773   */\n      tag_413\n      jump\t// in\n    tag_517:\n        /* \"#utility.yul\":3738:3773   */\n      swap1\n      pop\n        /* \"#utility.yul\":3683:3779   */\n      swap2\n      swap1\n      pop\n      jump\t// out\n        /* \"#utility.yul\":3785:3903   */\n    tag_415:\n        /* \"#utility.yul\":3872:3896   */\n      tag_519\n        /* \"#utility.yul\":3890:3895   */\n      dup2\n        /* \"#utility.yul\":3872:3896   */\n      tag_414\n      jump\t// in\n    tag_519:\n        /* \"#utility.yul\":3867:3870   */\n      dup3\n        /* \"#utility.yul\":3860:3897   */\n      mstore\n        /* \"#utility.yul\":3785:3903   */\n      pop\n      pop\n      jump\t// out\n        /* \"#utility.yul\":3909:4131   */\n    tag_40:\n        /* \"#utility.yul\":4002:4006   */\n      0x00\n        /* \"#utility.yul\":4040:4042   */\n      0x20\n        /* \"#utility.yul\":4029:4038   */\n      dup3\n        /* \"#utility.yul\":4025:4043   */\n      add\n        /* \"#utility.yul\":4017:4043   */\n      swap1\n      pop\n        /* \"#utility.yul\":4053:4124   */\n      tag_521\n        /* \"#utility.yul\":4121:4122   */\n      0x00\n        /* \"#utility.yul\":4110:4119   */\n      dup4\n        /* \"#utility.yul\":4106:4123   */\n      add\n        /* \"#utility.yul\":4097:4103   */\n      dup5\n        /* \"#utility.yul\":4053:4124   */\n      tag_415\n      jump\t// in\n    tag_521:\n        /* \"#utility.yul\":3909:4131   */\n      swap3\n      swap2\n      pop\n      pop\n      jump\t// out\n        /* \"#utility.yul\":4137:4259   */\n    tag_416:\n        /* \"#utility.yul\":4210:4234   */\n      tag_523\n        /* \"#utility.yul\":4228:4233   */\n      dup2\n        /* \"#utility.yul\":4210:4234   */\n      tag_414\n      jump\t// in\n    tag_523:\n        /* \"#utility.yul\":4203:4208   */\n      dup2\n        /* \"#utility.yul\":4200:4235   */\n      eq\n        /* \"#utility.yul\":4190:4253   */\n      tag_524\n      jumpi\n        /* \"#utility.yul\":4249:4250   */\n      0x00\n        /* \"#utility.yul\":4246:4247   */\n      dup1\n        /* \"#utility.yul\":4239:4251   */\n      revert\n        /* \"#utility.yul\":4190:4253   */\n    tag_524:\n        /* \"#utility.yul\":4137:4259   */\n      pop\n      jump\t// out\n        /* \"#utility.yul\":4265:4404   */\n    tag_417:\n        /* \"#utility.yul\":4311:4316   */\n      0x00\n        /* \"#utility.yul\":4349:4355   */\n      dup2\n        /* \"#utility.yul\":4336:4356   */\n      calldataload\n        /* \"#utility.yul\":4327:4356   */\n      swap1\n      pop\n        /* \"#utility.yul\":4365:4398   */\n      tag_526\n        /* \"#utility.yul\":4392:4397   */\n      dup2\n        /* \"#utility.yul\":4365:4398   */\n      tag_416\n      jump\t// in\n    tag_526:\n        /* \"#utility.yul\":4265:4404   */\n      swap3\n      swap2\n      pop\n      pop\n      jump\t// out\n        /* \"#utility.yul\":4410:4884   */\n    tag_43:\n        /* \"#utility.yul\":4478:4484   */\n      0x00\n        /* \"#utility.yul\":4486:4492   */\n      dup1\n        /* \"#utility.yul\":4535:4537   */\n      0x40\n        /* \"#utility.yul\":4523:4532   */\n      dup4\n        /* \"#utility.yul\":4514:4521   */\n      dup6\n        /* \"#utility.yul\":4510:4533   */\n      sub\n        /* \"#utility.yul\":4506:4538   */\n      slt\n        /* \"#utility.yul\":4503:4622   */\n      iszero\n      tag_528\n      jumpi\n        /* \"#utility.yul\":4541:4620   */\n      tag_529\n      tag_398\n      jump\t// in\n    tag_529:\n        /* \"#utility.yul\":4503:4622   */\n    tag_528:\n        /* \"#utility.yul\":4661:4662   */\n      0x00\n        /* \"#utility.yul\":4686:4739   */\n      tag_530\n        /* \"#utility.yul\":4731:4738   */\n      dup6\n        /* \"#utility.yul\":4722:4728   */\n      dup3\n        /* \"#utility.yul\":4711:4720   */\n      dup7\n        /* \"#utility.yul\":4707:4729   */\n      add\n        /* \"#utility.yul\":4686:4739   */\n      tag_417\n      jump\t// in\n    tag_530:\n        /* \"#utility.yul\":4676:4739   */\n      swap3\n      pop\n        /* \"#utility.yul\":4632:4749   */\n      pop\n        /* \"#utility.yul\":4788:4790   */\n      0x20\n        /* \"#utility.yul\":4814:4867   */\n      tag_531\n        /* \"#utility.yul\":4859:4866   */\n      dup6\n        /* \"#utility.yul\":4850:4856   */\n      dup3\n        /* \"#utility.yul\":4839:4848   */\n      dup7\n        /* \"#utility.yul\":4835:4857   */\n      add\n        /* \"#utility.yul\":4814:4867   */\n      tag_412\n      jump\t// in\n    tag_531:\n        /* \"#utility.yul\":4804:4867   */\n      swap2\n      pop\n        /* \"#utility.yul\":4759:4877   */\n      pop\n        /* \"#utility.yul\":4410:4884   */\n      swap3\n      pop\n      swap3\n      swap1\n      pop\n      jump\t// out\n        /* \"#utility.yul\":4890:5008   */\n    tag_418:\n        /* \"#utility.yul\":4977:5001   */\n      tag_533\n        /* \"#utility.yul\":4995:5000   */\n      dup2\n        /* \"#utility.yul\":4977:5001   */\n      tag_410\n      jump\t// in\n    tag_533:\n        /* \"#utility.yul\":4972:4975   */\n      dup3\n        /* \"#utility.yul\":4965:5002   */\n      mstore\n        /* \"#utility.yul\":4890:5008   */\n      pop\n      pop\n      jump\t// out\n        /* \"#utility.yul\":5014:5236   */\n    tag_48:\n        /* \"#utility.yul\":5107:5111   */\n      0x00\n        /* \"#utility.yul\":5145:5147   */\n      0x20\n        /* \"#utility.yul\":5134:5143   */\n      dup3\n        /* \"#utility.yul\":5130:5148   */\n      add\n        /* \"#utility.yul\":5122:5148   */\n      swap1\n      pop\n        /* \"#utility.yul\":5158:5229   */\n      tag_535\n        /* \"#utility.yul\":5226:5227   */\n      0x00\n        /* \"#utility.yul\":5215:5224   */\n      dup4\n        /* \"#utility.yul\":5211:5228   */\n      add\n        /* \"#utility.yul\":5202:5208   */\n      dup5\n        /* \"#utility.yul\":5158:5229   */\n      tag_418\n      jump\t// in\n    tag_535:\n        /* \"#utility.yul\":5014:5236   */\n      swap3\n      swap2\n      pop\n      pop\n      jump\t// out\n        /* \"#utility.yul\":5242:5861   */\n    tag_51:\n        /* \"#utility.yul\":5319:5325   */\n      0x00\n        /* \"#utility.yul\":5327:5333   */\n      dup1\n        /* \"#utility.yul\":5335:5341   */\n      0x00\n        /* \"#utility.yul\":5384:5386   */\n      0x60\n        /* \"#utility.yul\":5372:5381   */\n      dup5\n        /* \"#utility.yul\":5363:5370   */\n      dup7\n        /* \"#utility.yul\":5359:5382   */\n      sub\n        /* \"#utility.yul\":5355:5387   */\n      slt\n        /* \"#utility.yul\":5352:5471   */\n      iszero\n      tag_537\n      jumpi\n        /* \"#utility.yul\":5390:5469   */\n      tag_538\n      tag_398\n      jump\t// in\n    tag_538:\n        /* \"#utility.yul\":5352:5471   */\n    tag_537:\n        /* \"#utility.yul\":5510:5511   */\n      0x00\n        /* \"#utility.yul\":5535:5588   */\n      tag_539\n        /* \"#utility.yul\":5580:5587   */\n      dup7\n        /* \"#utility.yul\":5571:5577   */\n      dup3\n        /* \"#utility.yul\":5560:5569   */\n      dup8\n        /* \"#utility.yul\":5556:5578   */\n      add\n        /* \"#utility.yul\":5535:5588   */\n      tag_417\n      jump\t// in\n    tag_539:\n        /* \"#utility.yul\":5525:5588   */\n      swap4\n      pop\n        /* \"#utility.yul\":5481:5598   */\n      pop\n        /* \"#utility.yul\":5637:5639   */\n      0x20\n        /* \"#utility.yul\":5663:5716   */\n      tag_540\n        /* \"#utility.yul\":5708:5715   */\n      dup7\n        /* \"#utility.yul\":5699:5705   */\n      dup3\n        /* \"#utility.yul\":5688:5697   */\n      dup8\n        /* \"#utility.yul\":5684:5706   */\n      add\n        /* \"#utility.yul\":5663:5716   */\n      tag_417\n      jump\t// in\n    tag_540:\n        /* \"#utility.yul\":5653:5716   */\n      swap3\n      pop\n        /* \"#utility.yul\":5608:5726   */\n      pop\n        /* \"#utility.yul\":5765:5767   */\n      0x40\n        /* \"#utility.yul\":5791:5844   */\n      tag_541\n        /* \"#utility.yul\":5836:5843   */\n      dup7\n        /* \"#utility.yul\":5827:5833   */\n      dup3\n        /* \"#utility.yul\":5816:5825   */\n      dup8\n        /* \"#utility.yul\":5812:5834   */\n      add\n        /* \"#utility.yul\":5791:5844   */\n      tag_412\n      jump\t// in\n    tag_541:\n        /* \"#utility.yul\":5781:5844   */\n      swap2\n      pop\n        /* \"#utility.yul\":5736:5854   */\n      pop\n        /* \"#utility.yul\":5242:5861   */\n      swap3\n      pop\n      swap3\n      pop\n      swap3\n      jump\t// out\n        /* \"#utility.yul\":5867:6196   */\n    tag_73:\n        /* \"#utility.yul\":5926:5932   */\n      0x00\n        /* \"#utility.yul\":5975:5977   */\n      0x20\n        /* \"#utility.yul\":5963:5972   */\n      dup3\n        /* \"#utility.yul\":5954:5961   */\n      dup5\n        /* \"#utility.yul\":5950:5973   */\n      sub\n        /* \"#utility.yul\":5946:5978   */\n      slt\n        /* \"#utility.yul\":5943:6062   */\n      iszero\n      tag_543\n      jumpi\n        /* \"#utility.yul\":5981:6060   */\n      tag_544\n      tag_398\n      jump\t// in\n    tag_544:\n        /* \"#utility.yul\":5943:6062   */\n    tag_543:\n        /* \"#utility.yul\":6101:6102   */\n      0x00\n        /* \"#utility.yul\":6126:6179   */\n      tag_545\n        /* \"#utility.yul\":6171:6178   */\n      dup5\n        /* \"#utility.yul\":6162:6168   */\n      dup3\n        /* \"#utility.yul\":6151:6160   */\n      dup6\n        /* \"#utility.yul\":6147:6169   */\n      add\n        /* \"#utility.yul\":6126:6179   */\n      tag_417\n      jump\t// in\n    tag_545:\n        /* \"#utility.yul\":6116:6179   */\n      swap2\n      pop\n        /* \"#utility.yul\":6072:6189   */\n      pop\n        /* \"#utility.yul\":5867:6196   */\n      swap3\n      swap2\n      pop\n      pop\n      jump\t// out\n        /* \"#utility.yul\":6202:6318   */\n    tag_419:\n        /* \"#utility.yul\":6272:6293   */\n      tag_547\n        /* \"#utility.yul\":6287:6292   */\n      dup2\n        /* \"#utility.yul\":6272:6293   */\n      tag_403\n      jump\t// in\n    tag_547:\n        /* \"#utility.yul\":6265:6270   */\n      dup2\n        /* \"#utility.yul\":6262:6294   */\n      eq\n        /* \"#utility.yul\":6252:6312   */\n      tag_548\n      jumpi\n        /* \"#utility.yul\":6308:6309   */\n      0x00\n        /* \"#utility.yul\":6305:6306   */\n      dup1\n        /* \"#utility.yul\":6298:6310   */\n      revert\n        /* \"#utility.yul\":6252:6312   */\n    tag_548:\n        /* \"#utility.yul\":6202:6318   */\n      pop\n      jump\t// out\n        /* \"#utility.yul\":6324:6457   */\n    tag_420:\n        /* \"#utility.yul\":6367:6372   */\n      0x00\n        /* \"#utility.yul\":6405:6411   */\n      dup2\n        /* \"#utility.yul\":6392:6412   */\n      calldataload\n        /* \"#utility.yul\":6383:6412   */\n      swap1\n      pop\n        /* \"#utility.yul\":6421:6451   */\n      tag_550\n        /* \"#utility.yul\":6445:6450   */\n      dup2\n        /* \"#utility.yul\":6421:6451   */\n      tag_419\n      jump\t// in\n    tag_550:\n        /* \"#utility.yul\":6324:6457   */\n      swap3\n      swap2\n      pop\n      pop\n      jump\t// out\n        /* \"#utility.yul\":6463:6931   */\n    tag_81:\n        /* \"#utility.yul\":6528:6534   */\n      0x00\n        /* \"#utility.yul\":6536:6542   */\n      dup1\n        /* \"#utility.yul\":6585:6587   */\n      0x40\n        /* \"#utility.yul\":6573:6582   */\n      dup4\n        /* \"#utility.yul\":6564:6571   */\n      dup6\n        /* \"#utility.yul\":6560:6583   */\n      sub\n        /* \"#utility.yul\":6556:6588   */\n      slt\n        /* \"#utility.yul\":6553:6672   */\n      iszero\n      tag_552\n      jumpi\n        /* \"#utility.yul\":6591:6670   */\n      tag_553\n      tag_398\n      jump\t// in\n    tag_553:\n        /* \"#utility.yul\":6553:6672   */\n    tag_552:\n        /* \"#utility.yul\":6711:6712   */\n      0x00\n        /* \"#utility.yul\":6736:6789   */\n      tag_554\n        /* \"#utility.yul\":6781:6788   */\n      dup6\n        /* \"#utility.yul\":6772:6778   */\n      dup3\n        /* \"#utility.yul\":6761:6770   */\n      dup7\n        /* \"#utility.yul\":6757:6779   */\n      add\n        /* \"#utility.yul\":6736:6789   */\n      tag_417\n      jump\t// in\n    tag_554:\n        /* \"#utility.yul\":6726:6789   */\n      swap3\n      pop\n        /* \"#utility.yul\":6682:6799   */\n      pop\n        /* \"#utility.yul\":6838:6840   */\n      0x20\n        /* \"#utility.yul\":6864:6914   */\n      tag_555\n        /* \"#utility.yul\":6906:6913   */\n      dup6\n        /* \"#utility.yul\":6897:6903   */\n      dup3\n        /* \"#utility.yul\":6886:6895   */\n      dup7\n        /* \"#utility.yul\":6882:6904   */\n      add\n        /* \"#utility.yul\":6864:6914   */\n      tag_420\n      jump\t// in\n    tag_555:\n        /* \"#utility.yul\":6854:6914   */\n      swap2\n      pop\n        /* \"#utility.yul\":6809:6924   */\n      pop\n        /* \"#utility.yul\":6463:6931   */\n      swap3\n      pop\n      swap3\n      swap1\n      pop\n      jump\t// out\n        /* \"#utility.yul\":6937:7054   */\n    tag_421:\n        /* \"#utility.yul\":7046:7047   */\n      0x00\n        /* \"#utility.yul\":7043:7044   */\n      dup1\n        /* \"#utility.yul\":7036:7048   */\n      revert\n        /* \"#utility.yul\":7060:7177   */\n    tag_422:\n        /* \"#utility.yul\":7169:7170   */\n      0x00\n        /* \"#utility.yul\":7166:7167   */\n      dup1\n        /* \"#utility.yul\":7159:7171   */\n      revert\n        /* \"#utility.yul\":7183:7363   */\n    tag_275:\n        /* \"#utility.yul\":7231:7308   */\n      0x4e487b7100000000000000000000000000000000000000000000000000000000\n        /* \"#utility.yul\":7228:7229   */\n      0x00\n        /* \"#utility.yul\":7221:7309   */\n      mstore\n        /* \"#utility.yul\":7328:7332   */\n      0x41\n        /* \"#utility.yul\":7325:7326   */\n      0x04\n        /* \"#utility.yul\":7318:7333   */\n      mstore\n        /* \"#utility.yul\":7352:7356   */\n      0x24\n        /* \"#utility.yul\":7349:7350   */\n      0x00\n        /* \"#utility.yul\":7342:7357   */\n      revert\n        /* \"#utility.yul\":7369:7650   */\n    tag_423:\n        /* \"#utility.yul\":7452:7479   */\n      tag_560\n        /* \"#utility.yul\":7474:7478   */\n      dup3\n        /* \"#utility.yul\":7452:7479   */\n      tag_408\n      jump\t// in\n    tag_560:\n        /* \"#utility.yul\":7444:7450   */\n      dup2\n        /* \"#utility.yul\":7440:7480   */\n      add\n        /* \"#utility.yul\":7582:7588   */\n      dup2\n        /* \"#utility.yul\":7570:7580   */\n      dup2\n        /* \"#utility.yul\":7567:7589   */\n      lt\n        /* \"#utility.yul\":7546:7564   */\n      0xffffffffffffffff\n        /* \"#utility.yul\":7534:7544   */\n      dup3\n        /* \"#utility.yul\":7531:7565   */\n      gt\n        /* \"#utility.yul\":7528:7590   */\n      or\n        /* \"#utility.yul\":7525:7613   */\n      iszero\n      tag_561\n      jumpi\n        /* \"#utility.yul\":7593:7611   */\n      tag_562\n      tag_275\n      jump\t// in\n    tag_562:\n        /* \"#utility.yul\":7525:7613   */\n    tag_561:\n        /* \"#utility.yul\":7633:7643   */\n      dup1\n        /* \"#utility.yul\":7629:7631   */\n      0x40\n        /* \"#utility.yul\":7622:7644   */\n      mstore\n        /* \"#utility.yul\":7412:7650   */\n      pop\n        /* \"#utility.yul\":7369:7650   */\n      pop\n      pop\n      jump\t// out\n        /* \"#utility.yul\":7656:7785   */\n    tag_424:\n        /* \"#utility.yul\":7690:7696   */\n      0x00\n        /* \"#utility.yul\":7717:7737   */\n      tag_564\n      tag_397\n      jump\t// in\n    tag_564:\n        /* \"#utility.yul\":7707:7737   */\n      swap1\n      pop\n        /* \"#utility.yul\":7746:7779   */\n      tag_565\n        /* \"#utility.yul\":7774:7778   */\n      dup3\n        /* \"#utility.yul\":7766:7772   */\n      dup3\n        /* \"#utility.yul\":7746:7779   */\n      tag_423\n      jump\t// in\n    tag_565:\n        /* \"#utility.yul\":7656:7785   */\n      swap2\n      swap1\n      pop\n      jump\t// out\n        /* \"#utility.yul\":7791:8098   */\n    tag_425:\n        /* \"#utility.yul\":7852:7856   */\n      0x00\n        /* \"#utility.yul\":7942:7960   */\n      0xffffffffffffffff\n        /* \"#utility.yul\":7934:7940   */\n      dup3\n        /* \"#utility.yul\":7931:7961   */\n      gt\n        /* \"#utility.yul\":7928:7984   */\n      iszero\n      tag_567\n      jumpi\n        /* \"#utility.yul\":7964:7982   */\n      tag_568\n      tag_275\n      jump\t// in\n    tag_568:\n        /* \"#utility.yul\":7928:7984   */\n    tag_567:\n        /* \"#utility.yul\":8002:8031   */\n      tag_569\n        /* \"#utility.yul\":8024:8030   */\n      dup3\n        /* \"#utility.yul\":8002:8031   */\n      tag_408\n      jump\t// in\n    tag_569:\n        /* \"#utility.yul\":7994:8031   */\n      swap1\n      pop\n        /* \"#utility.yul\":8086:8090   */\n      0x20\n        /* \"#utility.yul\":8080:8084   */\n      dup2\n        /* \"#utility.yul\":8076:8091   */\n      add\n        /* \"#utility.yul\":8068:8091   */\n      swap1\n      pop\n        /* \"#utility.yul\":7791:8098   */\n      swap2\n      swap1\n      pop\n      jump\t// out\n        /* \"#utility.yul\":8104:8250   */\n    tag_426:\n        /* \"#utility.yul\":8201:8207   */\n      dup3\n        /* \"#utility.yul\":8196:8199   */\n      dup2\n        /* \"#utility.yul\":8191:8194   */\n      dup4\n        /* \"#utility.yul\":8178:8208   */\n      calldatacopy\n        /* \"#utility.yul\":8242:8243   */\n      0x00\n        /* \"#utility.yul\":8233:8239   */\n      dup4\n        /* \"#utility.yul\":8228:8231   */\n      dup4\n        /* \"#utility.yul\":8224:8240   */\n      add\n        /* \"#utility.yul\":8217:8244   */\n      mstore\n        /* \"#utility.yul\":8104:8250   */\n      pop\n      pop\n      pop\n      jump\t// out\n        /* \"#utility.yul\":8256:8679   */\n    tag_427:\n        /* \"#utility.yul\":8333:8338   */\n      0x00\n        /* \"#utility.yul\":8358:8423   */\n      tag_572\n        /* \"#utility.yul\":8374:8422   */\n      tag_573\n        /* \"#utility.yul\":8415:8421   */\n      dup5\n        /* \"#utility.yul\":8374:8422   */\n      tag_425\n      jump\t// in\n    tag_573:\n        /* \"#utility.yul\":8358:8423   */\n      tag_424\n      jump\t// in\n    tag_572:\n        /* \"#utility.yul\":8349:8423   */\n      swap1\n      pop\n        /* \"#utility.yul\":8446:8452   */\n      dup3\n        /* \"#utility.yul\":8439:8444   */\n      dup2\n        /* \"#utility.yul\":8432:8453   */\n      mstore\n        /* \"#utility.yul\":8484:8488   */\n      0x20\n        /* \"#utility.yul\":8477:8482   */\n      dup2\n        /* \"#utility.yul\":8473:8489   */\n      add\n        /* \"#utility.yul\":8522:8525   */\n      dup5\n        /* \"#utility.yul\":8513:8519   */\n      dup5\n        /* \"#utility.yul\":8508:8511   */\n      dup5\n        /* \"#utility.yul\":8504:8520   */\n      add\n        /* \"#utility.yul\":8501:8526   */\n      gt\n        /* \"#utility.yul\":8498:8610   */\n      iszero\n      tag_574\n      jumpi\n        /* \"#utility.yul\":8529:8608   */\n      tag_575\n      tag_422\n      jump\t// in\n    tag_575:\n        /* \"#utility.yul\":8498:8610   */\n    tag_574:\n        /* \"#utility.yul\":8619:8673   */\n      tag_576\n        /* \"#utility.yul\":8666:8672   */\n      dup5\n        /* \"#utility.yul\":8661:8664   */\n      dup3\n        /* \"#utility.yul\":8656:8659   */\n      dup6\n        /* \"#utility.yul\":8619:8673   */\n      tag_426\n      jump\t// in\n    tag_576:\n        /* \"#utility.yul\":8339:8679   */\n      pop\n        /* \"#utility.yul\":8256:8679   */\n      swap4\n      swap3\n      pop\n      pop\n      pop\n      jump\t// out\n        /* \"#utility.yul\":8698:9036   */\n    tag_428:\n        /* \"#utility.yul\":8753:8758   */\n      0x00\n        /* \"#utility.yul\":8802:8805   */\n      dup3\n        /* \"#utility.yul\":8795:8799   */\n      0x1f\n        /* \"#utility.yul\":8787:8793   */\n      dup4\n        /* \"#utility.yul\":8783:8800   */\n      add\n        /* \"#utility.yul\":8779:8806   */\n      slt\n        /* \"#utility.yul\":8769:8891   */\n      tag_578\n      jumpi\n        /* \"#utility.yul\":8810:8889   */\n      tag_579\n      tag_421\n      jump\t// in\n    tag_579:\n        /* \"#utility.yul\":8769:8891   */\n    tag_578:\n        /* \"#utility.yul\":8927:8933   */\n      dup2\n        /* \"#utility.yul\":8914:8934   */\n      calldataload\n        /* \"#utility.yul\":8952:9030   */\n      tag_580\n        /* \"#utility.yul\":9026:9029   */\n      dup5\n        /* \"#utility.yul\":9018:9024   */\n      dup3\n        /* \"#utility.yul\":9011:9015   */\n      0x20\n        /* \"#utility.yul\":9003:9009   */\n      dup7\n        /* \"#utility.yul\":8999:9016   */\n      add\n        /* \"#utility.yul\":8952:9030   */\n      tag_427\n      jump\t// in\n    tag_580:\n        /* \"#utility.yul\":8943:9030   */\n      swap2\n      pop\n        /* \"#utility.yul\":8759:9036   */\n      pop\n        /* \"#utility.yul\":8698:9036   */\n      swap3\n      swap2\n      pop\n      pop\n      jump\t// out\n        /* \"#utility.yul\":9042:9985   */\n    tag_85:\n        /* \"#utility.yul\":9137:9143   */\n      0x00\n        /* \"#utility.yul\":9145:9151   */\n      dup1\n        /* \"#utility.yul\":9153:9159   */\n      0x00\n        /* \"#utility.yul\":9161:9167   */\n      dup1\n        /* \"#utility.yul\":9210:9213   */\n      0x80\n        /* \"#utility.yul\":9198:9207   */\n      dup6\n        /* \"#utility.yul\":9189:9196   */\n      dup8\n        /* \"#utility.yul\":9185:9208   */\n      sub\n        /* \"#utility.yul\":9181:9214   */\n      slt\n        /* \"#utility.yul\":9178:9298   */\n      iszero\n      tag_582\n      jumpi\n        /* \"#utility.yul\":9217:9296   */\n      tag_583\n      tag_398\n      jump\t// in\n    tag_583:\n        /* \"#utility.yul\":9178:9298   */\n    tag_582:\n        /* \"#utility.yul\":9337:9338   */\n      0x00\n        /* \"#utility.yul\":9362:9415   */\n      tag_584\n        /* \"#utility.yul\":9407:9414   */\n      dup8\n        /* \"#utility.yul\":9398:9404   */\n      dup3\n        /* \"#utility.yul\":9387:9396   */\n      dup9\n        /* \"#utility.yul\":9383:9405   */\n      add\n        /* \"#utility.yul\":9362:9415   */\n      tag_417\n      jump\t// in\n    tag_584:\n        /* \"#utility.yul\":9352:9415   */\n      swap5\n      pop\n        /* \"#utility.yul\":9308:9425   */\n      pop\n        /* \"#utility.yul\":9464:9466   */\n      0x20\n        /* \"#utility.yul\":9490:9543   */\n      tag_585\n        /* \"#utility.yul\":9535:9542   */\n      dup8\n        /* \"#utility.yul\":9526:9532   */\n      dup3\n        /* \"#utility.yul\":9515:9524   */\n      dup9\n        /* \"#utility.yul\":9511:9533   */\n      add\n        /* \"#utility.yul\":9490:9543   */\n      tag_417\n      jump\t// in\n    tag_585:\n        /* \"#utility.yul\":9480:9543   */\n      swap4\n      pop\n        /* \"#utility.yul\":9435:9553   */\n      pop\n        /* \"#utility.yul\":9592:9594   */\n      0x40\n        /* \"#utility.yul\":9618:9671   */\n      tag_586\n        /* \"#utility.yul\":9663:9670   */\n      dup8\n        /* \"#utility.yul\":9654:9660   */\n      dup3\n        /* \"#utility.yul\":9643:9652   */\n      dup9\n        /* \"#utility.yul\":9639:9661   */\n      add\n        /* \"#utility.yul\":9618:9671   */\n      tag_412\n      jump\t// in\n    tag_586:\n        /* \"#utility.yul\":9608:9671   */\n      swap3\n      pop\n        /* \"#utility.yul\":9563:9681   */\n      pop\n        /* \"#utility.yul\":9748:9750   */\n      0x60\n        /* \"#utility.yul\":9737:9746   */\n      dup6\n        /* \"#utility.yul\":9733:9751   */\n      add\n        /* \"#utility.yul\":9720:9752   */\n      calldataload\n        /* \"#utility.yul\":9779:9797   */\n      0xffffffffffffffff\n        /* \"#utility.yul\":9771:9777   */\n      dup2\n        /* \"#utility.yul\":9768:9798   */\n      gt\n        /* \"#utility.yul\":9765:9882   */\n      iszero\n      tag_587\n      jumpi\n        /* \"#utility.yul\":9801:9880   */\n      tag_588\n      tag_399\n      jump\t// in\n    tag_588:\n        /* \"#utility.yul\":9765:9882   */\n    tag_587:\n        /* \"#utility.yul\":9906:9968   */\n      tag_589\n        /* \"#utility.yul\":9960:9967   */\n      dup8\n        /* \"#utility.yul\":9951:9957   */\n      dup3\n        /* \"#utility.yul\":9940:9949   */\n      dup9\n        /* \"#utility.yul\":9936:9958   */\n      add\n        /* \"#utility.yul\":9906:9968   */\n      tag_428\n      jump\t// in\n    tag_589:\n        /* \"#utility.yul\":9896:9968   */\n      swap2\n      pop\n        /* \"#utility.yul\":9691:9978   */\n      pop\n        /* \"#utility.yul\":9042:9985   */\n      swap3\n      swap6\n      swap2\n      swap5\n      pop\n      swap3\n      pop\n      jump\t// out\n        /* \"#utility.yul\":9991:10465   */\n    tag_101:\n        /* \"#utility.yul\":10059:10065   */\n      0x00\n        /* \"#utility.yul\":10067:10073   */\n      dup1\n        /* \"#utility.yul\":10116:10118   */\n      0x40\n        /* \"#utility.yul\":10104:10113   */\n      dup4\n        /* \"#utility.yul\":10095:10102   */\n      dup6\n        /* \"#utility.yul\":10091:10114   */\n      sub\n        /* \"#utility.yul\":10087:10119   */\n      slt\n        /* \"#utility.yul\":10084:10203   */\n      iszero\n      tag_591\n      jumpi\n        /* \"#utility.yul\":10122:10201   */\n      tag_592\n      tag_398\n      jump\t// in\n    tag_592:\n        /* \"#utility.yul\":10084:10203   */\n    tag_591:\n        /* \"#utility.yul\":10242:10243   */\n      0x00\n        /* \"#utility.yul\":10267:10320   */\n      tag_593\n        /* \"#utility.yul\":10312:10319   */\n      dup6\n        /* \"#utility.yul\":10303:10309   */\n      dup3\n        /* \"#utility.yul\":10292:10301   */\n      dup7\n        /* \"#utility.yul\":10288:10310   */\n      add\n        /* \"#utility.yul\":10267:10320   */\n      tag_417\n      jump\t// in\n    tag_593:\n        /* \"#utility.yul\":10257:10320   */\n      swap3\n      pop\n        /* \"#utility.yul\":10213:10330   */\n      pop\n        /* \"#utility.yul\":10369:10371   */\n      0x20\n        /* \"#utility.yul\":10395:10448   */\n      tag_594\n        /* \"#utility.yul\":10440:10447   */\n      dup6\n        /* \"#utility.yul\":10431:10437   */\n      dup3\n        /* \"#utility.yul\":10420:10429   */\n      dup7\n        /* \"#utility.yul\":10416:10438   */\n      add\n        /* \"#utility.yul\":10395:10448   */\n      tag_417\n      jump\t// in\n    tag_594:\n        /* \"#utility.yul\":10385:10448   */\n      swap2\n      pop\n        /* \"#utility.yul\":10340:10458   */\n      pop\n        /* \"#utility.yul\":9991:10465   */\n      swap3\n      pop\n      swap3\n      swap1\n      pop\n      jump\t// out\n        /* \"#utility.yul\":10471:10651   */\n    tag_429:\n        /* \"#utility.yul\":10519:10596   */\n      0x4e487b7100000000000000000000000000000000000000000000000000000000\n        /* \"#utility.yul\":10516:10517   */\n      0x00\n        /* \"#utility.yul\":10509:10597   */\n      mstore\n        /* \"#utility.yul\":10616:10620   */\n      0x22\n        /* \"#utility.yul\":10613:10614   */\n      0x04\n        /* \"#utility.yul\":10606:10621   */\n      mstore\n        /* \"#utility.yul\":10640:10644   */\n      0x24\n        /* \"#utility.yul\":10637:10638   */\n      0x00\n        /* \"#utility.yul\":10630:10645   */\n      revert\n        /* \"#utility.yul\":10657:10977   */\n    tag_107:\n        /* \"#utility.yul\":10701:10707   */\n      0x00\n        /* \"#utility.yul\":10738:10739   */\n      0x02\n        /* \"#utility.yul\":10732:10736   */\n      dup3\n        /* \"#utility.yul\":10728:10740   */\n      div\n        /* \"#utility.yul\":10718:10740   */\n      swap1\n      pop\n        /* \"#utility.yul\":10785:10786   */\n      0x01\n        /* \"#utility.yul\":10779:10783   */\n      dup3\n        /* \"#utility.yul\":10775:10787   */\n      and\n        /* \"#utility.yul\":10806:10824   */\n      dup1\n        /* \"#utility.yul\":10796:10877   */\n      tag_597\n      jumpi\n        /* \"#utility.yul\":10862:10866   */\n      0x7f\n        /* \"#utility.yul\":10854:10860   */\n      dup3\n        /* \"#utility.yul\":10850:10867   */\n      and\n        /* \"#utility.yul\":10840:10867   */\n      swap2\n      pop\n        /* \"#utility.yul\":10796:10877   */\n    tag_597:\n        /* \"#utility.yul\":10924:10926   */\n      0x20\n        /* \"#utility.yul\":10916:10922   */\n      dup3\n        /* \"#utility.yul\":10913:10927   */\n      lt\n        /* \"#utility.yul\":10893:10911   */\n      dup2\n        /* \"#utility.yul\":10890:10928   */\n      sub\n        /* \"#utility.yul\":10887:10971   */\n      tag_598\n      jumpi\n        /* \"#utility.yul\":10943:10961   */\n      tag_599\n      tag_429\n      jump\t// in\n    tag_599:\n        /* \"#utility.yul\":10887:10971   */\n    tag_598:\n        /* \"#utility.yul\":10708:10977   */\n      pop\n        /* \"#utility.yul\":10657:10977   */\n      swap2\n      swap1\n      pop\n      jump\t// out\n        /* \"#utility.yul\":10983:11214   */\n    tag_430:\n        /* \"#utility.yul\":11123:11157   */\n      0x4552433732313a20617070726f76656420717565727920666f72206e6f6e6578\n        /* \"#utility.yul\":11119:11120   */\n      0x00\n        /* \"#utility.yul\":11111:11117   */\n      dup3\n        /* \"#utility.yul\":11107:11121   */\n      add\n        /* \"#utility.yul\":11100:11158   */\n      mstore\n        /* \"#utility.yul\":11192:11206   */\n      0x697374656e7420746f6b656e0000000000000000000000000000000000000000\n        /* \"#utility.yul\":11187:11189   */\n      0x20\n        /* \"#utility.yul\":11179:11185   */\n      dup3\n        /* \"#utility.yul\":11175:11190   */\n      add\n        /* \"#utility.yul\":11168:11207   */\n      mstore\n        /* \"#utility.yul\":10983:11214   */\n      pop\n      jump\t// out\n        /* \"#utility.yul\":11220:11586   */\n    tag_431:\n        /* \"#utility.yul\":11362:11365   */\n      0x00\n        /* \"#utility.yul\":11383:11450   */\n      tag_602\n        /* \"#utility.yul\":11447:11449   */\n      0x2c\n        /* \"#utility.yul\":11442:11445   */\n      dup4\n        /* \"#utility.yul\":11383:11450   */\n      tag_406\n      jump\t// in\n    tag_602:\n        /* \"#utility.yul\":11376:11450   */\n      swap2\n      pop\n        /* \"#utility.yul\":11459:11552   */\n      tag_603\n        /* \"#utility.yul\":11548:11551   */\n      dup3\n        /* \"#utility.yul\":11459:11552   */\n      tag_430\n      jump\t// in\n    tag_603:\n        /* \"#utility.yul\":11577:11579   */\n      0x40\n        /* \"#utility.yul\":11572:11575   */\n      dup3\n        /* \"#utility.yul\":11568:11580   */\n      add\n        /* \"#utility.yul\":11561:11580   */\n      swap1\n      pop\n        /* \"#utility.yul\":11220:11586   */\n      swap2\n      swap1\n      pop\n      jump\t// out\n        /* \"#utility.yul\":11592:12011   */\n    tag_117:\n        /* \"#utility.yul\":11758:11762   */\n      0x00\n        /* \"#utility.yul\":11796:11798   */\n      0x20\n        /* \"#utility.yul\":11785:11794   */\n      dup3\n        /* \"#utility.yul\":11781:11799   */\n      add\n        /* \"#utility.yul\":11773:11799   */\n      swap1\n      pop\n        /* \"#utility.yul\":11845:11854   */\n      dup2\n        /* \"#utility.yul\":11839:11843   */\n      dup2\n        /* \"#utility.yul\":11835:11855   */\n      sub\n        /* \"#utility.yul\":11831:11832   */\n      0x00\n        /* \"#utility.yul\":11820:11829   */\n      dup4\n        /* \"#utility.yul\":11816:11833   */\n      add\n        /* \"#utility.yul\":11809:11856   */\n      mstore\n        /* \"#utility.yul\":11873:12004   */\n      tag_605\n        /* \"#utility.yul\":11999:12003   */\n      dup2\n        /* \"#utility.yul\":11873:12004   */\n      tag_431\n      jump\t// in\n    tag_605:\n        /* \"#utility.yul\":11865:12004   */\n      swap1\n      pop\n        /* \"#utility.yul\":11592:12011   */\n      swap2\n      swap1\n      pop\n      jump\t// out\n        /* \"#utility.yul\":12017:12237   */\n    tag_432:\n        /* \"#utility.yul\":12157:12191   */\n      0x4552433732313a20617070726f76616c20746f2063757272656e74206f776e65\n        /* \"#utility.yul\":12153:12154   */\n      0x00\n        /* \"#utility.yul\":12145:12151   */\n      dup3\n        /* \"#utility.yul\":12141:12155   */\n      add\n        /* \"#utility.yul\":12134:12192   */\n      mstore\n        /* \"#utility.yul\":12226:12229   */\n      0x7200000000000000000000000000000000000000000000000000000000000000\n        /* \"#utility.yul\":12221:12223   */\n      0x20\n        /* \"#utility.yul\":12213:12219   */\n      dup3\n        /* \"#utility.yul\":12209:12224   */\n      add\n        /* \"#utility.yul\":12202:12230   */\n      mstore\n        /* \"#utility.yul\":12017:12237   */\n      pop\n      jump\t// out\n        /* \"#utility.yul\":12243:12609   */\n    tag_433:\n        /* \"#utility.yul\":12385:12388   */\n      0x00\n        /* \"#utility.yul\":12406:12473   */\n      tag_608\n        /* \"#utility.yul\":12470:12472   */\n      0x21\n        /* \"#utility.yul\":12465:12468   */\n      dup4\n        /* \"#utility.yul\":12406:12473   */\n      tag_406\n      jump\t// in\n    tag_608:\n        /* \"#utility.yul\":12399:12473   */\n      swap2\n      pop\n        /* \"#utility.yul\":12482:12575   */\n      tag_609\n        /* \"#utility.yul\":12571:12574   */\n      dup3\n        /* \"#utility.yul\":12482:12575   */\n      tag_432\n      jump\t// in\n    tag_609:\n        /* \"#utility.yul\":12600:12602   */\n      0x40\n        /* \"#utility.yul\":12595:12598   */\n      dup3\n        /* \"#utility.yul\":12591:12603   */\n      add\n        /* \"#utility.yul\":12584:12603   */\n      swap1\n      pop\n        /* \"#utility.yul\":12243:12609   */\n      swap2\n      swap1\n      pop\n      jump\t// out\n        /* \"#utility.yul\":12615:13034   */\n    tag_122:\n        /* \"#utility.yul\":12781:12785   */\n      0x00\n        /* \"#utility.yul\":12819:12821   */\n      0x20\n        /* \"#utility.yul\":12808:12817   */\n      dup3\n        /* \"#utility.yul\":12804:12822   */\n      add\n        /* \"#utility.yul\":12796:12822   */\n      swap1\n      pop\n        /* \"#utility.yul\":12868:12877   */\n      dup2\n        /* \"#utility.yul\":12862:12866   */\n      dup2\n        /* \"#utility.yul\":12858:12878   */\n      sub\n        /* \"#utility.yul\":12854:12855   */\n      0x00\n        /* \"#utility.yul\":12843:12852   */\n      dup4\n        /* \"#utility.yul\":12839:12856   */\n      add\n        /* \"#utility.yul\":12832:12879   */\n      mstore\n        /* \"#utility.yul\":12896:13027   */\n      tag_611\n        /* \"#utility.yul\":13022:13026   */\n      dup2\n        /* \"#utility.yul\":12896:13027   */\n      tag_433\n      jump\t// in\n    tag_611:\n        /* \"#utility.yul\":12888:13027   */\n      swap1\n      pop\n        /* \"#utility.yul\":12615:13034   */\n      swap2\n      swap1\n      pop\n      jump\t// out\n        /* \"#utility.yul\":13040:13283   */\n    tag_434:\n        /* \"#utility.yul\":13180:13214   */\n      0x4552433732313a20617070726f76652063616c6c6572206973206e6f74206f77\n        /* \"#utility.yul\":13176:13177   */\n      0x00\n        /* \"#utility.yul\":13168:13174   */\n      dup3\n        /* \"#utility.yul\":13164:13178   */\n      add\n        /* \"#utility.yul\":13157:13215   */\n      mstore\n        /* \"#utility.yul\":13249:13275   */\n      0x6e6572206e6f7220617070726f76656420666f7220616c6c0000000000000000\n        /* \"#utility.yul\":13244:13246   */\n      0x20\n        /* \"#utility.yul\":13236:13242   */\n      dup3\n        /* \"#utility.yul\":13232:13247   */\n      add\n        /* \"#utility.yul\":13225:13276   */\n      mstore\n        /* \"#utility.yul\":13040:13283   */\n      pop\n      jump\t// out\n        /* \"#utility.yul\":13289:13655   */\n    tag_435:\n        /* \"#utility.yul\":13431:13434   */\n      0x00\n        /* \"#utility.yul\":13452:13519   */\n      tag_614\n        /* \"#utility.yul\":13516:13518   */\n      0x38\n        /* \"#utility.yul\":13511:13514   */\n      dup4\n        /* \"#utility.yul\":13452:13519   */\n      tag_406\n      jump\t// in\n    tag_614:\n        /* \"#utility.yul\":13445:13519   */\n      swap2\n      pop\n        /* \"#utility.yul\":13528:13621   */\n      tag_615\n        /* \"#utility.yul\":13617:13620   */\n      dup3\n        /* \"#utility.yul\":13528:13621   */\n      tag_434\n      jump\t// in\n    tag_615:\n        /* \"#utility.yul\":13646:13648   */\n      0x40\n        /* \"#utility.yul\":13641:13644   */\n      dup3\n        /* \"#utility.yul\":13637:13649   */\n      add\n        /* \"#utility.yul\":13630:13649   */\n      swap1\n      pop\n        /* \"#utility.yul\":13289:13655   */\n      swap2\n      swap1\n      pop\n      jump\t// out\n        /* \"#utility.yul\":13661:14080   */\n    tag_130:\n        /* \"#utility.yul\":13827:13831   */\n      0x00\n        /* \"#utility.yul\":13865:13867   */\n      0x20\n        /* \"#utility.yul\":13854:13863   */\n      dup3\n        /* \"#utility.yul\":13850:13868   */\n      add\n        /* \"#utility.yul\":13842:13868   */\n      swap1\n      pop\n        /* \"#utility.yul\":13914:13923   */\n      dup2\n        /* \"#utility.yul\":13908:13912   */\n      dup2\n        /* \"#utility.yul\":13904:13924   */\n      sub\n        /* \"#utility.yul\":13900:13901   */\n      0x00\n        /* \"#utility.yul\":13889:13898   */\n      dup4\n        /* \"#utility.yul\":13885:13902   */\n      add\n        /* \"#utility.yul\":13878:13925   */\n      mstore\n        /* \"#utility.yul\":13942:14073   */\n      tag_617\n        /* \"#utility.yul\":14068:14072   */\n      dup2\n        /* \"#utility.yul\":13942:14073   */\n      tag_435\n      jump\t// in\n    tag_617:\n        /* \"#utility.yul\":13934:14073   */\n      swap1\n      pop\n        /* \"#utility.yul\":13661:14080   */\n      swap2\n      swap1\n      pop\n      jump\t// out\n        /* \"#utility.yul\":14086:14322   */\n    tag_436:\n        /* \"#utility.yul\":14226:14260   */\n      0x4552433732313a207472616e736665722063616c6c6572206973206e6f74206f\n        /* \"#utility.yul\":14222:14223   */\n      0x00\n        /* \"#utility.yul\":14214:14220   */\n      dup3\n        /* \"#utility.yul\":14210:14224   */\n      add\n        /* \"#utility.yul\":14203:14261   */\n      mstore\n        /* \"#utility.yul\":14295:14314   */\n      0x776e6572206e6f7220617070726f766564000000000000000000000000000000\n        /* \"#utility.yul\":14290:14292   */\n      0x20\n        /* \"#utility.yul\":14282:14288   */\n      dup3\n        /* \"#utility.yul\":14278:14293   */\n      add\n        /* \"#utility.yul\":14271:14315   */\n      mstore\n        /* \"#utility.yul\":14086:14322   */\n      pop\n      jump\t// out\n        /* \"#utility.yul\":14328:14694   */\n    tag_437:\n        /* \"#utility.yul\":14470:14473   */\n      0x00\n        /* \"#utility.yul\":14491:14558   */\n      tag_620\n        /* \"#utility.yul\":14555:14557   */\n      0x31\n        /* \"#utility.yul\":14550:14553   */\n      dup4\n        /* \"#utility.yul\":14491:14558   */\n      tag_406\n      jump\t// in\n    tag_620:\n        /* \"#utility.yul\":14484:14558   */\n      swap2\n      pop\n        /* \"#utility.yul\":14567:14660   */\n      tag_621\n        /* \"#utility.yul\":14656:14659   */\n      dup3\n        /* \"#utility.yul\":14567:14660   */\n      tag_436\n      jump\t// in\n    tag_621:\n        /* \"#utility.yul\":14685:14687   */\n      0x40\n        /* \"#utility.yul\":14680:14683   */\n      dup3\n        /* \"#utility.yul\":14676:14688   */\n      add\n        /* \"#utility.yul\":14669:14688   */\n      swap1\n      pop\n        /* \"#utility.yul\":14328:14694   */\n      swap2\n      swap1\n      pop\n      jump\t// out\n        /* \"#utility.yul\":14700:15119   */\n    tag_142:\n        /* \"#utility.yul\":14866:14870   */\n      0x00\n        /* \"#utility.yul\":14904:14906   */\n      0x20\n        /* \"#utility.yul\":14893:14902   */\n      dup3\n        /* \"#utility.yul\":14889:14907   */\n      add\n        /* \"#utility.yul\":14881:14907   */\n      swap1\n      pop\n        /* \"#utility.yul\":14953:14962   */\n      dup2\n        /* \"#utility.yul\":14947:14951   */\n      dup2\n        /* \"#utility.yul\":14943:14963   */\n      sub\n        /* \"#utility.yul\":14939:14940   */\n      0x00\n        /* \"#utility.yul\":14928:14937   */\n      dup4\n        /* \"#utility.yul\":14924:14941   */\n      add\n        /* \"#utility.yul\":14917:14964   */\n      mstore\n        /* \"#utility.yul\":14981:15112   */\n      tag_623\n        /* \"#utility.yul\":15107:15111   */\n      dup2\n        /* \"#utility.yul\":14981:15112   */\n      tag_437\n      jump\t// in\n    tag_623:\n        /* \"#utility.yul\":14973:15112   */\n      swap1\n      pop\n        /* \"#utility.yul\":14700:15119   */\n      swap2\n      swap1\n      pop\n      jump\t// out\n        /* \"#utility.yul\":15125:15354   */\n    tag_438:\n        /* \"#utility.yul\":15265:15299   */\n      0x4552433732313a2062616c616e636520717565727920666f7220746865207a65\n        /* \"#utility.yul\":15261:15262   */\n      0x00\n        /* \"#utility.yul\":15253:15259   */\n      dup3\n        /* \"#utility.yul\":15249:15263   */\n      add\n        /* \"#utility.yul\":15242:15300   */\n      mstore\n        /* \"#utility.yul\":15334:15346   */\n      0x726f206164647265737300000000000000000000000000000000000000000000\n        /* \"#utility.yul\":15329:15331   */\n      0x20\n        /* \"#utility.yul\":15321:15327   */\n      dup3\n        /* \"#utility.yul\":15317:15332   */\n      add\n        /* \"#utility.yul\":15310:15347   */\n      mstore\n        /* \"#utility.yul\":15125:15354   */\n      pop\n      jump\t// out\n        /* \"#utility.yul\":15360:15726   */\n    tag_439:\n        /* \"#utility.yul\":15502:15505   */\n      0x00\n        /* \"#utility.yul\":15523:15590   */\n      tag_626\n        /* \"#utility.yul\":15587:15589   */\n      0x2a\n        /* \"#utility.yul\":15582:15585   */\n      dup4\n        /* \"#utility.yul\":15523:15590   */\n      tag_406\n      jump\t// in\n    tag_626:\n        /* \"#utility.yul\":15516:15590   */\n      swap2\n      pop\n        /* \"#utility.yul\":15599:15692   */\n      tag_627\n        /* \"#utility.yul\":15688:15691   */\n      dup3\n        /* \"#utility.yul\":15599:15692   */\n      tag_438\n      jump\t// in\n    tag_627:\n        /* \"#utility.yul\":15717:15719   */\n      0x40\n        /* \"#utility.yul\":15712:15715   */\n      dup3\n        /* \"#utility.yul\":15708:15720   */\n      add\n        /* \"#utility.yul\":15701:15720   */\n      swap1\n      pop\n        /* \"#utility.yul\":15360:15726   */\n      swap2\n      swap1\n      pop\n      jump\t// out\n        /* \"#utility.yul\":15732:16151   */\n    tag_165:\n        /* \"#utility.yul\":15898:15902   */\n      0x00\n        /* \"#utility.yul\":15936:15938   */\n      0x20\n        /* \"#utility.yul\":15925:15934   */\n      dup3\n        /* \"#utility.yul\":15921:15939   */\n      add\n        /* \"#utility.yul\":15913:15939   */\n      swap1\n      pop\n        /* \"#utility.yul\":15985:15994   */\n      dup2\n        /* \"#utility.yul\":15979:15983   */\n      dup2\n        /* \"#utility.yul\":15975:15995   */\n      sub\n        /* \"#utility.yul\":15971:15972   */\n      0x00\n        /* \"#utility.yul\":15960:15969   */\n      dup4\n        /* \"#utility.yul\":15956:15973   */\n      add\n        /* \"#utility.yul\":15949:15996   */\n      mstore\n        /* \"#utility.yul\":16013:16144   */\n      tag_629\n        /* \"#utility.yul\":16139:16143   */\n      dup2\n        /* \"#utility.yul\":16013:16144   */\n      tag_439\n      jump\t// in\n    tag_629:\n        /* \"#utility.yul\":16005:16144   */\n      swap1\n      pop\n        /* \"#utility.yul\":15732:16151   */\n      swap2\n      swap1\n      pop\n      jump\t// out\n        /* \"#utility.yul\":16157:16332   */\n    tag_440:\n        /* \"#utility.yul\":16297:16324   */\n      0x4552433732313a20617070726f766520746f2063616c6c657200000000000000\n        /* \"#utility.yul\":16293:16294   */\n      0x00\n        /* \"#utility.yul\":16285:16291   */\n      dup3\n        /* \"#utility.yul\":16281:16295   */\n      add\n        /* \"#utility.yul\":16274:16325   */\n      mstore\n        /* \"#utility.yul\":16157:16332   */\n      pop\n      jump\t// out\n        /* \"#utility.yul\":16338:16704   */\n    tag_441:\n        /* \"#utility.yul\":16480:16483   */\n      0x00\n        /* \"#utility.yul\":16501:16568   */\n      tag_632\n        /* \"#utility.yul\":16565:16567   */\n      0x19\n        /* \"#utility.yul\":16560:16563   */\n      dup4\n        /* \"#utility.yul\":16501:16568   */\n      tag_406\n      jump\t// in\n    tag_632:\n        /* \"#utility.yul\":16494:16568   */\n      swap2\n      pop\n        /* \"#utility.yul\":16577:16670   */\n      tag_633\n        /* \"#utility.yul\":16666:16669   */\n      dup3\n        /* \"#utility.yul\":16577:16670   */\n      tag_440\n      jump\t// in\n    tag_633:\n        /* \"#utility.yul\":16695:16697   */\n      0x20\n        /* \"#utility.yul\":16690:16693   */\n      dup3\n        /* \"#utility.yul\":16686:16698   */\n      add\n        /* \"#utility.yul\":16679:16698   */\n      swap1\n      pop\n        /* \"#utility.yul\":16338:16704   */\n      swap2\n      swap1\n      pop\n      jump\t// out\n        /* \"#utility.yul\":16710:17129   */\n    tag_178:\n        /* \"#utility.yul\":16876:16880   */\n      0x00\n        /* \"#utility.yul\":16914:16916   */\n      0x20\n        /* \"#utility.yul\":16903:16912   */\n      dup3\n        /* \"#utility.yul\":16899:16917   */\n      add\n        /* \"#utility.yul\":16891:16917   */\n      swap1\n      pop\n        /* \"#utility.yul\":16963:16972   */\n      dup2\n        /* \"#utility.yul\":16957:16961   */\n      dup2\n        /* \"#utility.yul\":16953:16973   */\n      sub\n        /* \"#utility.yul\":16949:16950   */\n      0x00\n        /* \"#utility.yul\":16938:16947   */\n      dup4\n        /* \"#utility.yul\":16934:16951   */\n      add\n        /* \"#utility.yul\":16927:16974   */\n      mstore\n        /* \"#utility.yul\":16991:17122   */\n      tag_635\n        /* \"#utility.yul\":17117:17121   */\n      dup2\n        /* \"#utility.yul\":16991:17122   */\n      tag_441\n      jump\t// in\n    tag_635:\n        /* \"#utility.yul\":16983:17122   */\n      swap1\n      pop\n        /* \"#utility.yul\":16710:17129   */\n      swap2\n      swap1\n      pop\n      jump\t// out\n        /* \"#utility.yul\":17135:17369   */\n    tag_442:\n        /* \"#utility.yul\":17275:17309   */\n      0x4552433732314d657461646174613a2055524920717565727920666f72206e6f\n        /* \"#utility.yul\":17271:17272   */\n      0x00\n        /* \"#utility.yul\":17263:17269   */\n      dup3\n        /* \"#utility.yul\":17259:17273   */\n      add\n        /* \"#utility.yul\":17252:17310   */\n      mstore\n        /* \"#utility.yul\":17344:17361   */\n      0x6e6578697374656e7420746f6b656e0000000000000000000000000000000000\n        /* \"#utility.yul\":17339:17341   */\n      0x20\n        /* \"#utility.yul\":17331:17337   */\n      dup3\n        /* \"#utility.yul\":17327:17342   */\n      add\n        /* \"#utility.yul\":17320:17362   */\n      mstore\n        /* \"#utility.yul\":17135:17369   */\n      pop\n      jump\t// out\n        /* \"#utility.yul\":17375:17741   */\n    tag_443:\n        /* \"#utility.yul\":17517:17520   */\n      0x00\n        /* \"#utility.yul\":17538:17605   */\n      tag_638\n        /* \"#utility.yul\":17602:17604   */\n      0x2f\n        /* \"#utility.yul\":17597:17600   */\n      dup4\n        /* \"#utility.yul\":17538:17605   */\n      tag_406\n      jump\t// in\n    tag_638:\n        /* \"#utility.yul\":17531:17605   */\n      swap2\n      pop\n        /* \"#utility.yul\":17614:17707   */\n      tag_639\n        /* \"#utility.yul\":17703:17706   */\n      dup3\n        /* \"#utility.yul\":17614:17707   */\n      tag_442\n      jump\t// in\n    tag_639:\n        /* \"#utility.yul\":17732:17734   */\n      0x40\n        /* \"#utility.yul\":17727:17730   */\n      dup3\n        /* \"#utility.yul\":17723:17735   */\n      add\n        /* \"#utility.yul\":17716:17735   */\n      swap1\n      pop\n        /* \"#utility.yul\":17375:17741   */\n      swap2\n      swap1\n      pop\n      jump\t// out\n        /* \"#utility.yul\":17747:18166   */\n    tag_194:\n        /* \"#utility.yul\":17913:17917   */\n      0x00\n        /* \"#utility.yul\":17951:17953   */\n      0x20\n        /* \"#utility.yul\":17940:17949   */\n      dup3\n        /* \"#utility.yul\":17936:17954   */\n      add\n        /* \"#utility.yul\":17928:17954   */\n      swap1\n      pop\n        /* \"#utility.yul\":18000:18009   */\n      dup2\n        /* \"#utility.yul\":17994:17998   */\n      dup2\n        /* \"#utility.yul\":17990:18010   */\n      sub\n        /* \"#utility.yul\":17986:17987   */\n      0x00\n        /* \"#utility.yul\":17975:17984   */\n      dup4\n        /* \"#utility.yul\":17971:17988   */\n      add\n        /* \"#utility.yul\":17964:18011   */\n      mstore\n        /* \"#utility.yul\":18028:18159   */\n      tag_641\n        /* \"#utility.yul\":18154:18158   */\n      dup2\n        /* \"#utility.yul\":18028:18159   */\n      tag_443\n      jump\t// in\n    tag_641:\n        /* \"#utility.yul\":18020:18159   */\n      swap1\n      pop\n        /* \"#utility.yul\":17747:18166   */\n      swap2\n      swap1\n      pop\n      jump\t// out\n        /* \"#utility.yul\":18172:18320   */\n    tag_444:\n        /* \"#utility.yul\":18274:18285   */\n      0x00\n        /* \"#utility.yul\":18311:18314   */\n      dup2\n        /* \"#utility.yul\":18296:18314   */\n      swap1\n      pop\n        /* \"#utility.yul\":18172:18320   */\n      swap3\n      swap2\n      pop\n      pop\n      jump\t// out\n        /* \"#utility.yul\":18326:18716   */\n    tag_445:\n        /* \"#utility.yul\":18432:18435   */\n      0x00\n        /* \"#utility.yul\":18460:18499   */\n      tag_644\n        /* \"#utility.yul\":18493:18498   */\n      dup3\n        /* \"#utility.yul\":18460:18499   */\n      tag_405\n      jump\t// in\n    tag_644:\n        /* \"#utility.yul\":18515:18604   */\n      tag_645\n        /* \"#utility.yul\":18597:18603   */\n      dup2\n        /* \"#utility.yul\":18592:18595   */\n      dup6\n        /* \"#utility.yul\":18515:18604   */\n      tag_444\n      jump\t// in\n    tag_645:\n        /* \"#utility.yul\":18508:18604   */\n      swap4\n      pop\n        /* \"#utility.yul\":18613:18678   */\n      tag_646\n        /* \"#utility.yul\":18671:18677   */\n      dup2\n        /* \"#utility.yul\":18666:18669   */\n      dup6\n        /* \"#utility.yul\":18659:18663   */\n      0x20\n        /* \"#utility.yul\":18652:18657   */\n      dup7\n        /* \"#utility.yul\":18648:18664   */\n      add\n        /* \"#utility.yul\":18613:18678   */\n      tag_407\n      jump\t// in\n    tag_646:\n        /* \"#utility.yul\":18703:18709   */\n      dup1\n        /* \"#utility.yul\":18698:18701   */\n      dup5\n        /* \"#utility.yul\":18694:18710   */\n      add\n        /* \"#utility.yul\":18687:18710   */\n      swap2\n      pop\n        /* \"#utility.yul\":18436:18716   */\n      pop\n        /* \"#utility.yul\":18326:18716   */\n      swap3\n      swap2\n      pop\n      pop\n      jump\t// out\n        /* \"#utility.yul\":18722:19157   */\n    tag_204:\n        /* \"#utility.yul\":18902:18905   */\n      0x00\n        /* \"#utility.yul\":18924:19019   */\n      tag_648\n        /* \"#utility.yul\":19015:19018   */\n      dup3\n        /* \"#utility.yul\":19006:19012   */\n      dup6\n        /* \"#utility.yul\":18924:19019   */\n      tag_445\n      jump\t// in\n    tag_648:\n        /* \"#utility.yul\":18917:19019   */\n      swap2\n      pop\n        /* \"#utility.yul\":19036:19131   */\n      tag_649\n        /* \"#utility.yul\":19127:19130   */\n      dup3\n        /* \"#utility.yul\":19118:19124   */\n      dup5\n        /* \"#utility.yul\":19036:19131   */\n      tag_445\n      jump\t// in\n    tag_649:\n        /* \"#utility.yul\":19029:19131   */\n      swap2\n      pop\n        /* \"#utility.yul\":19148:19151   */\n      dup2\n        /* \"#utility.yul\":19141:19151   */\n      swap1\n      pop\n        /* \"#utility.yul\":18722:19157   */\n      swap4\n      swap3\n      pop\n      pop\n      pop\n      jump\t// out\n        /* \"#utility.yul\":19163:19394   */\n    tag_446:\n        /* \"#utility.yul\":19303:19337   */\n      0x4552433732313a206f70657261746f7220717565727920666f72206e6f6e6578\n        /* \"#utility.yul\":19299:19300   */\n      0x00\n        /* \"#utility.yul\":19291:19297   */\n      dup3\n        /* \"#utility.yul\":19287:19301   */\n      add\n        /* \"#utility.yul\":19280:19338   */\n      mstore\n        /* \"#utility.yul\":19372:19386   */\n      0x697374656e7420746f6b656e0000000000000000000000000000000000000000\n        /* \"#utility.yul\":19367:19369   */\n      0x20\n        /* \"#utility.yul\":19359:19365   */\n      dup3\n        /* \"#utility.yul\":19355:19370   */\n      add\n        /* \"#utility.yul\":19348:19387   */\n      mstore\n        /* \"#utility.yul\":19163:19394   */\n      pop\n      jump\t// out\n        /* \"#utility.yul\":19400:19766   */\n    tag_447:\n        /* \"#utility.yul\":19542:19545   */\n      0x00\n        /* \"#utility.yul\":19563:19630   */\n      tag_652\n        /* \"#utility.yul\":19627:19629   */\n      0x2c\n        /* \"#utility.yul\":19622:19625   */\n      dup4\n        /* \"#utility.yul\":19563:19630   */\n      tag_406\n      jump\t// in\n    tag_652:\n        /* \"#utility.yul\":19556:19630   */\n      swap2\n      pop\n        /* \"#utility.yul\":19639:19732   */\n      tag_653\n        /* \"#utility.yul\":19728:19731   */\n      dup3\n        /* \"#utility.yul\":19639:19732   */\n      tag_446\n      jump\t// in\n    tag_653:\n        /* \"#utility.yul\":19757:19759   */\n      0x40\n        /* \"#utility.yul\":19752:19755   */\n      dup3\n        /* \"#utility.yul\":19748:19760   */\n      add\n        /* \"#utility.yul\":19741:19760   */\n      swap1\n      pop\n        /* \"#utility.yul\":19400:19766   */\n      swap2\n      swap1\n      pop\n      jump\t// out\n        /* \"#utility.yul\":19772:20191   */\n    tag_223:\n        /* \"#utility.yul\":19938:19942   */\n      0x00\n        /* \"#utility.yul\":19976:19978   */\n      0x20\n        /* \"#utility.yul\":19965:19974   */\n      dup3\n        /* \"#utility.yul\":19961:19979   */\n      add\n        /* \"#utility.yul\":19953:19979   */\n      swap1\n      pop\n        /* \"#utility.yul\":20025:20034   */\n      dup2\n        /* \"#utility.yul\":20019:20023   */\n      dup2\n        /* \"#utility.yul\":20015:20035   */\n      sub\n        /* \"#utility.yul\":20011:20012   */\n      0x00\n        /* \"#utility.yul\":20000:20009   */\n      dup4\n        /* \"#utility.yul\":19996:20013   */\n      add\n        /* \"#utility.yul\":19989:20036   */\n      mstore\n        /* \"#utility.yul\":20053:20184   */\n      tag_655\n        /* \"#utility.yul\":20179:20183   */\n      dup2\n        /* \"#utility.yul\":20053:20184   */\n      tag_447\n      jump\t// in\n    tag_655:\n        /* \"#utility.yul\":20045:20184   */\n      swap1\n      pop\n        /* \"#utility.yul\":19772:20191   */\n      swap2\n      swap1\n      pop\n      jump\t// out\n        /* \"#utility.yul\":20197:20425   */\n    tag_448:\n        /* \"#utility.yul\":20337:20371   */\n      0x4552433732313a207472616e73666572206f6620746f6b656e20746861742069\n        /* \"#utility.yul\":20333:20334   */\n      0x00\n        /* \"#utility.yul\":20325:20331   */\n      dup3\n        /* \"#utility.yul\":20321:20335   */\n      add\n        /* \"#utility.yul\":20314:20372   */\n      mstore\n        /* \"#utility.yul\":20406:20417   */\n      0x73206e6f74206f776e0000000000000000000000000000000000000000000000\n        /* \"#utility.yul\":20401:20403   */\n      0x20\n        /* \"#utility.yul\":20393:20399   */\n      dup3\n        /* \"#utility.yul\":20389:20404   */\n      add\n        /* \"#utility.yul\":20382:20418   */\n      mstore\n        /* \"#utility.yul\":20197:20425   */\n      pop\n      jump\t// out\n        /* \"#utility.yul\":20431:20797   */\n    tag_449:\n        /* \"#utility.yul\":20573:20576   */\n      0x00\n        /* \"#utility.yul\":20594:20661   */\n      tag_658\n        /* \"#utility.yul\":20658:20660   */\n      0x29\n        /* \"#utility.yul\":20653:20656   */\n      dup4\n        /* \"#utility.yul\":20594:20661   */\n      tag_406\n      jump\t// in\n    tag_658:\n        /* \"#utility.yul\":20587:20661   */\n      swap2\n      pop\n        /* \"#utility.yul\":20670:20763   */\n      tag_659\n        /* \"#utility.yul\":20759:20762   */\n      dup3\n        /* \"#utility.yul\":20670:20763   */\n      tag_448\n      jump\t// in\n    tag_659:\n        /* \"#utility.yul\":20788:20790   */\n      0x40\n        /* \"#utility.yul\":20783:20786   */\n      dup3\n        /* \"#utility.yul\":20779:20791   */\n      add\n        /* \"#utility.yul\":20772:20791   */\n      swap1\n      pop\n        /* \"#utility.yul\":20431:20797   */\n      swap2\n      swap1\n      pop\n      jump\t// out\n        /* \"#utility.yul\":20803:21222   */\n    tag_233:\n        /* \"#utility.yul\":20969:20973   */\n      0x00\n        /* \"#utility.yul\":21007:21009   */\n      0x20\n        /* \"#utility.yul\":20996:21005   */\n      dup3\n        /* \"#utility.yul\":20992:21010   */\n      add\n        /* \"#utility.yul\":20984:21010   */\n      swap1\n      pop\n        /* \"#utility.yul\":21056:21065   */\n      dup2\n        /* \"#utility.yul\":21050:21054   */\n      dup2\n        /* \"#utility.yul\":21046:21066   */\n      sub\n        /* \"#utility.yul\":21042:21043   */\n      0x00\n        /* \"#utility.yul\":21031:21040   */\n      dup4\n        /* \"#utility.yul\":21027:21044   */\n      add\n        /* \"#utility.yul\":21020:21067   */\n      mstore\n        /* \"#utility.yul\":21084:21215   */\n      tag_661\n        /* \"#utility.yul\":21210:21214   */\n      dup2\n        /* \"#utility.yul\":21084:21215   */\n      tag_449\n      jump\t// in\n    tag_661:\n        /* \"#utility.yul\":21076:21215   */\n      swap1\n      pop\n        /* \"#utility.yul\":20803:21222   */\n      swap2\n      swap1\n      pop\n      jump\t// out\n        /* \"#utility.yul\":21228:21451   */\n    tag_450:\n        /* \"#utility.yul\":21368:21402   */\n      0x4552433732313a207472616e7366657220746f20746865207a65726f20616464\n        /* \"#utility.yul\":21364:21365   */\n      0x00\n        /* \"#utility.yul\":21356:21362   */\n      dup3\n        /* \"#utility.yul\":21352:21366   */\n      add\n        /* \"#utility.yul\":21345:21403   */\n      mstore\n        /* \"#utility.yul\":21437:21443   */\n      0x7265737300000000000000000000000000000000000000000000000000000000\n        /* \"#utility.yul\":21432:21434   */\n      0x20\n        /* \"#utility.yul\":21424:21430   */\n      dup3\n        /* \"#utility.yul\":21420:21435   */\n      add\n        /* \"#utility.yul\":21413:21444   */\n      mstore\n        /* \"#utility.yul\":21228:21451   */\n      pop\n      jump\t// out\n        /* \"#utility.yul\":21457:21823   */\n    tag_451:\n        /* \"#utility.yul\":21599:21602   */\n      0x00\n        /* \"#utility.yul\":21620:21687   */\n      tag_664\n        /* \"#utility.yul\":21684:21686   */\n      0x24\n        /* \"#utility.yul\":21679:21682   */\n      dup4\n        /* \"#utility.yul\":21620:21687   */\n      tag_406\n      jump\t// in\n    tag_664:\n        /* \"#utility.yul\":21613:21687   */\n      swap2\n      pop\n        /* \"#utility.yul\":21696:21789   */\n      tag_665\n        /* \"#utility.yul\":21785:21788   */\n      dup3\n        /* \"#utility.yul\":21696:21789   */\n      tag_450\n      jump\t// in\n    tag_665:\n        /* \"#utility.yul\":21814:21816   */\n      0x40\n        /* \"#utility.yul\":21809:21812   */\n      dup3\n        /* \"#utility.yul\":21805:21817   */\n      add\n        /* \"#utility.yul\":21798:21817   */\n      swap1\n      pop\n        /* \"#utility.yul\":21457:21823   */\n      swap2\n      swap1\n      pop\n      jump\t// out\n        /* \"#utility.yul\":21829:22248   */\n    tag_236:\n        /* \"#utility.yul\":21995:21999   */\n      0x00\n        /* \"#utility.yul\":22033:22035   */\n      0x20\n        /* \"#utility.yul\":22022:22031   */\n      dup3\n        /* \"#utility.yul\":22018:22036   */\n      add\n        /* \"#utility.yul\":22010:22036   */\n      swap1\n      pop\n        /* \"#utility.yul\":22082:22091   */\n      dup2\n        /* \"#utility.yul\":22076:22080   */\n      dup2\n        /* \"#utility.yul\":22072:22092   */\n      sub\n        /* \"#utility.yul\":22068:22069   */\n      0x00\n        /* \"#utility.yul\":22057:22066   */\n      dup4\n        /* \"#utility.yul\":22053:22070   */\n      add\n        /* \"#utility.yul\":22046:22093   */\n      mstore\n        /* \"#utility.yul\":22110:22241   */\n      tag_667\n        /* \"#utility.yul\":22236:22240   */\n      dup2\n        /* \"#utility.yul\":22110:22241   */\n      tag_451\n      jump\t// in\n    tag_667:\n        /* \"#utility.yul\":22102:22241   */\n      swap1\n      pop\n        /* \"#utility.yul\":21829:22248   */\n      swap2\n      swap1\n      pop\n      jump\t// out\n        /* \"#utility.yul\":22254:22491   */\n    tag_452:\n        /* \"#utility.yul\":22394:22428   */\n      0x4552433732313a207472616e7366657220746f206e6f6e204552433732315265\n        /* \"#utility.yul\":22390:22391   */\n      0x00\n        /* \"#utility.yul\":22382:22388   */\n      dup3\n        /* \"#utility.yul\":22378:22392   */\n      add\n        /* \"#utility.yul\":22371:22429   */\n      mstore\n        /* \"#utility.yul\":22463:22483   */\n      0x63656976657220696d706c656d656e7465720000000000000000000000000000\n        /* \"#utility.yul\":22458:22460   */\n      0x20\n        /* \"#utility.yul\":22450:22456   */\n      dup3\n        /* \"#utility.yul\":22446:22461   */\n      add\n        /* \"#utility.yul\":22439:22484   */\n      mstore\n        /* \"#utility.yul\":22254:22491   */\n      pop\n      jump\t// out\n        /* \"#utility.yul\":22497:22863   */\n    tag_453:\n        /* \"#utility.yul\":22639:22642   */\n      0x00\n        /* \"#utility.yul\":22660:22727   */\n      tag_670\n        /* \"#utility.yul\":22724:22726   */\n      0x32\n        /* \"#utility.yul\":22719:22722   */\n      dup4\n        /* \"#utility.yul\":22660:22727   */\n      tag_406\n      jump\t// in\n    tag_670:\n        /* \"#utility.yul\":22653:22727   */\n      swap2\n      pop\n        /* \"#utility.yul\":22736:22829   */\n      tag_671\n        /* \"#utility.yul\":22825:22828   */\n      dup3\n        /* \"#utility.yul\":22736:22829   */\n      tag_452\n      jump\t// in\n    tag_671:\n        /* \"#utility.yul\":22854:22856   */\n      0x40\n        /* \"#utility.yul\":22849:22852   */\n      dup3\n        /* \"#utility.yul\":22845:22857   */\n      add\n        /* \"#utility.yul\":22838:22857   */\n      swap1\n      pop\n        /* \"#utility.yul\":22497:22863   */\n      swap2\n      swap1\n      pop\n      jump\t// out\n        /* \"#utility.yul\":22869:23288   */\n    tag_264:\n        /* \"#utility.yul\":23035:23039   */\n      0x00\n        /* \"#utility.yul\":23073:23075   */\n      0x20\n        /* \"#utility.yul\":23062:23071   */\n      dup3\n        /* \"#utility.yul\":23058:23076   */\n      add\n        /* \"#utility.yul\":23050:23076   */\n      swap1\n      pop\n        /* \"#utility.yul\":23122:23131   */\n      dup2\n        /* \"#utility.yul\":23116:23120   */\n      dup2\n        /* \"#utility.yul\":23112:23132   */\n      sub\n        /* \"#utility.yul\":23108:23109   */\n      0x00\n        /* \"#utility.yul\":23097:23106   */\n      dup4\n        /* \"#utility.yul\":23093:23110   */\n      add\n        /* \"#utility.yul\":23086:23133   */\n      mstore\n        /* \"#utility.yul\":23150:23281   */\n      tag_673\n        /* \"#utility.yul\":23276:23280   */\n      dup2\n        /* \"#utility.yul\":23150:23281   */\n      tag_453\n      jump\t// in\n    tag_673:\n        /* \"#utility.yul\":23142:23281   */\n      swap1\n      pop\n        /* \"#utility.yul\":22869:23288   */\n      swap2\n      swap1\n      pop\n      jump\t// out\n        /* \"#utility.yul\":23294:23474   */\n    tag_454:\n        /* \"#utility.yul\":23342:23419   */\n      0x4e487b7100000000000000000000000000000000000000000000000000000000\n        /* \"#utility.yul\":23339:23340   */\n      0x00\n        /* \"#utility.yul\":23332:23420   */\n      mstore\n        /* \"#utility.yul\":23439:23443   */\n      0x11\n        /* \"#utility.yul\":23436:23437   */\n      0x04\n        /* \"#utility.yul\":23429:23444   */\n      mstore\n        /* \"#utility.yul\":23463:23467   */\n      0x24\n        /* \"#utility.yul\":23460:23461   */\n      0x00\n        /* \"#utility.yul\":23453:23468   */\n      revert\n        /* \"#utility.yul\":23480:23713   */\n    tag_270:\n        /* \"#utility.yul\":23519:23522   */\n      0x00\n        /* \"#utility.yul\":23542:23566   */\n      tag_676\n        /* \"#utility.yul\":23560:23565   */\n      dup3\n        /* \"#utility.yul\":23542:23566   */\n      tag_410\n      jump\t// in\n    tag_676:\n        /* \"#utility.yul\":23533:23566   */\n      swap2\n      pop\n        /* \"#utility.yul\":23588:23654   */\n      0xffffffffffffffffffffffffffffffffffffffffffffffffffffffffffffffff\n        /* \"#utility.yul\":23581:23586   */\n      dup3\n        /* \"#utility.yul\":23578:23655   */\n      sub\n        /* \"#utility.yul\":23575:23678   */\n      tag_677\n      jumpi\n        /* \"#utility.yul\":23658:23676   */\n      tag_678\n      tag_454\n      jump\t// in\n    tag_678:\n        /* \"#utility.yul\":23575:23678   */\n    tag_677:\n        /* \"#utility.yul\":23705:23706   */\n      0x01\n        /* \"#utility.yul\":23698:23703   */\n      dup3\n        /* \"#utility.yul\":23694:23707   */\n      add\n        /* \"#utility.yul\":23687:23707   */\n      swap1\n      pop\n        /* \"#utility.yul\":23480:23713   */\n      swap2\n      swap1\n      pop\n      jump\t// out\n        /* \"#utility.yul\":23719:23899   */\n    tag_455:\n        /* \"#utility.yul\":23767:23844   */\n      0x4e487b7100000000000000000000000000000000000000000000000000000000\n        /* \"#utility.yul\":23764:23765   */\n      0x00\n        /* \"#utility.yul\":23757:23845   */\n      mstore\n        /* \"#utility.yul\":23864:23868   */\n      0x12\n        /* \"#utility.yul\":23861:23862   */\n      0x04\n        /* \"#utility.yul\":23854:23869   */\n      mstore\n        /* \"#utility.yul\":23888:23892   */\n      0x24\n        /* \"#utility.yul\":23885:23886   */\n      0x00\n        /* \"#utility.yul\":23878:23893   */\n      revert\n        /* \"#utility.yul\":23905:24090   */\n    tag_272:\n        /* \"#utility.yul\":23945:23946   */\n      0x00\n        /* \"#utility.yul\":23962:23982   */\n      tag_681\n        /* \"#utility.yul\":23980:23981   */\n      dup3\n        /* \"#utility.yul\":23962:23982   */\n      tag_410\n      jump\t// in\n    tag_681:\n        /* \"#utility.yul\":23957:23982   */\n      swap2\n      pop\n        /* \"#utility.yul\":23996:24016   */\n      tag_682\n        /* \"#utility.yul\":24014:24015   */\n      dup4\n        /* \"#utility.yul\":23996:24016   */\n      tag_410\n      jump\t// in\n    tag_682:\n        /* \"#utility.yul\":23991:24016   */\n      swap3\n      pop\n        /* \"#utility.yul\":24035:24036   */\n      dup3\n        /* \"#utility.yul\":24025:24060   */\n      tag_683\n      jumpi\n        /* \"#utility.yul\":24040:24058   */\n      tag_684\n      tag_455\n      jump\t// in\n    tag_684:\n        /* \"#utility.yul\":24025:24060   */\n    tag_683:\n        /* \"#utility.yul\":24082:24083   */\n      dup3\n        /* \"#utility.yul\":24079:24080   */\n      dup3\n        /* \"#utility.yul\":24075:24084   */\n      div\n        /* \"#utility.yul\":24070:24084   */\n      swap1\n      pop\n        /* \"#utility.yul\":23905:24090   */\n      swap3\n      swap2\n      pop\n      pop\n      jump\t// out\n        /* \"#utility.yul\":24096:24290   */\n    tag_280:\n        /* \"#utility.yul\":24136:24140   */\n      0x00\n        /* \"#utility.yul\":24156:24176   */\n      tag_686\n        /* \"#utility.yul\":24174:24175   */\n      dup3\n        /* \"#utility.yul\":24156:24176   */\n      tag_410\n      jump\t// in\n    tag_686:\n        /* \"#utility.yul\":24151:24176   */\n      swap2\n      pop\n        /* \"#utility.yul\":24190:24210   */\n      tag_687\n        /* \"#utility.yul\":24208:24209   */\n      dup4\n        /* \"#utility.yul\":24190:24210   */\n      tag_410\n      jump\t// in\n    tag_687:\n        /* \"#utility.yul\":24185:24210   */\n      swap3\n      pop\n        /* \"#utility.yul\":24234:24235   */\n      dup3\n        /* \"#utility.yul\":24231:24232   */\n      dup3\n        /* \"#utility.yul\":24227:24236   */\n      sub\n        /* \"#utility.yul\":24219:24236   */\n      swap1\n      pop\n        /* \"#utility.yul\":24258:24259   */\n      dup2\n        /* \"#utility.yul\":24252:24256   */\n      dup2\n        /* \"#utility.yul\":24249:24260   */\n      gt\n        /* \"#utility.yul\":24246:24283   */\n      iszero\n      tag_688\n      jumpi\n        /* \"#utility.yul\":24263:24281   */\n      tag_689\n      tag_454\n      jump\t// in\n    tag_689:\n        /* \"#utility.yul\":24246:24283   */\n    tag_688:\n        /* \"#utility.yul\":24096:24290   */\n      swap3\n      swap2\n      pop\n      pop\n      jump\t// out\n        /* \"#utility.yul\":24296:24472   */\n    tag_282:\n        /* \"#utility.yul\":24328:24329   */\n      0x00\n        /* \"#utility.yul\":24345:24365   */\n      tag_691\n        /* \"#utility.yul\":24363:24364   */\n      dup3\n        /* \"#utility.yul\":24345:24365   */\n      tag_410\n      jump\t// in\n    tag_691:\n        /* \"#utility.yul\":24340:24365   */\n      swap2\n      pop\n        /* \"#utility.yul\":24379:24399   */\n      tag_692\n        /* \"#utility.yul\":24397:24398   */\n      dup4\n        /* \"#utility.yul\":24379:24399   */\n      tag_410\n      jump\t// in\n    tag_692:\n        /* \"#utility.yul\":24374:24399   */\n      swap3\n      pop\n        /* \"#utility.yul\":24418:24419   */\n      dup3\n        /* \"#utility.yul\":24408:24443   */\n      tag_693\n      jumpi\n        /* \"#utility.yul\":24423:24441   */\n      tag_694\n      tag_455\n      jump\t// in\n    tag_694:\n        /* \"#utility.yul\":24408:24443   */\n    tag_693:\n        /* \"#utility.yul\":24464:24465   */\n      dup3\n        /* \"#utility.yul\":24461:24462   */\n      dup3\n        /* \"#utility.yul\":24457:24466   */\n      mod\n        /* \"#utility.yul\":24452:24466   */\n      swap1\n      pop\n        /* \"#utility.yul\":24296:24472   */\n      swap3\n      swap2\n      pop\n      pop\n      jump\t// out\n        /* \"#utility.yul\":24478:24669   */\n    tag_284:\n        /* \"#utility.yul\":24518:24521   */\n      0x00\n        /* \"#utility.yul\":24537:24557   */\n      tag_696\n        /* \"#utility.yul\":24555:24556   */\n      dup3\n        /* \"#utility.yul\":24537:24557   */\n      tag_410\n      jump\t// in\n    tag_696:\n        /* \"#utility.yul\":24532:24557   */\n      swap2\n      pop\n        /* \"#utility.yul\":24571:24591   */\n      tag_697\n        /* \"#utility.yul\":24589:24590   */\n      dup4\n        /* \"#utility.yul\":24571:24591   */\n      tag_410\n      jump\t// in\n    tag_697:\n        /* \"#utility.yul\":24566:24591   */\n      swap3\n      pop\n        /* \"#utility.yul\":24614:24615   */\n      dup3\n        /* \"#utility.yul\":24611:24612   */\n      dup3\n        /* \"#utility.yul\":24607:24616   */\n      add\n        /* \"#utility.yul\":24600:24616   */\n      swap1\n      pop\n        /* \"#utility.yul\":24635:24638   */\n      dup1\n        /* \"#utility.yul\":24632:24633   */\n      dup3\n        /* \"#utility.yul\":24629:24639   */\n      gt\n        /* \"#utility.yul\":24626:24662   */\n      iszero\n      tag_698\n      jumpi\n        /* \"#utility.yul\":24642:24660   */\n      tag_699\n      tag_454\n      jump\t// in\n    tag_699:\n        /* \"#utility.yul\":24626:24662   */\n    tag_698:\n        /* \"#utility.yul\":24478:24669   */\n      swap3\n      swap2\n      pop\n      pop\n      jump\t// out\n        /* \"#utility.yul\":24675:24855   */\n    tag_287:\n        /* \"#utility.yul\":24723:24800   */\n      0x4e487b7100000000000000000000000000000000000000000000000000000000\n        /* \"#utility.yul\":24720:24721   */\n      0x00\n        /* \"#utility.yul\":24713:24801   */\n      mstore\n        /* \"#utility.yul\":24820:24824   */\n      0x32\n        /* \"#utility.yul\":24817:24818   */\n      0x04\n        /* \"#utility.yul\":24810:24825   */\n      mstore\n        /* \"#utility.yul\":24844:24848   */\n      0x24\n        /* \"#utility.yul\":24841:24842   */\n      0x00\n        /* \"#utility.yul\":24834:24849   */\n      revert\n        /* \"#utility.yul\":24861:25082   */\n    tag_456:\n        /* \"#utility.yul\":25001:25035   */\n      0x456e756d657261626c655365743a20696e646578206f7574206f6620626f756e\n        /* \"#utility.yul\":24997:24998   */\n      0x00\n        /* \"#utility.yul\":24989:24995   */\n      dup3\n        /* \"#utility.yul\":24985:24999   */\n      add\n        /* \"#utility.yul\":24978:25036   */\n      mstore\n        /* \"#utility.yul\":25070:25074   */\n      0x6473000000000000000000000000000000000000000000000000000000000000\n        /* \"#utility.yul\":25065:25067   */\n      0x20\n        /* \"#utility.yul\":25057:25063   */\n      dup3\n        /* \"#utility.yul\":25053:25068   */\n      add\n        /* \"#utility.yul\":25046:25075   */\n      mstore\n        /* \"#utility.yul\":24861:25082   */\n      pop\n      jump\t// out\n        /* \"#utility.yul\":25088:25454   */\n    tag_457:\n        /* \"#utility.yul\":25230:25233   */\n      0x00\n        /* \"#utility.yul\":25251:25318   */\n      tag_703\n        /* \"#utility.yul\":25315:25317   */\n      0x22\n        /* \"#utility.yul\":25310:25313   */\n      dup4\n        /* \"#utility.yul\":25251:25318   */\n      tag_406\n      jump\t// in\n    tag_703:\n        /* \"#utility.yul\":25244:25318   */\n      swap2\n      pop\n        /* \"#utility.yul\":25327:25420   */\n      tag_704\n        /* \"#utility.yul\":25416:25419   */\n      dup3\n        /* \"#utility.yul\":25327:25420   */\n      tag_456\n      jump\t// in\n    tag_704:\n        /* \"#utility.yul\":25445:25447   */\n      0x40\n        /* \"#utility.yul\":25440:25443   */\n      dup3\n        /* \"#utility.yul\":25436:25448   */\n      add\n        /* \"#utility.yul\":25429:25448   */\n      swap1\n      pop\n        /* \"#utility.yul\":25088:25454   */\n      swap2\n      swap1\n      pop\n      jump\t// out\n        /* \"#utility.yul\":25460:25879   */\n    tag_306:\n        /* \"#utility.yul\":25626:25630   */\n      0x00\n        /* \"#utility.yul\":25664:25666   */\n      0x20\n        /* \"#utility.yul\":25653:25662   */\n      dup3\n        /* \"#utility.yul\":25649:25667   */\n      add\n        /* \"#utility.yul\":25641:25667   */\n      swap1\n      pop\n        /* \"#utility.yul\":25713:25722   */\n      dup2\n        /* \"#utility.yul\":25707:25711   */\n      dup2\n        /* \"#utility.yul\":25703:25723   */\n      sub\n        /* \"#utility.yul\":25699:25700   */\n      0x00\n        /* \"#utility.yul\":25688:25697   */\n      dup4\n        /* \"#utility.yul\":25684:25701   */\n      add\n        /* \"#utility.yul\":25677:25724   */\n      mstore\n        /* \"#utility.yul\":25741:25872   */\n      tag_706\n        /* \"#utility.yul\":25867:25871   */\n      dup2\n        /* \"#utility.yul\":25741:25872   */\n      tag_457\n      jump\t// in\n    tag_706:\n        /* \"#utility.yul\":25733:25872   */\n      swap1\n      pop\n        /* \"#utility.yul\":25460:25879   */\n      swap2\n      swap1\n      pop\n      jump\t// out\n        /* \"#utility.yul\":25885:26106   */\n    tag_458:\n        /* \"#utility.yul\":26025:26059   */\n      0x456e756d657261626c654d61703a20696e646578206f7574206f6620626f756e\n        /* \"#utility.yul\":26021:26022   */\n      0x00\n        /* \"#utility.yul\":26013:26019   */\n      dup3\n        /* \"#utility.yul\":26009:26023   */\n      add\n        /* \"#utility.yul\":26002:26060   */\n      mstore\n        /* \"#utility.yul\":26094:26098   */\n      0x6473000000000000000000000000000000000000000000000000000000000000\n        /* \"#utility.yul\":26089:26091   */\n      0x20\n        /* \"#utility.yul\":26081:26087   */\n      dup3\n        /* \"#utility.yul\":26077:26092   */\n      add\n        /* \"#utility.yul\":26070:26099   */\n      mstore\n        /* \"#utility.yul\":25885:26106   */\n      pop\n      jump\t// out\n        /* \"#utility.yul\":26112:26478   */\n    tag_459:\n        /* \"#utility.yul\":26254:26257   */\n      0x00\n        /* \"#utility.yul\":26275:26342   */\n      tag_709\n        /* \"#utility.yul\":26339:26341   */\n      0x22\n        /* \"#utility.yul\":26334:26337   */\n      dup4\n        /* \"#utility.yul\":26275:26342   */\n      tag_406\n      jump\t// in\n    tag_709:\n        /* \"#utility.yul\":26268:26342   */\n      swap2\n      pop\n        /* \"#utility.yul\":26351:26444   */\n      tag_710\n        /* \"#utility.yul\":26440:26443   */\n      dup3\n        /* \"#utility.yul\":26351:26444   */\n      tag_458\n      jump\t// in\n    tag_710:\n        /* \"#utility.yul\":26469:26471   */\n      0x40\n        /* \"#utility.yul\":26464:26467   */\n      dup3\n        /* \"#utility.yul\":26460:26472   */\n      add\n        /* \"#utility.yul\":26453:26472   */\n      swap1\n      pop\n        /* \"#utility.yul\":26112:26478   */\n      swap2\n      swap1\n      pop\n      jump\t// out\n        /* \"#utility.yul\":26484:26903   */\n    tag_313:\n        /* \"#utility.yul\":26650:26654   */\n      0x00\n        /* \"#utility.yul\":26688:26690   */\n      0x20\n        /* \"#utility.yul\":26677:26686   */\n      dup3\n        /* \"#utility.yul\":26673:26691   */\n      add\n        /* \"#utility.yul\":26665:26691   */\n      swap1\n      pop\n        /* \"#utility.yul\":26737:26746   */\n      dup2\n        /* \"#utility.yul\":26731:26735   */\n      dup2\n        /* \"#utility.yul\":26727:26747   */\n      sub\n        /* \"#utility.yul\":26723:26724   */\n      0x00\n        /* \"#utility.yul\":26712:26721   */\n      dup4\n        /* \"#utility.yul\":26708:26725   */\n      add\n        /* \"#utility.yul\":26701:26748   */\n      mstore\n        /* \"#utility.yul\":26765:26896   */\n      tag_712\n        /* \"#utility.yul\":26891:26895   */\n      dup2\n        /* \"#utility.yul\":26765:26896   */\n      tag_459\n      jump\t// in\n    tag_712:\n        /* \"#utility.yul\":26757:26896   */\n      swap1\n      pop\n        /* \"#utility.yul\":26484:26903   */\n      swap2\n      swap1\n      pop\n      jump\t// out\n        /* \"#utility.yul\":26909:27013   */\n    tag_460:\n        /* \"#utility.yul\":26954:26961   */\n      0x00\n        /* \"#utility.yul\":26983:27007   */\n      tag_714\n        /* \"#utility.yul\":27001:27006   */\n      dup3\n        /* \"#utility.yul\":26983:27007   */\n      tag_413\n      jump\t// in\n    tag_714:\n        /* \"#utility.yul\":26972:27007   */\n      swap1\n      pop\n        /* \"#utility.yul\":26909:27013   */\n      swap2\n      swap1\n      pop\n      jump\t// out\n        /* \"#utility.yul\":27019:27161   */\n    tag_461:\n        /* \"#utility.yul\":27122:27154   */\n      tag_716\n        /* \"#utility.yul\":27148:27153   */\n      dup2\n        /* \"#utility.yul\":27122:27154   */\n      tag_460\n      jump\t// in\n    tag_716:\n        /* \"#utility.yul\":27117:27120   */\n      dup3\n        /* \"#utility.yul\":27110:27155   */\n      mstore\n        /* \"#utility.yul\":27019:27161   */\n      pop\n      pop\n      jump\t// out\n        /* \"#utility.yul\":27167:27265   */\n    tag_462:\n        /* \"#utility.yul\":27218:27224   */\n      0x00\n        /* \"#utility.yul\":27252:27257   */\n      dup2\n        /* \"#utility.yul\":27246:27258   */\n      mload\n        /* \"#utility.yul\":27236:27258   */\n      swap1\n      pop\n        /* \"#utility.yul\":27167:27265   */\n      swap2\n      swap1\n      pop\n      jump\t// out\n        /* \"#utility.yul\":27271:27439   */\n    tag_463:\n        /* \"#utility.yul\":27354:27365   */\n      0x00\n        /* \"#utility.yul\":27388:27394   */\n      dup3\n        /* \"#utility.yul\":27383:27386   */\n      dup3\n        /* \"#utility.yul\":27376:27395   */\n      mstore\n        /* \"#utility.yul\":27428:27432   */\n      0x20\n        /* \"#utility.yul\":27423:27426   */\n      dup3\n        /* \"#utility.yul\":27419:27433   */\n      add\n        /* \"#utility.yul\":27404:27433   */\n      swap1\n      pop\n        /* \"#utility.yul\":27271:27439   */\n      swap3\n      swap2\n      pop\n      pop\n      jump\t// out\n        /* \"#utility.yul\":27445:27818   */\n    tag_464:\n        /* \"#utility.yul\":27531:27534   */\n      0x00\n        /* \"#utility.yul\":27559:27597   */\n      tag_720\n        /* \"#utility.yul\":27591:27596   */\n      dup3\n        /* \"#utility.yul\":27559:27597   */\n      tag_462\n      jump\t// in\n    tag_720:\n        /* \"#utility.yul\":27613:27683   */\n      tag_721\n        /* \"#utility.yul\":27676:27682   */\n      dup2\n        /* \"#utility.yul\":27671:27674   */\n      dup6\n        /* \"#utility.yul\":27613:27683   */\n      tag_463\n      jump\t// in\n    tag_721:\n        /* \"#utility.yul\":27606:27683   */\n      swap4\n      pop\n        /* \"#utility.yul\":27692:27757   */\n      tag_722\n        /* \"#utility.yul\":27750:27756   */\n      dup2\n        /* \"#utility.yul\":27745:27748   */\n      dup6\n        /* \"#utility.yul\":27738:27742   */\n      0x20\n        /* \"#utility.yul\":27731:27736   */\n      dup7\n        /* \"#utility.yul\":27727:27743   */\n      add\n        /* \"#utility.yul\":27692:27757   */\n      tag_407\n      jump\t// in\n    tag_722:\n        /* \"#utility.yul\":27782:27811   */\n      tag_723\n        /* \"#utility.yul\":27804:27810   */\n      dup2\n        /* \"#utility.yul\":27782:27811   */\n      tag_408\n      jump\t// in\n    tag_723:\n        /* \"#utility.yul\":27777:27780   */\n      dup5\n        /* \"#utility.yul\":27773:27812   */\n      add\n        /* \"#utility.yul\":27766:27812   */\n      swap2\n      pop\n        /* \"#utility.yul\":27535:27818   */\n      pop\n        /* \"#utility.yul\":27445:27818   */\n      swap3\n      swap2\n      pop\n      pop\n      jump\t// out\n        /* \"#utility.yul\":27824:28496   */\n    tag_332:\n        /* \"#utility.yul\":28035:28039   */\n      0x00\n        /* \"#utility.yul\":28073:28076   */\n      0x80\n        /* \"#utility.yul\":28062:28071   */\n      dup3\n        /* \"#utility.yul\":28058:28077   */\n      add\n        /* \"#utility.yul\":28050:28077   */\n      swap1\n      pop\n        /* \"#utility.yul\":28087:28174   */\n      tag_725\n        /* \"#utility.yul\":28171:28172   */\n      0x00\n        /* \"#utility.yul\":28160:28169   */\n      dup4\n        /* \"#utility.yul\":28156:28173   */\n      add\n        /* \"#utility.yul\":28147:28153   */\n      dup8\n        /* \"#utility.yul\":28087:28174   */\n      tag_461\n      jump\t// in\n    tag_725:\n        /* \"#utility.yul\":28184:28256   */\n      tag_726\n        /* \"#utility.yul\":28252:28254   */\n      0x20\n        /* \"#utility.yul\":28241:28250   */\n      dup4\n        /* \"#utility.yul\":28237:28255   */\n      add\n        /* \"#utility.yul\":28228:28234   */\n      dup7\n        /* \"#utility.yul\":28184:28256   */\n      tag_415\n      jump\t// in\n    tag_726:\n        /* \"#utility.yul\":28266:28338   */\n      tag_727\n        /* \"#utility.yul\":28334:28336   */\n      0x40\n        /* \"#utility.yul\":28323:28332   */\n      dup4\n        /* \"#utility.yul\":28319:28337   */\n      add\n        /* \"#utility.yul\":28310:28316   */\n      dup6\n        /* \"#utility.yul\":28266:28338   */\n      tag_418\n      jump\t// in\n    tag_727:\n        /* \"#utility.yul\":28385:28394   */\n      dup2\n        /* \"#utility.yul\":28379:28383   */\n      dup2\n        /* \"#utility.yul\":28375:28395   */\n      sub\n        /* \"#utility.yul\":28370:28372   */\n      0x60\n        /* \"#utility.yul\":28359:28368   */\n      dup4\n        /* \"#utility.yul\":28355:28373   */\n      add\n        /* \"#utility.yul\":28348:28396   */\n      mstore\n        /* \"#utility.yul\":28413:28489   */\n      tag_728\n        /* \"#utility.yul\":28484:28488   */\n      dup2\n        /* \"#utility.yul\":28475:28481   */\n      dup5\n        /* \"#utility.yul\":28413:28489   */\n      tag_464\n      jump\t// in\n    tag_728:\n        /* \"#utility.yul\":28405:28489   */\n      swap1\n      pop\n        /* \"#utility.yul\":27824:28496   */\n      swap6\n      swap5\n      pop\n      pop\n      pop\n      pop\n      pop\n      jump\t// out\n        /* \"#utility.yul\":28502:28643   */\n    tag_465:\n        /* \"#utility.yul\":28558:28563   */\n      0x00\n        /* \"#utility.yul\":28589:28595   */\n      dup2\n        /* \"#utility.yul\":28583:28596   */\n      mload\n        /* \"#utility.yul\":28574:28596   */\n      swap1\n      pop\n        /* \"#utility.yul\":28605:28637   */\n      tag_730\n        /* \"#utility.yul\":28631:28636   */\n      dup2\n        /* \"#utility.yul\":28605:28637   */\n      tag_401\n      jump\t// in\n    tag_730:\n        /* \"#utility.yul\":28502:28643   */\n      swap3\n      swap2\n      pop\n      pop\n      jump\t// out\n        /* \"#utility.yul\":28649:28998   */\n    tag_335:\n        /* \"#utility.yul\":28718:28724   */\n      0x00\n        /* \"#utility.yul\":28767:28769   */\n      0x20\n        /* \"#utility.yul\":28755:28764   */\n      dup3\n        /* \"#utility.yul\":28746:28753   */\n      dup5\n        /* \"#utility.yul\":28742:28765   */\n      sub\n        /* \"#utility.yul\":28738:28770   */\n      slt\n        /* \"#utility.yul\":28735:28854   */\n      iszero\n      tag_732\n      jumpi\n        /* \"#utility.yul\":28773:28852   */\n      tag_733\n      tag_398\n      jump\t// in\n    tag_733:\n        /* \"#utility.yul\":28735:28854   */\n    tag_732:\n        /* \"#utility.yul\":28893:28894   */\n      0x00\n        /* \"#utility.yul\":28918:28981   */\n      tag_734\n        /* \"#utility.yul\":28973:28980   */\n      dup5\n        /* \"#utility.yul\":28964:28970   */\n      dup3\n        /* \"#utility.yul\":28953:28962   */\n      dup6\n        /* \"#utility.yul\":28949:28971   */\n      add\n        /* \"#utility.yul\":28918:28981   */\n      tag_465\n      jump\t// in\n    tag_734:\n        /* \"#utility.yul\":28908:28981   */\n      swap2\n      pop\n        /* \"#utility.yul\":28864:28991   */\n      pop\n        /* \"#utility.yul\":28649:28998   */\n      swap3\n      swap2\n      pop\n      pop\n      jump\t// out\n        /* \"#utility.yul\":29004:29184   */\n    tag_350:\n        /* \"#utility.yul\":29052:29129   */\n      0x4e487b7100000000000000000000000000000000000000000000000000000000\n        /* \"#utility.yul\":29049:29050   */\n      0x00\n        /* \"#utility.yul\":29042:29130   */\n      mstore\n        /* \"#utility.yul\":29149:29153   */\n      0x31\n        /* \"#utility.yul\":29146:29147   */\n      0x04\n        /* \"#utility.yul\":29139:29154   */\n      mstore\n        /* \"#utility.yul\":29173:29177   */\n      0x24\n        /* \"#utility.yul\":29170:29171   */\n      0x00\n        /* \"#utility.yul\":29163:29178   */\n      revert\n        /* \"#utility.yul\":29190:29415   */\n    tag_466:\n        /* \"#utility.yul\":29330:29364   */\n      0x416464726573733a20696e73756666696369656e742062616c616e636520666f\n        /* \"#utility.yul\":29326:29327   */\n      0x00\n        /* \"#utility.yul\":29318:29324   */\n      dup3\n        /* \"#utility.yul\":29314:29328   */\n      add\n        /* \"#utility.yul\":29307:29365   */\n      mstore\n        /* \"#utility.yul\":29399:29407   */\n      0x722063616c6c0000000000000000000000000000000000000000000000000000\n        /* \"#utility.yul\":29394:29396   */\n      0x20\n        /* \"#utility.yul\":29386:29392   */\n      dup3\n        /* \"#utility.yul\":29382:29397   */\n      add\n        /* \"#utility.yul\":29375:29408   */\n      mstore\n        /* \"#utility.yul\":29190:29415   */\n      pop\n      jump\t// out\n        /* \"#utility.yul\":29421:29787   */\n    tag_467:\n        /* \"#utility.yul\":29563:29566   */\n      0x00\n        /* \"#utility.yul\":29584:29651   */\n      tag_738\n        /* \"#utility.yul\":29648:29650   */\n      0x26\n        /* \"#utility.yul\":29643:29646   */\n      dup4\n        /* \"#utility.yul\":29584:29651   */\n      tag_406\n      jump\t// in\n    tag_738:\n        /* \"#utility.yul\":29577:29651   */\n      swap2\n      pop\n        /* \"#utility.yul\":29660:29753   */\n      tag_739\n        /* \"#utility.yul\":29749:29752   */\n      dup3\n        /* \"#utility.yul\":29660:29753   */\n      tag_466\n      jump\t// in\n    tag_739:\n        /* \"#utility.yul\":29778:29780   */\n      0x40\n        /* \"#utility.yul\":29773:29776   */\n      dup3\n        /* \"#utility.yul\":29769:29781   */\n      add\n        /* \"#utility.yul\":29762:29781   */\n      swap1\n      pop\n        /* \"#utility.yul\":29421:29787   */\n      swap2\n      swap1\n      pop\n      jump\t// out\n        /* \"#utility.yul\":29793:30212   */\n    tag_375:\n        /* \"#utility.yul\":29959:29963   */\n      0x00\n        /* \"#utility.yul\":29997:29999   */\n      0x20\n        /* \"#utility.yul\":29986:29995   */\n      dup3\n        /* \"#utility.yul\":29982:30000   */\n      add\n        /* \"#utility.yul\":29974:30000   */\n      swap1\n      pop\n        /* \"#utility.yul\":30046:30055   */\n      dup2\n        /* \"#utility.yul\":30040:30044   */\n      dup2\n        /* \"#utility.yul\":30036:30056   */\n      sub\n        /* \"#utility.yul\":30032:30033   */\n      0x00\n        /* \"#utility.yul\":30021:30030   */\n      dup4\n        /* \"#utility.yul\":30017:30034   */\n      add\n        /* \"#utility.yul\":30010:30057   */\n      mstore\n        /* \"#utility.yul\":30074:30205   */\n      tag_741\n        /* \"#utility.yul\":30200:30204   */\n      dup2\n        /* \"#utility.yul\":30074:30205   */\n      tag_467\n      jump\t// in\n    tag_741:\n        /* \"#utility.yul\":30066:30205   */\n      swap1\n      pop\n        /* \"#utility.yul\":29793:30212   */\n      swap2\n      swap1\n      pop\n      jump\t// out\n        /* \"#utility.yul\":30218:30365   */\n    tag_468:\n        /* \"#utility.yul\":30319:30330   */\n      0x00\n        /* \"#utility.yul\":30356:30359   */\n      dup2\n        /* \"#utility.yul\":30341:30359   */\n      swap1\n      pop\n        /* \"#utility.yul\":30218:30365   */\n      swap3\n      swap2\n      pop\n      pop\n      jump\t// out\n        /* \"#utility.yul\":30371:30757   */\n    tag_469:\n        /* \"#utility.yul\":30475:30478   */\n      0x00\n        /* \"#utility.yul\":30503:30541   */\n      tag_744\n        /* \"#utility.yul\":30535:30540   */\n      dup3\n        /* \"#utility.yul\":30503:30541   */\n      tag_462\n      jump\t// in\n    tag_744:\n        /* \"#utility.yul\":30557:30645   */\n      tag_745\n        /* \"#utility.yul\":30638:30644   */\n      dup2\n        /* \"#utility.yul\":30633:30636   */\n      dup6\n        /* \"#utility.yul\":30557:30645   */\n      tag_468\n      jump\t// in\n    tag_745:\n        /* \"#utility.yul\":30550:30645   */\n      swap4\n      pop\n        /* \"#utility.yul\":30654:30719   */\n      tag_746\n        /* \"#utility.yul\":30712:30718   */\n      dup2\n        /* \"#utility.yul\":30707:30710   */\n      dup6\n        /* \"#utility.yul\":30700:30704   */\n      0x20\n        /* \"#utility.yul\":30693:30698   */\n      dup7\n        /* \"#utility.yul\":30689:30705   */\n      add\n        /* \"#utility.yul\":30654:30719   */\n      tag_407\n      jump\t// in\n    tag_746:\n        /* \"#utility.yul\":30744:30750   */\n      dup1\n        /* \"#utility.yul\":30739:30742   */\n      dup5\n        /* \"#utility.yul\":30735:30751   */\n      add\n        /* \"#utility.yul\":30728:30751   */\n      swap2\n      pop\n        /* \"#utility.yul\":30479:30757   */\n      pop\n        /* \"#utility.yul\":30371:30757   */\n      swap3\n      swap2\n      pop\n      pop\n      jump\t// out\n        /* \"#utility.yul\":30763:31034   */\n    tag_377:\n        /* \"#utility.yul\":30893:30896   */\n      0x00\n        /* \"#utility.yul\":30915:31008   */\n      tag_748\n        /* \"#utility.yul\":31004:31007   */\n      dup3\n        /* \"#utility.yul\":30995:31001   */\n      dup5\n        /* \"#utility.yul\":30915:31008   */\n      tag_469\n      jump\t// in\n    tag_748:\n        /* \"#utility.yul\":30908:31008   */\n      swap2\n      pop\n        /* \"#utility.yul\":31025:31028   */\n      dup2\n        /* \"#utility.yul\":31018:31028   */\n      swap1\n      pop\n        /* \"#utility.yul\":30763:31034   */\n      swap3\n      swap2\n      pop\n      pop\n      jump\t// out\n        /* \"#utility.yul\":31040:31219   */\n    tag_470:\n        /* \"#utility.yul\":31180:31211   */\n      0x416464726573733a2063616c6c20746f206e6f6e2d636f6e7472616374000000\n        /* \"#utility.yul\":31176:31177   */\n      0x00\n        /* \"#utility.yul\":31168:31174   */\n      dup3\n        /* \"#utility.yul\":31164:31178   */\n      add\n        /* \"#utility.yul\":31157:31212   */\n      mstore\n        /* \"#utility.yul\":31040:31219   */\n      pop\n      jump\t// out\n        /* \"#utility.yul\":31225:31591   */\n    tag_471:\n        /* \"#utility.yul\":31367:31370   */\n      0x00\n        /* \"#utility.yul\":31388:31455   */\n      tag_751\n        /* \"#utility.yul\":31452:31454   */\n      0x1d\n        /* \"#utility.yul\":31447:31450   */\n      dup4\n        /* \"#utility.yul\":31388:31455   */\n      tag_406\n      jump\t// in\n    tag_751:\n        /* \"#utility.yul\":31381:31455   */\n      swap2\n      pop\n        /* \"#utility.yul\":31464:31557   */\n      tag_752\n        /* \"#utility.yul\":31553:31556   */\n      dup3\n        /* \"#utility.yul\":31464:31557   */\n      tag_470\n      jump\t// in\n    tag_752:\n        /* \"#utility.yul\":31582:31584   */\n      0x20\n        /* \"#utility.yul\":31577:31580   */\n      dup3\n        /* \"#utility.yul\":31573:31585   */\n      add\n        /* \"#utility.yul\":31566:31585   */\n      swap1\n      pop\n        /* \"#utility.yul\":31225:31591   */\n      swap2\n      swap1\n      pop\n      jump\t// out\n        /* \"#utility.yul\":31597:32016   */\n    tag_389:\n        /* \"#utility.yul\":31763:31767   */\n      0x00\n        /* \"#utility.yul\":31801:31803   */\n      0x20\n        /* \"#utility.yul\":31790:31799   */\n      dup3\n        /* \"#utility.yul\":31786:31804   */\n      add\n        /* \"#utility.yul\":31778:31804   */\n      swap1\n      pop\n        /* \"#utility.yul\":31850:31859   */\n      dup2\n        /* \"#utility.yul\":31844:31848   */\n      dup2\n        /* \"#utility.yul\":31840:31860   */\n      sub\n        /* \"#utility.yul\":31836:31837   */\n      0x00\n        /* \"#utility.yul\":31825:31834   */\n      dup4\n        /* \"#utility.yul\":31821:31838   */\n      add\n        /* \"#utility.yul\":31814:31861   */\n      mstore\n        /* \"#utility.yul\":31878:32009   */\n      tag_754\n        /* \"#utility.yul\":32004:32008   */\n      dup2\n        /* \"#utility.yul\":31878:32009   */\n      tag_471\n      jump\t// in\n    tag_754:\n        /* \"#utility.yul\":31870:32009   */\n      swap1\n      pop\n        /* \"#utility.yul\":31597:32016   */\n      swap2\n      swap1\n      pop\n      jump\t// out\n    stop\n    data_1e766a06da43a53d0f4c380e06e5a342e14d5af1bf8501996c844905530ca84e 4552433732313a207472616e7366657220746f206e6f6e20455243373231526563656976657220696d706c656d656e746572\n    data_7481f3df2a424c0755a1ad2356614e9a5a358d461ea2eae1f89cb21cbad00397 4552433732313a206f776e657220717565727920666f72206e6f6e6578697374656e7420746f6b656e\n\n    auxdata: 0xa264697066735822122001785328669099ddeb97528c86000bbbd2a9bd4f34f35018cbec39aa3be5da8964736f6c63430008110033\n}\n",
				"bytecode": {
					"linkReferences": {},
					"object": "608060405260405180602001604052806000815250600b908162000024919062000435565b503480156200003257600080fd5b506040516200365738038062003657833981810160405281019062000058919062000680565b620000706301ffc9a760e01b620000e460201b60201c565b816006908162000081919062000435565b50806007908162000093919062000435565b50620000ac6380ac58cd60e01b620000e460201b60201c565b620000c4635b5e139f60e01b620000e460201b60201c565b620000dc63780e9d6360e01b620000e460201b60201c565b505062000788565b63ffffffff60e01b817bffffffffffffffffffffffffffffffffffffffffffffffffffffffff1916036200014f576040517f08c379a0000000000000000000000000000000000000000000000000000000008152600401620001469062000766565b60405180910390fd5b6001600080837bffffffffffffffffffffffffffffffffffffffffffffffffffffffff19167bffffffffffffffffffffffffffffffffffffffffffffffffffffffff1916815260200190815260200160002060006101000a81548160ff02191690831515021790555050565b600081519050919050565b7f4e487b7100000000000000000000000000000000000000000000000000000000600052604160045260246000fd5b7f4e487b7100000000000000000000000000000000000000000000000000000000600052602260045260246000fd5b600060028204905060018216806200023d57607f821691505b602082108103620002535762000252620001f5565b5b50919050565b60008190508160005260206000209050919050565b60006020601f8301049050919050565b600082821b905092915050565b600060088302620002bd7fffffffffffffffffffffffffffffffffffffffffffffffffffffffffffffffff826200027e565b620002c986836200027e565b95508019841693508086168417925050509392505050565b6000819050919050565b6000819050919050565b600062000316620003106200030a84620002e1565b620002eb565b620002e1565b9050919050565b6000819050919050565b6200033283620002f5565b6200034a62000341826200031d565b8484546200028b565b825550505050565b600090565b6200036162000352565b6200036e81848462000327565b505050565b5b8181101562000396576200038a60008262000357565b60018101905062000374565b5050565b601f821115620003e557620003af8162000259565b620003ba846200026e565b81016020851015620003ca578190505b620003e2620003d9856200026e565b83018262000373565b50505b505050565b600082821c905092915050565b60006200040a60001984600802620003ea565b1980831691505092915050565b6000620004258383620003f7565b9150826002028217905092915050565b6200044082620001bb565b67ffffffffffffffff8111156200045c576200045b620001c6565b5b62000468825462000224565b620004758282856200039a565b600060209050601f831160018114620004ad576000841562000498578287015190505b620004a4858262000417565b86555062000514565b601f198416620004bd8662000259565b60005b82811015620004e757848901518255600182019150602085019450602081019050620004c0565b8683101562000507578489015162000503601f891682620003f7565b8355505b6001600288020188555050505b505050505050565b6000604051905090565b600080fd5b600080fd5b600080fd5b600080fd5b6000601f19601f8301169050919050565b62000556826200053a565b810181811067ffffffffffffffff82111715620005785762000577620001c6565b5b80604052505050565b60006200058d6200051c565b90506200059b82826200054b565b919050565b600067ffffffffffffffff821115620005be57620005bd620001c6565b5b620005c9826200053a565b9050602081019050919050565b60005b83811015620005f6578082015181840152602081019050620005d9565b60008484015250505050565b6000620006196200061384620005a0565b62000581565b90508281526020810184848401111562000638576200063762000535565b5b62000645848285620005d6565b509392505050565b600082601f83011262000665576200066462000530565b5b81516200067784826020860162000602565b91505092915050565b600080604083850312156200069a576200069962000526565b5b600083015167ffffffffffffffff811115620006bb57620006ba6200052b565b5b620006c9858286016200064d565b925050602083015167ffffffffffffffff811115620006ed57620006ec6200052b565b5b620006fb858286016200064d565b9150509250929050565b600082825260208201905092915050565b7f4552433136353a20696e76616c696420696e7465726661636520696400000000600082015250565b60006200074e601c8362000705565b91506200075b8262000716565b602082019050919050565b6000602082019050818103600083015262000781816200073f565b9050919050565b612ebf80620007986000396000f3fe608060405234801561001057600080fd5b50600436106101215760003560e01c80636352211e116100ad578063b88d4fde11610071578063b88d4fde1461032e578063c57dc2351461034a578063c87b56dd1461037a578063d48e638a146103aa578063e985e9c5146103da57610121565b80636352211e146102765780636c0360eb146102a657806370a08231146102c457806395d89b41146102f4578063a22cb4651461031257610121565b806318160ddd116100f457806318160ddd146101c057806323b872dd146101de5780632f745c59146101fa57806342842e0e1461022a5780634f6ccce71461024657610121565b806301ffc9a71461012657806306fdde0314610156578063081812fc14610174578063095ea7b3146101a4575b600080fd5b610140600480360381019061013b9190611cb9565b61040a565b60405161014d9190611d01565b60405180910390f35b61015e610471565b60405161016b9190611dac565b60405180910390f35b61018e60048036038101906101899190611e04565b610503565b60405161019b9190611e72565b60405180910390f35b6101be60048036038101906101b99190611eb9565b610588565b005b6101c861069f565b6040516101d59190611f08565b60405180910390f35b6101f860048036038101906101f39190611f23565b6106b0565b005b610214600480360381019061020f9190611eb9565b610710565b6040516102219190611f08565b60405180910390f35b610244600480360381019061023f9190611f23565b61076b565b005b610260600480360381019061025b9190611e04565b61078b565b60405161026d9190611f08565b60405180910390f35b610290600480360381019061028b9190611e04565b6107ae565b60405161029d9190611e72565b60405180910390f35b6102ae6107e5565b6040516102bb9190611dac565b60405180910390f35b6102de60048036038101906102d99190611f76565b610877565b6040516102eb9190611f08565b60405180910390f35b6102fc610935565b6040516103099190611dac565b60405180910390f35b61032c60048036038101906103279190611fcf565b6109c7565b005b61034860048036038101906103439190612144565b610b47565b005b610364600480360381019061035f9190611e04565b610ba9565b6040516103719190611f08565b60405180910390f35b610394600480360381019061038f9190611e04565b610bc6565b6040516103a19190611dac565b60405180910390f35b6103c460048036038101906103bf9190611e04565b610d38565b6040516103d19190611e72565b60405180910390f35b6103f460048036038101906103ef91906121c7565b610d75565b6040516104019190611d01565b60405180910390f35b6000806000837bffffffffffffffffffffffffffffffffffffffffffffffffffffffff19167bffffffffffffffffffffffffffffffffffffffffffffffffffffffff1916815260200190815260200160002060009054906101000a900460ff169050919050565b60606006805461048090612236565b80601f01602080910402602001604051908101604052809291908181526020018280546104ac90612236565b80156104f95780601f106104ce576101008083540402835291602001916104f9565b820191906000526020600020905b8154815290600101906020018083116104dc57829003601f168201915b5050505050905090565b600061050e82610e09565b61054d576040517f08c379a0000000000000000000000000000000000000000000000000000000008152600401610544906122d9565b60405180910390fd5b6004600083815260200190815260200160002060009054906101000a900473ffffffffffffffffffffffffffffffffffffffff169050919050565b6000610593826107ae565b90508073ffffffffffffffffffffffffffffffffffffffff168373ffffffffffffffffffffffffffffffffffffffff1603610603576040517f08c379a00000000000000000000000000000000000000000000000000000000081526004016105fa9061236b565b60405180910390fd5b8073ffffffffffffffffffffffffffffffffffffffff16610622610e26565b73ffffffffffffffffffffffffffffffffffffffff16148061065157506106508161064b610e26565b610d75565b5b610690576040517f08c379a0000000000000000000000000000000000000000000000000000000008152600401610687906123fd565b60405180910390fd5b61069a8383610e2e565b505050565b60006106ab6002610ee7565b905090565b6106c16106bb610e26565b82610efc565b610700576040517f08c379a00000000000000000000000000000000000000000000000000000000081526004016106f79061248f565b60405180910390fd5b61070b838383610fda565b505050565b600061076382600160008673ffffffffffffffffffffffffffffffffffffffff1673ffffffffffffffffffffffffffffffffffffffff1681526020019081526020016000206111ee90919063ffffffff16565b905092915050565b61078683838360405180602001604052806000815250610b47565b505050565b6000806107a283600261120890919063ffffffff16565b50905080915050919050565b60006107de82604051806060016040528060298152602001612e616029913960026112349092919063ffffffff16565b9050919050565b6060600b80546107f490612236565b80601f016020809104026020016040519081016040528092919081815260200182805461082090612236565b801561086d5780601f106108425761010080835404028352916020019161086d565b820191906000526020600020905b81548152906001019060200180831161085057829003601f168201915b5050505050905090565b60008073ffffffffffffffffffffffffffffffffffffffff168273ffffffffffffffffffffffffffffffffffffffff16036108e7576040517f08c379a00000000000000000000000000000000000000000000000000000000081526004016108de90612521565b60405180910390fd5b61092e600160008473ffffffffffffffffffffffffffffffffffffffff1673ffffffffffffffffffffffffffffffffffffffff168152602001908152602001600020611253565b9050919050565b60606007805461094490612236565b80601f016020809104026020016040519081016040528092919081815260200182805461097090612236565b80156109bd5780601f10610992576101008083540402835291602001916109bd565b820191906000526020600020905b8154815290600101906020018083116109a057829003601f168201915b5050505050905090565b6109cf610e26565b73ffffffffffffffffffffffffffffffffffffffff168273ffffffffffffffffffffffffffffffffffffffff1603610a3c576040517f08c379a0000000000000000000000000000000000000000000000000000000008152600401610a339061258d565b60405180910390fd5b8060056000610a49610e26565b73ffffffffffffffffffffffffffffffffffffffff1673ffffffffffffffffffffffffffffffffffffffff16815260200190815260200160002060008473ffffffffffffffffffffffffffffffffffffffff1673ffffffffffffffffffffffffffffffffffffffff16815260200190815260200160002060006101000a81548160ff0219169083151502179055508173ffffffffffffffffffffffffffffffffffffffff16610af6610e26565b73ffffffffffffffffffffffffffffffffffffffff167f17307eab39ab6107e8899845ad3d59bd9653f200f220920489ca2b5937696c3183604051610b3b9190611d01565b60405180910390a35050565b610b58610b52610e26565b83610efc565b610b97576040517f08c379a0000000000000000000000000000000000000000000000000000000008152600401610b8e9061248f565b60405180910390fd5b610ba384848484611268565b50505050565b600060096000838152602001908152602001600020549050919050565b6060610bd182610e09565b610c10576040517f08c379a0000000000000000000000000000000000000000000000000000000008152600401610c079061261f565b60405180910390fd5b6000600860008481526020019081526020016000208054610c3090612236565b80601f0160208091040260200160405190810160405280929190818152602001828054610c5c90612236565b8015610ca95780601f10610c7e57610100808354040283529160200191610ca9565b820191906000526020600020905b815481529060010190602001808311610c8c57829003601f168201915b505050505090506000610cba6107e5565b90506000815103610ccf578192505050610d33565b600082511115610d04578082604051602001610cec92919061267b565b60405160208183030381529060405292505050610d33565b80610d0e856112c4565b604051602001610d1f92919061267b565b604051602081830303815290604052925050505b919050565b6000600a600083815260200190815260200160002060009054906101000a900473ffffffffffffffffffffffffffffffffffffffff169050919050565b6000600560008473ffffffffffffffffffffffffffffffffffffffff1673ffffffffffffffffffffffffffffffffffffffff16815260200190815260200160002060008373ffffffffffffffffffffffffffffffffffffffff1673ffffffffffffffffffffffffffffffffffffffff16815260200190815260200160002060009054906101000a900460ff16905092915050565b6000610e1f82600261142490919063ffffffff16565b9050919050565b600033905090565b816004600083815260200190815260200160002060006101000a81548173ffffffffffffffffffffffffffffffffffffffff021916908373ffffffffffffffffffffffffffffffffffffffff160217905550808273ffffffffffffffffffffffffffffffffffffffff16610ea1836107ae565b73ffffffffffffffffffffffffffffffffffffffff167f8c5be1e5ebec7d5bd14f71427d1e84f3dd0314c0f7b2291e5b200ac8c7c3b92560405160405180910390a45050565b6000610ef58260000161143e565b9050919050565b6000610f0782610e09565b610f46576040517f08c379a0000000000000000000000000000000000000000000000000000000008152600401610f3d90612711565b60405180910390fd5b6000610f51836107ae565b90508073ffffffffffffffffffffffffffffffffffffffff168473ffffffffffffffffffffffffffffffffffffffff161480610fc057508373ffffffffffffffffffffffffffffffffffffffff16610fa884610503565b73ffffffffffffffffffffffffffffffffffffffff16145b80610fd15750610fd08185610d75565b5b91505092915050565b8273ffffffffffffffffffffffffffffffffffffffff16610ffa826107ae565b73ffffffffffffffffffffffffffffffffffffffff1614611050576040517f08c379a0000000000000000000000000000000000000000000000000000000008152600401611047906127a3565b60405180910390fd5b600073ffffffffffffffffffffffffffffffffffffffff168273ffffffffffffffffffffffffffffffffffffffff16036110bf576040517f08c379a00000000000000000000000000000000000000000000000000000000081526004016110b690612835565b60405180910390fd5b6110ca83838361144f565b6110d5600082610e2e565b61112681600160008673ffffffffffffffffffffffffffffffffffffffff1673ffffffffffffffffffffffffffffffffffffffff16815260200190815260200160002061145490919063ffffffff16565b61117781600160008573ffffffffffffffffffffffffffffffffffffffff1673ffffffffffffffffffffffffffffffffffffffff16815260200190815260200160002061146990919063ffffffff16565b61118d8183600261147e9092919063ffffffff16565b50808273ffffffffffffffffffffffffffffffffffffffff168473ffffffffffffffffffffffffffffffffffffffff167fddf252ad1be2c89b69c2b068fc378daa952ba7f163c4a11628f55a4df523b3ef60405160405180910390a4505050565b60006111fd83600001836114b3565b60001c905092915050565b60008060008061121b8660000186611527565b915091508160001c8160001c9350935050509250929050565b6000611247846000018460001b846115b1565b60001c90509392505050565b600061126182600001611652565b9050919050565b611273848484610fda565b61127f84848484611663565b6112be576040517f08c379a00000000000000000000000000000000000000000000000000000000081526004016112b5906128c7565b60405180910390fd5b50505050565b60606000820361130b576040518060400160405280600181526020017f3000000000000000000000000000000000000000000000000000000000000000815250905061141f565b600082905060005b6000821461133d57808061132690612916565b915050600a82611336919061298d565b9150611313565b60008167ffffffffffffffff81111561135957611358612019565b5b6040519080825280601f01601f19166020018201604052801561138b5781602001600182028036833780820191505090505b5090505b60008514611418576001826113a491906129be565b9150600a856113b391906129f2565b60306113bf9190612a23565b60f81b8183815181106113d5576113d4612a57565b5b60200101907effffffffffffffffffffffffffffffffffffffffffffffffffffffffffffff1916908160001a905350600a85611411919061298d565b945061138f565b8093505050505b919050565b6000611436836000018360001b6117c7565b905092915050565b600081600001805490509050919050565b505050565b611464826000018260001b6117ea565b505050565b611479826000018260001b611902565b505050565b60006114aa846000018460001b8473ffffffffffffffffffffffffffffffffffffffff1660001b611972565b90509392505050565b6000818360000180549050116114fe576040517f08c379a00000000000000000000000000000000000000000000000000000000081526004016114f590612af8565b60405180910390fd5b82600001828154811061151457611513612a57565b5b9060005260206000200154905092915050565b60008082846000018054905011611573576040517f08c379a000000000000000000000000000000000000000000000000000000000815260040161156a90612b8a565b60405180910390fd5b600084600001848154811061158b5761158a612a57565b5b906000526020600020906002020190508060000154816001015492509250509250929050565b60008084600101600085815260200190815260200160002054905060008114158390611613576040517f08c379a000000000000000000000000000000000000000000000000000000000815260040161160a9190611dac565b60405180910390fd5b508460000160018261162591906129be565b8154811061163657611635612a57565b5b9060005260206000209060020201600101549150509392505050565b600081600001805490509050919050565b60006116848473ffffffffffffffffffffffffffffffffffffffff16611a5d565b61169157600190506117bf565b600061175863150b7a0260e01b6116a6610e26565b8887876040516024016116bc9493929190612c20565b604051602081830303815290604052907bffffffffffffffffffffffffffffffffffffffffffffffffffffffff19166020820180517bffffffffffffffffffffffffffffffffffffffffffffffffffffffff8381831617835250505050604051806060016040528060328152602001612e2f603291398773ffffffffffffffffffffffffffffffffffffffff16611a809092919063ffffffff16565b90506000818060200190518101906117709190612c81565b905063150b7a0260e01b7bffffffffffffffffffffffffffffffffffffffffffffffffffffffff1916817bffffffffffffffffffffffffffffffffffffffffffffffffffffffff191614925050505b949350505050565b600080836001016000848152602001908152602001600020541415905092915050565b600080836001016000848152602001908152602001600020549050600081146118f657600060018261181c91906129be565b905060006001866000018054905061183491906129be565b9050600086600001828154811061184e5761184d612a57565b5b906000526020600020015490508087600001848154811061187257611871612a57565b5b906000526020600020018190555060018361188d9190612a23565b87600101600083815260200190815260200160002081905550866000018054806118ba576118b9612cae565b5b600190038181906000526020600020016000905590558660010160008781526020019081526020016000206000905560019450505050506118fc565b60009150505b92915050565b600061190e8383611a98565b61196757826000018290806001815401808255809150506001900390600052602060002001600090919091909150558260000180549050836001016000848152602001908152602001600020819055506001905061196c565b600090505b92915050565b60008084600101600085815260200190815260200160002054905060008103611a1857846000016040518060400160405280868152602001858152509080600181540180825580915050600190039060005260206000209060020201600090919091909150600082015181600001556020820151816001015550508460000180549050856001016000868152602001908152602001600020819055506001915050611a56565b8285600001600183611a2a91906129be565b81548110611a3b57611a3a612a57565b5b90600052602060002090600202016001018190555060009150505b9392505050565b6000808273ffffffffffffffffffffffffffffffffffffffff163b119050919050565b6060611a8f8484600085611abb565b90509392505050565b600080836001016000848152602001908152602001600020541415905092915050565b606082471015611b00576040517f08c379a0000000000000000000000000000000000000000000000000000000008152600401611af790612d4f565b60405180910390fd5b6000808673ffffffffffffffffffffffffffffffffffffffff168587604051611b299190612dab565b60006040518083038185875af1925050503d8060008114611b66576040519150601f19603f3d011682016040523d82523d6000602084013e611b6b565b606091505b5091509150611b7c87838387611b88565b92505050949350505050565b60608315611bea576000835103611be257611ba285611a5d565b611be1576040517f08c379a0000000000000000000000000000000000000000000000000000000008152600401611bd890612e0e565b60405180910390fd5b5b829050611bf5565b611bf48383611bfd565b5b949350505050565b600082511115611c105781518083602001fd5b806040517f08c379a0000000000000000000000000000000000000000000000000000000008152600401611c449190611dac565b60405180910390fd5b6000604051905090565b600080fd5b600080fd5b60007fffffffff0000000000000000000000000000000000000000000000000000000082169050919050565b611c9681611c61565b8114611ca157600080fd5b50565b600081359050611cb381611c8d565b92915050565b600060208284031215611ccf57611cce611c57565b5b6000611cdd84828501611ca4565b91505092915050565b60008115159050919050565b611cfb81611ce6565b82525050565b6000602082019050611d166000830184611cf2565b92915050565b600081519050919050565b600082825260208201905092915050565b60005b83811015611d56578082015181840152602081019050611d3b565b60008484015250505050565b6000601f19601f8301169050919050565b6000611d7e82611d1c565b611d888185611d27565b9350611d98818560208601611d38565b611da181611d62565b840191505092915050565b60006020820190508181036000830152611dc68184611d73565b905092915050565b6000819050919050565b611de181611dce565b8114611dec57600080fd5b50565b600081359050611dfe81611dd8565b92915050565b600060208284031215611e1a57611e19611c57565b5b6000611e2884828501611def565b91505092915050565b600073ffffffffffffffffffffffffffffffffffffffff82169050919050565b6000611e5c82611e31565b9050919050565b611e6c81611e51565b82525050565b6000602082019050611e876000830184611e63565b92915050565b611e9681611e51565b8114611ea157600080fd5b50565b600081359050611eb381611e8d565b92915050565b60008060408385031215611ed057611ecf611c57565b5b6000611ede85828601611ea4565b9250506020611eef85828601611def565b9150509250929050565b611f0281611dce565b82525050565b6000602082019050611f1d6000830184611ef9565b92915050565b600080600060608486031215611f3c57611f3b611c57565b5b6000611f4a86828701611ea4565b9350506020611f5b86828701611ea4565b9250506040611f6c86828701611def565b9150509250925092565b600060208284031215611f8c57611f8b611c57565b5b6000611f9a84828501611ea4565b91505092915050565b611fac81611ce6565b8114611fb757600080fd5b50565b600081359050611fc981611fa3565b92915050565b60008060408385031215611fe657611fe5611c57565b5b6000611ff485828601611ea4565b925050602061200585828601611fba565b9150509250929050565b600080fd5b600080fd5b7f4e487b7100000000000000000000000000000000000000000000000000000000600052604160045260246000fd5b61205182611d62565b810181811067ffffffffffffffff821117156120705761206f612019565b5b80604052505050565b6000612083611c4d565b905061208f8282612048565b919050565b600067ffffffffffffffff8211156120af576120ae612019565b5b6120b882611d62565b9050602081019050919050565b82818337600083830152505050565b60006120e76120e284612094565b612079565b90508281526020810184848401111561210357612102612014565b5b61210e8482856120c5565b509392505050565b600082601f83011261212b5761212a61200f565b5b813561213b8482602086016120d4565b91505092915050565b6000806000806080858703121561215e5761215d611c57565b5b600061216c87828801611ea4565b945050602061217d87828801611ea4565b935050604061218e87828801611def565b925050606085013567ffffffffffffffff8111156121af576121ae611c5c565b5b6121bb87828801612116565b91505092959194509250565b600080604083850312156121de576121dd611c57565b5b60006121ec85828601611ea4565b92505060206121fd85828601611ea4565b9150509250929050565b7f4e487b7100000000000000000000000000000000000000000000000000000000600052602260045260246000fd5b6000600282049050600182168061224e57607f821691505b60208210810361226157612260612207565b5b50919050565b7f4552433732313a20617070726f76656420717565727920666f72206e6f6e657860008201527f697374656e7420746f6b656e0000000000000000000000000000000000000000602082015250565b60006122c3602c83611d27565b91506122ce82612267565b604082019050919050565b600060208201905081810360008301526122f2816122b6565b9050919050565b7f4552433732313a20617070726f76616c20746f2063757272656e74206f776e6560008201527f7200000000000000000000000000000000000000000000000000000000000000602082015250565b6000612355602183611d27565b9150612360826122f9565b604082019050919050565b6000602082019050818103600083015261238481612348565b9050919050565b7f4552433732313a20617070726f76652063616c6c6572206973206e6f74206f7760008201527f6e6572206e6f7220617070726f76656420666f7220616c6c0000000000000000602082015250565b60006123e7603883611d27565b91506123f28261238b565b604082019050919050565b60006020820190508181036000830152612416816123da565b9050919050565b7f4552433732313a207472616e736665722063616c6c6572206973206e6f74206f60008201527f776e6572206e6f7220617070726f766564000000000000000000000000000000602082015250565b6000612479603183611d27565b91506124848261241d565b604082019050919050565b600060208201905081810360008301526124a88161246c565b9050919050565b7f4552433732313a2062616c616e636520717565727920666f7220746865207a6560008201527f726f206164647265737300000000000000000000000000000000000000000000602082015250565b600061250b602a83611d27565b9150612516826124af565b604082019050919050565b6000602082019050818103600083015261253a816124fe565b9050919050565b7f4552433732313a20617070726f766520746f2063616c6c657200000000000000600082015250565b6000612577601983611d27565b915061258282612541565b602082019050919050565b600060208201905081810360008301526125a68161256a565b9050919050565b7f4552433732314d657461646174613a2055524920717565727920666f72206e6f60008201527f6e6578697374656e7420746f6b656e0000000000000000000000000000000000602082015250565b6000612609602f83611d27565b9150612614826125ad565b604082019050919050565b60006020820190508181036000830152612638816125fc565b9050919050565b600081905092915050565b600061265582611d1c565b61265f818561263f565b935061266f818560208601611d38565b80840191505092915050565b6000612687828561264a565b9150612693828461264a565b91508190509392505050565b7f4552433732313a206f70657261746f7220717565727920666f72206e6f6e657860008201527f697374656e7420746f6b656e0000000000000000000000000000000000000000602082015250565b60006126fb602c83611d27565b91506127068261269f565b604082019050919050565b6000602082019050818103600083015261272a816126ee565b9050919050565b7f4552433732313a207472616e73666572206f6620746f6b656e2074686174206960008201527f73206e6f74206f776e0000000000000000000000000000000000000000000000602082015250565b600061278d602983611d27565b915061279882612731565b604082019050919050565b600060208201905081810360008301526127bc81612780565b9050919050565b7f4552433732313a207472616e7366657220746f20746865207a65726f2061646460008201527f7265737300000000000000000000000000000000000000000000000000000000602082015250565b600061281f602483611d27565b915061282a826127c3565b604082019050919050565b6000602082019050818103600083015261284e81612812565b9050919050565b7f4552433732313a207472616e7366657220746f206e6f6e20455243373231526560008201527f63656976657220696d706c656d656e7465720000000000000000000000000000602082015250565b60006128b1603283611d27565b91506128bc82612855565b604082019050919050565b600060208201905081810360008301526128e0816128a4565b9050919050565b7f4e487b7100000000000000000000000000000000000000000000000000000000600052601160045260246000fd5b600061292182611dce565b91507fffffffffffffffffffffffffffffffffffffffffffffffffffffffffffffffff8203612953576129526128e7565b5b600182019050919050565b7f4e487b7100000000000000000000000000000000000000000000000000000000600052601260045260246000fd5b600061299882611dce565b91506129a383611dce565b9250826129b3576129b261295e565b5b828204905092915050565b60006129c982611dce565b91506129d483611dce565b92508282039050818111156129ec576129eb6128e7565b5b92915050565b60006129fd82611dce565b9150612a0883611dce565b925082612a1857612a1761295e565b5b828206905092915050565b6000612a2e82611dce565b9150612a3983611dce565b9250828201905080821115612a5157612a506128e7565b5b92915050565b7f4e487b7100000000000000000000000000000000000000000000000000000000600052603260045260246000fd5b7f456e756d657261626c655365743a20696e646578206f7574206f6620626f756e60008201527f6473000000000000000000000000000000000000000000000000000000000000602082015250565b6000612ae2602283611d27565b9150612aed82612a86565b604082019050919050565b60006020820190508181036000830152612b1181612ad5565b9050919050565b7f456e756d657261626c654d61703a20696e646578206f7574206f6620626f756e60008201527f6473000000000000000000000000000000000000000000000000000000000000602082015250565b6000612b74602283611d27565b9150612b7f82612b18565b604082019050919050565b60006020820190508181036000830152612ba381612b67565b9050919050565b6000612bb582611e31565b9050919050565b612bc581612baa565b82525050565b600081519050919050565b600082825260208201905092915050565b6000612bf282612bcb565b612bfc8185612bd6565b9350612c0c818560208601611d38565b612c1581611d62565b840191505092915050565b6000608082019050612c356000830187612bbc565b612c426020830186611e63565b612c4f6040830185611ef9565b8181036060830152612c618184612be7565b905095945050505050565b600081519050612c7b81611c8d565b92915050565b600060208284031215612c9757612c96611c57565b5b6000612ca584828501612c6c565b91505092915050565b7f4e487b7100000000000000000000000000000000000000000000000000000000600052603160045260246000fd5b7f416464726573733a20696e73756666696369656e742062616c616e636520666f60008201527f722063616c6c0000000000000000000000000000000000000000000000000000602082015250565b6000612d39602683611d27565b9150612d4482612cdd565b604082019050919050565b60006020820190508181036000830152612d6881612d2c565b9050919050565b600081905092915050565b6000612d8582612bcb565b612d8f8185612d6f565b9350612d9f818560208601611d38565b80840191505092915050565b6000612db78284612d7a565b915081905092915050565b7f416464726573733a2063616c6c20746f206e6f6e2d636f6e7472616374000000600082015250565b6000612df8601d83611d27565b9150612e0382612dc2565b602082019050919050565b60006020820190508181036000830152612e2781612deb565b905091905056fe4552433732313a207472616e7366657220746f206e6f6e20455243373231526563656976657220696d706c656d656e7465724552433732313a206f776e657220717565727920666f72206e6f6e6578697374656e7420746f6b656ea264697066735822122001785328669099ddeb97528c86000bbbd2a9bd4f34f35018cbec39aa3be5da8964736f6c63430008110033",
					"opcodes": "PUSH1 0x80 PUSH1 0x40 MSTORE PUSH1 0x40 MLOAD DUP1 PUSH1 0x20 ADD PUSH1 0x40 MSTORE DUP1 PUSH1 0x0 DUP2 MSTORE POP PUSH1 0xB SWAP1 DUP2 PUSH3 0x24 SWAP2 SWAP1 PUSH3 0x435 JUMP JUMPDEST POP CALLVALUE DUP1 ISZERO PUSH3 0x32 JUMPI PUSH1 0x0 DUP1 REVERT JUMPDEST POP PUSH1 0x40 MLOAD PUSH3 0x3657 CODESIZE SUB DUP1 PUSH3 0x3657 DUP4 CODECOPY DUP2 DUP2 ADD PUSH1 0x40 MSTORE DUP2 ADD SWAP1 PUSH3 0x58 SWAP2 SWAP1 PUSH3 0x680 JUMP JUMPDEST PUSH3 0x70 PUSH4 0x1FFC9A7 PUSH1 0xE0 SHL PUSH3 0xE4 PUSH1 0x20 SHL PUSH1 0x20 SHR JUMP JUMPDEST DUP2 PUSH1 0x6 SWAP1 DUP2 PUSH3 0x81 SWAP2 SWAP1 PUSH3 0x435 JUMP JUMPDEST POP DUP1 PUSH1 0x7 SWAP1 DUP2 PUSH3 0x93 SWAP2 SWAP1 PUSH3 0x435 JUMP JUMPDEST POP PUSH3 0xAC PUSH4 0x80AC58CD PUSH1 0xE0 SHL PUSH3 0xE4 PUSH1 0x20 SHL PUSH1 0x20 SHR JUMP JUMPDEST PUSH3 0xC4 PUSH4 0x5B5E139F PUSH1 0xE0 SHL PUSH3 0xE4 PUSH1 0x20 SHL PUSH1 0x20 SHR JUMP JUMPDEST PUSH3 0xDC PUSH4 0x780E9D63 PUSH1 0xE0 SHL PUSH3 0xE4 PUSH1 0x20 SHL PUSH1 0x20 SHR JUMP JUMPDEST POP POP PUSH3 0x788 JUMP JUMPDEST PUSH4 0xFFFFFFFF PUSH1 0xE0 SHL DUP2 PUSH28 0xFFFFFFFFFFFFFFFFFFFFFFFFFFFFFFFFFFFFFFFFFFFFFFFFFFFFFFFF NOT AND SUB PUSH3 0x14F JUMPI PUSH1 0x40 MLOAD PUSH32 0x8C379A000000000000000000000000000000000000000000000000000000000 DUP2 MSTORE PUSH1 0x4 ADD PUSH3 0x146 SWAP1 PUSH3 0x766 JUMP JUMPDEST PUSH1 0x40 MLOAD DUP1 SWAP2 SUB SWAP1 REVERT JUMPDEST PUSH1 0x1 PUSH1 0x0 DUP1 DUP4 PUSH28 0xFFFFFFFFFFFFFFFFFFFFFFFFFFFFFFFFFFFFFFFFFFFFFFFFFFFFFFFF NOT AND PUSH28 0xFFFFFFFFFFFFFFFFFFFFFFFFFFFFFFFFFFFFFFFFFFFFFFFFFFFFFFFF NOT AND DUP2 MSTORE PUSH1 0x20 ADD SWAP1 DUP2 MSTORE PUSH1 0x20 ADD PUSH1 0x0 KECCAK256 PUSH1 0x0 PUSH2 0x100 EXP DUP2 SLOAD DUP2 PUSH1 0xFF MUL NOT AND SWAP1 DUP4 ISZERO ISZERO MUL OR SWAP1 SSTORE POP POP JUMP JUMPDEST PUSH1 0x0 DUP2 MLOAD SWAP1 POP SWAP2 SWAP1 POP JUMP JUMPDEST PUSH32 0x4E487B7100000000000000000000000000000000000000000000000000000000 PUSH1 0x0 MSTORE PUSH1 0x41 PUSH1 0x4 MSTORE PUSH1 0x24 PUSH1 0x0 REVERT JUMPDEST PUSH32 0x4E487B7100000000000000000000000000000000000000000000000000000000 PUSH1 0x0 MSTORE PUSH1 0x22 PUSH1 0x4 MSTORE PUSH1 0x24 PUSH1 0x0 REVERT JUMPDEST PUSH1 0x0 PUSH1 0x2 DUP3 DIV SWAP1 POP PUSH1 0x1 DUP3 AND DUP1 PUSH3 0x23D JUMPI PUSH1 0x7F DUP3 AND SWAP2 POP JUMPDEST PUSH1 0x20 DUP3 LT DUP2 SUB PUSH3 0x253 JUMPI PUSH3 0x252 PUSH3 0x1F5 JUMP JUMPDEST JUMPDEST POP SWAP2 SWAP1 POP JUMP JUMPDEST PUSH1 0x0 DUP2 SWAP1 POP DUP2 PUSH1 0x0 MSTORE PUSH1 0x20 PUSH1 0x0 KECCAK256 SWAP1 POP SWAP2 SWAP1 POP JUMP JUMPDEST PUSH1 0x0 PUSH1 0x20 PUSH1 0x1F DUP4 ADD DIV SWAP1 POP SWAP2 SWAP1 POP JUMP JUMPDEST PUSH1 0x0 DUP3 DUP3 SHL SWAP1 POP SWAP3 SWAP2 POP POP JUMP JUMPDEST PUSH1 0x0 PUSH1 0x8 DUP4 MUL PUSH3 0x2BD PUSH32 0xFFFFFFFFFFFFFFFFFFFFFFFFFFFFFFFFFFFFFFFFFFFFFFFFFFFFFFFFFFFFFFFF DUP3 PUSH3 0x27E JUMP JUMPDEST PUSH3 0x2C9 DUP7 DUP4 PUSH3 0x27E JUMP JUMPDEST SWAP6 POP DUP1 NOT DUP5 AND SWAP4 POP DUP1 DUP7 AND DUP5 OR SWAP3 POP POP POP SWAP4 SWAP3 POP POP POP JUMP JUMPDEST PUSH1 0x0 DUP2 SWAP1 POP SWAP2 SWAP1 POP JUMP JUMPDEST PUSH1 0x0 DUP2 SWAP1 POP SWAP2 SWAP1 POP JUMP JUMPDEST PUSH1 0x0 PUSH3 0x316 PUSH3 0x310 PUSH3 0x30A DUP5 PUSH3 0x2E1 JUMP JUMPDEST PUSH3 0x2EB JUMP JUMPDEST PUSH3 0x2E1 JUMP JUMPDEST SWAP1 POP SWAP2 SWAP1 POP JUMP JUMPDEST PUSH1 0x0 DUP2 SWAP1 POP SWAP2 SWAP1 POP JUMP JUMPDEST PUSH3 0x332 DUP4 PUSH3 0x2F5 JUMP JUMPDEST PUSH3 0x34A PUSH3 0x341 DUP3 PUSH3 0x31D JUMP JUMPDEST DUP5 DUP5 SLOAD PUSH3 0x28B JUMP JUMPDEST DUP3 SSTORE POP POP POP POP JUMP JUMPDEST PUSH1 0x0 SWAP1 JUMP JUMPDEST PUSH3 0x361 PUSH3 0x352 JUMP JUMPDEST PUSH3 0x36E DUP2 DUP5 DUP5 PUSH3 0x327 JUMP JUMPDEST POP POP POP JUMP JUMPDEST JUMPDEST DUP2 DUP2 LT ISZERO PUSH3 0x396 JUMPI PUSH3 0x38A PUSH1 0x0 DUP3 PUSH3 0x357 JUMP JUMPDEST PUSH1 0x1 DUP2 ADD SWAP1 POP PUSH3 0x374 JUMP JUMPDEST POP POP JUMP JUMPDEST PUSH1 0x1F DUP3 GT ISZERO PUSH3 0x3E5 JUMPI PUSH3 0x3AF DUP2 PUSH3 0x259 JUMP JUMPDEST PUSH3 0x3BA DUP5 PUSH3 0x26E JUMP JUMPDEST DUP2 ADD PUSH1 0x20 DUP6 LT ISZERO PUSH3 0x3CA JUMPI DUP2 SWAP1 POP JUMPDEST PUSH3 0x3E2 PUSH3 0x3D9 DUP6 PUSH3 0x26E JUMP JUMPDEST DUP4 ADD DUP3 PUSH3 0x373 JUMP JUMPDEST POP POP JUMPDEST POP POP POP JUMP JUMPDEST PUSH1 0x0 DUP3 DUP3 SHR SWAP1 POP SWAP3 SWAP2 POP POP JUMP JUMPDEST PUSH1 0x0 PUSH3 0x40A PUSH1 0x0 NOT DUP5 PUSH1 0x8 MUL PUSH3 0x3EA JUMP JUMPDEST NOT DUP1 DUP4 AND SWAP2 POP POP SWAP3 SWAP2 POP POP JUMP JUMPDEST PUSH1 0x0 PUSH3 0x425 DUP4 DUP4 PUSH3 0x3F7 JUMP JUMPDEST SWAP2 POP DUP3 PUSH1 0x2 MUL DUP3 OR SWAP1 POP SWAP3 SWAP2 POP POP JUMP JUMPDEST PUSH3 0x440 DUP3 PUSH3 0x1BB JUMP JUMPDEST PUSH8 0xFFFFFFFFFFFFFFFF DUP2 GT ISZERO PUSH3 0x45C JUMPI PUSH3 0x45B PUSH3 0x1C6 JUMP JUMPDEST JUMPDEST PUSH3 0x468 DUP3 SLOAD PUSH3 0x224 JUMP JUMPDEST PUSH3 0x475 DUP3 DUP3 DUP6 PUSH3 0x39A JUMP JUMPDEST PUSH1 0x0 PUSH1 0x20 SWAP1 POP PUSH1 0x1F DUP4 GT PUSH1 0x1 DUP2 EQ PUSH3 0x4AD JUMPI PUSH1 0x0 DUP5 ISZERO PUSH3 0x498 JUMPI DUP3 DUP8 ADD MLOAD SWAP1 POP JUMPDEST PUSH3 0x4A4 DUP6 DUP3 PUSH3 0x417 JUMP JUMPDEST DUP7 SSTORE POP PUSH3 0x514 JUMP JUMPDEST PUSH1 0x1F NOT DUP5 AND PUSH3 0x4BD DUP7 PUSH3 0x259 JUMP JUMPDEST PUSH1 0x0 JUMPDEST DUP3 DUP2 LT ISZERO PUSH3 0x4E7 JUMPI DUP5 DUP10 ADD MLOAD DUP3 SSTORE PUSH1 0x1 DUP3 ADD SWAP2 POP PUSH1 0x20 DUP6 ADD SWAP5 POP PUSH1 0x20 DUP2 ADD SWAP1 POP PUSH3 0x4C0 JUMP JUMPDEST DUP7 DUP4 LT ISZERO PUSH3 0x507 JUMPI DUP5 DUP10 ADD MLOAD PUSH3 0x503 PUSH1 0x1F DUP10 AND DUP3 PUSH3 0x3F7 JUMP JUMPDEST DUP4 SSTORE POP JUMPDEST PUSH1 0x1 PUSH1 0x2 DUP9 MUL ADD DUP9 SSTORE POP POP POP JUMPDEST POP POP POP POP POP POP JUMP JUMPDEST PUSH1 0x0 PUSH1 0x40 MLOAD SWAP1 POP SWAP1 JUMP JUMPDEST PUSH1 0x0 DUP1 REVERT JUMPDEST PUSH1 0x0 DUP1 REVERT JUMPDEST PUSH1 0x0 DUP1 REVERT JUMPDEST PUSH1 0x0 DUP1 REVERT JUMPDEST PUSH1 0x0 PUSH1 0x1F NOT PUSH1 0x1F DUP4 ADD AND SWAP1 POP SWAP2 SWAP1 POP JUMP JUMPDEST PUSH3 0x556 DUP3 PUSH3 0x53A JUMP JUMPDEST DUP2 ADD DUP2 DUP2 LT PUSH8 0xFFFFFFFFFFFFFFFF DUP3 GT OR ISZERO PUSH3 0x578 JUMPI PUSH3 0x577 PUSH3 0x1C6 JUMP JUMPDEST JUMPDEST DUP1 PUSH1 0x40 MSTORE POP POP POP JUMP JUMPDEST PUSH1 0x0 PUSH3 0x58D PUSH3 0x51C JUMP JUMPDEST SWAP1 POP PUSH3 0x59B DUP3 DUP3 PUSH3 0x54B JUMP JUMPDEST SWAP2 SWAP1 POP JUMP JUMPDEST PUSH1 0x0 PUSH8 0xFFFFFFFFFFFFFFFF DUP3 GT ISZERO PUSH3 0x5BE JUMPI PUSH3 0x5BD PUSH3 0x1C6 JUMP JUMPDEST JUMPDEST PUSH3 0x5C9 DUP3 PUSH3 0x53A JUMP JUMPDEST SWAP1 POP PUSH1 0x20 DUP2 ADD SWAP1 POP SWAP2 SWAP1 POP JUMP JUMPDEST PUSH1 0x0 JUMPDEST DUP4 DUP2 LT ISZERO PUSH3 0x5F6 JUMPI DUP1 DUP3 ADD MLOAD DUP2 DUP5 ADD MSTORE PUSH1 0x20 DUP2 ADD SWAP1 POP PUSH3 0x5D9 JUMP JUMPDEST PUSH1 0x0 DUP5 DUP5 ADD MSTORE POP POP POP POP JUMP JUMPDEST PUSH1 0x0 PUSH3 0x619 PUSH3 0x613 DUP5 PUSH3 0x5A0 JUMP JUMPDEST PUSH3 0x581 JUMP JUMPDEST SWAP1 POP DUP3 DUP2 MSTORE PUSH1 0x20 DUP2 ADD DUP5 DUP5 DUP5 ADD GT ISZERO PUSH3 0x638 JUMPI PUSH3 0x637 PUSH3 0x535 JUMP JUMPDEST JUMPDEST PUSH3 0x645 DUP5 DUP3 DUP6 PUSH3 0x5D6 JUMP JUMPDEST POP SWAP4 SWAP3 POP POP POP JUMP JUMPDEST PUSH1 0x0 DUP3 PUSH1 0x1F DUP4 ADD SLT PUSH3 0x665 JUMPI PUSH3 0x664 PUSH3 0x530 JUMP JUMPDEST JUMPDEST DUP2 MLOAD PUSH3 0x677 DUP5 DUP3 PUSH1 0x20 DUP7 ADD PUSH3 0x602 JUMP JUMPDEST SWAP2 POP POP SWAP3 SWAP2 POP POP JUMP JUMPDEST PUSH1 0x0 DUP1 PUSH1 0x40 DUP4 DUP6 SUB SLT ISZERO PUSH3 0x69A JUMPI PUSH3 0x699 PUSH3 0x526 JUMP JUMPDEST JUMPDEST PUSH1 0x0 DUP4 ADD MLOAD PUSH8 0xFFFFFFFFFFFFFFFF DUP2 GT ISZERO PUSH3 0x6BB JUMPI PUSH3 0x6BA PUSH3 0x52B JUMP JUMPDEST JUMPDEST PUSH3 0x6C9 DUP6 DUP3 DUP7 ADD PUSH3 0x64D JUMP JUMPDEST SWAP3 POP POP PUSH1 0x20 DUP4 ADD MLOAD PUSH8 0xFFFFFFFFFFFFFFFF DUP2 GT ISZERO PUSH3 0x6ED JUMPI PUSH3 0x6EC PUSH3 0x52B JUMP JUMPDEST JUMPDEST PUSH3 0x6FB DUP6 DUP3 DUP7 ADD PUSH3 0x64D JUMP JUMPDEST SWAP2 POP POP SWAP3 POP SWAP3 SWAP1 POP JUMP JUMPDEST PUSH1 0x0 DUP3 DUP3 MSTORE PUSH1 0x20 DUP3 ADD SWAP1 POP SWAP3 SWAP2 POP POP JUMP JUMPDEST PUSH32 0x4552433136353A20696E76616C696420696E7465726661636520696400000000 PUSH1 0x0 DUP3 ADD MSTORE POP JUMP JUMPDEST PUSH1 0x0 PUSH3 0x74E PUSH1 0x1C DUP4 PUSH3 0x705 JUMP JUMPDEST SWAP2 POP PUSH3 0x75B DUP3 PUSH3 0x716 JUMP JUMPDEST PUSH1 0x20 DUP3 ADD SWAP1 POP SWAP2 SWAP1 POP JUMP JUMPDEST PUSH1 0x0 PUSH1 0x20 DUP3 ADD SWAP1 POP DUP2 DUP2 SUB PUSH1 0x0 DUP4 ADD MSTORE PUSH3 0x781 DUP2 PUSH3 0x73F JUMP JUMPDEST SWAP1 POP SWAP2 SWAP1 POP JUMP JUMPDEST PUSH2 0x2EBF DUP1 PUSH3 0x798 PUSH1 0x0 CODECOPY PUSH1 0x0 RETURN INVALID PUSH1 0x80 PUSH1 0x40 MSTORE CALLVALUE DUP1 ISZERO PUSH2 0x10 JUMPI PUSH1 0x0 DUP1 REVERT JUMPDEST POP PUSH1 0x4 CALLDATASIZE LT PUSH2 0x121 JUMPI PUSH1 0x0 CALLDATALOAD PUSH1 0xE0 SHR DUP1 PUSH4 0x6352211E GT PUSH2 0xAD JUMPI DUP1 PUSH4 0xB88D4FDE GT PUSH2 0x71 JUMPI DUP1 PUSH4 0xB88D4FDE EQ PUSH2 0x32E JUMPI DUP1 PUSH4 0xC57DC235 EQ PUSH2 0x34A JUMPI DUP1 PUSH4 0xC87B56DD EQ PUSH2 0x37A JUMPI DUP1 PUSH4 0xD48E638A EQ PUSH2 0x3AA JUMPI DUP1 PUSH4 0xE985E9C5 EQ PUSH2 0x3DA JUMPI PUSH2 0x121 JUMP JUMPDEST DUP1 PUSH4 0x6352211E EQ PUSH2 0x276 JUMPI DUP1 PUSH4 0x6C0360EB EQ PUSH2 0x2A6 JUMPI DUP1 PUSH4 0x70A08231 EQ PUSH2 0x2C4 JUMPI DUP1 PUSH4 0x95D89B41 EQ PUSH2 0x2F4 JUMPI DUP1 PUSH4 0xA22CB465 EQ PUSH2 0x312 JUMPI PUSH2 0x121 JUMP JUMPDEST DUP1 PUSH4 0x18160DDD GT PUSH2 0xF4 JUMPI DUP1 PUSH4 0x18160DDD EQ PUSH2 0x1C0 JUMPI DUP1 PUSH4 0x23B872DD EQ PUSH2 0x1DE JUMPI DUP1 PUSH4 0x2F745C59 EQ PUSH2 0x1FA JUMPI DUP1 PUSH4 0x42842E0E EQ PUSH2 0x22A JUMPI DUP1 PUSH4 0x4F6CCCE7 EQ PUSH2 0x246 JUMPI PUSH2 0x121 JUMP JUMPDEST DUP1 PUSH4 0x1FFC9A7 EQ PUSH2 0x126 JUMPI DUP1 PUSH4 0x6FDDE03 EQ PUSH2 0x156 JUMPI DUP1 PUSH4 0x81812FC EQ PUSH2 0x174 JUMPI DUP1 PUSH4 0x95EA7B3 EQ PUSH2 0x1A4 JUMPI JUMPDEST PUSH1 0x0 DUP1 REVERT JUMPDEST PUSH2 0x140 PUSH1 0x4 DUP1 CALLDATASIZE SUB DUP2 ADD SWAP1 PUSH2 0x13B SWAP2 SWAP1 PUSH2 0x1CB9 JUMP JUMPDEST PUSH2 0x40A JUMP JUMPDEST PUSH1 0x40 MLOAD PUSH2 0x14D SWAP2 SWAP1 PUSH2 0x1D01 JUMP JUMPDEST PUSH1 0x40 MLOAD DUP1 SWAP2 SUB SWAP1 RETURN JUMPDEST PUSH2 0x15E PUSH2 0x471 JUMP JUMPDEST PUSH1 0x40 MLOAD PUSH2 0x16B SWAP2 SWAP1 PUSH2 0x1DAC JUMP JUMPDEST PUSH1 0x40 MLOAD DUP1 SWAP2 SUB SWAP1 RETURN JUMPDEST PUSH2 0x18E PUSH1 0x4 DUP1 CALLDATASIZE SUB DUP2 ADD SWAP1 PUSH2 0x189 SWAP2 SWAP1 PUSH2 0x1E04 JUMP JUMPDEST PUSH2 0x503 JUMP JUMPDEST PUSH1 0x40 MLOAD PUSH2 0x19B SWAP2 SWAP1 PUSH2 0x1E72 JUMP JUMPDEST PUSH1 0x40 MLOAD DUP1 SWAP2 SUB SWAP1 RETURN JUMPDEST PUSH2 0x1BE PUSH1 0x4 DUP1 CALLDATASIZE SUB DUP2 ADD SWAP1 PUSH2 0x1B9 SWAP2 SWAP1 PUSH2 0x1EB9 JUMP JUMPDEST PUSH2 0x588 JUMP JUMPDEST STOP JUMPDEST PUSH2 0x1C8 PUSH2 0x69F JUMP JUMPDEST PUSH1 0x40 MLOAD PUSH2 0x1D5 SWAP2 SWAP1 PUSH2 0x1F08 JUMP JUMPDEST PUSH1 0x40 MLOAD DUP1 SWAP2 SUB SWAP1 RETURN JUMPDEST PUSH2 0x1F8 PUSH1 0x4 DUP1 CALLDATASIZE SUB DUP2 ADD SWAP1 PUSH2 0x1F3 SWAP2 SWAP1 PUSH2 0x1F23 JUMP JUMPDEST PUSH2 0x6B0 JUMP JUMPDEST STOP JUMPDEST PUSH2 0x214 PUSH1 0x4 DUP1 CALLDATASIZE SUB DUP2 ADD SWAP1 PUSH2 0x20F SWAP2 SWAP1 PUSH2 0x1EB9 JUMP JUMPDEST PUSH2 0x710 JUMP JUMPDEST PUSH1 0x40 MLOAD PUSH2 0x221 SWAP2 SWAP1 PUSH2 0x1F08 JUMP JUMPDEST PUSH1 0x40 MLOAD DUP1 SWAP2 SUB SWAP1 RETURN JUMPDEST PUSH2 0x244 PUSH1 0x4 DUP1 CALLDATASIZE SUB DUP2 ADD SWAP1 PUSH2 0x23F SWAP2 SWAP1 PUSH2 0x1F23 JUMP JUMPDEST PUSH2 0x76B JUMP JUMPDEST STOP JUMPDEST PUSH2 0x260 PUSH1 0x4 DUP1 CALLDATASIZE SUB DUP2 ADD SWAP1 PUSH2 0x25B SWAP2 SWAP1 PUSH2 0x1E04 JUMP JUMPDEST PUSH2 0x78B JUMP JUMPDEST PUSH1 0x40 MLOAD PUSH2 0x26D SWAP2 SWAP1 PUSH2 0x1F08 JUMP JUMPDEST PUSH1 0x40 MLOAD DUP1 SWAP2 SUB SWAP1 RETURN JUMPDEST PUSH2 0x290 PUSH1 0x4 DUP1 CALLDATASIZE SUB DUP2 ADD SWAP1 PUSH2 0x28B SWAP2 SWAP1 PUSH2 0x1E04 JUMP JUMPDEST PUSH2 0x7AE JUMP JUMPDEST PUSH1 0x40 MLOAD PUSH2 0x29D SWAP2 SWAP1 PUSH2 0x1E72 JUMP JUMPDEST PUSH1 0x40 MLOAD DUP1 SWAP2 SUB SWAP1 RETURN JUMPDEST PUSH2 0x2AE PUSH2 0x7E5 JUMP JUMPDEST PUSH1 0x40 MLOAD PUSH2 0x2BB SWAP2 SWAP1 PUSH2 0x1DAC JUMP JUMPDEST PUSH1 0x40 MLOAD DUP1 SWAP2 SUB SWAP1 RETURN JUMPDEST PUSH2 0x2DE PUSH1 0x4 DUP1 CALLDATASIZE SUB DUP2 ADD SWAP1 PUSH2 0x2D9 SWAP2 SWAP1 PUSH2 0x1F76 JUMP JUMPDEST PUSH2 0x877 JUMP JUMPDEST PUSH1 0x40 MLOAD PUSH2 0x2EB SWAP2 SWAP1 PUSH2 0x1F08 JUMP JUMPDEST PUSH1 0x40 MLOAD DUP1 SWAP2 SUB SWAP1 RETURN JUMPDEST PUSH2 0x2FC PUSH2 0x935 JUMP JUMPDEST PUSH1 0x40 MLOAD PUSH2 0x309 SWAP2 SWAP1 PUSH2 0x1DAC JUMP JUMPDEST PUSH1 0x40 MLOAD DUP1 SWAP2 SUB SWAP1 RETURN JUMPDEST PUSH2 0x32C PUSH1 0x4 DUP1 CALLDATASIZE SUB DUP2 ADD SWAP1 PUSH2 0x327 SWAP2 SWAP1 PUSH2 0x1FCF JUMP JUMPDEST PUSH2 0x9C7 JUMP JUMPDEST STOP JUMPDEST PUSH2 0x348 PUSH1 0x4 DUP1 CALLDATASIZE SUB DUP2 ADD SWAP1 PUSH2 0x343 SWAP2 SWAP1 PUSH2 0x2144 JUMP JUMPDEST PUSH2 0xB47 JUMP JUMPDEST STOP JUMPDEST PUSH2 0x364 PUSH1 0x4 DUP1 CALLDATASIZE SUB DUP2 ADD SWAP1 PUSH2 0x35F SWAP2 SWAP1 PUSH2 0x1E04 JUMP JUMPDEST PUSH2 0xBA9 JUMP JUMPDEST PUSH1 0x40 MLOAD PUSH2 0x371 SWAP2 SWAP1 PUSH2 0x1F08 JUMP JUMPDEST PUSH1 0x40 MLOAD DUP1 SWAP2 SUB SWAP1 RETURN JUMPDEST PUSH2 0x394 PUSH1 0x4 DUP1 CALLDATASIZE SUB DUP2 ADD SWAP1 PUSH2 0x38F SWAP2 SWAP1 PUSH2 0x1E04 JUMP JUMPDEST PUSH2 0xBC6 JUMP JUMPDEST PUSH1 0x40 MLOAD PUSH2 0x3A1 SWAP2 SWAP1 PUSH2 0x1DAC JUMP JUMPDEST PUSH1 0x40 MLOAD DUP1 SWAP2 SUB SWAP1 RETURN JUMPDEST PUSH2 0x3C4 PUSH1 0x4 DUP1 CALLDATASIZE SUB DUP2 ADD SWAP1 PUSH2 0x3BF SWAP2 SWAP1 PUSH2 0x1E04 JUMP JUMPDEST PUSH2 0xD38 JUMP JUMPDEST PUSH1 0x40 MLOAD PUSH2 0x3D1 SWAP2 SWAP1 PUSH2 0x1E72 JUMP JUMPDEST PUSH1 0x40 MLOAD DUP1 SWAP2 SUB SWAP1 RETURN JUMPDEST PUSH2 0x3F4 PUSH1 0x4 DUP1 CALLDATASIZE SUB DUP2 ADD SWAP1 PUSH2 0x3EF SWAP2 SWAP1 PUSH2 0x21C7 JUMP JUMPDEST PUSH2 0xD75 JUMP JUMPDEST PUSH1 0x40 MLOAD PUSH2 0x401 SWAP2 SWAP1 PUSH2 0x1D01 JUMP JUMPDEST PUSH1 0x40 MLOAD DUP1 SWAP2 SUB SWAP1 RETURN JUMPDEST PUSH1 0x0 DUP1 PUSH1 0x0 DUP4 PUSH28 0xFFFFFFFFFFFFFFFFFFFFFFFFFFFFFFFFFFFFFFFFFFFFFFFFFFFFFFFF NOT AND PUSH28 0xFFFFFFFFFFFFFFFFFFFFFFFFFFFFFFFFFFFFFFFFFFFFFFFFFFFFFFFF NOT AND DUP2 MSTORE PUSH1 0x20 ADD SWAP1 DUP2 MSTORE PUSH1 0x20 ADD PUSH1 0x0 KECCAK256 PUSH1 0x0 SWAP1 SLOAD SWAP1 PUSH2 0x100 EXP SWAP1 DIV PUSH1 0xFF AND SWAP1 POP SWAP2 SWAP1 POP JUMP JUMPDEST PUSH1 0x60 PUSH1 0x6 DUP1 SLOAD PUSH2 0x480 SWAP1 PUSH2 0x2236 JUMP JUMPDEST DUP1 PUSH1 0x1F ADD PUSH1 0x20 DUP1 SWAP2 DIV MUL PUSH1 0x20 ADD PUSH1 0x40 MLOAD SWAP1 DUP2 ADD PUSH1 0x40 MSTORE DUP1 SWAP3 SWAP2 SWAP1 DUP2 DUP2 MSTORE PUSH1 0x20 ADD DUP3 DUP1 SLOAD PUSH2 0x4AC SWAP1 PUSH2 0x2236 JUMP JUMPDEST DUP1 ISZERO PUSH2 0x4F9 JUMPI DUP1 PUSH1 0x1F LT PUSH2 0x4CE JUMPI PUSH2 0x100 DUP1 DUP4 SLOAD DIV MUL DUP4 MSTORE SWAP2 PUSH1 0x20 ADD SWAP2 PUSH2 0x4F9 JUMP JUMPDEST DUP3 ADD SWAP2 SWAP1 PUSH1 0x0 MSTORE PUSH1 0x20 PUSH1 0x0 KECCAK256 SWAP1 JUMPDEST DUP2 SLOAD DUP2 MSTORE SWAP1 PUSH1 0x1 ADD SWAP1 PUSH1 0x20 ADD DUP1 DUP4 GT PUSH2 0x4DC JUMPI DUP3 SWAP1 SUB PUSH1 0x1F AND DUP3 ADD SWAP2 JUMPDEST POP POP POP POP POP SWAP1 POP SWAP1 JUMP JUMPDEST PUSH1 0x0 PUSH2 0x50E DUP3 PUSH2 0xE09 JUMP JUMPDEST PUSH2 0x54D JUMPI PUSH1 0x40 MLOAD PUSH32 0x8C379A000000000000000000000000000000000000000000000000000000000 DUP2 MSTORE PUSH1 0x4 ADD PUSH2 0x544 SWAP1 PUSH2 0x22D9 JUMP JUMPDEST PUSH1 0x40 MLOAD DUP1 SWAP2 SUB SWAP1 REVERT JUMPDEST PUSH1 0x4 PUSH1 0x0 DUP4 DUP2 MSTORE PUSH1 0x20 ADD SWAP1 DUP2 MSTORE PUSH1 0x20 ADD PUSH1 0x0 KECCAK256 PUSH1 0x0 SWAP1 SLOAD SWAP1 PUSH2 0x100 EXP SWAP1 DIV PUSH20 0xFFFFFFFFFFFFFFFFFFFFFFFFFFFFFFFFFFFFFFFF AND SWAP1 POP SWAP2 SWAP1 POP JUMP JUMPDEST PUSH1 0x0 PUSH2 0x593 DUP3 PUSH2 0x7AE JUMP JUMPDEST SWAP1 POP DUP1 PUSH20 0xFFFFFFFFFFFFFFFFFFFFFFFFFFFFFFFFFFFFFFFF AND DUP4 PUSH20 0xFFFFFFFFFFFFFFFFFFFFFFFFFFFFFFFFFFFFFFFF AND SUB PUSH2 0x603 JUMPI PUSH1 0x40 MLOAD PUSH32 0x8C379A000000000000000000000000000000000000000000000000000000000 DUP2 MSTORE PUSH1 0x4 ADD PUSH2 0x5FA SWAP1 PUSH2 0x236B JUMP JUMPDEST PUSH1 0x40 MLOAD DUP1 SWAP2 SUB SWAP1 REVERT JUMPDEST DUP1 PUSH20 0xFFFFFFFFFFFFFFFFFFFFFFFFFFFFFFFFFFFFFFFF AND PUSH2 0x622 PUSH2 0xE26 JUMP JUMPDEST PUSH20 0xFFFFFFFFFFFFFFFFFFFFFFFFFFFFFFFFFFFFFFFF AND EQ DUP1 PUSH2 0x651 JUMPI POP PUSH2 0x650 DUP2 PUSH2 0x64B PUSH2 0xE26 JUMP JUMPDEST PUSH2 0xD75 JUMP JUMPDEST JUMPDEST PUSH2 0x690 JUMPI PUSH1 0x40 MLOAD PUSH32 0x8C379A000000000000000000000000000000000000000000000000000000000 DUP2 MSTORE PUSH1 0x4 ADD PUSH2 0x687 SWAP1 PUSH2 0x23FD JUMP JUMPDEST PUSH1 0x40 MLOAD DUP1 SWAP2 SUB SWAP1 REVERT JUMPDEST PUSH2 0x69A DUP4 DUP4 PUSH2 0xE2E JUMP JUMPDEST POP POP POP JUMP JUMPDEST PUSH1 0x0 PUSH2 0x6AB PUSH1 0x2 PUSH2 0xEE7 JUMP JUMPDEST SWAP1 POP SWAP1 JUMP JUMPDEST PUSH2 0x6C1 PUSH2 0x6BB PUSH2 0xE26 JUMP JUMPDEST DUP3 PUSH2 0xEFC JUMP JUMPDEST PUSH2 0x700 JUMPI PUSH1 0x40 MLOAD PUSH32 0x8C379A000000000000000000000000000000000000000000000000000000000 DUP2 MSTORE PUSH1 0x4 ADD PUSH2 0x6F7 SWAP1 PUSH2 0x248F JUMP JUMPDEST PUSH1 0x40 MLOAD DUP1 SWAP2 SUB SWAP1 REVERT JUMPDEST PUSH2 0x70B DUP4 DUP4 DUP4 PUSH2 0xFDA JUMP JUMPDEST POP POP POP JUMP JUMPDEST PUSH1 0x0 PUSH2 0x763 DUP3 PUSH1 0x1 PUSH1 0x0 DUP7 PUSH20 0xFFFFFFFFFFFFFFFFFFFFFFFFFFFFFFFFFFFFFFFF AND PUSH20 0xFFFFFFFFFFFFFFFFFFFFFFFFFFFFFFFFFFFFFFFF AND DUP2 MSTORE PUSH1 0x20 ADD SWAP1 DUP2 MSTORE PUSH1 0x20 ADD PUSH1 0x0 KECCAK256 PUSH2 0x11EE SWAP1 SWAP2 SWAP1 PUSH4 0xFFFFFFFF AND JUMP JUMPDEST SWAP1 POP SWAP3 SWAP2 POP POP JUMP JUMPDEST PUSH2 0x786 DUP4 DUP4 DUP4 PUSH1 0x40 MLOAD DUP1 PUSH1 0x20 ADD PUSH1 0x40 MSTORE DUP1 PUSH1 0x0 DUP2 MSTORE POP PUSH2 0xB47 JUMP JUMPDEST POP POP POP JUMP JUMPDEST PUSH1 0x0 DUP1 PUSH2 0x7A2 DUP4 PUSH1 0x2 PUSH2 0x1208 SWAP1 SWAP2 SWAP1 PUSH4 0xFFFFFFFF AND JUMP JUMPDEST POP SWAP1 POP DUP1 SWAP2 POP POP SWAP2 SWAP1 POP JUMP JUMPDEST PUSH1 0x0 PUSH2 0x7DE DUP3 PUSH1 0x40 MLOAD DUP1 PUSH1 0x60 ADD PUSH1 0x40 MSTORE DUP1 PUSH1 0x29 DUP2 MSTORE PUSH1 0x20 ADD PUSH2 0x2E61 PUSH1 0x29 SWAP2 CODECOPY PUSH1 0x2 PUSH2 0x1234 SWAP1 SWAP3 SWAP2 SWAP1 PUSH4 0xFFFFFFFF AND JUMP JUMPDEST SWAP1 POP SWAP2 SWAP1 POP JUMP JUMPDEST PUSH1 0x60 PUSH1 0xB DUP1 SLOAD PUSH2 0x7F4 SWAP1 PUSH2 0x2236 JUMP JUMPDEST DUP1 PUSH1 0x1F ADD PUSH1 0x20 DUP1 SWAP2 DIV MUL PUSH1 0x20 ADD PUSH1 0x40 MLOAD SWAP1 DUP2 ADD PUSH1 0x40 MSTORE DUP1 SWAP3 SWAP2 SWAP1 DUP2 DUP2 MSTORE PUSH1 0x20 ADD DUP3 DUP1 SLOAD PUSH2 0x820 SWAP1 PUSH2 0x2236 JUMP JUMPDEST DUP1 ISZERO PUSH2 0x86D JUMPI DUP1 PUSH1 0x1F LT PUSH2 0x842 JUMPI PUSH2 0x100 DUP1 DUP4 SLOAD DIV MUL DUP4 MSTORE SWAP2 PUSH1 0x20 ADD SWAP2 PUSH2 0x86D JUMP JUMPDEST DUP3 ADD SWAP2 SWAP1 PUSH1 0x0 MSTORE PUSH1 0x20 PUSH1 0x0 KECCAK256 SWAP1 JUMPDEST DUP2 SLOAD DUP2 MSTORE SWAP1 PUSH1 0x1 ADD SWAP1 PUSH1 0x20 ADD DUP1 DUP4 GT PUSH2 0x850 JUMPI DUP3 SWAP1 SUB PUSH1 0x1F AND DUP3 ADD SWAP2 JUMPDEST POP POP POP POP POP SWAP1 POP SWAP1 JUMP JUMPDEST PUSH1 0x0 DUP1 PUSH20 0xFFFFFFFFFFFFFFFFFFFFFFFFFFFFFFFFFFFFFFFF AND DUP3 PUSH20 0xFFFFFFFFFFFFFFFFFFFFFFFFFFFFFFFFFFFFFFFF AND SUB PUSH2 0x8E7 JUMPI PUSH1 0x40 MLOAD PUSH32 0x8C379A000000000000000000000000000000000000000000000000000000000 DUP2 MSTORE PUSH1 0x4 ADD PUSH2 0x8DE SWAP1 PUSH2 0x2521 JUMP JUMPDEST PUSH1 0x40 MLOAD DUP1 SWAP2 SUB SWAP1 REVERT JUMPDEST PUSH2 0x92E PUSH1 0x1 PUSH1 0x0 DUP5 PUSH20 0xFFFFFFFFFFFFFFFFFFFFFFFFFFFFFFFFFFFFFFFF AND PUSH20 0xFFFFFFFFFFFFFFFFFFFFFFFFFFFFFFFFFFFFFFFF AND DUP2 MSTORE PUSH1 0x20 ADD SWAP1 DUP2 MSTORE PUSH1 0x20 ADD PUSH1 0x0 KECCAK256 PUSH2 0x1253 JUMP JUMPDEST SWAP1 POP SWAP2 SWAP1 POP JUMP JUMPDEST PUSH1 0x60 PUSH1 0x7 DUP1 SLOAD PUSH2 0x944 SWAP1 PUSH2 0x2236 JUMP JUMPDEST DUP1 PUSH1 0x1F ADD PUSH1 0x20 DUP1 SWAP2 DIV MUL PUSH1 0x20 ADD PUSH1 0x40 MLOAD SWAP1 DUP2 ADD PUSH1 0x40 MSTORE DUP1 SWAP3 SWAP2 SWAP1 DUP2 DUP2 MSTORE PUSH1 0x20 ADD DUP3 DUP1 SLOAD PUSH2 0x970 SWAP1 PUSH2 0x2236 JUMP JUMPDEST DUP1 ISZERO PUSH2 0x9BD JUMPI DUP1 PUSH1 0x1F LT PUSH2 0x992 JUMPI PUSH2 0x100 DUP1 DUP4 SLOAD DIV MUL DUP4 MSTORE SWAP2 PUSH1 0x20 ADD SWAP2 PUSH2 0x9BD JUMP JUMPDEST DUP3 ADD SWAP2 SWAP1 PUSH1 0x0 MSTORE PUSH1 0x20 PUSH1 0x0 KECCAK256 SWAP1 JUMPDEST DUP2 SLOAD DUP2 MSTORE SWAP1 PUSH1 0x1 ADD SWAP1 PUSH1 0x20 ADD DUP1 DUP4 GT PUSH2 0x9A0 JUMPI DUP3 SWAP1 SUB PUSH1 0x1F AND DUP3 ADD SWAP2 JUMPDEST POP POP POP POP POP SWAP1 POP SWAP1 JUMP JUMPDEST PUSH2 0x9CF PUSH2 0xE26 JUMP JUMPDEST PUSH20 0xFFFFFFFFFFFFFFFFFFFFFFFFFFFFFFFFFFFFFFFF AND DUP3 PUSH20 0xFFFFFFFFFFFFFFFFFFFFFFFFFFFFFFFFFFFFFFFF AND SUB PUSH2 0xA3C JUMPI PUSH1 0x40 MLOAD PUSH32 0x8C379A000000000000000000000000000000000000000000000000000000000 DUP2 MSTORE PUSH1 0x4 ADD PUSH2 0xA33 SWAP1 PUSH2 0x258D JUMP JUMPDEST PUSH1 0x40 MLOAD DUP1 SWAP2 SUB SWAP1 REVERT JUMPDEST DUP1 PUSH1 0x5 PUSH1 0x0 PUSH2 0xA49 PUSH2 0xE26 JUMP JUMPDEST PUSH20 0xFFFFFFFFFFFFFFFFFFFFFFFFFFFFFFFFFFFFFFFF AND PUSH20 0xFFFFFFFFFFFFFFFFFFFFFFFFFFFFFFFFFFFFFFFF AND DUP2 MSTORE PUSH1 0x20 ADD SWAP1 DUP2 MSTORE PUSH1 0x20 ADD PUSH1 0x0 KECCAK256 PUSH1 0x0 DUP5 PUSH20 0xFFFFFFFFFFFFFFFFFFFFFFFFFFFFFFFFFFFFFFFF AND PUSH20 0xFFFFFFFFFFFFFFFFFFFFFFFFFFFFFFFFFFFFFFFF AND DUP2 MSTORE PUSH1 0x20 ADD SWAP1 DUP2 MSTORE PUSH1 0x20 ADD PUSH1 0x0 KECCAK256 PUSH1 0x0 PUSH2 0x100 EXP DUP2 SLOAD DUP2 PUSH1 0xFF MUL NOT AND SWAP1 DUP4 ISZERO ISZERO MUL OR SWAP1 SSTORE POP DUP2 PUSH20 0xFFFFFFFFFFFFFFFFFFFFFFFFFFFFFFFFFFFFFFFF AND PUSH2 0xAF6 PUSH2 0xE26 JUMP JUMPDEST PUSH20 0xFFFFFFFFFFFFFFFFFFFFFFFFFFFFFFFFFFFFFFFF AND PUSH32 0x17307EAB39AB6107E8899845AD3D59BD9653F200F220920489CA2B5937696C31 DUP4 PUSH1 0x40 MLOAD PUSH2 0xB3B SWAP2 SWAP1 PUSH2 0x1D01 JUMP JUMPDEST PUSH1 0x40 MLOAD DUP1 SWAP2 SUB SWAP1 LOG3 POP POP JUMP JUMPDEST PUSH2 0xB58 PUSH2 0xB52 PUSH2 0xE26 JUMP JUMPDEST DUP4 PUSH2 0xEFC JUMP JUMPDEST PUSH2 0xB97 JUMPI PUSH1 0x40 MLOAD PUSH32 0x8C379A000000000000000000000000000000000000000000000000000000000 DUP2 MSTORE PUSH1 0x4 ADD PUSH2 0xB8E SWAP1 PUSH2 0x248F JUMP JUMPDEST PUSH1 0x40 MLOAD DUP1 SWAP2 SUB SWAP1 REVERT JUMPDEST PUSH2 0xBA3 DUP5 DUP5 DUP5 DUP5 PUSH2 0x1268 JUMP JUMPDEST POP POP POP POP JUMP JUMPDEST PUSH1 0x0 PUSH1 0x9 PUSH1 0x0 DUP4 DUP2 MSTORE PUSH1 0x20 ADD SWAP1 DUP2 MSTORE PUSH1 0x20 ADD PUSH1 0x0 KECCAK256 SLOAD SWAP1 POP SWAP2 SWAP1 POP JUMP JUMPDEST PUSH1 0x60 PUSH2 0xBD1 DUP3 PUSH2 0xE09 JUMP JUMPDEST PUSH2 0xC10 JUMPI PUSH1 0x40 MLOAD PUSH32 0x8C379A000000000000000000000000000000000000000000000000000000000 DUP2 MSTORE PUSH1 0x4 ADD PUSH2 0xC07 SWAP1 PUSH2 0x261F JUMP JUMPDEST PUSH1 0x40 MLOAD DUP1 SWAP2 SUB SWAP1 REVERT JUMPDEST PUSH1 0x0 PUSH1 0x8 PUSH1 0x0 DUP5 DUP2 MSTORE PUSH1 0x20 ADD SWAP1 DUP2 MSTORE PUSH1 0x20 ADD PUSH1 0x0 KECCAK256 DUP1 SLOAD PUSH2 0xC30 SWAP1 PUSH2 0x2236 JUMP JUMPDEST DUP1 PUSH1 0x1F ADD PUSH1 0x20 DUP1 SWAP2 DIV MUL PUSH1 0x20 ADD PUSH1 0x40 MLOAD SWAP1 DUP2 ADD PUSH1 0x40 MSTORE DUP1 SWAP3 SWAP2 SWAP1 DUP2 DUP2 MSTORE PUSH1 0x20 ADD DUP3 DUP1 SLOAD PUSH2 0xC5C SWAP1 PUSH2 0x2236 JUMP JUMPDEST DUP1 ISZERO PUSH2 0xCA9 JUMPI DUP1 PUSH1 0x1F LT PUSH2 0xC7E JUMPI PUSH2 0x100 DUP1 DUP4 SLOAD DIV MUL DUP4 MSTORE SWAP2 PUSH1 0x20 ADD SWAP2 PUSH2 0xCA9 JUMP JUMPDEST DUP3 ADD SWAP2 SWAP1 PUSH1 0x0 MSTORE PUSH1 0x20 PUSH1 0x0 KECCAK256 SWAP1 JUMPDEST DUP2 SLOAD DUP2 MSTORE SWAP1 PUSH1 0x1 ADD SWAP1 PUSH1 0x20 ADD DUP1 DUP4 GT PUSH2 0xC8C JUMPI DUP3 SWAP1 SUB PUSH1 0x1F AND DUP3 ADD SWAP2 JUMPDEST POP POP POP POP POP SWAP1 POP PUSH1 0x0 PUSH2 0xCBA PUSH2 0x7E5 JUMP JUMPDEST SWAP1 POP PUSH1 0x0 DUP2 MLOAD SUB PUSH2 0xCCF JUMPI DUP2 SWAP3 POP POP POP PUSH2 0xD33 JUMP JUMPDEST PUSH1 0x0 DUP3 MLOAD GT ISZERO PUSH2 0xD04 JUMPI DUP1 DUP3 PUSH1 0x40 MLOAD PUSH1 0x20 ADD PUSH2 0xCEC SWAP3 SWAP2 SWAP1 PUSH2 0x267B JUMP JUMPDEST PUSH1 0x40 MLOAD PUSH1 0x20 DUP2 DUP4 SUB SUB DUP2 MSTORE SWAP1 PUSH1 0x40 MSTORE SWAP3 POP POP POP PUSH2 0xD33 JUMP JUMPDEST DUP1 PUSH2 0xD0E DUP6 PUSH2 0x12C4 JUMP JUMPDEST PUSH1 0x40 MLOAD PUSH1 0x20 ADD PUSH2 0xD1F SWAP3 SWAP2 SWAP1 PUSH2 0x267B JUMP JUMPDEST PUSH1 0x40 MLOAD PUSH1 0x20 DUP2 DUP4 SUB SUB DUP2 MSTORE SWAP1 PUSH1 0x40 MSTORE SWAP3 POP POP POP JUMPDEST SWAP2 SWAP1 POP JUMP JUMPDEST PUSH1 0x0 PUSH1 0xA PUSH1 0x0 DUP4 DUP2 MSTORE PUSH1 0x20 ADD SWAP1 DUP2 MSTORE PUSH1 0x20 ADD PUSH1 0x0 KECCAK256 PUSH1 0x0 SWAP1 SLOAD SWAP1 PUSH2 0x100 EXP SWAP1 DIV PUSH20 0xFFFFFFFFFFFFFFFFFFFFFFFFFFFFFFFFFFFFFFFF AND SWAP1 POP SWAP2 SWAP1 POP JUMP JUMPDEST PUSH1 0x0 PUSH1 0x5 PUSH1 0x0 DUP5 PUSH20 0xFFFFFFFFFFFFFFFFFFFFFFFFFFFFFFFFFFFFFFFF AND PUSH20 0xFFFFFFFFFFFFFFFFFFFFFFFFFFFFFFFFFFFFFFFF AND DUP2 MSTORE PUSH1 0x20 ADD SWAP1 DUP2 MSTORE PUSH1 0x20 ADD PUSH1 0x0 KECCAK256 PUSH1 0x0 DUP4 PUSH20 0xFFFFFFFFFFFFFFFFFFFFFFFFFFFFFFFFFFFFFFFF AND PUSH20 0xFFFFFFFFFFFFFFFFFFFFFFFFFFFFFFFFFFFFFFFF AND DUP2 MSTORE PUSH1 0x20 ADD SWAP1 DUP2 MSTORE PUSH1 0x20 ADD PUSH1 0x0 KECCAK256 PUSH1 0x0 SWAP1 SLOAD SWAP1 PUSH2 0x100 EXP SWAP1 DIV PUSH1 0xFF AND SWAP1 POP SWAP3 SWAP2 POP POP JUMP JUMPDEST PUSH1 0x0 PUSH2 0xE1F DUP3 PUSH1 0x2 PUSH2 0x1424 SWAP1 SWAP2 SWAP1 PUSH4 0xFFFFFFFF AND JUMP JUMPDEST SWAP1 POP SWAP2 SWAP1 POP JUMP JUMPDEST PUSH1 0x0 CALLER SWAP1 POP SWAP1 JUMP JUMPDEST DUP2 PUSH1 0x4 PUSH1 0x0 DUP4 DUP2 MSTORE PUSH1 0x20 ADD SWAP1 DUP2 MSTORE PUSH1 0x20 ADD PUSH1 0x0 KECCAK256 PUSH1 0x0 PUSH2 0x100 EXP DUP2 SLOAD DUP2 PUSH20 0xFFFFFFFFFFFFFFFFFFFFFFFFFFFFFFFFFFFFFFFF MUL NOT AND SWAP1 DUP4 PUSH20 0xFFFFFFFFFFFFFFFFFFFFFFFFFFFFFFFFFFFFFFFF AND MUL OR SWAP1 SSTORE POP DUP1 DUP3 PUSH20 0xFFFFFFFFFFFFFFFFFFFFFFFFFFFFFFFFFFFFFFFF AND PUSH2 0xEA1 DUP4 PUSH2 0x7AE JUMP JUMPDEST PUSH20 0xFFFFFFFFFFFFFFFFFFFFFFFFFFFFFFFFFFFFFFFF AND PUSH32 0x8C5BE1E5EBEC7D5BD14F71427D1E84F3DD0314C0F7B2291E5B200AC8C7C3B925 PUSH1 0x40 MLOAD PUSH1 0x40 MLOAD DUP1 SWAP2 SUB SWAP1 LOG4 POP POP JUMP JUMPDEST PUSH1 0x0 PUSH2 0xEF5 DUP3 PUSH1 0x0 ADD PUSH2 0x143E JUMP JUMPDEST SWAP1 POP SWAP2 SWAP1 POP JUMP JUMPDEST PUSH1 0x0 PUSH2 0xF07 DUP3 PUSH2 0xE09 JUMP JUMPDEST PUSH2 0xF46 JUMPI PUSH1 0x40 MLOAD PUSH32 0x8C379A000000000000000000000000000000000000000000000000000000000 DUP2 MSTORE PUSH1 0x4 ADD PUSH2 0xF3D SWAP1 PUSH2 0x2711 JUMP JUMPDEST PUSH1 0x40 MLOAD DUP1 SWAP2 SUB SWAP1 REVERT JUMPDEST PUSH1 0x0 PUSH2 0xF51 DUP4 PUSH2 0x7AE JUMP JUMPDEST SWAP1 POP DUP1 PUSH20 0xFFFFFFFFFFFFFFFFFFFFFFFFFFFFFFFFFFFFFFFF AND DUP5 PUSH20 0xFFFFFFFFFFFFFFFFFFFFFFFFFFFFFFFFFFFFFFFF AND EQ DUP1 PUSH2 0xFC0 JUMPI POP DUP4 PUSH20 0xFFFFFFFFFFFFFFFFFFFFFFFFFFFFFFFFFFFFFFFF AND PUSH2 0xFA8 DUP5 PUSH2 0x503 JUMP JUMPDEST PUSH20 0xFFFFFFFFFFFFFFFFFFFFFFFFFFFFFFFFFFFFFFFF AND EQ JUMPDEST DUP1 PUSH2 0xFD1 JUMPI POP PUSH2 0xFD0 DUP2 DUP6 PUSH2 0xD75 JUMP JUMPDEST JUMPDEST SWAP2 POP POP SWAP3 SWAP2 POP POP JUMP JUMPDEST DUP3 PUSH20 0xFFFFFFFFFFFFFFFFFFFFFFFFFFFFFFFFFFFFFFFF AND PUSH2 0xFFA DUP3 PUSH2 0x7AE JUMP JUMPDEST PUSH20 0xFFFFFFFFFFFFFFFFFFFFFFFFFFFFFFFFFFFFFFFF AND EQ PUSH2 0x1050 JUMPI PUSH1 0x40 MLOAD PUSH32 0x8C379A000000000000000000000000000000000000000000000000000000000 DUP2 MSTORE PUSH1 0x4 ADD PUSH2 0x1047 SWAP1 PUSH2 0x27A3 JUMP JUMPDEST PUSH1 0x40 MLOAD DUP1 SWAP2 SUB SWAP1 REVERT JUMPDEST PUSH1 0x0 PUSH20 0xFFFFFFFFFFFFFFFFFFFFFFFFFFFFFFFFFFFFFFFF AND DUP3 PUSH20 0xFFFFFFFFFFFFFFFFFFFFFFFFFFFFFFFFFFFFFFFF AND SUB PUSH2 0x10BF JUMPI PUSH1 0x40 MLOAD PUSH32 0x8C379A000000000000000000000000000000000000000000000000000000000 DUP2 MSTORE PUSH1 0x4 ADD PUSH2 0x10B6 SWAP1 PUSH2 0x2835 JUMP JUMPDEST PUSH1 0x40 MLOAD DUP1 SWAP2 SUB SWAP1 REVERT JUMPDEST PUSH2 0x10CA DUP4 DUP4 DUP4 PUSH2 0x144F JUMP JUMPDEST PUSH2 0x10D5 PUSH1 0x0 DUP3 PUSH2 0xE2E JUMP JUMPDEST PUSH2 0x1126 DUP2 PUSH1 0x1 PUSH1 0x0 DUP7 PUSH20 0xFFFFFFFFFFFFFFFFFFFFFFFFFFFFFFFFFFFFFFFF AND PUSH20 0xFFFFFFFFFFFFFFFFFFFFFFFFFFFFFFFFFFFFFFFF AND DUP2 MSTORE PUSH1 0x20 ADD SWAP1 DUP2 MSTORE PUSH1 0x20 ADD PUSH1 0x0 KECCAK256 PUSH2 0x1454 SWAP1 SWAP2 SWAP1 PUSH4 0xFFFFFFFF AND JUMP JUMPDEST PUSH2 0x1177 DUP2 PUSH1 0x1 PUSH1 0x0 DUP6 PUSH20 0xFFFFFFFFFFFFFFFFFFFFFFFFFFFFFFFFFFFFFFFF AND PUSH20 0xFFFFFFFFFFFFFFFFFFFFFFFFFFFFFFFFFFFFFFFF AND DUP2 MSTORE PUSH1 0x20 ADD SWAP1 DUP2 MSTORE PUSH1 0x20 ADD PUSH1 0x0 KECCAK256 PUSH2 0x1469 SWAP1 SWAP2 SWAP1 PUSH4 0xFFFFFFFF AND JUMP JUMPDEST PUSH2 0x118D DUP2 DUP4 PUSH1 0x2 PUSH2 0x147E SWAP1 SWAP3 SWAP2 SWAP1 PUSH4 0xFFFFFFFF AND JUMP JUMPDEST POP DUP1 DUP3 PUSH20 0xFFFFFFFFFFFFFFFFFFFFFFFFFFFFFFFFFFFFFFFF AND DUP5 PUSH20 0xFFFFFFFFFFFFFFFFFFFFFFFFFFFFFFFFFFFFFFFF AND PUSH32 0xDDF252AD1BE2C89B69C2B068FC378DAA952BA7F163C4A11628F55A4DF523B3EF PUSH1 0x40 MLOAD PUSH1 0x40 MLOAD DUP1 SWAP2 SUB SWAP1 LOG4 POP POP POP JUMP JUMPDEST PUSH1 0x0 PUSH2 0x11FD DUP4 PUSH1 0x0 ADD DUP4 PUSH2 0x14B3 JUMP JUMPDEST PUSH1 0x0 SHR SWAP1 POP SWAP3 SWAP2 POP POP JUMP JUMPDEST PUSH1 0x0 DUP1 PUSH1 0x0 DUP1 PUSH2 0x121B DUP7 PUSH1 0x0 ADD DUP7 PUSH2 0x1527 JUMP JUMPDEST SWAP2 POP SWAP2 POP DUP2 PUSH1 0x0 SHR DUP2 PUSH1 0x0 SHR SWAP4 POP SWAP4 POP POP POP SWAP3 POP SWAP3 SWAP1 POP JUMP JUMPDEST PUSH1 0x0 PUSH2 0x1247 DUP5 PUSH1 0x0 ADD DUP5 PUSH1 0x0 SHL DUP5 PUSH2 0x15B1 JUMP JUMPDEST PUSH1 0x0 SHR SWAP1 POP SWAP4 SWAP3 POP POP POP JUMP JUMPDEST PUSH1 0x0 PUSH2 0x1261 DUP3 PUSH1 0x0 ADD PUSH2 0x1652 JUMP JUMPDEST SWAP1 POP SWAP2 SWAP1 POP JUMP JUMPDEST PUSH2 0x1273 DUP5 DUP5 DUP5 PUSH2 0xFDA JUMP JUMPDEST PUSH2 0x127F DUP5 DUP5 DUP5 DUP5 PUSH2 0x1663 JUMP JUMPDEST PUSH2 0x12BE JUMPI PUSH1 0x40 MLOAD PUSH32 0x8C379A000000000000000000000000000000000000000000000000000000000 DUP2 MSTORE PUSH1 0x4 ADD PUSH2 0x12B5 SWAP1 PUSH2 0x28C7 JUMP JUMPDEST PUSH1 0x40 MLOAD DUP1 SWAP2 SUB SWAP1 REVERT JUMPDEST POP POP POP POP JUMP JUMPDEST PUSH1 0x60 PUSH1 0x0 DUP3 SUB PUSH2 0x130B JUMPI PUSH1 0x40 MLOAD DUP1 PUSH1 0x40 ADD PUSH1 0x40 MSTORE DUP1 PUSH1 0x1 DUP2 MSTORE PUSH1 0x20 ADD PUSH32 0x3000000000000000000000000000000000000000000000000000000000000000 DUP2 MSTORE POP SWAP1 POP PUSH2 0x141F JUMP JUMPDEST PUSH1 0x0 DUP3 SWAP1 POP PUSH1 0x0 JUMPDEST PUSH1 0x0 DUP3 EQ PUSH2 0x133D JUMPI DUP1 DUP1 PUSH2 0x1326 SWAP1 PUSH2 0x2916 JUMP JUMPDEST SWAP2 POP POP PUSH1 0xA DUP3 PUSH2 0x1336 SWAP2 SWAP1 PUSH2 0x298D JUMP JUMPDEST SWAP2 POP PUSH2 0x1313 JUMP JUMPDEST PUSH1 0x0 DUP2 PUSH8 0xFFFFFFFFFFFFFFFF DUP2 GT ISZERO PUSH2 0x1359 JUMPI PUSH2 0x1358 PUSH2 0x2019 JUMP JUMPDEST JUMPDEST PUSH1 0x40 MLOAD SWAP1 DUP1 DUP3 MSTORE DUP1 PUSH1 0x1F ADD PUSH1 0x1F NOT AND PUSH1 0x20 ADD DUP3 ADD PUSH1 0x40 MSTORE DUP1 ISZERO PUSH2 0x138B JUMPI DUP2 PUSH1 0x20 ADD PUSH1 0x1 DUP3 MUL DUP1 CALLDATASIZE DUP4 CALLDATACOPY DUP1 DUP3 ADD SWAP2 POP POP SWAP1 POP JUMPDEST POP SWAP1 POP JUMPDEST PUSH1 0x0 DUP6 EQ PUSH2 0x1418 JUMPI PUSH1 0x1 DUP3 PUSH2 0x13A4 SWAP2 SWAP1 PUSH2 0x29BE JUMP JUMPDEST SWAP2 POP PUSH1 0xA DUP6 PUSH2 0x13B3 SWAP2 SWAP1 PUSH2 0x29F2 JUMP JUMPDEST PUSH1 0x30 PUSH2 0x13BF SWAP2 SWAP1 PUSH2 0x2A23 JUMP JUMPDEST PUSH1 0xF8 SHL DUP2 DUP4 DUP2 MLOAD DUP2 LT PUSH2 0x13D5 JUMPI PUSH2 0x13D4 PUSH2 0x2A57 JUMP JUMPDEST JUMPDEST PUSH1 0x20 ADD ADD SWAP1 PUSH31 0xFFFFFFFFFFFFFFFFFFFFFFFFFFFFFFFFFFFFFFFFFFFFFFFFFFFFFFFFFFFFFF NOT AND SWAP1 DUP2 PUSH1 0x0 BYTE SWAP1 MSTORE8 POP PUSH1 0xA DUP6 PUSH2 0x1411 SWAP2 SWAP1 PUSH2 0x298D JUMP JUMPDEST SWAP5 POP PUSH2 0x138F JUMP JUMPDEST DUP1 SWAP4 POP POP POP POP JUMPDEST SWAP2 SWAP1 POP JUMP JUMPDEST PUSH1 0x0 PUSH2 0x1436 DUP4 PUSH1 0x0 ADD DUP4 PUSH1 0x0 SHL PUSH2 0x17C7 JUMP JUMPDEST SWAP1 POP SWAP3 SWAP2 POP POP JUMP JUMPDEST PUSH1 0x0 DUP2 PUSH1 0x0 ADD DUP1 SLOAD SWAP1 POP SWAP1 POP SWAP2 SWAP1 POP JUMP JUMPDEST POP POP POP JUMP JUMPDEST PUSH2 0x1464 DUP3 PUSH1 0x0 ADD DUP3 PUSH1 0x0 SHL PUSH2 0x17EA JUMP JUMPDEST POP POP POP JUMP JUMPDEST PUSH2 0x1479 DUP3 PUSH1 0x0 ADD DUP3 PUSH1 0x0 SHL PUSH2 0x1902 JUMP JUMPDEST POP POP POP JUMP JUMPDEST PUSH1 0x0 PUSH2 0x14AA DUP5 PUSH1 0x0 ADD DUP5 PUSH1 0x0 SHL DUP5 PUSH20 0xFFFFFFFFFFFFFFFFFFFFFFFFFFFFFFFFFFFFFFFF AND PUSH1 0x0 SHL PUSH2 0x1972 JUMP JUMPDEST SWAP1 POP SWAP4 SWAP3 POP POP POP JUMP JUMPDEST PUSH1 0x0 DUP2 DUP4 PUSH1 0x0 ADD DUP1 SLOAD SWAP1 POP GT PUSH2 0x14FE JUMPI PUSH1 0x40 MLOAD PUSH32 0x8C379A000000000000000000000000000000000000000000000000000000000 DUP2 MSTORE PUSH1 0x4 ADD PUSH2 0x14F5 SWAP1 PUSH2 0x2AF8 JUMP JUMPDEST PUSH1 0x40 MLOAD DUP1 SWAP2 SUB SWAP1 REVERT JUMPDEST DUP3 PUSH1 0x0 ADD DUP3 DUP2 SLOAD DUP2 LT PUSH2 0x1514 JUMPI PUSH2 0x1513 PUSH2 0x2A57 JUMP JUMPDEST JUMPDEST SWAP1 PUSH1 0x0 MSTORE PUSH1 0x20 PUSH1 0x0 KECCAK256 ADD SLOAD SWAP1 POP SWAP3 SWAP2 POP POP JUMP JUMPDEST PUSH1 0x0 DUP1 DUP3 DUP5 PUSH1 0x0 ADD DUP1 SLOAD SWAP1 POP GT PUSH2 0x1573 JUMPI PUSH1 0x40 MLOAD PUSH32 0x8C379A000000000000000000000000000000000000000000000000000000000 DUP2 MSTORE PUSH1 0x4 ADD PUSH2 0x156A SWAP1 PUSH2 0x2B8A JUMP JUMPDEST PUSH1 0x40 MLOAD DUP1 SWAP2 SUB SWAP1 REVERT JUMPDEST PUSH1 0x0 DUP5 PUSH1 0x0 ADD DUP5 DUP2 SLOAD DUP2 LT PUSH2 0x158B JUMPI PUSH2 0x158A PUSH2 0x2A57 JUMP JUMPDEST JUMPDEST SWAP1 PUSH1 0x0 MSTORE PUSH1 0x20 PUSH1 0x0 KECCAK256 SWAP1 PUSH1 0x2 MUL ADD SWAP1 POP DUP1 PUSH1 0x0 ADD SLOAD DUP2 PUSH1 0x1 ADD SLOAD SWAP3 POP SWAP3 POP POP SWAP3 POP SWAP3 SWAP1 POP JUMP JUMPDEST PUSH1 0x0 DUP1 DUP5 PUSH1 0x1 ADD PUSH1 0x0 DUP6 DUP2 MSTORE PUSH1 0x20 ADD SWAP1 DUP2 MSTORE PUSH1 0x20 ADD PUSH1 0x0 KECCAK256 SLOAD SWAP1 POP PUSH1 0x0 DUP2 EQ ISZERO DUP4 SWAP1 PUSH2 0x1613 JUMPI PUSH1 0x40 MLOAD PUSH32 0x8C379A000000000000000000000000000000000000000000000000000000000 DUP2 MSTORE PUSH1 0x4 ADD PUSH2 0x160A SWAP2 SWAP1 PUSH2 0x1DAC JUMP JUMPDEST PUSH1 0x40 MLOAD DUP1 SWAP2 SUB SWAP1 REVERT JUMPDEST POP DUP5 PUSH1 0x0 ADD PUSH1 0x1 DUP3 PUSH2 0x1625 SWAP2 SWAP1 PUSH2 0x29BE JUMP JUMPDEST DUP2 SLOAD DUP2 LT PUSH2 0x1636 JUMPI PUSH2 0x1635 PUSH2 0x2A57 JUMP JUMPDEST JUMPDEST SWAP1 PUSH1 0x0 MSTORE PUSH1 0x20 PUSH1 0x0 KECCAK256 SWAP1 PUSH1 0x2 MUL ADD PUSH1 0x1 ADD SLOAD SWAP2 POP POP SWAP4 SWAP3 POP POP POP JUMP JUMPDEST PUSH1 0x0 DUP2 PUSH1 0x0 ADD DUP1 SLOAD SWAP1 POP SWAP1 POP SWAP2 SWAP1 POP JUMP JUMPDEST PUSH1 0x0 PUSH2 0x1684 DUP5 PUSH20 0xFFFFFFFFFFFFFFFFFFFFFFFFFFFFFFFFFFFFFFFF AND PUSH2 0x1A5D JUMP JUMPDEST PUSH2 0x1691 JUMPI PUSH1 0x1 SWAP1 POP PUSH2 0x17BF JUMP JUMPDEST PUSH1 0x0 PUSH2 0x1758 PUSH4 0x150B7A02 PUSH1 0xE0 SHL PUSH2 0x16A6 PUSH2 0xE26 JUMP JUMPDEST DUP9 DUP8 DUP8 PUSH1 0x40 MLOAD PUSH1 0x24 ADD PUSH2 0x16BC SWAP5 SWAP4 SWAP3 SWAP2 SWAP1 PUSH2 0x2C20 JUMP JUMPDEST PUSH1 0x40 MLOAD PUSH1 0x20 DUP2 DUP4 SUB SUB DUP2 MSTORE SWAP1 PUSH1 0x40 MSTORE SWAP1 PUSH28 0xFFFFFFFFFFFFFFFFFFFFFFFFFFFFFFFFFFFFFFFFFFFFFFFFFFFFFFFF NOT AND PUSH1 0x20 DUP3 ADD DUP1 MLOAD PUSH28 0xFFFFFFFFFFFFFFFFFFFFFFFFFFFFFFFFFFFFFFFFFFFFFFFFFFFFFFFF DUP4 DUP2 DUP4 AND OR DUP4 MSTORE POP POP POP POP PUSH1 0x40 MLOAD DUP1 PUSH1 0x60 ADD PUSH1 0x40 MSTORE DUP1 PUSH1 0x32 DUP2 MSTORE PUSH1 0x20 ADD PUSH2 0x2E2F PUSH1 0x32 SWAP2 CODECOPY DUP8 PUSH20 0xFFFFFFFFFFFFFFFFFFFFFFFFFFFFFFFFFFFFFFFF AND PUSH2 0x1A80 SWAP1 SWAP3 SWAP2 SWAP1 PUSH4 0xFFFFFFFF AND JUMP JUMPDEST SWAP1 POP PUSH1 0x0 DUP2 DUP1 PUSH1 0x20 ADD SWAP1 MLOAD DUP2 ADD SWAP1 PUSH2 0x1770 SWAP2 SWAP1 PUSH2 0x2C81 JUMP JUMPDEST SWAP1 POP PUSH4 0x150B7A02 PUSH1 0xE0 SHL PUSH28 0xFFFFFFFFFFFFFFFFFFFFFFFFFFFFFFFFFFFFFFFFFFFFFFFFFFFFFFFF NOT AND DUP2 PUSH28 0xFFFFFFFFFFFFFFFFFFFFFFFFFFFFFFFFFFFFFFFFFFFFFFFFFFFFFFFF NOT AND EQ SWAP3 POP POP POP JUMPDEST SWAP5 SWAP4 POP POP POP POP JUMP JUMPDEST PUSH1 0x0 DUP1 DUP4 PUSH1 0x1 ADD PUSH1 0x0 DUP5 DUP2 MSTORE PUSH1 0x20 ADD SWAP1 DUP2 MSTORE PUSH1 0x20 ADD PUSH1 0x0 KECCAK256 SLOAD EQ ISZERO SWAP1 POP SWAP3 SWAP2 POP POP JUMP JUMPDEST PUSH1 0x0 DUP1 DUP4 PUSH1 0x1 ADD PUSH1 0x0 DUP5 DUP2 MSTORE PUSH1 0x20 ADD SWAP1 DUP2 MSTORE PUSH1 0x20 ADD PUSH1 0x0 KECCAK256 SLOAD SWAP1 POP PUSH1 0x0 DUP2 EQ PUSH2 0x18F6 JUMPI PUSH1 0x0 PUSH1 0x1 DUP3 PUSH2 0x181C SWAP2 SWAP1 PUSH2 0x29BE JUMP JUMPDEST SWAP1 POP PUSH1 0x0 PUSH1 0x1 DUP7 PUSH1 0x0 ADD DUP1 SLOAD SWAP1 POP PUSH2 0x1834 SWAP2 SWAP1 PUSH2 0x29BE JUMP JUMPDEST SWAP1 POP PUSH1 0x0 DUP7 PUSH1 0x0 ADD DUP3 DUP2 SLOAD DUP2 LT PUSH2 0x184E JUMPI PUSH2 0x184D PUSH2 0x2A57 JUMP JUMPDEST JUMPDEST SWAP1 PUSH1 0x0 MSTORE PUSH1 0x20 PUSH1 0x0 KECCAK256 ADD SLOAD SWAP1 POP DUP1 DUP8 PUSH1 0x0 ADD DUP5 DUP2 SLOAD DUP2 LT PUSH2 0x1872 JUMPI PUSH2 0x1871 PUSH2 0x2A57 JUMP JUMPDEST JUMPDEST SWAP1 PUSH1 0x0 MSTORE PUSH1 0x20 PUSH1 0x0 KECCAK256 ADD DUP2 SWAP1 SSTORE POP PUSH1 0x1 DUP4 PUSH2 0x188D SWAP2 SWAP1 PUSH2 0x2A23 JUMP JUMPDEST DUP8 PUSH1 0x1 ADD PUSH1 0x0 DUP4 DUP2 MSTORE PUSH1 0x20 ADD SWAP1 DUP2 MSTORE PUSH1 0x20 ADD PUSH1 0x0 KECCAK256 DUP2 SWAP1 SSTORE POP DUP7 PUSH1 0x0 ADD DUP1 SLOAD DUP1 PUSH2 0x18BA JUMPI PUSH2 0x18B9 PUSH2 0x2CAE JUMP JUMPDEST JUMPDEST PUSH1 0x1 SWAP1 SUB DUP2 DUP2 SWAP1 PUSH1 0x0 MSTORE PUSH1 0x20 PUSH1 0x0 KECCAK256 ADD PUSH1 0x0 SWAP1 SSTORE SWAP1 SSTORE DUP7 PUSH1 0x1 ADD PUSH1 0x0 DUP8 DUP2 MSTORE PUSH1 0x20 ADD SWAP1 DUP2 MSTORE PUSH1 0x20 ADD PUSH1 0x0 KECCAK256 PUSH1 0x0 SWAP1 SSTORE PUSH1 0x1 SWAP5 POP POP POP POP POP PUSH2 0x18FC JUMP JUMPDEST PUSH1 0x0 SWAP2 POP POP JUMPDEST SWAP3 SWAP2 POP POP JUMP JUMPDEST PUSH1 0x0 PUSH2 0x190E DUP4 DUP4 PUSH2 0x1A98 JUMP JUMPDEST PUSH2 0x1967 JUMPI DUP3 PUSH1 0x0 ADD DUP3 SWAP1 DUP1 PUSH1 0x1 DUP2 SLOAD ADD DUP1 DUP3 SSTORE DUP1 SWAP2 POP POP PUSH1 0x1 SWAP1 SUB SWAP1 PUSH1 0x0 MSTORE PUSH1 0x20 PUSH1 0x0 KECCAK256 ADD PUSH1 0x0 SWAP1 SWAP2 SWAP1 SWAP2 SWAP1 SWAP2 POP SSTORE DUP3 PUSH1 0x0 ADD DUP1 SLOAD SWAP1 POP DUP4 PUSH1 0x1 ADD PUSH1 0x0 DUP5 DUP2 MSTORE PUSH1 0x20 ADD SWAP1 DUP2 MSTORE PUSH1 0x20 ADD PUSH1 0x0 KECCAK256 DUP2 SWAP1 SSTORE POP PUSH1 0x1 SWAP1 POP PUSH2 0x196C JUMP JUMPDEST PUSH1 0x0 SWAP1 POP JUMPDEST SWAP3 SWAP2 POP POP JUMP JUMPDEST PUSH1 0x0 DUP1 DUP5 PUSH1 0x1 ADD PUSH1 0x0 DUP6 DUP2 MSTORE PUSH1 0x20 ADD SWAP1 DUP2 MSTORE PUSH1 0x20 ADD PUSH1 0x0 KECCAK256 SLOAD SWAP1 POP PUSH1 0x0 DUP2 SUB PUSH2 0x1A18 JUMPI DUP5 PUSH1 0x0 ADD PUSH1 0x40 MLOAD DUP1 PUSH1 0x40 ADD PUSH1 0x40 MSTORE DUP1 DUP7 DUP2 MSTORE PUSH1 0x20 ADD DUP6 DUP2 MSTORE POP SWAP1 DUP1 PUSH1 0x1 DUP2 SLOAD ADD DUP1 DUP3 SSTORE DUP1 SWAP2 POP POP PUSH1 0x1 SWAP1 SUB SWAP1 PUSH1 0x0 MSTORE PUSH1 0x20 PUSH1 0x0 KECCAK256 SWAP1 PUSH1 0x2 MUL ADD PUSH1 0x0 SWAP1 SWAP2 SWAP1 SWAP2 SWAP1 SWAP2 POP PUSH1 0x0 DUP3 ADD MLOAD DUP2 PUSH1 0x0 ADD SSTORE PUSH1 0x20 DUP3 ADD MLOAD DUP2 PUSH1 0x1 ADD SSTORE POP POP DUP5 PUSH1 0x0 ADD DUP1 SLOAD SWAP1 POP DUP6 PUSH1 0x1 ADD PUSH1 0x0 DUP7 DUP2 MSTORE PUSH1 0x20 ADD SWAP1 DUP2 MSTORE PUSH1 0x20 ADD PUSH1 0x0 KECCAK256 DUP2 SWAP1 SSTORE POP PUSH1 0x1 SWAP2 POP POP PUSH2 0x1A56 JUMP JUMPDEST DUP3 DUP6 PUSH1 0x0 ADD PUSH1 0x1 DUP4 PUSH2 0x1A2A SWAP2 SWAP1 PUSH2 0x29BE JUMP JUMPDEST DUP2 SLOAD DUP2 LT PUSH2 0x1A3B JUMPI PUSH2 0x1A3A PUSH2 0x2A57 JUMP JUMPDEST JUMPDEST SWAP1 PUSH1 0x0 MSTORE PUSH1 0x20 PUSH1 0x0 KECCAK256 SWAP1 PUSH1 0x2 MUL ADD PUSH1 0x1 ADD DUP2 SWAP1 SSTORE POP PUSH1 0x0 SWAP2 POP POP JUMPDEST SWAP4 SWAP3 POP POP POP JUMP JUMPDEST PUSH1 0x0 DUP1 DUP3 PUSH20 0xFFFFFFFFFFFFFFFFFFFFFFFFFFFFFFFFFFFFFFFF AND EXTCODESIZE GT SWAP1 POP SWAP2 SWAP1 POP JUMP JUMPDEST PUSH1 0x60 PUSH2 0x1A8F DUP5 DUP5 PUSH1 0x0 DUP6 PUSH2 0x1ABB JUMP JUMPDEST SWAP1 POP SWAP4 SWAP3 POP POP POP JUMP JUMPDEST PUSH1 0x0 DUP1 DUP4 PUSH1 0x1 ADD PUSH1 0x0 DUP5 DUP2 MSTORE PUSH1 0x20 ADD SWAP1 DUP2 MSTORE PUSH1 0x20 ADD PUSH1 0x0 KECCAK256 SLOAD EQ ISZERO SWAP1 POP SWAP3 SWAP2 POP POP JUMP JUMPDEST PUSH1 0x60 DUP3 SELFBALANCE LT ISZERO PUSH2 0x1B00 JUMPI PUSH1 0x40 MLOAD PUSH32 0x8C379A000000000000000000000000000000000000000000000000000000000 DUP2 MSTORE PUSH1 0x4 ADD PUSH2 0x1AF7 SWAP1 PUSH2 0x2D4F JUMP JUMPDEST PUSH1 0x40 MLOAD DUP1 SWAP2 SUB SWAP1 REVERT JUMPDEST PUSH1 0x0 DUP1 DUP7 PUSH20 0xFFFFFFFFFFFFFFFFFFFFFFFFFFFFFFFFFFFFFFFF AND DUP6 DUP8 PUSH1 0x40 MLOAD PUSH2 0x1B29 SWAP2 SWAP1 PUSH2 0x2DAB JUMP JUMPDEST PUSH1 0x0 PUSH1 0x40 MLOAD DUP1 DUP4 SUB DUP2 DUP6 DUP8 GAS CALL SWAP3 POP POP POP RETURNDATASIZE DUP1 PUSH1 0x0 DUP2 EQ PUSH2 0x1B66 JUMPI PUSH1 0x40 MLOAD SWAP2 POP PUSH1 0x1F NOT PUSH1 0x3F RETURNDATASIZE ADD AND DUP3 ADD PUSH1 0x40 MSTORE RETURNDATASIZE DUP3 MSTORE RETURNDATASIZE PUSH1 0x0 PUSH1 0x20 DUP5 ADD RETURNDATACOPY PUSH2 0x1B6B JUMP JUMPDEST PUSH1 0x60 SWAP2 POP JUMPDEST POP SWAP2 POP SWAP2 POP PUSH2 0x1B7C DUP8 DUP4 DUP4 DUP8 PUSH2 0x1B88 JUMP JUMPDEST SWAP3 POP POP POP SWAP5 SWAP4 POP POP POP POP JUMP JUMPDEST PUSH1 0x60 DUP4 ISZERO PUSH2 0x1BEA JUMPI PUSH1 0x0 DUP4 MLOAD SUB PUSH2 0x1BE2 JUMPI PUSH2 0x1BA2 DUP6 PUSH2 0x1A5D JUMP JUMPDEST PUSH2 0x1BE1 JUMPI PUSH1 0x40 MLOAD PUSH32 0x8C379A000000000000000000000000000000000000000000000000000000000 DUP2 MSTORE PUSH1 0x4 ADD PUSH2 0x1BD8 SWAP1 PUSH2 0x2E0E JUMP JUMPDEST PUSH1 0x40 MLOAD DUP1 SWAP2 SUB SWAP1 REVERT JUMPDEST JUMPDEST DUP3 SWAP1 POP PUSH2 0x1BF5 JUMP JUMPDEST PUSH2 0x1BF4 DUP4 DUP4 PUSH2 0x1BFD JUMP JUMPDEST JUMPDEST SWAP5 SWAP4 POP POP POP POP JUMP JUMPDEST PUSH1 0x0 DUP3 MLOAD GT ISZERO PUSH2 0x1C10 JUMPI DUP2 MLOAD DUP1 DUP4 PUSH1 0x20 ADD REVERT JUMPDEST DUP1 PUSH1 0x40 MLOAD PUSH32 0x8C379A000000000000000000000000000000000000000000000000000000000 DUP2 MSTORE PUSH1 0x4 ADD PUSH2 0x1C44 SWAP2 SWAP1 PUSH2 0x1DAC JUMP JUMPDEST PUSH1 0x40 MLOAD DUP1 SWAP2 SUB SWAP1 REVERT JUMPDEST PUSH1 0x0 PUSH1 0x40 MLOAD SWAP1 POP SWAP1 JUMP JUMPDEST PUSH1 0x0 DUP1 REVERT JUMPDEST PUSH1 0x0 DUP1 REVERT JUMPDEST PUSH1 0x0 PUSH32 0xFFFFFFFF00000000000000000000000000000000000000000000000000000000 DUP3 AND SWAP1 POP SWAP2 SWAP1 POP JUMP JUMPDEST PUSH2 0x1C96 DUP2 PUSH2 0x1C61 JUMP JUMPDEST DUP2 EQ PUSH2 0x1CA1 JUMPI PUSH1 0x0 DUP1 REVERT JUMPDEST POP JUMP JUMPDEST PUSH1 0x0 DUP2 CALLDATALOAD SWAP1 POP PUSH2 0x1CB3 DUP2 PUSH2 0x1C8D JUMP JUMPDEST SWAP3 SWAP2 POP POP JUMP JUMPDEST PUSH1 0x0 PUSH1 0x20 DUP3 DUP5 SUB SLT ISZERO PUSH2 0x1CCF JUMPI PUSH2 0x1CCE PUSH2 0x1C57 JUMP JUMPDEST JUMPDEST PUSH1 0x0 PUSH2 0x1CDD DUP5 DUP3 DUP6 ADD PUSH2 0x1CA4 JUMP JUMPDEST SWAP2 POP POP SWAP3 SWAP2 POP POP JUMP JUMPDEST PUSH1 0x0 DUP2 ISZERO ISZERO SWAP1 POP SWAP2 SWAP1 POP JUMP JUMPDEST PUSH2 0x1CFB DUP2 PUSH2 0x1CE6 JUMP JUMPDEST DUP3 MSTORE POP POP JUMP JUMPDEST PUSH1 0x0 PUSH1 0x20 DUP3 ADD SWAP1 POP PUSH2 0x1D16 PUSH1 0x0 DUP4 ADD DUP5 PUSH2 0x1CF2 JUMP JUMPDEST SWAP3 SWAP2 POP POP JUMP JUMPDEST PUSH1 0x0 DUP2 MLOAD SWAP1 POP SWAP2 SWAP1 POP JUMP JUMPDEST PUSH1 0x0 DUP3 DUP3 MSTORE PUSH1 0x20 DUP3 ADD SWAP1 POP SWAP3 SWAP2 POP POP JUMP JUMPDEST PUSH1 0x0 JUMPDEST DUP4 DUP2 LT ISZERO PUSH2 0x1D56 JUMPI DUP1 DUP3 ADD MLOAD DUP2 DUP5 ADD MSTORE PUSH1 0x20 DUP2 ADD SWAP1 POP PUSH2 0x1D3B JUMP JUMPDEST PUSH1 0x0 DUP5 DUP5 ADD MSTORE POP POP POP POP JUMP JUMPDEST PUSH1 0x0 PUSH1 0x1F NOT PUSH1 0x1F DUP4 ADD AND SWAP1 POP SWAP2 SWAP1 POP JUMP JUMPDEST PUSH1 0x0 PUSH2 0x1D7E DUP3 PUSH2 0x1D1C JUMP JUMPDEST PUSH2 0x1D88 DUP2 DUP6 PUSH2 0x1D27 JUMP JUMPDEST SWAP4 POP PUSH2 0x1D98 DUP2 DUP6 PUSH1 0x20 DUP7 ADD PUSH2 0x1D38 JUMP JUMPDEST PUSH2 0x1DA1 DUP2 PUSH2 0x1D62 JUMP JUMPDEST DUP5 ADD SWAP2 POP POP SWAP3 SWAP2 POP POP JUMP JUMPDEST PUSH1 0x0 PUSH1 0x20 DUP3 ADD SWAP1 POP DUP2 DUP2 SUB PUSH1 0x0 DUP4 ADD MSTORE PUSH2 0x1DC6 DUP2 DUP5 PUSH2 0x1D73 JUMP JUMPDEST SWAP1 POP SWAP3 SWAP2 POP POP JUMP JUMPDEST PUSH1 0x0 DUP2 SWAP1 POP SWAP2 SWAP1 POP JUMP JUMPDEST PUSH2 0x1DE1 DUP2 PUSH2 0x1DCE JUMP JUMPDEST DUP2 EQ PUSH2 0x1DEC JUMPI PUSH1 0x0 DUP1 REVERT JUMPDEST POP JUMP JUMPDEST PUSH1 0x0 DUP2 CALLDATALOAD SWAP1 POP PUSH2 0x1DFE DUP2 PUSH2 0x1DD8 JUMP JUMPDEST SWAP3 SWAP2 POP POP JUMP JUMPDEST PUSH1 0x0 PUSH1 0x20 DUP3 DUP5 SUB SLT ISZERO PUSH2 0x1E1A JUMPI PUSH2 0x1E19 PUSH2 0x1C57 JUMP JUMPDEST JUMPDEST PUSH1 0x0 PUSH2 0x1E28 DUP5 DUP3 DUP6 ADD PUSH2 0x1DEF JUMP JUMPDEST SWAP2 POP POP SWAP3 SWAP2 POP POP JUMP JUMPDEST PUSH1 0x0 PUSH20 0xFFFFFFFFFFFFFFFFFFFFFFFFFFFFFFFFFFFFFFFF DUP3 AND SWAP1 POP SWAP2 SWAP1 POP JUMP JUMPDEST PUSH1 0x0 PUSH2 0x1E5C DUP3 PUSH2 0x1E31 JUMP JUMPDEST SWAP1 POP SWAP2 SWAP1 POP JUMP JUMPDEST PUSH2 0x1E6C DUP2 PUSH2 0x1E51 JUMP JUMPDEST DUP3 MSTORE POP POP JUMP JUMPDEST PUSH1 0x0 PUSH1 0x20 DUP3 ADD SWAP1 POP PUSH2 0x1E87 PUSH1 0x0 DUP4 ADD DUP5 PUSH2 0x1E63 JUMP JUMPDEST SWAP3 SWAP2 POP POP JUMP JUMPDEST PUSH2 0x1E96 DUP2 PUSH2 0x1E51 JUMP JUMPDEST DUP2 EQ PUSH2 0x1EA1 JUMPI PUSH1 0x0 DUP1 REVERT JUMPDEST POP JUMP JUMPDEST PUSH1 0x0 DUP2 CALLDATALOAD SWAP1 POP PUSH2 0x1EB3 DUP2 PUSH2 0x1E8D JUMP JUMPDEST SWAP3 SWAP2 POP POP JUMP JUMPDEST PUSH1 0x0 DUP1 PUSH1 0x40 DUP4 DUP6 SUB SLT ISZERO PUSH2 0x1ED0 JUMPI PUSH2 0x1ECF PUSH2 0x1C57 JUMP JUMPDEST JUMPDEST PUSH1 0x0 PUSH2 0x1EDE DUP6 DUP3 DUP7 ADD PUSH2 0x1EA4 JUMP JUMPDEST SWAP3 POP POP PUSH1 0x20 PUSH2 0x1EEF DUP6 DUP3 DUP7 ADD PUSH2 0x1DEF JUMP JUMPDEST SWAP2 POP POP SWAP3 POP SWAP3 SWAP1 POP JUMP JUMPDEST PUSH2 0x1F02 DUP2 PUSH2 0x1DCE JUMP JUMPDEST DUP3 MSTORE POP POP JUMP JUMPDEST PUSH1 0x0 PUSH1 0x20 DUP3 ADD SWAP1 POP PUSH2 0x1F1D PUSH1 0x0 DUP4 ADD DUP5 PUSH2 0x1EF9 JUMP JUMPDEST SWAP3 SWAP2 POP POP JUMP JUMPDEST PUSH1 0x0 DUP1 PUSH1 0x0 PUSH1 0x60 DUP5 DUP7 SUB SLT ISZERO PUSH2 0x1F3C JUMPI PUSH2 0x1F3B PUSH2 0x1C57 JUMP JUMPDEST JUMPDEST PUSH1 0x0 PUSH2 0x1F4A DUP7 DUP3 DUP8 ADD PUSH2 0x1EA4 JUMP JUMPDEST SWAP4 POP POP PUSH1 0x20 PUSH2 0x1F5B DUP7 DUP3 DUP8 ADD PUSH2 0x1EA4 JUMP JUMPDEST SWAP3 POP POP PUSH1 0x40 PUSH2 0x1F6C DUP7 DUP3 DUP8 ADD PUSH2 0x1DEF JUMP JUMPDEST SWAP2 POP POP SWAP3 POP SWAP3 POP SWAP3 JUMP JUMPDEST PUSH1 0x0 PUSH1 0x20 DUP3 DUP5 SUB SLT ISZERO PUSH2 0x1F8C JUMPI PUSH2 0x1F8B PUSH2 0x1C57 JUMP JUMPDEST JUMPDEST PUSH1 0x0 PUSH2 0x1F9A DUP5 DUP3 DUP6 ADD PUSH2 0x1EA4 JUMP JUMPDEST SWAP2 POP POP SWAP3 SWAP2 POP POP JUMP JUMPDEST PUSH2 0x1FAC DUP2 PUSH2 0x1CE6 JUMP JUMPDEST DUP2 EQ PUSH2 0x1FB7 JUMPI PUSH1 0x0 DUP1 REVERT JUMPDEST POP JUMP JUMPDEST PUSH1 0x0 DUP2 CALLDATALOAD SWAP1 POP PUSH2 0x1FC9 DUP2 PUSH2 0x1FA3 JUMP JUMPDEST SWAP3 SWAP2 POP POP JUMP JUMPDEST PUSH1 0x0 DUP1 PUSH1 0x40 DUP4 DUP6 SUB SLT ISZERO PUSH2 0x1FE6 JUMPI PUSH2 0x1FE5 PUSH2 0x1C57 JUMP JUMPDEST JUMPDEST PUSH1 0x0 PUSH2 0x1FF4 DUP6 DUP3 DUP7 ADD PUSH2 0x1EA4 JUMP JUMPDEST SWAP3 POP POP PUSH1 0x20 PUSH2 0x2005 DUP6 DUP3 DUP7 ADD PUSH2 0x1FBA JUMP JUMPDEST SWAP2 POP POP SWAP3 POP SWAP3 SWAP1 POP JUMP JUMPDEST PUSH1 0x0 DUP1 REVERT JUMPDEST PUSH1 0x0 DUP1 REVERT JUMPDEST PUSH32 0x4E487B7100000000000000000000000000000000000000000000000000000000 PUSH1 0x0 MSTORE PUSH1 0x41 PUSH1 0x4 MSTORE PUSH1 0x24 PUSH1 0x0 REVERT JUMPDEST PUSH2 0x2051 DUP3 PUSH2 0x1D62 JUMP JUMPDEST DUP2 ADD DUP2 DUP2 LT PUSH8 0xFFFFFFFFFFFFFFFF DUP3 GT OR ISZERO PUSH2 0x2070 JUMPI PUSH2 0x206F PUSH2 0x2019 JUMP JUMPDEST JUMPDEST DUP1 PUSH1 0x40 MSTORE POP POP POP JUMP JUMPDEST PUSH1 0x0 PUSH2 0x2083 PUSH2 0x1C4D JUMP JUMPDEST SWAP1 POP PUSH2 0x208F DUP3 DUP3 PUSH2 0x2048 JUMP JUMPDEST SWAP2 SWAP1 POP JUMP JUMPDEST PUSH1 0x0 PUSH8 0xFFFFFFFFFFFFFFFF DUP3 GT ISZERO PUSH2 0x20AF JUMPI PUSH2 0x20AE PUSH2 0x2019 JUMP JUMPDEST JUMPDEST PUSH2 0x20B8 DUP3 PUSH2 0x1D62 JUMP JUMPDEST SWAP1 POP PUSH1 0x20 DUP2 ADD SWAP1 POP SWAP2 SWAP1 POP JUMP JUMPDEST DUP3 DUP2 DUP4 CALLDATACOPY PUSH1 0x0 DUP4 DUP4 ADD MSTORE POP POP POP JUMP JUMPDEST PUSH1 0x0 PUSH2 0x20E7 PUSH2 0x20E2 DUP5 PUSH2 0x2094 JUMP JUMPDEST PUSH2 0x2079 JUMP JUMPDEST SWAP1 POP DUP3 DUP2 MSTORE PUSH1 0x20 DUP2 ADD DUP5 DUP5 DUP5 ADD GT ISZERO PUSH2 0x2103 JUMPI PUSH2 0x2102 PUSH2 0x2014 JUMP JUMPDEST JUMPDEST PUSH2 0x210E DUP5 DUP3 DUP6 PUSH2 0x20C5 JUMP JUMPDEST POP SWAP4 SWAP3 POP POP POP JUMP JUMPDEST PUSH1 0x0 DUP3 PUSH1 0x1F DUP4 ADD SLT PUSH2 0x212B JUMPI PUSH2 0x212A PUSH2 0x200F JUMP JUMPDEST JUMPDEST DUP2 CALLDATALOAD PUSH2 0x213B DUP5 DUP3 PUSH1 0x20 DUP7 ADD PUSH2 0x20D4 JUMP JUMPDEST SWAP2 POP POP SWAP3 SWAP2 POP POP JUMP JUMPDEST PUSH1 0x0 DUP1 PUSH1 0x0 DUP1 PUSH1 0x80 DUP6 DUP8 SUB SLT ISZERO PUSH2 0x215E JUMPI PUSH2 0x215D PUSH2 0x1C57 JUMP JUMPDEST JUMPDEST PUSH1 0x0 PUSH2 0x216C DUP8 DUP3 DUP9 ADD PUSH2 0x1EA4 JUMP JUMPDEST SWAP5 POP POP PUSH1 0x20 PUSH2 0x217D DUP8 DUP3 DUP9 ADD PUSH2 0x1EA4 JUMP JUMPDEST SWAP4 POP POP PUSH1 0x40 PUSH2 0x218E DUP8 DUP3 DUP9 ADD PUSH2 0x1DEF JUMP JUMPDEST SWAP3 POP POP PUSH1 0x60 DUP6 ADD CALLDATALOAD PUSH8 0xFFFFFFFFFFFFFFFF DUP2 GT ISZERO PUSH2 0x21AF JUMPI PUSH2 0x21AE PUSH2 0x1C5C JUMP JUMPDEST JUMPDEST PUSH2 0x21BB DUP8 DUP3 DUP9 ADD PUSH2 0x2116 JUMP JUMPDEST SWAP2 POP POP SWAP3 SWAP6 SWAP2 SWAP5 POP SWAP3 POP JUMP JUMPDEST PUSH1 0x0 DUP1 PUSH1 0x40 DUP4 DUP6 SUB SLT ISZERO PUSH2 0x21DE JUMPI PUSH2 0x21DD PUSH2 0x1C57 JUMP JUMPDEST JUMPDEST PUSH1 0x0 PUSH2 0x21EC DUP6 DUP3 DUP7 ADD PUSH2 0x1EA4 JUMP JUMPDEST SWAP3 POP POP PUSH1 0x20 PUSH2 0x21FD DUP6 DUP3 DUP7 ADD PUSH2 0x1EA4 JUMP JUMPDEST SWAP2 POP POP SWAP3 POP SWAP3 SWAP1 POP JUMP JUMPDEST PUSH32 0x4E487B7100000000000000000000000000000000000000000000000000000000 PUSH1 0x0 MSTORE PUSH1 0x22 PUSH1 0x4 MSTORE PUSH1 0x24 PUSH1 0x0 REVERT JUMPDEST PUSH1 0x0 PUSH1 0x2 DUP3 DIV SWAP1 POP PUSH1 0x1 DUP3 AND DUP1 PUSH2 0x224E JUMPI PUSH1 0x7F DUP3 AND SWAP2 POP JUMPDEST PUSH1 0x20 DUP3 LT DUP2 SUB PUSH2 0x2261 JUMPI PUSH2 0x2260 PUSH2 0x2207 JUMP JUMPDEST JUMPDEST POP SWAP2 SWAP1 POP JUMP JUMPDEST PUSH32 0x4552433732313A20617070726F76656420717565727920666F72206E6F6E6578 PUSH1 0x0 DUP3 ADD MSTORE PUSH32 0x697374656E7420746F6B656E0000000000000000000000000000000000000000 PUSH1 0x20 DUP3 ADD MSTORE POP JUMP JUMPDEST PUSH1 0x0 PUSH2 0x22C3 PUSH1 0x2C DUP4 PUSH2 0x1D27 JUMP JUMPDEST SWAP2 POP PUSH2 0x22CE DUP3 PUSH2 0x2267 JUMP JUMPDEST PUSH1 0x40 DUP3 ADD SWAP1 POP SWAP2 SWAP1 POP JUMP JUMPDEST PUSH1 0x0 PUSH1 0x20 DUP3 ADD SWAP1 POP DUP2 DUP2 SUB PUSH1 0x0 DUP4 ADD MSTORE PUSH2 0x22F2 DUP2 PUSH2 0x22B6 JUMP JUMPDEST SWAP1 POP SWAP2 SWAP1 POP JUMP JUMPDEST PUSH32 0x4552433732313A20617070726F76616C20746F2063757272656E74206F776E65 PUSH1 0x0 DUP3 ADD MSTORE PUSH32 0x7200000000000000000000000000000000000000000000000000000000000000 PUSH1 0x20 DUP3 ADD MSTORE POP JUMP JUMPDEST PUSH1 0x0 PUSH2 0x2355 PUSH1 0x21 DUP4 PUSH2 0x1D27 JUMP JUMPDEST SWAP2 POP PUSH2 0x2360 DUP3 PUSH2 0x22F9 JUMP JUMPDEST PUSH1 0x40 DUP3 ADD SWAP1 POP SWAP2 SWAP1 POP JUMP JUMPDEST PUSH1 0x0 PUSH1 0x20 DUP3 ADD SWAP1 POP DUP2 DUP2 SUB PUSH1 0x0 DUP4 ADD MSTORE PUSH2 0x2384 DUP2 PUSH2 0x2348 JUMP JUMPDEST SWAP1 POP SWAP2 SWAP1 POP JUMP JUMPDEST PUSH32 0x4552433732313A20617070726F76652063616C6C6572206973206E6F74206F77 PUSH1 0x0 DUP3 ADD MSTORE PUSH32 0x6E6572206E6F7220617070726F76656420666F7220616C6C0000000000000000 PUSH1 0x20 DUP3 ADD MSTORE POP JUMP JUMPDEST PUSH1 0x0 PUSH2 0x23E7 PUSH1 0x38 DUP4 PUSH2 0x1D27 JUMP JUMPDEST SWAP2 POP PUSH2 0x23F2 DUP3 PUSH2 0x238B JUMP JUMPDEST PUSH1 0x40 DUP3 ADD SWAP1 POP SWAP2 SWAP1 POP JUMP JUMPDEST PUSH1 0x0 PUSH1 0x20 DUP3 ADD SWAP1 POP DUP2 DUP2 SUB PUSH1 0x0 DUP4 ADD MSTORE PUSH2 0x2416 DUP2 PUSH2 0x23DA JUMP JUMPDEST SWAP1 POP SWAP2 SWAP1 POP JUMP JUMPDEST PUSH32 0x4552433732313A207472616E736665722063616C6C6572206973206E6F74206F PUSH1 0x0 DUP3 ADD MSTORE PUSH32 0x776E6572206E6F7220617070726F766564000000000000000000000000000000 PUSH1 0x20 DUP3 ADD MSTORE POP JUMP JUMPDEST PUSH1 0x0 PUSH2 0x2479 PUSH1 0x31 DUP4 PUSH2 0x1D27 JUMP JUMPDEST SWAP2 POP PUSH2 0x2484 DUP3 PUSH2 0x241D JUMP JUMPDEST PUSH1 0x40 DUP3 ADD SWAP1 POP SWAP2 SWAP1 POP JUMP JUMPDEST PUSH1 0x0 PUSH1 0x20 DUP3 ADD SWAP1 POP DUP2 DUP2 SUB PUSH1 0x0 DUP4 ADD MSTORE PUSH2 0x24A8 DUP2 PUSH2 0x246C JUMP JUMPDEST SWAP1 POP SWAP2 SWAP1 POP JUMP JUMPDEST PUSH32 0x4552433732313A2062616C616E636520717565727920666F7220746865207A65 PUSH1 0x0 DUP3 ADD MSTORE PUSH32 0x726F206164647265737300000000000000000000000000000000000000000000 PUSH1 0x20 DUP3 ADD MSTORE POP JUMP JUMPDEST PUSH1 0x0 PUSH2 0x250B PUSH1 0x2A DUP4 PUSH2 0x1D27 JUMP JUMPDEST SWAP2 POP PUSH2 0x2516 DUP3 PUSH2 0x24AF JUMP JUMPDEST PUSH1 0x40 DUP3 ADD SWAP1 POP SWAP2 SWAP1 POP JUMP JUMPDEST PUSH1 0x0 PUSH1 0x20 DUP3 ADD SWAP1 POP DUP2 DUP2 SUB PUSH1 0x0 DUP4 ADD MSTORE PUSH2 0x253A DUP2 PUSH2 0x24FE JUMP JUMPDEST SWAP1 POP SWAP2 SWAP1 POP JUMP JUMPDEST PUSH32 0x4552433732313A20617070726F766520746F2063616C6C657200000000000000 PUSH1 0x0 DUP3 ADD MSTORE POP JUMP JUMPDEST PUSH1 0x0 PUSH2 0x2577 PUSH1 0x19 DUP4 PUSH2 0x1D27 JUMP JUMPDEST SWAP2 POP PUSH2 0x2582 DUP3 PUSH2 0x2541 JUMP JUMPDEST PUSH1 0x20 DUP3 ADD SWAP1 POP SWAP2 SWAP1 POP JUMP JUMPDEST PUSH1 0x0 PUSH1 0x20 DUP3 ADD SWAP1 POP DUP2 DUP2 SUB PUSH1 0x0 DUP4 ADD MSTORE PUSH2 0x25A6 DUP2 PUSH2 0x256A JUMP JUMPDEST SWAP1 POP SWAP2 SWAP1 POP JUMP JUMPDEST PUSH32 0x4552433732314D657461646174613A2055524920717565727920666F72206E6F PUSH1 0x0 DUP3 ADD MSTORE PUSH32 0x6E6578697374656E7420746F6B656E0000000000000000000000000000000000 PUSH1 0x20 DUP3 ADD MSTORE POP JUMP JUMPDEST PUSH1 0x0 PUSH2 0x2609 PUSH1 0x2F DUP4 PUSH2 0x1D27 JUMP JUMPDEST SWAP2 POP PUSH2 0x2614 DUP3 PUSH2 0x25AD JUMP JUMPDEST PUSH1 0x40 DUP3 ADD SWAP1 POP SWAP2 SWAP1 POP JUMP JUMPDEST PUSH1 0x0 PUSH1 0x20 DUP3 ADD SWAP1 POP DUP2 DUP2 SUB PUSH1 0x0 DUP4 ADD MSTORE PUSH2 0x2638 DUP2 PUSH2 0x25FC JUMP JUMPDEST SWAP1 POP SWAP2 SWAP1 POP JUMP JUMPDEST PUSH1 0x0 DUP2 SWAP1 POP SWAP3 SWAP2 POP POP JUMP JUMPDEST PUSH1 0x0 PUSH2 0x2655 DUP3 PUSH2 0x1D1C JUMP JUMPDEST PUSH2 0x265F DUP2 DUP6 PUSH2 0x263F JUMP JUMPDEST SWAP4 POP PUSH2 0x266F DUP2 DUP6 PUSH1 0x20 DUP7 ADD PUSH2 0x1D38 JUMP JUMPDEST DUP1 DUP5 ADD SWAP2 POP POP SWAP3 SWAP2 POP POP JUMP JUMPDEST PUSH1 0x0 PUSH2 0x2687 DUP3 DUP6 PUSH2 0x264A JUMP JUMPDEST SWAP2 POP PUSH2 0x2693 DUP3 DUP5 PUSH2 0x264A JUMP JUMPDEST SWAP2 POP DUP2 SWAP1 POP SWAP4 SWAP3 POP POP POP JUMP JUMPDEST PUSH32 0x4552433732313A206F70657261746F7220717565727920666F72206E6F6E6578 PUSH1 0x0 DUP3 ADD MSTORE PUSH32 0x697374656E7420746F6B656E0000000000000000000000000000000000000000 PUSH1 0x20 DUP3 ADD MSTORE POP JUMP JUMPDEST PUSH1 0x0 PUSH2 0x26FB PUSH1 0x2C DUP4 PUSH2 0x1D27 JUMP JUMPDEST SWAP2 POP PUSH2 0x2706 DUP3 PUSH2 0x269F JUMP JUMPDEST PUSH1 0x40 DUP3 ADD SWAP1 POP SWAP2 SWAP1 POP JUMP JUMPDEST PUSH1 0x0 PUSH1 0x20 DUP3 ADD SWAP1 POP DUP2 DUP2 SUB PUSH1 0x0 DUP4 ADD MSTORE PUSH2 0x272A DUP2 PUSH2 0x26EE JUMP JUMPDEST SWAP1 POP SWAP2 SWAP1 POP JUMP JUMPDEST PUSH32 0x4552433732313A207472616E73666572206F6620746F6B656E20746861742069 PUSH1 0x0 DUP3 ADD MSTORE PUSH32 0x73206E6F74206F776E0000000000000000000000000000000000000000000000 PUSH1 0x20 DUP3 ADD MSTORE POP JUMP JUMPDEST PUSH1 0x0 PUSH2 0x278D PUSH1 0x29 DUP4 PUSH2 0x1D27 JUMP JUMPDEST SWAP2 POP PUSH2 0x2798 DUP3 PUSH2 0x2731 JUMP JUMPDEST PUSH1 0x40 DUP3 ADD SWAP1 POP SWAP2 SWAP1 POP JUMP JUMPDEST PUSH1 0x0 PUSH1 0x20 DUP3 ADD SWAP1 POP DUP2 DUP2 SUB PUSH1 0x0 DUP4 ADD MSTORE PUSH2 0x27BC DUP2 PUSH2 0x2780 JUMP JUMPDEST SWAP1 POP SWAP2 SWAP1 POP JUMP JUMPDEST PUSH32 0x4552433732313A207472616E7366657220746F20746865207A65726F20616464 PUSH1 0x0 DUP3 ADD MSTORE PUSH32 0x7265737300000000000000000000000000000000000000000000000000000000 PUSH1 0x20 DUP3 ADD MSTORE POP JUMP JUMPDEST PUSH1 0x0 PUSH2 0x281F PUSH1 0x24 DUP4 PUSH2 0x1D27 JUMP JUMPDEST SWAP2 POP PUSH2 0x282A DUP3 PUSH2 0x27C3 JUMP JUMPDEST PUSH1 0x40 DUP3 ADD SWAP1 POP SWAP2 SWAP1 POP JUMP JUMPDEST PUSH1 0x0 PUSH1 0x20 DUP3 ADD SWAP1 POP DUP2 DUP2 SUB PUSH1 0x0 DUP4 ADD MSTORE PUSH2 0x284E DUP2 PUSH2 0x2812 JUMP JUMPDEST SWAP1 POP SWAP2 SWAP1 POP JUMP JUMPDEST PUSH32 0x4552433732313A207472616E7366657220746F206E6F6E204552433732315265 PUSH1 0x0 DUP3 ADD MSTORE PUSH32 0x63656976657220696D706C656D656E7465720000000000000000000000000000 PUSH1 0x20 DUP3 ADD MSTORE POP JUMP JUMPDEST PUSH1 0x0 PUSH2 0x28B1 PUSH1 0x32 DUP4 PUSH2 0x1D27 JUMP JUMPDEST SWAP2 POP PUSH2 0x28BC DUP3 PUSH2 0x2855 JUMP JUMPDEST PUSH1 0x40 DUP3 ADD SWAP1 POP SWAP2 SWAP1 POP JUMP JUMPDEST PUSH1 0x0 PUSH1 0x20 DUP3 ADD SWAP1 POP DUP2 DUP2 SUB PUSH1 0x0 DUP4 ADD MSTORE PUSH2 0x28E0 DUP2 PUSH2 0x28A4 JUMP JUMPDEST SWAP1 POP SWAP2 SWAP1 POP JUMP JUMPDEST PUSH32 0x4E487B7100000000000000000000000000000000000000000000000000000000 PUSH1 0x0 MSTORE PUSH1 0x11 PUSH1 0x4 MSTORE PUSH1 0x24 PUSH1 0x0 REVERT JUMPDEST PUSH1 0x0 PUSH2 0x2921 DUP3 PUSH2 0x1DCE JUMP JUMPDEST SWAP2 POP PUSH32 0xFFFFFFFFFFFFFFFFFFFFFFFFFFFFFFFFFFFFFFFFFFFFFFFFFFFFFFFFFFFFFFFF DUP3 SUB PUSH2 0x2953 JUMPI PUSH2 0x2952 PUSH2 0x28E7 JUMP JUMPDEST JUMPDEST PUSH1 0x1 DUP3 ADD SWAP1 POP SWAP2 SWAP1 POP JUMP JUMPDEST PUSH32 0x4E487B7100000000000000000000000000000000000000000000000000000000 PUSH1 0x0 MSTORE PUSH1 0x12 PUSH1 0x4 MSTORE PUSH1 0x24 PUSH1 0x0 REVERT JUMPDEST PUSH1 0x0 PUSH2 0x2998 DUP3 PUSH2 0x1DCE JUMP JUMPDEST SWAP2 POP PUSH2 0x29A3 DUP4 PUSH2 0x1DCE JUMP JUMPDEST SWAP3 POP DUP3 PUSH2 0x29B3 JUMPI PUSH2 0x29B2 PUSH2 0x295E JUMP JUMPDEST JUMPDEST DUP3 DUP3 DIV SWAP1 POP SWAP3 SWAP2 POP POP JUMP JUMPDEST PUSH1 0x0 PUSH2 0x29C9 DUP3 PUSH2 0x1DCE JUMP JUMPDEST SWAP2 POP PUSH2 0x29D4 DUP4 PUSH2 0x1DCE JUMP JUMPDEST SWAP3 POP DUP3 DUP3 SUB SWAP1 POP DUP2 DUP2 GT ISZERO PUSH2 0x29EC JUMPI PUSH2 0x29EB PUSH2 0x28E7 JUMP JUMPDEST JUMPDEST SWAP3 SWAP2 POP POP JUMP JUMPDEST PUSH1 0x0 PUSH2 0x29FD DUP3 PUSH2 0x1DCE JUMP JUMPDEST SWAP2 POP PUSH2 0x2A08 DUP4 PUSH2 0x1DCE JUMP JUMPDEST SWAP3 POP DUP3 PUSH2 0x2A18 JUMPI PUSH2 0x2A17 PUSH2 0x295E JUMP JUMPDEST JUMPDEST DUP3 DUP3 MOD SWAP1 POP SWAP3 SWAP2 POP POP JUMP JUMPDEST PUSH1 0x0 PUSH2 0x2A2E DUP3 PUSH2 0x1DCE JUMP JUMPDEST SWAP2 POP PUSH2 0x2A39 DUP4 PUSH2 0x1DCE JUMP JUMPDEST SWAP3 POP DUP3 DUP3 ADD SWAP1 POP DUP1 DUP3 GT ISZERO PUSH2 0x2A51 JUMPI PUSH2 0x2A50 PUSH2 0x28E7 JUMP JUMPDEST JUMPDEST SWAP3 SWAP2 POP POP JUMP JUMPDEST PUSH32 0x4E487B7100000000000000000000000000000000000000000000000000000000 PUSH1 0x0 MSTORE PUSH1 0x32 PUSH1 0x4 MSTORE PUSH1 0x24 PUSH1 0x0 REVERT JUMPDEST PUSH32 0x456E756D657261626C655365743A20696E646578206F7574206F6620626F756E PUSH1 0x0 DUP3 ADD MSTORE PUSH32 0x6473000000000000000000000000000000000000000000000000000000000000 PUSH1 0x20 DUP3 ADD MSTORE POP JUMP JUMPDEST PUSH1 0x0 PUSH2 0x2AE2 PUSH1 0x22 DUP4 PUSH2 0x1D27 JUMP JUMPDEST SWAP2 POP PUSH2 0x2AED DUP3 PUSH2 0x2A86 JUMP JUMPDEST PUSH1 0x40 DUP3 ADD SWAP1 POP SWAP2 SWAP1 POP JUMP JUMPDEST PUSH1 0x0 PUSH1 0x20 DUP3 ADD SWAP1 POP DUP2 DUP2 SUB PUSH1 0x0 DUP4 ADD MSTORE PUSH2 0x2B11 DUP2 PUSH2 0x2AD5 JUMP JUMPDEST SWAP1 POP SWAP2 SWAP1 POP JUMP JUMPDEST PUSH32 0x456E756D657261626C654D61703A20696E646578206F7574206F6620626F756E PUSH1 0x0 DUP3 ADD MSTORE PUSH32 0x6473000000000000000000000000000000000000000000000000000000000000 PUSH1 0x20 DUP3 ADD MSTORE POP JUMP JUMPDEST PUSH1 0x0 PUSH2 0x2B74 PUSH1 0x22 DUP4 PUSH2 0x1D27 JUMP JUMPDEST SWAP2 POP PUSH2 0x2B7F DUP3 PUSH2 0x2B18 JUMP JUMPDEST PUSH1 0x40 DUP3 ADD SWAP1 POP SWAP2 SWAP1 POP JUMP JUMPDEST PUSH1 0x0 PUSH1 0x20 DUP3 ADD SWAP1 POP DUP2 DUP2 SUB PUSH1 0x0 DUP4 ADD MSTORE PUSH2 0x2BA3 DUP2 PUSH2 0x2B67 JUMP JUMPDEST SWAP1 POP SWAP2 SWAP1 POP JUMP JUMPDEST PUSH1 0x0 PUSH2 0x2BB5 DUP3 PUSH2 0x1E31 JUMP JUMPDEST SWAP1 POP SWAP2 SWAP1 POP JUMP JUMPDEST PUSH2 0x2BC5 DUP2 PUSH2 0x2BAA JUMP JUMPDEST DUP3 MSTORE POP POP JUMP JUMPDEST PUSH1 0x0 DUP2 MLOAD SWAP1 POP SWAP2 SWAP1 POP JUMP JUMPDEST PUSH1 0x0 DUP3 DUP3 MSTORE PUSH1 0x20 DUP3 ADD SWAP1 POP SWAP3 SWAP2 POP POP JUMP JUMPDEST PUSH1 0x0 PUSH2 0x2BF2 DUP3 PUSH2 0x2BCB JUMP JUMPDEST PUSH2 0x2BFC DUP2 DUP6 PUSH2 0x2BD6 JUMP JUMPDEST SWAP4 POP PUSH2 0x2C0C DUP2 DUP6 PUSH1 0x20 DUP7 ADD PUSH2 0x1D38 JUMP JUMPDEST PUSH2 0x2C15 DUP2 PUSH2 0x1D62 JUMP JUMPDEST DUP5 ADD SWAP2 POP POP SWAP3 SWAP2 POP POP JUMP JUMPDEST PUSH1 0x0 PUSH1 0x80 DUP3 ADD SWAP1 POP PUSH2 0x2C35 PUSH1 0x0 DUP4 ADD DUP8 PUSH2 0x2BBC JUMP JUMPDEST PUSH2 0x2C42 PUSH1 0x20 DUP4 ADD DUP7 PUSH2 0x1E63 JUMP JUMPDEST PUSH2 0x2C4F PUSH1 0x40 DUP4 ADD DUP6 PUSH2 0x1EF9 JUMP JUMPDEST DUP2 DUP2 SUB PUSH1 0x60 DUP4 ADD MSTORE PUSH2 0x2C61 DUP2 DUP5 PUSH2 0x2BE7 JUMP JUMPDEST SWAP1 POP SWAP6 SWAP5 POP POP POP POP POP JUMP JUMPDEST PUSH1 0x0 DUP2 MLOAD SWAP1 POP PUSH2 0x2C7B DUP2 PUSH2 0x1C8D JUMP JUMPDEST SWAP3 SWAP2 POP POP JUMP JUMPDEST PUSH1 0x0 PUSH1 0x20 DUP3 DUP5 SUB SLT ISZERO PUSH2 0x2C97 JUMPI PUSH2 0x2C96 PUSH2 0x1C57 JUMP JUMPDEST JUMPDEST PUSH1 0x0 PUSH2 0x2CA5 DUP5 DUP3 DUP6 ADD PUSH2 0x2C6C JUMP JUMPDEST SWAP2 POP POP SWAP3 SWAP2 POP POP JUMP JUMPDEST PUSH32 0x4E487B7100000000000000000000000000000000000000000000000000000000 PUSH1 0x0 MSTORE PUSH1 0x31 PUSH1 0x4 MSTORE PUSH1 0x24 PUSH1 0x0 REVERT JUMPDEST PUSH32 0x416464726573733A20696E73756666696369656E742062616C616E636520666F PUSH1 0x0 DUP3 ADD MSTORE PUSH32 0x722063616C6C0000000000000000000000000000000000000000000000000000 PUSH1 0x20 DUP3 ADD MSTORE POP JUMP JUMPDEST PUSH1 0x0 PUSH2 0x2D39 PUSH1 0x26 DUP4 PUSH2 0x1D27 JUMP JUMPDEST SWAP2 POP PUSH2 0x2D44 DUP3 PUSH2 0x2CDD JUMP JUMPDEST PUSH1 0x40 DUP3 ADD SWAP1 POP SWAP2 SWAP1 POP JUMP JUMPDEST PUSH1 0x0 PUSH1 0x20 DUP3 ADD SWAP1 POP DUP2 DUP2 SUB PUSH1 0x0 DUP4 ADD MSTORE PUSH2 0x2D68 DUP2 PUSH2 0x2D2C JUMP JUMPDEST SWAP1 POP SWAP2 SWAP1 POP JUMP JUMPDEST PUSH1 0x0 DUP2 SWAP1 POP SWAP3 SWAP2 POP POP JUMP JUMPDEST PUSH1 0x0 PUSH2 0x2D85 DUP3 PUSH2 0x2BCB JUMP JUMPDEST PUSH2 0x2D8F DUP2 DUP6 PUSH2 0x2D6F JUMP JUMPDEST SWAP4 POP PUSH2 0x2D9F DUP2 DUP6 PUSH1 0x20 DUP7 ADD PUSH2 0x1D38 JUMP JUMPDEST DUP1 DUP5 ADD SWAP2 POP POP SWAP3 SWAP2 POP POP JUMP JUMPDEST PUSH1 0x0 PUSH2 0x2DB7 DUP3 DUP5 PUSH2 0x2D7A JUMP JUMPDEST SWAP2 POP DUP2 SWAP1 POP SWAP3 SWAP2 POP POP JUMP JUMPDEST PUSH32 0x416464726573733A2063616C6C20746F206E6F6E2D636F6E7472616374000000 PUSH1 0x0 DUP3 ADD MSTORE POP JUMP JUMPDEST PUSH1 0x0 PUSH2 0x2DF8 PUSH1 0x1D DUP4 PUSH2 0x1D27 JUMP JUMPDEST SWAP2 POP PUSH2 0x2E03 DUP3 PUSH2 0x2DC2 JUMP JUMPDEST PUSH1 0x20 DUP3 ADD SWAP1 POP SWAP2 SWAP1 POP JUMP JUMPDEST PUSH1 0x0 PUSH1 0x20 DUP3 ADD SWAP1 POP DUP2 DUP2 SUB PUSH1 0x0 DUP4 ADD MSTORE PUSH2 0x2E27 DUP2 PUSH2 0x2DEB JUMP JUMPDEST SWAP1 POP SWAP2 SWAP1 POP JUMP INVALID GASLIMIT MSTORE NUMBER CALLDATACOPY ORIGIN BALANCE GASPRICE KECCAK256 PUSH21 0x72616E7366657220746F206E6F6E20455243373231 MSTORE PUSH6 0x636569766572 KECCAK256 PUSH10 0x6D706C656D656E746572 GASLIMIT MSTORE NUMBER CALLDATACOPY ORIGIN BALANCE GASPRICE KECCAK256 PUSH16 0x776E657220717565727920666F72206E PUSH16 0x6E6578697374656E7420746F6B656EA2 PUSH5 0x6970667358 0x22 SLT KECCAK256 ADD PUSH25 0x5328669099DDEB97528C86000BBBD2A9BD4F34F35018CBEC39 0xAA EXTCODESIZE 0xE5 0xDA DUP10 PUSH5 0x736F6C6343 STOP ADDMOD GT STOP CALLER "
				},
				"gasEstimates": {
					"creation": {
						"codeDepositCost": "2393400",
						"executionCost": "infinite",
						"totalCost": "infinite"
					},
					"external": {
						"approve(address,uint256)": "infinite",
						"balanceOf(address)": "3049",
						"baseURI()": "infinite",
						"getApproved(uint256)": "infinite",
						"getCreator(uint256)": "2953",
						"isApprovedForAll(address,address)": "infinite",
						"name()": "infinite",
						"ownerOf(uint256)": "infinite",
						"royaltyFee(uint256)": "infinite",
						"safeTransferFrom(address,address,uint256)": "infinite",
						"safeTransferFrom(address,address,uint256,bytes)": "infinite",
						"setApprovalForAll(address,bool)": "infinite",
						"supportsInterface(bytes4)": "2870",
						"symbol()": "infinite",
						"tokenByIndex(uint256)": "infinite",
						"tokenOfOwnerByIndex(address,uint256)": "infinite",
						"tokenURI(uint256)": "infinite",
						"totalSupply()": "2566",
						"transferFrom(address,address,uint256)": "infinite"
					},
					"internal": {
						"_approve(address,uint256)": "infinite",
						"_beforeTokenTransfer(address,address,uint256)": "15",
						"_burn(uint256)": "infinite",
						"_checkOnERC721Received(address,address,uint256,bytes memory)": "infinite",
						"_exists(uint256)": "infinite",
						"_isApprovedOrOwner(address,uint256)": "infinite",
						"_mint(address,uint256,uint256)": "infinite",
						"_safeMint(address,uint256,uint256)": "infinite",
						"_safeMint(address,uint256,uint256,bytes memory)": "infinite",
						"_safeTransfer(address,address,uint256,bytes memory)": "infinite",
						"_setBaseURI(string memory)": "infinite",
						"_setTokenURI(uint256,string memory)": "infinite",
						"_transfer(address,address,uint256)": "infinite"
					}
				},
				"methodIdentifiers": {
					"approve(address,uint256)": "095ea7b3",
					"balanceOf(address)": "70a08231",
					"baseURI()": "6c0360eb",
					"getApproved(uint256)": "081812fc",
					"getCreator(uint256)": "d48e638a",
					"isApprovedForAll(address,address)": "e985e9c5",
					"name()": "06fdde03",
					"ownerOf(uint256)": "6352211e",
					"royaltyFee(uint256)": "c57dc235",
					"safeTransferFrom(address,address,uint256)": "42842e0e",
					"safeTransferFrom(address,address,uint256,bytes)": "b88d4fde",
					"setApprovalForAll(address,bool)": "a22cb465",
					"supportsInterface(bytes4)": "01ffc9a7",
					"symbol()": "95d89b41",
					"tokenByIndex(uint256)": "4f6ccce7",
					"tokenOfOwnerByIndex(address,uint256)": "2f745c59",
					"tokenURI(uint256)": "c87b56dd",
					"totalSupply()": "18160ddd",
					"transferFrom(address,address,uint256)": "23b872dd"
				}
			},
			"storageLayout": {
				"storage": [
					{
						"astId": 1351,
						"contract": "contracts/ERC721.sol:ERC721",
						"label": "_supportedInterfaces",
						"offset": 0,
						"slot": "0",
						"type": "t_mapping(t_bytes4,t_bool)"
					},
					{
						"astId": 43,
						"contract": "contracts/ERC721.sol:ERC721",
						"label": "_holderTokens",
						"offset": 0,
						"slot": "1",
						"type": "t_mapping(t_address,t_struct(UintSet)2083_storage)"
					},
					{
						"astId": 46,
						"contract": "contracts/ERC721.sol:ERC721",
						"label": "_tokenOwners",
						"offset": 0,
						"slot": "2",
						"type": "t_struct(UintToAddressMap)1658_storage"
					},
					{
						"astId": 50,
						"contract": "contracts/ERC721.sol:ERC721",
						"label": "_tokenApprovals",
						"offset": 0,
						"slot": "4",
						"type": "t_mapping(t_uint256,t_address)"
					},
					{
						"astId": 56,
						"contract": "contracts/ERC721.sol:ERC721",
						"label": "_operatorApprovals",
						"offset": 0,
						"slot": "5",
						"type": "t_mapping(t_address,t_mapping(t_address,t_bool))"
					},
					{
						"astId": 58,
						"contract": "contracts/ERC721.sol:ERC721",
						"label": "_name",
						"offset": 0,
						"slot": "6",
						"type": "t_string_storage"
					},
					{
						"astId": 60,
						"contract": "contracts/ERC721.sol:ERC721",
						"label": "_symbol",
						"offset": 0,
						"slot": "7",
						"type": "t_string_storage"
					},
					{
						"astId": 64,
						"contract": "contracts/ERC721.sol:ERC721",
						"label": "_tokenURIs",
						"offset": 0,
						"slot": "8",
						"type": "t_mapping(t_uint256,t_string_storage)"
					},
					{
						"astId": 68,
						"contract": "contracts/ERC721.sol:ERC721",
						"label": "_royaltyFee",
						"offset": 0,
						"slot": "9",
						"type": "t_mapping(t_uint256,t_uint256)"
					},
					{
						"astId": 72,
						"contract": "contracts/ERC721.sol:ERC721",
						"label": "_creator",
						"offset": 0,
						"slot": "10",
						"type": "t_mapping(t_uint256,t_address)"
					},
					{
						"astId": 75,
						"contract": "contracts/ERC721.sol:ERC721",
						"label": "_baseURI",
						"offset": 0,
						"slot": "11",
						"type": "t_string_storage"
					}
				],
				"types": {
					"t_address": {
						"encoding": "inplace",
						"label": "address",
						"numberOfBytes": "20"
					},
					"t_array(t_bytes32)dyn_storage": {
						"base": "t_bytes32",
						"encoding": "dynamic_array",
						"label": "bytes32[]",
						"numberOfBytes": "32"
					},
					"t_array(t_struct(MapEntry)1399_storage)dyn_storage": {
						"base": "t_struct(MapEntry)1399_storage",
						"encoding": "dynamic_array",
						"label": "struct EnumerableMap.MapEntry[]",
						"numberOfBytes": "32"
					},
					"t_bool": {
						"encoding": "inplace",
						"label": "bool",
						"numberOfBytes": "1"
					},
					"t_bytes32": {
						"encoding": "inplace",
						"label": "bytes32",
						"numberOfBytes": "32"
					},
					"t_bytes4": {
						"encoding": "inplace",
						"label": "bytes4",
						"numberOfBytes": "4"
					},
					"t_mapping(t_address,t_bool)": {
						"encoding": "mapping",
						"key": "t_address",
						"label": "mapping(address => bool)",
						"numberOfBytes": "32",
						"value": "t_bool"
					},
					"t_mapping(t_address,t_mapping(t_address,t_bool))": {
						"encoding": "mapping",
						"key": "t_address",
						"label": "mapping(address => mapping(address => bool))",
						"numberOfBytes": "32",
						"value": "t_mapping(t_address,t_bool)"
					},
					"t_mapping(t_address,t_struct(UintSet)2083_storage)": {
						"encoding": "mapping",
						"key": "t_address",
						"label": "mapping(address => struct EnumerableSet.UintSet)",
						"numberOfBytes": "32",
						"value": "t_struct(UintSet)2083_storage"
					},
					"t_mapping(t_bytes32,t_uint256)": {
						"encoding": "mapping",
						"key": "t_bytes32",
						"label": "mapping(bytes32 => uint256)",
						"numberOfBytes": "32",
						"value": "t_uint256"
					},
					"t_mapping(t_bytes4,t_bool)": {
						"encoding": "mapping",
						"key": "t_bytes4",
						"label": "mapping(bytes4 => bool)",
						"numberOfBytes": "32",
						"value": "t_bool"
					},
					"t_mapping(t_uint256,t_address)": {
						"encoding": "mapping",
						"key": "t_uint256",
						"label": "mapping(uint256 => address)",
						"numberOfBytes": "32",
						"value": "t_address"
					},
					"t_mapping(t_uint256,t_string_storage)": {
						"encoding": "mapping",
						"key": "t_uint256",
						"label": "mapping(uint256 => string)",
						"numberOfBytes": "32",
						"value": "t_string_storage"
					},
					"t_mapping(t_uint256,t_uint256)": {
						"encoding": "mapping",
						"key": "t_uint256",
						"label": "mapping(uint256 => uint256)",
						"numberOfBytes": "32",
						"value": "t_uint256"
					},
					"t_string_storage": {
						"encoding": "bytes",
						"label": "string",
						"numberOfBytes": "32"
					},
					"t_struct(Map)1408_storage": {
						"encoding": "inplace",
						"label": "struct EnumerableMap.Map",
						"members": [
							{
								"astId": 1403,
								"contract": "contracts/ERC721.sol:ERC721",
								"label": "_entries",
								"offset": 0,
								"slot": "0",
								"type": "t_array(t_struct(MapEntry)1399_storage)dyn_storage"
							},
							{
								"astId": 1407,
								"contract": "contracts/ERC721.sol:ERC721",
								"label": "_indexes",
								"offset": 0,
								"slot": "1",
								"type": "t_mapping(t_bytes32,t_uint256)"
							}
						],
						"numberOfBytes": "64"
					},
					"t_struct(MapEntry)1399_storage": {
						"encoding": "inplace",
						"label": "struct EnumerableMap.MapEntry",
						"members": [
							{
								"astId": 1396,
								"contract": "contracts/ERC721.sol:ERC721",
								"label": "_key",
								"offset": 0,
								"slot": "0",
								"type": "t_bytes32"
							},
							{
								"astId": 1398,
								"contract": "contracts/ERC721.sol:ERC721",
								"label": "_value",
								"offset": 0,
								"slot": "1",
								"type": "t_bytes32"
							}
						],
						"numberOfBytes": "64"
					},
					"t_struct(Set)1826_storage": {
						"encoding": "inplace",
						"label": "struct EnumerableSet.Set",
						"members": [
							{
								"astId": 1821,
								"contract": "contracts/ERC721.sol:ERC721",
								"label": "_values",
								"offset": 0,
								"slot": "0",
								"type": "t_array(t_bytes32)dyn_storage"
							},
							{
								"astId": 1825,
								"contract": "contracts/ERC721.sol:ERC721",
								"label": "_indexes",
								"offset": 0,
								"slot": "1",
								"type": "t_mapping(t_bytes32,t_uint256)"
							}
						],
						"numberOfBytes": "64"
					},
					"t_struct(UintSet)2083_storage": {
						"encoding": "inplace",
						"label": "struct EnumerableSet.UintSet",
						"members": [
							{
								"astId": 2082,
								"contract": "contracts/ERC721.sol:ERC721",
								"label": "_inner",
								"offset": 0,
								"slot": "0",
								"type": "t_struct(Set)1826_storage"
							}
						],
						"numberOfBytes": "64"
					},
					"t_struct(UintToAddressMap)1658_storage": {
						"encoding": "inplace",
						"label": "struct EnumerableMap.UintToAddressMap",
						"members": [
							{
								"astId": 1657,
								"contract": "contracts/ERC721.sol:ERC721",
								"label": "_inner",
								"offset": 0,
								"slot": "0",
								"type": "t_struct(Map)1408_storage"
							}
						],
						"numberOfBytes": "64"
					},
					"t_uint256": {
						"encoding": "inplace",
						"label": "uint256",
						"numberOfBytes": "32"
					}
				}
			},
			"userdoc": {
				"kind": "user",
				"methods": {
					"balanceOf(address)": {
						"notice": "Get the Token balance of an account's."
					},
					"isApprovedForAll(address,address)": {
						"notice": "Queries the approval status of an operator for a given owner."
					},
					"ownerOf(uint256)": {
						"notice": "Get the owner of tokenId."
					},
					"safeTransferFrom(address,address,uint256,bytes)": {
						"notice": "Transfers `_value` amount of an `_id` from the `_from` address to the `_to` address specified (with safety call)."
					},
					"setApprovalForAll(address,bool)": {
						"notice": "Enable or disable approval for a third party (\"operator\") to manage all of the caller's tokens."
					}
				},
				"version": 1
			}
		}
	}
}