{
  "contractName": "ERC1155",
  "abi": [
    {
      "inputs": [
        {
          "internalType": "string",
          "name": "name_",
          "type": "string"
        },
        {
          "internalType": "string",
          "name": "symbol_",
          "type": "string"
        }
      ],
      "stateMutability": "nonpayable",
      "type": "constructor"
    },
    {
      "anonymous": false,
      "inputs": [
        {
          "indexed": true,
          "internalType": "address",
          "name": "account",
          "type": "address"
        },
        {
          "indexed": true,
          "internalType": "address",
          "name": "operator",
          "type": "address"
        },
        {
          "indexed": false,
          "internalType": "bool",
          "name": "approved",
          "type": "bool"
        }
      ],
      "name": "ApprovalForAll",
      "type": "event"
    },
    {
      "anonymous": false,
      "inputs": [
        {
          "indexed": true,
          "internalType": "address",
          "name": "operator",
          "type": "address"
        },
        {
          "indexed": true,
          "internalType": "address",
          "name": "from",
          "type": "address"
        },
        {
          "indexed": true,
          "internalType": "address",
          "name": "to",
          "type": "address"
        },
        {
          "indexed": false,
          "internalType": "uint256[]",
          "name": "ids",
          "type": "uint256[]"
        },
        {
          "indexed": false,
          "internalType": "uint256[]",
          "name": "values",
          "type": "uint256[]"
        }
      ],
      "name": "TransferBatch",
      "type": "event"
    },
    {
      "anonymous": false,
      "inputs": [
        {
          "indexed": true,
          "internalType": "address",
          "name": "operator",
          "type": "address"
        },
        {
          "indexed": true,
          "internalType": "address",
          "name": "from",
          "type": "address"
        },
        {
          "indexed": true,
          "internalType": "address",
          "name": "to",
          "type": "address"
        },
        {
          "indexed": false,
          "internalType": "uint256",
          "name": "id",
          "type": "uint256"
        },
        {
          "indexed": false,
          "internalType": "uint256",
          "name": "value",
          "type": "uint256"
        }
      ],
      "name": "TransferSingle",
      "type": "event"
    },
    {
      "anonymous": false,
      "inputs": [
        {
          "indexed": false,
          "internalType": "string",
          "name": "value",
          "type": "string"
        },
        {
          "indexed": true,
          "internalType": "uint256",
          "name": "id",
          "type": "uint256"
        }
      ],
      "name": "URI",
      "type": "event"
    },
    {
      "anonymous": false,
      "inputs": [
        {
          "indexed": false,
          "internalType": "string",
          "name": "value",
          "type": "string"
        }
      ],
      "name": "tokenBaseURI",
      "type": "event"
    },
    {
      "inputs": [
        {
          "internalType": "bytes4",
          "name": "interfaceId",
          "type": "bytes4"
        }
      ],
      "name": "supportsInterface",
      "outputs": [
        {
          "internalType": "bool",
          "name": "",
          "type": "bool"
        }
      ],
      "stateMutability": "view",
      "type": "function"
    },
    {
      "inputs": [],
      "name": "tokenURIPrefix",
      "outputs": [
        {
          "internalType": "string",
          "name": "",
          "type": "string"
        }
      ],
      "stateMutability": "view",
      "type": "function"
    },
    {
      "inputs": [],
      "name": "name",
      "outputs": [
        {
          "internalType": "string",
          "name": "",
          "type": "string"
        }
      ],
      "stateMutability": "view",
      "type": "function"
    },
    {
      "inputs": [],
      "name": "symbol",
      "outputs": [
        {
          "internalType": "string",
          "name": "",
          "type": "string"
        }
      ],
      "stateMutability": "view",
      "type": "function"
    },
    {
      "inputs": [
        {
          "internalType": "uint256",
          "name": "tokenId",
          "type": "uint256"
        }
      ],
      "name": "royaltyFee",
      "outputs": [
        {
          "internalType": "uint256",
          "name": "",
          "type": "uint256"
        }
      ],
      "stateMutability": "view",
      "type": "function"
    },
    {
      "inputs": [
        {
          "internalType": "uint256",
          "name": "tokenId",
          "type": "uint256"
        }
      ],
      "name": "getCreator",
      "outputs": [
        {
          "internalType": "address",
          "name": "",
          "type": "address"
        }
      ],
      "stateMutability": "view",
      "type": "function"
    },
    {
      "inputs": [
        {
          "internalType": "uint256",
          "name": "tokenId",
          "type": "uint256"
        }
      ],
      "name": "tokenURI",
      "outputs": [
        {
          "internalType": "string",
          "name": "",
          "type": "string"
        }
      ],
      "stateMutability": "view",
      "type": "function"
    },
    {
      "inputs": [
        {
          "internalType": "address",
          "name": "account",
          "type": "address"
        },
        {
          "internalType": "uint256",
          "name": "tokenId",
          "type": "uint256"
        }
      ],
      "name": "balanceOf",
      "outputs": [
        {
          "internalType": "uint256",
          "name": "",
          "type": "uint256"
        }
      ],
      "stateMutability": "view",
      "type": "function"
    },
    {
      "inputs": [
        {
          "internalType": "address[]",
          "name": "accounts",
          "type": "address[]"
        },
        {
          "internalType": "uint256[]",
          "name": "ids",
          "type": "uint256[]"
        }
      ],
      "name": "balanceOfBatch",
      "outputs": [
        {
          "internalType": "uint256[]",
          "name": "",
          "type": "uint256[]"
        }
      ],
      "stateMutability": "view",
      "type": "function"
    },
    {
      "inputs": [
        {
          "internalType": "address",
          "name": "operator",
          "type": "address"
        },
        {
          "internalType": "bool",
          "name": "approved",
          "type": "bool"
        }
      ],
      "name": "setApprovalForAll",
      "outputs": [],
      "stateMutability": "nonpayable",
      "type": "function"
    },
    {
      "inputs": [
        {
          "internalType": "address",
          "name": "account",
          "type": "address"
        },
        {
          "internalType": "address",
          "name": "operator",
          "type": "address"
        }
      ],
      "name": "isApprovedForAll",
      "outputs": [
        {
          "internalType": "bool",
          "name": "",
          "type": "bool"
        }
      ],
      "stateMutability": "view",
      "type": "function"
    },
    {
      "inputs": [
        {
          "internalType": "address",
          "name": "from",
          "type": "address"
        },
        {
          "internalType": "address",
          "name": "to",
          "type": "address"
        },
        {
          "internalType": "uint256",
          "name": "tokenId",
          "type": "uint256"
        },
        {
          "internalType": "uint256",
          "name": "amount",
          "type": "uint256"
        },
        {
          "internalType": "bytes",
          "name": "data",
          "type": "bytes"
        }
      ],
      "name": "safeTransferFrom",
      "outputs": [],
      "stateMutability": "nonpayable",
      "type": "function"
    },
    {
      "inputs": [
        {
          "internalType": "address",
          "name": "from",
          "type": "address"
        },
        {
          "internalType": "address",
          "name": "to",
          "type": "address"
        },
        {
          "internalType": "uint256[]",
          "name": "tokenIds",
          "type": "uint256[]"
        },
        {
          "internalType": "uint256[]",
          "name": "amounts",
          "type": "uint256[]"
        },
        {
          "internalType": "bytes",
          "name": "data",
          "type": "bytes"
        }
      ],
      "name": "safeBatchTransferFrom",
      "outputs": [],
      "stateMutability": "nonpayable",
      "type": "function"
    }
  ],
  "bytecode": "0x60806040526040518060600160405280602281526020016200376f60229139600590816200002e919062000427565b503480156200003c57600080fd5b50604051620037913803806200379183398181016040528101906200006291906200067c565b6200007a6301ffc9a760e01b620000d660201b60201c565b81600990816200008b919062000427565b5080600a90816200009d919062000427565b50620000b663d9b67a2660e01b620000d660201b60201c565b620000ce630e89341c60e01b620000d660201b60201c565b505062000784565b63ffffffff60e01b817bffffffffffffffffffffffffffffffffffffffffffffffffffffffff19160362000141576040517f08c379a0000000000000000000000000000000000000000000000000000000008152600401620001389062000762565b60405180910390fd5b6001600080837bffffffffffffffffffffffffffffffffffffffffffffffffffffffff19167bffffffffffffffffffffffffffffffffffffffffffffffffffffffff1916815260200190815260200160002060006101000a81548160ff02191690831515021790555050565b600081519050919050565b7f4e487b7100000000000000000000000000000000000000000000000000000000600052604160045260246000fd5b7f4e487b7100000000000000000000000000000000000000000000000000000000600052602260045260246000fd5b600060028204905060018216806200022f57607f821691505b602082108103620002455762000244620001e7565b5b50919050565b60008190508160005260206000209050919050565b60006020601f8301049050919050565b600082821b905092915050565b600060088302620002af7fffffffffffffffffffffffffffffffffffffffffffffffffffffffffffffffff8262000270565b620002bb868362000270565b95508019841693508086168417925050509392505050565b6000819050919050565b6000819050919050565b60006200030862000302620002fc84620002d3565b620002dd565b620002d3565b9050919050565b6000819050919050565b6200032483620002e7565b6200033c62000333826200030f565b8484546200027d565b825550505050565b600090565b6200035362000344565b6200036081848462000319565b505050565b5b8181101562000388576200037c60008262000349565b60018101905062000366565b5050565b601f821115620003d757620003a1816200024b565b620003ac8462000260565b81016020851015620003bc578190505b620003d4620003cb8562000260565b83018262000365565b50505b505050565b600082821c905092915050565b6000620003fc60001984600802620003dc565b1980831691505092915050565b6000620004178383620003e9565b9150826002028217905092915050565b6200043282620001ad565b67ffffffffffffffff8111156200044e576200044d620001b8565b5b6200045a825462000216565b620004678282856200038c565b600060209050601f8311600181146200049f57600084156200048a578287015190505b62000496858262000409565b86555062000506565b601f198416620004af866200024b565b60005b82811015620004d957848901518255600182019150602085019450602081019050620004b2565b86831015620004f95784890151620004f5601f891682620003e9565b8355505b6001600288020188555050505b505050505050565b6000604051905090565b600080fd5b600080fd5b600080fd5b600080fd5b6000601f19601f8301169050919050565b62000548826200052c565b810181811067ffffffffffffffff821117156200056a5762000569620001b8565b5b80604052505050565b60006200057f6200050e565b90506200058d82826200053d565b919050565b600067ffffffffffffffff821115620005b057620005af620001b8565b5b620005bb826200052c565b9050602081019050919050565b60005b83811015620005e8578082015181840152602081019050620005cb565b83811115620005f8576000848401525b50505050565b6000620006156200060f8462000592565b62000573565b90508281526020810184848401111562000634576200063362000527565b5b62000641848285620005c8565b509392505050565b600082601f83011262000661576200066062000522565b5b815162000673848260208601620005fe565b91505092915050565b6000806040838503121562000696576200069562000518565b5b600083015167ffffffffffffffff811115620006b757620006b66200051d565b5b620006c58582860162000649565b925050602083015167ffffffffffffffff811115620006e957620006e86200051d565b5b620006f78582860162000649565b9150509250929050565b600082825260208201905092915050565b7f4552433136353a20696e76616c696420696e7465726661636520696400000000600082015250565b60006200074a601c8362000701565b9150620007578262000712565b602082019050919050565b600060208201905081810360008301526200077d816200073b565b9050919050565b612fdb80620007946000396000f3fe608060405234801561001057600080fd5b50600436106100ce5760003560e01c8063a22cb4651161008c578063c87b56dd11610066578063c87b56dd14610225578063d48e638a14610255578063e985e9c514610285578063f242432a146102b5576100ce565b8063a22cb465146101bb578063c0ac9983146101d7578063c57dc235146101f5576100ce565b8062fdd58e146100d357806301ffc9a71461010357806306fdde03146101335780632eb2c2d6146101515780634e1273f41461016d57806395d89b411461019d575b600080fd5b6100ed60048036038101906100e89190611add565b6102d1565b6040516100fa9190611b2c565b60405180910390f35b61011d60048036038101906101189190611b9f565b6103e3565b60405161012a9190611be7565b60405180910390f35b61013b61044a565b6040516101489190611c9b565b60405180910390f35b61016b60048036038101906101669190611eba565b6104dc565b005b6101876004803603810190610182919061204c565b6108b0565b6040516101949190612182565b60405180910390f35b6101a5610a99565b6040516101b29190611c9b565b60405180910390f35b6101d560048036038101906101d091906121d0565b610b2b565b005b6101df610cab565b6040516101ec9190611c9b565b60405180910390f35b61020f600480360381019061020a9190612210565b610d39565b60405161021c9190611b2c565b60405180910390f35b61023f600480360381019061023a9190612210565b610d56565b60405161024c9190611c9b565b60405180910390f35b61026f600480360381019061026a9190612210565b610f4b565b60405161027c919061224c565b60405180910390f35b61029f600480360381019061029a9190612267565b610f88565b6040516102ac9190611be7565b60405180910390f35b6102cf60048036038101906102ca91906122a7565b61101c565b005b60006102dc8261135e565b61031b576040517f08c379a0000000000000000000000000000000000000000000000000000000008152600401610312906123b0565b60405180910390fd5b600073ffffffffffffffffffffffffffffffffffffffff168373ffffffffffffffffffffffffffffffffffffffff160361038a576040517f08c379a000000000000000000000000000000000000000000000000000000000815260040161038190612442565b60405180910390fd5b6003600083815260200190815260200160002060008473ffffffffffffffffffffffffffffffffffffffff1673ffffffffffffffffffffffffffffffffffffffff16815260200190815260200160002054905092915050565b6000806000837bffffffffffffffffffffffffffffffffffffffffffffffffffffffff19167bffffffffffffffffffffffffffffffffffffffffffffffffffffffff1916815260200190815260200160002060009054906101000a900460ff169050919050565b60606009805461045990612491565b80601f016020809104026020016040519081016040528092919081815260200182805461048590612491565b80156104d25780601f106104a7576101008083540402835291602001916104d2565b820191906000526020600020905b8154815290600101906020018083116104b557829003601f168201915b5050505050905090565b8151835114610520576040517f08c379a000000000000000000000000000000000000000000000000000000000815260040161051790612534565b60405180910390fd5b600073ffffffffffffffffffffffffffffffffffffffff168473ffffffffffffffffffffffffffffffffffffffff160361058f576040517f08c379a0000000000000000000000000000000000000000000000000000000008152600401610586906125c6565b60405180910390fd5b61059761137b565b73ffffffffffffffffffffffffffffffffffffffff168573ffffffffffffffffffffffffffffffffffffffff1614806105dd57506105dc856105d761137b565b610f88565b5b61061c576040517f08c379a000000000000000000000000000000000000000000000000000000000815260040161061390612658565b60405180910390fd5b600061062661137b565b9050610636818787878787611383565b60005b845181101561081b57600085828151811061065757610656612678565b5b60200260200101519050600085838151811061067657610675612678565b5b602002602001015190506106fd816040518060600160405280602a8152602001612f7c602a91396003600086815260200190815260200160002060008d73ffffffffffffffffffffffffffffffffffffffff1673ffffffffffffffffffffffffffffffffffffffff1681526020019081526020016000205461138b9092919063ffffffff16565b6003600084815260200190815260200160002060008b73ffffffffffffffffffffffffffffffffffffffff1673ffffffffffffffffffffffffffffffffffffffff168152602001908152602001600020819055506107b4816003600085815260200190815260200160002060008b73ffffffffffffffffffffffffffffffffffffffff1673ffffffffffffffffffffffffffffffffffffffff168152602001908152602001600020546113ef90919063ffffffff16565b6003600084815260200190815260200160002060008a73ffffffffffffffffffffffffffffffffffffffff1673ffffffffffffffffffffffffffffffffffffffff16815260200190815260200160002081905550505080610814906126d6565b9050610639565b508473ffffffffffffffffffffffffffffffffffffffff168673ffffffffffffffffffffffffffffffffffffffff168273ffffffffffffffffffffffffffffffffffffffff167f4a39dc06d4c0dbc64b70af90fd698a233a518aa5d07e595d983b8c0526c8f7fb878760405161089292919061271e565b60405180910390a46108a881878787878761144d565b505050505050565b606081518351146108f6576040517f08c379a00000000000000000000000000000000000000000000000000000000081526004016108ed906127c7565b60405180910390fd5b6000835167ffffffffffffffff81111561091357610912611cc2565b5b6040519080825280602002602001820160405280156109415781602001602082028036833780820191505090505b50905060005b8451811015610a8e57600073ffffffffffffffffffffffffffffffffffffffff1685828151811061097b5761097a612678565b5b602002602001015173ffffffffffffffffffffffffffffffffffffffff16036109d9576040517f08c379a00000000000000000000000000000000000000000000000000000000081526004016109d090612859565b60405180910390fd5b600360008583815181106109f0576109ef612678565b5b602002602001015181526020019081526020016000206000868381518110610a1b57610a1a612678565b5b602002602001015173ffffffffffffffffffffffffffffffffffffffff1673ffffffffffffffffffffffffffffffffffffffff16815260200190815260200160002054828281518110610a7157610a70612678565b5b60200260200101818152505080610a87906126d6565b9050610947565b508091505092915050565b6060600a8054610aa890612491565b80601f0160208091040260200160405190810160405280929190818152602001828054610ad490612491565b8015610b215780601f10610af657610100808354040283529160200191610b21565b820191906000526020600020905b815481529060010190602001808311610b0457829003601f168201915b5050505050905090565b8173ffffffffffffffffffffffffffffffffffffffff16610b4a61137b565b73ffffffffffffffffffffffffffffffffffffffff1603610ba0576040517f08c379a0000000000000000000000000000000000000000000000000000000008152600401610b97906128eb565b60405180910390fd5b8060046000610bad61137b565b73ffffffffffffffffffffffffffffffffffffffff1673ffffffffffffffffffffffffffffffffffffffff16815260200190815260200160002060008473ffffffffffffffffffffffffffffffffffffffff1673ffffffffffffffffffffffffffffffffffffffff16815260200190815260200160002060006101000a81548160ff0219169083151502179055508173ffffffffffffffffffffffffffffffffffffffff16610c5a61137b565b73ffffffffffffffffffffffffffffffffffffffff167f17307eab39ab6107e8899845ad3d59bd9653f200f220920489ca2b5937696c3183604051610c9f9190611be7565b60405180910390a35050565b60058054610cb890612491565b80601f0160208091040260200160405190810160405280929190818152602001828054610ce490612491565b8015610d315780601f10610d0657610100808354040283529160200191610d31565b820191906000526020600020905b815481529060010190602001808311610d1457829003601f168201915b505050505081565b600060026000838152602001908152602001600020549050919050565b6060610d618261135e565b610da0576040517f08c379a0000000000000000000000000000000000000000000000000000000008152600401610d979061297d565b60405180910390fd5b6000600660008481526020019081526020016000208054610dc090612491565b80601f0160208091040260200160405190810160405280929190818152602001828054610dec90612491565b8015610e395780601f10610e0e57610100808354040283529160200191610e39565b820191906000526020600020905b815481529060010190602001808311610e1c57829003601f168201915b50505050509050600060058054610e4f90612491565b80601f0160208091040260200160405190810160405280929190818152602001828054610e7b90612491565b8015610ec85780601f10610e9d57610100808354040283529160200191610ec8565b820191906000526020600020905b815481529060010190602001808311610eab57829003601f168201915b505050505090506000815103610ee2578192505050610f46565b600082511115610f17578082604051602001610eff9291906129d9565b60405160208183030381529060405292505050610f46565b80610f2185611624565b604051602001610f329291906129d9565b604051602081830303815290604052925050505b919050565b60006001600083815260200190815260200160002060009054906101000a900473ffffffffffffffffffffffffffffffffffffffff169050919050565b6000600460008473ffffffffffffffffffffffffffffffffffffffff1673ffffffffffffffffffffffffffffffffffffffff16815260200190815260200160002060008373ffffffffffffffffffffffffffffffffffffffff1673ffffffffffffffffffffffffffffffffffffffff16815260200190815260200160002060009054906101000a900460ff16905092915050565b600073ffffffffffffffffffffffffffffffffffffffff168473ffffffffffffffffffffffffffffffffffffffff160361108b576040517f08c379a0000000000000000000000000000000000000000000000000000000008152600401611082906125c6565b60405180910390fd5b61109361137b565b73ffffffffffffffffffffffffffffffffffffffff168573ffffffffffffffffffffffffffffffffffffffff1614806110d957506110d8856110d361137b565b610f88565b5b611118576040517f08c379a000000000000000000000000000000000000000000000000000000000815260040161110f90612a6f565b60405180910390fd5b600061112261137b565b905061114281878761113388611784565b61113c88611784565b87611383565b6111bf836040518060600160405280602a8152602001612f7c602a91396003600088815260200190815260200160002060008a73ffffffffffffffffffffffffffffffffffffffff1673ffffffffffffffffffffffffffffffffffffffff1681526020019081526020016000205461138b9092919063ffffffff16565b6003600086815260200190815260200160002060008873ffffffffffffffffffffffffffffffffffffffff1673ffffffffffffffffffffffffffffffffffffffff16815260200190815260200160002081905550611276836003600087815260200190815260200160002060008873ffffffffffffffffffffffffffffffffffffffff1673ffffffffffffffffffffffffffffffffffffffff168152602001908152602001600020546113ef90919063ffffffff16565b6003600086815260200190815260200160002060008773ffffffffffffffffffffffffffffffffffffffff1673ffffffffffffffffffffffffffffffffffffffff168152602001908152602001600020819055508473ffffffffffffffffffffffffffffffffffffffff168673ffffffffffffffffffffffffffffffffffffffff168273ffffffffffffffffffffffffffffffffffffffff167fc3d58168c5ae7397731d063d5bbf3d657854427343f4c083240f7aacaa2d0f628787604051611340929190612a8f565b60405180910390a46113568187878787876117fe565b505050505050565b60006113748260076119d590919063ffffffff16565b9050919050565b600033905090565b505050505050565b60008383111582906113d3576040517f08c379a00000000000000000000000000000000000000000000000000000000081526004016113ca9190611c9b565b60405180910390fd5b50600083856113e29190612ab8565b9050809150509392505050565b60008082846113fe9190612aec565b905083811015611443576040517f08c379a000000000000000000000000000000000000000000000000000000000815260040161143a90612b8e565b60405180910390fd5b8091505092915050565b61146c8473ffffffffffffffffffffffffffffffffffffffff166119ef565b1561161c578373ffffffffffffffffffffffffffffffffffffffff1663bc197c8187878686866040518663ffffffff1660e01b81526004016114b2959493929190612c03565b6020604051808303816000875af19250505080156114ee57506040513d601f19601f820116820180604052508101906114eb9190612c80565b60015b611593576114fa612cba565b806308c379a003611556575061150e612cdc565b806115195750611558565b806040517f08c379a000000000000000000000000000000000000000000000000000000000815260040161154d9190611c9b565b60405180910390fd5b505b6040517f08c379a000000000000000000000000000000000000000000000000000000000815260040161158a90612dde565b60405180910390fd5b63bc197c8160e01b7bffffffffffffffffffffffffffffffffffffffffffffffffffffffff1916817bffffffffffffffffffffffffffffffffffffffffffffffffffffffff19161461161a576040517f08c379a000000000000000000000000000000000000000000000000000000000815260040161161190612e70565b60405180910390fd5b505b505050505050565b60606000820361166b576040518060400160405280600181526020017f3000000000000000000000000000000000000000000000000000000000000000815250905061177f565b600082905060005b6000821461169d578080611686906126d6565b915050600a826116969190612ebf565b9150611673565b60008167ffffffffffffffff8111156116b9576116b8611cc2565b5b6040519080825280601f01601f1916602001820160405280156116eb5781602001600182028036833780820191505090505b5090505b60008514611778576001826117049190612ab8565b9150600a856117139190612ef0565b603061171f9190612aec565b60f81b81838151811061173557611734612678565b5b60200101907effffffffffffffffffffffffffffffffffffffffffffffffffffffffffffff1916908160001a905350600a856117719190612ebf565b94506116ef565b8093505050505b919050565b60606000600167ffffffffffffffff8111156117a3576117a2611cc2565b5b6040519080825280602002602001820160405280156117d15781602001602082028036833780820191505090505b50905082816000815181106117e9576117e8612678565b5b60200260200101818152505080915050919050565b61181d8473ffffffffffffffffffffffffffffffffffffffff166119ef565b156119cd578373ffffffffffffffffffffffffffffffffffffffff1663f23a6e6187878686866040518663ffffffff1660e01b8152600401611863959493929190612f21565b6020604051808303816000875af192505050801561189f57506040513d601f19601f8201168201806040525081019061189c9190612c80565b60015b611944576118ab612cba565b806308c379a00361190757506118bf612cdc565b806118ca5750611909565b806040517f08c379a00000000000000000000000000000000000000000000000000000000081526004016118fe9190611c9b565b60405180910390fd5b505b6040517f08c379a000000000000000000000000000000000000000000000000000000000815260040161193b90612dde565b60405180910390fd5b63f23a6e6160e01b7bffffffffffffffffffffffffffffffffffffffffffffffffffffffff1916817bffffffffffffffffffffffffffffffffffffffffffffffffffffffff1916146119cb576040517f08c379a00000000000000000000000000000000000000000000000000000000081526004016119c290612e70565b60405180910390fd5b505b505050505050565b60006119e7836000018360001b611a12565b905092915050565b6000808273ffffffffffffffffffffffffffffffffffffffff163b119050919050565b600080836001016000848152602001908152602001600020541415905092915050565b6000604051905090565b600080fd5b600080fd5b600073ffffffffffffffffffffffffffffffffffffffff82169050919050565b6000611a7482611a49565b9050919050565b611a8481611a69565b8114611a8f57600080fd5b50565b600081359050611aa181611a7b565b92915050565b6000819050919050565b611aba81611aa7565b8114611ac557600080fd5b50565b600081359050611ad781611ab1565b92915050565b60008060408385031215611af457611af3611a3f565b5b6000611b0285828601611a92565b9250506020611b1385828601611ac8565b9150509250929050565b611b2681611aa7565b82525050565b6000602082019050611b416000830184611b1d565b92915050565b60007fffffffff0000000000000000000000000000000000000000000000000000000082169050919050565b611b7c81611b47565b8114611b8757600080fd5b50565b600081359050611b9981611b73565b92915050565b600060208284031215611bb557611bb4611a3f565b5b6000611bc384828501611b8a565b91505092915050565b60008115159050919050565b611be181611bcc565b82525050565b6000602082019050611bfc6000830184611bd8565b92915050565b600081519050919050565b600082825260208201905092915050565b60005b83811015611c3c578082015181840152602081019050611c21565b83811115611c4b576000848401525b50505050565b6000601f19601f8301169050919050565b6000611c6d82611c02565b611c778185611c0d565b9350611c87818560208601611c1e565b611c9081611c51565b840191505092915050565b60006020820190508181036000830152611cb58184611c62565b905092915050565b600080fd5b7f4e487b7100000000000000000000000000000000000000000000000000000000600052604160045260246000fd5b611cfa82611c51565b810181811067ffffffffffffffff82111715611d1957611d18611cc2565b5b80604052505050565b6000611d2c611a35565b9050611d388282611cf1565b919050565b600067ffffffffffffffff821115611d5857611d57611cc2565b5b602082029050602081019050919050565b600080fd5b6000611d81611d7c84611d3d565b611d22565b90508083825260208201905060208402830185811115611da457611da3611d69565b5b835b81811015611dcd5780611db98882611ac8565b845260208401935050602081019050611da6565b5050509392505050565b600082601f830112611dec57611deb611cbd565b5b8135611dfc848260208601611d6e565b91505092915050565b600080fd5b600067ffffffffffffffff821115611e2557611e24611cc2565b5b611e2e82611c51565b9050602081019050919050565b82818337600083830152505050565b6000611e5d611e5884611e0a565b611d22565b905082815260208101848484011115611e7957611e78611e05565b5b611e84848285611e3b565b509392505050565b600082601f830112611ea157611ea0611cbd565b5b8135611eb1848260208601611e4a565b91505092915050565b600080600080600060a08688031215611ed657611ed5611a3f565b5b6000611ee488828901611a92565b9550506020611ef588828901611a92565b945050604086013567ffffffffffffffff811115611f1657611f15611a44565b5b611f2288828901611dd7565b935050606086013567ffffffffffffffff811115611f4357611f42611a44565b5b611f4f88828901611dd7565b925050608086013567ffffffffffffffff811115611f7057611f6f611a44565b5b611f7c88828901611e8c565b9150509295509295909350565b600067ffffffffffffffff821115611fa457611fa3611cc2565b5b602082029050602081019050919050565b6000611fc8611fc384611f89565b611d22565b90508083825260208201905060208402830185811115611feb57611fea611d69565b5b835b8181101561201457806120008882611a92565b845260208401935050602081019050611fed565b5050509392505050565b600082601f83011261203357612032611cbd565b5b8135612043848260208601611fb5565b91505092915050565b6000806040838503121561206357612062611a3f565b5b600083013567ffffffffffffffff81111561208157612080611a44565b5b61208d8582860161201e565b925050602083013567ffffffffffffffff8111156120ae576120ad611a44565b5b6120ba85828601611dd7565b9150509250929050565b600081519050919050565b600082825260208201905092915050565b6000819050602082019050919050565b6120f981611aa7565b82525050565b600061210b83836120f0565b60208301905092915050565b6000602082019050919050565b600061212f826120c4565b61213981856120cf565b9350612144836120e0565b8060005b8381101561217557815161215c88826120ff565b975061216783612117565b925050600181019050612148565b5085935050505092915050565b6000602082019050818103600083015261219c8184612124565b905092915050565b6121ad81611bcc565b81146121b857600080fd5b50565b6000813590506121ca816121a4565b92915050565b600080604083850312156121e7576121e6611a3f565b5b60006121f585828601611a92565b9250506020612206858286016121bb565b9150509250929050565b60006020828403121561222657612225611a3f565b5b600061223484828501611ac8565b91505092915050565b61224681611a69565b82525050565b6000602082019050612261600083018461223d565b92915050565b6000806040838503121561227e5761227d611a3f565b5b600061228c85828601611a92565b925050602061229d85828601611a92565b9150509250929050565b600080600080600060a086880312156122c3576122c2611a3f565b5b60006122d188828901611a92565b95505060206122e288828901611a92565b94505060406122f388828901611ac8565b935050606061230488828901611ac8565b925050608086013567ffffffffffffffff81111561232557612324611a44565b5b61233188828901611e8c565b9150509295509295909350565b7f455243313135354d657461646174613a2062616c616e6365207175657279206660008201527f6f72206e6f6e6578697374656e7420746f6b656e000000000000000000000000602082015250565b600061239a603483611c0d565b91506123a58261233e565b604082019050919050565b600060208201905081810360008301526123c98161238d565b9050919050565b7f455243313135353a2062616c616e636520717565727920666f7220746865207a60008201527f65726f2061646472657373000000000000000000000000000000000000000000602082015250565b600061242c602b83611c0d565b9150612437826123d0565b604082019050919050565b6000602082019050818103600083015261245b8161241f565b9050919050565b7f4e487b7100000000000000000000000000000000000000000000000000000000600052602260045260246000fd5b600060028204905060018216806124a957607f821691505b6020821081036124bc576124bb612462565b5b50919050565b7f455243313135353a2069647320616e6420616d6f756e7473206c656e6774682060008201527f6d69736d61746368000000000000000000000000000000000000000000000000602082015250565b600061251e602883611c0d565b9150612529826124c2565b604082019050919050565b6000602082019050818103600083015261254d81612511565b9050919050565b7f455243313135353a207472616e7366657220746f20746865207a65726f20616460008201527f6472657373000000000000000000000000000000000000000000000000000000602082015250565b60006125b0602583611c0d565b91506125bb82612554565b604082019050919050565b600060208201905081810360008301526125df816125a3565b9050919050565b7f455243313135353a207472616e736665722063616c6c6572206973206e6f742060008201527f6f776e6572206e6f7220617070726f7665640000000000000000000000000000602082015250565b6000612642603283611c0d565b915061264d826125e6565b604082019050919050565b6000602082019050818103600083015261267181612635565b9050919050565b7f4e487b7100000000000000000000000000000000000000000000000000000000600052603260045260246000fd5b7f4e487b7100000000000000000000000000000000000000000000000000000000600052601160045260246000fd5b60006126e182611aa7565b91507fffffffffffffffffffffffffffffffffffffffffffffffffffffffffffffffff8203612713576127126126a7565b5b600182019050919050565b600060408201905081810360008301526127388185612124565b9050818103602083015261274c8184612124565b90509392505050565b7f455243313135353a206163636f756e747320616e6420696473206c656e67746860008201527f206d69736d617463680000000000000000000000000000000000000000000000602082015250565b60006127b1602983611c0d565b91506127bc82612755565b604082019050919050565b600060208201905081810360008301526127e0816127a4565b9050919050565b7f455243313135353a2062617463682062616c616e636520717565727920666f7260008201527f20746865207a65726f2061646472657373000000000000000000000000000000602082015250565b6000612843603183611c0d565b915061284e826127e7565b604082019050919050565b6000602082019050818103600083015261287281612836565b9050919050565b7f455243313135353a2073657474696e6720617070726f76616c2073746174757360008201527f20666f722073656c660000000000000000000000000000000000000000000000602082015250565b60006128d5602983611c0d565b91506128e082612879565b604082019050919050565b60006020820190508181036000830152612904816128c8565b9050919050565b7f455243313135354d657461646174613a2055524920717565727920666f72206e60008201527f6f6e6578697374656e7420746f6b656e00000000000000000000000000000000602082015250565b6000612967603083611c0d565b91506129728261290b565b604082019050919050565b600060208201905081810360008301526129968161295a565b9050919050565b600081905092915050565b60006129b382611c02565b6129bd818561299d565b93506129cd818560208601611c1e565b80840191505092915050565b60006129e582856129a8565b91506129f182846129a8565b91508190509392505050565b7f455243313135353a2063616c6c6572206973206e6f74206f776e6572206e6f7260008201527f20617070726f7665640000000000000000000000000000000000000000000000602082015250565b6000612a59602983611c0d565b9150612a64826129fd565b604082019050919050565b60006020820190508181036000830152612a8881612a4c565b9050919050565b6000604082019050612aa46000830185611b1d565b612ab16020830184611b1d565b9392505050565b6000612ac382611aa7565b9150612ace83611aa7565b925082821015612ae157612ae06126a7565b5b828203905092915050565b6000612af782611aa7565b9150612b0283611aa7565b9250827fffffffffffffffffffffffffffffffffffffffffffffffffffffffffffffffff03821115612b3757612b366126a7565b5b828201905092915050565b7f536166654d6174683a206164646974696f6e206f766572666c6f770000000000600082015250565b6000612b78601b83611c0d565b9150612b8382612b42565b602082019050919050565b60006020820190508181036000830152612ba781612b6b565b9050919050565b600081519050919050565b600082825260208201905092915050565b6000612bd582612bae565b612bdf8185612bb9565b9350612bef818560208601611c1e565b612bf881611c51565b840191505092915050565b600060a082019050612c18600083018861223d565b612c25602083018761223d565b8181036040830152612c378186612124565b90508181036060830152612c4b8185612124565b90508181036080830152612c5f8184612bca565b90509695505050505050565b600081519050612c7a81611b73565b92915050565b600060208284031215612c9657612c95611a3f565b5b6000612ca484828501612c6b565b91505092915050565b60008160e01c9050919050565b600060033d1115612cd95760046000803e612cd6600051612cad565b90505b90565b600060443d10612d6957612cee611a35565b60043d036004823e80513d602482011167ffffffffffffffff82111715612d16575050612d69565b808201805167ffffffffffffffff811115612d345750505050612d69565b80602083010160043d038501811115612d51575050505050612d69565b612d6082602001850186611cf1565b82955050505050505b90565b7f455243313135353a207472616e7366657220746f206e6f6e204552433131353560008201527f526563656976657220696d706c656d656e746572000000000000000000000000602082015250565b6000612dc8603483611c0d565b9150612dd382612d6c565b604082019050919050565b60006020820190508181036000830152612df781612dbb565b9050919050565b7f455243313135353a204552433131353552656365697665722072656a6563746560008201527f6420746f6b656e73000000000000000000000000000000000000000000000000602082015250565b6000612e5a602883611c0d565b9150612e6582612dfe565b604082019050919050565b60006020820190508181036000830152612e8981612e4d565b9050919050565b7f4e487b7100000000000000000000000000000000000000000000000000000000600052601260045260246000fd5b6000612eca82611aa7565b9150612ed583611aa7565b925082612ee557612ee4612e90565b5b828204905092915050565b6000612efb82611aa7565b9150612f0683611aa7565b925082612f1657612f15612e90565b5b828206905092915050565b600060a082019050612f36600083018861223d565b612f43602083018761223d565b612f506040830186611b1d565b612f5d6060830185611b1d565b8181036080830152612f6f8184612bca565b9050969550505050505056fe455243313135353a20696e73756666696369656e742062616c616e636520666f72207472616e73666572a2646970667358221220d833dd81cd68659b110db78fae19fb1d17762b2ba9198f7acc81609083e0b74364736f6c634300080f003368747470733a2f2f676174657761792e70696e6174612e636c6f75642f697066732f",
  "immutableReferences": {},
  "source": "// SPDX-License-Identifier: MIT\r\n// OpenZeppelin Contracts (last updated v4.7.0) \r\n\r\npragma solidity ^0.8.4;\r\n\r\nimport \"./External/Context.sol\";\r\nimport \"./External/ERC165.sol\";\r\nimport \"./External/IERC1155.sol\";\r\nimport \"./External/SafeMath.sol\";\r\nimport \"./External/Address.sol\";\r\nimport \"./External/Strings.sol\";\r\nimport \"./External/EnumerableMap.sol\";\r\nimport \"./External/IERC1155MetadataURI.sol\";\r\nimport \"./External/IERC1155Receiver.sol\";\r\n\r\ncontract ERC1155 is Context, ERC165,IERC1155{\r\n\r\n    using SafeMath for uint256;\r\n    using Address for address;\r\n    using Strings for uint256;\r\n    using EnumerableMap for EnumerableMap.UintToAddressMap;\r\n\r\n    // Mapping from token ID to account balances\r\n    mapping (uint256 => address) private creators;\r\n    mapping (uint256 => uint256) private _royaltyFee;\r\n    mapping (uint256 => mapping(address => uint256)) private _balances;\r\n\r\n    // Mapping from account to operator approvals\r\n    mapping (address => mapping(address => bool)) private _operatorApprovals;\r\n    string public tokenURIPrefix = \"https://gateway.pinata.cloud/ipfs/\";\r\n\r\n    // Optional mapping for token URIs\r\n    mapping(uint256 => string) private _tokenURIs;\r\n\r\n    EnumerableMap.UintToAddressMap private _tokenOwners;\r\n\r\n    string private _name;\r\n\r\n    string private _symbol;\r\n\r\n    bytes4 private constant _INTERFACE_ID_ERC1155 = 0xd9b67a26;\r\n\r\n    bytes4 private constant _INTERFACE_ID_ERC1155_METADATA_URI = 0x0e89341c;\r\n\r\n    constructor (string memory name_, string memory symbol_) {\r\n        _name = name_;\r\n        _symbol = symbol_;\r\n\r\n        _registerInterface(_INTERFACE_ID_ERC1155);\r\n        _registerInterface(_INTERFACE_ID_ERC1155_METADATA_URI);\r\n    }\r\n\r\n    function name() public view virtual override returns (string memory) {\r\n        return _name;\r\n    }\r\n\r\n    function symbol() public view virtual override returns (string memory) {\r\n        return _symbol;\r\n    }\r\n\r\n    /**\r\n        * @dev Internal function to set the token URI for a given token.\r\n        * Reverts if the token ID does not exist.\r\n        * @param tokenId uint256 ID of the token to set its URI\r\n        * @param uri string URI to assign\r\n    */    \r\n\r\n    function _setTokenURI(uint256 tokenId, string memory uri) internal {\r\n        _tokenURIs[tokenId] = uri;\r\n    }\r\n\r\n    /**\r\n        @notice Get the royalty associated with tokenID.\r\n        @param tokenId     ID of the Token.\r\n        @return        royaltyFee of given ID.\r\n     */\r\n\r\n    function royaltyFee(uint256 tokenId) public view override returns(uint256) {\r\n        return _royaltyFee[tokenId];\r\n    }\r\n\r\n    /**\r\n        @notice Get the creator of given tokenID.\r\n        @param tokenId     ID of the Token.\r\n        @return        creator of given ID.\r\n     */    \r\n\r\n    function getCreator(uint256 tokenId) public view virtual override returns(address) {\r\n        return creators[tokenId];\r\n    }\r\n\r\n    /**\r\n        * @dev Internal function to set the token URI for all the tokens.\r\n        * @param _tokenURIPrefix string memory _tokenURIPrefix of the tokens.\r\n    */   \r\n\r\n    function _setTokenURIPrefix(string memory _tokenURIPrefix) internal {\r\n        tokenURIPrefix = _tokenURIPrefix;\r\n        emit tokenBaseURI(_tokenURIPrefix);\r\n    }\r\n\r\n    /**\r\n        * @dev Returns an URI for a given token ID.\r\n        * Throws if the token ID does not exist. May return an empty string.\r\n        * @param tokenId uint256 ID of the token to query\r\n    */    \r\n\r\n    function tokenURI(uint256 tokenId) public view virtual override returns (string memory) {\r\n        require(_exists(tokenId), \"ERC1155Metadata: URI query for nonexistent token\");\r\n        string memory _tokenURI = _tokenURIs[tokenId];\r\n        string memory base = tokenURIPrefix;\r\n\r\n        if (bytes(base).length == 0) {\r\n            return _tokenURI;\r\n        }\r\n        if (bytes(_tokenURI).length > 0) {\r\n            return string(abi.encodePacked(base, _tokenURI));\r\n        }\r\n        return string(abi.encodePacked(base, tokenId.toString()));\r\n    }\r\n\r\n    function _exists(uint256 tokenId) internal view virtual returns (bool) {\r\n        return _tokenOwners.contains(tokenId);\r\n    }\r\n\r\n    /**\r\n        @notice Get the balance of an account's Tokens.\r\n        @param account  The address of the token holder\r\n        @param tokenId     ID of the Token\r\n        @return        The owner's balance of the Token type requested\r\n     */\r\n\r\n    function balanceOf(address account, uint256 tokenId) public view override returns (uint256) {\r\n        require(_exists(tokenId), \"ERC1155Metadata: balance query for nonexistent token\");\r\n        require(account != address(0), \"ERC1155: balance query for the zero address\");\r\n        return _balances[tokenId][account];\r\n    }\r\n\r\n\r\n    /**\r\n        @notice Get the balance of multiple account/token pairs\r\n        @param accounts The addresses of the token holders\r\n        @param ids    ID of the Tokens\r\n        @return        The _owner's balance of the Token types requested (i.e. balance for each (owner, id) pair)\r\n     */\r\n\r\n    function balanceOfBatch(\r\n        address[] memory accounts,\r\n        uint256[] memory ids\r\n    )\r\n        public\r\n        view\r\n        override\r\n        returns (uint256[] memory)\r\n    {\r\n        require(accounts.length == ids.length, \"ERC1155: accounts and ids length mismatch\");\r\n\r\n        uint256[] memory batchBalances = new uint256[](accounts.length);\r\n\r\n        for (uint256 i = 0; i < accounts.length; ++i) {\r\n            require(accounts[i] != address(0), \"ERC1155: batch balance query for the zero address\");\r\n            batchBalances[i] = _balances[ids[i]][accounts[i]];\r\n        }\r\n\r\n        return batchBalances;\r\n    }\r\n\r\n    /**\r\n        @notice Enable or disable approval for a third party (\"operator\") to manage all of the caller's tokens.\r\n        @dev MUST emit the ApprovalForAll event on success.\r\n        @param operator  Address to add to the set of authorized operators\r\n        @param approved  True if the operator is approved, false to revoke approval\r\n    */\r\n\r\n    function setApprovalForAll(address operator, bool approved) public virtual override {\r\n        require(_msgSender() != operator, \"ERC1155: setting approval status for self\");\r\n\r\n        _operatorApprovals[_msgSender()][operator] = approved;\r\n        emit ApprovalForAll(_msgSender(), operator, approved);\r\n    }\r\n\r\n    /**\r\n        @notice Queries the approval status of an operator for a given owner.\r\n        @param account     The owner of the Tokens\r\n        @param operator  Address of authorized operator\r\n        @return           True if the operator is approved, false if not\r\n    */\r\n\r\n    function isApprovedForAll(address account, address operator) public view override returns (bool) {\r\n        return _operatorApprovals[account][operator];\r\n    }\r\n\r\n    /**\r\n        @notice Transfers `_value` amount of an `_id` from the `_from` address to the `_to` address specified (with safety call).\r\n        @dev Caller must be approved to manage the tokens being transferred out of the `_from` account (see \"Approval\" section of the standard).\r\n        MUST revert if `_to` is the zero address.\r\n        MUST revert if balance of holder for token `_id` is lower than the `_value` sent.\r\n        MUST revert on any other error.\r\n        MUST emit the `TransferSingle` event to reflect the balance change (see \"Safe Transfer Rules\" section of the standard).\r\n        After the above conditions are met, this function MUST check if `_to` is a smart contract (e.g. code size > 0). If so, it MUST call `onERC1155Received` on `_to` and act appropriately (see \"Safe Transfer Rules\" section of the standard).\r\n        @param from    Source address\r\n        @param to      Target address\r\n        @param tokenId      ID of the token type\r\n        @param amount   Transfer amount\r\n        @param data    Additional data with no specified format, MUST be sent unaltered in call to `onERC1155Received` on `_to`\r\n    */    \r\n\r\n    function safeTransferFrom(\r\n        address from,\r\n        address to,\r\n        uint256 tokenId,\r\n        uint256 amount,\r\n        bytes memory data\r\n    )\r\n        public\r\n        virtual\r\n        override\r\n    {\r\n        require(to != address(0), \"ERC1155: transfer to the zero address\");\r\n        require(\r\n            from == _msgSender() || isApprovedForAll(from, _msgSender()),\r\n            \"ERC1155: caller is not owner nor approved\"\r\n        );\r\n\r\n        address operator = _msgSender();\r\n\r\n        _beforeTokenTransfer(operator, from, to, _asSingletonArray(tokenId), _asSingletonArray(amount), data);\r\n\r\n        _balances[tokenId][from] = _balances[tokenId][from].sub(amount, \"ERC1155: insufficient balance for transfer\");\r\n        _balances[tokenId][to] = _balances[tokenId][to].add(amount);\r\n\r\n        emit TransferSingle(operator, from, to, tokenId, amount);\r\n\r\n        _doSafeTransferAcceptanceCheck(operator, from, to, tokenId, amount, data);\r\n    }\r\n\r\n    /**\r\n        @notice Transfers `_values` amount(s) of `_ids` from the `_from` address to the `_to` address specified (with safety call).\r\n        @dev Caller must be approved to manage the tokens being transferred out of the `_from` account (see \"Approval\" section of the standard).\r\n        MUST revert if `_to` is the zero address.\r\n        MUST revert if length of `_ids` is not the same as length of `_values`.\r\n        MUST revert if any of the balance(s) of the holder(s) for token(s) in `_ids` is lower than the respective amount(s) in `_values` sent to the recipient.\r\n        MUST revert on any other error.\r\n        MUST emit `TransferSingle` or `TransferBatch` event(s) such that all the balance changes are reflected (see \"Safe Transfer Rules\" section of the standard).\r\n        Balance changes and events MUST follow the ordering of the arrays (_ids[0]/_values[0] before _ids[1]/_values[1], etc).\r\n        After the above conditions for the transfer(s) in the batch are met, this function MUST check if `_to` is a smart contract (e.g. code size > 0). If so, it MUST call the relevant `ERC1155TokenReceiver` hook(s) on `_to` and act appropriately (see \"Safe Transfer Rules\" section of the standard).\r\n        @param from    Source address\r\n        @param to      Target address\r\n        @param tokenIds     IDs of each token type (order and length must match _values array)\r\n        @param amounts  Transfer amounts per token type (order and length must match _ids array)\r\n        @param data    Additional data with no specified format, MUST be sent unaltered in call to the `ERC1155TokenReceiver` hook(s) on `_to`\r\n    */\r\n\r\n    function safeBatchTransferFrom(\r\n        address from,\r\n        address to,\r\n        uint256[] memory tokenIds,\r\n        uint256[] memory amounts,\r\n        bytes memory data\r\n    )\r\n        public\r\n        virtual\r\n        override\r\n    {\r\n        require(tokenIds.length == amounts.length, \"ERC1155: ids and amounts length mismatch\");\r\n        require(to != address(0), \"ERC1155: transfer to the zero address\");\r\n        require(\r\n            from == _msgSender() || isApprovedForAll(from, _msgSender()),\r\n            \"ERC1155: transfer caller is not owner nor approved\"\r\n        );\r\n\r\n        address operator = _msgSender();\r\n\r\n        _beforeTokenTransfer(operator, from, to, tokenIds, amounts, data);\r\n\r\n        for (uint256 i = 0; i < tokenIds.length; ++i) {\r\n            uint256 tokenId = tokenIds[i];\r\n            uint256 amount = amounts[i];\r\n\r\n            _balances[tokenId][from] = _balances[tokenId][from].sub(\r\n                amount,\r\n                \"ERC1155: insufficient balance for transfer\"\r\n            );\r\n            _balances[tokenId][to] = _balances[tokenId][to].add(amount);\r\n        }\r\n\r\n        emit TransferBatch(operator, from, to, tokenIds, amounts);\r\n\r\n        _doSafeBatchTransferAcceptanceCheck(operator, from, to, tokenIds, amounts, data);\r\n    }\r\n\r\n\r\n\r\n    /**\r\n        * @dev Internal function to mint a new token.\r\n        * Reverts if the given token ID already exists.\r\n        * @param tokenId uint256 ID of the token to be minted\r\n        * @param _supply uint256 supply of the token to be minted\r\n        * @param _uri string memory URI of the token to be minted\r\n        * @param _fee uint256 royalty of the token to be minted\r\n    */\r\n\r\n    function _mint(uint256 tokenId, uint256 _supply, string memory _uri, uint256 _fee) internal {\r\n        require(!_exists(tokenId), \"ERC1155: token already minted\");\r\n        require(_supply != 0, \"Supply should be positive\");\r\n        require(bytes(_uri).length > 0, \"uri should be set\");\r\n\r\n        creators[tokenId] = msg.sender;\r\n        _tokenOwners.set(tokenId, msg.sender);\r\n        _royaltyFee[tokenId] = _fee;\r\n        _balances[tokenId][msg.sender] = _supply;\r\n        _setTokenURI(tokenId, _uri);\r\n\r\n        emit TransferSingle(msg.sender, address(0x0), msg.sender, tokenId, _supply);\r\n        emit URI(_uri, tokenId);\r\n    }\r\n\r\n    /**\r\n        * @dev version of {_mint}.\r\n        *\r\n        * Requirements:\r\n        *\r\n        * - `tokenIds` and `amounts` must have the same length.\r\n    */\r\n\r\n    function _mintBatch(address to, uint256[] memory tokenIds, uint256[] memory amounts, bytes memory data) internal virtual {\r\n        require(to != address(0), \"ERC1155: mint to the zero address\");\r\n        require(tokenIds.length == amounts.length, \"ERC1155: ids and amounts length mismatch\");\r\n\r\n        address operator = _msgSender();\r\n\r\n        _beforeTokenTransfer(operator, address(0), to, tokenIds, amounts, data);\r\n\r\n        for (uint i = 0; i < tokenIds.length; i++) {\r\n            _balances[tokenIds[i]][to] = amounts[i].add(_balances[tokenIds[i]][to]);\r\n        }\r\n\r\n        emit TransferBatch(operator, address(0), to, tokenIds, amounts);\r\n\r\n        _doSafeBatchTransferAcceptanceCheck(operator, address(0), to, tokenIds, amounts, data);\r\n    }\r\n\r\n    /**\r\n        * @dev Internal function to burn a specific token.\r\n        * Reverts if the token does not exist.\r\n        * Deprecated, use {ERC721-_burn} instead.\r\n        * @param account owner of the token to burn\r\n        * @param tokenId uint256 ID of the token being burned\r\n        * @param amount uint256 amount of supply being burned\r\n    */    \r\n\r\n    function _burn(address account, uint256 tokenId, uint256 amount) internal virtual {\r\n        require(_exists(tokenId), \"ERC1155Metadata: burn query for nonexistent token\");\r\n        require(account != address(0), \"ERC1155: burn from the zero address\");\r\n\r\n        address operator = _msgSender();\r\n\r\n        _beforeTokenTransfer(operator, account, address(0), _asSingletonArray(tokenId), _asSingletonArray(amount), \"\");\r\n\r\n        _balances[tokenId][account] = _balances[tokenId][account].sub(\r\n            amount,\r\n            \"ERC_holderTokens1155: burn amount exceeds balance\"\r\n        );\r\n\r\n\r\n        emit TransferSingle(operator, account, address(0), tokenId, amount);\r\n    }\r\n\r\n\r\n    /**\r\n        * @dev version of {_burn}.\r\n        * Requirements:\r\n        * - `ids` and `amounts` must have the same length.\r\n    */\r\n\r\n    function _burnBatch(address account, uint256[] memory tokenIds, uint256[] memory amounts) internal virtual {\r\n        require(account != address(0), \"ERC1155: burn from the zero address\");\r\n        require(tokenIds.length == amounts.length, \"ERC1155: ids and amounts length mismatch\");\r\n\r\n        address operator = _msgSender();\r\n\r\n        _beforeTokenTransfer(operator, account, address(0), tokenIds, amounts, \"\");\r\n\r\n        for (uint i = 0; i < tokenIds.length; i++) {\r\n            _balances[tokenIds[i]][account] = _balances[tokenIds[i]][account].sub(\r\n                amounts[i],\r\n                \"ERC1155: burn amount exceeds balance\"\r\n            );\r\n        }\r\n\r\n        emit TransferBatch(operator, account, address(0), tokenIds, amounts);\r\n    }\r\n\r\n\r\n    function _beforeTokenTransfer(\r\n        address operator,\r\n        address from,\r\n        address to,\r\n        uint256[] memory tokenIds,\r\n        uint256[] memory amounts,\r\n        bytes memory data\r\n    )\r\n        internal virtual\r\n    { }\r\n\r\n    function _doSafeTransferAcceptanceCheck(\r\n        address operator,\r\n        address from,\r\n        address to,\r\n        uint256 tokenId,\r\n        uint256 amount,\r\n        bytes memory data\r\n    )\r\n        private\r\n    {\r\n        if (to.isContract()) {\r\n            try IERC1155Receiver(to).onERC1155Received(operator, from, tokenId, amount, data) returns (bytes4 response) {\r\n                if (response != IERC1155Receiver(to).onERC1155Received.selector) {\r\n                    revert(\"ERC1155: ERC1155Receiver rejected tokens\");\r\n                }\r\n            } catch Error(string memory reason) {\r\n                revert(reason);\r\n            } catch {\r\n                revert(\"ERC1155: transfer to non ERC1155Receiver implementer\");\r\n            }\r\n        }\r\n    }\r\n\r\n    function _doSafeBatchTransferAcceptanceCheck(\r\n        address operator,\r\n        address from,\r\n        address to,\r\n        uint256[] memory tokenIds,\r\n        uint256[] memory amounts,\r\n        bytes memory data\r\n    )\r\n        private\r\n    {\r\n        if (to.isContract()) {\r\n            try IERC1155Receiver(to).onERC1155BatchReceived(operator, from, tokenIds, amounts, data) returns (bytes4 response) {\r\n                if (response != IERC1155Receiver(to).onERC1155BatchReceived.selector) {\r\n                    revert(\"ERC1155: ERC1155Receiver rejected tokens\");\r\n                }\r\n            } catch Error(string memory reason) {\r\n                revert(reason);\r\n            } catch {\r\n                revert(\"ERC1155: transfer to non ERC1155Receiver implementer\");\r\n            }\r\n        }\r\n    }\r\n\r\n    function _asSingletonArray(uint256 element) private pure returns (uint256[] memory) {\r\n        uint256[] memory array = new uint256[](1);\r\n        array[0] = element;\r\n\r\n        return array;\r\n    }\r\n}\r\n\r\n",
  "sourcePath": "C:\\Users\\91863\\Arevea\\contracts\\ERC1155.sol",
  "compiler": {
    "name": "solc",
    "version": "0.8.15+commit.e14f2714.Emscripten.clang"
  },
  "schemaVersion": "3.4.8",
  "updatedAt": "2022-07-19T13:13:19.759Z",
  "devdoc": {
    "kind": "dev",
    "methods": {
      "balanceOf(address,uint256)": {
        "params": {
          "account": "The address of the token holder",
          "tokenId": "ID of the Token"
        },
        "returns": {
          "_0": "The owner's balance of the Token type requested"
        }
      },
      "balanceOfBatch(address[],uint256[])": {
        "params": {
          "accounts": "The addresses of the token holders",
          "ids": "ID of the Tokens"
        },
        "returns": {
          "_0": "The _owner's balance of the Token types requested (i.e. balance for each (owner, id) pair)"
        }
      },
      "getCreator(uint256)": {
        "params": {
          "tokenId": "ID of the Token."
        },
        "returns": {
          "_0": "creator of given ID."
        }
      },
      "isApprovedForAll(address,address)": {
        "params": {
          "account": "The owner of the Tokens",
          "operator": "Address of authorized operator"
        },
        "returns": {
          "_0": "True if the operator is approved, false if not"
        }
      },
      "royaltyFee(uint256)": {
        "params": {
          "tokenId": "ID of the Token."
        },
        "returns": {
          "_0": "royaltyFee of given ID."
        }
      },
      "safeBatchTransferFrom(address,address,uint256[],uint256[],bytes)": {
        "details": "Caller must be approved to manage the tokens being transferred out of the `_from` account (see \"Approval\" section of the standard). MUST revert if `_to` is the zero address. MUST revert if length of `_ids` is not the same as length of `_values`. MUST revert if any of the balance(s) of the holder(s) for token(s) in `_ids` is lower than the respective amount(s) in `_values` sent to the recipient. MUST revert on any other error. MUST emit `TransferSingle` or `TransferBatch` event(s) such that all the balance changes are reflected (see \"Safe Transfer Rules\" section of the standard). Balance changes and events MUST follow the ordering of the arrays (_ids[0]/_values[0] before _ids[1]/_values[1], etc). After the above conditions for the transfer(s) in the batch are met, this function MUST check if `_to` is a smart contract (e.g. code size > 0). If so, it MUST call the relevant `ERC1155TokenReceiver` hook(s) on `_to` and act appropriately (see \"Safe Transfer Rules\" section of the standard).",
        "params": {
          "amounts": "Transfer amounts per token type (order and length must match _ids array)",
          "data": "Additional data with no specified format, MUST be sent unaltered in call to the `ERC1155TokenReceiver` hook(s) on `_to`",
          "from": "Source address",
          "to": "Target address",
          "tokenIds": "IDs of each token type (order and length must match _values array)"
        }
      },
      "safeTransferFrom(address,address,uint256,uint256,bytes)": {
        "details": "Caller must be approved to manage the tokens being transferred out of the `_from` account (see \"Approval\" section of the standard). MUST revert if `_to` is the zero address. MUST revert if balance of holder for token `_id` is lower than the `_value` sent. MUST revert on any other error. MUST emit the `TransferSingle` event to reflect the balance change (see \"Safe Transfer Rules\" section of the standard). After the above conditions are met, this function MUST check if `_to` is a smart contract (e.g. code size > 0). If so, it MUST call `onERC1155Received` on `_to` and act appropriately (see \"Safe Transfer Rules\" section of the standard).",
        "params": {
          "amount": "Transfer amount",
          "data": "Additional data with no specified format, MUST be sent unaltered in call to `onERC1155Received` on `_to`",
          "from": "Source address",
          "to": "Target address",
          "tokenId": "ID of the token type"
        }
      },
      "setApprovalForAll(address,bool)": {
        "details": "MUST emit the ApprovalForAll event on success.",
        "params": {
          "approved": "True if the operator is approved, false to revoke approval",
          "operator": "Address to add to the set of authorized operators"
        }
      },
      "supportsInterface(bytes4)": {
        "details": "Returns true if this contract implements the interface defined by `interfaceId`. See the corresponding https://eips.ethereum.org/EIPS/eip-165#how-interfaces-are-identified[EIP section] to learn more about how these ids are created. This function call must use less than 30 000 gas."
      },
      "tokenURI(uint256)": {
        "details": "Returns an URI for a given token ID. Throws if the token ID does not exist. May return an empty string.",
        "params": {
          "tokenId": "uint256 ID of the token to query"
        }
      }
    },
    "version": 1
  },
  "userdoc": {
    "kind": "user",
    "methods": {
      "balanceOf(address,uint256)": {
        "notice": "Get the balance of an account's Tokens."
      },
      "balanceOfBatch(address[],uint256[])": {
        "notice": "Get the balance of multiple account/token pairs"
      },
      "getCreator(uint256)": {
        "notice": "Get the creator of given tokenID."
      },
      "isApprovedForAll(address,address)": {
        "notice": "Queries the approval status of an operator for a given owner."
      },
      "royaltyFee(uint256)": {
        "notice": "Get the royalty associated with tokenID."
      },
      "safeBatchTransferFrom(address,address,uint256[],uint256[],bytes)": {
        "notice": "Transfers `_values` amount(s) of `_ids` from the `_from` address to the `_to` address specified (with safety call)."
      },
      "safeTransferFrom(address,address,uint256,uint256,bytes)": {
        "notice": "Transfers `_value` amount of an `_id` from the `_from` address to the `_to` address specified (with safety call)."
      },
      "setApprovalForAll(address,bool)": {
        "notice": "Enable or disable approval for a third party (\"operator\") to manage all of the caller's tokens."
      }
    },
    "version": 1
  }
}