{
  "contractName": "ERC721",
  "abi": [
    {
      "inputs": [
        {
          "internalType": "string",
          "name": "name_",
          "type": "string"
        },
        {
          "internalType": "string",
          "name": "symbol_",
          "type": "string"
        }
      ],
      "stateMutability": "nonpayable",
      "type": "constructor"
    },
    {
      "anonymous": false,
      "inputs": [
        {
          "indexed": true,
          "internalType": "address",
          "name": "owner",
          "type": "address"
        },
        {
          "indexed": true,
          "internalType": "address",
          "name": "approved",
          "type": "address"
        },
        {
          "indexed": true,
          "internalType": "uint256",
          "name": "tokenId",
          "type": "uint256"
        }
      ],
      "name": "Approval",
      "type": "event"
    },
    {
      "anonymous": false,
      "inputs": [
        {
          "indexed": true,
          "internalType": "address",
          "name": "owner",
          "type": "address"
        },
        {
          "indexed": true,
          "internalType": "address",
          "name": "operator",
          "type": "address"
        },
        {
          "indexed": false,
          "internalType": "bool",
          "name": "approved",
          "type": "bool"
        }
      ],
      "name": "ApprovalForAll",
      "type": "event"
    },
    {
      "anonymous": false,
      "inputs": [
        {
          "indexed": true,
          "internalType": "address",
          "name": "from",
          "type": "address"
        },
        {
          "indexed": true,
          "internalType": "address",
          "name": "to",
          "type": "address"
        },
        {
          "indexed": true,
          "internalType": "uint256",
          "name": "tokenId",
          "type": "uint256"
        }
      ],
      "name": "Transfer",
      "type": "event"
    },
    {
      "anonymous": false,
      "inputs": [
        {
          "indexed": false,
          "internalType": "string",
          "name": "value",
          "type": "string"
        },
        {
          "indexed": true,
          "internalType": "uint256",
          "name": "id",
          "type": "uint256"
        }
      ],
      "name": "URI",
      "type": "event"
    },
    {
      "anonymous": false,
      "inputs": [
        {
          "indexed": false,
          "internalType": "string",
          "name": "value",
          "type": "string"
        }
      ],
      "name": "tokenBaseURI",
      "type": "event"
    },
    {
      "inputs": [
        {
          "internalType": "bytes4",
          "name": "interfaceId",
          "type": "bytes4"
        }
      ],
      "name": "supportsInterface",
      "outputs": [
        {
          "internalType": "bool",
          "name": "",
          "type": "bool"
        }
      ],
      "stateMutability": "view",
      "type": "function"
    },
    {
      "inputs": [
        {
          "internalType": "address",
          "name": "owner",
          "type": "address"
        }
      ],
      "name": "balanceOf",
      "outputs": [
        {
          "internalType": "uint256",
          "name": "",
          "type": "uint256"
        }
      ],
      "stateMutability": "view",
      "type": "function"
    },
    {
      "inputs": [
        {
          "internalType": "uint256",
          "name": "tokenId",
          "type": "uint256"
        }
      ],
      "name": "ownerOf",
      "outputs": [
        {
          "internalType": "address",
          "name": "",
          "type": "address"
        }
      ],
      "stateMutability": "view",
      "type": "function"
    },
    {
      "inputs": [],
      "name": "name",
      "outputs": [
        {
          "internalType": "string",
          "name": "",
          "type": "string"
        }
      ],
      "stateMutability": "view",
      "type": "function"
    },
    {
      "inputs": [],
      "name": "symbol",
      "outputs": [
        {
          "internalType": "string",
          "name": "",
          "type": "string"
        }
      ],
      "stateMutability": "view",
      "type": "function"
    },
    {
      "inputs": [
        {
          "internalType": "uint256",
          "name": "tokenId",
          "type": "uint256"
        }
      ],
      "name": "tokenURI",
      "outputs": [
        {
          "internalType": "string",
          "name": "",
          "type": "string"
        }
      ],
      "stateMutability": "view",
      "type": "function"
    },
    {
      "inputs": [],
      "name": "baseURI",
      "outputs": [
        {
          "internalType": "string",
          "name": "",
          "type": "string"
        }
      ],
      "stateMutability": "view",
      "type": "function"
    },
    {
      "inputs": [
        {
          "internalType": "uint256",
          "name": "tokenId",
          "type": "uint256"
        }
      ],
      "name": "royaltyFee",
      "outputs": [
        {
          "internalType": "uint256",
          "name": "",
          "type": "uint256"
        }
      ],
      "stateMutability": "view",
      "type": "function"
    },
    {
      "inputs": [
        {
          "internalType": "uint256",
          "name": "tokenId",
          "type": "uint256"
        }
      ],
      "name": "getCreator",
      "outputs": [
        {
          "internalType": "address",
          "name": "",
          "type": "address"
        }
      ],
      "stateMutability": "view",
      "type": "function"
    },
    {
      "inputs": [
        {
          "internalType": "address",
          "name": "owner",
          "type": "address"
        },
        {
          "internalType": "uint256",
          "name": "index",
          "type": "uint256"
        }
      ],
      "name": "tokenOfOwnerByIndex",
      "outputs": [
        {
          "internalType": "uint256",
          "name": "",
          "type": "uint256"
        }
      ],
      "stateMutability": "view",
      "type": "function"
    },
    {
      "inputs": [],
      "name": "totalSupply",
      "outputs": [
        {
          "internalType": "uint256",
          "name": "",
          "type": "uint256"
        }
      ],
      "stateMutability": "view",
      "type": "function"
    },
    {
      "inputs": [
        {
          "internalType": "uint256",
          "name": "index",
          "type": "uint256"
        }
      ],
      "name": "tokenByIndex",
      "outputs": [
        {
          "internalType": "uint256",
          "name": "",
          "type": "uint256"
        }
      ],
      "stateMutability": "view",
      "type": "function"
    },
    {
      "inputs": [
        {
          "internalType": "address",
          "name": "to",
          "type": "address"
        },
        {
          "internalType": "uint256",
          "name": "tokenId",
          "type": "uint256"
        }
      ],
      "name": "approve",
      "outputs": [],
      "stateMutability": "nonpayable",
      "type": "function"
    },
    {
      "inputs": [
        {
          "internalType": "uint256",
          "name": "tokenId",
          "type": "uint256"
        }
      ],
      "name": "getApproved",
      "outputs": [
        {
          "internalType": "address",
          "name": "",
          "type": "address"
        }
      ],
      "stateMutability": "view",
      "type": "function"
    },
    {
      "inputs": [
        {
          "internalType": "address",
          "name": "operator",
          "type": "address"
        },
        {
          "internalType": "bool",
          "name": "approved",
          "type": "bool"
        }
      ],
      "name": "setApprovalForAll",
      "outputs": [],
      "stateMutability": "nonpayable",
      "type": "function"
    },
    {
      "inputs": [
        {
          "internalType": "address",
          "name": "owner",
          "type": "address"
        },
        {
          "internalType": "address",
          "name": "operator",
          "type": "address"
        }
      ],
      "name": "isApprovedForAll",
      "outputs": [
        {
          "internalType": "bool",
          "name": "",
          "type": "bool"
        }
      ],
      "stateMutability": "view",
      "type": "function"
    },
    {
      "inputs": [
        {
          "internalType": "address",
          "name": "from",
          "type": "address"
        },
        {
          "internalType": "address",
          "name": "to",
          "type": "address"
        },
        {
          "internalType": "uint256",
          "name": "tokenId",
          "type": "uint256"
        }
      ],
      "name": "transferFrom",
      "outputs": [],
      "stateMutability": "nonpayable",
      "type": "function"
    },
    {
      "inputs": [
        {
          "internalType": "address",
          "name": "from",
          "type": "address"
        },
        {
          "internalType": "address",
          "name": "to",
          "type": "address"
        },
        {
          "internalType": "uint256",
          "name": "tokenId",
          "type": "uint256"
        }
      ],
      "name": "safeTransferFrom",
      "outputs": [],
      "stateMutability": "nonpayable",
      "type": "function"
    },
    {
      "inputs": [
        {
          "internalType": "address",
          "name": "from",
          "type": "address"
        },
        {
          "internalType": "address",
          "name": "to",
          "type": "address"
        },
        {
          "internalType": "uint256",
          "name": "tokenId",
          "type": "uint256"
        },
        {
          "internalType": "bytes",
          "name": "_data",
          "type": "bytes"
        }
      ],
      "name": "safeTransferFrom",
      "outputs": [],
      "stateMutability": "nonpayable",
      "type": "function"
    }
  ],
  "bytecode": "0x608060405260405180602001604052806000815250600b908162000024919062000435565b503480156200003257600080fd5b506040516200368c3803806200368c83398181016040528101906200005891906200068a565b620000706301ffc9a760e01b620000e460201b60201c565b816006908162000081919062000435565b50806007908162000093919062000435565b50620000ac6380ac58cd60e01b620000e460201b60201c565b620000c4635b5e139f60e01b620000e460201b60201c565b620000dc63780e9d6360e01b620000e460201b60201c565b505062000792565b63ffffffff60e01b817bffffffffffffffffffffffffffffffffffffffffffffffffffffffff1916036200014f576040517f08c379a0000000000000000000000000000000000000000000000000000000008152600401620001469062000770565b60405180910390fd5b6001600080837bffffffffffffffffffffffffffffffffffffffffffffffffffffffff19167bffffffffffffffffffffffffffffffffffffffffffffffffffffffff1916815260200190815260200160002060006101000a81548160ff02191690831515021790555050565b600081519050919050565b7f4e487b7100000000000000000000000000000000000000000000000000000000600052604160045260246000fd5b7f4e487b7100000000000000000000000000000000000000000000000000000000600052602260045260246000fd5b600060028204905060018216806200023d57607f821691505b602082108103620002535762000252620001f5565b5b50919050565b60008190508160005260206000209050919050565b60006020601f8301049050919050565b600082821b905092915050565b600060088302620002bd7fffffffffffffffffffffffffffffffffffffffffffffffffffffffffffffffff826200027e565b620002c986836200027e565b95508019841693508086168417925050509392505050565b6000819050919050565b6000819050919050565b600062000316620003106200030a84620002e1565b620002eb565b620002e1565b9050919050565b6000819050919050565b6200033283620002f5565b6200034a62000341826200031d565b8484546200028b565b825550505050565b600090565b6200036162000352565b6200036e81848462000327565b505050565b5b8181101562000396576200038a60008262000357565b60018101905062000374565b5050565b601f821115620003e557620003af8162000259565b620003ba846200026e565b81016020851015620003ca578190505b620003e2620003d9856200026e565b83018262000373565b50505b505050565b600082821c905092915050565b60006200040a60001984600802620003ea565b1980831691505092915050565b6000620004258383620003f7565b9150826002028217905092915050565b6200044082620001bb565b67ffffffffffffffff8111156200045c576200045b620001c6565b5b62000468825462000224565b620004758282856200039a565b600060209050601f831160018114620004ad576000841562000498578287015190505b620004a4858262000417565b86555062000514565b601f198416620004bd8662000259565b60005b82811015620004e757848901518255600182019150602085019450602081019050620004c0565b8683101562000507578489015162000503601f891682620003f7565b8355505b6001600288020188555050505b505050505050565b6000604051905090565b600080fd5b600080fd5b600080fd5b600080fd5b6000601f19601f8301169050919050565b62000556826200053a565b810181811067ffffffffffffffff82111715620005785762000577620001c6565b5b80604052505050565b60006200058d6200051c565b90506200059b82826200054b565b919050565b600067ffffffffffffffff821115620005be57620005bd620001c6565b5b620005c9826200053a565b9050602081019050919050565b60005b83811015620005f6578082015181840152602081019050620005d9565b8381111562000606576000848401525b50505050565b6000620006236200061d84620005a0565b62000581565b90508281526020810184848401111562000642576200064162000535565b5b6200064f848285620005d6565b509392505050565b600082601f8301126200066f576200066e62000530565b5b8151620006818482602086016200060c565b91505092915050565b60008060408385031215620006a457620006a362000526565b5b600083015167ffffffffffffffff811115620006c557620006c46200052b565b5b620006d38582860162000657565b925050602083015167ffffffffffffffff811115620006f757620006f66200052b565b5b620007058582860162000657565b9150509250929050565b600082825260208201905092915050565b7f4552433136353a20696e76616c696420696e7465726661636520696400000000600082015250565b600062000758601c836200070f565b9150620007658262000720565b602082019050919050565b600060208201905081810360008301526200078b8162000749565b9050919050565b612eea80620007a26000396000f3fe608060405234801561001057600080fd5b50600436106101215760003560e01c80636352211e116100ad578063b88d4fde11610071578063b88d4fde1461032e578063c57dc2351461034a578063c87b56dd1461037a578063d48e638a146103aa578063e985e9c5146103da57610121565b80636352211e146102765780636c0360eb146102a657806370a08231146102c457806395d89b41146102f4578063a22cb4651461031257610121565b806318160ddd116100f457806318160ddd146101c057806323b872dd146101de5780632f745c59146101fa57806342842e0e1461022a5780634f6ccce71461024657610121565b806301ffc9a71461012657806306fdde0314610156578063081812fc14610174578063095ea7b3146101a4575b600080fd5b610140600480360381019061013b9190611cb9565b61040a565b60405161014d9190611d01565b60405180910390f35b61015e610471565b60405161016b9190611db5565b60405180910390f35b61018e60048036038101906101899190611e0d565b610503565b60405161019b9190611e7b565b60405180910390f35b6101be60048036038101906101b99190611ec2565b610588565b005b6101c861069f565b6040516101d59190611f11565b60405180910390f35b6101f860048036038101906101f39190611f2c565b6106b0565b005b610214600480360381019061020f9190611ec2565b610710565b6040516102219190611f11565b60405180910390f35b610244600480360381019061023f9190611f2c565b61076b565b005b610260600480360381019061025b9190611e0d565b61078b565b60405161026d9190611f11565b60405180910390f35b610290600480360381019061028b9190611e0d565b6107ae565b60405161029d9190611e7b565b60405180910390f35b6102ae6107e5565b6040516102bb9190611db5565b60405180910390f35b6102de60048036038101906102d99190611f7f565b610877565b6040516102eb9190611f11565b60405180910390f35b6102fc610935565b6040516103099190611db5565b60405180910390f35b61032c60048036038101906103279190611fd8565b6109c7565b005b6103486004803603810190610343919061214d565b610b47565b005b610364600480360381019061035f9190611e0d565b610ba9565b6040516103719190611f11565b60405180910390f35b610394600480360381019061038f9190611e0d565b610bc6565b6040516103a19190611db5565b60405180910390f35b6103c460048036038101906103bf9190611e0d565b610d38565b6040516103d19190611e7b565b60405180910390f35b6103f460048036038101906103ef91906121d0565b610d75565b6040516104019190611d01565b60405180910390f35b6000806000837bffffffffffffffffffffffffffffffffffffffffffffffffffffffff19167bffffffffffffffffffffffffffffffffffffffffffffffffffffffff1916815260200190815260200160002060009054906101000a900460ff169050919050565b6060600680546104809061223f565b80601f01602080910402602001604051908101604052809291908181526020018280546104ac9061223f565b80156104f95780601f106104ce576101008083540402835291602001916104f9565b820191906000526020600020905b8154815290600101906020018083116104dc57829003601f168201915b5050505050905090565b600061050e82610e09565b61054d576040517f08c379a0000000000000000000000000000000000000000000000000000000008152600401610544906122e2565b60405180910390fd5b6004600083815260200190815260200160002060009054906101000a900473ffffffffffffffffffffffffffffffffffffffff169050919050565b6000610593826107ae565b90508073ffffffffffffffffffffffffffffffffffffffff168373ffffffffffffffffffffffffffffffffffffffff1603610603576040517f08c379a00000000000000000000000000000000000000000000000000000000081526004016105fa90612374565b60405180910390fd5b8073ffffffffffffffffffffffffffffffffffffffff16610622610e26565b73ffffffffffffffffffffffffffffffffffffffff16148061065157506106508161064b610e26565b610d75565b5b610690576040517f08c379a000000000000000000000000000000000000000000000000000000000815260040161068790612406565b60405180910390fd5b61069a8383610e2e565b505050565b60006106ab6002610ee7565b905090565b6106c16106bb610e26565b82610efc565b610700576040517f08c379a00000000000000000000000000000000000000000000000000000000081526004016106f790612498565b60405180910390fd5b61070b838383610fda565b505050565b600061076382600160008673ffffffffffffffffffffffffffffffffffffffff1673ffffffffffffffffffffffffffffffffffffffff1681526020019081526020016000206111ee90919063ffffffff16565b905092915050565b61078683838360405180602001604052806000815250610b47565b505050565b6000806107a283600261120890919063ffffffff16565b50905080915050919050565b60006107de82604051806060016040528060298152602001612e8c6029913960026112349092919063ffffffff16565b9050919050565b6060600b80546107f49061223f565b80601f01602080910402602001604051908101604052809291908181526020018280546108209061223f565b801561086d5780601f106108425761010080835404028352916020019161086d565b820191906000526020600020905b81548152906001019060200180831161085057829003601f168201915b5050505050905090565b60008073ffffffffffffffffffffffffffffffffffffffff168273ffffffffffffffffffffffffffffffffffffffff16036108e7576040517f08c379a00000000000000000000000000000000000000000000000000000000081526004016108de9061252a565b60405180910390fd5b61092e600160008473ffffffffffffffffffffffffffffffffffffffff1673ffffffffffffffffffffffffffffffffffffffff168152602001908152602001600020611253565b9050919050565b6060600780546109449061223f565b80601f01602080910402602001604051908101604052809291908181526020018280546109709061223f565b80156109bd5780601f10610992576101008083540402835291602001916109bd565b820191906000526020600020905b8154815290600101906020018083116109a057829003601f168201915b5050505050905090565b6109cf610e26565b73ffffffffffffffffffffffffffffffffffffffff168273ffffffffffffffffffffffffffffffffffffffff1603610a3c576040517f08c379a0000000000000000000000000000000000000000000000000000000008152600401610a3390612596565b60405180910390fd5b8060056000610a49610e26565b73ffffffffffffffffffffffffffffffffffffffff1673ffffffffffffffffffffffffffffffffffffffff16815260200190815260200160002060008473ffffffffffffffffffffffffffffffffffffffff1673ffffffffffffffffffffffffffffffffffffffff16815260200190815260200160002060006101000a81548160ff0219169083151502179055508173ffffffffffffffffffffffffffffffffffffffff16610af6610e26565b73ffffffffffffffffffffffffffffffffffffffff167f17307eab39ab6107e8899845ad3d59bd9653f200f220920489ca2b5937696c3183604051610b3b9190611d01565b60405180910390a35050565b610b58610b52610e26565b83610efc565b610b97576040517f08c379a0000000000000000000000000000000000000000000000000000000008152600401610b8e90612498565b60405180910390fd5b610ba384848484611268565b50505050565b600060096000838152602001908152602001600020549050919050565b6060610bd182610e09565b610c10576040517f08c379a0000000000000000000000000000000000000000000000000000000008152600401610c0790612628565b60405180910390fd5b6000600860008481526020019081526020016000208054610c309061223f565b80601f0160208091040260200160405190810160405280929190818152602001828054610c5c9061223f565b8015610ca95780601f10610c7e57610100808354040283529160200191610ca9565b820191906000526020600020905b815481529060010190602001808311610c8c57829003601f168201915b505050505090506000610cba6107e5565b90506000815103610ccf578192505050610d33565b600082511115610d04578082604051602001610cec929190612684565b60405160208183030381529060405292505050610d33565b80610d0e856112c4565b604051602001610d1f929190612684565b604051602081830303815290604052925050505b919050565b6000600a600083815260200190815260200160002060009054906101000a900473ffffffffffffffffffffffffffffffffffffffff169050919050565b6000600560008473ffffffffffffffffffffffffffffffffffffffff1673ffffffffffffffffffffffffffffffffffffffff16815260200190815260200160002060008373ffffffffffffffffffffffffffffffffffffffff1673ffffffffffffffffffffffffffffffffffffffff16815260200190815260200160002060009054906101000a900460ff16905092915050565b6000610e1f82600261142490919063ffffffff16565b9050919050565b600033905090565b816004600083815260200190815260200160002060006101000a81548173ffffffffffffffffffffffffffffffffffffffff021916908373ffffffffffffffffffffffffffffffffffffffff160217905550808273ffffffffffffffffffffffffffffffffffffffff16610ea1836107ae565b73ffffffffffffffffffffffffffffffffffffffff167f8c5be1e5ebec7d5bd14f71427d1e84f3dd0314c0f7b2291e5b200ac8c7c3b92560405160405180910390a45050565b6000610ef58260000161143e565b9050919050565b6000610f0782610e09565b610f46576040517f08c379a0000000000000000000000000000000000000000000000000000000008152600401610f3d9061271a565b60405180910390fd5b6000610f51836107ae565b90508073ffffffffffffffffffffffffffffffffffffffff168473ffffffffffffffffffffffffffffffffffffffff161480610fc057508373ffffffffffffffffffffffffffffffffffffffff16610fa884610503565b73ffffffffffffffffffffffffffffffffffffffff16145b80610fd15750610fd08185610d75565b5b91505092915050565b8273ffffffffffffffffffffffffffffffffffffffff16610ffa826107ae565b73ffffffffffffffffffffffffffffffffffffffff1614611050576040517f08c379a0000000000000000000000000000000000000000000000000000000008152600401611047906127ac565b60405180910390fd5b600073ffffffffffffffffffffffffffffffffffffffff168273ffffffffffffffffffffffffffffffffffffffff16036110bf576040517f08c379a00000000000000000000000000000000000000000000000000000000081526004016110b69061283e565b60405180910390fd5b6110ca83838361144f565b6110d5600082610e2e565b61112681600160008673ffffffffffffffffffffffffffffffffffffffff1673ffffffffffffffffffffffffffffffffffffffff16815260200190815260200160002061145490919063ffffffff16565b61117781600160008573ffffffffffffffffffffffffffffffffffffffff1673ffffffffffffffffffffffffffffffffffffffff16815260200190815260200160002061146990919063ffffffff16565b61118d8183600261147e9092919063ffffffff16565b50808273ffffffffffffffffffffffffffffffffffffffff168473ffffffffffffffffffffffffffffffffffffffff167fddf252ad1be2c89b69c2b068fc378daa952ba7f163c4a11628f55a4df523b3ef60405160405180910390a4505050565b60006111fd83600001836114b3565b60001c905092915050565b60008060008061121b8660000186611527565b915091508160001c8160001c9350935050509250929050565b6000611247846000018460001b846115b1565b60001c90509392505050565b600061126182600001611652565b9050919050565b611273848484610fda565b61127f84848484611663565b6112be576040517f08c379a00000000000000000000000000000000000000000000000000000000081526004016112b5906128d0565b60405180910390fd5b50505050565b60606000820361130b576040518060400160405280600181526020017f3000000000000000000000000000000000000000000000000000000000000000815250905061141f565b600082905060005b6000821461133d5780806113269061291f565b915050600a826113369190612996565b9150611313565b60008167ffffffffffffffff81111561135957611358612022565b5b6040519080825280601f01601f19166020018201604052801561138b5781602001600182028036833780820191505090505b5090505b60008514611418576001826113a491906129c7565b9150600a856113b391906129fb565b60306113bf9190612a2c565b60f81b8183815181106113d5576113d4612a82565b5b60200101907effffffffffffffffffffffffffffffffffffffffffffffffffffffffffffff1916908160001a905350600a856114119190612996565b945061138f565b8093505050505b919050565b6000611436836000018360001b6117c7565b905092915050565b600081600001805490509050919050565b505050565b611464826000018260001b6117ea565b505050565b611479826000018260001b611902565b505050565b60006114aa846000018460001b8473ffffffffffffffffffffffffffffffffffffffff1660001b611972565b90509392505050565b6000818360000180549050116114fe576040517f08c379a00000000000000000000000000000000000000000000000000000000081526004016114f590612b23565b60405180910390fd5b82600001828154811061151457611513612a82565b5b9060005260206000200154905092915050565b60008082846000018054905011611573576040517f08c379a000000000000000000000000000000000000000000000000000000000815260040161156a90612bb5565b60405180910390fd5b600084600001848154811061158b5761158a612a82565b5b906000526020600020906002020190508060000154816001015492509250509250929050565b60008084600101600085815260200190815260200160002054905060008114158390611613576040517f08c379a000000000000000000000000000000000000000000000000000000000815260040161160a9190611db5565b60405180910390fd5b508460000160018261162591906129c7565b8154811061163657611635612a82565b5b9060005260206000209060020201600101549150509392505050565b600081600001805490509050919050565b60006116848473ffffffffffffffffffffffffffffffffffffffff16611a5d565b61169157600190506117bf565b600061175863150b7a0260e01b6116a6610e26565b8887876040516024016116bc9493929190612c4b565b604051602081830303815290604052907bffffffffffffffffffffffffffffffffffffffffffffffffffffffff19166020820180517bffffffffffffffffffffffffffffffffffffffffffffffffffffffff8381831617835250505050604051806060016040528060328152602001612e5a603291398773ffffffffffffffffffffffffffffffffffffffff16611a809092919063ffffffff16565b90506000818060200190518101906117709190612cac565b905063150b7a0260e01b7bffffffffffffffffffffffffffffffffffffffffffffffffffffffff1916817bffffffffffffffffffffffffffffffffffffffffffffffffffffffff191614925050505b949350505050565b600080836001016000848152602001908152602001600020541415905092915050565b600080836001016000848152602001908152602001600020549050600081146118f657600060018261181c91906129c7565b905060006001866000018054905061183491906129c7565b9050600086600001828154811061184e5761184d612a82565b5b906000526020600020015490508087600001848154811061187257611871612a82565b5b906000526020600020018190555060018361188d9190612a2c565b87600101600083815260200190815260200160002081905550866000018054806118ba576118b9612cd9565b5b600190038181906000526020600020016000905590558660010160008781526020019081526020016000206000905560019450505050506118fc565b60009150505b92915050565b600061190e8383611a98565b61196757826000018290806001815401808255809150506001900390600052602060002001600090919091909150558260000180549050836001016000848152602001908152602001600020819055506001905061196c565b600090505b92915050565b60008084600101600085815260200190815260200160002054905060008103611a1857846000016040518060400160405280868152602001858152509080600181540180825580915050600190039060005260206000209060020201600090919091909150600082015181600001556020820151816001015550508460000180549050856001016000868152602001908152602001600020819055506001915050611a56565b8285600001600183611a2a91906129c7565b81548110611a3b57611a3a612a82565b5b90600052602060002090600202016001018190555060009150505b9392505050565b6000808273ffffffffffffffffffffffffffffffffffffffff163b119050919050565b6060611a8f8484600085611abb565b90509392505050565b600080836001016000848152602001908152602001600020541415905092915050565b606082471015611b00576040517f08c379a0000000000000000000000000000000000000000000000000000000008152600401611af790612d7a565b60405180910390fd5b6000808673ffffffffffffffffffffffffffffffffffffffff168587604051611b299190612dd6565b60006040518083038185875af1925050503d8060008114611b66576040519150601f19603f3d011682016040523d82523d6000602084013e611b6b565b606091505b5091509150611b7c87838387611b88565b92505050949350505050565b60608315611bea576000835103611be257611ba285611a5d565b611be1576040517f08c379a0000000000000000000000000000000000000000000000000000000008152600401611bd890612e39565b60405180910390fd5b5b829050611bf5565b611bf48383611bfd565b5b949350505050565b600082511115611c105781518083602001fd5b806040517f08c379a0000000000000000000000000000000000000000000000000000000008152600401611c449190611db5565b60405180910390fd5b6000604051905090565b600080fd5b600080fd5b60007fffffffff0000000000000000000000000000000000000000000000000000000082169050919050565b611c9681611c61565b8114611ca157600080fd5b50565b600081359050611cb381611c8d565b92915050565b600060208284031215611ccf57611cce611c57565b5b6000611cdd84828501611ca4565b91505092915050565b60008115159050919050565b611cfb81611ce6565b82525050565b6000602082019050611d166000830184611cf2565b92915050565b600081519050919050565b600082825260208201905092915050565b60005b83811015611d56578082015181840152602081019050611d3b565b83811115611d65576000848401525b50505050565b6000601f19601f8301169050919050565b6000611d8782611d1c565b611d918185611d27565b9350611da1818560208601611d38565b611daa81611d6b565b840191505092915050565b60006020820190508181036000830152611dcf8184611d7c565b905092915050565b6000819050919050565b611dea81611dd7565b8114611df557600080fd5b50565b600081359050611e0781611de1565b92915050565b600060208284031215611e2357611e22611c57565b5b6000611e3184828501611df8565b91505092915050565b600073ffffffffffffffffffffffffffffffffffffffff82169050919050565b6000611e6582611e3a565b9050919050565b611e7581611e5a565b82525050565b6000602082019050611e906000830184611e6c565b92915050565b611e9f81611e5a565b8114611eaa57600080fd5b50565b600081359050611ebc81611e96565b92915050565b60008060408385031215611ed957611ed8611c57565b5b6000611ee785828601611ead565b9250506020611ef885828601611df8565b9150509250929050565b611f0b81611dd7565b82525050565b6000602082019050611f266000830184611f02565b92915050565b600080600060608486031215611f4557611f44611c57565b5b6000611f5386828701611ead565b9350506020611f6486828701611ead565b9250506040611f7586828701611df8565b9150509250925092565b600060208284031215611f9557611f94611c57565b5b6000611fa384828501611ead565b91505092915050565b611fb581611ce6565b8114611fc057600080fd5b50565b600081359050611fd281611fac565b92915050565b60008060408385031215611fef57611fee611c57565b5b6000611ffd85828601611ead565b925050602061200e85828601611fc3565b9150509250929050565b600080fd5b600080fd5b7f4e487b7100000000000000000000000000000000000000000000000000000000600052604160045260246000fd5b61205a82611d6b565b810181811067ffffffffffffffff8211171561207957612078612022565b5b80604052505050565b600061208c611c4d565b90506120988282612051565b919050565b600067ffffffffffffffff8211156120b8576120b7612022565b5b6120c182611d6b565b9050602081019050919050565b82818337600083830152505050565b60006120f06120eb8461209d565b612082565b90508281526020810184848401111561210c5761210b61201d565b5b6121178482856120ce565b509392505050565b600082601f83011261213457612133612018565b5b81356121448482602086016120dd565b91505092915050565b6000806000806080858703121561216757612166611c57565b5b600061217587828801611ead565b945050602061218687828801611ead565b935050604061219787828801611df8565b925050606085013567ffffffffffffffff8111156121b8576121b7611c5c565b5b6121c48782880161211f565b91505092959194509250565b600080604083850312156121e7576121e6611c57565b5b60006121f585828601611ead565b925050602061220685828601611ead565b9150509250929050565b7f4e487b7100000000000000000000000000000000000000000000000000000000600052602260045260246000fd5b6000600282049050600182168061225757607f821691505b60208210810361226a57612269612210565b5b50919050565b7f4552433732313a20617070726f76656420717565727920666f72206e6f6e657860008201527f697374656e7420746f6b656e0000000000000000000000000000000000000000602082015250565b60006122cc602c83611d27565b91506122d782612270565b604082019050919050565b600060208201905081810360008301526122fb816122bf565b9050919050565b7f4552433732313a20617070726f76616c20746f2063757272656e74206f776e6560008201527f7200000000000000000000000000000000000000000000000000000000000000602082015250565b600061235e602183611d27565b915061236982612302565b604082019050919050565b6000602082019050818103600083015261238d81612351565b9050919050565b7f4552433732313a20617070726f76652063616c6c6572206973206e6f74206f7760008201527f6e6572206e6f7220617070726f76656420666f7220616c6c0000000000000000602082015250565b60006123f0603883611d27565b91506123fb82612394565b604082019050919050565b6000602082019050818103600083015261241f816123e3565b9050919050565b7f4552433732313a207472616e736665722063616c6c6572206973206e6f74206f60008201527f776e6572206e6f7220617070726f766564000000000000000000000000000000602082015250565b6000612482603183611d27565b915061248d82612426565b604082019050919050565b600060208201905081810360008301526124b181612475565b9050919050565b7f4552433732313a2062616c616e636520717565727920666f7220746865207a6560008201527f726f206164647265737300000000000000000000000000000000000000000000602082015250565b6000612514602a83611d27565b915061251f826124b8565b604082019050919050565b6000602082019050818103600083015261254381612507565b9050919050565b7f4552433732313a20617070726f766520746f2063616c6c657200000000000000600082015250565b6000612580601983611d27565b915061258b8261254a565b602082019050919050565b600060208201905081810360008301526125af81612573565b9050919050565b7f4552433732314d657461646174613a2055524920717565727920666f72206e6f60008201527f6e6578697374656e7420746f6b656e0000000000000000000000000000000000602082015250565b6000612612602f83611d27565b915061261d826125b6565b604082019050919050565b6000602082019050818103600083015261264181612605565b9050919050565b600081905092915050565b600061265e82611d1c565b6126688185612648565b9350612678818560208601611d38565b80840191505092915050565b60006126908285612653565b915061269c8284612653565b91508190509392505050565b7f4552433732313a206f70657261746f7220717565727920666f72206e6f6e657860008201527f697374656e7420746f6b656e0000000000000000000000000000000000000000602082015250565b6000612704602c83611d27565b915061270f826126a8565b604082019050919050565b60006020820190508181036000830152612733816126f7565b9050919050565b7f4552433732313a207472616e73666572206f6620746f6b656e2074686174206960008201527f73206e6f74206f776e0000000000000000000000000000000000000000000000602082015250565b6000612796602983611d27565b91506127a18261273a565b604082019050919050565b600060208201905081810360008301526127c581612789565b9050919050565b7f4552433732313a207472616e7366657220746f20746865207a65726f2061646460008201527f7265737300000000000000000000000000000000000000000000000000000000602082015250565b6000612828602483611d27565b9150612833826127cc565b604082019050919050565b600060208201905081810360008301526128578161281b565b9050919050565b7f4552433732313a207472616e7366657220746f206e6f6e20455243373231526560008201527f63656976657220696d706c656d656e7465720000000000000000000000000000602082015250565b60006128ba603283611d27565b91506128c58261285e565b604082019050919050565b600060208201905081810360008301526128e9816128ad565b9050919050565b7f4e487b7100000000000000000000000000000000000000000000000000000000600052601160045260246000fd5b600061292a82611dd7565b91507fffffffffffffffffffffffffffffffffffffffffffffffffffffffffffffffff820361295c5761295b6128f0565b5b600182019050919050565b7f4e487b7100000000000000000000000000000000000000000000000000000000600052601260045260246000fd5b60006129a182611dd7565b91506129ac83611dd7565b9250826129bc576129bb612967565b5b828204905092915050565b60006129d282611dd7565b91506129dd83611dd7565b9250828210156129f0576129ef6128f0565b5b828203905092915050565b6000612a0682611dd7565b9150612a1183611dd7565b925082612a2157612a20612967565b5b828206905092915050565b6000612a3782611dd7565b9150612a4283611dd7565b9250827fffffffffffffffffffffffffffffffffffffffffffffffffffffffffffffffff03821115612a7757612a766128f0565b5b828201905092915050565b7f4e487b7100000000000000000000000000000000000000000000000000000000600052603260045260246000fd5b7f456e756d657261626c655365743a20696e646578206f7574206f6620626f756e60008201527f6473000000000000000000000000000000000000000000000000000000000000602082015250565b6000612b0d602283611d27565b9150612b1882612ab1565b604082019050919050565b60006020820190508181036000830152612b3c81612b00565b9050919050565b7f456e756d657261626c654d61703a20696e646578206f7574206f6620626f756e60008201527f6473000000000000000000000000000000000000000000000000000000000000602082015250565b6000612b9f602283611d27565b9150612baa82612b43565b604082019050919050565b60006020820190508181036000830152612bce81612b92565b9050919050565b6000612be082611e3a565b9050919050565b612bf081612bd5565b82525050565b600081519050919050565b600082825260208201905092915050565b6000612c1d82612bf6565b612c278185612c01565b9350612c37818560208601611d38565b612c4081611d6b565b840191505092915050565b6000608082019050612c606000830187612be7565b612c6d6020830186611e6c565b612c7a6040830185611f02565b8181036060830152612c8c8184612c12565b905095945050505050565b600081519050612ca681611c8d565b92915050565b600060208284031215612cc257612cc1611c57565b5b6000612cd084828501612c97565b91505092915050565b7f4e487b7100000000000000000000000000000000000000000000000000000000600052603160045260246000fd5b7f416464726573733a20696e73756666696369656e742062616c616e636520666f60008201527f722063616c6c0000000000000000000000000000000000000000000000000000602082015250565b6000612d64602683611d27565b9150612d6f82612d08565b604082019050919050565b60006020820190508181036000830152612d9381612d57565b9050919050565b600081905092915050565b6000612db082612bf6565b612dba8185612d9a565b9350612dca818560208601611d38565b80840191505092915050565b6000612de28284612da5565b915081905092915050565b7f416464726573733a2063616c6c20746f206e6f6e2d636f6e7472616374000000600082015250565b6000612e23601d83611d27565b9150612e2e82612ded565b602082019050919050565b60006020820190508181036000830152612e5281612e16565b905091905056fe4552433732313a207472616e7366657220746f206e6f6e20455243373231526563656976657220696d706c656d656e7465724552433732313a206f776e657220717565727920666f72206e6f6e6578697374656e7420746f6b656ea26469706673582212202d54ffc8e11986485ac1d8b068fef43f1efc1c2ba2082747d17aa92974adc74e64736f6c634300080f0033",
  "immutableReferences": {},
  "source": "// SPDX-License-Identifier: MIT\r\n// OpenZeppelin Contracts (last updated v4.7.0) \r\n\r\npragma solidity ^0.8.4;\r\n\r\nimport \"./External/Context.sol\";\r\nimport \"./External/ERC165.sol\";\r\nimport \"./External/IERC721.sol\";\r\nimport \"./External/IERC721Metadata.sol\";\r\nimport \"./External/IERC721Enumerable.sol\";\r\nimport \"./External/Address.sol\";\r\nimport \"./External/EnumerableMap.sol\";\r\nimport \"./External/EnumerableSet.sol\";\r\nimport \"./External/Strings.sol\";\r\nimport \"./External/IERC721Receiver.sol\";\r\n\r\n\r\ncontract ERC721 is Context, ERC165, IERC721, IERC721Metadata, IERC721Enumerable {\r\n    \r\n    using Address for address;\r\n    using EnumerableSet for EnumerableSet.UintSet;\r\n    using EnumerableMap for EnumerableMap.UintToAddressMap;\r\n    using Strings for uint256;\r\n\r\n    bytes4 private constant _ERC721_RECEIVED = 0x150b7a02;\r\n\r\n    // Mapping from token ID to account balances\r\n\r\n    mapping (address => EnumerableSet.UintSet) private _holderTokens;\r\n\r\n    EnumerableMap.UintToAddressMap private _tokenOwners;\r\n\r\n     // Mapping from tokenId to operator approvals\r\n\r\n    mapping (uint256 => address) private _tokenApprovals;\r\n\r\n    // Mapping from account to operator approvals\r\n\r\n    mapping (address => mapping (address => bool)) private _operatorApprovals;\r\n\r\n    string private _name;\r\n\r\n    string private _symbol;\r\n\r\n    // mapping for token URIs\r\n\r\n    mapping (uint256 => string) private _tokenURIs;\r\n\r\n   // mapping for token royaltyFee    \r\n\r\n    mapping(uint256 => uint256) private _royaltyFee;\r\n\r\n  // mapping for token creator\r\n\r\n    mapping (uint256 => address) private _creator;\r\n\r\n    string private _baseURI = \"\";\r\n\r\n    bytes4 private constant _INTERFACE_ID_ERC721 = 0x80ac58cd;\r\n\r\n    bytes4 private constant _INTERFACE_ID_ERC721_METADATA = 0x5b5e139f;\r\n\r\n    bytes4 private constant _INTERFACE_ID_ERC721_ENUMERABLE = 0x780e9d63;\r\n\r\n    constructor (string memory name_, string memory symbol_) {\r\n        _name = name_;\r\n        _symbol = symbol_;\r\n\r\n        _registerInterface(_INTERFACE_ID_ERC721);\r\n        _registerInterface(_INTERFACE_ID_ERC721_METADATA);\r\n        _registerInterface(_INTERFACE_ID_ERC721_ENUMERABLE);\r\n    }\r\n\r\n    /**\r\n        @notice Get the Token balance of an account's.\r\n        @param owner  The address of the token holder\r\n        @return        The account's balance of the Token type requested\r\n     */\r\n\r\n    function balanceOf(address owner) external view virtual override returns (uint256) {\r\n        require(owner != address(0), \"ERC721: balance query for the zero address\");\r\n        return _holderTokens[owner].length();\r\n    }\r\n\r\n    /**\r\n        @notice Get the owner of tokenId.\r\n        @param tokenId  The tokenId of the token holder\r\n        @return        The current owner of the requested tokenId\r\n     */\r\n\r\n    function ownerOf(uint256 tokenId) public view virtual override returns (address) {\r\n        return _tokenOwners.get(tokenId, \"ERC721: owner query for nonexistent token\");\r\n    }\r\n\r\n    function name() external view virtual override returns (string memory) {\r\n        return _name;\r\n    }\r\n\r\n    function symbol() external view virtual override returns (string memory) {\r\n        return _symbol;\r\n    }\r\n\r\n    function tokenURI(uint256 tokenId) external view virtual override returns (string memory) {\r\n        require(_exists(tokenId), \"ERC721Metadata: URI query for nonexistent token\");\r\n\r\n        string memory _tokenURI = _tokenURIs[tokenId];\r\n        string memory base = baseURI();\r\n\r\n        if (bytes(base).length == 0) {\r\n            return _tokenURI;\r\n        }\r\n        if (bytes(_tokenURI).length > 0) {\r\n            return string(abi.encodePacked(base, _tokenURI));\r\n        }\r\n        return string(abi.encodePacked(base, tokenId.toString()));\r\n    }\r\n\r\n    function baseURI() public view virtual returns (string memory) {\r\n        return _baseURI;\r\n    }\r\n\r\n    function royaltyFee(uint256 tokenId) external view override returns(uint256) {\r\n        return _royaltyFee[tokenId];\r\n    }\r\n\r\n    function getCreator(uint256 tokenId) external view override returns(address) {\r\n        return _creator[tokenId];\r\n    }\r\n\r\n    function tokenOfOwnerByIndex(address owner, uint256 index) external view virtual override returns (uint256) {\r\n        return _holderTokens[owner].at(index);\r\n    }\r\n\r\n    function totalSupply() external view virtual override returns (uint256) {\r\n        return _tokenOwners.length();\r\n    }\r\n\r\n    function tokenByIndex(uint256 index) external view virtual override returns (uint256) {\r\n        (uint256 tokenId, ) = _tokenOwners.at(index);\r\n        return tokenId;\r\n    }\r\n\r\n    function approve(address to, uint256 tokenId) external virtual override {\r\n        address owner = ERC721.ownerOf(tokenId);\r\n        require(to != owner, \"ERC721: approval to current owner\");\r\n\r\n        require(_msgSender() == owner || ERC721.isApprovedForAll(owner, _msgSender()),\r\n            \"ERC721: approve caller is not owner nor approved for all\"\r\n        );\r\n\r\n        _approve(to, tokenId);\r\n    }\r\n\r\n    function getApproved(uint256 tokenId) public view virtual override returns (address) {\r\n        require(_exists(tokenId), \"ERC721: approved query for nonexistent token\");\r\n\r\n        return _tokenApprovals[tokenId];\r\n    }\r\n\r\n    /**\r\n        @notice Enable or disable approval for a third party (\"operator\") to manage all of the caller's tokens.\r\n        @dev MUST emit the ApprovalForAll event on success.\r\n        @param operator  Address to add to the set of authorized operators\r\n        @param approved  True if the operator is approved, false to revoke approval\r\n    */\r\n\r\n    function setApprovalForAll(address operator, bool approved) external virtual override {\r\n        require(operator != _msgSender(), \"ERC721: approve to caller\");\r\n\r\n        _operatorApprovals[_msgSender()][operator] = approved;\r\n        emit ApprovalForAll(_msgSender(), operator, approved);\r\n    }\r\n\r\n    /**\r\n        @notice Queries the approval status of an operator for a given owner.\r\n        @param owner     The owner of the Tokens\r\n        @param operator  Address of authorized operator\r\n        @return           True if the operator is approved, false if not\r\n    */\r\n\r\n    function isApprovedForAll(address owner, address operator) public view virtual override returns (bool) {\r\n        return _operatorApprovals[owner][operator];\r\n    }\r\n\r\n    function transferFrom(address from, address to, uint256 tokenId) external virtual override {\r\n        require(_isApprovedOrOwner(_msgSender(), tokenId), \"ERC721: transfer caller is not owner nor approved\");\r\n\r\n        _transfer(from, to, tokenId);\r\n    }\r\n\r\n    function safeTransferFrom(address from, address to, uint256 tokenId) external virtual override {\r\n        safeTransferFrom(from, to, tokenId, \"\");\r\n    }\r\n\r\n\r\n    /**\r\n        @notice Transfers `_value` amount of an `_id` from the `_from` address to the `_to` address specified (with safety call).\r\n        @dev Caller must be approved to manage the tokens being transferred out of the `_from` account (see \"Approval\" section of the standard).\r\n        MUST revert if `_to` is the zero address.\r\n        MUST revert if balance of holder for token `_id` is lower than the `_value` sent.\r\n        MUST revert on any other error.\r\n        MUST emit the `TransferSingle` event to reflect the balance change (see \"Safe Transfer Rules\" section of the standard).\r\n        After the above conditions are met, this function MUST check if `_to` is a smart contract (e.g. code size > 0). If so, it MUST call `onERC721Received` on `_to` and act appropriately (see \"Safe Transfer Rules\" section of the standard).\r\n        @param from    Source address\r\n        @param to      Target address\r\n        @param tokenId      ID of the token type.\r\n        @param _data    Additional data with no specified format, MUST be sent unaltered in call to `onERC721Received` on `_to`\r\n    */\r\n\r\n    function safeTransferFrom(address from, address to, uint256 tokenId, bytes memory _data) public virtual override {\r\n        require(_isApprovedOrOwner(_msgSender(), tokenId), \"ERC721: transfer caller is not owner nor approved\");\r\n        _safeTransfer(from, to, tokenId, _data);\r\n\r\n    }\r\n\r\n    function _safeTransfer(address from, address to, uint256 tokenId, bytes memory _data) internal virtual {\r\n        _transfer(from, to, tokenId);\r\n        require(_checkOnERC721Received(from, to, tokenId, _data), \"ERC721: transfer to non ERC721Receiver implementer\");\r\n    }\r\n\r\n    function _exists(uint256 tokenId) internal view virtual returns (bool) {\r\n        return _tokenOwners.contains(tokenId);\r\n    }\r\n\r\n    function _isApprovedOrOwner(address spender, uint256 tokenId) internal view virtual returns (bool) {\r\n        require(_exists(tokenId), \"ERC721: operator query for nonexistent token\");\r\n        address owner = ERC721.ownerOf(tokenId);\r\n        return (spender == owner || getApproved(tokenId) == spender || ERC721.isApprovedForAll(owner, spender));\r\n    }\r\n\r\n    function _safeMint(address to, uint256 tokenId, uint256 fee) internal virtual {\r\n        _safeMint(to, tokenId, fee, \"\");\r\n    }\r\n\r\n    function _safeMint(address to, uint256 tokenId, uint256 fee, bytes memory _data) internal virtual {\r\n        _mint(to, tokenId, fee);\r\n        require(_checkOnERC721Received(address(0), to, tokenId, _data), \"ERC721: transfer to non ERC721Receiver implementer\");\r\n    }\r\n\r\n    function _mint(address to, uint256 tokenId, uint256 fee) internal virtual {\r\n        require(to != address(0), \"ERC721: mint to the zero address\");\r\n        require(!_exists(tokenId), \"ERC721: token already minted\");\r\n\r\n        _beforeTokenTransfer(address(0), to, tokenId);\r\n\r\n        _holderTokens[to].add(tokenId);\r\n\r\n        _tokenOwners.set(tokenId, to);\r\n        _creator[tokenId] = msg.sender;\r\n        _royaltyFee[tokenId] = fee;\r\n\r\n        emit Transfer(address(0), to, tokenId);\r\n       \r\n    }\r\n\r\n     /**\r\n     * @dev Internal function to burn a specific token.\r\n     * Reverts if the token does not exist.\r\n     * Deprecated, use {ERC721-_burn} instead.\r\n     * required msg.sender must be owner of the token.\r\n     * @param tokenId uint256 Token being burned\r\n     */\r\n\r\n    function _burn(uint256 tokenId) internal virtual {\r\n        require(msg.sender == ownerOf(tokenId),\"caller not owner\");\r\n        address owner = ERC721.ownerOf(tokenId); // internal owner\r\n\r\n        _beforeTokenTransfer(owner, address(0), tokenId);\r\n\r\n        _approve(address(0), tokenId);\r\n\r\n        if (bytes(_tokenURIs[tokenId]).length != 0) {\r\n            delete _tokenURIs[tokenId];\r\n        }\r\n\r\n        _holderTokens[owner].remove(tokenId);\r\n\r\n        _tokenOwners.remove(tokenId);\r\n\r\n        emit Transfer(owner, address(0), tokenId);\r\n    }\r\n\r\n    function _transfer(address from, address to, uint256 tokenId) internal virtual {\r\n        require(ERC721.ownerOf(tokenId) == from, \"ERC721: transfer of token that is not own\"); // internal owner\r\n        require(to != address(0), \"ERC721: transfer to the zero address\");\r\n\r\n        _beforeTokenTransfer(from, to, tokenId);\r\n\r\n        _approve(address(0), tokenId);\r\n\r\n        _holderTokens[from].remove(tokenId);\r\n        _holderTokens[to].add(tokenId);\r\n\r\n        _tokenOwners.set(tokenId, to);\r\n\r\n        emit Transfer(from, to, tokenId);\r\n    }\r\n\r\n     /**\r\n     * @dev Internal function to set the token URI for a given token.\r\n     * Reverts if the token ID does not exist.\r\n     * @param tokenId uint256 ID of the token to set its URI\r\n     * @param _tokenURI string URI to assign\r\n     */\r\n\r\n    function _setTokenURI(uint256 tokenId, string memory _tokenURI) internal virtual {\r\n        require(_exists(tokenId), \"ERC721Metadata: URI set of nonexistent token\");\r\n        _tokenURIs[tokenId] = _tokenURI;\r\n         emit URI(_tokenURI, tokenId);\r\n    }\r\n\r\n    function _setBaseURI(string memory baseURI_) internal virtual {\r\n        _baseURI = baseURI_;\r\n        emit tokenBaseURI(baseURI_);\r\n    }\r\n\r\n    function _checkOnERC721Received(address from, address to, uint256 tokenId, bytes memory _data)\r\n        private returns (bool)\r\n    {\r\n        if (!to.isContract()) {\r\n            return true;\r\n        }\r\n        bytes memory returndata = to.functionCall(abi.encodeWithSelector(\r\n            IERC721Receiver(to).onERC721Received.selector,\r\n            _msgSender(),\r\n            from,\r\n            tokenId,\r\n            _data\r\n        ), \"ERC721: transfer to non ERC721Receiver implementer\");\r\n        bytes4 retval = abi.decode(returndata, (bytes4));\r\n        return (retval == _ERC721_RECEIVED);\r\n    }\r\n\r\n    function _approve(address to, uint256 tokenId) internal virtual {\r\n        _tokenApprovals[tokenId] = to;\r\n        emit Approval(ERC721.ownerOf(tokenId), to, tokenId); // internal owner\r\n    }\r\n\r\n    function _beforeTokenTransfer(address from, address to, uint256 tokenId) internal virtual { }\r\n}",
  "sourcePath": "C:\\Users\\91863\\Arevea\\contracts\\ERC721.sol",
  "compiler": {
    "name": "solc",
    "version": "0.8.15+commit.e14f2714.Emscripten.clang"
  },
  "schemaVersion": "3.4.8",
  "updatedAt": "2022-07-19T13:13:19.789Z",
  "devdoc": {
    "kind": "dev",
    "methods": {
      "balanceOf(address)": {
        "params": {
          "owner": "The address of the token holder"
        },
        "returns": {
          "_0": "The account's balance of the Token type requested"
        }
      },
      "isApprovedForAll(address,address)": {
        "params": {
          "operator": "Address of authorized operator",
          "owner": "The owner of the Tokens"
        },
        "returns": {
          "_0": "True if the operator is approved, false if not"
        }
      },
      "name()": {
        "details": "Returns the token collection name."
      },
      "ownerOf(uint256)": {
        "params": {
          "tokenId": "The tokenId of the token holder"
        },
        "returns": {
          "_0": "The current owner of the requested tokenId"
        }
      },
      "safeTransferFrom(address,address,uint256,bytes)": {
        "details": "Caller must be approved to manage the tokens being transferred out of the `_from` account (see \"Approval\" section of the standard). MUST revert if `_to` is the zero address. MUST revert if balance of holder for token `_id` is lower than the `_value` sent. MUST revert on any other error. MUST emit the `TransferSingle` event to reflect the balance change (see \"Safe Transfer Rules\" section of the standard). After the above conditions are met, this function MUST check if `_to` is a smart contract (e.g. code size > 0). If so, it MUST call `onERC721Received` on `_to` and act appropriately (see \"Safe Transfer Rules\" section of the standard).",
        "params": {
          "_data": "Additional data with no specified format, MUST be sent unaltered in call to `onERC721Received` on `_to`",
          "from": "Source address",
          "to": "Target address",
          "tokenId": "ID of the token type."
        }
      },
      "setApprovalForAll(address,bool)": {
        "details": "MUST emit the ApprovalForAll event on success.",
        "params": {
          "approved": "True if the operator is approved, false to revoke approval",
          "operator": "Address to add to the set of authorized operators"
        }
      },
      "supportsInterface(bytes4)": {
        "details": "Returns true if this contract implements the interface defined by `interfaceId`. See the corresponding https://eips.ethereum.org/EIPS/eip-165#how-interfaces-are-identified[EIP section] to learn more about how these ids are created. This function call must use less than 30 000 gas."
      },
      "symbol()": {
        "details": "Returns the token collection symbol."
      },
      "tokenByIndex(uint256)": {
        "details": "Returns a token ID at a given `index` of all the tokens stored by the contract. Use along with {totalSupply} to enumerate all tokens."
      },
      "tokenOfOwnerByIndex(address,uint256)": {
        "details": "Returns a token ID owned by `owner` at a given `index` of its token list. Use along with {balanceOf} to enumerate all of ``owner``'s tokens."
      },
      "tokenURI(uint256)": {
        "details": "Returns the Uniform Resource Identifier (URI) for `tokenId` token."
      },
      "totalSupply()": {
        "details": "Returns the total amount of tokens stored by the contract."
      }
    },
    "version": 1
  },
  "userdoc": {
    "kind": "user",
    "methods": {
      "balanceOf(address)": {
        "notice": "Get the Token balance of an account's."
      },
      "isApprovedForAll(address,address)": {
        "notice": "Queries the approval status of an operator for a given owner."
      },
      "ownerOf(uint256)": {
        "notice": "Get the owner of tokenId."
      },
      "safeTransferFrom(address,address,uint256,bytes)": {
        "notice": "Transfers `_value` amount of an `_id` from the `_from` address to the `_to` address specified (with safety call)."
      },
      "setApprovalForAll(address,bool)": {
        "notice": "Enable or disable approval for a third party (\"operator\") to manage all of the caller's tokens."
      }
    },
    "version": 1
  }
}