{
  "contractName": "MultipleNFT",
  "abi": [
    {
      "inputs": [
        {
          "internalType": "string",
          "name": "name",
          "type": "string"
        },
        {
          "internalType": "string",
          "name": "symbol",
          "type": "string"
        }
      ],
      "stateMutability": "nonpayable",
      "type": "constructor"
    },
    {
      "anonymous": false,
      "inputs": [
        {
          "indexed": true,
          "internalType": "address",
          "name": "account",
          "type": "address"
        },
        {
          "indexed": true,
          "internalType": "address",
          "name": "operator",
          "type": "address"
        },
        {
          "indexed": false,
          "internalType": "bool",
          "name": "approved",
          "type": "bool"
        }
      ],
      "name": "ApprovalForAll",
      "type": "event"
    },
    {
      "anonymous": false,
      "inputs": [
        {
          "indexed": true,
          "internalType": "address",
          "name": "previousOwner",
          "type": "address"
        },
        {
          "indexed": true,
          "internalType": "address",
          "name": "newOwner",
          "type": "address"
        }
      ],
      "name": "OwnershipTransferred",
      "type": "event"
    },
    {
      "anonymous": false,
      "inputs": [
        {
          "indexed": true,
          "internalType": "address",
          "name": "operator",
          "type": "address"
        },
        {
          "indexed": true,
          "internalType": "address",
          "name": "from",
          "type": "address"
        },
        {
          "indexed": true,
          "internalType": "address",
          "name": "to",
          "type": "address"
        },
        {
          "indexed": false,
          "internalType": "uint256[]",
          "name": "ids",
          "type": "uint256[]"
        },
        {
          "indexed": false,
          "internalType": "uint256[]",
          "name": "values",
          "type": "uint256[]"
        }
      ],
      "name": "TransferBatch",
      "type": "event"
    },
    {
      "anonymous": false,
      "inputs": [
        {
          "indexed": true,
          "internalType": "address",
          "name": "operator",
          "type": "address"
        },
        {
          "indexed": true,
          "internalType": "address",
          "name": "from",
          "type": "address"
        },
        {
          "indexed": true,
          "internalType": "address",
          "name": "to",
          "type": "address"
        },
        {
          "indexed": false,
          "internalType": "uint256",
          "name": "id",
          "type": "uint256"
        },
        {
          "indexed": false,
          "internalType": "uint256",
          "name": "value",
          "type": "uint256"
        }
      ],
      "name": "TransferSingle",
      "type": "event"
    },
    {
      "anonymous": false,
      "inputs": [
        {
          "indexed": false,
          "internalType": "string",
          "name": "value",
          "type": "string"
        },
        {
          "indexed": true,
          "internalType": "uint256",
          "name": "id",
          "type": "uint256"
        }
      ],
      "name": "URI",
      "type": "event"
    },
    {
      "anonymous": false,
      "inputs": [
        {
          "indexed": false,
          "internalType": "string",
          "name": "value",
          "type": "string"
        }
      ],
      "name": "tokenBaseURI",
      "type": "event"
    },
    {
      "inputs": [
        {
          "internalType": "address",
          "name": "account",
          "type": "address"
        },
        {
          "internalType": "uint256",
          "name": "tokenId",
          "type": "uint256"
        }
      ],
      "name": "balanceOf",
      "outputs": [
        {
          "internalType": "uint256",
          "name": "",
          "type": "uint256"
        }
      ],
      "stateMutability": "view",
      "type": "function",
      "constant": true
    },
    {
      "inputs": [
        {
          "internalType": "address[]",
          "name": "accounts",
          "type": "address[]"
        },
        {
          "internalType": "uint256[]",
          "name": "ids",
          "type": "uint256[]"
        }
      ],
      "name": "balanceOfBatch",
      "outputs": [
        {
          "internalType": "uint256[]",
          "name": "",
          "type": "uint256[]"
        }
      ],
      "stateMutability": "view",
      "type": "function",
      "constant": true
    },
    {
      "inputs": [
        {
          "internalType": "uint256",
          "name": "tokenId",
          "type": "uint256"
        }
      ],
      "name": "getCreator",
      "outputs": [
        {
          "internalType": "address",
          "name": "",
          "type": "address"
        }
      ],
      "stateMutability": "view",
      "type": "function",
      "constant": true
    },
    {
      "inputs": [
        {
          "internalType": "address",
          "name": "account",
          "type": "address"
        },
        {
          "internalType": "address",
          "name": "operator",
          "type": "address"
        }
      ],
      "name": "isApprovedForAll",
      "outputs": [
        {
          "internalType": "bool",
          "name": "",
          "type": "bool"
        }
      ],
      "stateMutability": "view",
      "type": "function",
      "constant": true
    },
    {
      "inputs": [],
      "name": "name",
      "outputs": [
        {
          "internalType": "string",
          "name": "",
          "type": "string"
        }
      ],
      "stateMutability": "view",
      "type": "function",
      "constant": true
    },
    {
      "inputs": [],
      "name": "owner",
      "outputs": [
        {
          "internalType": "address",
          "name": "",
          "type": "address"
        }
      ],
      "stateMutability": "view",
      "type": "function",
      "constant": true
    },
    {
      "inputs": [
        {
          "internalType": "uint256",
          "name": "tokenId",
          "type": "uint256"
        }
      ],
      "name": "royaltyFee",
      "outputs": [
        {
          "internalType": "uint256",
          "name": "",
          "type": "uint256"
        }
      ],
      "stateMutability": "view",
      "type": "function",
      "constant": true
    },
    {
      "inputs": [
        {
          "internalType": "address",
          "name": "from",
          "type": "address"
        },
        {
          "internalType": "address",
          "name": "to",
          "type": "address"
        },
        {
          "internalType": "uint256[]",
          "name": "tokenIds",
          "type": "uint256[]"
        },
        {
          "internalType": "uint256[]",
          "name": "amounts",
          "type": "uint256[]"
        },
        {
          "internalType": "bytes",
          "name": "data",
          "type": "bytes"
        }
      ],
      "name": "safeBatchTransferFrom",
      "outputs": [],
      "stateMutability": "nonpayable",
      "type": "function"
    },
    {
      "inputs": [
        {
          "internalType": "address",
          "name": "from",
          "type": "address"
        },
        {
          "internalType": "address",
          "name": "to",
          "type": "address"
        },
        {
          "internalType": "uint256",
          "name": "tokenId",
          "type": "uint256"
        },
        {
          "internalType": "uint256",
          "name": "amount",
          "type": "uint256"
        },
        {
          "internalType": "bytes",
          "name": "data",
          "type": "bytes"
        }
      ],
      "name": "safeTransferFrom",
      "outputs": [],
      "stateMutability": "nonpayable",
      "type": "function"
    },
    {
      "inputs": [
        {
          "internalType": "address",
          "name": "operator",
          "type": "address"
        },
        {
          "internalType": "bool",
          "name": "approved",
          "type": "bool"
        }
      ],
      "name": "setApprovalForAll",
      "outputs": [],
      "stateMutability": "nonpayable",
      "type": "function"
    },
    {
      "inputs": [
        {
          "internalType": "bytes4",
          "name": "interfaceId",
          "type": "bytes4"
        }
      ],
      "name": "supportsInterface",
      "outputs": [
        {
          "internalType": "bool",
          "name": "",
          "type": "bool"
        }
      ],
      "stateMutability": "view",
      "type": "function",
      "constant": true
    },
    {
      "inputs": [],
      "name": "symbol",
      "outputs": [
        {
          "internalType": "string",
          "name": "",
          "type": "string"
        }
      ],
      "stateMutability": "view",
      "type": "function",
      "constant": true
    },
    {
      "inputs": [
        {
          "internalType": "uint256",
          "name": "tokenId",
          "type": "uint256"
        }
      ],
      "name": "tokenURI",
      "outputs": [
        {
          "internalType": "string",
          "name": "",
          "type": "string"
        }
      ],
      "stateMutability": "view",
      "type": "function",
      "constant": true
    },
    {
      "inputs": [],
      "name": "tokenURIPrefix",
      "outputs": [
        {
          "internalType": "string",
          "name": "",
          "type": "string"
        }
      ],
      "stateMutability": "view",
      "type": "function",
      "constant": true
    },
    {
      "inputs": [
        {
          "internalType": "address",
          "name": "newOwner",
          "type": "address"
        }
      ],
      "name": "transferOwnership",
      "outputs": [
        {
          "internalType": "bool",
          "name": "",
          "type": "bool"
        }
      ],
      "stateMutability": "nonpayable",
      "type": "function"
    },
    {
      "inputs": [
        {
          "internalType": "string",
          "name": "uri",
          "type": "string"
        },
        {
          "internalType": "uint256",
          "name": "supply",
          "type": "uint256"
        },
        {
          "internalType": "uint256",
          "name": "fee",
          "type": "uint256"
        },
        {
          "components": [
            {
              "internalType": "uint8",
              "name": "v",
              "type": "uint8"
            },
            {
              "internalType": "bytes32",
              "name": "r",
              "type": "bytes32"
            },
            {
              "internalType": "bytes32",
              "name": "s",
              "type": "bytes32"
            },
            {
              "internalType": "uint256",
              "name": "nonce",
              "type": "uint256"
            }
          ],
          "internalType": "struct MultipleNFT.Sign",
          "name": "sign",
          "type": "tuple"
        }
      ],
      "name": "createMultiple",
      "outputs": [],
      "stateMutability": "nonpayable",
      "type": "function"
    },
    {
      "inputs": [
        {
          "internalType": "string",
          "name": "_baseURI",
          "type": "string"
        }
      ],
      "name": "setBaseURI",
      "outputs": [],
      "stateMutability": "nonpayable",
      "type": "function"
    },
    {
      "inputs": [
        {
          "internalType": "uint256",
          "name": "tokenId",
          "type": "uint256"
        },
        {
          "internalType": "uint256",
          "name": "supply",
          "type": "uint256"
        }
      ],
      "name": "burn",
      "outputs": [],
      "stateMutability": "nonpayable",
      "type": "function"
    },
    {
      "inputs": [
        {
          "internalType": "uint256[]",
          "name": "tokenIds",
          "type": "uint256[]"
        },
        {
          "internalType": "uint256[]",
          "name": "amounts",
          "type": "uint256[]"
        }
      ],
      "name": "burnBatch",
      "outputs": [],
      "stateMutability": "nonpayable",
      "type": "function"
    }
  ],
  "bytecode": "0x6080604052604051806060016040528060228152602001620052bd60229139600590816200002e919062000471565b506001600b553480156200004157600080fd5b50604051620052df380380620052df8339818101604052810190620000679190620006c6565b8181620000816301ffc9a760e01b6200012060201b60201c565b816009908162000092919062000471565b5080600a9081620000a4919062000471565b50620000bd63d9b67a2660e01b6200012060201b60201c565b620000d5630e89341c60e01b6200012060201b60201c565b505033600c60006101000a81548173ffffffffffffffffffffffffffffffffffffffff021916908373ffffffffffffffffffffffffffffffffffffffff1602179055505050620007ce565b63ffffffff60e01b817bffffffffffffffffffffffffffffffffffffffffffffffffffffffff1916036200018b576040517f08c379a00000000000000000000000000000000000000000000000000000000081526004016200018290620007ac565b60405180910390fd5b6001600080837bffffffffffffffffffffffffffffffffffffffffffffffffffffffff19167bffffffffffffffffffffffffffffffffffffffffffffffffffffffff1916815260200190815260200160002060006101000a81548160ff02191690831515021790555050565b600081519050919050565b7f4e487b7100000000000000000000000000000000000000000000000000000000600052604160045260246000fd5b7f4e487b7100000000000000000000000000000000000000000000000000000000600052602260045260246000fd5b600060028204905060018216806200027957607f821691505b6020821081036200028f576200028e62000231565b5b50919050565b60008190508160005260206000209050919050565b60006020601f8301049050919050565b600082821b905092915050565b600060088302620002f97fffffffffffffffffffffffffffffffffffffffffffffffffffffffffffffffff82620002ba565b620003058683620002ba565b95508019841693508086168417925050509392505050565b6000819050919050565b6000819050919050565b6000620003526200034c62000346846200031d565b62000327565b6200031d565b9050919050565b6000819050919050565b6200036e8362000331565b620003866200037d8262000359565b848454620002c7565b825550505050565b600090565b6200039d6200038e565b620003aa81848462000363565b505050565b5b81811015620003d257620003c660008262000393565b600181019050620003b0565b5050565b601f8211156200042157620003eb8162000295565b620003f684620002aa565b8101602085101562000406578190505b6200041e6200041585620002aa565b830182620003af565b50505b505050565b600082821c905092915050565b6000620004466000198460080262000426565b1980831691505092915050565b600062000461838362000433565b9150826002028217905092915050565b6200047c82620001f7565b67ffffffffffffffff81111562000498576200049762000202565b5b620004a4825462000260565b620004b1828285620003d6565b600060209050601f831160018114620004e95760008415620004d4578287015190505b620004e0858262000453565b86555062000550565b601f198416620004f98662000295565b60005b828110156200052357848901518255600182019150602085019450602081019050620004fc565b868310156200054357848901516200053f601f89168262000433565b8355505b6001600288020188555050505b505050505050565b6000604051905090565b600080fd5b600080fd5b600080fd5b600080fd5b6000601f19601f8301169050919050565b620005928262000576565b810181811067ffffffffffffffff82111715620005b457620005b362000202565b5b80604052505050565b6000620005c962000558565b9050620005d7828262000587565b919050565b600067ffffffffffffffff821115620005fa57620005f962000202565b5b620006058262000576565b9050602081019050919050565b60005b838110156200063257808201518184015260208101905062000615565b8381111562000642576000848401525b50505050565b60006200065f6200065984620005dc565b620005bd565b9050828152602081018484840111156200067e576200067d62000571565b5b6200068b84828562000612565b509392505050565b600082601f830112620006ab57620006aa6200056c565b5b8151620006bd84826020860162000648565b91505092915050565b60008060408385031215620006e057620006df62000562565b5b600083015167ffffffffffffffff81111562000701576200070062000567565b5b6200070f8582860162000693565b925050602083015167ffffffffffffffff81111562000733576200073262000567565b5b620007418582860162000693565b9150509250929050565b600082825260208201905092915050565b7f4552433136353a20696e76616c696420696e7465726661636520696400000000600082015250565b600062000794601c836200074b565b9150620007a1826200075c565b602082019050919050565b60006020820190508181036000830152620007c78162000785565b9050919050565b614adf80620007de6000396000f3fe608060405234801561001057600080fd5b50600436106101205760003560e01c8063a22cb465116100ad578063d48e638a11610071578063d48e638a14610319578063e985e9c514610349578063f0a41e4914610379578063f242432a14610395578063f2fde38b146103b157610120565b8063a22cb46514610263578063b390c0ab1461027f578063c0ac99831461029b578063c57dc235146102b9578063c87b56dd146102e957610120565b80634e1273f4116100f45780634e1273f4146101bf57806355f804b3146101ef57806383ca4b6f1461020b5780638da5cb5b1461022757806395d89b411461024557610120565b8062fdd58e1461012557806301ffc9a71461015557806306fdde03146101855780632eb2c2d6146101a3575b600080fd5b61013f600480360381019061013a919061298c565b6103e1565b60405161014c91906129db565b60405180910390f35b61016f600480360381019061016a9190612a4e565b6104f3565b60405161017c9190612a96565b60405180910390f35b61018d61055a565b60405161019a9190612b4a565b60405180910390f35b6101bd60048036038101906101b89190612d69565b6105ec565b005b6101d960048036038101906101d49190612efb565b6109c0565b6040516101e69190613031565b60405180910390f35b610209600480360381019061020491906130f4565b610ba9565b005b6102256004803603810190610220919061313d565b610c45565b005b61022f610c54565b60405161023c91906131c4565b60405180910390f35b61024d610c7a565b60405161025a9190612b4a565b60405180910390f35b61027d6004803603810190610278919061320b565b610d0c565b005b6102996004803603810190610294919061324b565b610e8c565b005b6102a3610e9b565b6040516102b09190612b4a565b60405180910390f35b6102d360048036038101906102ce919061328b565b610f29565b6040516102e091906129db565b60405180910390f35b61030360048036038101906102fe919061328b565b610f46565b6040516103109190612b4a565b60405180910390f35b610333600480360381019061032e919061328b565b61113b565b60405161034091906131c4565b60405180910390f35b610363600480360381019061035e91906132b8565b611178565b6040516103709190612a96565b60405180910390f35b610393600480360381019061038e91906133e4565b61120c565b005b6103af60048036038101906103aa9190613467565b6112d5565b005b6103cb60048036038101906103c691906134fe565b611617565b6040516103d89190612a96565b60405180910390f35b60006103ec826117de565b61042b576040517f08c379a00000000000000000000000000000000000000000000000000000000081526004016104229061359d565b60405180910390fd5b600073ffffffffffffffffffffffffffffffffffffffff168373ffffffffffffffffffffffffffffffffffffffff160361049a576040517f08c379a00000000000000000000000000000000000000000000000000000000081526004016104919061362f565b60405180910390fd5b6003600083815260200190815260200160002060008473ffffffffffffffffffffffffffffffffffffffff1673ffffffffffffffffffffffffffffffffffffffff16815260200190815260200160002054905092915050565b6000806000837bffffffffffffffffffffffffffffffffffffffffffffffffffffffff19167bffffffffffffffffffffffffffffffffffffffffffffffffffffffff1916815260200190815260200160002060009054906101000a900460ff169050919050565b6060600980546105699061367e565b80601f01602080910402602001604051908101604052809291908181526020018280546105959061367e565b80156105e25780601f106105b7576101008083540402835291602001916105e2565b820191906000526020600020905b8154815290600101906020018083116105c557829003601f168201915b5050505050905090565b8151835114610630576040517f08c379a000000000000000000000000000000000000000000000000000000000815260040161062790613721565b60405180910390fd5b600073ffffffffffffffffffffffffffffffffffffffff168473ffffffffffffffffffffffffffffffffffffffff160361069f576040517f08c379a0000000000000000000000000000000000000000000000000000000008152600401610696906137b3565b60405180910390fd5b6106a76117fb565b73ffffffffffffffffffffffffffffffffffffffff168573ffffffffffffffffffffffffffffffffffffffff1614806106ed57506106ec856106e76117fb565b611178565b5b61072c576040517f08c379a000000000000000000000000000000000000000000000000000000000815260040161072390613845565b60405180910390fd5b60006107366117fb565b9050610746818787878787611803565b60005b845181101561092b57600085828151811061076757610766613865565b5b60200260200101519050600085838151811061078657610785613865565b5b6020026020010151905061080d816040518060600160405280602a8152602001614a4f602a91396003600086815260200190815260200160002060008d73ffffffffffffffffffffffffffffffffffffffff1673ffffffffffffffffffffffffffffffffffffffff1681526020019081526020016000205461180b9092919063ffffffff16565b6003600084815260200190815260200160002060008b73ffffffffffffffffffffffffffffffffffffffff1673ffffffffffffffffffffffffffffffffffffffff168152602001908152602001600020819055506108c4816003600085815260200190815260200160002060008b73ffffffffffffffffffffffffffffffffffffffff1673ffffffffffffffffffffffffffffffffffffffff1681526020019081526020016000205461186f90919063ffffffff16565b6003600084815260200190815260200160002060008a73ffffffffffffffffffffffffffffffffffffffff1673ffffffffffffffffffffffffffffffffffffffff16815260200190815260200160002081905550505080610924906138c3565b9050610749565b508473ffffffffffffffffffffffffffffffffffffffff168673ffffffffffffffffffffffffffffffffffffffff168273ffffffffffffffffffffffffffffffffffffffff167f4a39dc06d4c0dbc64b70af90fd698a233a518aa5d07e595d983b8c0526c8f7fb87876040516109a292919061390b565b60405180910390a46109b88187878787876118cd565b505050505050565b60608151835114610a06576040517f08c379a00000000000000000000000000000000000000000000000000000000081526004016109fd906139b4565b60405180910390fd5b6000835167ffffffffffffffff811115610a2357610a22612b71565b5b604051908082528060200260200182016040528015610a515781602001602082028036833780820191505090505b50905060005b8451811015610b9e57600073ffffffffffffffffffffffffffffffffffffffff16858281518110610a8b57610a8a613865565b5b602002602001015173ffffffffffffffffffffffffffffffffffffffff1603610ae9576040517f08c379a0000000000000000000000000000000000000000000000000000000008152600401610ae090613a46565b60405180910390fd5b60036000858381518110610b0057610aff613865565b5b602002602001015181526020019081526020016000206000868381518110610b2b57610b2a613865565b5b602002602001015173ffffffffffffffffffffffffffffffffffffffff1673ffffffffffffffffffffffffffffffffffffffff16815260200190815260200160002054828281518110610b8157610b80613865565b5b60200260200101818152505080610b97906138c3565b9050610a57565b508091505092915050565b3373ffffffffffffffffffffffffffffffffffffffff16600c60009054906101000a900473ffffffffffffffffffffffffffffffffffffffff1673ffffffffffffffffffffffffffffffffffffffff1614610c39576040517f08c379a0000000000000000000000000000000000000000000000000000000008152600401610c3090613ab2565b60405180910390fd5b610c4281611aa4565b50565b610c50338383611aee565b5050565b600c60009054906101000a900473ffffffffffffffffffffffffffffffffffffffff1681565b6060600a8054610c899061367e565b80601f0160208091040260200160405190810160405280929190818152602001828054610cb59061367e565b8015610d025780601f10610cd757610100808354040283529160200191610d02565b820191906000526020600020905b815481529060010190602001808311610ce557829003601f168201915b5050505050905090565b8173ffffffffffffffffffffffffffffffffffffffff16610d2b6117fb565b73ffffffffffffffffffffffffffffffffffffffff1603610d81576040517f08c379a0000000000000000000000000000000000000000000000000000000008152600401610d7890613b44565b60405180910390fd5b8060046000610d8e6117fb565b73ffffffffffffffffffffffffffffffffffffffff1673ffffffffffffffffffffffffffffffffffffffff16815260200190815260200160002060008473ffffffffffffffffffffffffffffffffffffffff1673ffffffffffffffffffffffffffffffffffffffff16815260200190815260200160002060006101000a81548160ff0219169083151502179055508173ffffffffffffffffffffffffffffffffffffffff16610e3b6117fb565b73ffffffffffffffffffffffffffffffffffffffff167f17307eab39ab6107e8899845ad3d59bd9653f200f220920489ca2b5937696c3183604051610e809190612a96565b60405180910390a35050565b610e97338383611d8f565b5050565b60058054610ea89061367e565b80601f0160208091040260200160405190810160405280929190818152602001828054610ed49061367e565b8015610f215780601f10610ef657610100808354040283529160200191610f21565b820191906000526020600020905b815481529060010190602001808311610f0457829003601f168201915b505050505081565b600060026000838152602001908152602001600020549050919050565b6060610f51826117de565b610f90576040517f08c379a0000000000000000000000000000000000000000000000000000000008152600401610f8790613bd6565b60405180910390fd5b6000600660008481526020019081526020016000208054610fb09061367e565b80601f0160208091040260200160405190810160405280929190818152602001828054610fdc9061367e565b80156110295780601f10610ffe57610100808354040283529160200191611029565b820191906000526020600020905b81548152906001019060200180831161100c57829003601f168201915b5050505050905060006005805461103f9061367e565b80601f016020809104026020016040519081016040528092919081815260200182805461106b9061367e565b80156110b85780601f1061108d576101008083540402835291602001916110b8565b820191906000526020600020905b81548152906001019060200180831161109b57829003601f168201915b5050505050905060008151036110d2578192505050611136565b6000825111156111075780826040516020016110ef929190613c32565b60405160208183030381529060405292505050611136565b8061111185611fd6565b604051602001611122929190613c32565b604051602081830303815290604052925050505b919050565b60006001600083815260200190815260200160002060009054906101000a900473ffffffffffffffffffffffffffffffffffffffff169050919050565b6000600460008473ffffffffffffffffffffffffffffffffffffffff1673ffffffffffffffffffffffffffffffffffffffff16815260200190815260200160002060008373ffffffffffffffffffffffffffffffffffffffff1673ffffffffffffffffffffffffffffffffffffffff16815260200190815260200160002060009054906101000a900460ff16905092915050565b600d60008260600151815260200190815260200160002060009054906101000a900460ff1615611271576040517f08c379a000000000000000000000000000000000000000000000000000000000815260040161126890613ca2565b60405180910390fd5b6001600d60008360600151815260200190815260200160002060006101000a81548160ff0219169083151502179055506112ac843383612136565b6112ba600b54848685612281565b6001600b546112c99190613cc2565b600b8190555050505050565b600073ffffffffffffffffffffffffffffffffffffffff168473ffffffffffffffffffffffffffffffffffffffff1603611344576040517f08c379a000000000000000000000000000000000000000000000000000000000815260040161133b906137b3565b60405180910390fd5b61134c6117fb565b73ffffffffffffffffffffffffffffffffffffffff168573ffffffffffffffffffffffffffffffffffffffff16148061139257506113918561138c6117fb565b611178565b5b6113d1576040517f08c379a00000000000000000000000000000000000000000000000000000000081526004016113c890613d8a565b60405180910390fd5b60006113db6117fb565b90506113fb8187876113ec886124ee565b6113f5886124ee565b87611803565b611478836040518060600160405280602a8152602001614a4f602a91396003600088815260200190815260200160002060008a73ffffffffffffffffffffffffffffffffffffffff1673ffffffffffffffffffffffffffffffffffffffff1681526020019081526020016000205461180b9092919063ffffffff16565b6003600086815260200190815260200160002060008873ffffffffffffffffffffffffffffffffffffffff1673ffffffffffffffffffffffffffffffffffffffff1681526020019081526020016000208190555061152f836003600087815260200190815260200160002060008873ffffffffffffffffffffffffffffffffffffffff1673ffffffffffffffffffffffffffffffffffffffff1681526020019081526020016000205461186f90919063ffffffff16565b6003600086815260200190815260200160002060008773ffffffffffffffffffffffffffffffffffffffff1673ffffffffffffffffffffffffffffffffffffffff168152602001908152602001600020819055508473ffffffffffffffffffffffffffffffffffffffff168673ffffffffffffffffffffffffffffffffffffffff168273ffffffffffffffffffffffffffffffffffffffff167fc3d58168c5ae7397731d063d5bbf3d657854427343f4c083240f7aacaa2d0f6287876040516115f9929190613daa565b60405180910390a461160f818787878787612568565b505050505050565b60003373ffffffffffffffffffffffffffffffffffffffff16600c60009054906101000a900473ffffffffffffffffffffffffffffffffffffffff1673ffffffffffffffffffffffffffffffffffffffff16146116a9576040517f08c379a00000000000000000000000000000000000000000000000000000000081526004016116a090613ab2565b60405180910390fd5b600073ffffffffffffffffffffffffffffffffffffffff168273ffffffffffffffffffffffffffffffffffffffff1603611718576040517f08c379a000000000000000000000000000000000000000000000000000000000815260040161170f90613e45565b60405180910390fd5b8173ffffffffffffffffffffffffffffffffffffffff16600c60009054906101000a900473ffffffffffffffffffffffffffffffffffffffff1673ffffffffffffffffffffffffffffffffffffffff167f8be0079c531659141344cd1fd0a4f28419497f9722a3daafe3b4186f6b6457e060405160405180910390a381600c60006101000a81548173ffffffffffffffffffffffffffffffffffffffff021916908373ffffffffffffffffffffffffffffffffffffffff16021790555060019050919050565b60006117f482600761273f90919063ffffffff16565b9050919050565b600033905090565b505050505050565b6000838311158290611853576040517f08c379a000000000000000000000000000000000000000000000000000000000815260040161184a9190612b4a565b60405180910390fd5b50600083856118629190613e65565b9050809150509392505050565b600080828461187e9190613cc2565b9050838110156118c3576040517f08c379a00000000000000000000000000000000000000000000000000000000081526004016118ba90613ee5565b60405180910390fd5b8091505092915050565b6118ec8473ffffffffffffffffffffffffffffffffffffffff16612759565b15611a9c578373ffffffffffffffffffffffffffffffffffffffff1663bc197c8187878686866040518663ffffffff1660e01b8152600401611932959493929190613f5a565b6020604051808303816000875af192505050801561196e57506040513d601f19601f8201168201806040525081019061196b9190613fd7565b60015b611a135761197a614011565b806308c379a0036119d6575061198e614033565b8061199957506119d8565b806040517f08c379a00000000000000000000000000000000000000000000000000000000081526004016119cd9190612b4a565b60405180910390fd5b505b6040517f08c379a0000000000000000000000000000000000000000000000000000000008152600401611a0a90614135565b60405180910390fd5b63bc197c8160e01b7bffffffffffffffffffffffffffffffffffffffffffffffffffffffff1916817bffffffffffffffffffffffffffffffffffffffffffffffffffffffff191614611a9a576040517f08c379a0000000000000000000000000000000000000000000000000000000008152600401611a91906141c7565b60405180910390fd5b505b505050505050565b8060059081611ab39190614393565b507f5514cc7324ac64a875ba50a1849367d39c8b030fe0f563c3c7142984552bc30681604051611ae39190612b4a565b60405180910390a150565b600073ffffffffffffffffffffffffffffffffffffffff168373ffffffffffffffffffffffffffffffffffffffff1603611b5d576040517f08c379a0000000000000000000000000000000000000000000000000000000008152600401611b54906144d7565b60405180910390fd5b8051825114611ba1576040517f08c379a0000000000000000000000000000000000000000000000000000000008152600401611b9890613721565b60405180910390fd5b6000611bab6117fb565b9050611bcb81856000868660405180602001604052806000815250611803565b60005b8351811015611d0957611c88838281518110611bed57611bec613865565b5b6020026020010151604051806060016040528060248152602001614a2b6024913960036000888681518110611c2557611c24613865565b5b6020026020010151815260200190815260200160002060008973ffffffffffffffffffffffffffffffffffffffff1673ffffffffffffffffffffffffffffffffffffffff1681526020019081526020016000205461180b9092919063ffffffff16565b60036000868481518110611c9f57611c9e613865565b5b6020026020010151815260200190815260200160002060008773ffffffffffffffffffffffffffffffffffffffff1673ffffffffffffffffffffffffffffffffffffffff168152602001908152602001600020819055508080611d01906138c3565b915050611bce565b50600073ffffffffffffffffffffffffffffffffffffffff168473ffffffffffffffffffffffffffffffffffffffff168273ffffffffffffffffffffffffffffffffffffffff167f4a39dc06d4c0dbc64b70af90fd698a233a518aa5d07e595d983b8c0526c8f7fb8686604051611d8192919061390b565b60405180910390a450505050565b611d98826117de565b611dd7576040517f08c379a0000000000000000000000000000000000000000000000000000000008152600401611dce90614569565b60405180910390fd5b600073ffffffffffffffffffffffffffffffffffffffff168373ffffffffffffffffffffffffffffffffffffffff1603611e46576040517f08c379a0000000000000000000000000000000000000000000000000000000008152600401611e3d906144d7565b60405180910390fd5b6000611e506117fb565b9050611e8081856000611e62876124ee565b611e6b876124ee565b60405180602001604052806000815250611803565b611efd82604051806060016040528060318152602001614a79603191396003600087815260200190815260200160002060008873ffffffffffffffffffffffffffffffffffffffff1673ffffffffffffffffffffffffffffffffffffffff1681526020019081526020016000205461180b9092919063ffffffff16565b6003600085815260200190815260200160002060008673ffffffffffffffffffffffffffffffffffffffff1673ffffffffffffffffffffffffffffffffffffffff16815260200190815260200160002081905550600073ffffffffffffffffffffffffffffffffffffffff168473ffffffffffffffffffffffffffffffffffffffff168273ffffffffffffffffffffffffffffffffffffffff167fc3d58168c5ae7397731d063d5bbf3d657854427343f4c083240f7aacaa2d0f628686604051611fc8929190613daa565b60405180910390a450505050565b60606000820361201d576040518060400160405280600181526020017f30000000000000000000000000000000000000000000000000000000000000008152509050612131565b600082905060005b6000821461204f578080612038906138c3565b915050600a8261204891906145b8565b9150612025565b60008167ffffffffffffffff81111561206b5761206a612b71565b5b6040519080825280601f01601f19166020018201604052801561209d5781602001600182028036833780820191505090505b5090505b6000851461212a576001826120b69190613e65565b9150600a856120c591906145e9565b60306120d19190613cc2565b60f81b8183815181106120e7576120e6613865565b5b60200101907effffffffffffffffffffffffffffffffffffffffffffffffffffffffffffff1916908160001a905350600a8561212391906145b8565b94506120a1565b8093505050505b919050565b6000308385846060015160405160200161215394939291906146e0565b60405160208183030381529060405280519060200120905060018160405160200161217e9190614797565b60405160208183030381529060405280519060200120836000015184602001518560400151604051600081526020016040526040516121c094939291906147db565b6020604051602081039080840390855afa1580156121e2573d6000803e3d6000fd5b5050506020604051035173ffffffffffffffffffffffffffffffffffffffff16600c60009054906101000a900473ffffffffffffffffffffffffffffffffffffffff1673ffffffffffffffffffffffffffffffffffffffff161461227b576040517f08c379a00000000000000000000000000000000000000000000000000000000081526004016122729061486c565b60405180910390fd5b50505050565b61228a846117de565b156122ca576040517f08c379a00000000000000000000000000000000000000000000000000000000081526004016122c1906148d8565b60405180910390fd5b6000830361230d576040517f08c379a000000000000000000000000000000000000000000000000000000000815260040161230490614944565b60405180910390fd5b6000825111612351576040517f08c379a0000000000000000000000000000000000000000000000000000000008152600401612348906149b0565b60405180910390fd5b336001600086815260200190815260200160002060006101000a81548173ffffffffffffffffffffffffffffffffffffffff021916908373ffffffffffffffffffffffffffffffffffffffff1602179055506123b98433600761277c9092919063ffffffff16565b50806002600086815260200190815260200160002081905550826003600086815260200190815260200160002060003373ffffffffffffffffffffffffffffffffffffffff1673ffffffffffffffffffffffffffffffffffffffff1681526020019081526020016000208190555061243184836127b1565b3373ffffffffffffffffffffffffffffffffffffffff16600073ffffffffffffffffffffffffffffffffffffffff163373ffffffffffffffffffffffffffffffffffffffff167fc3d58168c5ae7397731d063d5bbf3d657854427343f4c083240f7aacaa2d0f6287876040516124a8929190613daa565b60405180910390a4837f6bb7ff708619ba0610cba295a58592e0451dee2622938c8755667688daf3529b836040516124e09190612b4a565b60405180910390a250505050565b60606000600167ffffffffffffffff81111561250d5761250c612b71565b5b60405190808252806020026020018201604052801561253b5781602001602082028036833780820191505090505b509050828160008151811061255357612552613865565b5b60200260200101818152505080915050919050565b6125878473ffffffffffffffffffffffffffffffffffffffff16612759565b15612737578373ffffffffffffffffffffffffffffffffffffffff1663f23a6e6187878686866040518663ffffffff1660e01b81526004016125cd9594939291906149d0565b6020604051808303816000875af192505050801561260957506040513d601f19601f820116820180604052508101906126069190613fd7565b60015b6126ae57612615614011565b806308c379a0036126715750612629614033565b806126345750612673565b806040517f08c379a00000000000000000000000000000000000000000000000000000000081526004016126689190612b4a565b60405180910390fd5b505b6040517f08c379a00000000000000000000000000000000000000000000000000000000081526004016126a590614135565b60405180910390fd5b63f23a6e6160e01b7bffffffffffffffffffffffffffffffffffffffffffffffffffffffff1916817bffffffffffffffffffffffffffffffffffffffffffffffffffffffff191614612735576040517f08c379a000000000000000000000000000000000000000000000000000000000815260040161272c906141c7565b60405180910390fd5b505b505050505050565b6000612751836000018360001b6127d6565b905092915050565b6000808273ffffffffffffffffffffffffffffffffffffffff163b119050919050565b60006127a8846000018460001b8473ffffffffffffffffffffffffffffffffffffffff1660001b6127f9565b90509392505050565b806006600084815260200190815260200160002090816127d19190614393565b505050565b600080836001016000848152602001908152602001600020541415905092915050565b6000808460010160008581526020019081526020016000205490506000810361289f578460000160405180604001604052808681526020018581525090806001815401808255809150506001900390600052602060002090600202016000909190919091506000820151816000015560208201518160010155505084600001805490508560010160008681526020019081526020016000208190555060019150506128dd565b82856000016001836128b19190613e65565b815481106128c2576128c1613865565b5b90600052602060002090600202016001018190555060009150505b9392505050565b6000604051905090565b600080fd5b600080fd5b600073ffffffffffffffffffffffffffffffffffffffff82169050919050565b6000612923826128f8565b9050919050565b61293381612918565b811461293e57600080fd5b50565b6000813590506129508161292a565b92915050565b6000819050919050565b61296981612956565b811461297457600080fd5b50565b60008135905061298681612960565b92915050565b600080604083850312156129a3576129a26128ee565b5b60006129b185828601612941565b92505060206129c285828601612977565b9150509250929050565b6129d581612956565b82525050565b60006020820190506129f060008301846129cc565b92915050565b60007fffffffff0000000000000000000000000000000000000000000000000000000082169050919050565b612a2b816129f6565b8114612a3657600080fd5b50565b600081359050612a4881612a22565b92915050565b600060208284031215612a6457612a636128ee565b5b6000612a7284828501612a39565b91505092915050565b60008115159050919050565b612a9081612a7b565b82525050565b6000602082019050612aab6000830184612a87565b92915050565b600081519050919050565b600082825260208201905092915050565b60005b83811015612aeb578082015181840152602081019050612ad0565b83811115612afa576000848401525b50505050565b6000601f19601f8301169050919050565b6000612b1c82612ab1565b612b268185612abc565b9350612b36818560208601612acd565b612b3f81612b00565b840191505092915050565b60006020820190508181036000830152612b648184612b11565b905092915050565b600080fd5b7f4e487b7100000000000000000000000000000000000000000000000000000000600052604160045260246000fd5b612ba982612b00565b810181811067ffffffffffffffff82111715612bc857612bc7612b71565b5b80604052505050565b6000612bdb6128e4565b9050612be78282612ba0565b919050565b600067ffffffffffffffff821115612c0757612c06612b71565b5b602082029050602081019050919050565b600080fd5b6000612c30612c2b84612bec565b612bd1565b90508083825260208201905060208402830185811115612c5357612c52612c18565b5b835b81811015612c7c5780612c688882612977565b845260208401935050602081019050612c55565b5050509392505050565b600082601f830112612c9b57612c9a612b6c565b5b8135612cab848260208601612c1d565b91505092915050565b600080fd5b600067ffffffffffffffff821115612cd457612cd3612b71565b5b612cdd82612b00565b9050602081019050919050565b82818337600083830152505050565b6000612d0c612d0784612cb9565b612bd1565b905082815260208101848484011115612d2857612d27612cb4565b5b612d33848285612cea565b509392505050565b600082601f830112612d5057612d4f612b6c565b5b8135612d60848260208601612cf9565b91505092915050565b600080600080600060a08688031215612d8557612d846128ee565b5b6000612d9388828901612941565b9550506020612da488828901612941565b945050604086013567ffffffffffffffff811115612dc557612dc46128f3565b5b612dd188828901612c86565b935050606086013567ffffffffffffffff811115612df257612df16128f3565b5b612dfe88828901612c86565b925050608086013567ffffffffffffffff811115612e1f57612e1e6128f3565b5b612e2b88828901612d3b565b9150509295509295909350565b600067ffffffffffffffff821115612e5357612e52612b71565b5b602082029050602081019050919050565b6000612e77612e7284612e38565b612bd1565b90508083825260208201905060208402830185811115612e9a57612e99612c18565b5b835b81811015612ec35780612eaf8882612941565b845260208401935050602081019050612e9c565b5050509392505050565b600082601f830112612ee257612ee1612b6c565b5b8135612ef2848260208601612e64565b91505092915050565b60008060408385031215612f1257612f116128ee565b5b600083013567ffffffffffffffff811115612f3057612f2f6128f3565b5b612f3c85828601612ecd565b925050602083013567ffffffffffffffff811115612f5d57612f5c6128f3565b5b612f6985828601612c86565b9150509250929050565b600081519050919050565b600082825260208201905092915050565b6000819050602082019050919050565b612fa881612956565b82525050565b6000612fba8383612f9f565b60208301905092915050565b6000602082019050919050565b6000612fde82612f73565b612fe88185612f7e565b9350612ff383612f8f565b8060005b8381101561302457815161300b8882612fae565b975061301683612fc6565b925050600181019050612ff7565b5085935050505092915050565b6000602082019050818103600083015261304b8184612fd3565b905092915050565b600067ffffffffffffffff82111561306e5761306d612b71565b5b61307782612b00565b9050602081019050919050565b600061309761309284613053565b612bd1565b9050828152602081018484840111156130b3576130b2612cb4565b5b6130be848285612cea565b509392505050565b600082601f8301126130db576130da612b6c565b5b81356130eb848260208601613084565b91505092915050565b60006020828403121561310a576131096128ee565b5b600082013567ffffffffffffffff811115613128576131276128f3565b5b613134848285016130c6565b91505092915050565b60008060408385031215613154576131536128ee565b5b600083013567ffffffffffffffff811115613172576131716128f3565b5b61317e85828601612c86565b925050602083013567ffffffffffffffff81111561319f5761319e6128f3565b5b6131ab85828601612c86565b9150509250929050565b6131be81612918565b82525050565b60006020820190506131d960008301846131b5565b92915050565b6131e881612a7b565b81146131f357600080fd5b50565b600081359050613205816131df565b92915050565b60008060408385031215613222576132216128ee565b5b600061323085828601612941565b9250506020613241858286016131f6565b9150509250929050565b60008060408385031215613262576132616128ee565b5b600061327085828601612977565b925050602061328185828601612977565b9150509250929050565b6000602082840312156132a1576132a06128ee565b5b60006132af84828501612977565b91505092915050565b600080604083850312156132cf576132ce6128ee565b5b60006132dd85828601612941565b92505060206132ee85828601612941565b9150509250929050565b600080fd5b600060ff82169050919050565b613313816132fd565b811461331e57600080fd5b50565b6000813590506133308161330a565b92915050565b6000819050919050565b61334981613336565b811461335457600080fd5b50565b60008135905061336681613340565b92915050565b600060808284031215613382576133816132f8565b5b61338c6080612bd1565b9050600061339c84828501613321565b60008301525060206133b084828501613357565b60208301525060406133c484828501613357565b60408301525060606133d884828501612977565b60608301525092915050565b60008060008060e085870312156133fe576133fd6128ee565b5b600085013567ffffffffffffffff81111561341c5761341b6128f3565b5b613428878288016130c6565b945050602061343987828801612977565b935050604061344a87828801612977565b925050606061345b8782880161336c565b91505092959194509250565b600080600080600060a08688031215613483576134826128ee565b5b600061349188828901612941565b95505060206134a288828901612941565b94505060406134b388828901612977565b93505060606134c488828901612977565b925050608086013567ffffffffffffffff8111156134e5576134e46128f3565b5b6134f188828901612d3b565b9150509295509295909350565b600060208284031215613514576135136128ee565b5b600061352284828501612941565b91505092915050565b7f455243313135354d657461646174613a2062616c616e6365207175657279206660008201527f6f72206e6f6e6578697374656e7420746f6b656e000000000000000000000000602082015250565b6000613587603483612abc565b91506135928261352b565b604082019050919050565b600060208201905081810360008301526135b68161357a565b9050919050565b7f455243313135353a2062616c616e636520717565727920666f7220746865207a60008201527f65726f2061646472657373000000000000000000000000000000000000000000602082015250565b6000613619602b83612abc565b9150613624826135bd565b604082019050919050565b600060208201905081810360008301526136488161360c565b9050919050565b7f4e487b7100000000000000000000000000000000000000000000000000000000600052602260045260246000fd5b6000600282049050600182168061369657607f821691505b6020821081036136a9576136a861364f565b5b50919050565b7f455243313135353a2069647320616e6420616d6f756e7473206c656e6774682060008201527f6d69736d61746368000000000000000000000000000000000000000000000000602082015250565b600061370b602883612abc565b9150613716826136af565b604082019050919050565b6000602082019050818103600083015261373a816136fe565b9050919050565b7f455243313135353a207472616e7366657220746f20746865207a65726f20616460008201527f6472657373000000000000000000000000000000000000000000000000000000602082015250565b600061379d602583612abc565b91506137a882613741565b604082019050919050565b600060208201905081810360008301526137cc81613790565b9050919050565b7f455243313135353a207472616e736665722063616c6c6572206973206e6f742060008201527f6f776e6572206e6f7220617070726f7665640000000000000000000000000000602082015250565b600061382f603283612abc565b915061383a826137d3565b604082019050919050565b6000602082019050818103600083015261385e81613822565b9050919050565b7f4e487b7100000000000000000000000000000000000000000000000000000000600052603260045260246000fd5b7f4e487b7100000000000000000000000000000000000000000000000000000000600052601160045260246000fd5b60006138ce82612956565b91507fffffffffffffffffffffffffffffffffffffffffffffffffffffffffffffffff8203613900576138ff613894565b5b600182019050919050565b600060408201905081810360008301526139258185612fd3565b905081810360208301526139398184612fd3565b90509392505050565b7f455243313135353a206163636f756e747320616e6420696473206c656e67746860008201527f206d69736d617463680000000000000000000000000000000000000000000000602082015250565b600061399e602983612abc565b91506139a982613942565b604082019050919050565b600060208201905081810360008301526139cd81613991565b9050919050565b7f455243313135353a2062617463682062616c616e636520717565727920666f7260008201527f20746865207a65726f2061646472657373000000000000000000000000000000602082015250565b6000613a30603183612abc565b9150613a3b826139d4565b604082019050919050565b60006020820190508181036000830152613a5f81613a23565b9050919050565b7f4f776e61626c653a2063616c6c6572206973206e6f7420746865206f776e6572600082015250565b6000613a9c602083612abc565b9150613aa782613a66565b602082019050919050565b60006020820190508181036000830152613acb81613a8f565b9050919050565b7f455243313135353a2073657474696e6720617070726f76616c2073746174757360008201527f20666f722073656c660000000000000000000000000000000000000000000000602082015250565b6000613b2e602983612abc565b9150613b3982613ad2565b604082019050919050565b60006020820190508181036000830152613b5d81613b21565b9050919050565b7f455243313135354d657461646174613a2055524920717565727920666f72206e60008201527f6f6e6578697374656e7420746f6b656e00000000000000000000000000000000602082015250565b6000613bc0603083612abc565b9150613bcb82613b64565b604082019050919050565b60006020820190508181036000830152613bef81613bb3565b9050919050565b600081905092915050565b6000613c0c82612ab1565b613c168185613bf6565b9350613c26818560208601612acd565b80840191505092915050565b6000613c3e8285613c01565b9150613c4a8284613c01565b91508190509392505050565b7f4e6f6e6365203a20496e76616c6964204e6f6e63650000000000000000000000600082015250565b6000613c8c601583612abc565b9150613c9782613c56565b602082019050919050565b60006020820190508181036000830152613cbb81613c7f565b9050919050565b6000613ccd82612956565b9150613cd883612956565b9250827fffffffffffffffffffffffffffffffffffffffffffffffffffffffffffffffff03821115613d0d57613d0c613894565b5b828201905092915050565b7f455243313135353a2063616c6c6572206973206e6f74206f776e6572206e6f7260008201527f20617070726f7665640000000000000000000000000000000000000000000000602082015250565b6000613d74602983612abc565b9150613d7f82613d18565b604082019050919050565b60006020820190508181036000830152613da381613d67565b9050919050565b6000604082019050613dbf60008301856129cc565b613dcc60208301846129cc565b9392505050565b7f4f776e61626c653a206e6577206f776e657220697320746865207a65726f206160008201527f6464726573730000000000000000000000000000000000000000000000000000602082015250565b6000613e2f602683612abc565b9150613e3a82613dd3565b604082019050919050565b60006020820190508181036000830152613e5e81613e22565b9050919050565b6000613e7082612956565b9150613e7b83612956565b925082821015613e8e57613e8d613894565b5b828203905092915050565b7f536166654d6174683a206164646974696f6e206f766572666c6f770000000000600082015250565b6000613ecf601b83612abc565b9150613eda82613e99565b602082019050919050565b60006020820190508181036000830152613efe81613ec2565b9050919050565b600081519050919050565b600082825260208201905092915050565b6000613f2c82613f05565b613f368185613f10565b9350613f46818560208601612acd565b613f4f81612b00565b840191505092915050565b600060a082019050613f6f60008301886131b5565b613f7c60208301876131b5565b8181036040830152613f8e8186612fd3565b90508181036060830152613fa28185612fd3565b90508181036080830152613fb68184613f21565b90509695505050505050565b600081519050613fd181612a22565b92915050565b600060208284031215613fed57613fec6128ee565b5b6000613ffb84828501613fc2565b91505092915050565b60008160e01c9050919050565b600060033d11156140305760046000803e61402d600051614004565b90505b90565b600060443d106140c0576140456128e4565b60043d036004823e80513d602482011167ffffffffffffffff8211171561406d5750506140c0565b808201805167ffffffffffffffff81111561408b57505050506140c0565b80602083010160043d0385018111156140a85750505050506140c0565b6140b782602001850186612ba0565b82955050505050505b90565b7f455243313135353a207472616e7366657220746f206e6f6e204552433131353560008201527f526563656976657220696d706c656d656e746572000000000000000000000000602082015250565b600061411f603483612abc565b915061412a826140c3565b604082019050919050565b6000602082019050818103600083015261414e81614112565b9050919050565b7f455243313135353a204552433131353552656365697665722072656a6563746560008201527f6420746f6b656e73000000000000000000000000000000000000000000000000602082015250565b60006141b1602883612abc565b91506141bc82614155565b604082019050919050565b600060208201905081810360008301526141e0816141a4565b9050919050565b60008190508160005260206000209050919050565b60006020601f8301049050919050565b600082821b905092915050565b6000600883026142497fffffffffffffffffffffffffffffffffffffffffffffffffffffffffffffffff8261420c565b614253868361420c565b95508019841693508086168417925050509392505050565b6000819050919050565b600061429061428b61428684612956565b61426b565b612956565b9050919050565b6000819050919050565b6142aa83614275565b6142be6142b682614297565b848454614219565b825550505050565b600090565b6142d36142c6565b6142de8184846142a1565b505050565b5b81811015614302576142f76000826142cb565b6001810190506142e4565b5050565b601f82111561434757614318816141e7565b614321846141fc565b81016020851015614330578190505b61434461433c856141fc565b8301826142e3565b50505b505050565b600082821c905092915050565b600061436a6000198460080261434c565b1980831691505092915050565b60006143838383614359565b9150826002028217905092915050565b61439c82612ab1565b67ffffffffffffffff8111156143b5576143b4612b71565b5b6143bf825461367e565b6143ca828285614306565b600060209050601f8311600181146143fd57600084156143eb578287015190505b6143f58582614377565b86555061445d565b601f19841661440b866141e7565b60005b828110156144335784890151825560018201915060208501945060208101905061440e565b86831015614450578489015161444c601f891682614359565b8355505b6001600288020188555050505b505050505050565b7f455243313135353a206275726e2066726f6d20746865207a65726f206164647260008201527f6573730000000000000000000000000000000000000000000000000000000000602082015250565b60006144c1602383612abc565b91506144cc82614465565b604082019050919050565b600060208201905081810360008301526144f0816144b4565b9050919050565b7f455243313135354d657461646174613a206275726e20717565727920666f722060008201527f6e6f6e6578697374656e7420746f6b656e000000000000000000000000000000602082015250565b6000614553603183612abc565b915061455e826144f7565b604082019050919050565b6000602082019050818103600083015261458281614546565b9050919050565b7f4e487b7100000000000000000000000000000000000000000000000000000000600052601260045260246000fd5b60006145c382612956565b91506145ce83612956565b9250826145de576145dd614589565b5b828204905092915050565b60006145f482612956565b91506145ff83612956565b92508261460f5761460e614589565b5b828206905092915050565b600061463561463061462b846128f8565b61426b565b6128f8565b9050919050565b60006146478261461a565b9050919050565b60006146598261463c565b9050919050565b60008160601b9050919050565b600061467882614660565b9050919050565b600061468a8261466d565b9050919050565b6146a261469d8261464e565b61467f565b82525050565b6146b96146b482612918565b61467f565b82525050565b6000819050919050565b6146da6146d582612956565b6146bf565b82525050565b60006146ec8287614691565b6014820191506146fc82866146a8565b60148201915061470c8285613c01565b915061471882846146c9565b60208201915081905095945050505050565b7f19457468657265756d205369676e6564204d6573736167653a0a333200000000600082015250565b6000614760601c83613bf6565b915061476b8261472a565b601c82019050919050565b6000819050919050565b61479161478c82613336565b614776565b82525050565b60006147a282614753565b91506147ae8284614780565b60208201915081905092915050565b6147c681613336565b82525050565b6147d5816132fd565b82525050565b60006080820190506147f060008301876147bd565b6147fd60208301866147cc565b61480a60408301856147bd565b61481760608301846147bd565b95945050505050565b7f4f776e6572207369676e20766572696669636174696f6e206661696c65640000600082015250565b6000614856601e83612abc565b915061486182614820565b602082019050919050565b6000602082019050818103600083015261488581614849565b9050919050565b7f455243313135353a20746f6b656e20616c7265616479206d696e746564000000600082015250565b60006148c2601d83612abc565b91506148cd8261488c565b602082019050919050565b600060208201905081810360008301526148f1816148b5565b9050919050565b7f537570706c792073686f756c6420626520706f73697469766500000000000000600082015250565b600061492e601983612abc565b9150614939826148f8565b602082019050919050565b6000602082019050818103600083015261495d81614921565b9050919050565b7f7572692073686f756c6420626520736574000000000000000000000000000000600082015250565b600061499a601183612abc565b91506149a582614964565b602082019050919050565b600060208201905081810360008301526149c98161498d565b9050919050565b600060a0820190506149e560008301886131b5565b6149f260208301876131b5565b6149ff60408301866129cc565b614a0c60608301856129cc565b8181036080830152614a1e8184613f21565b9050969550505050505056fe455243313135353a206275726e20616d6f756e7420657863656564732062616c616e6365455243313135353a20696e73756666696369656e742062616c616e636520666f72207472616e736665724552435f686f6c646572546f6b656e73313135353a206275726e20616d6f756e7420657863656564732062616c616e6365a2646970667358221220ed43060a9c360c3abd6a56b8e55fb4604cee1336b5f51614b08c0db6f7e7a96e64736f6c634300080f003368747470733a2f2f676174657761792e70696e6174612e636c6f75642f697066732f",
  "immutableReferences": {},
  "source": "// SPDX-License-Identifier: MIT\r\n// OpenZeppelin Contracts (last updated v4.7.0) \r\n\r\npragma solidity ^0.8.4;\r\n\r\nimport \"./ERC1155.sol\";\r\n\r\ncontract MultipleNFT is ERC1155 {\r\n\r\n    uint256 newItemId = 1;\r\n    address public owner;\r\n    mapping(uint256 => bool) private usedNonce;\r\n    event OwnershipTransferred(address indexed previousOwner, address indexed newOwner);\r\n\r\n    struct Sign {\r\n        uint8 v;\r\n        bytes32 r;\r\n        bytes32 s;\r\n        uint256 nonce;\r\n    }\r\n\r\n    constructor (string memory name, string memory symbol) ERC1155 (name, symbol) {\r\n        owner = msg.sender;\r\n    }\r\n\r\n    modifier onlyOwner() {\r\n        require(owner == msg.sender, \"Ownable: caller is not the owner\");\r\n        _;\r\n    }\r\n\r\n    /** @dev change the Ownership from current owner to newOwner address\r\n        @param newOwner : newOwner address */    \r\n\r\n    function transferOwnership(address newOwner) public onlyOwner returns(bool){\r\n        require(newOwner != address(0), \"Ownable: new owner is the zero address\");\r\n        emit OwnershipTransferred(owner,newOwner);\r\n        owner = newOwner;\r\n        return true;\r\n    }\r\n\r\n    /** @dev verify the tokenURI that should be verified by owner of the contract.\r\n        *requirements: signer must be owner of the contract\r\n        @param tokenURI string memory URI of token to be minted.\r\n        @param sign struct combination of uint8, bytes32, bytes 32 are v, r, s.\r\n        note : sign value must be in the order of v, r, s.\r\n\r\n    */\r\n\r\n    function verifySign(string memory tokenURI, address caller, Sign memory sign) internal view {\r\n        bytes32 hash = keccak256(abi.encodePacked(this, caller, tokenURI, sign.nonce));\r\n        require(owner == ecrecover(keccak256(abi.encodePacked(\"\\x19Ethereum Signed Message:\\n32\", hash)), sign.v, sign.r, sign.s), \"Owner sign verification failed\");\r\n    }\r\n\r\n    function createMultiple(string memory uri, uint256 supply, uint256 fee, Sign memory sign)  public {\r\n        require(!usedNonce[sign.nonce],\"Nonce : Invalid Nonce\");\r\n        usedNonce[sign.nonce] = true;\r\n        verifySign(uri, msg.sender, sign);\r\n        _mint(newItemId, supply, uri,fee);\r\n        newItemId = newItemId+1;\r\n    }\r\n\r\n    function setBaseURI(string memory _baseURI) public onlyOwner{\r\n         _setTokenURIPrefix(_baseURI);\r\n    }\r\n\r\n    function burn(uint256 tokenId, uint256 supply) public {\r\n        _burn(msg.sender, tokenId, supply);\r\n    }\r\n\r\n    function burnBatch(uint256[] memory tokenIds, uint256[] memory amounts) public {\r\n        _burnBatch(msg.sender, tokenIds, amounts);\r\n    }\r\n}",
  "sourcePath": "C:\\Users\\91863\\Arevea\\contracts\\MultipleNFT.sol",
  "compiler": {
    "name": "solc",
    "version": "0.8.15+commit.e14f2714.Emscripten.clang"
  },
  "schemaVersion": "3.4.8",
  "updatedAt": "2022-07-19T13:13:23.903Z",
  "networkType": "ethereum",
  "devdoc": {
    "kind": "dev",
    "methods": {
      "balanceOf(address,uint256)": {
        "params": {
          "account": "The address of the token holder",
          "tokenId": "ID of the Token"
        },
        "returns": {
          "_0": "The owner's balance of the Token type requested"
        }
      },
      "balanceOfBatch(address[],uint256[])": {
        "params": {
          "accounts": "The addresses of the token holders",
          "ids": "ID of the Tokens"
        },
        "returns": {
          "_0": "The _owner's balance of the Token types requested (i.e. balance for each (owner, id) pair)"
        }
      },
      "getCreator(uint256)": {
        "params": {
          "tokenId": "ID of the Token."
        },
        "returns": {
          "_0": "creator of given ID."
        }
      },
      "isApprovedForAll(address,address)": {
        "params": {
          "account": "The owner of the Tokens",
          "operator": "Address of authorized operator"
        },
        "returns": {
          "_0": "True if the operator is approved, false if not"
        }
      },
      "royaltyFee(uint256)": {
        "params": {
          "tokenId": "ID of the Token."
        },
        "returns": {
          "_0": "royaltyFee of given ID."
        }
      },
      "safeBatchTransferFrom(address,address,uint256[],uint256[],bytes)": {
        "details": "Caller must be approved to manage the tokens being transferred out of the `_from` account (see \"Approval\" section of the standard). MUST revert if `_to` is the zero address. MUST revert if length of `_ids` is not the same as length of `_values`. MUST revert if any of the balance(s) of the holder(s) for token(s) in `_ids` is lower than the respective amount(s) in `_values` sent to the recipient. MUST revert on any other error. MUST emit `TransferSingle` or `TransferBatch` event(s) such that all the balance changes are reflected (see \"Safe Transfer Rules\" section of the standard). Balance changes and events MUST follow the ordering of the arrays (_ids[0]/_values[0] before _ids[1]/_values[1], etc). After the above conditions for the transfer(s) in the batch are met, this function MUST check if `_to` is a smart contract (e.g. code size > 0). If so, it MUST call the relevant `ERC1155TokenReceiver` hook(s) on `_to` and act appropriately (see \"Safe Transfer Rules\" section of the standard).",
        "params": {
          "amounts": "Transfer amounts per token type (order and length must match _ids array)",
          "data": "Additional data with no specified format, MUST be sent unaltered in call to the `ERC1155TokenReceiver` hook(s) on `_to`",
          "from": "Source address",
          "to": "Target address",
          "tokenIds": "IDs of each token type (order and length must match _values array)"
        }
      },
      "safeTransferFrom(address,address,uint256,uint256,bytes)": {
        "details": "Caller must be approved to manage the tokens being transferred out of the `_from` account (see \"Approval\" section of the standard). MUST revert if `_to` is the zero address. MUST revert if balance of holder for token `_id` is lower than the `_value` sent. MUST revert on any other error. MUST emit the `TransferSingle` event to reflect the balance change (see \"Safe Transfer Rules\" section of the standard). After the above conditions are met, this function MUST check if `_to` is a smart contract (e.g. code size > 0). If so, it MUST call `onERC1155Received` on `_to` and act appropriately (see \"Safe Transfer Rules\" section of the standard).",
        "params": {
          "amount": "Transfer amount",
          "data": "Additional data with no specified format, MUST be sent unaltered in call to `onERC1155Received` on `_to`",
          "from": "Source address",
          "to": "Target address",
          "tokenId": "ID of the token type"
        }
      },
      "setApprovalForAll(address,bool)": {
        "details": "MUST emit the ApprovalForAll event on success.",
        "params": {
          "approved": "True if the operator is approved, false to revoke approval",
          "operator": "Address to add to the set of authorized operators"
        }
      },
      "supportsInterface(bytes4)": {
        "details": "Returns true if this contract implements the interface defined by `interfaceId`. See the corresponding https://eips.ethereum.org/EIPS/eip-165#how-interfaces-are-identified[EIP section] to learn more about how these ids are created. This function call must use less than 30 000 gas."
      },
      "tokenURI(uint256)": {
        "details": "Returns an URI for a given token ID. Throws if the token ID does not exist. May return an empty string.",
        "params": {
          "tokenId": "uint256 ID of the token to query"
        }
      },
      "transferOwnership(address)": {
        "details": "change the Ownership from current owner to newOwner address",
        "params": {
          "newOwner": ": newOwner address "
        }
      }
    },
    "version": 1
  },
  "userdoc": {
    "kind": "user",
    "methods": {
      "balanceOf(address,uint256)": {
        "notice": "Get the balance of an account's Tokens."
      },
      "balanceOfBatch(address[],uint256[])": {
        "notice": "Get the balance of multiple account/token pairs"
      },
      "getCreator(uint256)": {
        "notice": "Get the creator of given tokenID."
      },
      "isApprovedForAll(address,address)": {
        "notice": "Queries the approval status of an operator for a given owner."
      },
      "royaltyFee(uint256)": {
        "notice": "Get the royalty associated with tokenID."
      },
      "safeBatchTransferFrom(address,address,uint256[],uint256[],bytes)": {
        "notice": "Transfers `_values` amount(s) of `_ids` from the `_from` address to the `_to` address specified (with safety call)."
      },
      "safeTransferFrom(address,address,uint256,uint256,bytes)": {
        "notice": "Transfers `_value` amount of an `_id` from the `_from` address to the `_to` address specified (with safety call)."
      },
      "setApprovalForAll(address,bool)": {
        "notice": "Enable or disable approval for a third party (\"operator\") to manage all of the caller's tokens."
      }
    },
    "version": 1
  }
}