{
  "contractName": "NFT",
  "abi": [
    {
      "inputs": [
        {
          "internalType": "string",
          "name": "tokenName",
          "type": "string"
        },
        {
          "internalType": "string",
          "name": "tokenSymbol",
          "type": "string"
        }
      ],
      "stateMutability": "nonpayable",
      "type": "constructor"
    },
    {
      "anonymous": false,
      "inputs": [
        {
          "indexed": true,
          "internalType": "address",
          "name": "owner",
          "type": "address"
        },
        {
          "indexed": true,
          "internalType": "address",
          "name": "approved",
          "type": "address"
        },
        {
          "indexed": true,
          "internalType": "uint256",
          "name": "tokenId",
          "type": "uint256"
        }
      ],
      "name": "Approval",
      "type": "event"
    },
    {
      "anonymous": false,
      "inputs": [
        {
          "indexed": true,
          "internalType": "address",
          "name": "owner",
          "type": "address"
        },
        {
          "indexed": true,
          "internalType": "address",
          "name": "operator",
          "type": "address"
        },
        {
          "indexed": false,
          "internalType": "bool",
          "name": "approved",
          "type": "bool"
        }
      ],
      "name": "ApprovalForAll",
      "type": "event"
    },
    {
      "anonymous": false,
      "inputs": [
        {
          "indexed": true,
          "internalType": "address",
          "name": "previousOwner",
          "type": "address"
        },
        {
          "indexed": true,
          "internalType": "address",
          "name": "newOwner",
          "type": "address"
        }
      ],
      "name": "OwnershipTransferred",
      "type": "event"
    },
    {
      "anonymous": false,
      "inputs": [
        {
          "indexed": true,
          "internalType": "address",
          "name": "from",
          "type": "address"
        },
        {
          "indexed": true,
          "internalType": "address",
          "name": "to",
          "type": "address"
        },
        {
          "indexed": true,
          "internalType": "uint256",
          "name": "tokenId",
          "type": "uint256"
        }
      ],
      "name": "Transfer",
      "type": "event"
    },
    {
      "anonymous": false,
      "inputs": [
        {
          "indexed": false,
          "internalType": "string",
          "name": "value",
          "type": "string"
        },
        {
          "indexed": true,
          "internalType": "uint256",
          "name": "id",
          "type": "uint256"
        }
      ],
      "name": "URI",
      "type": "event"
    },
    {
      "anonymous": false,
      "inputs": [
        {
          "indexed": false,
          "internalType": "string",
          "name": "value",
          "type": "string"
        }
      ],
      "name": "tokenBaseURI",
      "type": "event"
    },
    {
      "inputs": [
        {
          "internalType": "address",
          "name": "to",
          "type": "address"
        },
        {
          "internalType": "uint256",
          "name": "tokenId",
          "type": "uint256"
        }
      ],
      "name": "approve",
      "outputs": [],
      "stateMutability": "nonpayable",
      "type": "function"
    },
    {
      "inputs": [
        {
          "internalType": "address",
          "name": "owner",
          "type": "address"
        }
      ],
      "name": "balanceOf",
      "outputs": [
        {
          "internalType": "uint256",
          "name": "",
          "type": "uint256"
        }
      ],
      "stateMutability": "view",
      "type": "function",
      "constant": true
    },
    {
      "inputs": [],
      "name": "baseURI",
      "outputs": [
        {
          "internalType": "string",
          "name": "",
          "type": "string"
        }
      ],
      "stateMutability": "view",
      "type": "function",
      "constant": true
    },
    {
      "inputs": [
        {
          "internalType": "uint256",
          "name": "tokenId",
          "type": "uint256"
        }
      ],
      "name": "getApproved",
      "outputs": [
        {
          "internalType": "address",
          "name": "",
          "type": "address"
        }
      ],
      "stateMutability": "view",
      "type": "function",
      "constant": true
    },
    {
      "inputs": [
        {
          "internalType": "uint256",
          "name": "tokenId",
          "type": "uint256"
        }
      ],
      "name": "getCreator",
      "outputs": [
        {
          "internalType": "address",
          "name": "",
          "type": "address"
        }
      ],
      "stateMutability": "view",
      "type": "function",
      "constant": true
    },
    {
      "inputs": [
        {
          "internalType": "address",
          "name": "owner",
          "type": "address"
        },
        {
          "internalType": "address",
          "name": "operator",
          "type": "address"
        }
      ],
      "name": "isApprovedForAll",
      "outputs": [
        {
          "internalType": "bool",
          "name": "",
          "type": "bool"
        }
      ],
      "stateMutability": "view",
      "type": "function",
      "constant": true
    },
    {
      "inputs": [],
      "name": "name",
      "outputs": [
        {
          "internalType": "string",
          "name": "",
          "type": "string"
        }
      ],
      "stateMutability": "view",
      "type": "function",
      "constant": true
    },
    {
      "inputs": [],
      "name": "owner",
      "outputs": [
        {
          "internalType": "address",
          "name": "",
          "type": "address"
        }
      ],
      "stateMutability": "view",
      "type": "function",
      "constant": true
    },
    {
      "inputs": [
        {
          "internalType": "uint256",
          "name": "tokenId",
          "type": "uint256"
        }
      ],
      "name": "ownerOf",
      "outputs": [
        {
          "internalType": "address",
          "name": "",
          "type": "address"
        }
      ],
      "stateMutability": "view",
      "type": "function",
      "constant": true
    },
    {
      "inputs": [
        {
          "internalType": "uint256",
          "name": "tokenId",
          "type": "uint256"
        }
      ],
      "name": "royaltyFee",
      "outputs": [
        {
          "internalType": "uint256",
          "name": "",
          "type": "uint256"
        }
      ],
      "stateMutability": "view",
      "type": "function",
      "constant": true
    },
    {
      "inputs": [
        {
          "internalType": "address",
          "name": "from",
          "type": "address"
        },
        {
          "internalType": "address",
          "name": "to",
          "type": "address"
        },
        {
          "internalType": "uint256",
          "name": "tokenId",
          "type": "uint256"
        }
      ],
      "name": "safeTransferFrom",
      "outputs": [],
      "stateMutability": "nonpayable",
      "type": "function"
    },
    {
      "inputs": [
        {
          "internalType": "address",
          "name": "from",
          "type": "address"
        },
        {
          "internalType": "address",
          "name": "to",
          "type": "address"
        },
        {
          "internalType": "uint256",
          "name": "tokenId",
          "type": "uint256"
        },
        {
          "internalType": "bytes",
          "name": "_data",
          "type": "bytes"
        }
      ],
      "name": "safeTransferFrom",
      "outputs": [],
      "stateMutability": "nonpayable",
      "type": "function"
    },
    {
      "inputs": [
        {
          "internalType": "address",
          "name": "operator",
          "type": "address"
        },
        {
          "internalType": "bool",
          "name": "approved",
          "type": "bool"
        }
      ],
      "name": "setApprovalForAll",
      "outputs": [],
      "stateMutability": "nonpayable",
      "type": "function"
    },
    {
      "inputs": [
        {
          "internalType": "bytes4",
          "name": "interfaceId",
          "type": "bytes4"
        }
      ],
      "name": "supportsInterface",
      "outputs": [
        {
          "internalType": "bool",
          "name": "",
          "type": "bool"
        }
      ],
      "stateMutability": "view",
      "type": "function",
      "constant": true
    },
    {
      "inputs": [],
      "name": "symbol",
      "outputs": [
        {
          "internalType": "string",
          "name": "",
          "type": "string"
        }
      ],
      "stateMutability": "view",
      "type": "function",
      "constant": true
    },
    {
      "inputs": [
        {
          "internalType": "uint256",
          "name": "index",
          "type": "uint256"
        }
      ],
      "name": "tokenByIndex",
      "outputs": [
        {
          "internalType": "uint256",
          "name": "",
          "type": "uint256"
        }
      ],
      "stateMutability": "view",
      "type": "function",
      "constant": true
    },
    {
      "inputs": [],
      "name": "tokenCounter",
      "outputs": [
        {
          "internalType": "uint256",
          "name": "",
          "type": "uint256"
        }
      ],
      "stateMutability": "view",
      "type": "function",
      "constant": true
    },
    {
      "inputs": [
        {
          "internalType": "address",
          "name": "owner",
          "type": "address"
        },
        {
          "internalType": "uint256",
          "name": "index",
          "type": "uint256"
        }
      ],
      "name": "tokenOfOwnerByIndex",
      "outputs": [
        {
          "internalType": "uint256",
          "name": "",
          "type": "uint256"
        }
      ],
      "stateMutability": "view",
      "type": "function",
      "constant": true
    },
    {
      "inputs": [
        {
          "internalType": "uint256",
          "name": "tokenId",
          "type": "uint256"
        }
      ],
      "name": "tokenURI",
      "outputs": [
        {
          "internalType": "string",
          "name": "",
          "type": "string"
        }
      ],
      "stateMutability": "view",
      "type": "function",
      "constant": true
    },
    {
      "inputs": [],
      "name": "totalSupply",
      "outputs": [
        {
          "internalType": "uint256",
          "name": "",
          "type": "uint256"
        }
      ],
      "stateMutability": "view",
      "type": "function",
      "constant": true
    },
    {
      "inputs": [
        {
          "internalType": "address",
          "name": "from",
          "type": "address"
        },
        {
          "internalType": "address",
          "name": "to",
          "type": "address"
        },
        {
          "internalType": "uint256",
          "name": "tokenId",
          "type": "uint256"
        }
      ],
      "name": "transferFrom",
      "outputs": [],
      "stateMutability": "nonpayable",
      "type": "function"
    },
    {
      "inputs": [
        {
          "internalType": "address",
          "name": "newOwner",
          "type": "address"
        }
      ],
      "name": "transferOwnership",
      "outputs": [
        {
          "internalType": "bool",
          "name": "",
          "type": "bool"
        }
      ],
      "stateMutability": "nonpayable",
      "type": "function"
    },
    {
      "inputs": [
        {
          "internalType": "string",
          "name": "tokenURI",
          "type": "string"
        },
        {
          "internalType": "uint256",
          "name": "fee",
          "type": "uint256"
        },
        {
          "components": [
            {
              "internalType": "uint8",
              "name": "v",
              "type": "uint8"
            },
            {
              "internalType": "bytes32",
              "name": "r",
              "type": "bytes32"
            },
            {
              "internalType": "bytes32",
              "name": "s",
              "type": "bytes32"
            },
            {
              "internalType": "uint256",
              "name": "nonce",
              "type": "uint256"
            }
          ],
          "internalType": "struct NFT.Sign",
          "name": "sign",
          "type": "tuple"
        }
      ],
      "name": "createNFT",
      "outputs": [
        {
          "internalType": "uint256",
          "name": "",
          "type": "uint256"
        }
      ],
      "stateMutability": "nonpayable",
      "type": "function"
    },
    {
      "inputs": [
        {
          "internalType": "string",
          "name": "_baseURI",
          "type": "string"
        }
      ],
      "name": "setBaseURI",
      "outputs": [],
      "stateMutability": "nonpayable",
      "type": "function"
    },
    {
      "inputs": [
        {
          "internalType": "uint256",
          "name": "tokenId",
          "type": "uint256"
        }
      ],
      "name": "burn",
      "outputs": [],
      "stateMutability": "nonpayable",
      "type": "function"
    }
  ],
  "bytecode": "0x608060405260405180602001604052806000815250600b908162000024919062000482565b503480156200003257600080fd5b5060405162004fdc38038062004fdc8339818101604052810190620000589190620006d7565b8181620000726301ffc9a760e01b6200013160201b60201c565b816006908162000083919062000482565b50806007908162000095919062000482565b50620000ae6380ac58cd60e01b6200013160201b60201c565b620000c6635b5e139f60e01b6200013160201b60201c565b620000de63780e9d6360e01b6200013160201b60201c565b50506001600c8190555033600d60006101000a81548173ffffffffffffffffffffffffffffffffffffffff021916908373ffffffffffffffffffffffffffffffffffffffff1602179055505050620007df565b63ffffffff60e01b817bffffffffffffffffffffffffffffffffffffffffffffffffffffffff1916036200019c576040517f08c379a00000000000000000000000000000000000000000000000000000000081526004016200019390620007bd565b60405180910390fd5b6001600080837bffffffffffffffffffffffffffffffffffffffffffffffffffffffff19167bffffffffffffffffffffffffffffffffffffffffffffffffffffffff1916815260200190815260200160002060006101000a81548160ff02191690831515021790555050565b600081519050919050565b7f4e487b7100000000000000000000000000000000000000000000000000000000600052604160045260246000fd5b7f4e487b7100000000000000000000000000000000000000000000000000000000600052602260045260246000fd5b600060028204905060018216806200028a57607f821691505b602082108103620002a0576200029f62000242565b5b50919050565b60008190508160005260206000209050919050565b60006020601f8301049050919050565b600082821b905092915050565b6000600883026200030a7fffffffffffffffffffffffffffffffffffffffffffffffffffffffffffffffff82620002cb565b620003168683620002cb565b95508019841693508086168417925050509392505050565b6000819050919050565b6000819050919050565b6000620003636200035d62000357846200032e565b62000338565b6200032e565b9050919050565b6000819050919050565b6200037f8362000342565b620003976200038e826200036a565b848454620002d8565b825550505050565b600090565b620003ae6200039f565b620003bb81848462000374565b505050565b5b81811015620003e357620003d7600082620003a4565b600181019050620003c1565b5050565b601f8211156200043257620003fc81620002a6565b6200040784620002bb565b8101602085101562000417578190505b6200042f6200042685620002bb565b830182620003c0565b50505b505050565b600082821c905092915050565b6000620004576000198460080262000437565b1980831691505092915050565b600062000472838362000444565b9150826002028217905092915050565b6200048d8262000208565b67ffffffffffffffff811115620004a957620004a862000213565b5b620004b5825462000271565b620004c2828285620003e7565b600060209050601f831160018114620004fa5760008415620004e5578287015190505b620004f1858262000464565b86555062000561565b601f1984166200050a86620002a6565b60005b8281101562000534578489015182556001820191506020850194506020810190506200050d565b8683101562000554578489015162000550601f89168262000444565b8355505b6001600288020188555050505b505050505050565b6000604051905090565b600080fd5b600080fd5b600080fd5b600080fd5b6000601f19601f8301169050919050565b620005a38262000587565b810181811067ffffffffffffffff82111715620005c557620005c462000213565b5b80604052505050565b6000620005da62000569565b9050620005e8828262000598565b919050565b600067ffffffffffffffff8211156200060b576200060a62000213565b5b620006168262000587565b9050602081019050919050565b60005b838110156200064357808201518184015260208101905062000626565b8381111562000653576000848401525b50505050565b6000620006706200066a84620005ed565b620005ce565b9050828152602081018484840111156200068f576200068e62000582565b5b6200069c84828562000623565b509392505050565b600082601f830112620006bc57620006bb6200057d565b5b8151620006ce84826020860162000659565b91505092915050565b60008060408385031215620006f157620006f062000573565b5b600083015167ffffffffffffffff81111562000712576200071162000578565b5b6200072085828601620006a4565b925050602083015167ffffffffffffffff81111562000744576200074362000578565b5b6200075285828601620006a4565b9150509250929050565b600082825260208201905092915050565b7f4552433136353a20696e76616c696420696e7465726661636520696400000000600082015250565b6000620007a5601c836200075c565b9150620007b2826200076d565b602082019050919050565b60006020820190508181036000830152620007d88162000796565b9050919050565b6147ed80620007ef6000396000f3fe608060405234801561001057600080fd5b50600436106101735760003560e01c80636c0360eb116100de578063b88d4fde11610097578063d082e38111610071578063d082e38114610482578063d48e638a146104a0578063e985e9c5146104d0578063f2fde38b1461050057610173565b8063b88d4fde14610406578063c57dc23514610422578063c87b56dd1461045257610173565b80636c0360eb1461033057806370a082311461034e5780638da5cb5b1461037e5780638e3aa96f1461039c57806395d89b41146103cc578063a22cb465146103ea57610173565b80632f745c59116101305780632f745c591461024c57806342842e0e1461027c57806342966c68146102985780634f6ccce7146102b457806355f804b3146102e45780636352211e1461030057610173565b806301ffc9a71461017857806306fdde03146101a8578063081812fc146101c6578063095ea7b3146101f657806318160ddd1461021257806323b872dd14610230575b600080fd5b610192600480360381019061018d9190612a58565b610530565b60405161019f9190612aa0565b60405180910390f35b6101b0610597565b6040516101bd9190612b54565b60405180910390f35b6101e060048036038101906101db9190612bac565b610629565b6040516101ed9190612c1a565b60405180910390f35b610210600480360381019061020b9190612c61565b6106ae565b005b61021a6107c5565b6040516102279190612cb0565b60405180910390f35b61024a60048036038101906102459190612ccb565b6107d6565b005b61026660048036038101906102619190612c61565b610836565b6040516102739190612cb0565b60405180910390f35b61029660048036038101906102919190612ccb565b610891565b005b6102b260048036038101906102ad9190612bac565b6108b1565b005b6102ce60048036038101906102c99190612bac565b610905565b6040516102db9190612cb0565b60405180910390f35b6102fe60048036038101906102f99190612e53565b610928565b005b61031a60048036038101906103159190612bac565b6109c4565b6040516103279190612c1a565b60405180910390f35b6103386109fb565b6040516103459190612b54565b60405180910390f35b61036860048036038101906103639190612e9c565b610a8d565b6040516103759190612cb0565b60405180910390f35b610386610b4b565b6040516103939190612c1a565b60405180910390f35b6103b660048036038101906103b19190612fb5565b610b71565b6040516103c39190612cb0565b60405180910390f35b6103d4610cf2565b6040516103e19190612b54565b60405180910390f35b61040460048036038101906103ff9190613050565b610d84565b005b610420600480360381019061041b9190613131565b610f04565b005b61043c60048036038101906104379190612bac565b610f66565b6040516104499190612cb0565b60405180910390f35b61046c60048036038101906104679190612bac565b610f83565b6040516104799190612b54565b60405180910390f35b61048a6110f5565b6040516104979190612cb0565b60405180910390f35b6104ba60048036038101906104b59190612bac565b6110fb565b6040516104c79190612c1a565b60405180910390f35b6104ea60048036038101906104e591906131b4565b611138565b6040516104f79190612aa0565b60405180910390f35b61051a60048036038101906105159190612e9c565b6111cc565b6040516105279190612aa0565b60405180910390f35b6000806000837bffffffffffffffffffffffffffffffffffffffffffffffffffffffff19167bffffffffffffffffffffffffffffffffffffffffffffffffffffffff1916815260200190815260200160002060009054906101000a900460ff169050919050565b6060600680546105a690613223565b80601f01602080910402602001604051908101604052809291908181526020018280546105d290613223565b801561061f5780601f106105f45761010080835404028352916020019161061f565b820191906000526020600020905b81548152906001019060200180831161060257829003601f168201915b5050505050905090565b600061063482611393565b610673576040517f08c379a000000000000000000000000000000000000000000000000000000000815260040161066a906132c6565b60405180910390fd5b6004600083815260200190815260200160002060009054906101000a900473ffffffffffffffffffffffffffffffffffffffff169050919050565b60006106b9826109c4565b90508073ffffffffffffffffffffffffffffffffffffffff168373ffffffffffffffffffffffffffffffffffffffff1603610729576040517f08c379a000000000000000000000000000000000000000000000000000000000815260040161072090613358565b60405180910390fd5b8073ffffffffffffffffffffffffffffffffffffffff166107486113b0565b73ffffffffffffffffffffffffffffffffffffffff1614806107775750610776816107716113b0565b611138565b5b6107b6576040517f08c379a00000000000000000000000000000000000000000000000000000000081526004016107ad906133ea565b60405180910390fd5b6107c083836113b8565b505050565b60006107d16002611471565b905090565b6107e76107e16113b0565b82611486565b610826576040517f08c379a000000000000000000000000000000000000000000000000000000000815260040161081d9061347c565b60405180910390fd5b610831838383611564565b505050565b600061088982600160008673ffffffffffffffffffffffffffffffffffffffff1673ffffffffffffffffffffffffffffffffffffffff16815260200190815260200160002061177890919063ffffffff16565b905092915050565b6108ac83838360405180602001604052806000815250610f04565b505050565b6108ba81611393565b6108f9576040517f08c379a00000000000000000000000000000000000000000000000000000000081526004016108f0906134e8565b60405180910390fd5b61090281611792565b50565b60008061091c83600261193990919063ffffffff16565b50905080915050919050565b3373ffffffffffffffffffffffffffffffffffffffff16600d60009054906101000a900473ffffffffffffffffffffffffffffffffffffffff1673ffffffffffffffffffffffffffffffffffffffff16146109b8576040517f08c379a00000000000000000000000000000000000000000000000000000000081526004016109af90613554565b60405180910390fd5b6109c181611965565b50565b60006109f48260405180606001604052806029815260200161478f6029913960026119af9092919063ffffffff16565b9050919050565b6060600b8054610a0a90613223565b80601f0160208091040260200160405190810160405280929190818152602001828054610a3690613223565b8015610a835780601f10610a5857610100808354040283529160200191610a83565b820191906000526020600020905b815481529060010190602001808311610a6657829003601f168201915b5050505050905090565b60008073ffffffffffffffffffffffffffffffffffffffff168273ffffffffffffffffffffffffffffffffffffffff1603610afd576040517f08c379a0000000000000000000000000000000000000000000000000000000008152600401610af4906135e6565b60405180910390fd5b610b44600160008473ffffffffffffffffffffffffffffffffffffffff1673ffffffffffffffffffffffffffffffffffffffff1681526020019081526020016000206119ce565b9050919050565b600d60009054906101000a900473ffffffffffffffffffffffffffffffffffffffff1681565b6000600e60008360600151815260200190815260200160002060009054906101000a900460ff1615610bd8576040517f08c379a0000000000000000000000000000000000000000000000000000000008152600401610bcf90613652565b60405180910390fd5b600f84604051610be891906136ae565b908152602001604051809103902060009054906101000a900460ff1615610c44576040517f08c379a0000000000000000000000000000000000000000000000000000000008152600401610c3b90613711565b60405180910390fd5b6001600e60008460600151815260200190815260200160002060006101000a81548160ff0219169083151502179055506000600c549050610c868533856119e3565b610c91338286611b2e565b610c9b8186611b4e565b6001600f86604051610cad91906136ae565b908152602001604051809103902060006101000a81548160ff0219169083151502179055506001600c54610ce19190613760565b600c81905550809150509392505050565b606060078054610d0190613223565b80601f0160208091040260200160405190810160405280929190818152602001828054610d2d90613223565b8015610d7a5780601f10610d4f57610100808354040283529160200191610d7a565b820191906000526020600020905b815481529060010190602001808311610d5d57829003601f168201915b5050505050905090565b610d8c6113b0565b73ffffffffffffffffffffffffffffffffffffffff168273ffffffffffffffffffffffffffffffffffffffff1603610df9576040517f08c379a0000000000000000000000000000000000000000000000000000000008152600401610df090613802565b60405180910390fd5b8060056000610e066113b0565b73ffffffffffffffffffffffffffffffffffffffff1673ffffffffffffffffffffffffffffffffffffffff16815260200190815260200160002060008473ffffffffffffffffffffffffffffffffffffffff1673ffffffffffffffffffffffffffffffffffffffff16815260200190815260200160002060006101000a81548160ff0219169083151502179055508173ffffffffffffffffffffffffffffffffffffffff16610eb36113b0565b73ffffffffffffffffffffffffffffffffffffffff167f17307eab39ab6107e8899845ad3d59bd9653f200f220920489ca2b5937696c3183604051610ef89190612aa0565b60405180910390a35050565b610f15610f0f6113b0565b83611486565b610f54576040517f08c379a0000000000000000000000000000000000000000000000000000000008152600401610f4b9061347c565b60405180910390fd5b610f6084848484611bf3565b50505050565b600060096000838152602001908152602001600020549050919050565b6060610f8e82611393565b610fcd576040517f08c379a0000000000000000000000000000000000000000000000000000000008152600401610fc490613894565b60405180910390fd5b6000600860008481526020019081526020016000208054610fed90613223565b80601f016020809104026020016040519081016040528092919081815260200182805461101990613223565b80156110665780601f1061103b57610100808354040283529160200191611066565b820191906000526020600020905b81548152906001019060200180831161104957829003601f168201915b5050505050905060006110776109fb565b9050600081510361108c5781925050506110f0565b6000825111156110c15780826040516020016110a99291906138b4565b604051602081830303815290604052925050506110f0565b806110cb85611c4f565b6040516020016110dc9291906138b4565b604051602081830303815290604052925050505b919050565b600c5481565b6000600a600083815260200190815260200160002060009054906101000a900473ffffffffffffffffffffffffffffffffffffffff169050919050565b6000600560008473ffffffffffffffffffffffffffffffffffffffff1673ffffffffffffffffffffffffffffffffffffffff16815260200190815260200160002060008373ffffffffffffffffffffffffffffffffffffffff1673ffffffffffffffffffffffffffffffffffffffff16815260200190815260200160002060009054906101000a900460ff16905092915050565b60003373ffffffffffffffffffffffffffffffffffffffff16600d60009054906101000a900473ffffffffffffffffffffffffffffffffffffffff1673ffffffffffffffffffffffffffffffffffffffff161461125e576040517f08c379a000000000000000000000000000000000000000000000000000000000815260040161125590613554565b60405180910390fd5b600073ffffffffffffffffffffffffffffffffffffffff168273ffffffffffffffffffffffffffffffffffffffff16036112cd576040517f08c379a00000000000000000000000000000000000000000000000000000000081526004016112c49061394a565b60405180910390fd5b81600d60006101000a81548173ffffffffffffffffffffffffffffffffffffffff021916908373ffffffffffffffffffffffffffffffffffffffff1602179055508173ffffffffffffffffffffffffffffffffffffffff16600d60009054906101000a900473ffffffffffffffffffffffffffffffffffffffff1673ffffffffffffffffffffffffffffffffffffffff167f8be0079c531659141344cd1fd0a4f28419497f9722a3daafe3b4186f6b6457e060405160405180910390a360019050919050565b60006113a9826002611daf90919063ffffffff16565b9050919050565b600033905090565b816004600083815260200190815260200160002060006101000a81548173ffffffffffffffffffffffffffffffffffffffff021916908373ffffffffffffffffffffffffffffffffffffffff160217905550808273ffffffffffffffffffffffffffffffffffffffff1661142b836109c4565b73ffffffffffffffffffffffffffffffffffffffff167f8c5be1e5ebec7d5bd14f71427d1e84f3dd0314c0f7b2291e5b200ac8c7c3b92560405160405180910390a45050565b600061147f82600001611dc9565b9050919050565b600061149182611393565b6114d0576040517f08c379a00000000000000000000000000000000000000000000000000000000081526004016114c7906139dc565b60405180910390fd5b60006114db836109c4565b90508073ffffffffffffffffffffffffffffffffffffffff168473ffffffffffffffffffffffffffffffffffffffff16148061154a57508373ffffffffffffffffffffffffffffffffffffffff1661153284610629565b73ffffffffffffffffffffffffffffffffffffffff16145b8061155b575061155a8185611138565b5b91505092915050565b8273ffffffffffffffffffffffffffffffffffffffff16611584826109c4565b73ffffffffffffffffffffffffffffffffffffffff16146115da576040517f08c379a00000000000000000000000000000000000000000000000000000000081526004016115d190613a6e565b60405180910390fd5b600073ffffffffffffffffffffffffffffffffffffffff168273ffffffffffffffffffffffffffffffffffffffff1603611649576040517f08c379a000000000000000000000000000000000000000000000000000000000815260040161164090613b00565b60405180910390fd5b611654838383611dda565b61165f6000826113b8565b6116b081600160008673ffffffffffffffffffffffffffffffffffffffff1673ffffffffffffffffffffffffffffffffffffffff168152602001908152602001600020611ddf90919063ffffffff16565b61170181600160008573ffffffffffffffffffffffffffffffffffffffff1673ffffffffffffffffffffffffffffffffffffffff168152602001908152602001600020611df490919063ffffffff16565b61171781836002611e099092919063ffffffff16565b50808273ffffffffffffffffffffffffffffffffffffffff168473ffffffffffffffffffffffffffffffffffffffff167fddf252ad1be2c89b69c2b068fc378daa952ba7f163c4a11628f55a4df523b3ef60405160405180910390a4505050565b60006117878360000183611e3e565b60001c905092915050565b61179b816109c4565b73ffffffffffffffffffffffffffffffffffffffff163373ffffffffffffffffffffffffffffffffffffffff1614611808576040517f08c379a00000000000000000000000000000000000000000000000000000000081526004016117ff90613b6c565b60405180910390fd5b6000611813826109c4565b905061182181600084611dda565b61182c6000836113b8565b600060086000848152602001908152602001600020805461184c90613223565b90501461187357600860008381526020019081526020016000206000611872919061298f565b5b6118c482600160008473ffffffffffffffffffffffffffffffffffffffff1673ffffffffffffffffffffffffffffffffffffffff168152602001908152602001600020611ddf90919063ffffffff16565b6118d8826002611eb290919063ffffffff16565b5081600073ffffffffffffffffffffffffffffffffffffffff168273ffffffffffffffffffffffffffffffffffffffff167fddf252ad1be2c89b69c2b068fc378daa952ba7f163c4a11628f55a4df523b3ef60405160405180910390a45050565b60008060008061194c8660000186611ecc565b915091508160001c8160001c9350935050509250929050565b80600b90816119749190613d38565b507f5514cc7324ac64a875ba50a1849367d39c8b030fe0f563c3c7142984552bc306816040516119a49190612b54565b60405180910390a150565b60006119c2846000018460001b84611f56565b60001c90509392505050565b60006119dc82600001611ff7565b9050919050565b60003083858460600151604051602001611a009493929190613ed0565b604051602081830303815290604052805190602001209050600181604051602001611a2b9190613f87565b6040516020818303038152906040528051906020012083600001518460200151856040015160405160008152602001604052604051611a6d9493929190613fcb565b6020604051602081039080840390855afa158015611a8f573d6000803e3d6000fd5b5050506020604051035173ffffffffffffffffffffffffffffffffffffffff16600d60009054906101000a900473ffffffffffffffffffffffffffffffffffffffff1673ffffffffffffffffffffffffffffffffffffffff1614611b28576040517f08c379a0000000000000000000000000000000000000000000000000000000008152600401611b1f9061405c565b60405180910390fd5b50505050565b611b4983838360405180602001604052806000815250612008565b505050565b611b5782611393565b611b96576040517f08c379a0000000000000000000000000000000000000000000000000000000008152600401611b8d906140ee565b60405180910390fd5b80600860008481526020019081526020016000209081611bb69190613d38565b50817f6bb7ff708619ba0610cba295a58592e0451dee2622938c8755667688daf3529b82604051611be79190612b54565b60405180910390a25050565b611bfe848484611564565b611c0a84848484612065565b611c49576040517f08c379a0000000000000000000000000000000000000000000000000000000008152600401611c4090614180565b60405180910390fd5b50505050565b606060008203611c96576040518060400160405280600181526020017f30000000000000000000000000000000000000000000000000000000000000008152509050611daa565b600082905060005b60008214611cc8578080611cb1906141a0565b915050600a82611cc19190614217565b9150611c9e565b60008167ffffffffffffffff811115611ce457611ce3612d28565b5b6040519080825280601f01601f191660200182016040528015611d165781602001600182028036833780820191505090505b5090505b60008514611da357600182611d2f9190614248565b9150600a85611d3e919061427c565b6030611d4a9190613760565b60f81b818381518110611d6057611d5f6142ad565b5b60200101907effffffffffffffffffffffffffffffffffffffffffffffffffffffffffffff1916908160001a905350600a85611d9c9190614217565b9450611d1a565b8093505050505b919050565b6000611dc1836000018360001b6121c9565b905092915050565b600081600001805490509050919050565b505050565b611def826000018260001b6121ec565b505050565b611e04826000018260001b612304565b505050565b6000611e35846000018460001b8473ffffffffffffffffffffffffffffffffffffffff1660001b612374565b90509392505050565b600081836000018054905011611e89576040517f08c379a0000000000000000000000000000000000000000000000000000000008152600401611e809061434e565b60405180910390fd5b826000018281548110611e9f57611e9e6142ad565b5b9060005260206000200154905092915050565b6000611ec4836000018360001b61245f565b905092915050565b60008082846000018054905011611f18576040517f08c379a0000000000000000000000000000000000000000000000000000000008152600401611f0f906143e0565b60405180910390fd5b6000846000018481548110611f3057611f2f6142ad565b5b906000526020600020906002020190508060000154816001015492509250509250929050565b60008084600101600085815260200190815260200160002054905060008114158390611fb8576040517f08c379a0000000000000000000000000000000000000000000000000000000008152600401611faf9190612b54565b60405180910390fd5b5084600001600182611fca9190614248565b81548110611fdb57611fda6142ad565b5b9060005260206000209060020201600101549150509392505050565b600081600001805490509050919050565b6120138484846125a8565b6120206000858584612065565b61205f576040517f08c379a000000000000000000000000000000000000000000000000000000000815260040161205690614180565b60405180910390fd5b50505050565b60006120868473ffffffffffffffffffffffffffffffffffffffff1661279f565b61209357600190506121c1565b600061215a63150b7a0260e01b6120a86113b0565b8887876040516024016120be9493929190614476565b604051602081830303815290604052907bffffffffffffffffffffffffffffffffffffffffffffffffffffffff19166020820180517bffffffffffffffffffffffffffffffffffffffffffffffffffffffff838183161783525050505060405180606001604052806032815260200161475d603291398773ffffffffffffffffffffffffffffffffffffffff166127c29092919063ffffffff16565b905060008180602001905181019061217291906144d7565b905063150b7a0260e01b7bffffffffffffffffffffffffffffffffffffffffffffffffffffffff1916817bffffffffffffffffffffffffffffffffffffffffffffffffffffffff191614925050505b949350505050565b600080836001016000848152602001908152602001600020541415905092915050565b600080836001016000848152602001908152602001600020549050600081146122f857600060018261221e9190614248565b90506000600186600001805490506122369190614248565b905060008660000182815481106122505761224f6142ad565b5b9060005260206000200154905080876000018481548110612274576122736142ad565b5b906000526020600020018190555060018361228f9190613760565b87600101600083815260200190815260200160002081905550866000018054806122bc576122bb614504565b5b600190038181906000526020600020016000905590558660010160008781526020019081526020016000206000905560019450505050506122fe565b60009150505b92915050565b600061231083836127da565b61236957826000018290806001815401808255809150506001900390600052602060002001600090919091909150558260000180549050836001016000848152602001908152602001600020819055506001905061236e565b600090505b92915050565b6000808460010160008581526020019081526020016000205490506000810361241a57846000016040518060400160405280868152602001858152509080600181540180825580915050600190039060005260206000209060020201600090919091909150600082015181600001556020820151816001015550508460000180549050856001016000868152602001908152602001600020819055506001915050612458565b828560000160018361242c9190614248565b8154811061243d5761243c6142ad565b5b90600052602060002090600202016001018190555060009150505b9392505050565b6000808360010160008481526020019081526020016000205490506000811461259c5760006001826124919190614248565b90506000600186600001805490506124a99190614248565b905060008660000182815481106124c3576124c26142ad565b5b90600052602060002090600202019050808760000184815481106124ea576124e96142ad565b5b9060005260206000209060020201600082015481600001556001820154816001015590505060018361251c9190613760565b87600101600083600001548152602001908152602001600020819055508660000180548061254d5761254c614504565b5b60019003818190600052602060002090600202016000808201600090556001820160009055505090558660010160008781526020019081526020016000206000905560019450505050506125a2565b60009150505b92915050565b600073ffffffffffffffffffffffffffffffffffffffff168373ffffffffffffffffffffffffffffffffffffffff1603612617576040517f08c379a000000000000000000000000000000000000000000000000000000000815260040161260e9061457f565b60405180910390fd5b61262082611393565b15612660576040517f08c379a0000000000000000000000000000000000000000000000000000000008152600401612657906145eb565b60405180910390fd5b61266c60008484611dda565b6126bd82600160008673ffffffffffffffffffffffffffffffffffffffff1673ffffffffffffffffffffffffffffffffffffffff168152602001908152602001600020611df490919063ffffffff16565b6126d382846002611e099092919063ffffffff16565b5033600a600084815260200190815260200160002060006101000a81548173ffffffffffffffffffffffffffffffffffffffff021916908373ffffffffffffffffffffffffffffffffffffffff160217905550806009600084815260200190815260200160002081905550818373ffffffffffffffffffffffffffffffffffffffff16600073ffffffffffffffffffffffffffffffffffffffff167fddf252ad1be2c89b69c2b068fc378daa952ba7f163c4a11628f55a4df523b3ef60405160405180910390a4505050565b6000808273ffffffffffffffffffffffffffffffffffffffff163b119050919050565b60606127d184846000856127fd565b90509392505050565b600080836001016000848152602001908152602001600020541415905092915050565b606082471015612842576040517f08c379a00000000000000000000000000000000000000000000000000000000081526004016128399061467d565b60405180910390fd5b6000808673ffffffffffffffffffffffffffffffffffffffff16858760405161286b91906146d9565b60006040518083038185875af1925050503d80600081146128a8576040519150601f19603f3d011682016040523d82523d6000602084013e6128ad565b606091505b50915091506128be878383876128ca565b92505050949350505050565b6060831561292c576000835103612924576128e48561279f565b612923576040517f08c379a000000000000000000000000000000000000000000000000000000000815260040161291a9061473c565b60405180910390fd5b5b829050612937565b612936838361293f565b5b949350505050565b6000825111156129525781518083602001fd5b806040517f08c379a00000000000000000000000000000000000000000000000000000000081526004016129869190612b54565b60405180910390fd5b50805461299b90613223565b6000825580601f106129ad57506129cc565b601f0160209004906000526020600020908101906129cb91906129cf565b5b50565b5b808211156129e85760008160009055506001016129d0565b5090565b6000604051905090565b600080fd5b600080fd5b60007fffffffff0000000000000000000000000000000000000000000000000000000082169050919050565b612a3581612a00565b8114612a4057600080fd5b50565b600081359050612a5281612a2c565b92915050565b600060208284031215612a6e57612a6d6129f6565b5b6000612a7c84828501612a43565b91505092915050565b60008115159050919050565b612a9a81612a85565b82525050565b6000602082019050612ab56000830184612a91565b92915050565b600081519050919050565b600082825260208201905092915050565b60005b83811015612af5578082015181840152602081019050612ada565b83811115612b04576000848401525b50505050565b6000601f19601f8301169050919050565b6000612b2682612abb565b612b308185612ac6565b9350612b40818560208601612ad7565b612b4981612b0a565b840191505092915050565b60006020820190508181036000830152612b6e8184612b1b565b905092915050565b6000819050919050565b612b8981612b76565b8114612b9457600080fd5b50565b600081359050612ba681612b80565b92915050565b600060208284031215612bc257612bc16129f6565b5b6000612bd084828501612b97565b91505092915050565b600073ffffffffffffffffffffffffffffffffffffffff82169050919050565b6000612c0482612bd9565b9050919050565b612c1481612bf9565b82525050565b6000602082019050612c2f6000830184612c0b565b92915050565b612c3e81612bf9565b8114612c4957600080fd5b50565b600081359050612c5b81612c35565b92915050565b60008060408385031215612c7857612c776129f6565b5b6000612c8685828601612c4c565b9250506020612c9785828601612b97565b9150509250929050565b612caa81612b76565b82525050565b6000602082019050612cc56000830184612ca1565b92915050565b600080600060608486031215612ce457612ce36129f6565b5b6000612cf286828701612c4c565b9350506020612d0386828701612c4c565b9250506040612d1486828701612b97565b9150509250925092565b600080fd5b600080fd5b7f4e487b7100000000000000000000000000000000000000000000000000000000600052604160045260246000fd5b612d6082612b0a565b810181811067ffffffffffffffff82111715612d7f57612d7e612d28565b5b80604052505050565b6000612d926129ec565b9050612d9e8282612d57565b919050565b600067ffffffffffffffff821115612dbe57612dbd612d28565b5b612dc782612b0a565b9050602081019050919050565b82818337600083830152505050565b6000612df6612df184612da3565b612d88565b905082815260208101848484011115612e1257612e11612d23565b5b612e1d848285612dd4565b509392505050565b600082601f830112612e3a57612e39612d1e565b5b8135612e4a848260208601612de3565b91505092915050565b600060208284031215612e6957612e686129f6565b5b600082013567ffffffffffffffff811115612e8757612e866129fb565b5b612e9384828501612e25565b91505092915050565b600060208284031215612eb257612eb16129f6565b5b6000612ec084828501612c4c565b91505092915050565b600080fd5b600060ff82169050919050565b612ee481612ece565b8114612eef57600080fd5b50565b600081359050612f0181612edb565b92915050565b6000819050919050565b612f1a81612f07565b8114612f2557600080fd5b50565b600081359050612f3781612f11565b92915050565b600060808284031215612f5357612f52612ec9565b5b612f5d6080612d88565b90506000612f6d84828501612ef2565b6000830152506020612f8184828501612f28565b6020830152506040612f9584828501612f28565b6040830152506060612fa984828501612b97565b60608301525092915050565b600080600060c08486031215612fce57612fcd6129f6565b5b600084013567ffffffffffffffff811115612fec57612feb6129fb565b5b612ff886828701612e25565b935050602061300986828701612b97565b925050604061301a86828701612f3d565b9150509250925092565b61302d81612a85565b811461303857600080fd5b50565b60008135905061304a81613024565b92915050565b60008060408385031215613067576130666129f6565b5b600061307585828601612c4c565b92505060206130868582860161303b565b9150509250929050565b600067ffffffffffffffff8211156130ab576130aa612d28565b5b6130b482612b0a565b9050602081019050919050565b60006130d46130cf84613090565b612d88565b9050828152602081018484840111156130f0576130ef612d23565b5b6130fb848285612dd4565b509392505050565b600082601f83011261311857613117612d1e565b5b81356131288482602086016130c1565b91505092915050565b6000806000806080858703121561314b5761314a6129f6565b5b600061315987828801612c4c565b945050602061316a87828801612c4c565b935050604061317b87828801612b97565b925050606085013567ffffffffffffffff81111561319c5761319b6129fb565b5b6131a887828801613103565b91505092959194509250565b600080604083850312156131cb576131ca6129f6565b5b60006131d985828601612c4c565b92505060206131ea85828601612c4c565b9150509250929050565b7f4e487b7100000000000000000000000000000000000000000000000000000000600052602260045260246000fd5b6000600282049050600182168061323b57607f821691505b60208210810361324e5761324d6131f4565b5b50919050565b7f4552433732313a20617070726f76656420717565727920666f72206e6f6e657860008201527f697374656e7420746f6b656e0000000000000000000000000000000000000000602082015250565b60006132b0602c83612ac6565b91506132bb82613254565b604082019050919050565b600060208201905081810360008301526132df816132a3565b9050919050565b7f4552433732313a20617070726f76616c20746f2063757272656e74206f776e6560008201527f7200000000000000000000000000000000000000000000000000000000000000602082015250565b6000613342602183612ac6565b915061334d826132e6565b604082019050919050565b6000602082019050818103600083015261337181613335565b9050919050565b7f4552433732313a20617070726f76652063616c6c6572206973206e6f74206f7760008201527f6e6572206e6f7220617070726f76656420666f7220616c6c0000000000000000602082015250565b60006133d4603883612ac6565b91506133df82613378565b604082019050919050565b60006020820190508181036000830152613403816133c7565b9050919050565b7f4552433732313a207472616e736665722063616c6c6572206973206e6f74206f60008201527f776e6572206e6f7220617070726f766564000000000000000000000000000000602082015250565b6000613466603183612ac6565b91506134718261340a565b604082019050919050565b6000602082019050818103600083015261349581613459565b9050919050565b7f4552433732313a206e6f6e6578697374656e7420746f6b656e00000000000000600082015250565b60006134d2601983612ac6565b91506134dd8261349c565b602082019050919050565b60006020820190508181036000830152613501816134c5565b9050919050565b7f4f776e61626c653a2063616c6c6572206973206e6f7420746865206f776e6572600082015250565b600061353e602083612ac6565b915061354982613508565b602082019050919050565b6000602082019050818103600083015261356d81613531565b9050919050565b7f4552433732313a2062616c616e636520717565727920666f7220746865207a6560008201527f726f206164647265737300000000000000000000000000000000000000000000602082015250565b60006135d0602a83612ac6565b91506135db82613574565b604082019050919050565b600060208201905081810360008301526135ff816135c3565b9050919050565b7f4e6f6e6365203a20496e76616c6964204e6f6e63650000000000000000000000600082015250565b600061363c601583612ac6565b915061364782613606565b602082019050919050565b6000602082019050818103600083015261366b8161362f565b9050919050565b600081905092915050565b600061368882612abb565b6136928185613672565b93506136a2818560208601612ad7565b80840191505092915050565b60006136ba828461367d565b915081905092915050565b7f4d696e74696e673a204475706c6963617465204d696e74696e67000000000000600082015250565b60006136fb601a83612ac6565b9150613706826136c5565b602082019050919050565b6000602082019050818103600083015261372a816136ee565b9050919050565b7f4e487b7100000000000000000000000000000000000000000000000000000000600052601160045260246000fd5b600061376b82612b76565b915061377683612b76565b9250827fffffffffffffffffffffffffffffffffffffffffffffffffffffffffffffffff038211156137ab576137aa613731565b5b828201905092915050565b7f4552433732313a20617070726f766520746f2063616c6c657200000000000000600082015250565b60006137ec601983612ac6565b91506137f7826137b6565b602082019050919050565b6000602082019050818103600083015261381b816137df565b9050919050565b7f4552433732314d657461646174613a2055524920717565727920666f72206e6f60008201527f6e6578697374656e7420746f6b656e0000000000000000000000000000000000602082015250565b600061387e602f83612ac6565b915061388982613822565b604082019050919050565b600060208201905081810360008301526138ad81613871565b9050919050565b60006138c0828561367d565b91506138cc828461367d565b91508190509392505050565b7f4f776e61626c653a206e6577206f776e657220697320746865207a65726f206160008201527f6464726573730000000000000000000000000000000000000000000000000000602082015250565b6000613934602683612ac6565b915061393f826138d8565b604082019050919050565b6000602082019050818103600083015261396381613927565b9050919050565b7f4552433732313a206f70657261746f7220717565727920666f72206e6f6e657860008201527f697374656e7420746f6b656e0000000000000000000000000000000000000000602082015250565b60006139c6602c83612ac6565b91506139d18261396a565b604082019050919050565b600060208201905081810360008301526139f5816139b9565b9050919050565b7f4552433732313a207472616e73666572206f6620746f6b656e2074686174206960008201527f73206e6f74206f776e0000000000000000000000000000000000000000000000602082015250565b6000613a58602983612ac6565b9150613a63826139fc565b604082019050919050565b60006020820190508181036000830152613a8781613a4b565b9050919050565b7f4552433732313a207472616e7366657220746f20746865207a65726f2061646460008201527f7265737300000000000000000000000000000000000000000000000000000000602082015250565b6000613aea602483612ac6565b9150613af582613a8e565b604082019050919050565b60006020820190508181036000830152613b1981613add565b9050919050565b7f63616c6c6572206e6f74206f776e657200000000000000000000000000000000600082015250565b6000613b56601083612ac6565b9150613b6182613b20565b602082019050919050565b60006020820190508181036000830152613b8581613b49565b9050919050565b60008190508160005260206000209050919050565b60006020601f8301049050919050565b600082821b905092915050565b600060088302613bee7fffffffffffffffffffffffffffffffffffffffffffffffffffffffffffffffff82613bb1565b613bf88683613bb1565b95508019841693508086168417925050509392505050565b6000819050919050565b6000613c35613c30613c2b84612b76565b613c10565b612b76565b9050919050565b6000819050919050565b613c4f83613c1a565b613c63613c5b82613c3c565b848454613bbe565b825550505050565b600090565b613c78613c6b565b613c83818484613c46565b505050565b5b81811015613ca757613c9c600082613c70565b600181019050613c89565b5050565b601f821115613cec57613cbd81613b8c565b613cc684613ba1565b81016020851015613cd5578190505b613ce9613ce185613ba1565b830182613c88565b50505b505050565b600082821c905092915050565b6000613d0f60001984600802613cf1565b1980831691505092915050565b6000613d288383613cfe565b9150826002028217905092915050565b613d4182612abb565b67ffffffffffffffff811115613d5a57613d59612d28565b5b613d648254613223565b613d6f828285613cab565b600060209050601f831160018114613da25760008415613d90578287015190505b613d9a8582613d1c565b865550613e02565b601f198416613db086613b8c565b60005b82811015613dd857848901518255600182019150602085019450602081019050613db3565b86831015613df55784890151613df1601f891682613cfe565b8355505b6001600288020188555050505b505050505050565b6000613e25613e20613e1b84612bd9565b613c10565b612bd9565b9050919050565b6000613e3782613e0a565b9050919050565b6000613e4982613e2c565b9050919050565b60008160601b9050919050565b6000613e6882613e50565b9050919050565b6000613e7a82613e5d565b9050919050565b613e92613e8d82613e3e565b613e6f565b82525050565b613ea9613ea482612bf9565b613e6f565b82525050565b6000819050919050565b613eca613ec582612b76565b613eaf565b82525050565b6000613edc8287613e81565b601482019150613eec8286613e98565b601482019150613efc828561367d565b9150613f088284613eb9565b60208201915081905095945050505050565b7f19457468657265756d205369676e6564204d6573736167653a0a333200000000600082015250565b6000613f50601c83613672565b9150613f5b82613f1a565b601c82019050919050565b6000819050919050565b613f81613f7c82612f07565b613f66565b82525050565b6000613f9282613f43565b9150613f9e8284613f70565b60208201915081905092915050565b613fb681612f07565b82525050565b613fc581612ece565b82525050565b6000608082019050613fe06000830187613fad565b613fed6020830186613fbc565b613ffa6040830185613fad565b6140076060830184613fad565b95945050505050565b7f4f776e6572207369676e20766572696669636174696f6e206661696c65640000600082015250565b6000614046601e83612ac6565b915061405182614010565b602082019050919050565b6000602082019050818103600083015261407581614039565b9050919050565b7f4552433732314d657461646174613a2055524920736574206f66206e6f6e657860008201527f697374656e7420746f6b656e0000000000000000000000000000000000000000602082015250565b60006140d8602c83612ac6565b91506140e38261407c565b604082019050919050565b60006020820190508181036000830152614107816140cb565b9050919050565b7f4552433732313a207472616e7366657220746f206e6f6e20455243373231526560008201527f63656976657220696d706c656d656e7465720000000000000000000000000000602082015250565b600061416a603283612ac6565b91506141758261410e565b604082019050919050565b600060208201905081810360008301526141998161415d565b9050919050565b60006141ab82612b76565b91507fffffffffffffffffffffffffffffffffffffffffffffffffffffffffffffffff82036141dd576141dc613731565b5b600182019050919050565b7f4e487b7100000000000000000000000000000000000000000000000000000000600052601260045260246000fd5b600061422282612b76565b915061422d83612b76565b92508261423d5761423c6141e8565b5b828204905092915050565b600061425382612b76565b915061425e83612b76565b92508282101561427157614270613731565b5b828203905092915050565b600061428782612b76565b915061429283612b76565b9250826142a2576142a16141e8565b5b828206905092915050565b7f4e487b7100000000000000000000000000000000000000000000000000000000600052603260045260246000fd5b7f456e756d657261626c655365743a20696e646578206f7574206f6620626f756e60008201527f6473000000000000000000000000000000000000000000000000000000000000602082015250565b6000614338602283612ac6565b9150614343826142dc565b604082019050919050565b600060208201905081810360008301526143678161432b565b9050919050565b7f456e756d657261626c654d61703a20696e646578206f7574206f6620626f756e60008201527f6473000000000000000000000000000000000000000000000000000000000000602082015250565b60006143ca602283612ac6565b91506143d58261436e565b604082019050919050565b600060208201905081810360008301526143f9816143bd565b9050919050565b600061440b82612bd9565b9050919050565b61441b81614400565b82525050565b600081519050919050565b600082825260208201905092915050565b600061444882614421565b614452818561442c565b9350614462818560208601612ad7565b61446b81612b0a565b840191505092915050565b600060808201905061448b6000830187614412565b6144986020830186612c0b565b6144a56040830185612ca1565b81810360608301526144b7818461443d565b905095945050505050565b6000815190506144d181612a2c565b92915050565b6000602082840312156144ed576144ec6129f6565b5b60006144fb848285016144c2565b91505092915050565b7f4e487b7100000000000000000000000000000000000000000000000000000000600052603160045260246000fd5b7f4552433732313a206d696e7420746f20746865207a65726f2061646472657373600082015250565b6000614569602083612ac6565b915061457482614533565b602082019050919050565b600060208201905081810360008301526145988161455c565b9050919050565b7f4552433732313a20746f6b656e20616c7265616479206d696e74656400000000600082015250565b60006145d5601c83612ac6565b91506145e08261459f565b602082019050919050565b60006020820190508181036000830152614604816145c8565b9050919050565b7f416464726573733a20696e73756666696369656e742062616c616e636520666f60008201527f722063616c6c0000000000000000000000000000000000000000000000000000602082015250565b6000614667602683612ac6565b91506146728261460b565b604082019050919050565b600060208201905081810360008301526146968161465a565b9050919050565b600081905092915050565b60006146b382614421565b6146bd818561469d565b93506146cd818560208601612ad7565b80840191505092915050565b60006146e582846146a8565b915081905092915050565b7f416464726573733a2063616c6c20746f206e6f6e2d636f6e7472616374000000600082015250565b6000614726601d83612ac6565b9150614731826146f0565b602082019050919050565b6000602082019050818103600083015261475581614719565b905091905056fe4552433732313a207472616e7366657220746f206e6f6e20455243373231526563656976657220696d706c656d656e7465724552433732313a206f776e657220717565727920666f72206e6f6e6578697374656e7420746f6b656ea26469706673582212208dfb95341c7664f697e5cc1943f7f72f5a099b78efff038e44b5d5b59dc57c4564736f6c634300080f0033",
  "immutableReferences": {},
  "source": "// SPDX-License-Identifier: MIT\r\n// OpenZeppelin Contracts (last updated v4.7.0) \r\n\r\npragma solidity ^0.8.4;\r\n\r\nimport \"./ERC721.sol\";\r\n\r\ncontract NFT is ERC721 {\r\n    \r\n    uint256 public tokenCounter;\r\n    address public owner;\r\n    mapping(uint256 => bool) private usedNonce;\r\n    mapping(string => bool) private tokenURIs;\r\n\r\n    event OwnershipTransferred(address indexed previousOwner, address indexed newOwner);\r\n\r\n    struct Sign {\r\n        uint8 v;\r\n        bytes32 r;\r\n        bytes32 s;\r\n        uint256 nonce;\r\n    }\r\n\r\n    constructor (string memory tokenName, string memory tokenSymbol) ERC721 (tokenName, tokenSymbol){\r\n        tokenCounter = 1;\r\n        owner = msg.sender;\r\n    }\r\n\r\n    modifier onlyOwner() {\r\n        require(owner == msg.sender, \"Ownable: caller is not the owner\");\r\n        _;\r\n    }\r\n\r\n    function transferOwnership(address newOwner) external onlyOwner returns(bool){\r\n        require(newOwner != address(0), \"Ownable: new owner is the zero address\");\r\n        owner = newOwner;\r\n        emit OwnershipTransferred(owner, newOwner);\r\n        return true;\r\n    }\r\n\r\n    function verifySign(string memory tokenURI, address caller, Sign memory sign) internal view {\r\n        bytes32 hash = keccak256(abi.encodePacked(this, caller, tokenURI, sign.nonce));\r\n        require(owner == ecrecover(keccak256(abi.encodePacked(\"\\x19Ethereum Signed Message:\\n32\", hash)), sign.v, sign.r, sign.s), \"Owner sign verification failed\");\r\n    }\r\n\r\n    \r\n    /**\r\n     * @dev Internal function to mint a new token.\r\n     * Reverts if the given token ID already exists.\r\n     * @param sign struct combination of uint8, bytes32, bytes32 are v, r, s.\r\n     * @param tokenURI string memory URI of the token to be minted.\r\n     * @param fee uint256 royalty of the token to be minted.\r\n     */\r\n\r\n    function createNFT(string memory tokenURI, uint256 fee, Sign memory sign) external returns (uint256) {\r\n        require(!usedNonce[sign.nonce], \"Nonce : Invalid Nonce\");\r\n        require(!tokenURIs[tokenURI],\"Minting: Duplicate Minting\");\r\n        usedNonce[sign.nonce] = true;\r\n        uint256 newItemId = tokenCounter;\r\n        verifySign(tokenURI, msg.sender, sign);\r\n        _safeMint(msg.sender, newItemId, fee);\r\n        _setTokenURI(newItemId, tokenURI);\r\n        tokenURIs[tokenURI] = true;\r\n        tokenCounter = tokenCounter + 1;\r\n        return newItemId;\r\n    }\r\n\r\n    function setBaseURI(string memory _baseURI) external onlyOwner{\r\n        _setBaseURI(_baseURI);\r\n    }\r\n    \r\n    function burn(uint256 tokenId) external {\r\n        require(_exists(tokenId), \"ERC721: nonexistent token\");\r\n        _burn(tokenId);\r\n    }\r\n}",
  "sourcePath": "C:\\Users\\91863\\Arevea\\contracts\\NFT.sol",
  "compiler": {
    "name": "solc",
    "version": "0.8.15+commit.e14f2714.Emscripten.clang"
  },
  "schemaVersion": "3.4.8",
  "updatedAt": "2022-07-19T13:13:23.889Z",
  "networkType": "ethereum",
  "devdoc": {
    "kind": "dev",
    "methods": {
      "balanceOf(address)": {
        "params": {
          "owner": "The address of the token holder"
        },
        "returns": {
          "_0": "The account's balance of the Token type requested"
        }
      },
      "createNFT(string,uint256,(uint8,bytes32,bytes32,uint256))": {
        "details": "Internal function to mint a new token. Reverts if the given token ID already exists.",
        "params": {
          "fee": "uint256 royalty of the token to be minted.",
          "sign": "struct combination of uint8, bytes32, bytes32 are v, r, s.",
          "tokenURI": "string memory URI of the token to be minted."
        }
      },
      "isApprovedForAll(address,address)": {
        "params": {
          "operator": "Address of authorized operator",
          "owner": "The owner of the Tokens"
        },
        "returns": {
          "_0": "True if the operator is approved, false if not"
        }
      },
      "name()": {
        "details": "Returns the token collection name."
      },
      "ownerOf(uint256)": {
        "params": {
          "tokenId": "The tokenId of the token holder"
        },
        "returns": {
          "_0": "The current owner of the requested tokenId"
        }
      },
      "safeTransferFrom(address,address,uint256,bytes)": {
        "details": "Caller must be approved to manage the tokens being transferred out of the `_from` account (see \"Approval\" section of the standard). MUST revert if `_to` is the zero address. MUST revert if balance of holder for token `_id` is lower than the `_value` sent. MUST revert on any other error. MUST emit the `TransferSingle` event to reflect the balance change (see \"Safe Transfer Rules\" section of the standard). After the above conditions are met, this function MUST check if `_to` is a smart contract (e.g. code size > 0). If so, it MUST call `onERC721Received` on `_to` and act appropriately (see \"Safe Transfer Rules\" section of the standard).",
        "params": {
          "_data": "Additional data with no specified format, MUST be sent unaltered in call to `onERC721Received` on `_to`",
          "from": "Source address",
          "to": "Target address",
          "tokenId": "ID of the token type."
        }
      },
      "setApprovalForAll(address,bool)": {
        "details": "MUST emit the ApprovalForAll event on success.",
        "params": {
          "approved": "True if the operator is approved, false to revoke approval",
          "operator": "Address to add to the set of authorized operators"
        }
      },
      "supportsInterface(bytes4)": {
        "details": "Returns true if this contract implements the interface defined by `interfaceId`. See the corresponding https://eips.ethereum.org/EIPS/eip-165#how-interfaces-are-identified[EIP section] to learn more about how these ids are created. This function call must use less than 30 000 gas."
      },
      "symbol()": {
        "details": "Returns the token collection symbol."
      },
      "tokenByIndex(uint256)": {
        "details": "Returns a token ID at a given `index` of all the tokens stored by the contract. Use along with {totalSupply} to enumerate all tokens."
      },
      "tokenOfOwnerByIndex(address,uint256)": {
        "details": "Returns a token ID owned by `owner` at a given `index` of its token list. Use along with {balanceOf} to enumerate all of ``owner``'s tokens."
      },
      "tokenURI(uint256)": {
        "details": "Returns the Uniform Resource Identifier (URI) for `tokenId` token."
      },
      "totalSupply()": {
        "details": "Returns the total amount of tokens stored by the contract."
      }
    },
    "version": 1
  },
  "userdoc": {
    "kind": "user",
    "methods": {
      "balanceOf(address)": {
        "notice": "Get the Token balance of an account's."
      },
      "isApprovedForAll(address,address)": {
        "notice": "Queries the approval status of an operator for a given owner."
      },
      "ownerOf(uint256)": {
        "notice": "Get the owner of tokenId."
      },
      "safeTransferFrom(address,address,uint256,bytes)": {
        "notice": "Transfers `_value` amount of an `_id` from the `_from` address to the `_to` address specified (with safety call)."
      },
      "setApprovalForAll(address,bool)": {
        "notice": "Enable or disable approval for a third party (\"operator\") to manage all of the caller's tokens."
      }
    },
    "version": 1
  }
}